:100000000C9426010C9453010C9453010C9453014D
:100010000C9453010C9453010C9453010C94530110
:100020000C9453010C9453010C9453010C94530100
:100030000C9453010C9453010C9453010C945301F0
:100040000C9453010C9453010C9453010C945301E0
:100050000C94520A0C9453010C9453010C94A13348
:100060000C9453010C94CB360C9413380C9453011C
:100070000C9453010C94270A0C9453010C945301D3
:100080000C9453010C9453010C9453010C94390DAE
:100090000C940B370C9452380C9453010C94430677
:1000A0000C9453010C9453010C9453010C94530180
:1000B0000C9453010C9453010C9453010C94530170
:1000C0000C9453010C9453010C9453010C944B3732
:1000D0000C9491380C9453010C948B370C94D038B9
:1000E0000C9453011C2256229022CA224F2304232F
:1000F0008923E4232A2407247D2456248025592596
:10010000B1258B260D262A27E3266B278627A027D5
:10011000C027EA27C3232028432861287E28AC284B
:1001200000002100240027002A002D0030003300A9
:1001300001010000040107010A010000220025005E
:1001400028002B002E0031003400020100000501C0
:1001500008010B01000020002300260029002C00CC
:100160002F0032000001000003010601090105050E
:100170000505070508080808020202020A0A08081D
:10018000040404040101010101010101030303034B
:1001900003030303040707070C0C0C0C0C0C0C0CDA
:1001A0000202020206060606060606060B0B0B0BEB
:1001B0000B0B0B0B01021020200808102040102010
:1001C000408002010201080402010102040810201B
:1001D0004080804020100804020180040201804019
:1001E0002010080402010804020101020408102082
:1001F000408001020408102040800000090A020823
:100200000B0C0D07060304010000000000000000B5
:1002100000000000000000000000000000000000DE
:1002200000000000000011100F000000000000009E
:1002300000000000000000000000000000000000BE
:100240008803DB045C0AFC28403A810311241FBEAA
:10025000CFEFD1E2DEBFCDBF00E00CBF14E0A0E0E5
:10026000B2E0E8E2F6E800E00BBF02C007900D92B2
:10027000AE3DB107D9F71BBE11E1AEEDB4E001C050
:100280001D92A437B107E1F712E0CAE4D2E004C03E
:100290002297FE010E94CC42C034D107C9F70E94C8
:1002A0003F040C9407430C940000CF93DF93BC01F0
:1002B0008230910510F462E070E0A0917211B0916B
:1002C0007311ED01E0E0F0E040E050E021C08881F2
:1002D00099818617970769F48A819B81309719F075
:1002E0009383828304C09093731180937211FE01F3
:1002F00034C06817790738F44115510519F084178F
:10030000950708F4AC01FE018A819B819C01E901FB
:100310002097E9F641155105A9F1CA01861B970BF3
:10032000049708F4BA01E0E0F0E02AC08D919C91B6
:10033000119784179507F9F46417750781F41296DD
:100340008D919C911397309719F09383828304C009
:100350009093731180937211FD0132964CC0CA01C3
:10036000861B970BFD01E80FF91F619371930297AC
:100370008D939C9340C0FD01828193819C01D901A2
:100380001097A1F68091701190917111892B41F411
:100390008091DD039091DE03909371118093701131
:1003A0004091DF035091E0034115510541F44DB7F1
:1003B0005EB78091DB039091DC03481B590B2091C1
:1003C000701130917111CA01821B930B8617970728
:1003D00080F0AB014E5F5F4F8417950750F0420FDE
:1003E000531F5093711140937011F90161937193F0
:1003F00002C0E0E0F0E0CF01DF91CF910895CF930C
:10040000DF93009709F450C0EC0122971B821A82F7
:10041000A0917211B0917311109709F140E050E072
:10042000AC17BD0708F1BB83AA83FE01219131916E
:10043000E20FF31FAE17BF0779F48D919C911197CE
:10044000280F391F2E5F3F4F3983288312968D91D5
:100450009C9113979B838A834115510571F4D09326
:100460007311C093721120C012968D919C911397B5
:10047000AD01009711F0DC01D3CFFA01D383C28321
:1004800021913191E20FF31FCE17DF0769F48881C4
:100490009981280F391F2E5F3F4FFA013183208346
:1004A0008A819B8193838283DF91CF910895A0E01D
:1004B000B0E0EDE5F2E00C94D2426C01009729F433
:1004C000CB010E9455016C01C1C08EEF882E8FEFC9
:1004D000982E8C0C9D1C8601060F171F08151905F8
:1004E00008F4B2C0F401A081B181A617B707B8F033
:1004F000A530B10508F4AAC0CD0104978617970767
:1005000008F4A4C01297A61BB70BF801A193B193EE
:10051000D4016D937C93CF010E94FF0197C07B01B2
:10052000EA1AFB0AEEEFFFEFEE0EFF1E36016A0E2F
:100530007B1EC0917211D091731144245524AA24BA
:10054000BB244AC0C615D705E1F5488159814E152F
:100550005F05B8F1CA0104978E159F05B0F4129695
:10056000A40FB51FF401B183A0832A813B814114FC
:10057000510431F0D20113963C932E93129766C02A
:10058000309373112093721161C08A819B81F801AD
:1005900093838283425050404E195F0951834083B8
:1005A0004114510431F0D20113961C930E9312970B
:1005B00004C01093731100937211F401718360836E
:1005C00045C088819981A816B90608F45C012E01FE
:1005D0008A819B819C01E901209709F0B3CF80912A
:1005E00070119091711186159705E9F4A616B7065A
:1005F000D0F42091DF033091E0032115310541F45F
:100600002DB73EB78091DB039091DC03281B390B9B
:1006100002171307C8F41093711100937011D401DD
:100620006D937C9313C0CB010E945501EC010097A0
:1006300059F0F40140815181B6010E942C03C6019A
:100640000E94FF016E0102C0CC24DD24C601CDB79B
:10065000DEB7E0E10C94EE42FB01DC0102C0019048
:100660000D9241505040D8F70895FB01DC010190F4
:100670000D920020E1F70895FB019F01423074F0D4
:10068000453264F4642F77270E949442805D8A3358
:100690000CF0895D8193CB010097A1F71082C9010D
:1006A0000C945203DC01FC01672F71917723E1F771
:1006B000329704C07C916D9370836291AE17BF072F
:1006C000C8F308958091E1039091E203019690931D
:1006D000E2038093E10308958130910541F46F5F57
:1006E0007F4F71F48EED94E00E947A140895892B67
:1006F00039F46F5F7F4F21F48EED94E00E94711406
:10070000089580E090E06FEF7FEF0E946C03089502
:1007100081E090E06FEF7FEF0E946C0308958FE718
:100720009EE040E45BE46CE470E00E94D30D8FE750
:100730009EE062E673E02FEF3FEF4FEF5FEF0E9426
:10074000DB0D8EED94E00E94771188EE90E160E081
:1007500072E00E941F3D6FEF71E26050724088EEC0
:1007600090E14AE050E00E94003D88EE90E165E0B3
:1007700072E00E941F3D6EED74E06050724088EEA2
:1007800090E14AE050E00E94003D88EE90E16CE08C
:1007900072E00E941F3D64E771E16E5D744088EE77
:1007A00090E14AE050E00E94003D88EE90E162E175
:1007B00072E00E941F3D609170117091711161157E
:1007C000710519F460E070E002C06457714188EE71
:1007D00090E14AE050E00E94003D88EE90E168E13F
:1007E00072E00E941F3D8DB79EB76FEF71E2681BEC
:1007F000790B88EE90E14AE050E00E94003D88EEDF
:1008000090E16FE172E00E941F3D80917011909124
:100810007111009729F46DB77EB76457714104C018
:100820006DB77EB7681B790B88EE90E14AE050E027
:100830000E94003D08958EED94E00E94E51F809196
:10084000E1039091E20369E170E00E949442892BF8
:10085000A9F48091300D882359F08091310D8823BF
:1008600029F48EED94E00E94100E02C01092310D1A
:1008700081E090E09093E2038093E1030895CF93A9
:10088000DF930E9472340E948F03CAECD7E30E9468
:100890001B042097E1F30E94CA37F9CFF999FECFE4
:1008A00072BD61BDF89A80B50895F999FECF1FBA5F
:1008B00072BD61BD40BD0FB6F894FA9AF99A0FBEA9
:1008C0000895882319F48CB5806202C08CB58F7DA1
:1008D0008CBD08959CB5937F982B9CBD08952CB535
:1008E000382F33702C7F322B3CBD2DB590E0959581
:1008F00087959595879581702E7F822B8DBD089564
:1009000085E361E00E94673685E361E00E94B435CB
:100910008CB580618CBD8CB580648CBD84E361E056
:100920000E94B43583E361E00E94B435089581E00C
:100930008093E50D6093C20D1092E30D1092E40DCB
:10094000089581E08093E50D6093C20D1092E30D50
:100950001092E40D08952091C10D30E08091C00DFA
:10096000281B3109C90108954091C00D8091C10D26
:10097000481718F02FEF3FEF0AC0E42FF0E0E056E1
:10098000F24F8081282F30E04F5F4093C00DC901A6
:100990000895E091C00D8091C10DE81718F0EFEFB8
:1009A000FFEF06C0F0E0E056F24F8081E82FF0E064
:1009B000CF01089508951092E90D1092E80D88EE88
:1009C00093E0A0E0B0E08093EA0D9093EB0DA0934C
:1009D000EC0DB093ED0D87EE93E09093E70D8093CF
:1009E000E60D0895CF92DF92EF92FF920F931F933F
:1009F000CF93DF937C016B018A018091E50D882301
:100A0000A1F0C0E0D0E00DC0D701ED91FC91D6017E
:100A1000AC0FBD1F0190F081E02DC7016C911995BD
:100A20002196C017D10780F304C0CB01642F0E9428
:100A30002806C801DF91CF911F910F91FF90EF9091
:100A4000DF90CF900895DF93CF930F92CDB7DEB7AD
:100A5000FC0169838091E50D8823C9F08091E40D44
:100A6000803238F081E090E09383828320E030E0B0
:100A700015C08091E30DE82FF0E0ED53F24F99811E
:100A800090838F5F8093E30D8093E40D05C0CE01CA
:100A9000019661E00E94280621E030E0C9010F9034
:100AA000CF91DF9108950F93062F8091C20D63ECD3
:100AB0007DE04091E40D21E00E94D3051092E30D0A
:100AC0001092E40D1092E50D0F91089561E00E94DF
:100AD00053050895413208F040E2862F60EA7DE038
:100AE0000E948A051092C00D8093C10D089521E0E7
:100AF0000E946A05089521E00E946A0508951092F7
:100B0000C00D1092C10D1092E30D1092E40D0E94E1
:100B1000D8070895382F413210F040E042C080914C
:100B2000F20D8823E1F791E09093F20D2093F40DFC
:100B30008FEF80935F0E10921A0E415040931B0E60
:100B40004F5F9093F30D8091F30D330F832B8093C0
:100B5000F30D8091F50D813041F41092F50D8091E7
:100B6000F30D8093BB0085EC01C085EE8093BC0043
:100B70008091F20D8130E1F380911A0E841710F408
:100B800040911A0E20E030E00AC0FB01E20FF31F93
:100B9000D901A650B24F8C9180832F5F3F4F24170D
:100BA000A0F3842F08950F931F93582F122F4132D3
:100BB00010F081E04AC08091F20D8823E1F782E0D5
:100BC0008093F20D0093F40D8FEF80935F0E1092DF
:100BD0001A0E40931B0EAAEFBDE0FB0102C08191EB
:100BE0008D938E2F861B8417D0F31092F30D809176
:100BF000F30D550F852B8093F30D8091F50D81300A
:100C000041F41092F50D8091F30D8093BB0085ECBB
:100C100001C085EE8093BC00112321F08091F20D7C
:100C20008230E1F380915F0E8F3F11F480E00DC0C0
:100C300080915F0E803211F482E007C080915F0ED8
:100C4000803311F084E001C083E01F910F9108957B
:100C5000482F613210F081E008958091F20D8430C8
:100C600011F082E0089560933D0EACE1BEE0842F68
:100C70009C01F90102C081918D938E2F841B8617F0
:100C8000D0F380E008951F920F920FB60F920BB62B
:100C90000F9211242F933F934F935F936F937F9302
:100CA0008F939F93AF93BF93EF93FF938091B9007E
:100CB00090E0887F90708036910509F4F2C081360B
:100CC0009105CCF58832910509F47BC089329105F4
:100CD000B4F48031910509F46FC0813191053CF481
:100CE000009709F447C1089709F04FC165C08831E2
:100CF000910509F466C0809709F047C182C080342D
:100D0000910509F4A4C08134910544F48033910520
:100D100009F482C0C89709F038C189C080359105AF
:100D200009F489C08835910509F496C08834910585
:100D300009F02BC1AEC08839910509F413C1893976
:100D40009105ECF48837910509F4ABC0893791051A
:100D50004CF48836910509F4A4C08037910509F058
:100D600014C19FC08838910509F4FCC080399105F1
:100D700009F49DC08038910509F007C198C0803BF7
:100D8000910509F4C6C0813B91054CF4803A910568
:100D900009F49FC0883A910509F0F7C0BAC0803CB9
:100DA000910509F4E3C0883C910509F4DFC0883B54
:100DB000910509F0EAC0C2C08091F30D8093BB0099
:100DC000CFC090911A0E80911B0E981768F49091E5
:100DD0001A0EE92FF0E0E650F24F80818093BB00BD
:100DE0009F5F90931A0EBCC08091F40D882309F484
:100DF0004BC085ED8093BC008091BC0084FDFCCF8E
:100E0000C2C080E280935F0E85ED8093BC0080912C
:100E1000BC0084FDFCCFB7C080E380935F0E85EDFE
:100E20008093BC008091BC0084FDFCCFACC088E303
:100E300080935F0E9BC080911A0E9091BB00E82FAB
:100E4000F0E0E650F24F90838F5F80931A0E9091FE
:100E50001A0E80911B0E82C080911A0E9091BB00D9
:100E6000E82FF0E0E650F24F90838F5F80931A0EE8
:100E70008091F40D882341F085ED8093BC00809132
:100E8000BC0084FDFCCF7FC081E08093F50D84EA37
:100E90006EC085ED8093BC008091BC0084FDFCCFCA
:100EA00072C083E08093F20D10925E0E59C0809163
:100EB0005E0E803208F056C080915E0E9091BB00AD
:100EC000E82FF0E0E25CF14F90838F5F80935E0E3D
:100ED00047C080915E0E803230F4E0915E0EF0E00B
:100EE000E25CF14F108285ED8093BC008091BC00E4
:100EF00084FDFCCF1092F20D60915E0EE091F80D32
:100F0000F091F90D8EE39EE070E0199510925E0E5F
:100F10002DC084E08093F20D10923C0E10923D0E95
:100F2000E091F60DF091F70D199580913D0E882313
:100F300029F481E080933D0E10921C0E90913C0E9E
:100F4000E92FF0E0E45EF14F80818093BB009F5F6A
:100F500090933C0E90913C0E80913D0E981710F4AA
:100F600085EC01C085E88093BC000FC085EC8093C0
:100F7000BC0009C010925F0E85ED8093BC0080918B
:100F8000BC0084FDFCCF1092F20DFF91EF91BF9158
:100F9000AF919F918F917F916F915F914F913F9111
:100FA0002F910F900BBE0F900FBE0F901F901895B2
:100FB0001092F20D81E08093F40D1092F50D84E112
:100FC00061E00E94673685E161E00E946736E9EBE7
:100FD000F0E080818E7F808380818D7F808388E4B4
:100FE0008093B80085E48093BC000895EAE7F0E0C0
:100FF0009081987F90839081982B90830895209181
:101000007A0030E027703070C9010895EF92FF92A6
:101010000F931F937B018C0180E1809381001092DC
:10102000800060E074E284E799E4A80197010E94DF
:10103000284020E030E040E051E40E94B9410E94A5
:1010400095409B01AC01203080E0380781E04807E3
:1010500080E0580728F481E080937E0EB90155C0E6
:10106000203080E0380788E0480780E0580768F4BF
:1010700082E080937E0EDA01C901E3E0B695A79580
:1010800097958795EA95D1F714C0203080E038070E
:1010900080E4480780E0580770F483E080937E0E78
:1010A000DA01C90176E0B695A795979587957A9567
:1010B000D1F7BC012AC0203080E0380780E0480723
:1010C00081E0580740F484E080937E0EBB27A52F73
:1010D000942F832FEECF203080E0380780E0480740
:1010E00084E0580768F485E080937E0EDA01C90138
:1010F0002AE0B695A795979587952A95D1F7D9CFE8
:1011000085E080937E0E6FEF7FEF70938700609392
:10111000860091E090936F0080917B00887F8093A0
:101120007B0080917B00866080937B009093680EAB
:1011300080917A00806280937A00E092720EF09241
:10114000730E0093740E1093750E1F910F91FF9004
:10115000EF900895882321F080917C00806203C085
:1011600080917C008F7D80937C0008958093680E31
:10117000882321F080917A00806203C080917A00F8
:101180008F7D80937A00089591E090936C0E109279
:101190006A0E1092690E10926D0E2CE739E03093B2
:1011A0006F0E20936E0E80936B0E90917C00907F5B
:1011B00090937C0020917C00982F9770922B9093B5
:1011C0007C00883020F080917B00886003C0809193
:1011D0007B00877F80937B00089580936B0E9091B6
:1011E0007C00907F90937C0020917C00982F9770DA
:1011F000922B90937C00883020F080917B00886057
:1012000003C080917B00877F80937B00089580914D
:101210006D0E8F5F80936D0E90916C0E891711F497
:1012200010926D0E80916D0EE091690EF0916A0E34
:10123000E80FF11D208120936B0E80917C00807F50
:1012400080937C0090917C00822F8770892B809303
:101250007C00283020F080917B00886003C0809162
:101260007B00877F80937B005091780040917900CC
:101270002091640E3091650E8091660E9091670EFC
:1012800028173907C0F58091680E882329F48091CA
:101290007A00806480937A00942F80E0452F50E09C
:1012A000482B592B80917C0085FF11C08091640EE2
:1012B0009091650EE091600EF091610EE80FF91FBC
:1012C000508301969093650E8093640E08958091EB
:1012D000640E9091650E9C01220F331FE091620E07
:1012E000F091630EE20FF31F5183408301969093B8
:1012F000650E8093640E08955091780040917900B6
:101300002091640E3091650E8091660E9091670E6B
:1013100028173907C0F58091680E882329F4809139
:101320007A00806480937A00942F80E0452F50E00B
:10133000482B592B80917C0085FF11C08091640E51
:101340009091650EE091600EF091610EE80FF91F2B
:10135000508301969093650E8093640E089580915A
:10136000640E9091650E9C01220F331FE091620E76
:10137000F091630EE20FF31F518340830196909327
:10138000650E8093640E089550916D0E90916C0ED1
:10139000923050F1852F8F5F80936D0E891711F475
:1013A00010926D0E80916D0EE091690EF0916A0EB3
:1013B000E80FF11D208120936B0E80917C00807FCF
:1013C00080937C0090917C00822F8770892B809382
:1013D0007C00283020F080917B00886003C08091E1
:1013E0007B00877F80937B0060917800409179003B
:1013F0002091640E3091650E8091660E9091670E7B
:101400002817390718F58091680E882329F48091F0
:101410007A00806480937A00942F80E070E0682BDB
:10142000792B80917C0085FF02C0672F7727E091A0
:10143000700EF091710E852F19958091640E909128
:10144000650E01969093650E8093640E08951F9229
:101450000F920FB60F920BB60F9211242F933F935A
:101460004F935F936F937F938F939F93AF93BF93AC
:10147000EF93FF93E0916E0EF0916F0E1995FF912F
:10148000EF91BF91AF919F918F917F916F915F91FC
:101490004F913F912F910F900BBE0F900FBE0F9069
:1014A0001F9018951F920F920FB60F9211240F9054
:1014B0000FBE0F901F901895ECE7F0E080818F73BE
:1014C000808380818064808308950F931F930091AF
:1014D0007C0010917B0080917C00807E80937C005A
:1014E00080917C008E6180937C0080917B00877F5F
:1014F00080937B0063E070E080E090E00E940F3416
:1015000080917A00806480937A0080917A0086FDD1
:10151000FCCF209178004091790000937C001093DB
:101520007B00742F60E030E0622B732B882777FDFF
:101530008095982F0E94C3409B01AC0160E070E849
:1015400089E894E40E9428401F910F910895AF927A
:10155000BF92CF92DF92EF92FF920F931F930E9460
:10156000E9335B016C0180917A00877D80937A007A
:1015700080917B008770863029F480918100887F7C
:10158000809381006091660E7091670E80E090E01C
:101590000E94C14020E034E244E759E40E94B9418E
:1015A0007B018C0180917A0E90917B0EA0917C0E34
:1015B000B0917D0EA81AB90ACA0ADB0AC601B501A4
:1015C0000E94C1409B01AC01C801B7010E942840A4
:1015D0006093760E7093770E8093780E9093790EC9
:1015E0001F910F91FF90EF90DF90CF90BF90AF9041
:1015F00008951092650E1092640E8091680E8823F3
:1016000021F080917A00806203C080917A008F7D02
:1016100080937A000E94E93360937A0E70937B0E78
:1016200080937C0E90937D0E80917A00886C8093DD
:101630007A0080917B008770863081F480918100F0
:10164000887F8093810010928500109284008091A1
:10165000810090917E0E892B809381000895FC017A
:1016600013861586148687E090E0128631970097DE
:1016700011F00197FACF0895DF92EF92FF920F9346
:101680001F93FC01E08001811281F894F8018181AF
:101690008E2981838281DE2CD0948D21828383E008
:1016A00090E00E946834F80181818D2181838AE075
:1016B00090E00E946834F8010081789485E390E01E
:1016C0000E94683480E010E0FF240E211F21012BCE
:1016D00009F081E01F910F91FF90EF90DF90089546
:1016E000EF92FF920F931F93CF93DF937C0101E062
:1016F00010E0C0E0D0E0C7010E943C0B8111102B2C
:10170000000F2196C830D105B1F7812FDF91CF911D
:101710001F910F91FF90EF9008951F93CF93DF9348
:10172000FC011081C181D281912F909560FF12C080
:10173000F8948A8189238A838981812B89838AE02D
:1017400090E00E9468348A81812B8A83789487E3B1
:1017500090E011C0F8948A8189238A838981812B42
:10176000898381E490E00E9468348A81812B8A8396
:10177000789485E090E00E946834DF91CF911F91CA
:101780000895CF92DF92EF92FF920F931F93CF9322
:10179000DF938C01E42EFF24F394C0E0D0E0C62E4A
:1017A000DD2460E08F2D90E08C219D21892B09F0B4
:1017B00061E0C8010E948D0BFF0C2196C830D10555
:1017C00081F7EE20A9F4F894D8011196ED91FC91DF
:1017D000129791818C918095982391831196ED9128
:1017E000FC91129792818C918095982392837894A2
:1017F000DF91CF911F910F91FF90EF90DF90CF90ED
:101800000895EF92FF920F931F93CF93DF938C0174
:101810007B0165E540E00E94C10BC0E0D0E0F7012C
:10182000EC0FFD1FC801608140E00E94C10B2196B2
:10183000C830D105A1F7DF91CF911F910F91FF9093
:10184000EF900895DF92EF92FF920F931F93CF9343
:10185000DF93FC010081C181D281F8948981D02E6F
:10186000D0948D21898378941DE7E02EFF241150B8
:1018700059F182E090E00E946834888190E08E21E6
:101880009F21892BA1F3F8948A818D218A838981F4
:10189000802B8983789480EE91E00E946834F894DC
:1018A00089818D21898386E490E00E946834888153
:1018B00010E090E0E822F922EF2809F411E0789492
:1018C0008AE991E00E946834812FDF91CF911F91C6
:1018D0000F91FF90EF90DF900895AF92BF92DF924B
:1018E000EF92FF920F931F93CF93DF93EC015B0175
:1018F0008D85882309F061C0CE010E94220C8823C7
:1019000029F41B861D861C8690E06BC0CE0160EF1B
:1019100040E00E94C10B01E0DD24EE24FF24F3949B
:10192000CE010E943C0B182FCE010E943C0B1130BF
:1019300019F48130E1F439C0181709F58B850817BF
:1019400070F460E0FE01EE0DF11D838190E02F2D1B
:1019500030E082239323181619064CF003C060E090
:10196000081729F0093008F04CC00C874AC0FE0166
:10197000EE0DF11D83818F29838361E009C0612F02
:10198000FE01EE0DF11D9F2D9095838189238383A8
:10199000CE010E948D0B0F5FFF0C19F4E394FF241E
:1019A000F39487E08E1508F0BBCF013430F0DB866E
:1019B000DD2011F581E08D871FC01B861D861C86EA
:1019C00090E0DE0120E030E0F501E20FF31F139616
:1019D0008C91139780832F5F3F4F119628303105EC
:1019E00099F7892FDF91CF911F910F91FF90EF9081
:1019F000DF90BF90AF9008958B818823F1F291E042
:101A0000E0CFD02EBDCFFF920F931F938C01F62E07
:101A1000862F60E00E94B4358F2D90E0FC01EC54DD
:101A2000FE4FE491D801EC9382599E4FFC016491E2
:101A3000E62FF0E0EE0FFF1FEC5AFE4F85919491D8
:101A400012969C938E9311971B961C921B971D9632
:101A50001C921D971C961C92F80187E090E012865C
:101A60003197009711F00197FACF1F910F91FF90D6
:101A700008951F920F920FB60F920BB60F9211247A
:101A80002F933F934F935F936F937F938F939F9386
:101A9000AF93BF93EF93FF93E091820EF091830E8B
:101AA0001995FF91EF91BF91AF919F918F917F9188
:101AB0006F915F914F913F912F910F900BBE0F90BF
:101AC0000FBE0F901F901895FC01A3E0440F551F07
:101AD000661F771FAA95D1F7403080E0580781E054
:101AE000680780E0780714F481E010C033E0759552
:101AF0006795579547953A95D1F7403080E058075C
:101B000081E0680780E078071CF482E0828339C0B6
:101B100023E075956795579547952A95D1F74030FD
:101B200080E0580781E0680780E0780714F483E0DC
:101B3000EDCF92E075956795579547959A95D1F7B2
:101B4000403080E0580781E0680780E0780714F4AF
:101B500084E0DCCF82E075956795579547958A9527
:101B6000D1F7403080E0580781E0680780E07807CF
:101B700014F485E0CBCF85E082834FEF5FEF60E028
:101B800070E051834083509397004093960080917A
:101B90009100887F80939100809191009281892BA0
:101BA0008093910008951092900020E1209391007D
:101BB0000E94640D08950F931F93CF93DF93EC0160
:101BC0008B01121613061406150624F4BA01A90196
:101BD0000E94640D1C830B8381E0809371007894D4
:101BE000809191009A81892B80939100DF91CF9110
:101BF0001F910F91089583EF93E0089588E094E09A
:101C000008958CE094E0089583E294E008958DE3D4
:101C100094E008958AE594E008958CE292E00895B6
:101C200082E061E00E9467360895CF92DF92EF92E2
:101C3000FF920F931F93CF93DF938C0184E6E82EDE
:101C400088E0F82EE00EF11E6801C0E0D0E0F70158
:101C5000EC0FFD1FC601CC59DF4FBE0140810E9431
:101C6000C31EC356D040CD35D10589F7C80160E009
:101C70000E94430EDF91CF911F910F91FF90EF9043
:101C8000DF90CF9008956F927F928F929F92AF9244
:101C9000BF92CF92DF92EF92FF920F931F93CF9359
:101CA000DF93EC01D62E94E6E92E98E0F92EEC0EA7
:101CB000FD1E6C2EAD2E00E010E0E881F981B80128
:101CC0006C597F4F0088F189E02D862D9A2D19954A
:101CD000F701E00FF11F80830F5F1F4F0D351105D6
:101CE00061F7CC59D74F88819981C456D840892B48
:101CF00039F5CA59D74F88819981C656D840892B62
:101D0000F9F49E012859374FF90180819181892B7F
:101D1000B9F4FE01E455F74FC15AD74F8881998134
:101D2000AA81BB81CF55D84080839183A283B3839E
:101D300081E090E0F90191838083CE010E94150E2D
:101D4000CC59D74F88819981C456D840892BE1F46A
:101D5000CA59D74F88819981C656D840892BA1F49A
:101D6000FE01E859F74F80819181019769F4C659C6
:101D7000D74F80E28883CA56D84082E090E09183B2
:101D80008083CE010E94150ECC59D74F888199814E
:101D9000C456D840892B11F5CA59D74F88819981EB
:101DA000C656D840892BD1F4FE01E859F74F8081FF
:101DB0009181029799F4C055D74F80E090E0A0EA56
:101DC000B0E488839983AA83BB83C05BD84083E057
:101DD00090E091838083CE010E94150ECC59D74F9D
:101DE00088819981C456D840892BD9F4CA59D74FD4
:101DF00088819981C656D840892B99F4FE01E8590B
:101E0000F74F80819181039761F4CC54D74F1882AA
:101E1000C45BD84084E090E091838083CE010E942F
:101E2000150ECC59D74F88819981C456D840892B3B
:101E300091F5CA59D74F88819981C656D840892BC8
:101E400051F5FE01E859F74F80819181049719F50A
:101E5000CB54D74F80E090E0A8ECB2E489939993FB
:101E6000A993B99380E090E4ACE9B6E4899399939F
:101E7000A993B99380E090E0A8E4B3E488839983C0
:101E8000AA83BB83CD5BD84085E090E091838083BB
:101E9000CE010E94150ECC59D74F88819981C45626
:101EA000D840892B99F4CA59D74F88819981C65651
:101EB000D840892B59F4C859D74F88819981C85681
:101EC000D840059719F4DD2009F4B3C0CC59D74F99
:101ED000199219921992199285E090E0998388835A
:101EE00024960F2EF0E0AF2EF0E4BF2EFCE9CF2EAB
:101EF000F6E4DF2EF02DA992B992C992D9920F2E55
:101F0000F0E0EF2EF0E5FF2EF3E40F2FF8E41F2FA3
:101F1000F02DE992F9920993199320E034E244EF0D
:101F200059E4288339834A835B8360960F2EF0E05F
:101F30006F2EF0E07F2EF8E48F2EF3E49F2EF02D2D
:101F4000699279928992999280E090E0AAEFB4E444
:101F500089939993A993B993A992B992C992D99265
:101F6000E992F99209931993288339834A835B8311
:101F700064972FEF36EE4BE55EE2288339834A8380
:101F80005B83A896288339834A835B83ED978AE035
:101F900088832D9680E090E0A0E0B0E0899399934B
:101FA000A993B99388839983AA83BB836C96299359
:101FB0003993499359932993399349935993299381
:101FC000399349935993288339834A835B83C45A4D
:101FD000D840FE01E455F74FC15AD74F8881998107
:101FE000AA81BB8180839183A283B3832B9680E2F5
:101FF0008883CA5BDF4F80E090E0A0EAB0E4899379
:102000009993A993B993199280E090E0A8ECB2E477
:1020100089939993A993B993A992B992C992D992A4
:10202000688279828A829B82CD5BD840CE010E94F1
:10203000150EC455D74FE880F9800A811B81CC5A10
:10204000D840C801B70120E030E040E050E00E94F5
:102050002440FE01ED59F74F18161CF081E08083F3
:1020600007C0C15AD74FE882F9820A831B831082C6
:10207000DF91CF911F910F91FF90EF90DF90CF9064
:10208000BF90AF909F908F907F906F9008950F9327
:102090001F938C010E94C31EC80160E00E94430E82
:1020A0001F910F9108954F925F926F927F928F923E
:1020B0009F92AF92BF92CF92DF92EF92FF920F93D7
:1020C0001F93DF93CF930F920F92CDB7DEB78C01A2
:1020D0002C01EE2454E5852E58E0952E880E991E8D
:1020E00045E4C42E48E0D42EC80ED91E3AE6A32EED
:1020F00038E0B32EA80EB91E3E010894611C711C75
:1021000033C028E0F22E30E040E050E0F60180815C
:102110009181F801E80FF91FE259FF4F20810196E4
:10212000F6019183808380E090E0222311F481E026
:1021300090E0042E02C0880F991F0A94E2F7380F2E
:102140004F5F5F4F4830510509F73A83F5016081D1
:102150006E0DF982C201A30122E00E94EC1EF394ED
:10216000FDE0FF1681F6E3942E2D30E0F40180812E
:10217000918168E270E00E9494422617370708F2C6
:102180000F900F90CF91DF911F910F91FF90EF90E3
:10219000DF90CF90BF90AF909F908F907F906F9087
:1021A0005F904F9008959F92AF92BF92CF92DF922F
:1021B000EF92FF920F931F93DF93CF93CDB7DEB7CC
:1021C0002A970FB6F894DEBF0FBECDBF8C015A011F
:1021D0006B01922E1982FC01E354F74FCB01BA0137
:1021E00020813181428153810E94244018160CF4D1
:1021F0004DC0F801E15AF74FC601B5012081318188
:10220000428153810E9428406A837B838C839D8313
:1022100088EA8E838A819B81AC81BD818F83988778
:10222000A987BA876BE6E62E68E0F62EE00EF11E6F
:10223000C801F7016081AE014A5F5F4F25E00E944F
:10224000EC1E992029F164E670E080E090E00E94A5
:102250000F3486EE9DE0F701608141E00E947B052E
:1022600086EE9DE00E94AB04892B91F086EE9DE006
:102270000E94B404813061F4C801F7016081AE01AD
:102280004F5F5F4F21E00E94CD1E02C088E089832E
:102290008981882339F4095A174FF801A082B18245
:1022A000C282D3822A960FB6F894DEBF0FBECDBF8E
:1022B000CF91DF911F910F91FF90EF90DF90CF9022
:1022C000BF90AF909F900895FC01E15AF74F408373
:1022D0005183628373833897408151816281738116
:1022E000E755F840CF0120E00E94D31008952F92C7
:1022F0003F924F925F926F927F928F929F92AF9296
:10230000BF92CF92DF92EF92FF920F931F93DF93D2
:10231000CF93CDB7DEB7E2970FB6F894DEBF0FBE0E
:10232000CDBF7C0189ABFAAA0E945C1F82E061E00C
:102330000E94B43582E060E00E94673664EF71E08D
:1023400080E090E00E940F34D701ED91FC9106806F
:10235000F781E02DC7011995BC0188EE90E10E943C
:102360001F3D88EE90E160E372E00E941F3DD701BF
:10237000ED91FC910484F585E02DC7011995BC0110
:1023800088EE90E10E941C3E88EE90E163E372E0EB
:102390000E941F3DD701ED91FC910284F385E02D51
:1023A000C7011995BC0188EE90E10E941C3EC7014F
:1023B0000E94241FEFE5F8E0EE0EFF1E80E090E0A3
:1023C000A8ECB2E4F70180839183A283B38321EA6E
:1023D00037EFE20EF31EC70160E00E94430E88EE65
:1023E00090E166E472E00E941F3D84E698E0E80E0A
:1023F000F91ED7016D917D917D0188EE90E14AE053
:1024000050E00E944F3C88EE90E16DE572E00E9442
:102410001F3DF701619171917F0188EE90E14AE0E3
:1024200050E00E944F3C88EE90E16DE572E00E9422
:102430001F3DD7016D917C91E8E9F7EFEE0EFF1E8D
:1024400088EE90E14AE050E00E94603C88EE90E126
:102450006FE572E00E941F3DF701E559F74F88EEE6
:1024600090E160814AE050E00E948F3C10E053E030
:10247000252E312C2C0E3D1E41E1442E512C4C0EAC
:102480005D1E3FE1632E712C6C0E7D1E28E1822EB5
:10249000912C8C0E9D1E96E2A92EB12CAC0EBD1E69
:1024A000C3C0CE010A9663E872E00E943B3FC101BF
:1024B000612F4AE00E946E3FCE010A96B1010E9450
:1024C000043F65E872E00E94E83E98AB8FA7C20126
:1024D0006D2D4AE00E946E3F8FA598A9B2010E941F
:1024E000043F69E972E00E94E83EBC0188EE90E199
:1024F0000E942F3EC2010E94A03FC1010E94A03F46
:10250000CE010A960E94A63F112339F0113051F0F6
:1025100040E050E060E070E013C0ED2DF0E0E55EDB
:10252000FD4F04C0ED2DF0E0EF5DFD4FEE0FFF1FFE
:10253000EE0FFF1FEE0DFF1D4081518162817381FF
:1025400088EE90E122E030E00E94093EC30163E89A
:1025500072E00E943B3FC401612F4AE00E946E3F3F
:10256000C301B4010E94043F6CE972E00E94E83E9E
:102570009EA78DA7C5016D2D4AE00E946E3F8DA5D7
:102580009EA5B5010E94043F69E972E00E94E83E01
:10259000BC0188EE90E10E942F3EC5010E94A03F41
:1025A000C4010E94A03FC3010E94A63F112339F03D
:1025B000113051F060E070E080E090E013C0ED2D4C
:1025C000F0E0E25EFD4F04C0ED2DF0E0EA5DFD4F6E
:1025D000EE0FFF1FEE0FFF1FEE0DFF1D60817181DB
:1025E0008281938125EA34ED48E653E50E94B941A2
:1025F000AB01BC0188EE90E122E030E00E94063E93
:1026000088EE90E161EB72E00E941C3ED3941123AE
:1026100021F0113031F485E001C083E0D81608F4D0
:1026200040CF1F5F123011F0DD24F1CF88EE90E132
:1026300065EB72E00E941F3DBAE6CB2EB8E0DB2EC0
:10264000CE0CDF1C88EE90E1D6016C914AE050E0A0
:102650000E948F3C88EE90E162ED72E00E941F3D87
:10266000ECEAF8E0EE0EFF1ED7014D915D916D9101
:102670007D917D0188EE90E122E030E00E94093EEC
:1026800088EE90E162EE72E00E941F3DF7014191F9
:102690005191619171917F0188EE90E122E030E0EB
:1026A0000E94093E88EE90E165EF72E00E941F3DB6
:1026B000D7016C9188EE90E170E04AE050E00E9412
:1026C000003D88EE90E16EE073E00E941F3DEFEA6E
:1026D000FFEFEE0EFF1ED7016C9188EE90E170E0E7
:1026E0004AE050E00E94003D88EE90E16AE273E02B
:1026F0000E941F3DE2E5F0E0EE0EFF1ED7014D9176
:102700005D916D917D917D0188EE90E122E030E058
:102710000E94093E88EE90E162E473E00E941F3D52
:10272000F70141915191619171917F0188EE90E1A2
:1027300022E030E00E94093E88EE90E16AE573E015
:102740000E941F3DD7014D915D916D917C91E3E415
:10275000F7EFEE0EFF1E88EE90E122E030E00E94DF
:10276000093EF701EC5AF74F11821082AA24BB24CC
:10277000A8E28A2E912C78E1272E33243A943E0148
:102780000894611C711C2F011A2D29823A82D601EE
:102790006C916A0D89A99AA9A30122E00E94EC1EFE
:1027A000F60160816A0D89A99AA9A30121E00E941E
:1027B000CD1E89818F3F09F047C000E0085E098384
:1027C00008511A82D6016C91610F89A99AA9A301B7
:1027D00022E00E94EC1EF6016081610F89A99AA98E
:1027E000A30121E00E94CD1E8981882369F5085F3D
:1027F00009833A82D6016C91610F89A99AA9A30134
:1028000022E00E94EC1E07500530C1F688EE90E1F0
:1028100060E773E00E941F3D88EE90E1B5014AE059
:1028200050E00E94ED3C88EE90E16AE773E00E9480
:102830001C3E940128523040F20180819181821720
:10284000930711F4918280820894A11CB11C28E2A4
:1028500030E0820E931E38E0A316B10409F094CF45
:1028600084E598E0E80EF91ED7016D917C9188EE21
:1028700090E14AE050E00E944F3C88EE90E166E82B
:1028800073E00E941C3EE0E6F0E0EE0EFF1ED70172
:102890008C91ECE4F7EFEE0EFF1E882321F0C701C8
:1028A00060E042E003C0C70160E041E00E944C33B9
:1028B000E2960FB6F894DEBF0FBECDBFCF91DF9189
:1028C0001F910F91FF90EF90DF90CF90BF90AF904E
:1028D0009F908F907F906F905F904F903F902F9040
:1028E0000895FC0181E994E091838083CF010E94E7
:1028F000811D08950F931F938C0161E00E94FB1FBF
:1029000081E994E0F801918380830E5A174FF80112
:10291000119210821F910F9108957F928F929F9232
:10292000AF92BF92CF92DF92EF92FF920F931F93DD
:10293000DF93CF930F920F92CDB7DEB75C019B016F
:10294000742ECB0168E270E00E949442862EC90189
:1029500068E270E00E9494426C01E3E096958795EE
:10296000EA95E1F7982E082D10E07AE6E72E78E058
:10297000F72EEA0CFB1CF7018081B801680F711D6E
:1029800086EE9DE00E94A104692D70E0685F7F4F94
:1029900086EE9DE00E94230586EE9DE00E9466057E
:1029A000F7018081080F111D86EE9DE0B80141E01E
:1029B00050E00E94770586EE9DE00E94AB04892BD3
:1029C00011F481E03BC00C2D0770F8E09F0E998256
:1029D00086EE9DE00E94B404282F772071F481E0F8
:1029E00090E0A0E0B0E004C0880F991FAA1FBB1FB1
:1029F0000A95D2F7282B2A830EC081E090E0A0E050
:102A0000B0E004C0880F991FAA1FBB1F0A95D2F718
:102A1000809582238A838AE698E0A80EB91EF50184
:102A2000608186E997EFA80EB91E680DC501AE0159
:102A30004F5F5F4F22E00E94EC1E80E00F900F90EE
:102A4000CF91DF911F910F91FF90EF90DF90CF908A
:102A5000BF90AF909F908F907F9008952F923F925C
:102A60004F925F926F927F928F929F92AF92BF929E
:102A7000CF92DF92EF92FF920F931F93DF93CF934A
:102A8000CDB7DEB766970FB6F894DEBF0FBECDBFE9
:102A90003C01B62E21EB621709F48DC42617F0F124
:102AA00038EA631709F469C23617E8F042EA641796
:102AB00009F410C1461750F050EA651709F46CC0CC
:102AC00061EAB61611F00C94581D7EC074EA6717BF
:102AD00009F4ABC1671708F41AC187EA681711F047
:102AE0000C94581DDFC19DEA691709F477C3961746
:102AF00048F0A9EA6A1709F469C2BAEA6B1709F043
:102B0000D7C7C4C2EFEA6E1709F4C1C3F301E05C92
:102B1000F74F2FEA261708F4FBC394C338EB63176B
:102B200009F433C73617D0F044EB641709F424C511
:102B3000461748F052EB651709F48FC463EBB616DD
:102B400009F0B6C701C576EB671709F494C5FC0117
:102B5000E05CF74F761708F4D5C66AC58CEB6817AA
:102B600009F452C7861758F09AEB691709F4D6C6CC
:102B7000F301E05CF74F961708F4EFC623C7A4EF04
:102B80006A1709F4BCC5B5EF6B1709F4A3C6EDEBE2
:102B90006E1709F08DC755C720E438E0620E731E2A
:102BA000D3018D919C91E0ECF7EF6E0E7F1E8301B7
:102BB00004591F4F892B09F042C7B3016C5A774F54
:102BC000C30142E050E02CC120E438E0620E731EE5
:102BD000D3018D919C91E0ECF7EF6E0E7F1E830187
:102BE00004591F4F892B09F02AC7D8011C926C8AFF
:102BF000A72CCC24F301EC5AF74FFE8BED8B5AE651
:102C0000252E58E0352E260C371C480154C048E0CC
:102C1000D42E2901D1018C91B201680F711D86EE6D
:102C20009DE00E94A10486EE9DE06D2D0E9423058B
:102C300086EE9DE00E946605F1018081B201680F79
:102C4000711D86EE9DE041E050E00E94770586EE22
:102C50009DE00E94AB04892B21F186EE9DE00E944D
:102C6000B40400E010E0E82EFF24C701002E02C0EB
:102C7000959587950A94E2F721E030E08227932723
:102C8000817089838C899A2DBE016F5F7F4F41E0EF
:102C900050E00E94871D0F5F1F4F0830110529F774
:102CA00004C0E1E0D401EC9305C0D394FDE0DF164D
:102CB00009F0B0CFC3942C2D30E0AD89BE898D9141
:102CC0009C9168E270E00E9494422617370708F44E
:102CD0009ECFEEC6FC01E05CF74F24E538E0620EC3
:102CE000731E20813181D3018D919C91ECEAF7EF25
:102CF0006E0E7F1E830104591F4F2817390709F0F4
:102D00009EC6C3010E945310D8011C92D1C620E474
:102D100038E0620E731ED3018D919C91E0ECF7EFC9
:102D20006E0E7F1E029709F0B8C6D301AB5BB74F9A
:102D30008D919C91119782599F4FF301E80FF91FD4
:102D40000190F081E02D8C5690408D939C9324E56A
:102D500038E0620E731ED3018D919C912CEA37EFFF
:102D6000620E731EE817F90728F04CE650E0640E77
:102D7000751EE8C3CF0168E270E00E9494426C01C6
:102D8000CF0168E270E00E949442062F10E09AE6BC
:102D9000E92E98E0F92EE60CF71CD7018C91B801CA
:102DA000680F711D86EE9DE00E94A104B60183E0CC
:102DB000769567958A95E1F770E0685F7F4F86EEBC
:102DC0009DE00E94230586EE9DE00E946605F701C6
:102DD0008081080F111D86EE9DE0B80141E050E0B2
:102DE0000E94770586EE9DE00E94AB0483010459A2
:102DF0001F4F892BC1F086EE9DE00E94B40490E045
:102E00002C2D277002C0959587952A95E2F780951D
:102E100081708983C301BE016F5F7F4F41E050E045
:102E20000E94871D71CF81E03AC020E438E0620E35
:102E3000731ED3018D919C91E0ECF7EF6E0E7F1E17
:102E4000039709F02AC6D301AB5BB74F8D919C91D4
:102E50001197FC01E259FF4FE60DF71D608171816A
:102E6000F301E80FF91FE059FF4F408103968D935E
:102E70009C9324E538E0620E731ED3018D919C91E2
:102E8000ECEAF7EF6E0E7F1E830104591F4F68179F
:102E9000790720F4C3010E948D14F6C185E0F80182
:102EA000808306C620E438E0620E731ED3018D9144
:102EB0009C91E0ECF7EF6E0E7F1E892B09F0EDC5BB
:102EC00083010559174FC301D8016C9147EA0E944D
:102ED000101F64E670E080E090E00E940F3486EE00
:102EE0009DE0F801608141E00E947B0586EE9DE057
:102EF0000E94AB04892B09F4DBC586EE9DE00E949D
:102F0000B404853009F0D4C5C301D8016C91AE0179
:102F10004B5F5F4F25E00E94CD1E8985ECE6F0E017
:102F20006E0E7F1ED3018C93E4E9FFEF6E0E7F1EC1
:102F3000882309F0BDC58301095A174F8D819E81F1
:102F4000AF81B885F80180839183A283B383F301B5
:102F5000E15AF74FD8016D917D918D919C9120811F
:102F60003181428153810E94B941F80160837183AC
:102F700082839383C301B80184C020E438E0620EE9
:102F8000731ED3018D919C91E0ECF7EF6E0E7F1EC6
:102F9000830104591F4F049709F051C5D301AB5B5E
:102FA000B74F8D919C91119782599F4FF301E80F74
:102FB000F91F40815181628173818A5690408D93BF
:102FC0009C93C30121E00E94D3105EC120E438E04D
:102FD000620E731ED3018D919C91E0ECF7EF6E0EA3
:102FE0007F1E892B09F059C5F62CE72C8301055962
:102FF000174FC301D8016C9149EA0E94101F64E683
:1030000070E080E090E00E940F3486EE9DE0F801D1
:10301000608141E00E947B0586EE9DE00E94AB044A
:10302000892B09F445C586EE9DE00E94B4048530E5
:1030300009F03EC538018F2D9E2DD8016C91AE014F
:103040004B5F5F4F25E00E94CD1E8985E1E0F8EFE0
:103050006E0E7F1ED3018C93E4E9FFEF6E0E7F1E90
:10306000882309F025C5F301E55AF74F8D819E812C
:10307000AF81B88580839183A283B3838F2D9E2DEA
:10308000BF0144E050E00E94871D12C520E438E0F3
:10309000620E731ED3018D919C91E0ECF7EF6E0EE2
:1030A0007F1E049709F095C0D301AB5BB74F8D919C
:1030B0009C91119782599F4FF301E80FF91FE0800F
:1030C000F180028113818A5690408D939C93E9820E
:1030D000FA820B831C83F301EB54F74FC801B7014D
:1030E00020813181428153810E94B54188230CF4B3
:1030F00046C0F301E754F74FC801B7012081318181
:10310000428153810E9424401816CCF18AEA8D83B3
:1031100089819A81AB81BC818E839F83A887B9877F
:1031200083010559174FC301D8016C91AE014B5F64
:103130005F4F25E00E94EC1E64E670E080E090E0C6
:103140000E940F3486EE9DE0F801608141E00E940C
:103150007B0586EE9DE00E94AB04892BD9F086EEBC
:103160009DE00E94B4048130A9F4A30144595F4F4B
:10317000C301D8016C9121E00E94CD1E0BC0ECE68A
:10318000F0E06E0E7F1E88E0D3018C93E4E9FFEF40
:103190006E0E7F1E2CE630E0620E731ED3018C9102
:1031A000E4E9FFEF6E0E7F1E882309F081C42BE552
:1031B00038E0620E731E89819A81AB81BC81F30174
:1031C00080839183A283B38325EA37EF620E731E57
:1031D0006FC44CE650E0640E751E63C420E438E012
:1031E000620E731ED3018D919C91E0ECF7EF6E0E91
:1031F0007F1E019709F051C4D301AB5BB74F8D918E
:103200009C911197F301E80FF91FE259FF4F2081BC
:1032100001968D939C93830104591F4F223008F02F
:103220003DCE30E08BE190E0289FF001299FF00D2A
:10323000389FF00D1124E757F14F81818983D80120
:103240001C9212C280819181830104591F4F029701
:1032500009F0F5C3D301AB5BB74F2D913C911197AA
:10326000F301E20FF31FE259FF4F80812F5F3F4FC1
:10327000F301E20FF31FE259FF4F60812F5F3F4FD1
:103280002D933C930E94302DD8018C9311C420E4DF
:1032900038E0620E731ED3018D919C91E0ECF7EF44
:1032A0006E0E7F1E019709F0F8C3D301AB5BB74FD9
:1032B0008D919C911197F301E80FF91FE259FF4F8F
:1032C000408101968D939C93830104591F4F423096
:1032D00008F0E4CDD8011C92242F30E08BE190E07F
:1032E000289FF001299FF00D389FF00D1124E7571A
:1032F000F14FE181442321F0413009F093C004C033
:10330000F0E0E55EFD4F9AC0F0E0EF5DFD4F96C046
:1033100080819181830104591F4F059709F050C3A3
:10332000D301AB5BB74F8D919C911197F301E80FDF
:10333000F91FE259FF4FE08101968D939C93D801CC
:103340001C92EE2321F0E13009F0F8C01AC0E091A0
:103350008A0EF0E0B3016B5B774FDB018D919C919E
:1033600082599F4FD301A80FB91F2D913D914D91C7
:103370005C918A569040DB018D939C93E55EFD4FF6
:10338000CFC0E091A50EF0E0B3016B5B774FDB019E
:103390008D919C9182599F4FD301A80FB91F2D91F8
:1033A0003D914D915C918A569040DB018D939C93A9
:1033B000EF5DFD4FB5C0E0E4F8E06E0E7F1ED30177
:1033C0008D919C91E0ECF7EF6E0E7F1E019709F056
:1033D00064C3D301AB5BB74F8D919C911197F301FF
:1033E000E80FF91FE259FF4F408101968D939C939E
:1033F000830104591F4F423008F050CDD8011C9270
:10340000242F30E08BE190E0289FF001299FF00D00
:10341000389FF00D1124E757F14FE181442339F033
:10342000413049F080E090E0A0E0B0E011C0F0E071
:10343000E25EFD4F03C0F0E0EA5DFD4FEE0FFF1FBF
:10344000EE0FFF1FE60DF71D80819181A281B381F0
:1034500089839A83AB83BC8332C220E438E0620E56
:10346000731ED3018D919C91E0ECF7EF6E0E7F1EE1
:10347000830104591F4F059709F0A2C2A3014B5BBA
:10348000574FDA012D913C911197F301E20FF31F91
:10349000E259FF4FE0812F5F3F4F2D933C93215026
:1034A0003040D8011C92EE2321F0E13009F046C0F3
:1034B0001EC0E0918A0EF0E021593F4FD301A20FC8
:1034C000B31FED90FD900D911C912A563040DA010A
:1034D0002D933C93E25EFD4FEE0FFF1FEE0FFF1F9B
:1034E000E60DF71DE082F1820283138323C0E09191
:1034F000A50EF0E0B3016B5B774FDB018D919C91E2
:1035000082599F4FD301A80FB91F2D913D914D9125
:103510005C918A569040DB018D939C93EA5DFD4F50
:10352000EE0FFF1FEE0FFF1FE60DF71D2083318307
:1035300042835383C3010E94150EBAC2ECE6F0E049
:103540006E0E7F1E85E0AEC2E0E4F8E06E0E7F1ED8
:10355000D3018D919C91E0ECF7EF6E0E7F1E8301FD
:1035600004591F4F892B09F06AC2D8011C92B3017C
:10357000615A774FC30185CD20E438E0620E731E97
:10358000D3018D919C91E0ECF7EF6E0E7F1E0497B6
:1035900009F083C2F301EB5BF74F8081918182597F
:1035A0009F4FD301A80FB91FED90FD900D911C9175
:1035B0008A56904091838083C801B70120E030E0B3
:1035C00040E050E00E94B541181664F5F301ED5952
:1035D000F74F8081882379F02FE538E0620E731E63
:1035E000D301ED92FD920D931C931397E1EAF7EF4F
:1035F0006E0E7F1E12C02CEA38E0620E731ED301DD
:10360000ED92FD920D931C93139724E537EF620E14
:10361000731E1082C3010E94150E4CE650E0640E2A
:10362000751E38C22CE630E0620E731E88E03AC286
:1036300080819181830104591F4F892B09F0FFC1BB
:10364000D8011C9210E0F301E455F74F60817181BD
:103650008281938120E030E040E050E00E942440ED
:1036600018160CF011E01983C301BE016F5F7F4F84
:1036700041E050E008CD20E438E0620E731ED30133
:103680008D919C91E0ECF7EF6E0E7F1E019709F093
:1036900004C2D301AB5BB74F8D919C911197F3019D
:1036A000E80FF91FE259FF4F208101968D939C93FB
:1036B000F301E455F74F222349F080E090E0A0E0C9
:1036C000B0E080839183A283B38311C02FE538E0FB
:1036D000620E731ED3012D913D914D915C9161EA73
:1036E00077EF660E771E2083318342835383C301B5
:1036F0000E94150E8CE690E0680E791ECBC120E486
:1037000038E0620E731ED3012D913C91E0ECF7EF8F
:103710006E0E7F1E2A30310508F4BFC1D301AB5BAA
:10372000B74F8D919C911197FC01E259FF4FE60D27
:10373000F71D4081518162817381488B598B6A8B5F
:103740007B8B049611969C938E930497FC01EE5804
:10375000FF4FE60DF71D608171817F876E87FC0149
:10376000EC58FF4FE60DF71D408151816281738156
:103770004A875B876C877D87F301E80FF91FE8585C
:10378000FF4F10810B968D939C932B30310581F068
:1037900064E578E0660E771ED3018D919C91ECEA8A
:1037A000F7EF6E0E7F1E0B962817390709F0A3C19D
:1037B0002E853F852D54314008F086C0688979896F
:1037C0008A899B8920E030E04AE754E40E9428403F
:1037D00020E030E44CE157E40E94B94120E030E0C1
:1037E00040E855E40E94244088230CF06DC06CE64C
:1037F00070E0660E771ED3011C92E4E9FFEF6E0EB7
:103800007F1EF301E05CF74F24E538E0620E731E83
:10381000D3018D919C912CEA37EF620E731E0B96AB
:10382000208131812817390719F4C3010E945310F0
:10383000A12E0E94E9331B012C014BE558E0640ED8
:10384000751ED301CD90DD90ED90FC90E5EAF7EF89
:103850006E0E7F1EF0E010FDF1E0E0E0A1FCE1E083
:10386000688979898A899B894E855F850A851B8548
:103870002C853D85AF2E8E2E0E94A82D0E94E93307
:1038800062197309840995090E94C1407B018C016A
:103890002E853F85B90180E090E00E94C14020E084
:1038A00030E04AE754E40E94B9419B01AC01C801F1
:1038B000B7010E94284069837A838B839C83C3016C
:1038C000BE016F5F7F4FDDCB4CE650E0640E751E8E
:1038D00081E0E8C020E438E0620E731ED3018D91D0
:1038E0009C91E0ECF7EF6E0E7F1E830104591F4F91
:1038F000892B09F0A4C0D8011C92C30161E00E9489
:10390000430ED6C080819181830104591F4F892BBA
:1039100009F095C0D8011C9282E01DC020E438E077
:10392000620E731ED3018D919C91E0ECF7EF6E0E49
:103930007F1E830104591F4F892B09F041C0D80114
:103940001C92E2E5F8E06E0E7F1ED3018C91EEEA48
:10395000F7EF6E0E7F1E898387CE8081918101975C
:1039600009F09BC0D301AB5BB74F8D919C91119730
:10397000F301E80FF91FE259FF4F208101968D9363
:103980009C93F301EE5AF74F34C020E438E0620E06
:10399000731ED3018D919C91E0ECF7EF6E0E7F1EAC
:1039A000830104591F4F892B59F4D8011C92E3E578
:1039B000F8E06E0E7F1ED3018C91EDEAF7EFC9CFD0
:1039C00086E062CC80819181019709F066C0D301C5
:1039D000AB5BB74F8D919C911197F301E80FF91FE5
:1039E000E259FF4F208101968D939C93F301ED5A8C
:1039F000F74F222319F081E0808301C01082ECE6AA
:103A0000F0E06E0E7F1E46C020E438E0620E731EAA
:103A1000D3018D919C91E0ECF7EF6E0E7F1E830138
:103A200004591F4F892B59F4D8011C9282E00E943F
:103A30009A361982892B09F017CE81E08CCF86E067
:103A40002ECA20E438E0620E731ED3018D919C9142
:103A5000E0ECF7EF6E0E7F1E0197F9F4D301AB5B3C
:103A6000B74F8D919C911197F301E80FF91FE2591F
:103A7000FF4F208101968D939C93222319F082E0C1
:103A800060E002C082E061E00E9467362CE630E030
:103A9000620E731ED3011C9207C02CE630E0620E4A
:103AA000731E86E0D3018C93E4E9FFEF6E0E7F1E58
:103AB000C3016B2D0E94F0212CE630E0620E731ED4
:103AC000D3018C9166960FB6F894DEBF0FBECDBFC2
:103AD000CF91DF911F910F91FF90EF90DF90CF90EA
:103AE000BF90AF909F908F907F906F905F904F901E
:103AF0003F902F900895ECE6F0E06E0E7F1ED1CF40
:103B00000895FC0188EB94E09183808308950F93DE
:103B10001F93CF93DF938C0120E030E0EC01C95B71
:103B2000D74F10C0F801E20FF31F88819981E80F89
:103B3000F91FE259FF4FDB01A20FB31F8C91808365
:103B40002F5F3F4F2417350768F388819981840FD1
:103B5000951F99838883DF91CF911F910F910895CD
:103B6000CF93DF93DC01FC01E359FF4F6081EC014F
:103B7000C459DF4F67FF0EC06058608382E08883BE
:103B8000ED91FC91119760580488F589E02DCD01E5
:103B900019950EC0FC01E05CF74F80819181A80F60
:103BA000B91FA359BF4F2C9128830197918380831C
:103BB000DF91CF910895CF93DF93EC01FC01E75B98
:103BC000F74F6D3719F481E08083DAC09081992333
:103BD00011F080E268276E3749F4992339F4CD5B00
:103BE000D74F19821882C354D840C4C0CD5BD74F79
:103BF00028813981C354D84021153105A1F4C35916
:103C0000DF4F6883C152D84F8881CC54D840882375
:103C100009F448C0C15BD74F8FEF9FEF998388832A
:103C2000CF54D8403FC021303105B1F4DE01AE5B46
:103C3000B74FFE01E05CF74F67FF09C083E08C934C
:103C4000862F90E08F779070108281832BC082E066
:103C50008C936083118226C02230310589F4CE5BBB
:103C6000D74F8881C254D840833051F4FE01E05CC4
:103C7000F74F80819181860F911D9183808312C0BF
:103C8000CE5BD74F8881F901E81BF1099A918A919F
:103C9000C054D840E817F90728F4EC0FFD1FE2598B
:103CA000FF4F6083C45BD74F8881CC54D8408823B2
:103CB000F1F0FE01E15BF74F808191818627282F8B
:103CC00022952827022E269526952025022E269518
:103CD00020252770082E892F269507942795902D4B
:103CE0008227069427959025822791838083FE0161
:103CF000ED5BF74F408151814F5F5F4F51834083B0
:103D0000CE5BD74F88813A912A91280F311D2C968E
:103D10006881CC54D840862F90E0880F991F280FD7
:103D2000391F4217530731F511821082CB5BD74FF1
:103D30001992199219821882C754D840662341F00B
:103D4000C15BD74F88819981CF54D840892B19F412
:103D5000CE010E94B01DFE01E55BF74F90819923D3
:103D600049F0C359DF4F90588881CD56D04089170C
:103D700009F41082FE01E75BF74F80818111108208
:103D8000DF91CF9108958FE99DE00E945504089539
:103D90008FE99DE00E944E0408951F93CF93DF9317
:103DA000EA0186EE9DE0422F0E947B0510E009C0EB
:103DB00086EE9DE00E94B404FE01E10FF11D8083B8
:103DC0001F5F86EE9DE00E94AB04892B89F7812F4F
:103DD000DF91CF911F910895FF920F931F93CF937F
:103DE000DF93142F052FF22E86EE9DE00E9497049C
:103DF000212F302FC901EC0110E006C086EE9DE0B6
:103E000069910E9423051F5F1F15C0F386EE9DE098
:103E10000E946605DF91CF911F910F91FF90089549
:103E2000FF920F931F93F42E06EE1DE0C8010E942F
:103E30009704C8016F2D0E942305C8010E946605E2
:103E40001F910F91FF9008951F9318E086EE9DE05B
:103E5000612F0E94970486EE9DE00E9466058823EC
:103E600031F588EE90E16DE973E00E941F3D88EE28
:103E700090E1612F4AE050E00E947D3C88EE90E1A5
:103E800061EB73E00E941F3D88EE90E1612F40E1FD
:103E900050E00E947D3C88EE90E166EB73E00E946A
:103EA0001C3E61E070E080E090E00E940F341F5FF4
:103EB000183761F61F910895AF92BF92CF92DF92AB
:103EC000EF92FF920F931F93DF93CF9300D00F9247
:103ED000CDB7DEB77C016E010894C11CD11C560120
:103EE0000FE010E0D701ED91FC910088F189E02D01
:103EF000C701B8011995F50181935F010F5F1F4F4D
:103F00000331110579F789819A81AB81BC818F5F7B
:103F10009F4FAF4FBF4FD9F480E092ECA1E0B0E0EB
:103F200089839A83AB83BC830FE010E0D701ED91C6
:103F3000FC910288F389E02DC701B801D6014D91AB
:103F40006D0119950F5F1F4F0331110579F74981F5
:103F50005A816B817C8188EE90E10E940F3986EE58
:103F60009DE00E947F050E9480040E94650A8701EF
:103F700008591F4FF801608371838283938388EE11
:103F800090E168EB73E00E941F3DD8014D915D9177
:103F90006D917C9188EE90E122E030E00E94063E37
:103FA00088EE90E16AEC73E00E941C3E0F900F9047
:103FB0000F900F90CF91DF911F910F91FF90EF9095
:103FC000DF90CF90BF90AF900895CF93DF93EC0137
:103FD00008C088EE90E10E94C739682FCE010E9488
:103FE000DB1D88EE90E10E949639181619068CF3B5
:103FF000DF91CF9108957F928F929F92AF92BF925F
:10400000CF92DF92EF92FF920F931F93CF93DF93A4
:10401000FC0188EB94E091838083E45BF74F60833D
:104020003997118210823696108239971182108248
:10403000359611921192118210823A961082AA241A
:10404000BB24882499248FE99DE0B5010E944E0489
:10405000182FB501695F7F4F8FE99DE00E944E04E4
:10406000E401EE24FF24C12EDD24C094D094082F57
:1040700010E000951095C633D105B4F4B6010E2CAE
:1040800002C0759567950A94E2F761708C2F0E94C3
:10409000B435B8010E2C02C0759567950A94E2F705
:1040A00061708C2F0E9467360894E11CF11C2196E8
:1040B00088E0E816F104F9F60894A11CB11C88E028
:1040C00090E0880E991E97E0A916B10409F0BBCFC5
:1040D000DF91CF911F910F91FF90EF90DF90CF90E4
:1040E000BF90AF909F908F907F9008951F93162F51
:1040F000862F8D57823050F488EE90E16DE70E9454
:10410000003A60E2612788EE90E102C088EE90E11B
:104110000E94003A1F9108958F929F92AF92BF9292
:10412000CF92DF92EF92FF920F931F93CF93DF9383
:10413000EC01BEE6EB2EF12CE80EF91E00E010E0DB
:10414000A0E48A2EA8E09A2E880E991EFCE4AF2ED9
:10415000F8E0BF2EA80EB91EEDE4CE2EE8E0DE2E6C
:10416000C80ED91E2AC0F50180818823F1F0F7011D
:104170002081F601808191818227282F229528278E
:10418000022E269526952025022E2695202527707D
:10419000082E892F269507942795902D822706941F
:1041A00027959025822791838083CE01F701619125
:1041B0007F010E9476200F5F1F4FF4018081918163
:1041C0000817190708F4CFCFF5018081882369F01B
:1041D0008E01035B174FCE01F80160810E947620AB
:1041E000F8016181CE010E947620C05CD74F198210
:1041F0001882279619821882DF91CF911F910F9113
:10420000FF90EF90DF90CF90BF90AF909F908F90F6
:1042100008950F931F93CF93DF93EC01062FFC01BA
:10422000E05CF74FC95BD74F888199819183808388
:1042300088EE90E16EE70E94003A25968881CC5482
:10424000D8408823F9F0C35BD74F8FEF9FEF8027CB
:10425000282F22952827022E269526952025022EE6
:10426000269520252770082E892F269507942795B7
:10427000902D8227069427959025822799838883FD
:10428000CD54D840CE01602F0E947620DE01A05C84
:10429000B74F2D913C911197FE01E45BF74F203809
:1042A000310530F580818823F1F0FE01E35BF74FA3
:1042B000808191818227282F22952827022E2695FA
:1042C00026952025022E269520252770082E892F39
:1042D000269507942795902D82270694279590255B
:1042E000822791838083CE01C05CD74F688149C00B
:1042F0008081882309F437C03068FE01E35BF74F03
:10430000808191818327282F22952827022E2695A8
:1043100026952025022E269520252770082E892FE8
:10432000269507942795902D82270694279590250A
:1043300082272C918227282F22952827022E269526
:1043400026952025022E269520252770082E892FB8
:10435000269507942795902D8227069427959025DA
:104360008227918380838E01005C174FF8012081A2
:1043700031813068CE01632F0E947620CE01F80192
:1043800060810E947620DF91CF911F910F91089557
:104390000F931F93DF93CF930F92CDB7DEB78C01AE
:1043A0006983DC01A95BB74F8D919C911197F8014E
:1043B000E80FF91FE259FF4F608301968D939C939C
:1043C000F801E359FF4FC80160810E940921C8012B
:1043D0000E948C200F90CF91DF911F910F91089533
:1043E0006F927F929F92AF92BF92CF92DF92EF92A5
:1043F000FF920F931F93DF93CF93CDB7DEB76C97E8
:104400000FB6F894DEBF0FBECDBF7C016DB67EB691
:1044100070E0CB01805890408E31910508F0C9C6FC
:104420008E589F4FD701A05CB74FFC01EE0FFF1FC6
:104430000590F491E02D19948D919C91892B09F0B0
:10444000FAC5D701ED91FC910280F381E02DC701FF
:1044500019958C01D701ED91FC910280F381E02D3B
:10446000C7011995DC010D900020E9F7AD0141501D
:104470005040481B590B20E030E0B701695B774F93
:1044800011C0F701E20FF31FDB018D919C91E80F42
:10449000F91FE259FF4FD801A20FB31F8C918083FF
:1044A0002F5F3F4F2417350760F3E7C08D919C9134
:1044B000892B09F0C0C5D701ED91FC910480F581ED
:1044C000E02DC70119958C01D701ED91FC91048075
:1044D000F581E02DC7011995DC010D900020E9F769
:1044E000AD0141505040481B590B20E030E0B7016E
:1044F000695B774F11C0F701E20FF31FDB018D916C
:104500009C91E80FF91FE259FF4FD801A20FB31F8A
:104510008C9180832F5F3F4F2417350760F3ADC028
:104520008D919C91892B09F086C5D701ED91FC9165
:104530000680F781E02DC70119958C01D701ED9117
:10454000FC910680F781E02DC7011995DC010D90E3
:104550000020E9F7AD0141505040481B590B20E0C5
:1045600030E0B701695B774F11C0F701E20FF31F2D
:10457000DB018D919C91E80FF91FE259FF4FD801A3
:10458000A20FB31F8C9180832F5F3F4F24173507F5
:1045900060F373C08D919C91892B09F04CC5D701B4
:1045A000ED91FC910084F185E02DC70119958C01F6
:1045B000D701ED91FC910084F185E02DC70119959B
:1045C000DC010D900020E9F7AD0141505040481B3F
:1045D000590B20E030E0B701695B774F11C0F7015C
:1045E000E20FF31FDB018D919C91E80FF91FE25957
:1045F000FF4FD801A20FB31F8C9180832F5F3F4FD5
:104600002417350760F339C08D919C91892B09F0EF
:1046100012C5D701ED91FC910284F385E02DC7010D
:1046200019958C01D701ED91FC910284F385E02D61
:10463000C7011995DC010D900020E9F7AD0141504B
:104640005040481B590B20E030E0B701695B774FC1
:1046500011C0F701E20FF31FDB018D919C91E80F70
:10466000F91FE259FF4FD801A20FB31F8C9180832D
:104670002F5F3F4F2417350760F3FB018081918145
:10468000840F951F918380832CE630E0E20EF31EA9
:10469000D7011C92E4E9FFEFEE0EFF1E8AC58D9153
:1046A0009C91892B09F0C7C4D701ED91FC9104843A
:1046B000F585E02DC70119958C01D701ED91FC918D
:1046C0000484F585E02DC7011995DC010D900020CB
:1046D000E9F7AD0141505040481B590B20E030E054
:1046E000B701695B774F11C0F701E20FF31FDB01E0
:1046F0008D919C91E80FF91FE259FF4FD801A20F4D
:10470000B31F8C9180832F5F3F4F2417350760F3D1
:10471000B4CF8D919C91892B09F08DC4D701ED9177
:10472000FC910684F785E02DC70119958C01D7010E
:10473000ED91FC910684F785E02DC7011995DC0108
:104740000D900020E9F7AD0141505040481B590B36
:1047500020E030E0B701695B774F11C0F701E20F4D
:10476000F31FDB018D919C91E80FF91FE259FF4F78
:10477000D801A20FB31F8C9180832F5F3F4F241766
:10478000350760F37ACF8D919C91892B09F053C442
:1047900020E030E0B701695B774FF701E20FF31FCC
:1047A000DB014D915C91E40FF51FE259FF4FD901F8
:1047B000A755BB4F8C9180832F5F3F4F2A30310527
:1047C00061F7465F5F4F1FC28D919C91870104592D
:1047D0001F4F029709F0D0C3D701AB5BB74F2D91A4
:1047E0003C911197F701E20FF31FE259FF4F8081CF
:1047F0002F5F3F4FF701E20FF31FE259FF4F608138
:104800002F5F3F4F2D933C930E94B435B2C38D91DF
:104810009C91870104591F4F029709F0ADC3D7013E
:10482000AB5BB74F2D913C911197F701E20FF31F4E
:10483000E259FF4F80812F5F3F4FF701E20FF31FD7
:10484000E259FF4F60812F5F3F4F2D933C930E94B1
:1048500067368FC38D919C91870104591F4F019733
:1048600009F08AC3D701AB5BB74F2D913C911197EB
:10487000F701E20FF31FE259FF4F80812F5F3F4F97
:104880002D933C930E949A368983D701A95BB74F39
:104890002D913C911197F701E20FF31FE259FF4F61
:1048A00080832F5F3F4F2D933C9363C38D919C91E9
:1048B000870104591F4F029709F05EC3D701AB5B14
:1048C000B74F2D913C911197F701E20FF31FE25979
:1048D000FF4F80812F5F3F4F11963C932E932259BB
:1048E0003F4FF701E20FF31F608171812C5630407A
:1048F0002D933C930E94D4343CC32CE630E0E20E6E
:10490000F31E86E0F701808324E93FEFE20EF31EF9
:104910002D913C912230310508F44BC4ADB69EB6C2
:10492000D701AB5BB74F8D919C911197F701E80FC1
:10493000F91FE259FF4FB08001968D939C938DB77C
:104940009EB78B1991090FB6F8949EBF0FBE8DBF0D
:10495000CDB6DEB60894C11CD11C2230310519F445
:1049600091E0B916D9F08B2D90E0039628173907FE
:1049700009F096C013C08D919C911197F701E80F33
:10498000F91FE259FF4F2081019611969C938E9357
:10499000F601E30FF11D20833F5F04C030E0D70133
:1049A000AB5BB74F3B1538F3A0E4B8E0EA0EFB1E53
:1049B000F7018081918120EC37EFE20EF31E029720
:1049C00001F1F701EB5BF74F8081918182599F4F95
:1049D000D701A80FB91F0D911C918C56904091835F
:1049E000808333E0093E130770F08CE690E0E80E18
:1049F000F91E89E0D7018C93E4E9FFEFEE0EFF1E6C
:104A00004FC001E010E02CE630E0E20EF31ED701CB
:104A10001C921093670E0093660EE2E0F0E0EE0E3B
:104A2000FF1EF092630EE092620E22E93FEFE20E6B
:104A3000F31E80E00E94AA0831E0B31629F4D601E3
:104A40008C910E94C40812C0D0926A0EC092690E66
:104A5000B0926C0E10926D0E87E099E090936F0EFD
:104A600080936E0EF60180810E94ED080E94F90A83
:104A70002091660E3091670E8091640E9091650EC4
:104A800082179307C9F70E94A70AF701E95BF74F5E
:104A9000000F111F80819181080F191F118300835E
:104AA0008A2D992D9C010FB6F8943EBF0FBE2DBFE5
:104AB00080C38D919C91870104591F4F039709F082
:104AC00075C3D701AB5BB74F8D919C911197FC01DA
:104AD000E259FF4FEE0DFF1D60817181F701E80F74
:104AE000F91FE059FF4F408103968D939C93D701A6
:104AF000ED91FC910288F389E02DC701199553C30C
:104B00008D919C91870104591F4F029709F04EC364
:104B1000D701AB5BB74F8D919C91119782599F4FF5
:104B2000F701E80FF91F608171818C5690408D93D9
:104B30009C93D701ED91FC910088F189E02DC7018C
:104B400019958983D701A95BB74F2D913C91119796
:104B5000F701E20FF31FE259FF4F80832F5F3F4FB2
:104B600020C38D919C91029709F065C2D701AB5B80
:104B7000B74F8D919C911197F701E80FF91FE259FA
:104B8000FF4F60810196F701E80FF91FE259FF4FCF
:104B9000A08001968D939C938E01015F1F4FC801E9
:104BA0000E94030DC8010E942F0BDD24B02EC12EE0
:104BB0008E01095F1F4F8B2D9C2DB8010E946D0C3B
:104BC000D394AD14C0F7882311F120E030E0B70191
:104BD000695B774F8E01095F1F4FF701E20FF31FEB
:104BE000DB014D915C91E40FF51FE259FF4FD801B5
:104BF000A20FB31F8C9180832F5F3F4F2830310568
:104C000061F7485F5F4FFB01518340833DCD2CE648
:104C100030E0E20EF31E85E09CC28D919C910B97D3
:104C200009F009C2D701AB5BB74F8D919C911197E9
:104C3000F701E80FF91FE259FF4F608101961196C5
:104C40009C938E9347E0C42ED12CCC0EDD1EAD017B
:104C5000C601BC2CA92E8E01015F1F4FFA01808175
:104C60009181F701E80FF91FE259FF4F208101966A
:104C7000FA0191838083F60121936F01E017F10718
:104C800069F78D919C911197F701E80FF91FE2598F
:104C9000FF4F10810196F701E80FF91FE259FF4F0E
:104CA000008101968D939C93C6010E94030DC6015D
:104CB0000E94220CC6016B2D7A2D0E94010CC601A8
:104CC000612F40E00E94C10B10E03FE0A32EB12C09
:104CD000AC0EBD1E27E4C22E28E0D22ECE0CDF1C67
:104CE00013C0C5010E94700B8983D6012D913C91A0
:104CF0001197F701E20FF31FE259FF4F80832F5FF7
:104D00003F4F2D933C931F5F101758F3ECE6F0E0F4
:104D1000EE0EFF1EBDCC8D919C910B9709F08BC1BF
:104D2000D701AB5BB74F8D919C911197F701E80FBD
:104D3000F91FE259FF4F6081019611969C938E9363
:104D400097E0C92ED12CCC0EDD1EAD01C601BC2CC6
:104D5000A92E8E01015F1F4FFA0180819181F70119
:104D6000E80FF91FE259FF4F20810196FA01918364
:104D70008083F60121936F01E017F10769F78D91A8
:104D80009C911197F701E80FF91FE259FF4F00813D
:104D90000196F701E80FF91FE259FF4F10810196C4
:104DA0008D939C93C6010E94030DC6010E94220CA4
:104DB000C6016B2D7A2D0E94010CC601602F412F78
:104DC0000E94C10B61CC8D919C91029709F0BCC1EE
:104DD000D701AB5BB74F8D919C911197F701E80F0D
:104DE000F91FE259FF4F60810196F701E80FF91FA3
:104DF000E259FF4FC08001968D939C9386EE9DE013
:104E00004C2D0E947B05DD248701095B174F14C0E0
:104E100086EE9DE00E94B4048983D8012D913C91D7
:104E20001197F701E20FF31FE259FF4F80832F5FC5
:104E30003F4F2D933C93D39486EE9DE00E94AB04AC
:104E4000892B31F7870104591F4FDC1409F4ABC1DA
:104E500081E0ADC18D919C91029708F4ECC087016F
:104E60000B5B174FD8018D919C911197F701E80FBB
:104E7000F91FE259FF4F608101968D939C9386EE56
:104E80009DE00E949704DD2480E4A82E88E0B82EDF
:104E9000AE0CBF1C12C0F80180819181F701E80FB0
:104EA000F91FE259FF4F60810196D8018D939C93C1
:104EB00086EE9DE00E942305D3942D2D30E0F50170
:104EC0008081918101972817390728F386EE9DE0AC
:104ED0000E946605D9CB8D919C91870104591F4F83
:104EE000019709F049C0D701AB5BB74F2D913C91B9
:104EF0001197F701E20FF31FE259FF4F80812F5FF7
:104F00003F4F2D933C930E94610433C08D919C913F
:104F1000870104591F4F019779F5D701AB5BB74F54
:104F20002D913C911197F701E20FF31FE259FF4FCA
:104F300080812F5F3F4F2D933C930E946F0419C0D7
:104F40008D919C91870104591F4F0197A9F4D701B6
:104F5000AB5BB74F2D913C911197F701E20FF31F17
:104F6000E259FF4F80812F5F3F4F2D933C930E946A
:104F70006A04D8011C921DC186E0F801808319C122
:104F80008D919C91019709F056C0D701AB5BB74F4B
:104F90008D919C911197F701E80FF91FE259FF4F8E
:104FA000208101968D939C932EBD0DB407FEFDCFFD
:104FB0002EB52983D701A95BB74F8D919C9111978D
:104FC000F701E80FF91FE259FF4F208301968D93F7
:104FD0009C935ACB8D919C91892B69F526E630E004
:104FE000E20EF31ED7016D917C91EAE9FFEFEE0E20
:104FF000FF1E870120E030E0A701495B574F10C03A
:10500000F701E20FF31FDA018D919C91E80FF91F70
:10501000E259FF4FD80111968C9180832F5F3F4F4B
:105020000F5F1F4F2617370758F3FA0180819181D0
:10503000860F971F27CB2CE630E0E20EF31E88C0C8
:105040008D919C91870104591F4F892B09F0AEC0A7
:105050008091720E9091730EA091740EB091750EA6
:105060008B839C83AD83BE83DE011396A701495BCE
:10507000574FFA0120813181F701E20FF31FE25906
:10508000FF4F8B817FC08D919C91870104591F4FE9
:10509000049709F08BC0D701AB5BB74F2D913C91C2
:1050A000119722593F4FF701E20FF31F6081718181
:1050B000828193812A5630402D933C930E940608AA
:1050C00072C08D919C91870104591F4F892B09F063
:1050D0006DC00E94FF0789839A83D701A95BB74FF0
:1050E0002D913C911197F701E20FF31FE259FF4F09
:1050F00081938A8180832E5F3F4F53C08D919C9115
:10510000029711F5D701AB5BB74F8D919C91119729
:1051100082599F4FF701E80FF91F0190F081E02DB0
:105120008C5690408D939C93CF0102978701045930
:105130001F4F069738F48E2F0E94F60780E00E94DA
:10514000B60831C085E033C0ECE6F0E0EE0EFF1E9D
:1051500086E0D7018C939ECA8D919C91870104595A
:105160001F4F892B19F5D701A859BF4FA701495BDC
:10517000574FFA0120813181F701E20FF31FE25905
:10518000FF4F8C91819311968C9111978193129678
:105190008C911297819313968C9180832C5F3F4F53
:1051A000DA012D933C93F801108203C086E0D80108
:1051B0008C93870104591F4FC701F80160810E9439
:1051C000C821D8018C910FB6F8947EBE0FBE6DBE7B
:1051D0006C960FB6F894DEBF0FBECDBFCF91DF91B6
:1051E0001F910F91FF90EF90DF90CF90BF90AF9005
:1051F0009F907F906F9008958BE1E9E8FEE0DF01DA
:10520000982F1D929A95E9F77B96DF011D928A955A
:10521000E9F708952F923F924F925F926F927F929B
:105220008F929F92AF92BF92CF92DF92EF92FF92B6
:105230000F931F93DF93CF93CDB7DEB764970FB66D
:10524000F894DEBF0FBECDBF2F83388749875A87BA
:10525000EB86FC860D871E87D88ACF86BA8AA98AF4
:105260000E94B94120E030E04AE754E40E9428401F
:105270009B01AC010E94AD3F5B016C0120E030E07E
:1052800040E050E00E94B54188234CF0C601B501D2
:1052900020E030E040E05FE30E94AD3F08C0C6017F
:1052A000B50120E030E040E05FE30E94AC3F0E94A7
:1052B00090400E94C34020E030E040E05FE30E9465
:1052C000B9416B837C838D839E836B817C818D81CF
:1052D0009E812F81388549855A850E9428402B85DB
:1052E0003C854D855E850E94B9410E9411400E9417
:1052F00095407A83698384C329813A81B90180E02A
:1053000090E00E94C1402B813C814D815E810E94D2
:1053100028402F81388549855A850E94B9413B0133
:105320004C01EF85F88960837183828393832B8599
:105330003C854D855E850E94B54118160CF45BC313
:10534000C401B3012F81388549855A850E942840C0
:105350007B018C0160E070E080E090E4A80197019F
:105360000E9428405B016C0120E030E040E050E00A
:105370000E94B54188234CF0C601B50120E030E021
:1053800040E05FE30E94AD3F08C0C601B50120E0E8
:1053900030E040E05FE30E94AC3F0E9490400E94FA
:1053A000C340A80197010E94B9419B01AC0160E094
:1053B00070E080E090E40E94AC3F20E030E040E00C
:1053C00050E00E94B5411816A4F5C601B50120E0D1
:1053D00030E040E050E00E94B54188234CF0C60127
:1053E000B50120E030E040E05FE30E94AD3F08C03F
:1053F000C601B50120E030E040E05FE30E94AC3F31
:105400000E9490400E94C340A80197010E94B941A8
:105410009B01AC0160E070E080E090E40E94AC3F52
:105420002DEC3CEC4CEC5DE30E94244087FDE3C294
:1054300034C0C601B50120E030E040E050E00E94F9
:10544000B54188234CF0C601B50120E030E040E0D2
:105450005FE30E94AD3F08C0C601B50120E030E027
:1054600040E05FE30E94AC3F0E9490400E94C34036
:10547000A80197010E94B9419B01AC0160E070E076
:1054800080E090E40E94AC3F2DEC3CEC4CEC5DEBFA
:105490000E94B54118160CF4AEC26F8178858985DB
:1054A0009A859B01AC010E94AD3F9B01AC01C401F8
:1054B000B3010E94244088230CF079C16F81788564
:1054C00089859A85A40193010E9428401B012C0123
:1054D0001C8A1B8A2B893C89B90180E090E00E94DC
:1054E000C1405B016C01C201B101A60195010E949E
:1054F000AC3F20E030E040E05FE30E94244018161B
:1055000034F48B899C8901969C8B8B8BE3CFC601ED
:10551000B501A40193010E94B9419B01AC016F81C7
:10552000788589859A850E94AC3F5B016C0120E0FB
:1055300030E040E050E00E94B541181624F0D7FA60
:10554000D094D7F8D094C401B301A60195010E946C
:1055500028403B014C0160E070E080E090E4A40151
:1055600093010E9428405B016C0120E030E040E0A4
:1055700050E00E94B54188234CF0C601B50120E0FF
:1055800030E040E05FE30E94AD3F08C0C601B501D6
:1055900020E030E040E05FE30E94AC3F0E9490409A
:1055A0000E94C340A40193010E94B9419B01AC0138
:1055B00060E070E080E090E40E94AC3F20E030E0EA
:1055C00040E050E00E94B5411816A4F5C601B501AF
:1055D00020E030E040E050E00E94B54188234CF0EC
:1055E000C601B50120E030E040E05FE30E94AD3F3E
:1055F00008C0C601B50120E030E040E05FE30E9452
:10560000AC3F0E9490400E94C340A40193010E94BD
:10561000B9419B01AC0160E070E080E090E40E9441
:10562000AC3F2DEC3CEC4CEC5DE30E942440882325
:10563000ACF5E1C1C601B50120E030E040E050E04A
:105640000E94B54188234CF0C601B50120E030E04E
:1056500040E05FE30E94AD3F08C0C601B50120E015
:1056600030E040E05FE30E94AC3F0E9490400E9427
:10567000C340A40193010E94B9419B01AC0160E0C9
:1056800070E080E090E40E94AC3F2DEC3CEC4CECF0
:105690005DEB0E94B54118160CF4ADC1C801B7010D
:1056A00020E030E040E050E00E94B54188234CF01B
:1056B000C801B70120E030E040E05FE30E94AD3F69
:1056C00008C0C801B70120E030E040E05FE30E947D
:1056D000AC3F0E9490400E94C3409B01AC01C801B6
:1056E000B7010E94AC3F20E030E040E050E00E9473
:1056F000B541181674F5C801B70120E030E040E06C
:1057000050E00E94B54188234CF0C801B70120E069
:1057100030E040E05FE30E94AD3F08C0C801B70140
:1057200020E030E040E05FE30E94AC3F0E94904008
:105730000E94C3409B01AC01C801B7010E94AC3F6D
:1057400027E137EB41ED58E30E94244088237CF5A4
:1057500052C1C801B70120E030E040E050E00E94B3
:10576000B54188234CF0C801B70120E030E040E0AB
:105770005FE30E94AD3F08C0C801B70120E030E000
:1057800040E05FE30E94AC3F0E9490400E94C34013
:105790009B01AC01C801B7010E94AC3F27E137EB88
:1057A00041ED58EB0E94B54118160CF424C1C80114
:1057B000B70120E030E040E251E40E942440882319
:1057C0000CF089C0C801B70120E030E040E050E0B3
:1057D0000E94B54188234CF0C801B70120E030E0B9
:1057E00040E05FE30E94AD3F08C0C801B70120E080
:1057F00030E040E05FE30E94AC3F0E9490400E9496
:10580000C3409B01AC01C801B7010E94AC3F20E03E
:1058100030E040E050E00E94B541181674F5C80130
:10582000B70120E030E040E050E00E94B54188231D
:105830004CF0C801B70120E030E040E05FE30E9497
:10584000AD3F08C0C801B70120E030E040E05FE3B1
:105850000E94AC3F0E9490400E94C3409B01AC015B
:10586000C801B7010E94AC3F27E137EB41ED58E397
:105870000E94244088237CF5BEC0C801B70120E007
:1058800030E040E050E00E94B54188234CF0C80170
:10589000B70120E030E040E05FE30E94AD3F08C088
:1058A000C801B70120E030E040E05FE30E94AC3F78
:1058B0000E9490400E94C3409B01AC01C801B70107
:1058C0000E94AC3F27E137EB41ED58EB0E94B54118
:1058D00018160CF490C0C801B7012B813C814D8192
:1058E0005E810E94B9415B016C0120E030E040E044
:1058F00050E00E94B54188234CF0C601B50120E07C
:1059000030E040E05FE30E94AD3F08C0C601B50152
:1059100020E030E040E05FE30E94AC3F0E94904016
:105920000E94C3409B01AC01C601B5010E94AC3F7F
:1059300020E030E040E050E00E94B541181674F5D8
:10594000C601B50120E030E040E050E00E94B541E2
:1059500088234CF0C601B50120E030E040E05FE371
:105960000E94AD3F08C0C601B50120E030E040E034
:105970005FE30E94AC3F0E9490400E94C3409B01A5
:10598000AC01C601B5010E94AC3F27E137EB41ED08
:1059900058E30E942440882374F543C0C601B50132
:1059A00020E030E040E050E00E94B54188234CF018
:1059B000C601B50120E030E040E05FE30E94AD3F6A
:1059C00008C0C601B50120E030E040E05FE30E947E
:1059D000AC3F0E9490400E94C3409B01AC01C601B5
:1059E000B5010E94AC3F27E137EB41ED58EB0E9437
:1059F000B5411816B4F0E981FA813197FA83E98349
:105A000029813A812230310508F076CC6B817C8186
:105A10008D819E8120E030E040E05FE30E94AD3F59
:105A200050CC29813A81E989FA89318320836496AF
:105A30000FB6F894DEBF0FBECDBFCF91DF911F919F
:105A40000F91FF90EF90DF90CF90BF90AF909F901D
:105A50008F907F906F905F904F903F902F90089520
:105A60000F931F93082F162F8823B9F4613049F044
:105A7000613020F0623009F067C009C088E061E061
:105A800008C088E060E00E94673689E03BC088E09B
:105A900060E00E94673689E044C0813009F054C05C
:105AA0006230C1F0633030F4662351F0613009F0A8
:105AB0004BC009C06330C9F0643009F045C024C050
:105AC0008AE061E023C08AE060E00E9467368BE0F4
:105AD00061E020C08AE060E00E9467368BE060E011
