:100000000C94BD010C94EA010C94EA010C94EA01F1
:100010000C94EA010C94EA010C94EA010C94EA01B4
:100020000C94EA010C94EA010C94EA010C94EA01A4
:100030000C94EA010C94EA010C94EA010C94EA0194
:100040000C94EA010C94EA010C94EA010C94EA0184
:100050000C94E90A0C94EA010C94EA010C9419340A
:100060000C94EA010C9443370C948B380C94EA01FD
:100070000C94EA010C94BE0A0C94EA010C94EA0177
:100080000C94EA010C94EA010C94EA010C94D00D52
:100090000C9483370C94CA380C94EA010C94DA0659
:1000A0000C94EA010C94EA010C94EA010C94EA0124
:1000B0000C94EA010C94EA010C94EA010C94EA0114
:1000C0000C94EA010C94EA010C94EA010C94C337F5
:1000D0000C9409390C94EA010C9403380C944839B7
:1000E0000C94EA01FF1517169D16BA164B178517C3
:1000F0009C17C417E01709182018C41DC41D221925
:100100005C198819D519351A8D1AF51A0C1B681B3C
:100110008E1BD51C281D491DEB1C071D701D8D1D38
:10012000C41DC41DC41DC41DC41DC41DC41DC41DC7
:10013000C41DC41DC41DC41DC41DC41DC41DC41DB7
:10014000C41DC41DC41DC41DC41DC41DC41DC41DA7
:10015000C41DC41DC41DC41DC41DC41DC41DC41D97
:10016000C41DC41DC41DC41DC41DC41DC41DC41D87
:10017000C41DC41DC41DC41DC41DC41DC41DC41D77
:10018000C41DC41DC41DC41DC41DC41DD21BBD1C63
:100190009022CA2204233E23C3237823FD2358241C
:1001A0009E247B24F124CA24F425CD252526FF2670
:1001B00081269E275727DF27FA27142834285E2810
:1001C00037249428B728D528F228202908000000D1
:1001D000BE922449123EABAAAA2ABECDCCCC4C3E3C
:1001E00000000080BEABAAAAAA3E00000000BF002B
:1001F0000000803F0000000000084178D3BB438727
:10020000D1133D190E3CC3BD4282AD2B3E68EC823A
:1002100076BED98FE1A93E4C80EFFFBE01C4FF7FBF
:100220003F000000000007634236B79BD8A71A3989
:10023000685618AEBAAB558C1D3CB7CC5763BD6D34
:10024000EDFD753EF6177231BF000000803F0000E3
:100250002100240027002A002D0030003300010176
:100260000000040107010A01000022002500280007
:100270002B002E00310034000201000005010801AE
:100280000B01000020002300260029002C002F0075
:100290003200000100000301060109010505050502
:1002A000070508080808020202020A0A08080404EE
:1002B000040401010101010101010303030303031C
:1002C0000303040707070C0C0C0C0C0C0C0C0202AB
:1002D000020206060606060606060B0B0B0B0B0BA8
:1002E0000B0B010210202008081020401020408035
:1002F00002010201080402010102040810204080EA
:100300008040201008040201800402018040201077
:1003100008040201080402010102040810204080C0
:1003200001020408102040800000090A02080B0C9A
:100330000D0706030401000000000000000000009B
:1003400000000000000000000000000000000000AD
:100350000000000011100F0000000000000000006D
:1003600000000000000000000000000000001F046A
:100370007205F30A7029B83A180411241FBECFEF92
:10038000D1E2DEBFCDBF00E00CBF14E0A0E0B2E0E0
:10039000E6ECF9E800E00BBF02C007900D92A03D2B
:1003A000B107D9F71BBE11E1A0EDB4E001C01D9269
:1003B000A735B107E1F713E0C8E7D3E004C02297FF
:1003C000FE010E949B44CE36D107C9F70E94D60495
:1003D0000C94D6440C940000CF93DF93BC01823080
:1003E000910510F462E070E0A0915511B0915611A2
:1003F000ED01E0E0F0E040E050E021C0888199812B
:100400008617970769F48A819B81309719F0938347
:10041000828304C09093561180935511FE0134C01D
:100420006817790738F44115510519F084179507B5
:1004300008F4AC01FE018A819B819C01E9012097AF
:10044000E9F641155105A9F1CA01861B970B0497DE
:1004500008F4BA01E0E0F0E02AC08D919C91119778
:1004600084179507F9F46417750781F412968D9136
:100470009C911397309719F09383828304C09093D3
:10048000561180935511FD0132964CC0CA01861B4E
:10049000970BFD01E80FF91F6193719302978D93FC
:1004A0009C9340C0FD01828193819C01D9011097EA
:1004B000A1F68091531190915411892B41F48091B0
:1004C000CF039091D0039093541180935311409196
:1004D000D1035091D2034115510541F44DB75EB798
:1004E0008091CD039091CE03481B590B209153115D
:1004F00030915411CA01821B930B8617970780F025
:10050000AB014E5F5F4F8417950750F0420F531FAA
:100510005093541140935311F9016193719302C0A8
:10052000E0E0F0E0CF01DF91CF910895CF93DF932A
:10053000009709F450C0EC0122971B821A82A09107
:100540005511B0915611109709F140E050E0AC17E9
:10055000BD0708F1BB83AA83FE0121913191E20F0F
:10056000F31FAE17BF0779F48D919C911197280F57
:10057000391F2E5F3F4F3983288312968D919C91AE
:1005800013979B838A834115510571F4D0935611BB
:10059000C093551120C012968D919C911397AD0177
:1005A000009711F0DC01D3CFFA01D383C2832191EC
:1005B0003191E20FF31FCE17DF0769F4888199812B
:1005C000280F391F2E5F3F4FFA01318320838A8124
:1005D0009B8193838283DF91CF910895A0E0B0E067
:1005E000E4EFF2E00C94A1446C01009729F4CB01F4
:1005F0000E94EC016C01C1C08EEF882E8FEF982E07
:100600008C0C9D1C8601060F171F0815190508F490
:10061000B2C0F401A081B181A617B707B8F0A53028
:10062000B10508F4AAC0CD0104978617970708F40E
:10063000A4C01297A61BB70BF801A193B193D401E4
:100640006D937C93CF010E94960297C07B01EA1ABA
:10065000FB0AEEEFFFEFEE0EFF1E36016A0E7B1E69
:10066000C0915511D091561144245524AA24BB247D
:100670004AC0C615D705E1F5488159814E155F0579
:10068000B8F1CA0104978E159F05B0F41296A40F15
:10069000B51FF401B183A0832A813B814114510429
:1006A00031F0D20113963C932E93129766C030938B
:1006B00056112093551161C08A819B81F801938363
:1006C0008283425050404E195F0951834083411448
:1006D000510431F0D20113961C930E93129704C06B
:1006E0001093561100935511F4017183608345C036
:1006F00088819981A816B90608F45C012E018A81C7
:100700009B819C01E901209709F0B3CF809153119F
:100710009091541186159705E9F4A616B706D0F402
:100720002091D1033091D2032115310541F42DB729
:100730003EB78091CD039091CE03281B390B021751
:100740001307C8F41093541100935311D4016D93FF
:100750007C9313C0CB010E94EC01EC01009759F08F
:10076000F40140815181B6010E94C303C6010E9479
:1007700096026E0102C0CC24DD24C601CDB7DEB7DF
:10078000E0E10C94BD44FB01DC0102C001900D923C
:1007900041505040D8F70895FB01DC0101900D92C3
:1007A0000020E1F70895FB019F01423074F04532CB
:1007B00064F4642F77270E946344805D8A330CF0D1
:1007C000895D8193CB010097A1F71082C9010C9438
:1007D000E903DC01FC01672F71917723E1F7329780
:1007E00004C07C916D9370836291AE17BF07C8F30C
:1007F00008958091D3039091D40301969093D403EC
:100800008093D30308958130910541F46F5F7F4F4A
:1008100071F480ED94E00E94F51D0895892B39F460
:100820006F5F7F4F21F480ED94E00E94EC1D0895EE
:1008300080E090E06FEF7FEF0E940304089581E075
:1008400090E06FEF7FEF0E940304089582E69EE040
:1008500040E45BE46CE470E00E946A0E82E69EE095
:1008600069EF73E02FEF3FEF4FEF5FEF0E94720EE3
:1008700080ED94E00E94F6118BEC90E160E072E074
:100880000E94973D6FEF71E2605072408BEC90E1F7
:100890004AE050E00E94783D8BEC90E165E072E028
:1008A0000E94973D60ED74E0605072408BEC90E1E7
:1008B0004AE050E00E94783D8BEC90E16CE072E001
:1008C0000E94973D67E571E1605D74408BEC90E1BB
:1008D0004AE050E00E94783D8BEC90E162E172E0EA
:1008E0000E94973D609153117091541161157105EB
:1008F00019F460E070E002C0675571418BEC90E143
:100900004AE050E00E94783D8BEC90E168E172E0B3
:100910000E94973D8DB79EB76FEF71E2681B790B10
:100920008BEC90E14AE050E00E94783D8BEC90E146
:100930006FE172E00E94973D8091531190915411A4
:10094000009729F46DB77EB76755714104C06DB744
:100950007EB7681B790B8BEC90E14AE050E00E9477
:10096000783D089580ED94E00E9459208091D30352
:100970009091D40369E170E00E946344892BA9F44B
:100980008091220D882359F08091230D882329F42A
:1009900080ED94E00E94A70E02C01092230D81E02A
:1009A00090E09093D4038093D3030895CF93DF9383
:1009B0000E94EA340E942604C2E4D8E30E94B204F2
:1009C0002097E1F30E944238F9CFF999FECF72BD2A
:1009D00061BDF89A80B50895F999FECF1FBA72BD2E
:1009E00061BD40BD0FB6F894FA9AF99A0FBE08950A
:1009F000882319F48CB5806202C08CB58F7D8CBDC4
:100A000008959CB5937F982B9CBD08952CB5382FE5
:100A100033702C7F322B3CBD2DB590E0959587959A
:100A20009595879581702E7F822B8DBD089585E3E6
:100A300061E00E94DF3685E361E00E942C368CB5D0
:100A400080618CBD8CB580648CBD84E361E00E94C4
:100A50002C3683E361E00E942C36089581E0809378
:100A6000C80D6093A50D1092C60D1092C70D089584
:100A700081E08093C80D6093A50D1092C60D109271
:100A8000C70D08952091A40D30E08091A30D281B7F
:100A90003109C90108954091A30D8091A40D481713
:100AA00018F02FEF3FEF0AC0E42FF0E0ED57F24FC0
:100AB0008081282F30E04F5F4093A30DC901089536
:100AC000E091A30D8091A40DE81718F0EFEFFFEF70
:100AD00006C0F0E0ED57F24F8081E82FF0E0CF0143
:100AE000089508951092CC0D1092CB0D88EE93E0EE
:100AF000A0E0B0E08093CD0D9093CE0DA093CF0DEC
:100B0000B093D00D89ED93E09093CA0D8093C90DF9
:100B10000895CF92DF92EF92FF920F931F93CF939E
:100B2000DF937C016B018A018091C80D8823A1F0BD
:100B3000C0E0D0E00DC0D701ED91FC91D601AC0F23
:100B4000BD1F0190F081E02DC7016C911995219690
:100B5000C017D10780F304C0CB01642F0E94BF06E9
:100B6000C801DF91CF911F910F91FF90EF90DF901F
:100B7000CF900895DF93CF930F92CDB7DEB7FC01EE
:100B800069838091C80D8823C9F08091C70D803298
:100B900038F081E090E09383828320E030E015C05C
:100BA0008091C60DE82FF0E0EA55F24F99819083CD
:100BB0008F5F8093C60D8093C70D05C0CE0101964F
:100BC00061E00E94BF0621E030E0C9010F90CF91A3
:100BD000DF9108950F93062F8091A50D66EA7DE0C1
:100BE0004091C70D21E00E946A061092C60D109236
:100BF000C70D1092C80D0F91089561E00E94EA059B
:100C00000895413208F040E2862F63E87DE00E94BB
:100C100021061092A30D8093A40D089521E00E9457
:100C20000106089521E00E94010608951092A30D87
:100C30001092A40D1092C60D1092C70D0E946F085D
:100C40000895382F413210F040E042C08091D50D18
:100C50008823E1F791E09093D50D2093D70D8FEF86
:100C60008093420E1092FD0D41504093FE0D4F5F58
:100C70009093D60D8091D60D330F832B8093D60D94
:100C80008091D80D813041F41092D80D8091D60D0D
:100C90008093BB0085EC01C085EE8093BC00809101
:100CA000D50D8130E1F38091FD0D841710F4409152
:100CB000FD0D20E030E00AC0FB01E20FF31FD90177
:100CC000A352B24F8C9180832F5F3F4F2417A0F324
:100CD000842F08950F931F93582F122F413210F035
:100CE00081E04AC08091D50D8823E1F782E08093AE
:100CF000D50D0093D70D8FEF8093420E1092FD0D0E
:100D00004093FE0DADEDBDE0FB0102C081918D93DE
:100D10008E2F861B8417D0F31092D60D8091D60D9E
:100D2000550F852B8093D60D8091D80D813041F4DD
:100D30001092D80D8091D60D8093BB0085EC01C038
:100D400085EE8093BC00112321F08091D50D823077
:100D5000E1F38091420E8F3F11F480E00DC080914D
:100D6000420E803211F482E007C08091420E80333F
:100D700011F084E001C083E01F910F910895482F86
:100D8000613210F081E008958091D50D843011F02A
:100D900082E008956093200EAFEFBDE0842F9C01A8
:100DA000F90102C081918D938E2F841B8617D0F399
:100DB00080E008951F920F920FB60F920BB60F921C
:100DC00011242F933F934F935F936F937F938F9350
:100DD0009F93AF93BF93EF93FF938091B90090E0FF
:100DE000887F90708036910509F4F2C081369105B4
:100DF000CCF58832910509F47BC089329105B4F4B1
:100E00008031910509F46FC0813191053CF4009760
:100E100009F447C1089709F04FC165C088319105B1
:100E200009F466C0809709F047C182C080349105FB
:100E300009F4A4C08134910544F48033910509F488
:100E400082C0C89709F038C189C08035910509F47E
:100E500089C08835910509F496C08834910509F058
:100E60002BC1AEC08839910509F413C189399105A8
:100E7000ECF48837910509F4ABC0893791054CF43F
:100E80008836910509F4A4C08037910509F014C192
:100E90009FC08838910509F4FCC08039910509F498
:100EA0009DC08038910509F007C198C0803B91052D
:100EB00009F4C6C0813B91054CF4803A910509F4D0
:100EC0009FC0883A910509F0F7C0BAC0803C9105EF
:100ED00009F4E3C0883C910509F4DFC0883B910523
:100EE00009F0EAC0C2C08091D60D8093BB00CFC08C
:100EF0009091FD0D8091FE0D981768F49091FD0D75
:100F0000E92FF0E0E352F24F80818093BB009F5FB6
:100F10009093FD0DBCC08091D70D882309F44BC080
:100F200085ED8093BC008091BC0084FDFCCFC2C0E5
:100F300080E28093420E85ED8093BC008091BC00DE
:100F400084FDFCCFB7C080E38093420E85ED809393
:100F5000BC008091BC0084FDFCCFACC088E38093D2
:100F6000420E9BC08091FD0D9091BB00E82FF0E0F8
:100F7000E352F24F90838F5F8093FD0D9091FD0DB2
:100F80008091FE0D82C08091FD0D9091BB00E82FF5
:100F9000F0E0E352F24F90838F5F8093FD0D8091DC
:100FA000D70D882341F085ED8093BC008091BC0073
:100FB00084FDFCCF7FC081E08093D80D84EA6EC0B1
:100FC00085ED8093BC008091BC0084FDFCCF72C095
:100FD00083E08093D50D1092410E59C08091410E4F
:100FE000803208F056C08091410E9091BB00E82FEE
:100FF000F0E0EF5DF14F90838F5F8093410E47C02B
:101000008091410E803230F4E091410EF0E0EF5DCE
:10101000F14F108285ED8093BC008091BC0084FD6F
:10102000FCCF1092D50D6091410EE091DB0DF09157
:10103000DC0D81E29EE070E019951092410E2DC00A
:1010400084E08093D50D10921F0E1092200EE09137
:10105000D90DF091DA0D19958091200E882329F48D
:1010600081E08093200E1092FF0D90911F0EE92FCA
:10107000F0E0E150F24F80818093BB009F5F90933E
:101080001F0E90911F0E8091200E981710F485EC82
:1010900001C085E88093BC000FC085EC8093BC0044
:1010A00009C01092420E85ED8093BC008091BC0077
:1010B00084FDFCCF1092D50DFF91EF91BF91AF91C0
:1010C0009F918F917F916F915F914F913F912F9160
:1010D0000F900BBE0F900FBE0F901F90189510929F
:1010E000D50D81E08093D70D1092D80D84E161E099
:1010F0000E94DF3685E161E00E94DF36E9EBF0E037
:1011000080818E7F808380818D7F808388E480933F
:10111000B80085E48093BC000895EAE7F0E0908190
:10112000987F90839081982B9083089520917A00E6
:1011300030E027703070C9010895EF92FF920F934D
:101140001F937B018C0180E18093810010928000CD
:1011500060E074E284E799E4A80197010E94A0404E
:1011600020E030E040E051E40E9476420E940D41D0
:101170009B01AC01203080E0380781E0480780E027
:10118000580728F481E08093610EB90155C02030E2
:1011900080E0380788E0480780E0580768F482E07C
:1011A0008093610EDA01C901E3E0B695A7959795A2
:1011B0008795EA95D1F714C0203080E0380780E4A5
:1011C000480780E0580770F483E08093610EDA01ED
:1011D000C90176E0B695A795979587957A95D1F749
:1011E000BC012AC0203080E0380780E0480781E059
:1011F000580740F484E08093610EBB27A52F942FFD
:10120000832FEECF203080E0380780E0480784E06D
:10121000580768F485E08093610EDA01C9012AE07D
:10122000B695A795979587952A95D1F7D9CF85E05B
:101230008093610E6FEF7FEF70938700609386005D
:1012400091E090936F0080917B00887F80937B007A
:1012500080917B00866080937B0090934B0E809101
:101260007A00806280937A00E092550EF092560EDA
:101270000093570E1093580E1F910F91FF90EF900F
:101280000895882321F080917C00806203C08091C2
:101290007C008F7D80937C00089580934B0E882383
:1012A00021F080917A00806203C080917A008F7D66
:1012B00080937A00089591E090934F0E10924D0E16
:1012C00010924C0E1092500E23E13AE03093520EE1
:1012D0002093510E80934E0E90917C00907F9093BE
:1012E0007C0020917C00982F9770922B90937C002B
:1012F000883020F080917B00886003C080917B0063
:10130000877F80937B00089580934E0E90917C00A0
:10131000907F90937C0020917C00982F9770922B67
:1013200090937C00883020F080917B00886003C01F
:1013300080917B00877F80937B0008958091500E81
:101340008F5F8093500E90914F0E891711F4109279
:10135000500E8091500EE0914C0EF0914D0EE80F22
:10136000F11D208120934E0E80917C00807F809320
:101370007C0090917C00822F8770892B80937C0069
:10138000283020F080917B00886003C080917B0032
:10139000877F80937B005091780040917900209165
:1013A000470E3091480E8091490E90914A0E2817B1
:1013B0003907C0F580914B0E882329F480917A007B
:1013C000806480937A00942F80E0452F50E0482B72
:1013D000592B80917C0085FF11C08091470E909120
:1013E000480EE091430EF091440EE80FF91F508330
:1013F00001969093480E8093470E08958091470E72
:101400009091480E9C01220F331FE091450EF09100
:10141000460EE20FF31F5183408301969093480ECE
:101420008093470E08955091780040917900209163
:10143000470E3091480E8091490E90914A0E281720
:101440003907C0F580914B0E882329F480917A00EA
:10145000806480937A00942F80E0452F50E0482BE1
:10146000592B80917C0085FF11C08091470E90918F
:10147000480EE091430EF091440EE80FF91F50839F
:1014800001969093480E8093470E08958091470EE1
:101490009091480E9C01220F331FE091450EF09170
:1014A000460EE20FF31F5183408301969093480E3E
:1014B0008093470E08955091500E90914F0E9230A8
:1014C00050F1852F8F5F8093500E891711F4109281
:1014D000500E8091500EE0914C0EF0914D0EE80FA1
:1014E000F11D208120934E0E80917C00807F80939F
:1014F0007C0090917C00822F8770892B80937C00E8
:10150000283020F080917B00886003C080917B00B0
:10151000877F80937B0060917800409179002091D3
:10152000470E3091480E8091490E90914A0E28172F
:10153000390718F580914B0E882329F480917A00A1
:10154000806480937A00942F80E070E0682B792B80
:1015500080917C0085FF02C0672F7727E091530EB2
:10156000F091540E852F19958091470E9091480E59
:1015700001969093480E8093470E08951F920F9204
:101580000FB60F920BB60F9211242F933F934F93E8
:101590005F936F937F938F939F93AF93BF93EF93DB
:1015A000FF93E091510EF091520E1995FF91EF913A
:1015B000BF91AF919F918F917F916F915F914F916B
:1015C0003F912F910F900BBE0F900FBE0F901F9069
:1015D00018951F920F920FB60F9211240F900FBE05
:1015E0000F901F901895ECE7F0E080818F73808357
:1015F00080818064808308950F931F9300917C0005
:1016000010917B0080917C00807E80937C00809193
:101610007C008E6180937C0080917B00877F80932B
:101620007B0063E070E080E090E00E94873480916E
:101630007A00806480937A0080917A0086FDFCCFE6
:10164000209178004091790000937C0010937B00FA
:10165000742F60E030E0622B732B882777FD809534
:10166000982F0E943B419B01AC0160E070E889E843
:1016700094E40E94A0401F910F910895AF92BF92F1
:10168000CF92DF92EF92FF920F931F930E946134EB
:101690005B016C0180917A00877D80937A00809154
:1016A0007B008770863029F480918100887F809349
:1016B00081006091490E70914A0E80E090E00E9496
:1016C000394120E034E244E759E40E9476427B014C
:1016D0008C0180915D0E90915E0EA0915F0EB09195
:1016E000600EA81AB90ACA0ADB0AC601B5010E942F
:1016F00039419B01AC01C801B7010E94A040609331
:10170000590E70935A0E80935B0E90935C0E1F914E
:101710000F91FF90EF90DF90CF90BF90AF90089522
:101720001092480E1092470E80914B0E882321F0A4
:1017300080917A00806203C080917A008F7D8093CF
:101740007A000E94613460935D0E70935E0E809308
:101750005F0E9093600E80917A00886C80937A007F
:1017600080917B008770863081F480918100887F32
:1017700080938100109285001092840080918100F6
:101780009091610E892B809381000895FC0113864E
:101790001586148687E090E012863197009711F045
:1017A0000197FACF0895DF92EF92FF920F931F9364
:1017B000FC01E08001811281F894F80181818E2979
:1017C00081838281DE2CD0948D21828383E090E01E
:1017D0000E94E034F80181818D2181838AE090E0CC
:1017E0000E94E034F8010081789485E390E00E9443
:1017F000E03480E010E0FF240E211F21012B09F0CE
:1018000081E01F910F91FF90EF90DF900895EF928C
:10181000FF920F931F93CF93DF937C0101E010E0C1
:10182000C0E0D0E0C7010E94D30B8111102B000F44
:101830002196C830D105B1F7812FDF91CF911F914B
:101840000F91FF90EF9008951F93CF93DF93FC01CA
:101850001081C181D281912F909560FF12C0F894C0
:101860008A8189238A838981812B89838AE090E018
:101870000E94E0348A81812B8A83789487E390E008
:1018800011C0F8948A8189238A838981812B898375
:1018900081E490E00E94E0348A81812B8A837894ED
:1018A00085E090E00E94E034DF91CF911F91089590
:1018B000CF92DF92EF92FF920F931F93CF93DF931C
:1018C0008C01E42EFF24F394C0E0D0E0C62EDD248A
:1018D00060E08F2D90E08C219D21892B09F061E043
:1018E000C8010E94240CFF0C2196C830D10581F755
:1018F000EE20A9F4F894D8011196ED91FC9112977D
:1019000091818C918095982391831196ED91FC9112
:10191000129792818C918095982392837894DF918D
:10192000CF911F910F91FF90EF90DF90CF9008958E
:10193000EF92FF920F931F93CF93DF938C017B0164
:1019400065E540E00E94580CC0E0D0E0F701EC0FE4
:10195000FD1FC801608140E00E94580C2196C830EC
:10196000D105A1F7DF91CF911F910F91FF90EF90DB
:101970000895DF92EF92FF920F931F93CF93DF931F
:10198000FC010081C181D281F8948981D02ED0944C
:101990008D21898378941DE7E02EFF24115059F1A1
:1019A00082E090E00E94E034888190E08E219F21C7
:1019B000892BA1F3F8948A818D218A838981802BD8
:1019C0008983789480EE91E00E94E034F8948981D4
:1019D0008D21898386E490E00E94E034888110E0C4
:1019E00090E0E822F922EF2809F411E078948AE9DE
:1019F00091E00E94E034812FDF91CF911F910F91F0
:101A0000FF90EF90DF900895AF92BF92DF92EF9238
:101A1000FF920F931F93CF93DF93EC015B018D85B2
:101A2000882309F061C0CE010E94B90C882329F4F3
:101A30001B861D861C8690E06BC0CE0160EF40E0E7
:101A40000E94580C01E0DD24EE24FF24F394CE0123
:101A50000E94D30B182FCE010E94D30B113019F422
:101A60008130E1F439C0181709F58B85081770F437
:101A700060E0FE01EE0DF11D838190E02F2D30E03E
:101A800082239323181619064CF003C060E0081750
:101A900029F0093008F04CC00C874AC0FE01EE0D59
:101AA000F11D83818F29838361E009C0612FFE01CD
:101AB000EE0DF11D9F2D9095838189238383CE01A7
:101AC0000E94240C0F5FFF0C19F4E394FF24F3949D
:101AD00087E08E1508F0BBCF013430F0DB86DD20C7
:101AE00011F581E08D871FC01B861D861C8690E046
:101AF000DE0120E030E0F501E20FF31F13968C9138
:101B0000139780832F5F3F4F11962830310599F747
:101B1000892FDF91CF911F910F91FF90EF90DF9070
:101B2000BF90AF9008958B818823F1F291E0E0CFD0
:101B3000D02EBDCFFF920F931F938C01F62E862FD0
:101B400060E00E942C368F2D90E0FC01EE51FD4F9D
:101B5000E491D801EC9384569D4FFC016491E62FEB
:101B6000F0E0EE0FFF1FEE57FD4F85919491129616
:101B70009C938E9311971B961C921B971D961C92FB
:101B80001D971C961C92F80187E090E01286319711
:101B9000009711F00197FACF1F910F91FF900895D0
:101BA0001F920F920FB60F920BB60F9211242F9324
:101BB0003F934F935F936F937F938F939F93AF93D5
:101BC000BF93EF93FF93E091650EF091660E199528
:101BD000FF91EF91BF91AF919F918F917F916F9105
:101BE0005F914F913F912F910F900BBE0F900FBEC1
:101BF0000F901F901895FC01A3E0440F551F661F1E
:101C0000771FAA95D1F7403080E0580781E0680738
:101C100080E0780714F481E010C033E07595679593
:101C2000579547953A95D1F7403080E0580781E0C5
:101C3000680780E078071CF482E0828339C023E0E3
:101C400075956795579547952A95D1F7403080E06F
:101C5000580781E0680780E0780714F483E0EDCF4F
:101C600092E075956795579547959A95D1F74030CD
:101C700080E0580781E0680780E0780714F484E08A
:101C8000DCCF82E075956795579547958A95D1F792
:101C9000403080E0580781E0680780E0780714F45E
:101CA00085E0CBCF85E082834FEF5FEF60E070E0AF
:101CB0005183408350939700409396008091910008
:101CC000887F80939100809191009281892B8093ED
:101CD000910008951092900020E1209391000E94BD
:101CE000FB0D08950F931F93CF93DF93EC018B01AE
:101CF000121613061406150624F4BA01A9010E944F
:101D0000FB0D1C830B8381E080937100789480919C
:101D100091009A81892B80939100DF91CF911F913F
:101D20000F91089585EE93E008958AEF93E008956A
:101D30008EEF93E0089585E194E008958FE294E0BA
:101D400008958CE494E008958CE292E0089588E090
:101D500061E00E94DF360895FF920F931F93F62EE5
:101D6000142F022F862F60E00E94DF361EBD0DB4B7
:101D700007FEFDCF8EB50EBD0DB407FEFDCF8EB5AF
:101D80008F2D61E00E94DF361F910F91FF90089523
:101D9000362F242F643010F085E00895209565E3F8
:101DA000432F0E94AC0E80E00895AF92BF92CF9275
:101DB000DF92EF92FF920F931F93CF93DF93EC018B
:101DC0005A016B01C15AD74FE880F9800A811B8103
:101DD000CF55D840CB01BA0120E030E040E050E0E0
:101DE0000E949C4087FD48C0FE01E255F74FC601A6
:101DF000B50120813181428153810E942D42181604
:101E0000DCF1C601B501A80197010E94A0409B0129
:101E1000AC010E94254023EF34E045EB5FE30E94D4
:101E2000764220E030E040E85EE30E94764220E027
:101E300030E04FE753E40E9476427B018C0120E0C2
:101E400030E04FE753E40E942D421816ACF0C95A17
:101E5000D74FA882B982CA82DB82C755D840C80151
:101E6000B7010E940D419B01AC01CE0163E0422FFE
:101E70000E94C80E80E001C088E0DF91CF911F91E1
:101E80000F91FF90EF90DF90CF90BF90AF900895AB
:101E9000FC01E15AF74F4083518362837383389783
:101EA0004081518162817381E755F840CF0120E084
:101EB0000E94D50E0895CF92DF92EF92FF920F937A
:101EC0001F93CF93DF938C0184E6E82E88E0F82EF1
:101ED000E00EF11E6801C0E0D0E0F701EC0FFD1F3D
:101EE000C601CC59DF4FBE0140810E944B1FC35633
:101EF000D040CE34D10589F7C80160E00E94890F37
:101F0000DF91CF911F910F91FF90EF90DF90CF90D5
:101F10000895BF92CF92DF92EF92FF920F931F939B
:101F2000CF93DF93EC01B62E94E6E92E98E0F92EDC
:101F3000EC0EFD1E6E0100E010E0E881F981B801B1
:101F40006C597F4F0088F189E02DC6011995F70182
:101F5000E00FF11F80830F5F1F4F0E34110569F7EB
:101F6000CC59D74F88819981C456D840892B39F5EF
:101F7000CA59D74F88819981C656D840892BF9F420
:101F80009E012859374FF90180819181892BB9F43D
:101F9000FE01E356F74FC15AD74F88819981AA8134
:101FA000BB81CF55D84080839183A283B38381E0E6
:101FB00090E0F90191838083CE010E945B0FCC59A0
:101FC000D74F88819981C456D840892BE1F4CA59EA
:101FD000D74F88819981C656D840892BA1F4FE013C
:101FE000E859F74F80819181019769F4C659D74F1D
:101FF00080E28883CA56D84082E090E09183808353
:10200000CE010E945B0FCC59D74F88819981C4566D
:10201000D840892B11F5CA59D74F88819981C65666
:10202000D840892BD1F4FE01E859F74F8081918186
:10203000029799F4CF55D74F80E090E0A0EAB0E442
:1020400088839983AA83BB83C15AD84083E090E0F8
:1020500091838083CE010E945B0FCC59D74F88813A
:102060009981C456D840892BD9F4CA59D74F888151
:102070009981C656D840892B99F4FE01E859F74F4B
:1020800080819181039761F4CB55D74F1882C55A4F
:10209000D84084E090E091838083CE010E945B0F62
:1020A000CC59D74F88819981C456D840892B91F556
:1020B000CA59D74F88819981C656D840892B51F586
:1020C000FE01E859F74F80819181049719F5CA55AF
:1020D000D74F80E090E0A8ECB2E489939993A9935C
:1020E000B99380E090E4ACE9B6E489939993A9931D
:1020F000B99380E090E0A8E4B3E488839983AA834D
:10210000BB83CE5AD84085E090E091838083CE0196
:102110000E945B0FCC59D74F88819981C456D84013
:10212000892B99F4CA59D74F88819981C656D840CE
:10213000892B59F4C859D74F88819981C856D840FE
:10214000059719F4BB2009F49CC0CC59D74F1992BC
:1021500019921992199285E090E0998388832496C8
:102160008CE7888380E78A93229680E09CE7A2E947
:10217000B8E489939993A993B99380E092E2A1EA94
:10218000B8E488839983AA83BB832C9680E090E08F
:10219000AAE7B4E489939993A993B99380E090E472
:1021A000ACE1B6E489939993A993B99380E090E563
:1021B000A3ECB7E489939993A993B99380E094E24F
:1021C000A4E7B9E488839983AA83BB83649780E0FA
:1021D00090E0A0E0B0E089939993A993B9938883A4
:1021E0009983AA83BB8364968FEF96EEABE5BEE23C
:1021F00089939993A993B99389939993A993B9933F
:1022000089939993A993B99388839983AA83BB836C
:10221000C959D840FE01E356F74FC15AD74F8881BC
:102220009981AA81BB8180839183A283B3832B96FA
:1022300080E28883E79680E090E0A0EAB0E48993AA
:102240009993A993B993199280E090E0A8ECB2E435
:1022500089939993A993B99380E090E4ACE9B6E4AB
:1022600089939993A993B99380E090E0A8E4B3E4AB
:1022700088839983AA83BB83CE5AD840CE010E941B
:102280005B0FC356D74FE880F9800A811B81CD5977
:10229000D840C801B70120E030E040E050E00E94A3
:1022A0009C40FE01ED59F74F18161CF081E0808329
:1022B00007C0C15AD74FE882F9820A831B83108274
:1022C000DF91CF911F910F91FF90EF90DF90CF9012
:1022D000BF9008950F931F938C010E944B1FC8015C
:1022E00060E00E94890F1F910F9108954F925F92B5
:1022F0006F927F928F929F92AF92BF92CF92DF9216
:10230000EF92FF920F931F93DF93CF930F920F9251
:10231000CDB7DEB78C012C01EE2454E5852E58E0B4
:10232000952E880E991E45E4C42E48E0D42EC80E82
:10233000D91E3AE6A32E38E0B32EA80EB91E3E01F0
:102340000894611C711C33C028E0F22E30E040E09C
:1023500050E0F60180819181F801E80FF91FE25900
:10236000FF4F20810196F6019183808380E090E009
:10237000222311F481E090E0042E02C0880F991FFF
:102380000A94E2F7380F4F5F5F4F4830510509F765
:102390003A83F50160816E0DF982C201A30122E04A
:1023A0000E94741FF394FDE0FF1681F6E3942E2D36
:1023B00030E0F4018081918168E270E00E94634422
:1023C0002617370708F20F900F90CF91DF911F91DA
:1023D0000F91FF90EF90DF90CF90BF90AF909F90C4
:1023E0008F907F906F905F904F9008952F923F92C3
:1023F0004F925F926F927F928F929F92AF92BF9215
:10240000CF92DF92EF92FF920F931F93DF93CF93C0
:10241000CDB7DEB7E2970FB6F894DEBF0FBECDBFE3
:102420007C0189ABFAAA0E94D01F85E361E00E947B
:102430002C3689E061E00E942C3688E061E00E9441
:102440002C3688E060E00E94DF3664EF71E080E0C7
:1024500090E00E948734D701ED91FC910680F781CE
:10246000E02DC7011995BC018BEC90E10E94973DCE
:102470008BEC90E160E372E00E94973DD701ED9113
:10248000FC910484F585E02DC7011995BC018BEC06
:1024900090E10E94943E8BEC90E163E372E00E9435
:1024A000973DD701ED91FC910284F385E02DC701A2
:1024B0001995BC018BEC90E10E94943EC7010E94EB
:1024C000981F89E060E00E94DF36EFE5F8E0EE0E4D
:1024D000FF1E80E090E0A8ECB2E4F70180839183D6
:1024E000A283B38321EA37EFE20EF31EC70160E057
:1024F0000E94890F8BEC90E166E472E00E94973DA8
:1025000084E698E0E80EF91ED7016D917D917D017A
:102510008BEC90E14AE050E00E94C73C8BEC90E1EC
:102520006DE572E00E94973DF701619171917F0125
:102530008BEC90E14AE050E00E94C73C8BEC90E1CC
:102540006DE572E00E94973DD7016D917C91E8E9BD
:10255000F7EFEE0EFF1E8BEC90E14AE050E00E9498
:10256000D83C8BEC90E16FE572E00E94973DF7015B
:10257000E559F74F8BEC90E160814AE050E00E9412
:10258000073D8BEC90E16FE672E00E94973DF7010A
:10259000E459F74F8BEC90E160814AE050E00E94F3
:1025A000073D10E053E0252E312C2C0E3D1E41E15D
:1025B000442E512C4C0E5D1E3FE1632E712C6C0E8F
:1025C0007D1E28E1822E912C8C0E9D1E96E2A92E56
:1025D000B12CAC0EBD1ECFC0CE010A9665E772E0ED
:1025E0000E94B33FC101612F4AE00E94E63FCE0145
:1025F0000A96B1010E947C3F67E772E00E94603F4B
:1026000098AB8FA7C2016D2D4AE00E94E63F8FA5CF
:1026100098A9B2010E947C3F6BE872E00E94603F83
:10262000BC018BEC90E10E94A73EC2010E941840C1
:10263000C1010E941840CE010A960E941E4011233B
:1026400039F0113081F040E050E060E070E019C0F6
:10265000ED2DF0E0EE0FFF1FEE0FFF1FEE0DFF1D43
:10266000E359F74F0AC0ED2DF0E0EE0FFF1FEE0F1C
:10267000FF1FEE0DFF1DE358F74F4081518162812E
:1026800073818BEC90E122E030E00E94813EC30137
:1026900065E772E00E94B33FC401612F4AE00E94E7
:1026A000E63FC301B4010E947C3F6EE872E00E94E5
:1026B000603F9EA78DA7C5016D2D4AE00E94E63FB1
:1026C0008DA59EA5B5010E947C3F6BE872E00E943B
:1026D000603FBC018BEC90E10E94A73EC5010E94C7
:1026E0001840C4010E941840C3010E941E401123DB
:1026F00039F0113081F060E070E080E090E019C0C6
:10270000ED2DF0E0EE0FFF1FEE0FFF1FEE0DFF1D92
:10271000EB58F74F0AC0ED2DF0E0EE0FFF1FEE0F64
:10272000FF1FEE0DFF1DE357F74F6081718182811E
:10273000938125EA34ED48E653E50E947642AB01E9
:10274000BC018BEC90E122E030E00E947E3E8BECFD
:1027500090E163EA72E00E94943ED394112321F049
:10276000113031F484E001C082E0D81608F434CF8F
:102770001F5F123011F0DD24F1CF8BEC90E167EA9E
:1027800072E00E94973DEAE6CE2EE8E0DE2ECE0C07
:10279000DF1C8BEC90E1D6016C914AE050E00E9486
:1027A000073D8BEC90E164EC72E00E94973DEDE90F
:1027B000F8E0EE0EFF1ED7014D915D916D917D9178
:1027C0007D018BEC90E122E030E00E94813E8BECB9
:1027D00090E164ED72E00E94973DF70141915191C3
:1027E000619171917F018BEC90E122E030E00E94D9
:1027F000813E8BEC90E167EE72E00E94973DD7013D
:102800006C918BEC90E170E04AE050E00E94783DE2
:102810008BEC90E160E073E00E94973DEEEBFFEF00
:10282000EE0EFF1ED7016C918BEC90E170E04AE058
:1028300050E00E94783D8BEC90E16CE173E00E94E7
:10284000973DE3E4F0E0EE0EFF1ED7014D915D9160
:102850006D917D917D018BEC90E122E030E00E9452
:10286000813E8BEC90E164E373E00E94973DF701B9
:1028700041915191619171917F018BEC90E122E046
:1028800030E00E94813E8BEC90E16CE473E00E94AA
:10289000973DD7014D915D916D917C91E2E5F7EF08
:1028A000EE0EFF1E8BEC90E122E030E00E94813EB4
:1028B000F701EC5AF74F11821082AA24BB2478E268
:1028C000872E912C68E1262E33243A943E010894F9
:1028D000611C711C2F011A2D29823A82D6016C913C
:1028E0006A0D89A99AA9A30122E00E94741FF6012A
:1028F00060816A0D89A99AA9A30121E00E94551F50
:1029000089818F3F09F047C000E0085E09830851C4
:102910001A82D6016C91610F89A99AA9A30122E0BC
:102920000E94741FF6016081610F89A99AA9A30111
:1029300021E00E94551F8981882369F5085F09837A
:102940003A82D6016C91610F89A99AA9A30122E06C
:102950000E94741F07500530C1F68BEC90E162E6CF
:1029600073E00E94973D8BEC90E1B5014AE050E0A6
:102970000E94653D8BEC90E16CE673E00E94943E12
:10298000940128523040F20180819181821793078F
:1029900011F4918280820894A11CB11C28E230E0DD
:1029A000820E931E38E0A316B10409F094CF84E59B
:1029B00098E0E80EF91ED7016D917C91ECEAF7EFF3
:1029C000EE0EFF1E8BEC90E14AE050E00E94C73C07
:1029D0008BEC90E168E773E00E94943EF701E459C4
:1029E000F74FC70161E040810E94C80EF701E55929
:1029F000F74FC70162E040810E94C80EC70163E043
:102A000040E00E94C80E25EA38E0E20EF31ED7012E
:102A10008C91EBE5F7EFEE0EFF1E882321F0C70146
:102A200060E042E003C0C70160E041E00E94CC33B7
:102A3000E2960FB6F894DEBF0FBECDBFCF91DF9107
:102A40001F910F91FF90EF90DF90CF90BF90AF90CC
:102A50009F908F907F906F905F904F903F902F90BE
:102A600008957F928F929F92AF92BF92CF92DF9202
:102A7000EF92FF920F931F93DF93CF930F920F92DA
:102A8000CDB7DEB75C019B01742ECB0168E270E02C
:102A90000E946344862EC90168E270E00E9463448C
:102AA0006C0173E0969587957A95E1F7982E082D3D
:102AB00010E06AE6E62E68E0F62EEA0CFB1CF70151
:102AC0008081B801680F711D89EC9DE00E94380576
:102AD000692D70E0685F7F4F89EC9DE00E94BA0528
:102AE00089EC9DE00E94FD05F7018081080F111D12
:102AF00089EC9DE0B80141E050E00E940E0689ECAF
:102B00009DE00E944205892B11F481E03BC00C2D11
:102B10000770F8E09F0E998289EC9DE00E944B05BA
:102B2000282F772071F481E090E0A0E0B0E004C0AD
:102B3000880F991FAA1FBB1F0A95D2F7282B2A833B
:102B40000EC081E090E0A0E0B0E004C0880F991FC3
:102B5000AA1FBB1F0A95D2F7809582238A838AE633
:102B600098E0A80EB91EF501608186E997EFA80EDE
:102B7000B91E680DC501AE014F5F5F4F22E00E9494
:102B8000741F80E00F900F90CF91DF911F910F91F4
:102B9000FF90EF90DF90CF90BF90AF909F908F907D
:102BA0007F9008952F923F924F925F926F927F9203
:102BB0008F929F92AF92BF92CF92DF92EF92FF924D
:102BC0000F931F93DF93CF93CDB7DEB761970FB607
:102BD000F894DEBF0FBECDBF3C016F87862F90E01B
:102BE000FC01E05AF040E635F10508F0CDC7EE589B
:102BF000FF4FEE0FFF1F0590F491E02D199420E494
:102C000038E0620E731ED3018D919C91E0ECF7EFDA
:102C10006E0E7F1E830104591F4F892B09F07BC75D
:102C2000B3016C5A774FC30142E050E02DC120E45C
:102C300038E0620E731ED3018D919C91E0ECF7EFAA
:102C40006E0E7F1E830104591F4F892B09F063C745
:102C5000D8011C92688A798ACC2484E5882E88E081
:102C6000982E860C971CBAE62B2EB8E03B2E260C2D
:102C7000371C580154C0A8E0DA2E2901F1018081E7
:102C8000B201680F711D89EC9DE00E94380589EC46
:102C90009DE06D2D0E94BA0589EC9DE00E94FD0526
:102CA000D1018C91B201680F711D89EC9DE041E06A
:102CB00050E00E940E0689EC9DE00E944205892B9F
:102CC00021F189EC9DE00E944B0500E010E0E82E28
:102CD000FF24C701002E02C0959587950A94E2F75C
:102CE000E1E0F0E08E279F278170898388899989A8
:102CF000BE016F5F7F4F41E050E00E940F1E0F5FEB
:102D00001F4F0830110529F704C0E1E0D501EC930D
:102D100005C0D394FDE0DF1609F0B0CFC3942C2D8D
:102D200030E0D4018D919C9168E270E00E94634490
:102D30002617370708F49FCF27C7F301E05CF74F4A
:102D400024E538E0620E731E20813181D3018D911C
:102D50009C91ECEAF7EF6E0E7F1E830104591F4F22
:102D60002817390709F0D7C6C3010E947611D80188
:102D70001C920AC720E438E0620E731ED3018D91C5
:102D80009C91E0ECF7EF6E0E7F1E029709F0F1C602
:102D9000D301AB5BB74F8D919C91119782599F4F97
:102DA000F301E80FF91F0190F081E02D8C5690405F
:102DB0008D939C9324E538E0620E731ED3018D91B0
:102DC0009C912CEA37EF620E731EE817F90730F07A
:102DD0004CE650E0640E751E85E0D0C6CF0168E277
:102DE00070E00E9463446C01CF0168E270E00E94D1
:102DF0006344062F10E0FAE6EF2EF8E0FF2EE60C13
:102E0000F71CD7018C91B801680F711D89EC9DE00A
:102E10000E943805B601E3E076956795EA95E1F7FB
:102E200070E0685F7F4F89EC9DE00E94BA0589ECF5
:102E30009DE00E94FD05F7018081080F111D89ECBE
:102E40009DE0B80141E050E00E940E0689EC9DE053
:102E50000E944205830104591F4F892BC1F089EC60
:102E60009DE00E944B0590E02C2D277002C09595A7
:102E700087952A95E2F7809581708983C301BE0109
:102E80006F5F7F4F41E050E00E940F1E70CF81E0E6
:102E9000F801808379C620E438E0620E731ED30106
:102EA0008D919C91E0ECF7EF6E0E7F1E039709F079
:102EB00060C6D301AB5BB74F8D919C911197FC011C
:102EC000E259FF4FE60DF71D60817181F301E80FB4
:102ED000F91FE059FF4F408103968D939C9324E5A1
:102EE00038E0620E731ED3018D919C91ECEAF7EFEE
:102EF0006E0E7F1E830104591F4F6817790708F073
:102F000072C3C3010E943115C1C520E438E0620ECE
:102F1000731ED3018D919C91E0ECF7EF6E0E7F1E36
:102F2000830104591F4F892B09F0F5C5D8011C9264
:102F300089E00E9412374DC520E438E0620E731E0E
:102F4000D3018D919C91E0ECF7EF6E0E7F1E0197FF
:102F500009F00FC6D301AB5BB74F8D919C911197D0
:102F6000F301E80FF91FE259FF4F608101968D933D
:102F70009C93830104591F4F623020F489E00E9422
:102F8000DF36F5CE88E084CF20E438E0620E731E91
:102F9000D3018D919C91E0ECF7EF6E0E7F1E8301C3
:102FA00004591F4F892B09F0B6C5D8011C92B301F3
:102FB000695A774FC30144E050E00E940F1EE4C5F8
:102FC00020E438E0620E731ED3018D919C91E0ECF9
:102FD000F7EF6E0E7F1E830104591F4F049709F00F
:102FE0009AC5D301AB5BB74F8D919C9111978259D4
:102FF0009F4FF301E80FF91F408151816281738176
:103000008A5690408D939C93C30121E00E94D50E77
:103010003DC520E438E0620E731ED3018D919C9172
:10302000E0ECF7EF6E0E7F1E830104591F4F892BD2
:1030300009F071C5D8011C92B301655A774FBACF18
:1030400020E438E0620E731ED3018D919C91E0EC78
:10305000F7EF6E0E7F1E049709F08BC5D301AB5BB3
:10306000B74F8D919C91119782599F4FF301E80FB3
:10307000F91F20803180428053808A5690408D9382
:103080009C93F301EA55F74FC201B10120813181D0
:10309000428153810E942D4288230CF4AEC0F3017B
:1030A000E655F74FC201B101208131814281538140
:1030B0000E949C4018160CF4A0C0C201B10120E08F
:1030C00030E048E452E40E9476427B018C0120E02B
:1030D00030E04AE754E40E949C4087FD8EC0C8015E
:1030E000B70120E233EB41E85CE40E942D42181660
:1030F0000CF483C0C801B70120E030EE41E854E48D
:103100000E94A0400E94364226EA3BE944E550E492
:103110000E9476422EE83DE543E150E40E94A04043
:103120000E940D41D62E70E0665F7F4F882777FDA5
:103130008095982F0E943B419B01AC0160E070E0BC
:1031400080E090E40E94D9429B01AC01CA01B90120
:1031500020E030EE41E055EC0E947642A801970154
:103160000E94A04020E030E040E055E40E9425406D
:103170007B018C0120E030E040E050E00E942D42D5
:1031800088234CF0C801B70120E030E040E05FE365
:103190000E94254008C0C801B70120E030E040E0AF
:1031A0005FE30E9424400E9408418B0189EC9DE06E
:1031B00067E10E942E05C80156E0969587955A95BD
:1031C000E1F7D29440EFD422D82A89EC9DE06D2D0E
:1031D0000E94BA05602F660F660F626089EC9DE061
:1031E0000E94BA0589EC9DE00E94FD052CE630E0C6
:1031F000620E731ED3011C9207C02CE630E0620EF3
:10320000731E88E0D3018C93E4E9FFEF6E0E7F1EFE
:103210002CE630E0620E731ED3018C91E4E9FFEFDF
:103220006E0E7F1E882309F0AFC42BE538E0620ED6
:10323000731ED3012D923D924D925C921397E5EA55
:10324000F7EFA0C420E438E0620E731ED3018D9125
:103250009C91E0ECF7EF6E0E7F1E019709F089C498
:10326000D301AB5BB74F8D919C911197F301E80FA0
:10327000F91FE259FF4F208101968D939C938301A2
:1032800004591F4F223008F0AEC130E08BE190E0CE
:10329000289FF001299FF00D389FF00D1124E4596B
:1032A000F14F81818983D8011C92C301BE016F5FF8
:1032B0007F4F41E050E081CE20E438E0620E731E83
:1032C000D3018D919C91E0ECF7EF6E0E7F1E830190
:1032D00004591F4F029709F01EC4D301AB5BB74FCF
:1032E0002D913C911197F301E20FF31FE259FF4F2B
:1032F00080812F5F3F4FF301E20FF31FE259FF4F31
:1033000060812F5F3F4F2D933C930E94A42DBEC33D
:1033100020E438E0620E731ED3018D919C91E0ECA5
:10332000F7EF6E0E7F1E019709F023C4D301AB5B4C
:10333000B74F8D919C911197F301E80FF91FE25956
:10334000FF4F408101968D939C93830104591F4F39
:10335000423008F048C1D8011C92242F30E08BE1A4
:1033600090E0289FF001299FF00D389FF00D112467
:10337000E459F14FE181442321F0413009F0ACC020
:103380000AC0F0E0EE0FFF1FEE0FFF1FE60DF71D66
:10339000E359F74FB9C0F0E0EE0FFF1FEE0FFF1F2C
:1033A000E60DF71DE358F74FAFC020E438E0620E9A
:1033B000731ED3018D919C91E0ECF7EF6E0E7F1E92
:1033C000830104591F4F059709F05FC3A3014B5BAD
:1033D000574FDA012D913C911197F301E20FF31F42
:1033E000E259FF4FE0812F5F3F4F2D933C932150D7
:1033F0003040D8011C92EE2321F0E13009F0F3C0F7
:103400001AC0E0916D0EF0E021593F4FD301A20F99
:10341000B31FED90FD900D911C912A563040DA01BA
:103420002D933C93EE0FFF1FEE0FFF1FE60DF71DD0
:10343000E359F74FD0C0E091880EF0E021593F4F9B
:10344000D301A20FB31FED90FD900D911C912A5650
:103450003040DA012D933C93EE0FFF1FEE0FFF1F5C
:10346000E60DF71DE358F74FB6C0E0E4F8E06E0E46
:103470007F1ED3018D919C91E0ECF7EF6E0E7F1EC5
:10348000019709F076C3D301AB5BB74F8D919C9147
:103490001197F301E80FF91FE259FF4F40810196A0
:1034A0008D939C93830104591F4F423008F09BC0B9
:1034B000D8011C92242F30E08BE190E0289FF0018E
:1034C000299FF00D389FF00D1124E459F14FE1814F
:1034D000442339F0413079F080E090E0A0E0B0E0A2
:1034E00017C0F0E0EE0FFF1FEE0FFF1FE60DF71DF8
:1034F000EB58F74F09C0F0E0EE0FFF1FEE0FFF1F74
:10350000E60DF71DE357F74F80819181A281B381CA
:1035100089839A83AB83BC8325C220E438E0620EA2
:10352000731ED3018D919C91E0ECF7EF6E0E7F1E20
:10353000830104591F4F059709F0A7C2A3014B5BF4
:10354000574FDA012D913C911197F301E20FF31FD0
:10355000E259FF4FE0812F5F3F4F2D933C93215065
:103560003040D8011C92EE2319F0E130E1F51AC089
:10357000E0916D0EF0E021593F4FD301A20FB31F30
:10358000ED90FD900D911C912A563040DA012D935B
:103590003C93EE0FFF1FEE0FFF1FE60DF71DEB58DC
:1035A000F74F19C0E091880EF0E021593F4FD30149
:1035B000A20FB31FED90FD900D911C912A56304043
:1035C000DA012D933C93EE0FFF1FEE0FFF1FE60D68
:1035D000F71DE357F74FE082F18202831383C301A3
:1035E0000E945B0FD1C285E053CCE0E4F8E06E0EA0
:1035F0007F1ED3018D919C91E0ECF7EF6E0E7F1E44
:10360000830104591F4F892B09F085C2D8011C92F0
:10361000B301615A774FCECC20E438E0620E731EBE
:10362000D3018D919C91E0ECF7EF6E0E7F1E049715
:1036300009F09FC2F301EB5BF74F808191818259C2
:103640009F4FD301A80FB91FED90FD900D911C91D4
:103650008A56904091838083C801B70120E030E012
:1036600040E050E00E942D42181664F5F301ED5938
:10367000F74F8081882379F02FE538E0620E731EC2
:10368000D301ED92FD920D931C931397E1EAF7EFAE
:103690006E0E7F1E12C02DE938E0620E731ED3013C
:1036A000ED92FD920D931C93139723E637EF620E74
:1036B000731E1082C3010E945B0F4CE650E0640E43
:1036C000751E54C22CE630E0620E731E88E056C2AE
:1036D00020E438E0620E731ED3018D919C91E0ECE2
:1036E000F7EF6E0E7F1E830104591F4F892B09F0DF
:1036F00012C2D8011C9210E0F301E356F74F60812B
:1037000071818281938120E030E040E050E00E94AE
:103710009C4018160CF011E01983C7CD20E438E066
:10372000620E731ED3018D919C91E0ECF7EF6E0E4B
:103730007F1E019709F01DC2D301AB5BB74F8D917E
:103740009C911197F301E80FF91FE259FF4F208177
:1037500001968D939C93F301E356F74F222349F092
:1037600080E090E0A0E0B0E080839183A283B38307
:1037700011C02FE538E0620E731ED3012D913D91EB
:103780004D915C9161EA77EF660E771E208331835D
:1037900042835383C3010E945B0F8CE690E0680E66
:1037A000791EE4C120E438E0620E731ED3012D912E
:1037B0003C91E0ECF7EF6E0E7F1E2A30310508F4E5
:1037C000D8C1D301AB5BB74F8D919C911197FC0190
:1037D000E259FF4FE60DF71D4081518162817381EF
:1037E0004B875C876D877E87049611969C938E939A
:1037F0000497FC01EE58FF4FE60DF71D60817181C3
:103800007A876987FC01EC58FF4FE60DF71D408170
:103810005181628173814D835E836F837887F30169
:10382000E80FF91FE858FF4F10810B968D939C937A
:103830002B30310581F064E578E0660E771ED30108
:103840008D919C91ECEAF7EF6E0E7F1E0B96281778
:10385000390709F0BCC129853A852D54314008F05B
:1038600086C06B857C858D859E8520E030E04AE7AB
:1038700054E40E94A04020E030E44CE157E40E9470
:10388000764220E030E040E855E40E949C408823E6
:103890000CF06DC06CE670E0660E771ED3011C92D2
:1038A000E4E9FFEF6E0E7F1EF301E05CF74F24E5C5
:1038B00038E0620E731ED3018D919C912CEA37EF94
:1038C000620E731E0B96208131812817390719F477
:1038D000C3010E947611A12E0E9461341B012C01AC
:1038E0004BE558E0640E751ED301CD90DD90ED9050
:1038F000FC90E5EAF7EF6E0E7F1EF0E010FDF1E0C0
:10390000E0E0A1FCE1E06B857C858D859E854985A5
:103910005A850D811E812F813885AF2E8E2E0E94F3
:10392000F42D0E94613462197309840995090E947B
:1039300039417B018C0129853A85B90180E090E00D
:103940000E94394120E030E04AE754E40E94764288
:103950009B01AC01C801B7010E94A04069837A8332
:103960008B839C83C301BE016F5F7F4F24CB4CE6EA
:1039700050E0640E751E81E001C120E438E0620E63
:10398000731ED3018D919C91E0ECF7EF6E0E7F1EBC
:10399000830104591F4F892B09F0BDC0D8011C9227
:1039A000C30161E00E94890FEFC020E438E0620E9D
:1039B000731ED3018D919C91E0ECF7EF6E0E7F1E8C
:1039C000830104591F4F892B09F0A5C0D8011C920F
:1039D00088E089836ACC20E438E0620E731ED3014C
:1039E0008D919C91E0ECF7EF6E0E7F1E83010459E0
:1039F0001F4F892B09F049C0D8011C92E2E5F8E07D
:103A00006E0E7F1ED3018C91EEEAF7EF3BC0E0E42F
:103A1000F8E06E0E7F1ED3018D919C91E0ECF7EFE4
:103A20006E0E7F1E019709F0A4C0D301AB5BB74FA8
:103A30008D919C911197F301E80FF91FE259FF4F07
:103A4000208101968D939C93F301EE5AF74F41C06C
:103A500020E438E0620E731ED3018D919C91E0EC5E
:103A6000F7EF6E0E7F1E830104591F4F892B69F4F7
:103A7000D8011C92E3E5F8E06E0E7F1ED3018C9115
:103A8000EDEAF7EF6E0E7F1EA4CF86E0D8018C938F
:103A90007BC0E0E4F8E06E0E7F1ED3018D919C9117
:103AA000E0ECF7EF6E0E7F1E019709F062C0D301C4
:103AB000AB5BB74F8D919C911197F301E80FF91F04
:103AC000E259FF4F208101968D939C93F301ED5AAB
:103AD000F74F222319F081E0808344C0108242C056
:103AE00020E438E0620E731ED3018D919C91E0ECCE
:103AF000F7EF6E0E7F1E830104591F4F892B59F477
:103B0000D8011C9288E00E9412371982892B09F093
:103B1000CCCB81E05ECF86E0BBC920E438E0620E0A
:103B2000731ED3018D919C91E0ECF7EF6E0E7F1E1A
:103B30000197F9F4D301AB5BB74F8D919C9111972D
:103B4000F301E80FF91FE259FF4F208101968D9391
:103B50009C93222319F088E060E002C088E061E0D5
:103B60000E94DF362CE630E0620E731ED3011C92F9
:103B700007C02CE630E0620E731E86E0D3018C9302
:103B8000E4E9FFEF6E0E7F1EC3016F850E94642281
:103B90002CE630E0620E731ED3018C9161960FB655
:103BA000F894DEBF0FBECDBFCF91DF911F910F9173
:103BB000FF90EF90DF90CF90BF90AF909F908F904D
:103BC0007F906F905F904F903F902F900895ECE61C
:103BD000F0E06E0E7F1ED1CFFC0183E894E091836C
:103BE0008083CF010E94091E08950F931F938C01BB
:103BF00061E00E946F2083E894E0F8019183808364
:103C00000E5A174FF801119210821F910F910895CB
:103C10000895FC018AEA94E09183808308950F93CC
:103C20001F93CF93DF938C0120E030E0EC01C95B60
:103C3000D74F10C0F801E20FF31F88819981E80F78
:103C4000F91FE259FF4FDB01A20FB31F8C91808354
:103C50002F5F3F4F2417350768F388819981840FC0
:103C6000951F99838883DF91CF911F910F910895BC
:103C7000CF93DF93DC01FC01E359FF4F6081EC013E
:103C8000C459DF4F67FF0EC06058608382E08883AD
:103C9000ED91FC91119760580488F589E02DCD01D4
:103CA00019950EC0FC01E05CF74F80819181A80F4F
:103CB000B91FA359BF4F2C9128830197918380830B
:103CC000DF91CF910895CF93DF93EC01FC01E75B87
:103CD000F74F6D3719F481E08083DAC09081992322
:103CE00011F080E268276E3749F4992339F4CD5BEF
:103CF000D74F19821882C354D840C4C0CD5BD74F68
:103D000028813981C354D84021153105A1F4C35904
:103D1000DF4F6883C152D84F8881CC54D840882364
:103D200009F448C0C15BD74F8FEF9FEF9983888319
:103D3000CF54D8403FC021303105B1F4DE01AE5B35
:103D4000B74FFE01E05CF74F67FF09C083E08C933B
:103D5000862F90E08F779070108281832BC082E055
:103D60008C936083118226C02230310589F4CE5BAA
:103D7000D74F8881C254D840833051F4FE01E05CB3
:103D8000F74F80819181860F911D9183808312C0AE
:103D9000CE5BD74F8881F901E81BF1099A918A918E
:103DA000C054D840E817F90728F4EC0FFD1FE2597A
:103DB000FF4F6083C45BD74F8881CC54D8408823A1
:103DC000F1F0FE01E15BF74F808191818627282F7A
:103DD00022952827022E269526952025022E269507
:103DE00020252770082E892F269507942795902D3A
:103DF0008227069427959025822791838083FE0150
:103E0000ED5BF74F408151814F5F5F4F518340839E
:103E1000CE5BD74F88813A912A91280F311D2C967D
:103E20006881CC54D840862F90E0880F991F280FC6
:103E3000391F4217530731F511821082CB5BD74FE0
:103E40001992199219821882C754D840662341F0FA
:103E5000C15BD74F88819981CF54D840892B19F401
:103E6000CE010E94381EFE01E55BF74F9081992339
:103E700049F0C359DF4F90588881CD56D0408917FB
:103E800009F41082FE01E75BF74F808181111082F7
:103E9000DF91CF91089582E89DE00E94EC0408959F
:103EA00082E89DE00E94E50408951F93CF93DF937D
:103EB000EA0189EC9DE0422F0E94120610E009C041
:103EC00089EC9DE00E944B05FE01E10FF11D80830E
:103ED0001F5F89EC9DE00E944205892B89F7812FA5
:103EE000DF91CF911F910895FF920F931F93CF936E
:103EF000DF93142F052FF22E89EC9DE00E942E05F2
:103F0000212F302FC901EC0110E006C089EC9DE0A3
:103F100069910E94BA051F5F1F15C0F389EC9DE0EF
:103F20000E94FD05DF91CF911F910F91FF900895A1
:103F30001F9318E089EC9DE0612F0E942E0589EC0B
:103F40009DE00E94FD05882331F58BEC90E16FE840
:103F500073E00E94973D8BEC90E1612F4AE050E0C6
:103F60000E94F53C8BEC90E163EA73E00E94973D80
:103F70008BEC90E1612F40E150E00E94F53C8BEC2E
:103F800090E168EA73E00E94943E61E070E080E0B6
:103F900090E00E9487341F5F183761F61F910895E3
:103FA000AF92BF92CF92DF92EF92FF920F931F9347
:103FB000DF93CF9300D00F92CDB7DEB77C016E01B7
:103FC0000894C11CD11C56010FE010E0D701ED91FF
:103FD000FC910088F189E02DC701B8011995F50120
:103FE00081935F010F5F1F4F0331110579F78981BD
:103FF0009A81AB81BC818F5F9F4FAF4FBF4FD9F488
:1040000080E092ECA1E0B0E089839A83AB83BC832B
:104010000FE010E0D701ED91FC910288F389E02DCB
:10402000C701B801D6014D916D0119950F5F1F4F62
:104030000331110579F749815A816B817C818BECC1
:1040400090E10E94873989EC9DE00E9416060E944B
:1040500017050E94FC0A870108591F4FF801608369
:104060007183828393838BEC90E16AEA73E00E9410
:10407000973DD8014D915D916D917C918BEC90E1D4
:1040800022E030E00E947E3E8BEC90E16CEB73E02E
:104090000E94943E0F900F900F900F90CF91DF9160
:1040A0001F910F91FF90EF90DF90CF90BF90AF9056
:1040B0000895CF93DF93EC0108C08BEC90E10E9450
:1040C0003F3A682FCE010E94631E8BEC90E10E9464
:1040D0000E3A181619068CF3DF91CF9108957F924E
:1040E0008F929F92AF92BF92CF92DF92EF92FF9208
:1040F0000F931F93CF93DF93FC018AEA94E091839F
:104100008083E45BF74F6083399711821082369683
:104110001082399711821082359611921192118274
:1041200010823A961082AA24BB248824992482E81B
:104130009DE0B5010E94E504182FB501695F7F4F2E
:1041400082E89DE00E94E504E401EE24FF24C12EF4
:10415000DD24C094D094082F10E000951095C6334C
:10416000D105B4F4B6010E2C02C0759567950A947A
:10417000E2F761708C2F0E942C36B8010E2C02C021
:10418000759567950A94E2F761708C2F0E94DF366F
:104190000894E11CF11C219688E0E816F104F9F678
:1041A0000894A11CB11C88E090E0880E991E97E04D
:1041B000A916B10409F0BBCFDF91CF911F910F91E8
:1041C000FF90EF90DF90CF90BF90AF909F908F9037
:1041D0007F9008951F93162F862F8D57823050F4AD
:1041E0008BEC90E16DE70E94783A60E261278BECFE
:1041F00090E102C08BEC90E10E94783A1F91089503
:104200008F929F92AF92BF92CF92DF92EF92FF92E6
:104210000F931F93CF93DF93EC01BEE6EB2EF12CAF
:10422000E80EF91E00E010E0A0E48A2EA8E09A2E25
:10423000880E991EFCE4AF2EF8E0BF2EA80EB91E22
:10424000EDE4CE2EE8E0DE2EC80ED91E2AC0F50120
:1042500080818823F1F0F7012081F601808191812E
:104260008227282F22952827022E2695269520255D
:10427000022E269520252770082E892F2695079433
:104280002795902D82270694279590258227918344
:104290008083CE01F70161917F010E94EA200F5FC8
:1042A0001F4FF401808191810817190708F4CFCFBF
:1042B000F5018081882369F08E01035B174FCE01E1
:1042C000F80160810E94EA20F8016181CE010E941C
:1042D000EA20C05CD74F198218822796198218826B
:1042E000DF91CF911F910F91FF90EF90DF90CF90D2
:1042F000BF90AF909F908F9008950F931F93CF938F
:10430000DF93EC01062FFC01E05CF74FC95BD74F50
:1043100088819981918380838BEC90E16EE70E9484
:10432000783A25968881CC54D8408823F9F0C35B2D
:10433000D74F8FEF9FEF8027282F22952827022E17
:10434000269526952025022E269520252770082EB5
:10435000892F269507942795902D822706942795D7
:104360009025822799838883CD54D840CE01602F31
:104370000E94EA20DE01A05CB74F2D913C9111977D
:10438000FE01E45BF74F2038310530F5808188234A
:10439000F1F0FE01E35BF74F808191818227282FA6
:1043A00022952827022E269526952025022E269531
:1043B00020252770082E892F269507942795902D64
:1043C0008227069427959025822791838083CE01AA
:1043D000C05CD74F688149C08081882309F437C009
:1043E0003068FE01E35BF74F808191818327282F9E
:1043F00022952827022E269526952025022E2695E1
:1044000020252770082E892F269507942795902D13
:10441000822706942795902582272C918227282F82
:1044200022952827022E269526952025022E2695B0
:1044300020252770082E892F269507942795902DE3
:1044400082270694279590258227918380838E0169
:10445000005C174FF801208131813068CE01632F55
:104460000E94EA20CE01F80160810E94EA20DF91DB
:10447000CF911F910F9108950F931F93DF93CF93C7
:104480000F92CDB7DEB78C016983DC01A95BB74F12
:104490008D919C911197F801E80FF91FE259FF4F98
:1044A000608301968D939C93F801E359FF4FC801F7
:1044B00060810E947D21C8010E9400210F90CF9150
:1044C000DF911F910F9108956F927F929F92AF920B
:1044D000BF92CF92DF92EF92FF920F931F93DF93E1
:1044E000CF93CDB7DEB76C970FB6F894DEBF0FBE93
:1044F000CDBF7C016DB67EB670E0CB018058904098
:104500008E31910508F0C9C688539F4FD701A05C32
:10451000B74FFC01EE0FFF1F0590F491E02D1994A9
:104520008D919C91892B09F0FAC5D701ED91FC91F1
:104530000280F381E02DC70119958C01D701ED911F
:10454000FC910280F381E02DC7011995DC010D90EB
:104550000020E9F7AD0141505040481B590B20E0C5
:1045600030E0B701695B774F11C0F701E20FF31F2D
:10457000DB018D919C91E80FF91FE259FF4FD801A3
:10458000A20FB31F8C9180832F5F3F4F24173507F5
:1045900060F3E7C08D919C91892B09F0C0C5D701CC
:1045A000ED91FC910480F581E02DC70119958C01F6
:1045B000D701ED91FC910480F581E02DC70119959B
:1045C000DC010D900020E9F7AD0141505040481B3F
:1045D000590B20E030E0B701695B774F11C0F7015C
:1045E000E20FF31FDB018D919C91E80FF91FE25957
:1045F000FF4FD801A20FB31F8C9180832F5F3F4FD5
:104600002417350760F3ADC08D919C91892B09F07B
:1046100086C5D701ED91FC910680F781E02DC70199
:1046200019958C01D701ED91FC910680F781E02D61
:10463000C7011995DC010D900020E9F7AD0141504B
:104640005040481B590B20E030E0B701695B774FC1
:1046500011C0F701E20FF31FDB018D919C91E80F70
:10466000F91FE259FF4FD801A20FB31F8C9180832D
:104670002F5F3F4F2417350760F373C08D919C91D6
:10468000892B09F04CC5D701ED91FC910084F1858F
:10469000E02DC70119958C01D701ED91FC910084A3
:1046A000F185E02DC7011995DC010D900020E9F797
:1046B000AD0141505040481B590B20E030E0B7019C
:1046C000695B774F11C0F701E20FF31FDB018D919A
:1046D0009C91E80FF91FE259FF4FD801A20FB31FB9
:1046E0008C9180832F5F3F4F2417350760F339C0CB
:1046F0008D919C91892B09F012C5D701ED91FC9108
:104700000284F385E02DC70119958C01D701ED9145
:10471000FC910284F385E02DC7011995DC010D9011
:104720000020E9F7AD0141505040481B590B20E0F3
:1047300030E0B701695B774F11C0F701E20FF31F5B
:10474000DB018D919C91E80FF91FE259FF4FD801D1
:10475000A20FB31F8C9180832F5F3F4F2417350723
:1047600060F3FB0180819181840F951F9183808389
:104770002CE630E0E20EF31ED7011C92E4E9FFEFD5
:10478000EE0EFF1E8AC58D919C91892B09F0C7C43E
:10479000D701ED91FC910484F585E02DC7011995B1
:1047A0008C01D701ED91FC910484F585E02DC701C2
:1047B0001995DC010D900020E9F7AD014150504002
:1047C000481B590B20E030E0B701695B774F11C0FF
:1047D000F701E20FF31FDB018D919C91E80FF91FA8
:1047E000E259FF4FD801A20FB31F8C9180832F5F36
:1047F0003F4F2417350760F3B4CF8D919C91892BDF
:1048000009F08DC4D701ED91FC910684F785E02D68
:10481000C70119958C01D701ED91FC910684F785AC
:10482000E02DC7011995DC010D900020E9F7AD01DD
:1048300041505040481B590B20E030E0B701695B04
:10484000774F11C0F701E20FF31FDB018D919C91AF
:10485000E80FF91FE259FF4FD801A20FB31F8C9147
:1048600080832F5F3F4F2417350760F37ACF8D91F8
:104870009C91892B09F053C420E030E0B701695BBB
:10488000774FF701E20FF31FDB014D915C91E40FCD
:10489000F51FE259FF4FD901A556BB4F8C9180837C
:1048A0002F5F3F4F2A30310561F7465F5F4F1FC2D0
:1048B0008D919C91870104591F4F029709F0D0C335
:1048C000D701AB5BB74F2D913C911197F701E20FE8
:1048D000F31FE259FF4F80812F5F3F4FF701E20F37
:1048E000F31FE259FF4F60812F5F3F4F2D933C93A1
:1048F0000E942C36B2C38D919C91870104591F4FA1
:10490000029709F0ADC3D701AB5BB74F2D913C9136
:104910001197F701E20FF31FE259FF4F80812F5FDC
:104920003F4FF701E20FF31FE259FF4F60812F5F06
:104930003F4F2D933C930E94DF368FC38D919C9106
:10494000870104591F4F019709F08AC3D701AB5B58
:10495000B74F2D913C911197F701E20FF31FE259E8
:10496000FF4F80812F5F3F4F2D933C930E94123762
:104970008983D701A95BB74F2D913C911197F7011E
:10498000E20FF31FE259FF4F80832F5F3F4F2D93BC
:104990003C9363C38D919C91870104591F4F0297EB
:1049A00009F05EC3D701AB5BB74F2D913C911197D6
:1049B000F701E20FF31FE259FF4F80812F5F3F4F56
:1049C00011963C932E9322593F4FF701E20FF31FAC
:1049D000608171812C5630402D933C930E944C3560
:1049E0003CC32CE630E0E20EF31E86E0F701808344
:1049F00024E93FEFE20EF31E2D913C912230310568
:104A000008F44BC4ADB69EB6D701AB5BB74F8D91E2
:104A10009C911197F701E80FF91FE259FF4FB08001
:104A200001968D939C938DB79EB78B1991090FB604
:104A3000F8949EBF0FBE8DBFCDB6DEB60894C11CE4
:104A4000D11C2230310519F491E0B916D9F08B2D23
:104A500090E003962817390709F096C013C08D918E
:104A60009C911197F701E80FF91FE259FF4F208140
:104A7000019611969C938E93F601E30FF11D20830E
:104A80003F5F04C030E0D701AB5BB74F3B1538F355
:104A9000A0E4B8E0EA0EFB1EF7018081918120ECD2
:104AA00037EFE20EF31E029701F1F701EB5BF74FD0
:104AB0008081918182599F4FD701A80FB91F0D9115
:104AC0001C918C5690409183808333E0093E1307FC
:104AD00070F08CE690E0E80EF91E89E0D7018C9327
:104AE000E4E9FFEFEE0EFF1E4FC001E010E02CE600
:104AF00030E0E20EF31ED7011C9210934A0E009391
:104B0000490EE2E0F0E0EE0EFF1EF092460EE0925B
:104B1000450E22E93FEFE20EF31E80E00E944109BC
:104B200031E0B31629F4D6018C910E945B0912C0C2
:104B3000D0924D0EC0924C0EB0924F0E1092500E6D
:104B40008EE999E09093520E8093510EF601808188
:104B50000E9484090E94900B2091490E30914A0EC8
:104B60008091470E9091480E82179307C9F70E94D3
:104B70003E0BF701E95BF74F000F111F8081918118
:104B8000080F191F118300838A2D992D9C010FB6E0
:104B9000F8943EBF0FBE2DBF80C38D919C918701BD
:104BA00004591F4F039709F075C3D701AB5BB74F8B
:104BB0008D919C911197FC01E259FF4FEE0DFF1D65
:104BC00060817181F701E80FF91FE059FF4F4081C3
:104BD00003968D939C93D701ED91FC910288F38904
:104BE000E02DC701199553C38D919C9187010459FC
:104BF0001F4F029709F04EC3D701AB5BB74F8D91A2
:104C00009C91119782599F4FF701E80FF91F60811E
:104C100071818C5690408D939C93D701ED91FC91BE
:104C20000088F189E02DC70119958983D701A95B17
:104C3000B74F2D913C911197F701E20FF31FE25905
:104C4000FF4F80832F5F3F4F20C38D919C91029730
:104C500009F065C2D701AB5BB74F8D919C9111975D
:104C6000F701E80FF91FE259FF4F60810196F70144
:104C7000E80FF91FE259FF4FA08001968D939C9396
:104C80008E01015F1F4FC8010E949A0DC8010E944A
:104C9000C60BDD24B02EC12E8E01095F1F4F8B2D58
:104CA0009C2DB8010E94040DD394AD14C0F7882345
:104CB00011F120E030E0B701695B774F8E01095FA9
:104CC0001F4FF701E20FF31FDB014D915C91E40FE1
:104CD000F51FE259FF4FD801A20FB31F8C918083BB
:104CE0002F5F3F4F2830310561F7485F5F4FFB0171
:104CF000518340833DCD2CE630E0E20EF31E85E08B
:104D00009CC28D919C910B9709F009C2D701AB5BB6
:104D1000B74F8D919C911197F701E80FF91FE25958
:104D2000FF4F6081019611969C938E9347E0C42EAD
:104D3000D12CCC0EDD1EAD01C601BC2CA92E8E01DE
:104D4000015F1F4FFA0180819181F701E80FF91F80
:104D5000E259FF4F20810196FA0191838083F60189
:104D600021936F01E017F10769F78D919C911197DD
:104D7000F701E80FF91FE259FF4F10810196F70183
:104D8000E80FF91FE259FF4F008101968D939C9324
:104D9000C6010E949A0DC6010E94B90CC6016B2D76
:104DA0007A2D0E94980CC601612F40E00E94580C99
:104DB00010E03FE0A32EB12CAC0EBD1E27E4C22EA6
:104DC00028E0D22ECE0CDF1C13C0C5010E94070CB8
:104DD0008983D6012D913C911197F701E20FF31FC2
:104DE000E259FF4F80832F5F3F4F2D933C931F5F0E
:104DF000101758F3ECE6F0E0EE0EFF1EBDCC8D91DF
:104E00009C910B9709F08BC1D701AB5BB74F8D918C
:104E10009C911197F701E80FF91FE259FF4F60814C
:104E2000019611969C938E9397E0C92ED12CCC0EAF
:104E3000DD1EAD01C601BC2CA92E8E01015F1F4FE6
:104E4000FA0180819181F701E80FF91FE259FF4FC4
:104E500020810196FA0191838083F60121936F01ED
:104E6000E017F10769F78D919C911197F701E80F11
:104E7000F91FE259FF4F00810196F701E80FF91F72
:104E8000E259FF4F108101968D939C93C6010E94B9
:104E90009A0DC6010E94B90CC6016B2D7A2D0E9495
:104EA000980CC601602F412F0E94580C61CC8D9147
:104EB0009C91029709F0BCC1D701AB5BB74F8D91B4
:104EC0009C911197F701E80FF91FE259FF4F60819C
:104ED0000196F701E80FF91FE259FF4FC0800196D4
:104EE0008D939C9389EC9DE04C2D0E941206DD244D
:104EF0008701095B174F14C089EC9DE00E944B05A8
:104F00008983D8012D913C911197F701E20FF31F8E
:104F1000E259FF4F80832F5F3F4F2D933C93D394F3
:104F200089EC9DE00E944205892B31F787010459E5
:104F30001F4FDC1409F4ABC181E0ADC18D919C9190
:104F4000029708F4ECC087010B5B174FD8018D91D5
:104F50009C911197F701E80FF91FE259FF4F60810B
:104F600001968D939C9389EC9DE00E942E05DD2493
:104F700080E4A82E88E0B82EAE0CBF1C12C0F80149
:104F800080819181F701E80FF91FE259FF4F60819D
:104F90000196D8018D939C9389EC9DE00E94BA05FF
:104FA000D3942D2D30E0F501808191810197281750
:104FB000390728F389EC9DE00E94FD05D9CB8D913E
:104FC0009C91870104591F4F019709F049C0D701EF
:104FD000AB5BB74F2D913C911197F701E20FF31F97
:104FE000E259FF4F80812F5F3F4F2D933C930E94EA
:104FF000F80433C08D919C91870104591F4F01978C
:1050000079F5D701AB5BB74F2D913C911197F70123
:10501000E20FF31FE259FF4F80812F5F3F4F2D9327
:105020003C930E94060519C08D919C9187010459FB
:105030001F4F0197A9F4D701AB5BB74F2D913C915E
:105040001197F701E20FF31FE259FF4F80812F5FA5
:105050003F4F2D933C930E940105D8011C921DC126
:1050600086E0F801808319C18D919C91019709F028
:1050700056C0D701AB5BB74F8D919C911197F7014B
:10508000E80FF91FE259FF4F208101968D939C9301
:105090002EBD0DB407FEFDCF2EB52983D701A95B28
:1050A000B74F8D919C911197F701E80FF91FE259C5
:1050B000FF4F208301968D939C935ACB8D919C91A9
:1050C000892B69F526E630E0E20EF31ED7016D91DB
:1050D0007C91EAE9FFEFEE0EFF1E870120E030E051
:1050E000A701495B574F10C0F701E20FF31FDA0128
:1050F0008D919C91E80FF91FE259FF4FD80111964D
:105100008C9180832F5F3F4F0F5F1F4F261737070C
:1051100058F3FA0180819181860F971F27CB2CE6E7
:1051200030E0E20EF31E88C08D919C9187010459F6
:105130001F4F892B09F0AEC08091550E9091560EED
:10514000A091570EB091580E8B839C83AD83BE8384
:10515000DE011396A701495B574FFA012081318187
:10516000F701E20FF31FE259FF4F8B817FC08D9152
:105170009C91870104591F4F049709F08BC0D701F8
:10518000AB5BB74F2D913C91119722593F4FF701DF
:10519000E20FF31F60817181828193812A56304032
:1051A0002D933C930E949D0872C08D919C91870124
:1051B00004591F4F892B09F06DC00E9496088983FE
:1051C0009A83D701A95BB74F2D913C911197F701B5
:1051D000E20FF31FE259FF4F81938A8180832E5F94
:1051E0003F4F53C08D919C91029711F5D701AB5B56
:1051F000B74F8D919C91119782599F4FF701E80FFE
:10520000F91F0190F081E02D8C5690408D939C9376
:10521000CF010297870104591F4F069738F48E2F4C
:105220000E948D0880E00E944D0931C085E033C0A6
:10523000ECE6F0E0EE0EFF1E86E0D7018C939ECAEE
:105240008D919C91870104591F4F892B19F5D70126
:10525000A859BF4FA701495B574FFA0120813181FF
:10526000F701E20FF31FE259FF4F8C9181931196E2
:105270008C911197819312968C911297819313962A
:105280008C9180832C5F3F4FDA012D933C93F80182
:10529000108203C086E0D8018C93870104591F4F08
:1052A000C701F80160810E943C22D8018C910FB6A1
:1052B000F8947EBE0FBE6DBE6C960FB6F894DEBF3E
:1052C0000FBECDBFCF91DF911F910F91FF90EF9057
:1052D000DF90CF90BF90AF909F907F906F90089598
:1052E0008BE1ECE6FEE0DF01982F1D929A95E9F73D
:1052F0007B96DF011D928A95E9F708952F923F92E0
:105300004F925F926F927F928F929F92AF92BF92D5
:10531000CF92DF92EF92FF920F931F93DF93CF9381
:10532000CDB7DEB764970FB6F894DEBF0FBECDBF22
:105330002F83388749875A87EB86FC860D871E871F
:10534000D88ACF86BA8AA98A0E94764220E030E0C5
:105350004AE754E40E94A0409B01AC010E94254012
:105360005B016C0120E030E040E050E00E942D4203
:1053700088234CF0C601B50120E030E040E05FE357
:105380000E94254008C0C601B50120E030E040E0A1
:105390005FE30E9424400E9408410E943B4120E0BC
:1053A00030E040E05FE30E9476426B837C838D8334
:1053B0009E836B817C818D819E812F81388549857B
:1053C0005A850E94A0402B853C854D855E850E94B4
:1053D00076420E9489400E940D417A83698384C38A
:1053E00029813A81B90180E090E00E9439412B8106
:1053F0003C814D815E810E94A0402F813885498586
:105400005A850E9476423B014C01EF85F889608302
:105410007183828393832B853C854D855E850E94B5
:105420002D4218160CF45BC3C401B3012F813885DB
:1054300049855A850E94A0407B018C0160E070E0A4
:1054400080E090E4A80197010E94A0405B016C01FC
:1054500020E030E040E050E00E942D4288234CF0F4
:10546000C601B50120E030E040E05FE30E94254046
:1054700008C0C601B50120E030E040E05FE30E94D3
:1054800024400E9408410E943B41A80197010E94CC
:1054900076429B01AC0160E070E080E090E40E9405
:1054A000244020E030E040E050E00E942D421816F9
:1054B000A4F5C601B50120E030E040E050E00E94D4
:1054C0002D4288234CF0C601B50120E030E040E0D9
:1054D0005FE30E94254008C0C601B50120E030E02E
:1054E00040E05FE30E9424400E9408410E943B414B
:1054F000A80197010E9476429B01AC0160E070E038
:1055000080E090E40E9424402DEC3CEC4CEC5DE308
:105510000E949C4087FDE3C234C0C601B50120E073
:1055200030E040E050E00E942D4288234CF0C6015C
:10553000B50120E030E040E05FE30E94254008C074
:10554000C601B50120E030E040E05FE30E94244066
:105550000E9408410E943B41A80197010E947642A7
:105560009B01AC0160E070E080E090E40E94244088
:105570002DEC3CEC4CEC5DEB0E942D4218160CF42B
:10558000AEC26F81788589859A859B01AC010E94A6
:1055900025409B01AC01C401B3010E949C408823BB
:1055A0000CF079C16F81788589859A85A401930172
:1055B0000E94A0401B012C011C8A1B8A2B893C895C
:1055C000B90180E090E00E9439415B016C01C201A9
:1055D000B101A60195010E94244020E030E040E0A6
:1055E0005FE30E949C40181634F48B899C890196D5
:1055F0009C8B8B8BE3CFC601B501A40193010E9464
:1056000076429B01AC016F81788589859A850E94DD
:1056100024405B016C0120E030E040E050E00E945B
:105620002D42181624F0D7FAD094D7F8D094C4019C
:10563000B301A60195010E94A0403B014C0160E02E
:1056400070E080E090E4A40193010E94A0405B011F
:105650006C0120E030E040E050E00E942D428823C1
:105660004CF0C601B50120E030E040E05FE30E946D
:10567000254008C0C601B50120E030E040E05FE30E
:105680000E9424400E9408410E943B41A4019301D2
:105690000E9476429B01AC0160E070E080E090E403
:1056A0000E94244020E030E040E050E00E942D4283
:1056B0001816A4F5C601B50120E030E040E050E046
:1056C0000E942D4288234CF0C601B50120E030E055
:1056D00040E05FE30E94254008C0C601B50120E01C
:1056E00030E040E05FE30E9424400E9408410E94B5
:1056F0003B41A40193010E9476429B01AC0160E012
:1057000070E080E090E40E9424402DEC3CEC4CECF6
:105710005DE30E949C408823ACF5E1C1C601B50160
:1057200020E030E040E050E00E942D4288234CF021
:10573000C601B50120E030E040E05FE30E94254073
:1057400008C0C601B50120E030E040E05FE30E9400
:1057500024400E9408410E943B41A40193010E9401
:1057600076429B01AC0160E070E080E090E40E9432
:1057700024402DEC3CEC4CEC5DEB0E942D421816C5
:105780000CF4ADC1C801B70120E030E040E050E0CA
:105790000E942D4288234CF0C801B70120E030E080
:1057A00040E05FE30E94254008C0C801B70120E047
:1057B00030E040E05FE30E9424400E9408410E94E4
:1057C0003B419B01AC01C801B7010E94244020E08D
:1057D00030E040E050E00E942D42181674F5C801F8
:1057E000B70120E030E040E050E00E942D428823E5
:1057F0004CF0C801B70120E030E040E05FE30E94D8
:10580000254008C0C801B70120E030E040E05FE378
:105810000E9424400E9408410E943B419B01AC0130
:10582000C801B7010E94244027E137EB41ED58E35E
:105830000E949C4088237CF552C1C801B70120E03A
:1058400030E040E050E00E942D4288234CF0C80137
:10585000B70120E030E040E05FE30E94254008C04F
:10586000C801B70120E030E040E05FE30E9424403F
:105870000E9408410E943B419B01AC01C801B70155
:105880000E94244027E137EB41ED58EB0E942D4266
:1058900018160CF424C1C801B70120E030E040E242
:1058A00051E40E949C4088230CF089C0C801B701D4
:1058B00020E030E040E050E00E942D4288234CF090
:1058C000C801B70120E030E040E05FE30E942540DE
:1058D00008C0C801B70120E030E040E05FE30E946B
:1058E00024400E9408410E943B419B01AC01C80139
:1058F000B7010E94244020E030E040E050E00E94E8
:105900002D42181674F5C801B70120E030E040E0E0
:1059100050E00E942D4288234CF0C801B70120E0DE
:1059200030E040E05FE30E94254008C0C801B701B5
:1059300020E030E040E05FE30E9424400E94084104
:105940000E943B419B01AC01C801B7010E94244069
:1059500027E137EB41ED58E30E949C4088237CF51A
:10596000BEC0C801B70120E030E040E050E00E9436
:105970002D4288234CF0C801B70120E030E040E020
:105980005FE30E94254008C0C801B70120E030E075
:1059900040E05FE30E9424400E9408410E943B4196
:1059A0009B01AC01C801B7010E94244027E137EBFD
:1059B00041ED58EB0E942D4218160CF490C0C8011E
:1059C000B7012B813C814D815E810E9476425B0153
:1059D0006C0120E030E040E050E00E942D4288233E
:1059E0004CF0C601B50120E030E040E05FE30E94EA
:1059F000254008C0C601B50120E030E040E05FE38B
:105A00000E9424400E9408410E943B419B01AC013E
:105A1000C601B5010E94244020E030E040E050E0A3
:105A20000E942D42181674F5C601B50120E030E041
:105A300040E050E00E942D4288234CF0C601B501A1
:105A400020E030E040E05FE30E94254008C0C6014E
:105A5000B50120E030E040E05FE30E9424400E9476
:105A600008410E943B419B01AC01C601B5010E9467
:105A7000244027E137EB41ED58E30E949C40882306
:105A800074F543C0C601B50120E030E040E050E0CD
:105A90000E942D4288234CF0C601B50120E030E081
:105AA00040E05FE30E94254008C0C601B50120E048
:105AB00030E040E05FE30E9424400E9408410E94E1
:105AC0003B419B01AC01C601B5010E94244027E186
:105AD00037EB41ED58EB0E942D421816B4F0E981E6
