:100000000C94C8020C94F9020C94F9020C94F902B5
:100010000C94F9020C94F9020C94F9020C94F90274
:100020000C94F9020C94F9020C94F9020C94F90264
:100030000C94F9020C94F9020C94F9020C94F90254
:100040000C94F9020C94F9020C94F9020C94F90244
:100050000C94DF080C94F9020C94F9020C94C3225E
:100060000C94F9020C9480240C9470250C94F902E1
:100070000C94F9020C94F9020C94F9020C94F90214
:100080000C94F9020C94F9020C94F9020C94F90204
:100090000C94B4240C94AF250C94F9020C94BD0577
:1000A0000C94F9020C94F9020C94F9020C94F902E4
:1000B0000C94F9020C94F9020C94F9020C94F902D4
:1000C0000C94F9020C94F9020C94F9020C94E824B3
:1000D0000C94EE250C94F9020C941C250C942D26FE
:1000E0000C94F902CF10E6106011DC10DC1107123D
:1000F0001512321242126112711225133D13571359
:100100008113A013D7132B146414C014D014141526
:1001100030151616E715F515B515CD151616161664
:10012000161616161616161616161616161616166F
:10013000161616161616161616161616161616165F
:10014000161616161616161616161616161616164F
:10015000161616161616161616161616161616163F
:10016000161616161616161616161616161616162F
:10017000161616161616161616161616161616161F
:100180001616161616161616161616166015A61537
:10019000A71CD11CEE1C0B1D4E1D301D6C1D951D8A
:1001A000CF1DB21DC41CE71D301E0B1E4F1EF61EB8
:1001B0008F1E891F4C1FC71FDF1FF71F0F202F2007
:1001C0008A1D0C210F21022106214621132117210E
:1001D0001D21212125212B212F21332146213921A8
:1001E0003D2141212D22322237224122BA224B22A7
:1001F00053225B2265226F22792288229222BA2220
:100200009C22A622B02208000000BE922449123E81
:10021000ABAAAA2ABECDCCCC4C3E00000080BEAB1F
:10022000AAAAAA3E00000000BF000000803F000014
:10023000000000084178D3BB4387D1133D190E3C21
:10024000C3BD4282AD2B3E68EC8276BED98FE1A958
:100250003E4C80EFFFBE01C4FF7F3F000000000066
:1002600007634236B79BD8A71A39685618AEBAAB9F
:10027000558C1D3CB7CC5763BD6DEDFD753EF61733
:100280007231BF000000803F0000090A02080B0C19
:100290000D0706030401000000000000000000003C
:1002A000000000000000000000000000000000004E
:1002B0000000000011100F0000000000000000000E
:1002C000000000000000000000000000000001022B
:1002D0001020200808102040102040800201020158
:1002E0000804020101020408102040808040201010
:1002F0000804020180040201804020100804020169
:1003000008040201010204081020408001020408D0
:1003100010204080050505050705080808080202A9
:1003200002020A0A0808040404040101010101018F
:1003300001010303030303030303040707070C0C72
:100340000C0C0C0C0C0C0202020206060606060639
:1003500006060B0B0B0B0B0B0B0B000020002300F6
:10036000260029002C002F003200000100000301AC
:100370000601090100002200250028002B002E00A4
:100380003100340002010000050108010B010000EA
:100390002100240027002A002D0030003300010135
:1003A0000000040107010A010C94ED260C9446217B
:1003B0000C94B5150C9441210C94A6150C940221B3
:1003C0000C9429240C94D8180C94E7150C94301E26
:1003D0000C945D040C94B0090C940B1E0C944122F7
:1003E0000C94EE1C0C941E240C942D220C942121B0
:1003F0000C94E1230C94D0140C941D210C944B19F3
:100400000C9442120C949C220C940D040C94B21D7A
:100410000C9443190C94A6090C94A0090C94DB04C9
:100420000C948A1D0C9432220C942F210C943921A7
:100430000C9414150C94DC100C94F5150C941616F1
:100440000C9423280C9492220C94A3090C94B022AF
:100450000C9420040C94E71D0C949D090C940F211E
:100460000C94FB020C9447190C944B220C940C2115
:100470000C94A0130C943D210C9406210C94DF1FC6
:100480000C942F200C9425130C946F220C944F2560
:100490000C948F1E0C9430150C94B5180C945713B3
:1004A0000C94951D0C94A6220C9471120C94E610D9
:1004B0000C94F61E0C945B220C9413210C94611284
:1004C0000C944F1E0C9425210C94301D0C94D11CBF
:1004D0000C94F71F0C94FC230C940B1D0C946C1DB6
:1004E0000C94CF1D0C94CF100C9407120C94CD15C6
:1004F0000C94AC090C94E50D0C9433210C94601110
:100500000C94A3100C944E1D0C94CF230C946015E6
:100510000C9405040C942F040C94BA220C9433030D
:100520000C94891F0C94C0140C9432120C94A71CC8
:100530000C942B210C944C1F0C9437220C94C41C4B
:100540000C9430040C94C71F0C9453220C94AF09E4
:100550000C943D130C9479220C9464140C94A90906
:100560000C9417210C94D7130C940F200C94882210
:100570000C9465220C9415120C94DC110C942B1421
:100580000C942F030C9481132F03DB04ED2633030B
:1005900011241FBECFEFD1E2DEBFCDBF00E00CBF04
:1005A00015E0A0E0B2E0E2E3FEE500E00BBF02C030
:1005B00007900D92AE34B107D9F714E1AEE4B5E07F
:1005C00001C01D92A33FB107E1F715E0CEE8D5E0E9
:1005D00000E006C022970109FE010BBF0E94ED2E2C
:1005E000C838D10780E00807A9F70E94BF030C9420
:1005F000072F0C940000809106029091070201964B
:10060000909307028093060208958EE495E00E947D
:10061000E120809106029091070269E170E00E945A
:10062000B12E892BD9F480912011882389F08091F3
:10063000211181110BC0E0914E05F0914F05068804
:10064000F789E02D8EE495E0199502C010922111F2
:1006500081E090E0909307028093060208958EE473
:1006600095E00C94000A8EE495E00C94110A40E4A5
:100670005BE46CE470E088E392E10E9472092FEF82
:100680003FEFA9016BEF72E088E392E10E948209DB
:100690008EE495E00E94E50D69E072E08DEA92E15A
:1006A0000E9461286FEF71E2605072404AE050E0B2
:1006B0008DEA92E10E943B296EE072E08DEA92E1C0
:1006C0000E9461286EE475E0605072404AE050E09C
:1006D0008DEA92E10E943B2965E172E08DEA92E1A8
:1006E0000E94612863EF74E16E5475404AE050E067
:1006F0008DEA92E10E943B296BE172E08DEA92E182
:100700000E9461286091EF147091F01461157105D9
:1007100019F0635F744102C060E070E04AE050E0AD
:100720008DEA92E10E943B2961E272E08DEA92E15A
:100730000E9461288DB79EB76FEF71E2681B790B3D
:100740004AE050E08DEA92E10E943B2968E272E0C3
:100750008DEA92E10E9461288091EF149091F0144B
:100760006DB77EB7009719F4635F744102C0681BD0
:10077000790B4AE050E08DEA92E10C943B290E940B
:100780006D230E943703CFE4D5E20E940503209732
:10079000E1F30E944F25F9CFCB010C94F12ECB0150
:1007A000642F0C94F92E61E085E30E94802161E0C2
:1007B00085E30E9447218CB580618CBD8CB5806437
:1007C0008CBD61E084E30E94472161E083E30C94E7
:1007D0004721811103C08CB5806202C08CB58F7D2A
:1007E0008CBD08959CB5937F982B9CBD08952CB526
:1007F000982F93702C7F922B9CBD9DB582FB8827F0
:1008000080F99E7F982B9DBD08958091A81190E05E
:100810002091A911821B910908952091A91180911D
:10082000A811281750F4E22FF0E0E655FE4E808123
:1008300090E02F5F2093A91108958FEF9FEF089507
:10084000E091A9118091A811E81730F4F0E0E65585
:10085000FE4E808190E008958FEF9FEF08950895F8
:10086000CF92DF92EF92FF920F931F93CF93DF937C
:100870007C01CB018A0120918411222389F0EB01B4
:100880006B01C40ED51ECC15DD0569F06991D70149
:10089000ED91FC910190F081E02DC7011995F3CF06
:1008A000642F0E949405C801DF91CF911F910F9191
:1008B000FF90EF90DF90CF900895CF93DF931F923A
:1008C000CDB7DEB76983209184112223D1F0209126
:1008D0008511203240F021E030E0FC013383228397
:1008E00080E090E015C080918611E82FF0E0E95794
:1008F000FE4E998190838F5F80938611809385113E
:1009000005C061E0CE0101960E94940581E090E06F
:100910000F90DF91CF910895FC011382128248EE6F
:1009200053E060E070E0448355836683778389E316
:1009300092E09183808308951092A9111092A811DA
:1009400010928611109285110C94DF04862F41328B
:1009500008F040E26AEA71E10E94FD041092A911D8
:100960008093A811089521E00C94A60421E00C9432
:10097000A60481E0809384116093A71110928611E0
:100980001092851108950C94B9040F93062F21E05D
:100990004091851167E871E18091A7110E9441059E
:1009A0001092861110928511109284110F91089562
:1009B00061E00C94C50488E791E10C948C041092DA
:1009C000371281E0809335121092341261E084E195
:1009D0000E94802161E085E10E948021E9EBF0E046
:1009E00080818E7F808380818D7F808388E4809367
:1009F000B80085E48093BC000895413208F03FC000
:100A0000909137129111FCCF91E09093371220937F
:100A100035122FEF2093CA1110920F12240F20933A
:100A20000E129093361290913612880F892B809374
:100A3000361280913412813041F410923412809138
:100A400036128093BB0085EC01C085EE8093BC001C
:100A5000809137128130E1F380910F12841710F4E6
:100A600040910F1220E132E1FB01D9018A2F821B54
:100A7000841718F48D918193F9CF842F089580E025
:100A800008950F93413208F046C0909137129111AA
:100A9000FCCF92E090933712009335129FEF909322
:100AA000CA1110920F1240930E12FB0160E172E125
:100AB000DB019A2F961B941718F491919D93F9CF0F
:100AC0001092361290913612880F892B809336122D
:100AD00080913412813041F4109234128091361298
:100AE0008093BB0085EC01C085EE8093BC0022237F
:100AF00021F0809137128230E1F38091CA118F3F4B
:100B000061F08091CA11803251F08091CA11803316
:100B100041F483E007C081E005C080E003C082E0CB
:100B200001C084E00F910895613298F4209137124A
:100B3000243089F46093EC11FC018EEE91E1DC012C
:100B40002A2F281B261718F421912D93F9CF80E026
:100B5000089581E0089582E0089585ED8093BC00BA
:100B60008091BC0084FDFCCF10923712089585EC73
:100B70008093BC001092371208951F920F920FB607
:100B80000F9211240BB60F922F933F934F935F93C5
:100B90006F937F938F939F93AF93BF93EF93FF9345
:100BA0008091B900887F803609F49CC068F588324E
:100BB00009F45BC090F4803109F454C038F4882300
:100BC00009F4F5C0883009F44DC0F5C0883109F446
:100BD0004CC0803209F45DC0EEC0803409F468C0B6
:100BE00048F4803309F455C0883309F0E4C0809399
:100BF000CA11A8C0803509F44FC0883509F45DC01A
:100C0000883409F0D8C0D5C0883909F4C6C0A8F422
:100C1000883709F467C038F4883609F463C0803730
:100C200009F460C0C8C0883809F4B7C0803909F435
:100C30005FC0803809F0BFC05BC0803B09F485C04D
:100C400038F4803A09F466C0883A09F47EC0B3C02B
:100C5000803C09F4A6C0883C09F4A3C0883B09F491
:100C600089C0A9C08091361210C090910F12809156
:100C70000E12981770F5E0910F1281E08E0F80939D
:100C80000F12F0E0E05FFD4E80818093BB0085ECA9
:100C900085C08093CA118DC0E0910F1281E08E0F44
:100CA00080930F128091BB00F0E0E05FFD4E8083E7
:100CB00090910F1280910E126DC0E0910F1281E0A1
:100CC0008E0F80930F128091BB00F0E0E05FFD4E2D
:100CD00080838091351281116CC081E08093341241
:100CE00084EA60C083E0809337121092CB11CFCF9B
:100CF0008091CB11803208F050C0E091CB1181E09F
:100D00008E0F8093CB118091BB00F0E0E453FE4E38
:100D10008083BDCF8091CB11803230F4E091CB1134
:100D2000F0E0E453FE4E10820E94AD056091CB11BD
:100D300070E0E0913012F09131128CEC91E1199554
:100D40001092CB110E94B70536C084E08093371211
:100D50001092ED111092EC11E0913212F0913312D9
:100D600019958091EC11811105C081E08093EC11FF
:100D70001092EE11E091ED1181E08E0F8093ED1154
:100D8000F0E0E251FE4E80818093BB009091ED1126
:100D90008091EC11981708F47ACF85E88093BC0015
:100DA0000AC085EC8093BC001092371204C01092E8
:100DB000CA110E94AD05FF91EF91BF91AF919F9134
:100DC0008F917F916F915F914F913F912F910F90F4
:100DD0000BBE0F900FBE0F901F901895FF920F93B0
:100DE0001F93CF93DF93FC010081C181D281F894DE
:100DF0008981F02EF0948F21898378941DE711501A
:100E000029F182E090E00E94622388818023B9F377
:100E1000F8948A818F218A838981802B89837894B1
:100E200080EE91E00E946223F89489818F2189836A
:100E300086E490E00E9462238881802311E009F01B
:100E400010E078948AE991E00E946223812FDF917B
:100E5000CF911F910F91FF9008951F93CF93DF9330
:100E6000FC011081C181D281912F909560FF12C049
:100E7000F8948A8189238A838981812B89838AE0F6
:100E800090E00E9462238A81812B8A83789487E391
:100E900090E011C0F8948A8189238A838981812B0B
:100EA000898381E490E00E9462238A81812B8A8376
:100EB000789485E090E0DF91CF911F910C946223AC
:100EC0000F931F93CF93DF93FC011081C181D281D7
:100ED000F8948981812B89838A81012F0095802351
:100EE0008A8383E090E00E94622389818023898342
:100EF0008AE090E00E946223C881789485E390E0C4
:100F00000E9462231C2381E009F480E0DF91CF91ED
:100F10001F910F910895CF92DF92EF92FF920F935E
:100F20001F93CF93DF931F92CDB7DEB76C01E62EF0
:100F300008E010E0FF24F39461E09F2D9E2109F466
:100F400060E0C60149830E942D07FF0C0150110982
:100F500049810115110581F7411115C0F894D60199
:100F60001196ED91FC91129791818C918095892336
:100F700081831196ED91FC91129792818C918095CD
:100F80008923828378940F90DF91CF911F910F91E5
:100F9000FF90EF90DF90CF900895EF92FF920F9324
:100FA0001F93CF93DF938C01C8E0D0E0F12CEE24A7
:100FB000E394C8010E9460078111FE28EE0C21977E
:100FC0002097B9F78F2DDF91CF911F910F91FF904F
:100FD000EF900895CF92DF92FF920F931F93CF93DC
:100FE000DF931F92CDB7DEB78C01F62E40E065E5AA
:100FF00079830E948B07CF2C7981D72E88E0F82E39
:10100000F60161916F0140E0C8010E948B07FA94DC
:10101000B9F70F90DF91CF911F910F91FF90DF9063
:10102000CF900895FC0113861586148627E030E0E2
:10103000DF01A20FB31F13961C922115310519F081
:1010400021503109F5CF08951F93CF93DF93EC0121
:10105000162F60E0812F0E944721612F70E0FB0175
:10106000E253FD4FE491E883FB01EC5EFC4FE49119
:10107000F0E0EE0FFF1FE65AFC4F859194919A83A2
:101080008983CE01DF91CF911F910C941208AF920A
:10109000BF92CF92DF92EF92FF920F931F93CF9365
:1010A000DF931F92CDB7DEB75C01E62ED72EFC0191
:1010B000858581115DC0C5010E94EE06811105C0C4
:1010C000F5011386158614866EC040E060EFC501F9
:1010D0000E948B0701E0F12CC12C11E0C5010E9498
:1010E0006007682FC50169830E94600769816130CC
:1010F00019F48130B9F433C02F2D30E068131BC0D0
:10110000F5018385181730F4E20FF31F83818023E4
:1011100049F402C0181731F060E0193058F4F501B5
:10112000148708C0F501EF0DF11D8381802B8383A7
:1011300061E009C0C12EF501E20FF31F8381902FFA
:10114000909589238383C5010E942D071F5F000F9F
:1011500011F4F39401E0F7E0FF1508F0BFCF11346C
:1011600038F0F501C386C11018C081E0858715C02D
:10117000F50113861586148680E0EE2DFD2D20E006
:1011800030E0D501A20FB31F13969C9191932F5F6E
:101190003F4F28303105A9F706C0F5018381882328
:1011A00039F381E0EACF0F90DF91CF911F910F913A
:1011B000FF90EF90DF90CF90BF90AF9008951F9277
:1011C0000F920FB60F9211240BB60F922F933F93ED
:1011D0004F935F936F937F938F939F93AF93BF933F
:1011E000EF93FF93E0913C12F0913D121995FF911E
:1011F000EF91BF91AF919F918F917F916F915F918F
:101200004F913F912F910F900BBE0F900FBE0F90FB
:101210001F901895FC01A3E0440F551F661F771F10
:10122000AA95D1F74115510581E06807710514F4BD
:1012300081E00EC033E075956795579547953A95CF
:10124000D1F74115510581E0680771051CF482E072
:10125000828331C023E075956795579547952A9508
:10126000D1F74115510581E06807710514F483E059
:10127000EFCF92E075956795579547959A95D1F779
:101280004115510581E06807710514F484E0E0CF51
:1012900082E075956795579547958A95D1F785E0D2
:1012A00082834115510581E06807710524F04FEFF5
:1012B0005FEF60E070E08FB78383F89451834083E1
:1012C000509387004093860083818FBF8091810077
:1012D000887F80938100809181009281892B809307
:1012E000810008951092800020E1209381000C94E9
:1012F0000A09E1E8F0E02081DC0112968C91282BAC
:10130000208308950F931F93CF93DF93EC018B01FC
:10131000BA01A901141615061606170614F40E9440
:101320000A091D830C8381E080936F00CE01DF9159
:10133000CF911F910F910C94790981EC94E008955D
:101340008DEB94E0089586EA94E008958CE894E0AB
:10135000089580E894E008958DE494E00895089558
:1013600085E492E00895DC01ED91FC910190F0811B
:10137000E02D1994CF92DF92EF92FF92CF936B0101
:101380007C010E94A42C0E94D82B0E946A2BC62F9D
:10139000772767FD7095872F972F0E949D2B9B01C4
:1013A000AC0160E070E080E291E40E94522D9B016C
:1013B000AC01C701B6010E94022BAB01BC0122E0C7
:1013C00030E08DEA92E10E94852A69E472E08DEABC
:1013D00092E10E9461286C2F772767FD70954AE0A3
:1013E00050E08DEA92E1CF91FF90EF90DF90CF90A7
:1013F0000C9433290E94BA098DEA92E10C946A2870
:10140000CF93DF93EC0161E00E944C1985E394E0F7
:1014100099838883CE52D44F18821982DF91CF915D
:10142000089525E334E0FC01318320830C94CE1928
:101430001F93CF93DF931F921F92CDB7DEB7162F66
:1014400060E0812F2A8349830E94802149814EBD1B
:101450002A810DB407FEFDCF8EB52EBD0DB407FE5B
:10146000FDCF8EB561E0812F0F900F90DF91CF916E
:101470001F910C948021643040F4242F2095462F36
:1014800065E30E94180A80E0089585E0089520E849
:1014900030E0062E02C0359527950A94E2F72031F8
:1014A0003105A1F1A4F42430310509F441C02830FC
:1014B0003105A9F12230310509F04AC020917A00A6
:1014C000216020937A0020917A00297F39C020344E
:1014D000310599F02038310561F020323105C1F530
:1014E00020917A00256020937A0020917A002D7F48
:1014F00027C020917A00276023C020917A002660BF
:1015000020937A0020917A002E7F1AC020917A00D1
:10151000246020937A0020917A002C7F11C02091C2
:101520007A00236020937A0020917A002B7F08C0F4
:1015300020917A00226020937A0020917A002A7FFD
:1015400020937A00FC01EA52F44F608380E0089512
:1015500081E008951F93CF93DF93EC01142F611165
:101560000DC0442321F04130A1F560E001C061E0ED
:101570008DE00E948021C952D44F2DC0613049F5C1
:10158000413049F030F0423061F0433011F560E015
:1015900012C061E010C060E08CE00E94802161E038
:1015A0000EC060E08CE00E94802160E08BE00E9431
:1015B000802161E008C08CE00E94802160E08BE027
:1015C0000E94802160E08AE00E948021C852D44FAE
:1015D00002C0C5E002C01883C0E088EC90E00E9421
:1015E00062238C2FDF91CF911F910895AF92BF920C
:1015F000CF92DF92EF92FF920F931F93CF93DF93DF
:101600001F921F92CDB7DEB78C01D12C7C018BE3EA
:10161000E81A84EFF80A5801E2E1AE1AE4EFBE0AD4
:101620002D2D30E0F801EC52F44F8081918168E279
:1016300070E00E94B12E26173707E0F588E0C82E2B
:10164000C982F7012081318180E090E040E0B8015B
:10165000620F731FE42FF0E0DB01A80FB91FA25146
:10166000BC4F41E050E0AC91AA2311F040E050E0C3
:10167000082E02C0440F551F0A94E2F74E0F5F1F59
:1016800001968830910531F74A83285F3F4FF70173
:1016900031832083F50160816D0D22E0AE014F5F43
:1016A0005F4FC8010E94B320C394FDE0CF12C8CFA2
:1016B000D394B6CF0F900F90DF91CF911F910F91E0
:1016C000FF90EF90DF90CF90BF90AF9008958F92F2
:1016D0009F92AF92BF92CF92DF92EF92FF92CF9301
:1016E000DF93EC016A017B01FC01EE51F44F808035
:1016F0009180A280B38020E030E0A901C701B6014B
:101700000E94FE2A87FD38C0A5019401C701B601D9
:101710000E94022B9B01AC010E949A2A23EF34E025
:1017200045EB5FE30E94EF2C20E030E040E85EE311
:101730000E94EF2C20E030E04FE753E40E94EF2CB2
:101740004B015C0120E030E04FE753E40E94A02C05
:10175000181694F0FE01E652F44FC082D182E28264
:10176000F382C501B4010E946F2B462F63E0CE01C6
:101770000E943B0A80E001C088E0DF91CF91FF909A
:10178000EF90DF90CF90BF90AF909F908F90089593
:101790005F926F927F928F929F92AF92BF92CF9201
:1017A000DF92EF92FF920F931F93CF93DF931F92DD
:1017B0001F92CDB7DEB76C01CB01542E68E270E00A
:1017C0000E94B12E7B014C015C0193E0B694A7947A
:1017D0009A95E1F73B01772486010251144FF801F5
:1017E0008081B301680F711D88E791E10E94C304F5
:1017F000B501685F7F4F88E791E10E94B30988E7F0
:1018000091E10E94D804F8018081B301680F711D35
:1018100041E050E088E791E10E94B60488E791E159
:101820000E940504892B41F1F82DF7708F2E88E076
:101830008A0D898388E791E10E940D0441E050E020
:1018400060E070E004C0440F551F661F771F8A9444
:10185000D2F7511002C0482B02C0409548234A835A
:10186000F80160816E0D22E0AE014F5F5F4FC6014F
:101870000E94B32080E001C081E00F900F90DF91C3
:10188000CF911F910F91FF90EF90DF90CF90BF907D
:10189000AF909F908F907F906F905F900895EF92A0
:1018A000FF920F931F93CF93DF938C017C0189E10B
:1018B000E81A84EFF80AC4E6D0E0F70141917F010D
:1018C000BE01C8010E9447192196C63AD105A9F761
:1018D00060E0C801DF91CF911F910F91FF90EF90D1
:1018E0000C94720C9F92AF92BF92CF92DF92EF92C4
:1018F000FF920F931F93CF93DF93EC01962E7C0101
:1019000029E1E21A24EFF20A04E610E05701E88127
:10191000F9810088F189E02DB801CE011995F70110
:1019200081937F010F5F1F4F063A110581F7F50183
:10193000808191819E012751344F6901FE01E5515B
:10194000F44F7F018E010F5D134F892BF1F4F901E4
:1019500080819181892BC9F4F70180819181892B44
:10196000A1F4FE01EE51F44F80819181A281B381F7
:10197000F80180839183A283B38381E090E0F70133
:1019800091838083CE010E944F0CF501808191816B
:10199000892BB9F4F60180819181892B91F4F701AB
:1019A00080819181019769F480E2FE01E251F44F58
:1019B000808382E090E0F70191838083CE010E94D2
:1019C0004F0CF50180819181892BE9F4F60180812A
:1019D0009181892BC1F4F70180819181029799F45B
:1019E00080E090E0A0EAB0E4FE01EB5DF34F80837D
:1019F0009183A283B38383E090E0F7019183808396
:101A0000CE010E944F0CF50180819181892B69F4F0
:101A1000F60180819181892B41F4F70180819181C8
:101A2000039719F4992009F4A9C0F50111821082D5
:101A3000F6011182108283E090E0F70191838083A8
:101A40008FEFFE01E351F44F80838CE7FE01E051FC
:101A5000F44F808380E7FE01E151F44F808380E002
:101A60009CE7A2E9B8E4FE01EF50F44F8083918334
:101A7000A283B38380E092E2A1EAB8E4FE01EB50D6
:101A8000F44F80839183A283B38380E090E0AAE740
:101A9000B4E4FE01EF5FF34F80839183A283B383AD
:101AA00080E090E4ACE1B6E4FE01EB5FF34F8083AD
:101AB0009183A283B38380E090E5A3ECB7E4FE01B9
:101AC000E75FF34F80839183A283B38380E094E246
:101AD000A4E7B9E4FE01E35FF34F80839183A2831F
:101AE000B383FE01E750F44F1082118212821382F9
:101AF000FE01E350F44F10821182128213824FEFE5
:101B000056EE6BE57EE2FE01EF5EF34F40835183BC
:101B100062837383FE01EB5EF34F408351836283E4
:101B20007383FE01E75EF34F4083518362837383C7
:101B3000FE01E35EF34F4083518362837383FE01B2
:101B4000EE51F44F80819181A281B381F8018083AD
:101B50009183A283B38380E2FE01E251F44F80833C
:101B600080E090E0A0EAB0E4FE01EB5DF34F8083FB
:101B70009183A283B383CE010E944F0CF801C080F1
:101B8000D180E280F38020E030E0A901C701B601F6
:101B90000E94FE2AFE01EA51F44F18161CF081E063
:101BA000808307C0CE51D44FC882D982EA82FB829B
:101BB0001082DF91CF911F910F91FF90EF90DF90F6
:101BC000CF90BF90AF909F9008952F923F924F92E9
:101BD0005F926F927F928F929F92AF92BF92CF92BD
:101BE000DF92EF92FF920F931F93CF93DF9300D07A
:101BF00000D0CDB7DEB78C010E94D81880E00E94DB
:101C0000DF2161E085E30E94472161E08DE00E94D1
:101C1000472161E08CE00E94472161E08BE00E9457
:101C2000472161E08AE00E94472161E089E00E944B
:101C30004721D801ED91FC910680F781E02DC80184
:101C40001995BC018DEA92E10E9461286BE472E073
:101C50008DEA92E10E946128D801ED91FC91048403
:101C6000F585E02DC8011995BC018DEA92E10E942D
:101C70007E286EE472E08DEA92E10E946128D8012C
:101C8000ED91FC910284F385E02DC8011995BC010A
:101C90008DEA92E10E947E28C8010E94041B60E048
:101CA00089E00E948021F801EE51F44F80E090E03D
:101CB000A8ECB2E480839183A283B38360E0C8017F
:101CC0000E94720C61E672E08DEA92E10E94612846
:101CD000F801E951F44F608171814AE050E08DEAEA
:101CE00092E10E947E296FE274E08DEA92E10E9407
:101CF0006128F801E751F44F608171814AE050E0BA
:101D00008DEA92E10E947E296FE274E08DEA92E111
:101D10000E946128F801E551F44F608171814AE029
:101D200050E08DEA92E10E94842968E772E08DEA32
:101D300092E10E946128F801E351F44FFC83EB83A8
:101D40004AE050E060818DEA92E10E9467296EE7E7
:101D500072E08DEA92E10E946128C8018151944F9E
:101D60009E838D834AE050E0DC016C918DEA92E124
:101D70000E9467296EE872E08DEA92E10E94612874
:101D80002801B0E14B1AB4EF5B0A4AE050E0F201DF
:101D900060818DEA92E10E94672964E972E08DEA30
:101DA00092E10E946128F801EF50F44F4081518187
:101DB0006281738122E030E08DEA92E10E94872AFD
:101DC0006DEA72E08DEA92E10E946128F801EB5021
:101DD000F44F408151816281738122E030E08DEACD
:101DE00092E10E94872A66EC72E08DEA92E10E94FD
:101DF0006128F801E750F44F6081718182819381FD
:101E00000E94FA0960EE72E08DEA92E10E94612878
:101E1000F801E350F44F60817181828193810E94C7
:101E2000FA096AEF72E08DEA92E10E946128F801F6
:101E3000EF5FF34F408151816281738122E030E096
:101E40008DEA92E10E94872A63E173E08DEA92E1D4
:101E50000E946128F801EB5FF34F4081518162815C
:101E6000738122E030E08DEA92E10E94872A6CE2E1
:101E700073E08DEA92E10E946128F801E75FF34F79
:101E8000408151816281738122E030E08DEA92E1EC
:101E90000E94872A65E473E08DEA92E10E9461283E
:101EA000F801E35FF34F408151816281738122E049
:101EB00030E08DEA92E10E94872A6EE573E08DEAB8
:101EC00092E10E946128F801EF5EF34F6081718119
:101ED000828193810E94FA0968E773E08DEA92E1BA
:101EE0000E946128F801EB5EF34F6081718182816D
:101EF00093810E94FA0962E973E08DEA92E10E94FF
:101F00006128F801E75EF34F6081718182819381DE
:101F10000E94FA096CEA73E08DEA92E10E9461285E
:101F2000F801E35EF34F60817181828193810E94A9
:101F3000FA0966EC73E08DEA92E10E94612868017B
:101F4000F2E1CF1AF4EFDF0A4AE050E0D6016C91DB
:101F50008DEA92E10E94672963EE73E08DEA92E1D7
:101F60000E946128F801EF5DF34F40815181628149
:101F7000738122E030E08DEA92E10E94872A63EFCC
:101F800073E08DEA92E10E946128F801EB5DF34F66
:101F9000408151816281738122E030E08DEA92E1DB
:101FA0000E94872A4801BCE28B1AB4EF9B0AF40115
:101FB0001182108238E2A32EB12CE12CF12C3601D3
:101FC0003E2CF8E1F9838FEF8A83D6016C916E0D78
:101FD00022E0AE014F5F5F4FC8010E94B320F601BF
:101FE00060816E0D21E0AE014F5F5F4FC8010E941E
:101FF000591C89818F3F09F04CC028E1222E29828B
:102000001A82D3016C91630D22E0AE014F5F5F4FE6
:10201000C8010E94B320F3016081630D21E0AE018D
:102020004F5F5F4FC8010E94591C8981811131C0E7
:1020300080EF820D8983FFEFFA83D3016C91630DEA
:1020400022E0AE014F5F5F4FC8010E94B32023948E
:10205000BDE12B12D4CF6BE174E08DEA92E10E94D6
:1020600061284AE050E0B7018DEA92E10E943329ED
:1020700065E274E08DEA92E10E947E28D4012D9100
:102080003C91C50188972817390719F4F401B182EA
:10209000A082FFEFEF1AFF0A88E2A80EB11C98E0B9
:1020A000E916F10409F08CCFD4016D917C914AE0DE
:1020B00050E08DEA92E10E947E2966E074E08DEAAC
:1020C00092E10E947E28EB81FC81408160E0C801A2
:1020D0000E943B0AD2014C9161E0C8010E943B0A78
:1020E000ED81FE81408162E0C8010E943B0A40E030
:1020F00063E0C8010E943B0A40E060E0C8010E9422
:10210000AA0A40E061E0C8010E94AA0A64E0C8018E
:102110000E94470A26960FB6F894DEBF0FBECDBFC9
:10212000DF91CF911F910F91FF90EF90DF90CF90B3
:10213000BF90AF909F908F907F906F905F904F90E7
:102140003F902F9008952F923F924F925F926F92FF
:102150007F928F929F92AF92BF92CF92DF92EF9237
:10216000FF920F931F93CF93DF93CDB7DEB7A19765
:102170000FB6F894DEBF0FBECDBF1C016D8B862F4E
:1021800090E0FC01E05AF109E635F10508F04EC592
:10219000EE58FF4F810104511C4F0C94E72EF101C2
:1021A000E054F44F80819181892B71F442E050E03A
:1021B000B1016C52744F5DC2F101E054F44F808163
:1021C0009181029709F48EC086E02BC4F101E0549E
:1021D000F44F80819181892BB9F7D8011C92512C41
:1021E00091012C52344F38872F83410132E1831AF9
:1021F00034EF930A44244394A52CB12CEF81F88545
:102200008081918168E270E00E94B12EA616B70627
:1022100008F00CC588E0E82EF12CD4018C91B501B2
:10222000680F711D88E791E10E94C304B70188E738
:1022300091E10E94B30988E791E10E94D804F4017A
:102240008081B501680F711D41E050E088E791E1A0
:102250000E94B60488E791E10E940504892B61F190
:1022600088E791E10E940D043C01C12CD12C772418
:10227000C3010C2C02C0959587950A94E2F78170F2
:102280009927F1E08F27898341E050E0BE016F5F1D
:102290007F4FC1010E94D4192FEFC21AD20A38E031
:1022A000C316D10429F74FEFE41AF40A5DE0E516EE
:1022B000F10409F0B2CF02C0D8014C9253949CCFE4
:1022C000F101E054F44F20813181F101EC52F44FDF
:1022D000808191812817390709F076CFC1010E94CA
:1022E000F60A9BC3D101AB53B44F2D913C9111978A
:1022F000F901E251FC4FE20DF31D808191812E5FC7
:102300003F4F2D933C93F101EC52F44F20813181EA
:102310008217930708F0F3C168E270E00E94B12EC3
:102320007C015B01BB246101F2E1CF1AF4EFDF0A0B
:10233000D6018C91B501680F711D88E791E10E946B
:10234000C304B701B3E076956795BA95E1F7685F86
:102350007F4F88E791E10E94B30988E791E10E94ED
:10236000D804F6018081B501680F711D41E050E08D
:1023700088E791E10E94B60488E791E10E94050494
:10238000892BC1F088E791E10E940D049C0133275D
:102390008E2D877002C0359527958A95E2F72170BA
:1023A0003327F1E02F27298341E050E0BE016F5F22
:1023B0007F4F5FC181E035C3F101E054F44F80816C
:1023C0009181039709F000CFD101AB53B44F8D91A8
:1023D0009C911197FC01E251FC4FE20DF31D6081CD
:1023E0007181F101E80FF91FE051FC4F4081039624
:1023F0008D939C93F101EC52F44F80819181681789
:10240000790708F07CC1C1010E94C80BABC6F1017D
:10241000E054F44F80819181892B09F0D5CED80109
:102420001C9289E00E94B621AEC3F101E054F44F42
:1024300080819181019709F0C7CEF101EB53F44FF0
:1024400080819181D101A80FB91FA251BC4F6C911D
:10245000019691838083623008F07FC089E00E94FA
:102460008021E2C3F101E054F44F80819181892BF6
:1024700009F0AACEF801108244E050E0B1016652A2
:10248000744F87C3F101E054F44F80819181049728
:1024900009F09ACED101AB53B44F8D919C91119715
:1024A000FC01E251FC4FE20DF31D4081518162813C
:1024B000738104968D939C9321E0C1010E94670B68
:1024C00051C6F101E054F44F80819181892B09F0CC
:1024D0007BCEF801108244E050E0B1016252744FAB
:1024E00058C3F101E054F44F80819181049709F0C1
:1024F0006BCED101AB53B44F2D913C911197F901A3
:10250000E251FC4FE20DF31D608171818281938164
:102510002C5F3F4F2D933C93F101E252F44F6083C7
:1025200071838283938320E030E048E452E40E9488
:10253000EF2C6B017C0120E030E04AE754E40E947C
:10254000FE2A87FD0AC020E233EB41E85CE4C701C4
:10255000B6010E94A02C181614F488E003C620E0EF
:1025600030EE41E854E4C701B6010E94022B0E94FC
:10257000AF2C26EA3BE944E550E40E94EF2C2EE81C
:102580003DE543E150E40E94022B0E946F2BB62EE2
:1025900070E0665F7F4F882777FD8095982F0E94B7
:1025A0009D2B9B01AC0160E070E080E090E40E9414
:1025B000522D20E030EE41E055E40E94EF2CA701BF
:1025C00096010E94022B9B01AC0160E070E080E06C
:1025D00095E40E94992A6B017C0120E030E0A9017A
:1025E0000E94A02C20E030E040E05FE387FD05C0C2
:1025F000C701B6010E949A2A04C0C701B6010E9411
:10260000992A0E946A2B7B01CB01F6E0969587956B
:10261000FA95E1F7B294A0EFBA22B82A67E188E709
:1026200091E10E94B9046B2D88E791E10E945D045D
:102630006E2D660F660F626088E791E10E945D046F
:1026400088E791E10E94D804EFC2F101E054F44F11
:1026500080819181892B09F0B7CDF101EA52F44FC5
:102660006081F4E06F9FB00111246A527B4F44E017
:1026700050E0C1010E94D419D0C1F101E054F44FDF
:1026800080819181019709F09FCDF101EB53F44FC7
:1026900080819181D101A80FB91FA251BC4F6C91CB
:1026A000019691838083C1010E94470ABAC1F1015A
:1026B000E054F44F80819181019709F085CDF101BB
:1026C000EB53F44F80819181D101A80FB91FA25122
:1026D000BC4F2C91019691838083D8011C922223B8
:1026E00041F0213061F441E050E0B1016852744F93
:1026F00050C241E050E0B1016952744F4AC285E0D6
:1027000090C1F101E054F44F80819181029709F06A
:102710005BCDF101EB53F44F808191819101280F42
:10272000391FD901A251BC4F6C91D901A151BC4FA5
:102730004C91029691838083C1010E94AA0A12C51E
:10274000F101E054F44F80819181019709F03CCD73
:10275000F101EB53F44F80819181D101A80FB91F92
:10276000A251BC4F2C91019691838083F801108275
:10277000222381F0213009F001C1F101E852F44F28
:102780008081B10124E0829F600D711D11246F5F73
:10279000734F97C0F101E952F44F8081B101F4E029
:1027A0008F9F600D711D11246F50744F8AC0F1010D
:1027B000E054F44F80819181059709F005CDF10136
:1027C000EB53F44F20813181D101A20FB31FA251ED
:1027D000BC4F4C91C901019691838083D8011C9212
:1027E0004423F1F0413009F0C9C0D101A852B44FDF
:1027F0004C91D901A151BC4FA20DB31D8D919D915A
:102800000D90BC91A02D2B5F3F4F31832083F101B0
:1028100034E0439FE00DF11D1124EF5FF34FA6C09C
:10282000D101A952B44F4C91D901A151BC4FA20D75
:10283000B31D8D919D910D90BC91A02D2B5F3F4FAD
:1028400031832083F10124E0429FE00DF11D11242A
:10285000EF50F44F8BC0F101E054F44F808191812F
:10286000019709F0B1CCF101EB53F44F80819181D4
:10287000D101A80FB91FA251BC4F2C910196918391
:102880008083F8011082222381F0213009F076C084
:10289000F101E852F44F8081B10124E0829F600D84
:1028A000711D11246F5E734F0CC0F101E952F44F9A
:1028B0008081B101F4E08F9F600D711D112467507C
:1028C000744F44E050E065C1F101E054F44F808161
:1028D0009181059709F078CCF101EB53F44F2081F9
:1028E0003181D101A20FB31FA251BC4F4C91C9013C
:1028F000019691838083D8011C924423E9F04130F2
:10290000E9F5D101A852B44F4C91D901A151BC4F66
:10291000A20DB31D8D919D910D90BC91A02D2B5FAB
:102920003F4F31832083F10134E0439FE00DF11DDF
:102930001124EF5EF34F1AC0D101A952B44F4C914C
:10294000D901A151BC4FA20DB31D8D919D910D9048
:10295000BC91A02D2B5F3F4F31832083F10124E0F8
:10296000429FE00DF11D1124E750F44F80839183C5
:10297000A283B383C1010E944F0C58C185E0F2C30A
:10298000F101E054F44F80819181892B09F01CCC36
:10299000F801108244E050E0B1016E51744FF9C06B
:1029A000F101E054F44F80819181049709F00CCC3F
:1029B000D101AB53B44F8D919C911197FC01E25121
:1029C000FC4FE20DF31DC080D180E280F3800496BD
:1029D0008D939C9320E030E0A901C701B6010E94CD
:1029E000A02C1816ECF4F101EA51F44F80818823F1
:1029F00041F0F101EE51F44FC082D182E282F382C4
:102A00000CC0D101AF5DB34FCD92DD92ED92FC923F
:102A100013971082C1010E944F0CD8011C9206C16D
:102A200088E0F801808302C1F101E054F44F808115
:102A30009181892B09F0C8CBD8011C9211E020E0CC
:102A400030E0A901F101EF5DF34F60817181828176
:102A500093810E94FE2A18160CF410E0198394C08A
:102A6000F101E054F44F80819181019709F0ACCBE2
:102A7000F101EB53F44F80819181D101A80FB91F6F
:102A8000A251BC4F2C91019691838083F101EF5D9F
:102A9000F34F222329F010821182128213820CC07C
:102AA000D101AE51B44F8D919D910D90BC91A02D4F
:102AB00080839183A283B383C1010E944F0CB4C071
:102AC0007101F0E4EF1AF4EFFF0AD7012D913C9168
:102AD0002630310508F478CBF101EB53F44F8081B7
:102AE0009181DC01A251BC4FA20DB31DCD90DC90B1
:102AF000AC014E5F5F4F51834083DC01A051BC4F5E
:102B0000A20DB31D4D915C915C8B4B8BAC014C5F66
:102B10005F4F51834083DC01AE50BC4FA20DB31D0B
:102B2000AD90BC90069691838083C1018C52944FE6
:102B30004C012630310509F49AC0DC018D919C913D
:102B400006962817390709F00CC391C0F101E0542B
:102B5000F44F80819181892B09F036CBF8011082E6
:102B600061E0C1010E94720C61C0F101E054F44FB8
:102B700080819181892B09F027CBD8011C92F1012A
:102B8000EE52F44F8081898341E050E0BE016F5FD7
:102B90007F4FC1010E94D41949C0F101E054F44FA4
:102BA00080819181019709F00FCBF101EB53F44F34
:102BB00080819181D101A80FB91FA251BC4F2C91E6
:102BC000019691838083F101EE52F44F27C0F10109
:102BD000E054F44F80819181892B09F0F5CAD80126
:102BE0001C92F101ED52F44FCDCFF101E054F44FBE
:102BF00080819181019709F0E7CAF101EB53F44F0D
:102C000080819181D101A80FB91FA251BC4F2C9195
:102C1000019691838083F101ED52F44F222319F044
:102C200081E0808301C01082F80110826D89C101AA
:102C30000E94801CF101E451FC4F8081A1960FB6E7
:102C4000F894DEBF0FBECDBFDF91CF911F910F91E2
:102C5000FF90EF90DF90CF90BF90AF909F908F90BC
:102C60007F906F905F904F903F902F900895D80184
:102C70001C92F101E952F44FB081BE8BF101E85290
:102C8000F44F20812F8B41E060E0C1010E94AA0A2D
:102C900043E061E0C1010E94AA0AD4018D919C9198
:102CA0000696F701208131812817390719F4C101EF
:102CB0000E94F60A18861F82F101E952F44FFA8742
:102CC000E98791012852344F3C872B87C601A0E049
:102CD000B0E0888F998FAA8FBB8FD101AA51B44FD2
:102CE000BD8FAC8F950140E050E02E8F3F8F48A301
:102CF00059A38B899C898E3451E0950710F08DE49F
:102D000091E0AF81B885A817B90708F01FC2A9855F
:102D1000BA858C918E83EB85FC8580818D830E94A2
:102D20000D232B013C01AA24AA9473E0B72E812C19
:102D3000912CEE24EA94E3E0FE2EC12CD12C1FEF5F
:102D40000E940D236419750986099709288D398D0C
:102D50004A8D5B8D621773078407950708F04CC096
:102D60008E818F3F11F180E00E94E2218533F3E0F4
:102D70009F0798F0A985BA854C91442361F0415092
:102D800060E0C1010E94AA0AEE24EA9463E0F62EF4
:102D9000C12CD12CD5CF1E83D3CFC816D90608F4A9
:102DA0006C018E159F0508F47C018D818F3F41F2E7
:102DB00081E00E94E2218533B3E09B0798F0EB8528
:102DC000FC854081442361F0415061E0C1010E94D3
:102DD000AA0AAA24AA9453E0B52E812C912CB0CF34
:102DE0001D83AECF8816990608F44C018A159B0501
:102DF00008F0A6CF5C01A4CFA6014E195F095E873B
:102E00004D875C834B8384010A191B091A8309834C
:102E1000892841F05FEFA51653E0B50629F48D81AE
:102E20008F3F11F08FEF03C0AB85BC858C918D83F4
:102E3000CD2841F0BFEFEB16B3E0FB0629F48E81FD
:102E40008F3F11F08FEF40C1EC8DFD8D8081882385
:102E500009F437C1F101E652F44F208131814281FA
:102E600053812F87388B498B5A8B20E030E0A901A2
:102E70006F85788989899A890E94A02C18160CF090
:102E800020C14F815885452B09F41BC18E8199279C
:102E900087FD9095A985BA852C9130E0821793071C
:102EA00009F00FC1880F991F880F991F820D931D7C
:102EB000FC01EF50F44F4080518062807380FC0130
:102EC000E750F44F80809180A280B3808D818F3F46
:102ED00021F117FD22C0B801882777FD8095982F32
:102EE0000E949D2B20E030E040EA50E40E94EF2C4D
:102EF00020E030EC4FE754E40E94022B23EF34E053
:102F000045EB5FE30E94022B20E030E040E05FE30E
:102F10000E94EF2C6B017C0103C0C12CD12C7601E7
:102F2000A301920160E876E988E19BE40E94022B0C
:102F300020E030E040E85FE30E949A2A2B013C0148
:102F400020E836E948E15BE4C501B4010E94EF2CBA
:102F50009B01AC010E949A2A2BED3FE049E450E42A
:102F60000E94EF2CF101E252F44F20813181428125
:102F700053810E94EF2C4B015C01A3019201C3011C
:102F8000B2010E94EF2C2B013C01A5019401C50167
:102F9000B4010E94EF2C9B01AC01C301B2010E945D
:102FA0009A2A0E94A22D2B013C01ED85FE85BF01CE
:102FB000882777FD8095982F0E949D2B20E030E098
:102FC00040EA50E40E94EF2C20E030EC4FE754E45C
:102FD0000E94022B23EF34E045EB5FE30E94022BBB
:102FE00020E030E040E05FE30E94EF2C4B015C0109
:102FF000A301920160E070E080E89FE30E94022B51
:103000009B01AC01C501B4010E94022B4B015C0184
:10301000A70196016F85788989899A890E949A2AE1
:103020006B017C019B01AC01C501B4010E94992A8E
:103030002B013C0120E030E0A9010E94A02C1816D1
:1030400024F0C301B201905802C0C301B201F101E2
:10305000EB5DF34F20813181428153810E94A02C8E
:1030600018167CF581010E51144FA7019601C50178
:10307000B4010E94022BD8012D913D914D915C919C
:103080000E94EF2C4B015C0120E030E040E85FE360
:103090000E94FE2A87FD06C0F80180829182A282EA
:1030A000B38209C080E090E0A0E8BFE3F80180832C
:1030B0009183A283B38321E0B701A601C1010E94DD
:1030C000670BA985BA858C918E8342E050E0BE01E2
:1030D0006D5F7F4FC1010E94D41941E050E0BE01F5
:1030E0006A5F7F4FC1010E94D41942E050E0BE01E7
:1030F0006F5F7F4FC1010E94D41941E050E0BE01D3
:103100006B5F7F4FC1010E94D4198DEA92E10E944A
:10311000CF2318161906D4F00E940D236B017C01F1
:103120000E940D236C197D098E099F092E8D3F8DFC
:1031300048A159A1621773078407950788F34F8147
:1031400058854F5F5F4F58874F83D3CD4E8960E0DE
:10315000C1010E94AA0A4F8961E0C1010E94AA0A26
:1031600065CD86E0D8018C9361CDCF93DF93EC01E0
:103170000E94471960E0CE01DF91CF910C94720C50
:103180008627682F62956827062E669566956025C6
:10319000062E669560256770082E892F6695079420
:1031A0006795902D86270694679590258627089524
:1031B000CF92DF92EF92FF920F931F93CF93DF9303
:1031C00000D01F92CDB7DEB78C01CE0101966C0105
:1031D0009FE0E92EF12CD801ED91FC910088F18956
:1031E000E02DB701C8011995F60181936F01FFEF3A
:1031F000EF1AFF0A83E1E816F10469F749815A8161
:103200006B817C814F3F5F4F6F4F7F4FD1F0498182
:103210005A816B817C818DEA92E10E946C2688E75D
:1032200091E10E949C040F900F900F900F90DF91FE
:10323000CF911F910F91FF90EF90DF90CF900C9462
:10324000D30340E052EC61E070E049835A836B8322
:103250007C83DE0111966D018FE0E82EF12CF601E2
:1032600041916F01D801ED91FC910288F389E02D25
:10327000B701C8011995BFEFEB1AFB0AE3E1EE169F
:10328000F10469F7C4CF87E791E10C94CC0387E799
:1032900091E10C94CF0308958F929F92AF92BF92C9
:1032A000CF92DF92EF92FF920F931F93CF93DF9312
:1032B00021E135E0FC0131832083E453F44F608346
:1032C000FC01ED53F44F11821082FC01E753F44FDF
:1032D0001082FC01E054F44F11821082FC01EB5388
:1032E000F44F11821082FC01E953F44F11821082D5
:1032F000FC01EF52F44F1082E12CF12C00E010E0C1
:10330000B80187E791E10E94CC03A82EB801695F5C
:103310007F4F87E791E10E94CC038E2CC0E0D0E084
:10332000B12CA094B094C82ED12CC094D094CE01CE
:103330008E0D9F1DC697C4F4B5010C2E02C0759565
:1033400067950A94E2F761709C2E980C892D0E9473
:103350004721B6010C2E02C0759567950A94E2F7D5
:103360006170892D0E9480212196C830D105F9F61F
:103370000F5F1F4FE8E0EE0EF11C0730110509F05A
:10338000BFCFDF91CF911F910F91FF90EF90DF9012
:10339000CF90BF90AF909F908F90089521E135E03E
:1033A000FC013183208308951F93CF93DF93FB01AA
:1033B00020E030E0DC01A953B44F2417350781F039
:1033C0001191BC01620F731FCD91DC9111976C0FAD
:1033D0007D1FEB01C251DC4F18832F5F3F4FEDCFB4
:1033E0008D919C911197820F931F8D939C93DF91E8
:1033F000CF911F910895CF93DF93FC01E351FC4FD0
:103400006081DC01A451BC4F67FF0EC020E8260F8D
:10341000208322E02C93DC01ED91FC910488F58956
:10342000E02DDF91CF911994FC01E054F44F2081FD
:10343000318121503109820F931FEC01C251DC4FC1
:1034400088818C9331832083DF91CF9108956F928F
:103450007F928F929F92AF92BF92CF92DF92EF9224
:10346000FF920F931F93CF93DF93EC019C0127539F
:10347000344F59016D3721F481E0F9018083B5C0E3
:10348000F90180819E012D53344F7901882309F47D
:10349000A5C080E26827F701808191819E012453B5
:1034A000344F4901FE01EE53F44F6F018E01005479
:1034B000144F009771F4FE01E351FC4F6083F90152
:1034C00080818823B9F18FEF9FEFFE01E153F44F24
:1034D0001EC08130910581F467FF08C083E08083BE
:1034E000862F8F77F8011082818324C082E0808349
:1034F000862F90E0F8010BC08230910559F42081AD
:10350000233041F4F80180819181860F911D9183D0
:10351000808310C0F6012081821B9109F80120816F
:1035200031818217930730F48C0F9D1FFC01E2510B
:10353000FC4F6083F4018081882369F03E01F1E350
:103540006F1AF4EF7F0AF301808191810E94C01805
:10355000F30191838083F701208131812F5F3F4FF9
:1035600031832083F4014081F6015081F80180818C
:103570009181850F911D840F911D840F911D281736
:10358000390731F5F70111821082FE01EB53F44F38
:1035900011821082FE01E953F44F118210824423FC
:1035A00039F0FE01E153F44F80819181892B19F4A8
:1035B000CE010E94FB19FE01E553F44F8081882360
:1035C00039F0C351DC4F80589881981301C01082A4
:1035D000F5018081882349F0108207C06E3709F019
:1035E0005ACFF70111821082F3CFDF91CF911F9153
:1035F0000F91FF90EF90DF90CF90BF90AF909F9092
:103600008F907F906F900895CF93C8E06C2F88E7DC
:1036100091E10E94B90488E791E10E94D8048111E8
:1036200026C062EF74E08DEA92E10E9461284AE0D0
:1036300050E06C2F8DEA92E10E94602966E075E00F
:103640008DEA92E10E94612840E150E06C2F8DEA02
:1036500092E10E9460296BE075E08DEA92E10E94A0
:103660007E2861E070E080E090E00E943C23CF5F24
:10367000C83761F6CF910895CF93C62F83E8860FA0
:10368000823090F46DE78DEA92E10E942924E09166
:10369000AD12F091AE1260E26C270190F081E02D46
:1036A0008DEA92E1CF9119948DEA92E1CF910C9439
:1036B00029248F929F92AF92BF92CF92DF92EF9286
:1036C000FF920F931F93CF93DF93EC018C017C014A
:1036D00020E4E21A24EFF20A8453944F6C015E0155
:1036E00093E3A91A94EFB90AF701808191819801B7
:1036F0002C1B3D0BF60128173907C8F4808198016F
:1037000022513C4F4901882351F0F9016081F501B4
:10371000808191810E94C018F50191838083F4011A
:103720006081CE010E943C1B0F5F1F4FDDCF808167
:10373000882369F08E010353144FF8016081CE0194
:103740000E943C1BF8016181CE010E943C1BF701E5
:1037500011821082C953D44F19821882DF91CF9100
:103760001F910F91FF90EF90DF90CF90BF90AF909F
:103770009F908F900895BF92CF92DF92EF92FF9229
:103780000F931F93CF93DF93EC01B62E8C0100545F
:10379000144FFC01E953F44F80819181F80191832A
:1037A00080836EE78DEA92E10E9429247E01F4E392
:1037B000EF1AF4EFFF0AF7018081882381F08FEF81
:1037C0009FEF6E01F3E3CF1AF4EFDF0AF601918366
:1037D00080836B2D0E94C018F601918380836B2D2E
:1037E000CE010E943C1BF80160817181F70180814C
:1037F0006038710580F4882371F17E01F3E3EF1ADC
:10380000F4EFFF0AF701808191810E94C018F7014F
:103810009183808320C08823B1F07068672F7E0178
:10382000F3E3EF1AF4EFFF0AF701808191810E9420
:10383000C018F70191838083F80160810E94C0184D
:10384000F70191838083F801808191819068692FCD
:10385000CE010E943C1BF8016081CE01DF91CF9127
:103860001F910F91FF90EF90DF90CF90BF900C943D
:103870003C1B0F931F93CF93DF931F92CDB7DEB7FF
:103880008C01698341E050E0BE016F5F7F4F0E9471
:10389000D419F801E351FC4F6081C8010E94BB1BA1
:1038A000C8010E94591B0F90DF91CF911F910F917A
:1038B0000895FF920F931F93CF93DF938A01422FB6
:1038C00088E791E10E94B304C0E088E791E10E949B
:1038D0000504892B71F0FF24F394FC0EC8018C0FB2
:1038E000911DEC0188E791E10E940D048883CF2DA2
:1038F000ECCF8C2FDF91CF911F910F91FF90089506
:103900007F928F929F92AF92BF92CF92DF92EF926F
:10391000FF920F931F93CF93DF93CDB7DEB76997D5
:103920000FB6F894DEBF0FBECDBF8C01462F50E01E
:10393000FA01E058F109E931F10508F0A5C3E853AF
:10394000FF4F9C012054344F79010C94E72ED9018C
:103950008D919C91892B01F5D801ED91FC9102800C
:10396000F381E02DC8011995FC0101900020E9F7D1
:10397000AF0141505109481B590BD801ED91FC9101
:103980000280F381E02D64C0D9016D917C91CB015F
:103990008D7F019709F498C386E0F801E451FC4F4C
:1039A000B6C2F90180819181892BB1F7D801ED91DF
:1039B000FC910480F581E02DC8011995FC0101906E
:1039C0000020E9F7AF0141505109481B590BD801BC
:1039D000ED91FC910480F581E02D3AC0F9018081E0
:1039E0009181892BC9F6D801ED91FC910680F78170
:1039F000E02DC8011995FC0101900020E9F7AF0105
:103A000041505109481B590BD801ED91FC9106809A
:103A1000F781E02D1DC0F90180819181892B09F08A
:103A2000BBCFD801ED91FC910084F185E02DC80158
:103A30001995FC0101900020E9F7AF0141505109AF
:103A4000481B590BD801ED91FC910084F185E02DC4
:103A5000C801498F588F1995498D588DBC010DC3E8
:103A6000F90180819181892B09F096CFD801ED91E0
:103A7000FC910284F385E02DC8011995FC010190A9
:103A80000020E9F7AF0141505109481B590BD801FB
:103A9000ED91FC910284F385E02DDACFF90180816C
:103AA0009181892B09F078CFD801ED91FC910484A4
:103AB000F585E02DC8011995FC0101900020E9F77A
:103AC000AF0141505109481B590BD801ED91FC91B0
:103AD0000484F585E02DBCCFF90180819181892B8B
:103AE00009F05ACFD801ED91FC910684F785E02DBD
:103AF000C8011995FC0101900020E9F7AF01415080
:103B00005109481B590BD801ED91FC910684F785AA
:103B1000E02D9ECFF90180819181892B09F03CCF66
:103B20004AE050E067E275E0A8C2D9018D919C910E
:103B3000029709F031CFF801EB53F44F2081318126
:103B4000A801420F531FDA01A251BC4F8C91DA0138
:103B5000A151BC4F6C912E5F3F4F318320830E9457
:103B600047218EC2F90180819181029709F014CF1B
:103B7000F801EB53F44F20813181A801420F531F0C
:103B8000DA01A251BC4F8C91DA01A151BC4F6C916A
:103B90002E5F3F4F318320830E94802171C2D90163
:103BA0008D919C91019709F0F7CEF801EB53F44FFA
:103BB00020813181D801A20FB31FA251BC4F8C913B
:103BC0002F5F3F4F318320830E94B62141C2F9010C
:103BD00080819181029709F0DFCEF801EB53F44F19
:103BE00020813181D801A20FB31FA251BC4F8C910B
:103BF000A9014F5F5F4F51834083D901A151BC4F51
:103C0000A00FB11F6D917C912D5F3F4F31832083B9
:103C10000E94072235C2D9018D919C91039709F02A
:103C2000BBCED801AB53B44F8D919C911197FC0141
:103C3000E251FC4FE00FF11F60817181F801E80F44
:103C4000F91FE051FC4F408103968D939C93D8015E
:103C5000ED91FC910288F389E02DC801199510C2FD
:103C6000F90180819181029709F096CED801AB537A
:103C7000B44F8D919C911197FC01E251FC4FE00FE4
:103C8000F11F6081718102968D939C93D801ED9113
:103C9000FC910088F189E02DC8011995D9C1F9017D
:103CA00080819181029709F077CEF801EB53F44FB0
:103CB000808191819801280F391FD901A251BC4FF1
:103CC0006C91D901A151BC4FEC90029691838083F5
:103CD000CE0101960E942408CE0101960E9412088E
:103CE000F12CBE01615F7F4FCE0101960E94470813
:103CF000F394EF14B0F7980124513C4F79018823D5
:103D000059F048E050E0BE01615F7F4FC8010E945A
:103D1000D419D7011C92B8C185E0F901F8C0D901C6
:103D20008D919C910B9709F037CED801AB53B44FCE
:103D30002D913C911197A801420F531FFA01E251B6
:103D4000FC4F60817901EFEFEE1AFE0A1196FC92AA
:103D5000EE924E01FFE08F0E911C80E090E0D82C97
:103D6000792CE00EF11E5701A80EB91E72E1A71AB8
:103D70007CEFB70AF501C080F401C1924F010196B2
:103D80008830910581F7FA01E950FC4FF080FA0183
:103D9000E850FC4FE080255F3F4F2D933C93CE01D0
:103DA00001960E942408CE0101960E94EE066D2D18
:103DB000772DCE0101960E94EA0740E06F2DCE01DB
:103DC00001960E948B07F12CFE1409F459C1CE0113
:103DD00001960E94CD078F8B41E050E0BE01695EE5
:103DE0007F4FC8010E94D419F394EECFD9018D9171
:103DF0009C910B9709F0D0CDD801AB53B44F2D91C6
:103E00003C911197A801420F531FFA01E251FC4F58
:103E100060817901EFEFEE1AFE0A1196FC92EE92A4
:103E20004E01FFE08F0E911C80E090E0D82C792CA1
:103E3000E00EF11E5701A80EB91E72E1A71A7CEF21
:103E4000B70AF501C080F401C1924F010196883094
:103E5000910581F7FA01E950FC4FF080FA01E85032
:103E6000FC4F4081255F3F4F2D933C93CE0101963F
:103E7000498F0E942408CE0101960E94EE066D2D06
:103E8000772DCE0101960E94EA07498D6F2DCE0154
:103E900001960E948B07F4C0D9018D919C910297E5
:103EA00009F07ACDF801EB53F44F808191819801AC
:103EB000280F391FD901A251BC4F6C91D901A151D2
:103EC000BC4FEC900296918380834E2D88E791E160
:103ED0000E94B304F12C88E791E10E940504892B2C
:103EE00079F088E791E10E940D04898341E050E078
:103EF000BE016F5F7F4FC8010E94D419F394EBCFCE
:103F0000F801E451FC4FFE1409F4BDC081E0808348
:103F1000BBC0F90180819181029708F43DCD680111
:103F2000FBE3CF1AF4EFDF0AD6018D919C91119734
:103F3000F801E80FF91FE251FC4F608101968D9363
:103F40009C9388E791E10E94B904B12C2B2D30E0BD
:103F5000F7018081918101972817390798F4F601BC
:103F600080819181F801E80FF91FE251FC4F6081D7
:103F70000196D6018D939C9388E791E10E945D04A0
:103F8000B394E4CF88E791E10E94D80479C0D901C5
:103F90008D919C91019709F0FFCCF801EB53F44F00
:103FA00020813181D801A20FB31FA251BC4F8C9147
:103FB0002F5F3F4F318320830E94E90361C0F901E5
:103FC00080819181019709F0E7CCF801EB53F44F20
:103FD00020813181D801A20FB31FA251BC4F8C9117
:103FE0002F5F3F4F318320830E94F70349C0D901DF
:103FF0008D919C91019709F0CFCCF801EB53F44FD0
:1040000020813181D801A20FB31FA251BC4F8C91E6
:104010002F5F3F4F318320830E94F20331C0F901AB
:1040200080819181019709F0B7CCF801EB53F44FEF
:1040300080819181D801A80FB91FA251BC4F2C914A
:104040000196918380832EBD0DB407FEFDCF8EB502
:10405000898341E050E0BE016F5F7F4F0EC0D90100
:104060008D919C91892B09F097CCF801E651FC4F7A
:1040700040815181B8016E5F7F4FC8010E94D41901
:10408000F801E451FC4F10827801B4E1EB1ABCEF67
:10409000FB0AF7016081C8010E94391CD7018C918D
:1040A00069960FB6F894DEBF0FBECDBFDF91CF91FA
:1040B0001F910F91FF90EF90DF90CF90BF90AF9046
:1040C0009F908F907F900895F801EB53F44F2081DB
:1040D0003181D801A20FB31FA251BC4F9C90C901DE
:1040E000019691838083A80144515C4F6130710532
:1040F00099F0D901A151BC4FA00FB11FED90FC90D8
:104100002D5F3F4F31832083B9EEEB16B3E0FB0602
:1041100030F089E0FA01FBCEEE24E394F12CDA01D1
:104120001C929701220F331FF801E953F44F80814D
:104130009181280F391F318320835801B2E1AB1AD6
:10414000BCEFBB0AC12CD12CCE14DF0409F49CCFE8
:10415000892D0E94E221F501819391935F01FFEF88
:10416000CF1ADF0AF1CFEF92FF920F931F93CF93F5
:10417000DF931F921F92CDB7DEB7122F88E791E130
:1041800049835A830E94B9044981042FE42E5A813D
:10419000F52E8E2D801B811740F4F70161917F0170
:1041A00088E791E10E945D04F4CF88E791E10F90E8
:1041B0000F90DF91CF911F910F91FF90EF900C9492
:1041C000D804CF93DF93EC018DEA92E10E94CF23D4
:1041D000181619064CF48DEA92E10E94FC23682F10
:1041E000CE010E94271AF0CFDF91CF91089590E081
:1041F000FC013197E131F10508F048C0EF51FF4F64
:104200000C94E72E809180008F7703C0809180000E
:104210008F7D80938000089584B58F7702C084B528
:104220008F7D84BD08958091B0008F7703C0809109
:10423000B0008F7D8093B0000895809190008F77BB
:1042400007C0809190008F7D03C080919000877F90
:104250008093900008958091A0008F7707C080918F
:10426000A0008F7D03C08091A000877F8093A00075
:104270000895809120018F7707C0809120018F7D64
:1042800003C080912001877F809320010895CF9300
:10429000DF9390E0FC01E253FD4F2491FC01EC5EC2
:1042A000FC4F8491882349F190E0880F991FFC010D
:1042B000E257FC4FA591B4918C589C4FFC01C591DD
:1042C000D4919FB7611108C0F8948C9120958223F6
:1042D0008C93888182230AC0623051F4F8948C91C7
:1042E000322F309583238C938881822B888304C05E
:1042F000F8948C91822B8C939FBFDF91CF9108957E
:104300000F931F93CF93DF931F92CDB7DEB7282F64
:1043100030E0F901E857FD4F8491F901E253FD4F78
:104320001491F901EC5EFC4F04910023C9F088233D
:1043300021F069830E94F7206981E02FF0E0EE0F01
:10434000FF1FEC58FC4FA591B4919FB7F8948C9146
:10435000611103C01095812301C0812B8C939FBFF5
:104360000F90DF91CF911F910F910895CF93DF931D
:10437000282F30E0F901E857FD4F8491F901E2530D
:10438000FD4FD491F901EC5EFC4FC491CC2391F028
:1043900081110E94F720EC2FF0E0EE0FFF1FE65A8C
:1043A000FC4FA591B4912C912D2381E090E021F454
:1043B00080E002C080E090E0DF91CF91089580938B
:1043C00008020895863308F0865320917B00982FC9
:1043D0009870277F922B90937B0087702091080222
:1043E00090E4299F90011124822B80937C0080917E
:1043F0007A00806480937A0080917A0086FDFCCFF9
:10440000809178002091790090E0922B08951F937D
:10441000CF93DF93182FEB0161E00E944721209793
:1044200011F460E004C0CF3FD10539F461E0812F81
:10443000DF91CF911F910C948021E12FF0E0E8579C
:10444000FD4F449150E0FA013197E131F10508F058
:1044500091C0EE50FF4F0C94E72E84B5806884BD68
:10446000C7BD8DC084B5806284BDC8BD88C0809141
:104470008000806880938000D0938900C09388007A
:104480007EC080918000806280938000D0938B00FA
:10449000C0938A0074C08091B00080688093B0009F
:1044A000C093B3006CC08091B00080628093B00074
:1044B000C093B40064C080919000806880939000A5
:1044C000D0939900C09398005AC080919000806268
:1044D00080939000D0939B00C0939A0050C080912D
:1044E0009000886080939000D0939D00C0939C00C2
:1044F00046C08091A00080688093A0008091A000B9
:104500008F7B8093A000D093A900C093A80037C0F0
:104510008091A00080628093A000D093AB00C093F4
:10452000AA002DC08091A00088608093A000D09345
:10453000AD00C093AC0023C08091200180688093BF
:104540002001D0932901C093280119C08091200136
:10455000806280932001D0932B01C0932A010FC069
:1045600080912001886080932001D0932D01C09319
:104570002C0105C0C038D1050CF058CF52CFDF91C7
:10458000CF911F9108951F920F920FB60F92112491
:104590002F933F938F939F93AF93BF9380913F123D
:1045A00090914012A0914112B091421230913E126E
:1045B00023E0230F2D3720F40196A11DB11D05C066
:1045C00026E8230F0296A11DB11D20933E12809371
:1045D0003F1290934012A0934112B09342128091E7
:1045E000431290914412A0914512B0914612019647
:1045F000A11DB11D8093431290934412A0934512C4
:10460000B0934612BF91AF919F918F913F912F919F
:104610000F900FBE0F901F9018952FB7F8946091D0
:104620003F127091401280914112909142122FBF1F
:1046300008953FB7F8948091431290914412A0914D
:104640004512B091461226B5A89B05C02F3F19F020
:104650000196A11DB11D3FBF6627782F892F9A2F84
:10466000620F711D811D911D42E0660F771F881F2B
:10467000991F4A95D1F70895CF92DF92EF92FF925A
:10468000CF93DF936B017C010E941923EB01C114CE
:10469000D104E104F10479F00E9419236C1B7D0B15
:1046A000683E7340A0F381E0C81AD108E108F10820
:1046B000C851DC4FECCFDF91CF91FF90EF90DF90AE
:1046C000CF9008950197009739F0880F991F880FB0
:1046D000991F02970197F1F70895789484B5826045
:1046E00084BD84B5816084BD85B5826085BD85B596
:1046F000816085BDEEE6F0E0808181608083E1E845
:10470000F0E010828081826080838081816080837C
:10471000E0E8F0E0808181608083E1EBF0E080817F
:1047200084608083E0EBF0E0808181608083E1E958
:10473000F0E0808182608083808181608083E0E915
:10474000F0E0808181608083E1EAF0E08081826036
:104750008083808181608083E0EAF0E080818160F5
:104760008083E1E2F1E080818260808380818160EA
:104770008083E0E2F1E0808181608083EAE7F0E01D
:104780008081846080838081826080838081816079
:1047900080838081806880831092C1000895FC012D
:1047A00024853585F901E05CFF4F80819181F90115
:1047B000EE5BFF4F20813181821B930B8F73992712
:1047C0000895FC0184859585FC01E05CFF4F4081E4
:1047D0005181FC01EE5BFF4F20813181421753076D
:1047E00041F00190F081E02DE80FF91F808190E009
:1047F00008958FEF9FEF0895FC0184859585FC0156
:10480000E05CFF4F40815181FC01EE5BFF4F208156
:1048100031814217530779F0A081B181A80FB91FE8
:104820008C91208131812F5F3F4F2F73332731834C
:10483000208390E008958FEF9FEF0895FC0181A100
:10484000882329F0A489B5898C9186FFFBCF11A21A
:104850000895CF93DF93FC0126853785D901A05CAD
:10486000BF4F8D919C91119701968F739927E90104
:10487000CE5BDF4F4881598184179507D9F30D909E
:10488000BC91A02DA20FB31F6C93A685B785A05C29
:10489000BF4F11969C938E93A689B7892C9181E086
:1048A00090E0078C02C0880F991F0A94E2F7282B2A
:1048B0002C9381E081A30488F589E02D80818064B8
:1048C000808381E090E0DF91CF910895FB01E05C6F
:1048D000FF4F208131812F5F3F4F2F733327DB0143
:1048E000AE5BBF4F4D915C912417350739F0A08125
:1048F000B181A60FB71F8C9331832083089508954B
:104900001F920F920FB60F9211240BB60F922F9396
:104910003F934F935F936F937F938F939F93AF9347
:10492000BF93EF93FF938091C00082FD07C08091F9
:10493000C6006BEA74E10E94662402C08091C60042
:10494000FF91EF91BF91AF919F918F917F916F9167
:104950005F914F913F912F910F900BBE0F900FBE23
:104960000F901F90189508951F920F920FB60F92F7
:1049700011240BB60F922F933F934F935F936F9336
:104980007F938F939F93AF93BF93EF93FF93809108
:10499000C80082FD07C08091CE0063E274E10E94EE
:1049A000662402C08091CE00FF91EF91BF91AF913C
:1049B0009F918F917F916F915F914F913F912F9137
:1049C0000F900BBE0F900FBE0F901F90189508957B
:1049D0001F920F920FB60F9211240BB60F922F93C6
:1049E0003F934F935F936F937F938F939F93AF9377
:1049F000BF93EF93FF938091D00082FD07C0809119
:104A0000D6006BE973E10E94662402C08091D60053
:104A1000FF91EF91BF91AF919F918F917F916F9196
:104A20005F914F913F912F910F900BBE0F900FBE52
:104A30000F901F90189508951F920F920FB60F9226
:104A400011240BB60F922F933F934F935F936F9365
:104A50007F938F939F93AF93BF93EF93FF93809137
:104A6000300182FD07C08091360163E173E10E944D
:104A7000662402C080913601FF91EF91BF91AF9102
:104A80009F918F917F916F915F914F913F912F9166
:104A90000F900BBE0F900FBE0F901F9018958DEAD0
:104AA00092E10E94CF23892B11F00E947F248BE892
:104AB00092E10E94CF23892B11F00E94B32489E652
:104AC00092E10E94CF23892B11F00E94E72487E412
:104AD00092E10E94CF23892B11F00C941B2508959D
:104AE0001F920F920FB60F9211240BB60F922F93B5
:104AF0003F938F939F93EF93FF932091A71430914F
:104B0000A8148091A9149091AA142817390731F498
:104B10008091C1008F7D8093C10014C0E091A914E1
:104B2000F091AA14E959FB4E20818091A91490912B
:104B3000AA1401968F7399279093AA148093A914AD
:104B40002093C600FF91EF919F918F913F912F91FC
:104B50000F900BBE0F900FBE0F901F9018951F92D5
:104B60000F920FB60F9211240BB60F922F933F9313
:104B70008F939F93EF93FF9320911F1430912014F4
:104B800080912114909122142817390731F48091D3
:104B9000C9008F7D8093C90014C0E0912114F09169
:104BA0002214E152FC4E2081809121149091221414
:104BB00001968F7399279093221480932114209348
:104BC000CE00FF91EF919F918F913F912F910F9088
:104BD0000BBE0F900FBE0F901F9018951F920F9253
:104BE0000FB60F9211240BB60F922F933F938F9312
:104BF0009F93EF93FF932091971330919813809197
:104C0000991390919A132817390731F48091D100A4
:104C10008F7D8093D10014C0E0919913F0919A1385
:104C2000E95AFC4E20818091991390919A13019634
:104C30008F73992790939A13809399132093D6009A
:104C4000FF91EF919F918F913F912F910F900BBE0C
:104C50000F900FBE0F901F9018951F920F920FB6D6
:104C60000F9211240BB60F922F933F938F939F9324
:104C7000EF93FF9320910F13309110138091111334
:104C8000909112132817390731F4809131018F7DEB
:104C90008093310114C0E0911113F0911213E1538C
:104CA000FD4E2081809111139091121301968F7304
:104CB0009927909312138093111320933601FF913B
:104CC000EF919F918F913F912F910F900BBE0F907D
:104CD0000FBE0F901F901895CF92DF92EF92FF9228
:104CE000CF93DF93EC016A017B01411581EE5807F8
:104CF00061057105F9F0EC89FD8981E090E008A07B
:104D000002C0880F991F0A94E2F7808360E079E07F
:104D10008DE390E0A70196010E94C52E2150310934
:104D2000410951095695479537952795211580E1F9
:104D3000380798F0EC89FD89108260E874E88EE10C
:104D400090E0A70196010E94C52E2150310941092A
:104D500051095695479537952795E889F989308304
:104D6000EA89FB89208319A2EE89FF89408181E0CD
:104D700090E09C010C8C02C0220F331F0A94E2F7D2
:104D8000422B4083EE89FF8940819C010D8C02C03B
:104D9000220F331F0A94E2F7422B4083EE89FF89EA
:104DA00040819C010E8C02C0220F331F0A94E2F74F
:104DB000422B4083EE89FF8920810F8C02C0880F2F
:104DC000991F0A94E2F7809582238083DF91CF9127
:104DD000FF90EF90DF90CF900895CF931092B01294
:104DE0001092AF1288EE93E0A0E0B0E08093B11291
:104DF0009093B212A093B312B093B41226E335E0AD
:104E00003093AE122093AD124BEA54E15093BA1294
:104E10004093B91247E654E15093BC124093BB1241
:104E200045EC50E05093BE124093BD1244EC50E06C
:104E30005093C0124093BF1240EC50E05093C21206
:104E40004093C11241EC50E05093C4124093C312FE
:104E500042EC50E05093C6124093C51246EC50E02D
:104E60005093C8124093C712C4E0C093C912F3E034
:104E7000F093CA12E7E0E093CB1275E07093CC1286
:104E800061E06093CD1210928E1210928D12809379
:104E90008F1290939012A0939112B093921230932C
:104EA0008C1220938B1243E254E15093981240935A
:104EB00097124FED53E150939A12409399124DEC93
:104EC00050E050939C1240939B124CEC50E0509356
:104ED0009E1240939D1248EC50E05093A0124093D4
:104EE0009F1249EC50E05093A2124093A1124AEC59
:104EF00050E05093A4124093A3124EEC50E0509314
:104F0000A6124093A512C093A712F093A812E093A3
:104F1000A9127093AA126093AB1210926C121092A5
:104F20006B1280936D1290936E12A0936F12B093D8
:104F3000701230936A12209369124BE953E1509337
:104F400076124093751247E553E1509378124093DF
:104F5000771245ED50E050937A124093791244ED68
:104F600050E050937C1240937B1240ED50E0509300
:104F70007E1240937D1241ED50E050938012409399
:104F80007F1242ED50E0509382124093811246ED21
:104F900050E05093841240938312C0938512F09393
:104FA0008612E09387127093881260938912109290
:104FB0004A121092491280934B1290934C12A09374
:104FC0004D12B0934E12309348122093471283E152
:104FD00093E190935412809353128FEC92E190934B
:104FE00056128093551285E391E090935812809366
:104FF000571284E391E090935A128093591280E300
:1050000091E090935C1280935B1281E391E0909326
:105010005E1280935D1282E391E090936012809320
:105020005F1286E391E09093621280936112C093C5
:105030006312F0936412E0936512709366126093AA
:105040006712CF910895CF92DF92EF92FF920F9364
:105050001F93CF93DF936C017A01EB01E60EF71EED
:1050600000E010E0CE15DF0561F06991D601ED9109
:10507000FC910190F081E02DC6011995080F191FD0
:10508000F1CFC801DF91CF911F910F91FF90EF9069
:10509000DF90CF9008956115710581F0DB010D90CF
:1050A0000020E9F7AD0141505109461B570BDC01C7
:1050B000ED91FC910280F381E02D199480E090E065
:1050C00008950C944B28DC01ED91FC910190F08146
:1050D000E02D19940F931F93CF93DF93EC016DE0B4
:1050E0000E9463288C016AE0CE010E946328800F31
:1050F000911FDF91CF911F910F9108950F931F93EF
:10510000CF93DF93EC010E944B288C01CE010E94CB
:105110006A28800F911FDF91CF911F910F91089501
:105120008F929F92AF92BF92CF92DF92EF92FF92B7
:105130000F931F93CF93DF93CDB7DEB7A1970FB631
:10514000F894DEBF0FBECDBF7C01C42EE52FCB018E
:10515000D22E19A221E02D1510F02AE0D22E8E01B8
:105160000F5D1F4F8D2C912CA12CB12C6C2D7E2FFF
:10517000A50194010E94C52E8C2DD29E8019112468
:10518000015011098A3010F4805D01C0895CF8017A
:105190008083211531054105510521F0C22EE32FF1
:1051A000CA01E4CFB801C7010E944B28A1960FB6EF
:1051B000F894DEBF0FBECDBFDF91CF911F910F914D
:1051C000FF90EF90DF90CF90BF90AF909F908F9027
:1051D0000895CF92DF92EF92FF920F931F93CF9398
:1051E000DF93EC016A017B012115310579F4E88137
:1051F000F9810190F081E02D642FDF91CF911F9113
:105200000F91FF90EF90DF90CF9019942A303105E5
:10521000E9F477FF1AC06DE20E9463288C014427ED
:105220005527BA014C195D096E097F092AE0CE01A4
:105230000E949028800F911FDF91CF911F910F91B5
:10524000FF90EF90DF90CF9008952AE0B701A6017C
:10525000CE01DF91CF911F910F91FF90EF90DF90E2
:10526000CF900C9490289A01AB01662757FD60956A
:10527000762F0C94E9280F931F93CF93DF93EC01C3
:105280009A01AB01662757FD6095762F0E94E928A9
:105290008C01CE010E946A28800F911FDF91CF916F
:1052A0001F910F9108952115310541F4DC01ED9115
:1052B000FC910190F081E02D642F19940C949028BA
:1052C0009A01462F50E060E070E00C9453290F9350
:1052D0001F93CF93DF93EC019A01462F50E060E0DB
:1052E00070E00E9453298C01CE010E946A28800F31
:1052F000911FDF91CF911F910F9108959A01AB01FA
:1053000060E070E00C9453290F931F93CF93DF93C9
:10531000EC019A01AB0160E070E00E9453298C011E
:10532000CE010E946A28800F911FDF91CF911F91BB
:105330000F9108954F925F926F927F928F929F92FA
:10534000AF92BF92CF92DF92EF92FF920F931F9393
:10535000CF93DF93EC016A017B01B22E9A01AB017E
:10536000C701B6010E94E02D882319F062E475E0C0
:1053700027C026013701E89477F82FEF3FEF4FE77A
:105380005FE7C301B2010E94E02D81110DC02FEF34
:105390003FEF4FE75FE7C301B2010E94FE2A1816F4
:1053A0001CF466E475E00CC02FEF3FEF4FE75FE4BD
:1053B000C701B6010E94A02C1816ACF46AE475E08F
:1053C000CE01DF91CF911F910F91FF90EF90DF9071
:1053D000CF90BF90AF909F908F907F906F905F9095
:1053E0004F900C944B282FEF3FEF4FE75FECC70136
:1053F000B6010E94FE2A87FDE1CF20E030E0A9013E
:10540000C701B6010E94FE2A87FF0AC06DE2CE01E5
:105410000E9463288C01F7FAF094F7F8F09402C028
:1054200000E010E0A12C60E070E080E09FE3AB14AE
:1054300041F020E030E040E251E40E94022BA394CE
:10544000F6CF9B01AC01C701B6010E949A2A6B01FD
:105450007C010E946F2B2B013C010E949B2B9B0126
:10546000AC01C701B6010E94992A6B017C012AE0B8
:10547000B301A201CE010E949028080F191FBB2082
:1054800039F06FE274E0CE010E944B28080F191F1B
:105490007B2C772041F120E030E040E251E4C7016D
:1054A000B6010E94EF2C6B017C010E946A2B4B011C
:1054B000AA2497FCA094BA2C2AE030E0B501A401FC
:1054C000CE010E94E928080F191FC501B4010E94EE
:1054D0009D2B9B01AC01C701B6010E94992A6B016B
:1054E0007C017A94D6CFC801DF91CF911F910F91A3
:1054F000FF90EF90DF90CF90BF90AF909F908F90F4
:105500007F906F905F904F9008950C949A290F931D
:105510001F93CF93DF93EC010E949A298C01CE0157
:105520000E946A28800F911FDF91CF911F910F91E8
:1055300008955058BB27AA270ED0B1C1A2D130F090
:10554000A7D120F031F49F3F11F41EF497C10EF45F
:10555000E095E7FB64C1E92FB3D180F3BA17620786
:1055600073078407950718F071F49EF5E2C10EF4F5
:10557000E0950B2EBA2FA02D0B01B90190010C0163
:10558000CA01A0011124FF27591B99F0593F50F47B
:10559000503E68F11A16F040A22F232F342F4427D3
:1055A000585FF3CF469537952795A795F0405395CB
:1055B000C9F77EF41F16BA0B620B730B840BBAF09B
:1055C0009150A1F0FF0FBB1F661F771F881FC2F706
:1055D0000EC0BA0F621F731F841F48F4879577951A
:1055E0006795B795F7959E3F08F0B3CF9395880FD1
:1055F00008F09927EE0F979587950895ECD008F459
:1056000081E008950CD04BC143D140F03AD130F045
:1056100021F45F3F19F003C151118CC12FC150D14A
:1056200098F39923C9F35523B1F3951B550BBB2769
:10563000AA2762177307840738F09F5F5F4F220F16
:10564000331F441FAA1FA9F333D00E2E3AF0E0E80F
:1056500030D091505040E695001CCAF729D0FE2F5B
:1056600027D0660F771F881FBB1F261737074807ED
:10567000AB07B0E809F0BB0B802DBF01FF279358A3
:105680005F4F2AF09E3F510568F0C9C053C15F3F8C
:10569000ECF3983EDCF3869577956795B795F7958B
:1056A0009F5FC9F7880F911D9695879597F9089583
:1056B000E1E0660F771F881FBB1F6217730784071F
:1056C000BA0720F0621B730B840BBA0BEE1F88F72E
:1056D000E095089504D06894B1112CC10895F8D0D4
:1056E00088F09F5790F0B92F9927B751A0F0D1F0CB
:1056F000660F771F881F991F1AF0BA95C9F712C055
:10570000B13081F016D1B1E0089513C1672F782F21
:105710008827B85F39F0B93FCCF3869577956795C0
:10572000B395D9F73EF490958095709561957F4F2C
:105730008F4F9F4F0895E89409C097FB3EF49095D2
:105740008095709561957F4F8F4F9F4F9923A9F05A
:10575000F92F96E9BB279395F695879577956795E9
:10576000B795F111F8CFFAF4BB0F11F460FF1BC02D
:105770006F5F7F4F8F4F9F4F16C0882311F096E9C0
:1057800011C0772321F09EE8872F762F05C066236E
:1057900071F096E8862F70E060E02AF09A95660F27
:1057A000771F881FDAF7880F9695879597F90895E0
:1057B000A9D080F09F3740F491110EF0BBC060E09B
:1057C00070E080E89FEB089526F41B16611D711DA3
:1057D000811D2BC045C0990F0008550FAA0BE0E8AA
:1057E000FEEF16161706E807F907C0F012161306A3
:1057F000E407F50798F0621B730B840B950B39F4E3
:105800000A2661F0232B242B252B21F408950A2648
:1058100009F4A140A6958FEF811D811D089597F988
:105820009F6780E870E060E00895882371F4772333
:1058300021F09850872B762F07C0662311F4992703
:105840000DC09051862B70E060E02AF09A95660FAB
:10585000771F881FDAF7880F9695879597F908952F
:105860009F3F31F0915020F4879577956795B795D4
:10587000880F911D9695879597F908959FEF80EC75
:10588000089500240A9416161706180609060895A6
:1058900000240A9412161306140605060895092E0C
:1058A0000394000C11F4882352F0BB0F40F4BF2B7B
:1058B00011F460FF04C06F5F7F4F8F4F9F4F0895BB
:1058C00057FD9058440F551F59F05F3F71F04795B1
:1058D000880F97FB991F61F09F3F79F08795089596
:1058E000121613061406551FF2CF4695F1DF08C0B5
:1058F000161617061806991FF1CF869571056105D2
:1059000008940895E5DFA0F0BEE7B91788F4BB2737
:105910009F3860F41616B11D672F782F8827985F7F
:10592000F7CF869577956795B11D93959639C8F30E
:105930000895E894BB2766277727CB0197F9089548
:105940004ADF08F48FEF08950AD029ED3BE54EEDCC
:105950005EE345C00EF084CF91CF689460CFB8DF8E
:10596000C8F39923D1F3C6F3DF93CF931F930F931B
:10597000FF92C92FDD2788232AF02197660F771F12
:10598000881FDAF720E030E040E85FEB9FE38839DA
:1059900020F0803E30F021968F77CCDDE6E0F2E01B
:1059A00003C0C8DDE3E3F2E047D18B01BE01EC01A7
:1059B000FB2E6F5771097595771F880B990BBDDE0C
:1059C00028E132E741E35FE316D0AF2D9801AE0145
:1059D000FF900F911F91CF91DF91BDDD60CF0BD074
:1059E0005ECF4FDF28F054DF18F0952309F017CF72
:1059F00045CF11249FCF64DFA0F3959FD1F3950F7E
:105A000050E0551F629FF001729FBB27F00DB11D42
:105A1000639FAA27F00DB11DAA1F649F6627B00DD2
:105A2000A11D661F829F2227B00DA11D621F739FBB
:105A3000B00DA11D621F839FA00D611D221F749FC9
:105A40003327A00D611D231F849F600D211D822F10
:105A5000762F6A2F11249F5750408AF0E1F0882357
:105A60004AF0EE0FFF1FBB1F661F771F881F915064
:105A70005040A9F79E3F510570F0D1CE5BCF5F3FFC
:105A8000ECF3983EDCF3869577956795B795F79597
:105A9000E7959F5FC1F7FE2B880F911D969587951F
:105AA00097F90895FA01EE0FFF1F30962105310591
:105AB00099F16115710561F48038BFE39B0749F1E5
:105AC00068949038810561F08038BFEF9B0741F002
:105AD000992342F5FF3FE1053105210511F1E894D5
