:100000000C94BD010C94EA010C94EA010C94EA01F1
:100010000C94EA010C94EA010C94EA010C94EA01B4
:100020000C94EA010C94EA010C94EA010C94EA01A4
:100030000C94EA010C94EA010C94EA010C94EA0194
:100040000C94EA010C94EA010C94EA010C94EA0184
:100050000C944D070C94EA010C94EA010C94C633FD
:100060000C94EA010C94F0360C9438380C94EA01A4
:100070000C94EA010C9422070C94EA010C94EA0116
:100080000C94EA010C94EA010C94EA010C947D0AA8
:100090000C9430370C9477380C94EA010C946A0C69
:1000A0000C94EA010C94EA010C94EA010C94EA0124
:1000B0000C94EA010C94EA010C94EA010C94EA0114
:1000C0000C94EA010C94EA010C94EA010C94703748
:1000D0000C94B6380C94EA010C94B0370C94F538B3
:1000E0000C94EA015B167316F9161617A717E11799
:1000F000F81720183C1865187C18711D711DA4187C
:10010000DE180A195719B719131A7B1A921AEE1A20
:10011000141B821CD51CF61C981CB41C1D1D3A1DFA
:10012000711D711D711D711D711D711D711D711D5F
:10013000711D711D711D711D711D711D711D711D4F
:10014000711D711D711D711D711D711D711D711D3F
:10015000711D711D711D711D711D711D711D711D2F
:10016000711D711D711D711D711D711D711D711D1F
:10017000711D711D711D711D711D711D711D711D0F
:10018000711D711D711D711D711D711D581B6A1C22
:100190003D227722B122EB2270232523AA230524B6
:1001A0004B2428249E247724A1257A25D225AC2609
:1001B0002E264B2704278C27A727C127E1270B28AA
:1001C000E4234128642882289F28CD2808000000C5
:1001D000BE922449123EABAAAA2ABECDCCCC4C3E3C
:1001E00000000080BEABAAAAAA3E00000000BF002B
:1001F0000000803F0000000000084178D3BB438727
:10020000D1133D190E3CC3BD4282AD2B3E68EC823A
:1002100076BED98FE1A93E4C80EFFFBE01C4FF7FBF
:100220003F000000000007634236B79BD8A71A3989
:10023000685618AEBAAB558C1D3CB7CC5763BD6D34
:10024000EDFD753EF6177231BF000000803F0000E3
:100250002100240027002A002D0030003300010176
:100260000000040107010A01000022002500280007
:100270002B002E00310034000201000005010801AE
:100280000B01000020002300260029002C002F0075
:100290003200000100000301060109010505050502
:1002A000070508080808020202020A0A08080404EE
:1002B000040401010101010101010303030303031C
:1002C0000303040707070C0C0C0C0C0C0C0C0202AB
:1002D000020206060606060606060B0B0B0B0B0BA8
:1002E0000B0B010210202008081020401020408035
:1002F00002010201080402010102040810204080EA
:100300008040201008040201800402018040201077
:1003100008040201080402010102040810204080C0
:1003200001020408102040800000090A02080B0C9A
:100330000D0706030401000000000000000000009B
:1003400000000000000000000000000000000000AD
:100350000000000011100F0000000000000000006D
:1003600000000000000000000000000000001F046A
:100370005707EC0A1D29653A180411241FBECFEF58
:10038000D1E2DEBFCDBF00E00CBF14E0A0E0B2E0E0
:10039000E0E2F9E800E00BBF02C007900D92AE3B2F
:1003A000B107D9F71BBE11E1AEEBB4E001C01D925D
:1003B000A534B107E1F713E0C8E7D3E004C0229702
:1003C000FE010E944844CE36D107C9F70E94E204DC
:1003D0000C9483440C940000CF93DF93BC018230D3
:1003E000910510F462E070E0A0914311B0914411C6
:1003F000ED01E0E0F0E040E050E021C0888199812B
:100400008617970769F48A819B81309719F0938347
:10041000828304C09093441180934311FE0134C041
:100420006817790738F44115510519F084179507B5
:1004300008F4AC01FE018A819B819C01E9012097AF
:10044000E9F641155105A9F1CA01861B970B0497DE
:1004500008F4BA01E0E0F0E02AC08D919C91119778
:1004600084179507F9F46417750781F412968D9136
:100470009C911397309719F09383828304C09093D3
:10048000441180934311FD0132964CC0CA01861B72
:10049000970BFD01E80FF91F6193719302978D93FC
:1004A0009C9340C0FD01828193819C01D9011097EA
:1004B000A1F68091411190914211892B41F48091D4
:1004C000CF039091D00390934211809341114091BA
:1004D000D1035091D2034115510541F44DB75EB798
:1004E0008091CD039091CE03481B590B209141116F
:1004F00030914211CA01821B930B8617970780F037
:10050000AB014E5F5F4F8417950750F0420F531FAA
:100510005093421140934111F9016193719302C0CC
:10052000E0E0F0E0CF01DF91CF910895CF93DF932A
:10053000009709F450C0EC0122971B821A82A09107
:100540004311B0914411109709F140E050E0AC170D
:10055000BD0708F1BB83AA83FE0121913191E20F0F
:10056000F31FAE17BF0779F48D919C911197280F57
:10057000391F2E5F3F4F3983288312968D919C91AE
:1005800013979B838A834115510571F4D0934411CD
:10059000C093431120C012968D919C911397AD0189
:1005A000009711F0DC01D3CFFA01D383C2832191EC
:1005B0003191E20FF31FCE17DF0769F4888199812B
:1005C000280F391F2E5F3F4FFA01318320838A8124
:1005D0009B8193838283DF91CF910895A0E0B0E067
:1005E000E4EFF2E00C944E446C01009729F4CB0147
:1005F0000E94EC016C01C1C08EEF882E8FEF982E07
:100600008C0C9D1C8601060F171F0815190508F490
:10061000B2C0F401A081B181A617B707B8F0A53028
:10062000B10508F4AAC0CD0104978617970708F40E
:10063000A4C01297A61BB70BF801A193B193D401E4
:100640006D937C93CF010E94960297C07B01EA1ABA
:10065000FB0AEEEFFFEFEE0EFF1E36016A0E7B1E69
:10066000C0914311D091441144245524AA24BB24A1
:100670004AC0C615D705E1F5488159814E155F0579
:10068000B8F1CA0104978E159F05B0F41296A40F15
:10069000B51FF401B183A0832A813B814114510429
:1006A00031F0D20113963C932E93129766C030938B
:1006B00044112093431161C08A819B81F801938387
:1006C0008283425050404E195F0951834083411448
:1006D000510431F0D20113961C930E93129704C06B
:1006E0001093441100934311F4017183608345C05A
:1006F00088819981A816B90608F45C012E018A81C7
:100700009B819C01E901209709F0B3CF80914111B1
:100710009091421186159705E9F4A616B706D0F414
:100720002091D1033091D2032115310541F42DB729
:100730003EB78091CD039091CE03281B390B021751
:100740001307C8F41093421100934111D4016D9323
:100750007C9313C0CB010E94EC01EC01009759F08F
:10076000F40140815181B6010E94C303C6010E9479
:1007700096026E0102C0CC24DD24C601CDB7DEB7DF
:10078000E0E10C946A44FB01DC0102C001900D928F
:1007900041505040D8F70895FB01DC0101900D92C3
:1007A0000020E1F70895FB019F01423074F04532CB
:1007B00064F4642F77270E941044805D8A330CF024
:1007C000895D8193CB010097A1F71082C9010C9438
:1007D000E903DC01FC01672F71917723E1F7329780
:1007E00004C07C916D9370836291AE17BF07C8F30C
:1007F00008958091D3039091D40301969093D403EC
:100800008093D30308958130910541F46F5F7F4F4A
:1008100071F48EEB94E00E94A21D0895892B39F4A7
:100820006F5F7F4F21F48EEB94E00E94991D089535
:1008300080E090E06FEF7FEF0E940304089581E075
:1008400090E06FEF7FEF0E940304089580E18093B2
:1008500091001092900085E08093920D86E998E9CE
:100860009093910D8093900D9093970080939600B4
:1008700085E18093910089EF93E09093940D8093AC
:10088000930D81E0809371008EEB94E00E94EC1256
:1008900089EB90E160E072E00E94443D6FEF71E20D
:1008A0006050724089EB90E14AE050E00E94253DA3
:1008B00089EB90E165E072E00E94443D6EEB74E0EC
:1008C0006050724089EB90E14AE050E00E94253D83
:1008D00089EB90E16CE072E00E94443D65E471E1D7
:1008E0006E5B744089EB90E14AE050E00E94253D48
:1008F00089EB90E162E172E00E94443D6091411118
:10090000709142116115710519F460E070E002C048
:100910006554714189EB90E14AE050E00E94253D29
:1009200089EB90E168E172E00E94443D8DB79EB78B
:100930006FEF71E2681B790B89EB90E14AE050E0C0
:100940000E94253D89EB90E16FE172E00E94443DF9
:100950008091411190914211009729F46DB77EB7B3
:100960006554714104C06DB77EB7681B790B89EB84
:1009700090E14AE050E00E94253D08958EEB94E01E
:100980000E9406208091D3039091D40369E170E026
:100990000E941044892BA9F48091100D882359F0EE
:1009A0008091110D882329F48EEB94E00E94140E9F
:1009B00002C01092110D81E090E09093D4038093D7
:1009C000D3030895CF93DF930E9497340E942604A7
:1009D000CFEED7E30E94BE042097E1F30E94EF37E9
:1009E000F9CFEAE7F0E09081987F90839081982B8F
:1009F0009083089520917A0030E027703070C9010B
:100A00000895EF92FF920F931F937B018C0180E179
:100A1000809381001092800060E074E284E799E4A2
:100A2000A80197010E944D4020E030E040E051E4F1
:100A30000E9423420E94BA409B01AC01203080E01A
:100A4000380781E0480780E0580728F481E0809368
:100A50008E0DB90155C0203080E0380788E0480786
:100A600080E0580768F482E080938E0DDA01C901B6
:100A7000E3E0B695A79597958795EA95D1F714C0C9
:100A8000203080E0380780E4480780E0580770F4A1
:100A900083E080938E0DDA01C90176E0B695A795C3
:100AA000979587957A95D1F7BC012AC0203080E0D0
:100AB000380780E0480781E0580740F484E08093DD
:100AC0008E0DBB27A52F942F832FEECF203080E0F3
:100AD000380780E0480784E0580768F485E0809391
:100AE0008E0DDA01C9012AE0B695A79597958795ED
:100AF0002A95D1F7D9CF85E080938E0D6FEF7FEFE8
:100B0000709387006093860091E090936F008091CE
:100B10007B00887F80937B0080917B008660809340
:100B20007B009093780D80917A00806280937A00A8
:100B3000E092820DF092830D0093840D1093850D49
:100B40001F910F91FF90EF900895882321F08091DD
:100B50007C00806203C080917C008F7D80937C004C
:100B600008958093780D882321F080917A00806227
:100B700003C080917A008F7D80937A00089591E080
:100B800090937C0D10927A0D1092790D10927D0D3C
:100B900027E736E030937F0D20937E0D80937B0D09
:100BA00090917C00907F90937C0020917C00982F06
:100BB0009770922B90937C00883020F080917B007E
:100BC000886003C080917B00877F80937B000895BD
:100BD00080937B0D90917C00907F90937C0020917E
:100BE0007C00982F9770922B90937C00883020F097
:100BF00080917B00886003C080917B00877F809319
:100C00007B00089580917D0D8F5F80937D0D909185
:100C10007C0D891711F410927D0D80917D0DE0916E
:100C2000790DF0917A0DE80FF11D208120937B0D55
:100C300080917C00807F80937C0090917C00822F4B
:100C40008770892B80937C00283020F080917B0076
:100C5000886003C080917B00877F80937B005091E8
:100C60007800409179002091740D3091750D80913C
:100C7000760D9091770D28173907C0F58091780D82
:100C8000882329F480917A00806480937A00942FDD
:100C900080E0452F50E0482B592B80917C0085FF48
:100CA00011C08091740D9091750DE091700DF091CF
:100CB000710DE80FF91F508301969093750D809385
:100CC000740D08958091740D9091750D9C01220F03
:100CD000331FE091720DF091730DE20FF31F5183FA
:100CE000408301969093750D8093740D08955091F3
:100CF0007800409179002091740D3091750D8091AC
:100D0000760D9091770D28173907C0F58091780DF1
:100D1000882329F480917A00806480937A00942F4C
:100D200080E0452F50E0482B592B80917C0085FFB7
:100D300011C08091740D9091750DE091700DF0913E
:100D4000710DE80FF91F508301969093750D8093F4
:100D5000740D08958091740D9091750D9C01220F72
:100D6000331FE091720DF091730DE20FF31F518369
:100D7000408301969093750D8093740D0895509162
:100D80007D0D90917C0D923050F1852F8F5F809377
:100D90007D0D891711F410927D0D80917D0DE091EC
:100DA000790DF0917A0DE80FF11D208120937B0DD4
:100DB00080917C00807F80937C0090917C00822FCA
:100DC0008770892B80937C00283020F080917B00F5
:100DD000886003C080917B00877F80937B00609157
:100DE0007800409179002091740D3091750D8091BB
:100DF000760D9091770D2817390718F58091780DA9
:100E0000882329F480917A00806480937A00942F5B
:100E100080E070E0682B792B80917C0085FF02C018
:100E2000672F7727E091800DF091810D852F19951F
:100E30008091740D9091750D01969093750D80932E
:100E4000740D08951F920F920FB60F920BB60F926A
:100E500011242F933F934F935F936F937F938F93BF
:100E60009F93AF93BF93EF93FF93E0917E0DF0912B
:100E70007F0D1995FF91EF91BF91AF919F918F9148
:100E80007F916F915F914F913F912F910F900BBE8A
:100E90000F900FBE0F901F9018951F920F920FB6D4
:100EA0000F9211240F900FBE0F901F901895ECE732
:100EB000F0E080818F7380838081806480830895D7
:100EC0000F931F9300917C0010917B0080917C0018
:100ED000807E80937C0080917C008E6180937C007A
:100EE00080917B00877F80937B0063E070E080E0EF
:100EF00090E00E94343480917A00806480937A007C
:100F000080917A0086FDFCCF209178004091790095
:100F100000937C0010937B00742F60E030E0622B24
:100F2000732B882777FD8095982F0E94E8409B01BE
:100F3000AC0160E070E889E894E40E944D401F91A4
:100F40000F910895AF92BF92CF92DF92EF92FF92EE
:100F50000F931F930E940E345B016C0180917A0005
:100F6000877D80937A0080917B008770863029F49A
:100F700080918100887F809381006091760D7091CF
:100F8000770D80E090E00E94E64020E034E244E704
:100F900059E40E9423427B018C0180918A0D90913B
:100FA0008B0DA0918C0DB0918D0DA81AB90ACA0AAB
:100FB000DB0AC601B5010E94E6409B01AC01C801F5
:100FC000B7010E944D406093860D7093870D80930A
:100FD000880D9093890D1F910F91FF90EF90DF90F6
:100FE000CF90BF90AF9008951092750D1092740D30
:100FF0008091780D882321F080917A00806203C06F
:1010000080917A008F7D80937A000E940E346093E5
:101010008A0D70938B0D80938C0D90938D0D809124
:101020007A00886C80937A0080917B00877086308C
:1010300081F480918100887F8093810010928500E7
:10104000109284008091810090918E0D892B809365
:1010500081000895F999FECF72BD61BDF89A80B5FF
:101060000895F999FECF1FBA72BD61BD40BD0FB69C
:10107000F894FA9AF99A0FBE0895FC011386158622
:10108000148687E090E012863197009711F001975F
:10109000FACF0895DF92EF92FF920F931F93FC0116
:1010A000E08001811281F894F80181818E29818389
:1010B0008281DE2CD0948D21828383E090E00E9497
:1010C0008D34F80181818D2181838AE090E00E9436
:1010D0008D34F8010081789485E390E00E948D348E
:1010E00080E010E0FF240E211F21012B09F081E098
:1010F0001F910F91FF90EF90DF900895EF92FF9274
:101100000F931F93CF93DF937C0101E010E0C0E0C9
:10111000D0E0C7010E944A088111102B000F2196D0
:10112000C830D105B1F7812FDF91CF911F910F9179
:10113000FF90EF9008951F93CF93DF93FC011081F0
:10114000C181D281912F909560FF12C0F8948A815D
:1011500089238A838981812B89838AE090E00E9498
:101160008D348A81812B8A83789487E390E011C043
:10117000F8948A8189238A838981812B898381E4F8
:1011800090E00E948D348A81812B8A83789485E057
:1011900090E00E948D34DF91CF911F910895CF92FE
:1011A000DF92EF92FF920F931F93CF93DF938C0107
:1011B000E42EFF24F394C0E0D0E0C62EDD2460E0EE
:1011C0008F2D90E08C219D21892B09F061E0C801D1
:1011D0000E949B08FF0C2196C830D10581F7EE20B4
:1011E000A9F4F894D8011196ED91FC911297918190
:1011F0008C918095982391831196ED91FC91129793
:1012000092818C918095982392837894DF91CF91ED
:101210001F910F91FF90EF90DF90CF900895EF9284
:10122000FF920F931F93CF93DF938C017B0165E5B2
:1012300040E00E94CF08C0E0D0E0F701EC0FFD1FB6
:10124000C801608140E00E94CF082196C830D105D6
:10125000A1F7DF91CF911F910F91FF90EF9008952B
:10126000DF92EF92FF920F931F93CF93DF93FC01D6
:101270000081C181D281F8948981D02ED0948D21B2
:10128000898378941DE7E02EFF24115059F182E004
:1012900090E00E948D34888190E08E219F21892BDF
:1012A000A1F3F8948A818D218A838981802B898397
:1012B000789480EE91E00E948D34F89489818D219C
:1012C000898386E490E00E948D34888110E090E06C
:1012D000E822F922EF2809F411E078948AE991E0F4
:1012E0000E948D34812FDF91CF911F910F91FF903C
:1012F000EF90DF900895AF92BF92DF92EF92FF924E
:101300000F931F93CF93DF93EC015B018D858823AF
:1013100009F061C0CE010E943009882329F41B86A0
:101320001D861C8690E06BC0CE0160EF40E00E94FD
:10133000CF0801E0DD24EE24FF24F394CE010E94C7
:101340004A08182FCE010E944A08113019F4813042
:10135000E1F439C0181709F58B85081770F460E0BF
:10136000FE01EE0DF11D838190E02F2D30E08223F0
:101370009323181619064CF003C060E0081729F0F3
:10138000093008F04CC00C874AC0FE01EE0DF11D7B
:1013900083818F29838361E009C0612FFE01EE0DF7
:1013A000F11D9F2D9095838189238383CE010E9417
:1013B0009B080F5FFF0C19F4E394FF24F39487E07C
:1013C0008E1508F0BBCF013430F0DB86DD2011F53F
:1013D00081E08D871FC01B861D861C8690E0DE0184
:1013E00020E030E0F501E20FF31F13968C91139784
:1013F00080832F5F3F4F11962830310599F7892F51
:10140000DF91CF911F910F91FF90EF90DF90BF90F0
:10141000AF9008958B818823F1F291E0E0CFD02E38
:10142000BDCFFF920F931F938C01F62E862F60E0A5
:101430000E94D9358F2D90E0FC01EE51FD4FE491D3
:10144000D801EC9384569D4FFC016491E62FF0E0A7
:10145000EE0FFF1FEE57FD4F8591949112969C93CE
:101460008E9311971B961C921B971D961C921D978D
:101470001C961C92F80187E090E012863197009745
:1014800011F00197FACF1F910F91FF9008958823D3
:1014900019F48CB5806202C08CB58F7D8CBD089527
:1014A0009CB5937F982B9CBD08952CB5382F337035
:1014B0002C7F322B3CBD2DB590E095958795959569
:1014C000879581702E7F822B8DBD089585E361E025
:1014D0000E948C3685E361E00E94D9358CB580612D
:1014E0008CBD8CB580648CBD84E361E00E94D935ED
:1014F00083E361E00E94D93508951F920F920FB6E1
:101500000F920BB60F9211242F933F934F935F933B
:101510006F937F938F939F93AF93BF93EF93FF93BB
:10152000E091930DF091940D1995FF91EF91BF917A
:10153000AF919F918F917F916F915F914F913F916B
:101540002F910F900BBE0F900FBE0F901F9018950C
:1015500081E08093DA0D6093B70D1092D80D109250
:10156000D90D089581E08093DA0D6093B70D109244
:10157000D80D1092D90D08952091B60D30E08091CC
:10158000B50D281B3109C90108954091B50D809111
:10159000B60D481718F02FEF3FEF0AC0E42FF0E028
:1015A000EB56F24F8081282F30E04F5F4093B50D0E
:1015B000C9010895E091B50D8091B60DE81718F0B6
:1015C000EFEFFFEF06C0F0E0EB56F24F8081E82F1F
:1015D000F0E0CF01089508951092DE0D1092DD0D18
:1015E00088EE93E0A0E0B0E08093DF0D9093E00DF3
:1015F000A093E10DB093E20D89ED93E09093DC0DA3
:101600008093DB0D0895CF92DF92EF92FF920F93BC
:101610001F93CF93DF937C016B018A018091DA0DD8
:101620008823A1F0C0E0D0E00DC0D701ED91FC917E
:10163000D601AC0FBD1F0190F081E02DC7016C9168
:1016400019952196C017D10780F304C0CB01642FF0
:101650000E944F0CC801DF91CF911F910F91FF9015
:10166000EF90DF90CF900895DF93CF930F92CDB797
:10167000DEB7FC0169838091DA0D8823C9F080917F
:10168000D90D803238F081E090E09383828320E0AE
:1016900030E015C08091D80DE82FF0E0E854F24F0B
:1016A000998190838F5F8093D80D8093D90D05C069
:1016B000CE01019661E00E944F0C21E030E0C901AB
:1016C0000F90CF91DF9108950F93062F8091B70D62
:1016D00068EB7DE04091D90D21E00E94FA0B109259
:1016E000D80D1092D90D1092DA0D0F91089561E086
:1016F0000E94640B0895413208F040E2862F65E9AC
:101700007DE00E94B10B1092B50D8093B60D089547
:1017100021E00E947B0B089521E00E947B0B08953D
:101720001092B50D1092B60D1092D80D1092D90DE1
:101730000E949B0B08951092E70D81E08093E90DC4
:101740001092EA0DE9EBF0E080818E7F808380814A
:101750008D7F808388E48093B80085E48093BC000B
:101760000895382F413210F040E042C08091E70DDB
:101770008823E1F791E09093E70D2093E90D8FEF37
:101780008093540E10920F0E41504093100E4F5FF5
:101790009093E80D8091E80D330F832B8093E80D33
:1017A0008091EA0D813041F41092EA0D8091E80DAC
:1017B0008093BB0085EC01C085EE8093BC008091D6
:1017C000E70D8130E1F380910F0E841710F4409102
:1017D0000F0E20E030E00AC0FB01E20FF31FD90139
:1017E000A151B24F8C9180832F5F3F4F2417A0F3FC
:1017F000842F08950F931F93582F122F413210F00A
:1018000081E04AC08091E70D8823E1F782E0809370
:10181000E70D0093E90D8FEF8093540E10920F0E99
:101820004093100EAFEEBDE0FB0102C081918D939D
:101830008E2F861B8417D0F31092E80D8091E80D4F
:10184000550F852B8093E80D8091EA0D813041F48E
:101850001092EA0D8091E80D8093BB0085EC01C0E9
:1018600085EE8093BC00112321F08091E70D82303A
:10187000E1F38091540E8F3F11F480E00DC0809110
:10188000540E803211F482E007C08091540E8033F0
:1018900011F084E001C083E01F910F910895482F5B
:1018A000613210F081E008958091E70D843011F0ED
:1018B00082E008956093320EA1E1BEE0842F9C0186
:1018C000F90102C081918D938E2F841B8617D0F36E
:1018D00080E008951F920F920FB60F920BB60F92F1
:1018E00011242F933F934F935F936F937F938F9325
:1018F0009F93AF93BF93EF93FF938091B90090E0D4
:10190000887F90708036910509F4F2C08136910588
:10191000CCF58832910509F47BC089329105B4F485
:101920008031910509F46FC0813191053CF4009735
:1019300009F447C1089709F04FC165C08831910586
:1019400009F466C0809709F047C182C080349105D0
:1019500009F4A4C08134910544F48033910509F45D
:1019600082C0C89709F038C189C08035910509F453
:1019700089C08835910509F496C08834910509F02D
:101980002BC1AEC08839910509F413C1893991057D
:10199000ECF48837910509F4ABC0893791054CF414
:1019A0008836910509F4A4C08037910509F014C167
:1019B0009FC08838910509F4FCC08039910509F46D
:1019C0009DC08038910509F007C198C0803B910502
:1019D00009F4C6C0813B91054CF4803A910509F4A5
:1019E0009FC0883A910509F0F7C0BAC0803C9105C4
:1019F00009F4E3C0883C910509F4DFC0883B9105F8
:101A000009F0EAC0C2C08091E80D8093BB00CFC04E
:101A100090910F0E8091100E981768F490910F0E10
:101A2000E92FF0E0E151F24F80818093BB009F5F8E
:101A300090930F0EBCC08091E90D882309F44BC030
:101A400085ED8093BC008091BC0084FDFCCFC2C0BA
:101A500080E28093540E85ED8093BC008091BC00A1
:101A600084FDFCCFB7C080E38093540E85ED809356
:101A7000BC008091BC0084FDFCCFACC088E38093A7
:101A8000540E9BC080910F0E9091BB00E82FF0E0A8
:101A9000E151F24F90838F5F80930F0E90910F0E64
:101AA0008091100E82C080910F0E9091BB00E82FA4
:101AB000F0E0E151F24F90838F5F80930F0E8091A1
:101AC000E90D882341F085ED8093BC008091BC0036
:101AD00084FDFCCF7FC081E08093EA0D84EA6EC074
:101AE00085ED8093BC008091BC0084FDFCCF72C06A
:101AF00083E08093E70D1092530E59C08091530EEE
:101B0000803208F056C08091530E9091BB00E82FB0
:101B1000F0E0ED5CF14F90838F5F8093530E47C0F0
:101B20008091530E803230F4E091530EF0E0ED5C82
:101B3000F14F108285ED8093BC008091BC0084FD44
:101B4000FCCF1092E70D6091530EE091ED0DF091F6
:101B5000EE0D83E39EE070E019951092530E2DC0B8
:101B600084E08093E70D1092310E1092320EE091D6
:101B7000EB0DF091EC0D19958091320E882329F42C
:101B800081E08093320E1092110E9091310EE92F68
:101B9000F0E0EF5EF14F80818093BB009F5F9093F8
:101BA000310E9091310E8091320E981710F485EC21
:101BB00001C085E88093BC000FC085EC8093BC0019
:101BC00009C01092540E85ED8093BC008091BC003A
:101BD00084FDFCCF1092E70DFF91EF91BF91AF9183
:101BE0009F918F917F916F915F914F913F912F9135
:101BF0000F900BBE0F900FBE0F901F90189585EEA3
:101C000093E008958AEF93E008958EEF93E00895AE
:101C100085E194E008958FE294E008958AE394E0EA
:101C200008958CE292E0089588E061E00E948C368D
:101C30000895FF920F931F93F62E142F022F862FD5
:101C400060E00E948C361EBD0DB407FEFDCF8EB540
:101C50000EBD0DB407FEFDCF8EB58F2D61E00E9445
:101C60008C361F910F91FF900895362F242F6430EA
:101C700010F085E00895209565E3432F0E94190E2A
:101C800080E00895AF92BF92CF92DF92EF92FF92E1
:101C90000F931F93CF93DF93EC015A016B01C15A4D
:101CA000D74FE880F9800A811B81CF55D840CB01FE
:101CB000BA0120E030E040E050E00E94494087FD5A
:101CC00048C0FE01E255F74FC601B50120813181C0
:101CD000428153810E94DA411816DCF1C601B50138
:101CE000A80197010E944D409B01AC010E94D23F88
:101CF00023EF34E045EB5FE30E94234220E030E035
:101D000040E85EE30E94234220E030E04FE753E4E6
:101D10000E9423427B018C0120E030E04FE753E436
:101D20000E94DA411816ACF0C95AD74FA882B9827E
:101D3000CA82DB82C755D840C801B7010E94BA40A9
:101D40009B01AC01CE0163E0422F0E94350E80E082
:101D500001C088E0DF91CF911F910F91FF90EF902C
:101D6000DF90CF90BF90AF900895FC01E15AF74FFC
:101D700040835183628373833897408151816281AC
:101D80007381E755F840CF0120E00E94420E08958C
:101D9000CF92DF92EF92FF920F931F93CF93DF9337
:101DA0008C0184E6E82E88E0F82EE00EF11E680132
:101DB000C0E0D0E0F701EC0FFD1FC601CC59DF4FAA
:101DC000BE0140810E94F81EC356D040CE34D105DA
:101DD00089F7C80160E00E94F60EDF91CF911F9154
:101DE0000F91FF90EF90DF90CF900895BF92CF9228
:101DF000DF92EF92FF920F931F93CF93DF93EC014B
:101E0000B62E94E6E92E98E0F92EEC0EFD1E6E013A
:101E100000E010E0E881F981B8016C597F4F00883B
:101E2000F189E02DC6011995F701E00FF11F8083BC
:101E30000F5F1F4F0E34110569F7CC59D74F8881BA
:101E40009981C456D840892B39F5CA59D74F888112
:101E50009981C656D840892BF9F49E012859374FED
:101E6000F90180819181892BB9F4FE01E356F74F86
:101E7000C15AD74F88819981AA81BB81CF55D8405B
:101E800080839183A283B38381E090E0F901918301
:101E90008083CE010E94C80ECC59D74F888199818A
:101EA000C456D840892BE1F4CA59D74F888199810B
:101EB000C656D840892BA1F4FE01E859F74F80811E
:101EC0009181019769F4C659D74F80E28883CA5639
:101ED000D84082E090E091838083CE010E94C80EBA
:101EE000CC59D74F88819981C456D840892B11F598
:101EF000CA59D74F88819981C656D840892BD1F4C9
:101F0000FE01E859F74F80819181029799F4CF55EE
:101F1000D74F80E090E0A0EAB0E488839983AA8359
:101F2000BB83C15AD84083E090E091838083CE0187
:101F30000E94C80ECC59D74F88819981C456D84089
:101F4000892BD9F4CA59D74F88819981C656D84070
:101F5000892B99F4FE01E859F74F8081918103970D
:101F600061F4CB55D74F1882C55AD84084E090E031
:101F700091838083CE010E94C80ECC59D74F8881AF
:101F80009981C456D840892B91F5CA59D74F888179
:101F90009981C656D840892B51F5FE01E859F74F73
:101FA00080819181049719F5CA55D74F80E090E060
:101FB000A8ECB2E489939993A993B99380E090E453
:101FC000ACE9B6E489939993A993B99380E090E042
:101FD000A8E4B3E488839983AA83BB83CE5AD8400C
:101FE00085E090E091838083CE010E94C80ECC5999
:101FF000D74F88819981C456D840892B99F4CA5902
:10200000D74F88819981C656D840892B59F4C85931
:10201000D74F88819981C856D840059719F4BB20BD
:1020200009F49CC0CC59D74F199219921992199260
:1020300085E090E09983888324968CE7888380E705
:102040008A93229680E09CE7A2E9B8E48993999369
:10205000A993B99380E092E2A1EAB8E488839983D6
:10206000AA83BB832C9680E090E0AAE7B4E489932E
:102070009993A993B99380E090E4ACE1B6E4899395
:102080009993A993B99380E090E5A3ECB7E4899381
:102090009993A993B99380E094E2A4E7B9E4888383
:1020A0009983AA83BB83649780E090E0A0E0B0E0CE
:1020B00089939993A993B99388839983AA83BB83BE
:1020C00064968FEF96EEABE5BEE289939993A99360
:1020D000B99389939993A993B99389939993A99360
:1020E000B99388839983AA83BB83C959D840FE01D9
:1020F000E356F74FC15AD74F88819981AA81BB8196
:1021000080839183A283B3832B9680E28883E796B2
:1021100080E090E0A0EAB0E489939993A993B99301
:10212000199280E090E0A8ECB2E489939993A99386
:10213000B99380E090E4ACE9B6E489939993A993CC
:10214000B99380E090E0A8E4B3E488839983AA83FC
:10215000BB83CE5AD840CE010E94C80EC356D74F7B
:10216000E880F9800A811B81CD59D840C801B701A8
:1021700020E030E040E050E00E944940FE01ED598F
:10218000F74F18161CF081E0808307C0C15AD74F63
:10219000E882F9820A831B831082DF91CF911F911D
:1021A0000F91FF90EF90DF90CF90BF9008950F9325
:1021B0001F938C010E94F81EC80160E00E94F60E79
:1021C0001F910F9108959F92AF92BF92CF92DF928D
:1021D000EF92FF920F931F93CF93DF93EC015A017D
:1021E0006B01FC01EA55F74F608171818281938117
:1021F00024EA30E74DE75FE30E9423429B01AC01F4
:10220000C601B5010E94DA4188230CF4B7C0FE0173
:10221000E655F74F60817181828193812EEA37E420
:1022200041E85FE30E9423429B01AC01C601B50176
:102230000E94494018160CF4A1C0C601B50120E067
:1022400030E048E452E40E9423427B018C0120E00C
:1022500030E04AE754E40E94494087FD8FC0C8013E
:10226000B70120E233EB41E85CE40E94DA41181642
:102270000CF484C0C801B70120E030EE41E854E41A
:102280000E944D400E94E34126EA3BE944E550E4C8
:102290000E9423422EE83DE543E150E40E944D4078
:1022A0000E94BA40962E70E0665F7F4F882777FDC8
:1022B0008095982F0E94E8409B01AC0160E070E09F
:1022C00080E090E40E9486429B01AC01CA01B90102
:1022D00020E030EE41E055EC0E942342A801970136
:1022E0000E944D4020E030E040E055E40E94D23FA3
:1022F0007B018C0120E030E040E050E00E94DA41B8
:1023000088234CF0C801B70120E030E040E05FE3F3
:102310000E94D23F08C0C801B70120E030E040E091
:102320005FE30E94D13F0E94B5408B018BED9DE0A1
:1023300067E10E94A80AC80136E0969587953A950C
:10234000E1F7929420EF9222982A8BED9DE0692D7F
:102350000E94340B602F660F660F62608BED9DE06C
:102360000E94340B8BED9DE00E94770BC55AD74F2E
:10237000A882B982CA82DB8280E001C088E0DF9156
:10238000CF911F910F91FF90EF90DF90CF90BF9072
:10239000AF909F9008957F928F929F92AF92BF923D
:1023A000CF92DF92EF92FF920F931F93DF93CF9321
:1023B0000F920F92CDB7DEB75C019B01742ECB015B
:1023C00068E270E00E941044862EC90168E270E065
:1023D0000E9410446C0153E0969587955A95E1F759
:1023E000982E082D10E04AE6E42E48E0F42EEA0C80
:1023F000FB1CF7018081B801680F711D8BED9DE01A
:102400000E94B20A692D70E0685F7F4F8BED9DE0FE
:102410000E94340B8BED9DE00E94770BF7018081C9
:10242000080F111D8BED9DE0B80141E050E00E94C6
:10243000880B8BED9DE00E94BC0A892B11F481E092
:102440003BC00C2D0770F8E09F0E99828BED9DE04C
:102450000E94C50A282F772071F481E090E0A0E067
:10246000B0E004C0880F991FAA1FBB1F0A95D2F7BE
:10247000282B2A830EC081E090E0A0E0B0E004C0E9
:10248000880F991FAA1FBB1F0A95D2F78095822338
:102490008A838AE698E0A80EB91EF501608186E974
:1024A00097EFA80EB91E680DC501AE014F5F5F4FD3
:1024B00022E00E94211F80E00F900F90CF91DF91CA
:1024C0001F910F91FF90EF90DF90CF90BF90AF9052
:1024D0009F908F907F9008954F925F926F927F921E
:1024E0008F929F92AF92BF92CF92DF92EF92FF9224
:1024F0000F931F93DF93CF930F920F92CDB7DEB759
:102500008C012C01EE24F4E58F2EF8E09F2E880E2E
:10251000991EE5E4CE2EE8E0DE2EC80ED91E7AE63E
:10252000A72E78E0B72EA80EB91E3E010894611CB4
:10253000711C33C068E0F62E30E040E050E0F60158
:1025400080819181F801E80FF91FE259FF4F208146
:102550000196F6019183808380E090E0222311F4BC
:1025600081E090E0042E02C0880F991F0A94E2F7E0
:10257000380F4F5F5F4F4830510509F73A83F50137
:1025800060816E0DF982C201A30122E00E94211F29
:10259000F394FDE0FF1681F6E3942E2D30E0F40174
:1025A0008081918168E270E00E941044261737070D
:1025B00008F20F900F90CF91DF911F910F91FF9034
:1025C000EF90DF90CF90BF90AF909F908F907F90D3
:1025D0006F905F904F9008952F923F924F925F922D
:1025E0006F927F928F929F92AF92BF92CF92DF9223
:1025F000EF92FF920F931F93DF93CF93CDB7DEB788
:10260000E2970FB6F894DEBF0FBECDBF7C0189AB59
:10261000FAAA0E947D1F85E361E00E94D93589E016
:1026200061E00E94D93588E061E00E94D93588E0F8
:1026300060E00E948C3664EF71E080E090E00E94E0
:102640003434D701ED91FC910680F781E02DC7016C
:102650001995BC0189EB90E10E94443D89EB90E122
:1026600060E372E00E94443DD701ED91FC91048447
:10267000F585E02DC7011995BC0189EB90E10E9419
:10268000413E89EB90E163E372E00E94443DD70153
:10269000ED91FC910284F385E02DC7011995BC01F1
:1026A00089EB90E10E94413EC7010E94451F89E0ED
:1026B00060E00E948C36EFE5F8E0EE0EFF1E80E051
:1026C00090E0A6E9B3E4F70180839183A283B3830A
:1026D00021EA37EFE20EF31EC70160E00E94F60E1A
:1026E00089EB90E166E472E00E94443D84E698E064
:1026F000E80EF91ED7016D917D917D0189EB90E186
:102700004AE050E00E94743C89EB90E16DE572E094
:102710000E94443DF701619171917F0189EB90E145
:102720004AE050E00E94743C89EB90E16DE572E074
:102730000E94443DD7016D917C91E8E9F7EFEE0EE0
:10274000FF1E89EB90E14AE050E00E94853C89EB56
:1027500090E16FE572E00E94443DF701E559F74FC3
:1027600089EB90E160814AE050E00E94B43C89EB43
:1027700090E16FE672E00E94443DF701E459F74FA3
:1027800089EB90E160814AE050E00E94B43C10E0A7
:1027900073E0272E312C2C0E3D1E61E1462E512C6C
:1027A0004C0E5D1E5FE1652E712C6C0E7D1E48E1A6
:1027B000842E912C8C0E9D1E36E2A32EB12CAC0ED5
:1027C000BD1ECFC0CE010A9665E772E00E94603F51
:1027D000C101612F4AE00E94933FCE010A96B101E8
:1027E0000E94293F67E772E00E940D3F98AB8FA7D8
:1027F000C2016D2D4AE00E94933F8FA598A9B201B6
:102800000E94293F6BE872E00E940D3FBC0189EBFA
:1028100090E10E94543EC2010E94C53FC1010E9446
:10282000C53FCE010A960E94CB3F112339F01130EB
:1028300081F040E050E060E070E019C0ED2DF0E084
:10284000EE0FFF1FEE0FFF1FEE0DFF1DE359F74FB9
:102850000AC0ED2DF0E0EE0FFF1FEE0FFF1FEE0D93
:10286000FF1DE358F74F408151816281738189EBED
:1028700090E122E030E00E942E3EC30165E772E065
:102880000E94603FC401612F4AE00E94933FC30150
:10289000B4010E94293F6EE872E00E940D3F9EA79E
:1028A0008DA7C5016D2D4AE00E94933F8DA59EA581
:1028B000B5010E94293F6BE872E00E940D3FBC0108
:1028C00089EB90E10E94543EC5010E94C53FC401BE
:1028D0000E94C53FC3010E94CB3F112339F0113044
:1028E00081F060E070E080E090E019C0ED2DF0E054
:1028F000EE0FFF1FEE0FFF1FEE0DFF1DEB58F74F02
:102900000AC0ED2DF0E0EE0FFF1FEE0FFF1FEE0DE2
:10291000FF1DE357F74F608171818281938125EA22
:1029200034ED48E653E50E942342AB01BC0189EB3C
:1029300090E122E030E00E942B3E89EB90E163EAD7
:1029400072E00E94413ED394112321F0113031F402
:1029500084E001C082E0D81608F434CF1F5F123043
:1029600011F0DD24F1CF89EB90E167EA72E00E947B
:10297000443D1AE6C12E18E0D12ECE0CDF1C89EBA7
:1029800090E1D6016C914AE050E00E94B43C89EBA2
:1029900090E164EC72E00E94443DEDE9F8E0EE0E57
:1029A000FF1ED7014D915D916D917D917D0189EB68
:1029B00090E122E030E00E942E3E89EB90E164ED50
:1029C00072E00E94443DF7014191519161917191F2
:1029D0007F0189EB90E122E030E00E942E3E89EBFE
:1029E00090E167EE72E00E94443DD7016C9189EB63
:1029F00090E170E04AE050E00E94253D89EB90E1D3
:102A000060E073E00E94443DEEEBFFEFEE0EFF1E30
:102A1000D7016C9189EB90E170E04AE050E00E94B0
:102A2000253D89EB90E16CE173E00E94443DE3E4D5
:102A3000F0E0EE0EFF1ED7014D915D916D917D91FD
:102A40007D0189EB90E122E030E00E942E3E89EB8F
:102A500090E164E373E00E94443DF701419151919C
:102A6000619171917F0189EB90E122E030E00E9459
:102A70002E3E89EB90E16CE473E00E94443DD70167
:102A80004D915D916D917C91E2E5F7EFEE0EFF1EA9
:102A900089EB90E122E030E00E942E3EF701EC5AF3
:102AA000F74F11821082AA24BB24B8E28B2E912CFE
:102AB000A8E12A2E33243A943E010894611C711C2B
:102AC0002F011A2D29823A82D6016C916A0D89A9AB
:102AD0009AA9A30122E00E94211FF60160816A0DDC
:102AE00089A99AA9A30121E00E94021F89818F3F31
:102AF00009F047C000E0085E098308511A82D60138
:102B00006C91610F89A99AA9A30122E00E94211F5B
:102B1000F6016081610F89A99AA9A30121E00E94B1
:102B2000021F8981882369F5085F09833A82D601EB
:102B30006C91610F89A99AA9A30122E00E94211F2B
:102B400007500530C1F689EB90E162E673E00E9420
:102B5000443D89EB90E1B5014AE050E00E94123D0E
:102B600089EB90E16CE673E00E94413E94012852AB
:102B70003040F201808191818217930711F4918294
:102B800080820894A11CB11C28E230E0820E931EC2
:102B900038E0A316B10409F094CF84E598E0E80E7C
:102BA000F91ED7016D917C91ECEAF7EFEE0EFF1E56
:102BB00089EB90E14AE050E00E94743C89EB90E19F
:102BC00068E773E00E94413EF701E459F74FC701FF
:102BD00061E040810E94350EF701E559F74FC701CA
:102BE00062E040810E94350EC70163E040E00E9430
:102BF000350E25EA38E0E20EF31ED7018C91EBE5A5
:102C0000F7EFEE0EFF1E882321F0C70160E042E0DF
:102C100003C0C70160E041E00E947933C70140E092
:102C200050E46CE176E40E94E310E2960FB6F8946B
:102C3000DEBF0FBECDBFCF91DF911F910F91FF90EF
:102C4000EF90DF90CF90BF90AF909F908F907F904C
:102C50006F905F904F903F902F9008952F923F92EA
:102C60004F925F926F927F928F929F92AF92BF929C
:102C7000CF92DF92EF92FF920F931F93DF93CF9348
:102C8000CDB7DEB765970FB6F894DEBF0FBECDBFE8
:102C90003C016B8B862F90E0FC01E05AF040E6355A
:102CA000F10508F01EC7EE58FF4FEE0FFF1F05900D
:102CB000F491E02D199420E438E0620E731ED301E4
:102CC0008D919C91E0ECF7EF6E0E7F1E830104590D
:102CD0001F4F892B09F0CCC6B3016C5A774FC30143
:102CE00042E050E02DC120E438E0620E731ED301B3
:102CF0008D919C91E0ECF7EF6E0E7F1E83010459DD
:102D00001F4F892B09F0B4C6D8011C926C8A7D8AAA
:102D1000CC24E4E58E2EE8E09E2E860C971C7AE605
:102D2000272E78E0372E260C371C580154C068E057
:102D3000D62E2901F1018081B201680F711D8BED42
:102D40009DE00E94B20A8BED9DE06D2D0E94340B38
:102D50008BED9DE00E94770BD1018C91B201680F41
:102D6000711D8BED9DE041E050E00E94880B8BEDE2
:102D70009DE00E94BC0A892B21F18BED9DE00E9411
:102D8000C50A00E010E0E82EFF24C701002E02C0B3
:102D9000959587950A94E2F7E1E0F0E08E279F276A
:102DA000817089838C899D89BE016F5F7F4F41E06F
:102DB00050E00E94BC1D0F5F1F4F0830110529F71E
:102DC00004C0E1E0D501EC9305C0D394FDE0DF162B
:102DD00009F0B0CFC3942C2D30E0D4018D919C919B
:102DE00068E270E00E9410442617370708F49FCF6E
:102DF00078C6F301E05CF74F24E538E0620E731EFD
:102E000020813181D3018D919C91ECEAF7EF6E0E18
:102E10007F1E830104591F4F2817390709F028C660
:102E2000C3010E946C12D8011C925BC620E438E0FA
:102E3000620E731ED3018D919C91E0ECF7EF6E0E44
:102E40007F1E029709F042C6D301AB5BB74F8D914D
:102E50009C91119782599F4FF301E80FF91F019040
:102E6000F081E02D8C5690408D939C9324E538E0C2
:102E7000620E731ED3018D919C912CEA37EF620E86
:102E8000731EE817F90730F04CE650E0640E751E2B
:102E900085E021C6CF0168E270E00E9410446C0119
:102EA000CF0168E270E00E941044062F10E05AE65D
:102EB000E52E58E0F52EE60CF71CD7018C91B801F1
:102EC000680F711D8BED9DE00E94B20AB60143E0D0
:102ED000769567954A95E1F770E0685F7F4F8BEDD7
:102EE0009DE00E94340B8BED9DE00E94770BF70173
:102EF0008081080F111D8BED9DE0B80141E050E08D
:102F00000E94880B8BED9DE00E94BC0A830104594E
:102F10001F4F892BC1F08BED9DE00E94C50A90E008
:102F20002C2D277002C0959587952A95E2F78095FC
:102F300081708983C301BE016F5F7F4F41E050E024
:102F40000E94BC1D70CF81E0F8018083CAC520E4D7
:102F500038E0620E731ED3018D919C91E0ECF7EF87
:102F60006E0E7F1E039709F0B1C5D301AB5BB74F5F
:102F70008D919C911197FC01E259FF4FE60DF71DD1
:102F800060817181F301E80FF91FE059FF4F408123
:102F900003968D939C9324E538E0620E731ED30153
:102FA0008D919C91ECEAF7EF6E0E7F1E8301045920
:102FB0001F4F6817790708F09CC2C3010E94CB110C
:102FC00012C520E438E0620E731ED3018D919C91EE
:102FD000E0ECF7EF6E0E7F1E830104591F4F892B23
:102FE00009F046C5D8011C9289E00E94BF369EC4F4
:102FF00020E438E0620E731ED3018D919C91E0ECC9
:10300000F7EF6E0E7F1E019709F060C5D301AB5B31
:10301000B74F8D919C911197F301E80FF91FE25979
:10302000FF4F608101968D939C93830104591F4F3C
:10303000623020F489E00E948C36F5CE88E084CF9F
:1030400020E438E0620E731ED3018D919C91E0EC78
:10305000F7EF6E0E7F1E830104591F4F892B09F075
:1030600007C5D8011C92B301695A774FC30144E0E8
:1030700050E00E94BC1D35C520E438E0620E731E8E
:10308000D3018D919C91E0ECF7EF6E0E7F1E8301D2
:1030900004591F4F049709F0EBC4D301AB5BB74F42
:1030A0008D919C91119782599F4FF301E80FF91F61
:1030B00040815181628173818A5690408D939C93A7
:1030C000C30121E00E94420E8EC420E438E0620E6B
:1030D000731ED3018D919C91E0ECF7EF6E0E7F1E75
:1030E000830104591F4F892B09F0C2C4D8011C92D7
:1030F000B301655A774FBACF20E438E0620E731EF1
:10310000D3018D919C91E0ECF7EF6E0E7F1E830151
:1031100004591F4F049709F0ABC4D301AB5BB74F01
:103120008D919C91119782599F4FF301E80FF91FE0
:1031300040815181628173818A5690408D939C9326
:10314000C3010E94E3104FC420E438E0620E731EF6
:10315000D3018D919C91E0ECF7EF6E0E7F1E0197ED
:1031600009F0B4C4D301AB5BB74F8D919C9111971B
:10317000F301E80FF91FE259FF4F208101968D936B
:103180009C93830104591F4F223008F0B2C130E0F4
:103190008BE190E0289FF001299FF00D389FF00D02
:1031A0001124E65AF14F81818983D8011C92C30111
:1031B000BE016F5F7F4F41E050E05BCF20E438E01D
:1031C000620E731ED3018D919C91E0ECF7EF6E0EB1
:1031D0007F1E830104591F4F029709F049C4D30190
:1031E000AB5BB74F2D913C911197F301E20FF31FA9
:1031F000E259FF4F80812F5F3F4FF301E20FF31F32
:10320000E259FF4F60812F5F3F4F2D933C930E9407
:10321000512DE9C320E438E0620E731ED3018D9175
:103220009C91E0ECF7EF6E0E7F1E019709F04EC403
:10323000D301AB5BB74F8D919C911197F301E80FD0
:10324000F91FE259FF4F408101968D939C938301B2
:1032500004591F4F423008F04CC1D8011C92242F52
:1032600030E08BE190E0289FF001299FF00D389F1E
:10327000F00D1124E65AF14FE181442321F0413051
:1032800009F0ACC00AC0F0E0EE0FFF1FEE0FFF1F09
:10329000E60DF71DE359F74FB9C0F0E0EE0FFF1F41
:1032A000EE0FFF1FE60DF71DE358F74FAFC020E408
:1032B00038E0620E731ED3018D919C91E0ECF7EF24
:1032C0006E0E7F1E830104591F4F059709F08AC3B4
:1032D000A3014B5B574FDA012D913C911197F301FC
:1032E000E20FF31FE259FF4FE0812F5F3F4F2D9315
:1032F0003C9321503040D8011C92EE2321F0E13064
:1033000009F0F7C01AC0E0915B0EF0E021593F4F81
:10331000D301A20FB31FED90FD900D911C912A5681
:103320003040DA012D933C93EE0FFF1FEE0FFF1F8D
:10333000E60DF71DE359F74FD4C0E091760EF0E0AB
:1033400021593F4FD301A20FB31FED90FD900D9176
:103350001C912A563040DA012D933C93EE0FFF1F4B
:10336000EE0FFF1FE60DF71DE358F74FBAC0E0E47C
:10337000F8E06E0E7F1ED3018D919C91E0ECF7EF8B
:103380006E0E7F1E019709F0A1C3D301AB5BB74F4F
:103390008D919C911197F301E80FF91FE259FF4FAE
:1033A000408101968D939C93830104591F4F4230B5
:1033B00008F09FC0D8011C92242F30E08BE190E0F0
:1033C000289FF001299FF00D389FF00D1124E65A37
:1033D000F14FE181442339F0413079F080E090E011
:1033E000A0E0B0E017C0F0E0EE0FFF1FEE0FFF1FF0
:1033F000E60DF71DEB58F74F09C0F0E0EE0FFF1F89
:10340000EE0FFF1FE60DF71DE357F74F8081918107
:10341000A281B38189839A83AB83BC83C301BE013C
:103420006F5F7F4F24CE20E438E0620E731ED3011D
:103430008D919C91E0ECF7EF6E0E7F1E8301045995
:103440001F4F059709F0CEC2A3014B5B574FDA011E
:103450002D913C911197F301E20FF31FE259FF4FB9
:10346000E0812F5F3F4F2D933C9321503040D80196
:103470001C92EE2319F0E130E1F51AC0E0915B0EE9
:10348000F0E021593F4FD301A20FB31FED90FD9003
:103490000D911C912A563040DA012D933C93EE0F8A
:1034A000FF1FEE0FFF1FE60DF71DEB58F74F19C07A
:1034B000E091760EF0E021593F4FD301A20FB31FE8
:1034C000ED90FD900D911C912A563040DA012D931C
:1034D0003C93EE0FFF1FEE0FFF1FE60DF71DE357A6
:1034E000F74FE082F18202831383C3010E94C80E6A
:1034F000F8C285E029CDE0E4F8E06E0E7F1ED3012E
:103500008D919C91E0ECF7EF6E0E7F1E83010459C4
:103510001F4F892B09F0ACC2D8011C92B301615A2C
:10352000774FA4CD20E438E0620E731ED3018D9155
:103530009C91E0ECF7EF6E0E7F1E049709F0C6C277
:10354000F301EB5BF74F8081918182599F4FD3014B
:10355000A80FB91FED90FD900D911C918A569040D7
:1035600091838083C801B70120E030E040E050E063
:103570000E94DA41181664F5F301ED59F74F808186
:10358000882379F02FE538E0620E731ED301ED92A7
:10359000FD920D931C931397E1EAF7EF6E0E7F1ED9
:1035A00012C02DE938E0620E731ED301ED92FD9238
:1035B0000D931C93139723E637EF620E731E108250
:1035C000C3010E94C80E4CE650E0640E751E7BC21B
:1035D0002CE630E0620E731E88E07DC220E438E005
:1035E000620E731ED3018D919C91E0ECF7EF6E0E8D
:1035F0007F1E830104591F4F892B09F039C2D8015E
:103600001C9210E0F301E356F74F608171818281D3
:10361000938120E030E040E050E00E9449401816DD
:103620000CF011E01983C3CD20E438E0620E731E64
:10363000D3018D919C91E0ECF7EF6E0E7F1E019708
:1036400009F044C2D301AB5BB74F8D919C911197A8
:10365000F301E80FF91FE259FF4F208101968D9386
:103660009C93F301E356F74F222349F080E090E06A
:10367000A0E0B0E080839183A283B38311C02FE5E3
:1036800038E0620E731ED3012D913D914D915C91F6
:1036900061EA77EF660E771E20833183428353837E
:1036A000C3010E94C80E8CE690E0680E791E0BC222
:1036B00020E438E0620E731ED3012D913C91E0ECC2
:1036C000F7EF6E0E7F1E2A30310508F4FFC1D301DB
:1036D000AB5BB74F8D919C911197FC01E259FF4F65
:1036E000E60DF71D40815181628173814F87588BB0
:1036F000698B7A8B049611969C938E930497FC01A8
:10370000EE58FF4FE60DF71D608171817E876D8752
:10371000FC01EC58FF4FE60DF71D4081518162819D
:10372000738149875A876B877C87F301E80FF91FFC
:10373000E858FF4F10810B968D939C932B303105E9
:1037400081F064E578E0660E771ED3018D919C913F
:10375000ECEAF7EF6E0E7F1E0B962817390709F07B
:10376000E3C12D853E852B54314008F0ADC06F85F7
:10377000788989899A8920E030E04AE754E40E94F8
:103780004D4020E030E44CE157E40E94234220E029
:1037900030E040E855E40E94494088230CF094C092
:1037A0006CE670E0660E771ED3011C92E4E9FFEF31
:1037B0006E0E7F1EF301E05CF74F24E538E0620EE9
:1037C000731ED3018D919C912CEA37EF620E731E0C
:1037D0000B96208131812817390719F4C3010E9403
:1037E0006C12A12E0E940E341B012C014BE558E0F7
:1037F000640E751ED301CD90DD90ED90FC90E5EA4E
:10380000F7EF6E0E7F1EF0E010FDF1E0E0E0A1FCAE
:10381000E1E06F85788989899A894D855E8509857A
:103820001A852B853C85AF2E8E2E0E94A12D0E94DD
:103830000E3462197309840995090E94E6407B01E0
:103840008C012D853E85B90180E090E00E94E64024
:1038500020E030E04AE754E40E9423429B01AC019F
:10386000C801B7010E944D4069837A838B839C8392
:10387000C301BE016F5F7F4F44E050E00E94BC1D5A
:10388000C30161E77EE044E050E00E94BC1DC3013B
:103890006CE87EE044E050E00E94BC1D4FE558E03B
:1038A000640E751EF30180819181A281B38121EAAA
:1038B00037EF620E731E8D839E83AF83B887C3017B
:1038C000BE016B5F7F4FD3CB4CE650E0640E751E9C
:1038D00081E001C120E438E0620E731ED3018D91B6
:1038E0009C91E0ECF7EF6E0E7F1E830104591F4F91
:1038F000892B09F0BDC0D8011C92C30161E00E9470
:10390000F60EEFC020E438E0620E731ED3018D91F5
:103910009C91E0ECF7EF6E0E7F1E830104591F4F60
:10392000892B09F0A5C0D8011C9288E089833FCC7F
:1039300020E438E0620E731ED3018D919C91E0EC7F
:10394000F7EF6E0E7F1E830104591F4F892B09F07C
:1039500049C0D8011C92E2E5F8E06E0E7F1ED3014B
:103960008C91EEEAF7EF3BC0E0E4F8E06E0E7F1ECC
:10397000D3018D919C91E0ECF7EF6E0E7F1E0197C5
:1039800009F0A4C0D301AB5BB74F8D919C91119707
:10399000F301E80FF91FE259FF4F208101968D9343
:1039A0009C93F301EE5AF74F41C020E438E0620ED9
:1039B000731ED3018D919C91E0ECF7EF6E0E7F1E8C
:1039C000830104591F4F892B69F4D8011C92E3E548
:1039D000F8E06E0E7F1ED3018C91EDEAF7EF6E0ECC
:1039E0007F1EA4CF86E0D8018C937BC0E0E4F8E092
:1039F0006E0E7F1ED3018D919C91E0ECF7EF6E0E61
:103A00007F1E019709F062C0D301AB5BB74F8D9168
:103A10009C911197F301E80FF91FE259FF4F2081A4
:103A200001968D939C93F301ED5AF74F222319F0E1
:103A300081E0808344C0108242C020E438E0620EFE
:103A4000731ED3018D919C91E0ECF7EF6E0E7F1EFB
:103A5000830104591F4F892B59F4D8011C9288E027
:103A60000E94BF361982892B09F0A1CB81E05ECF7D
:103A700086E06ACA20E438E0620E731ED3018D919D
:103A80009C91E0ECF7EF6E0E7F1E0197F9F4D301E5
:103A9000AB5BB74F8D919C911197F301E80FF91F24
:103AA000E259FF4F208101968D939C93222319F0B8
:103AB00088E060E002C088E061E00E948C362CE67D
:103AC00030E0620E731ED3011C9207C02CE630E07A
:103AD000620E731E86E0D3018C93E4E9FFEF6E0E55
:103AE0007F1EC3016B890E9411222CE630E0620E1A
:103AF000731ED3018C9165960FB6F894DEBF0FBE8E
:103B0000CDBFCF91DF911F910F91FF90EF90DF908C
:103B1000CF90BF90AF909F908F907F906F905F906D
:103B20004F903F902F900895ECE6F0E06E0E7F1ED0
:103B3000D1CFFC0181E794E091838083CF010E9483
:103B4000B61D08950F931F938C0161E00E941C2005
:103B500081E794E0F801918380830E5A174FF801B2
:103B6000119210821F910F9108950895FC0188E928
:103B700094E09183808308950F931F93CF93DF93F5
:103B80008C0120E030E0EC01C95BD74F10C0F80198
:103B9000E20FF31F88819981E80FF91FE259FF4F67
:103BA000DB01A20FB31F8C9180832F5F3F4F24173F
:103BB000350768F388819981840F951F99838883DD
:103BC000DF91CF911F910F910895CF93DF93DC0187
:103BD000FC01E359FF4F6081EC01C459DF4F67FFDF
:103BE0000EC06058608382E08883ED91FC9111974C
:103BF00060580488F589E02DCD0119950EC0FC01AF
:103C0000E05CF74F80819181A80FB91FA359BF4F86
:103C10002C912883019791838083DF91CF91089520
:103C2000CF93DF93EC01FC01E75BF74F6D3719F49D
:103C300081E08083DAC09081992311F080E26827C7
:103C40006E3749F4992339F4CD5BD74F1982188226
:103C5000C354D840C4C0CD5BD74F28813981C354E9
:103C6000D84021153105A1F4C359DF4F6883C152F3
:103C7000D84F8881CC54D840882309F448C0C15B10
:103C8000D74F8FEF9FEF99838883CF54D8403FC0A1
:103C900021303105B1F4DE01AE5BB74FFE01E05CCF
:103CA000F74F67FF09C083E08C93862F90E08F77F2
:103CB0009070108281832BC082E08C93608311828C
:103CC00026C02230310589F4CE5BD74F8881C2549B
:103CD000D840833051F4FE01E05CF74F8081918140
:103CE000860F911D9183808312C0CE5BD74F888150
:103CF000F901E81BF1099A918A91C054D840E8175C
:103D0000F90728F4EC0FFD1FE259FF4F6083C45BF5
:103D1000D74F8881CC54D8408823F1F0FE01E15B75
:103D2000F74F808191818627282F22952827022E00
:103D3000269526952025022E269520252770082ECB
:103D4000892F269507942795902D822706942795ED
:103D50009025822791838083FE01ED5BF74F4081A0
:103D600051814F5F5F4F51834083CE5BD74F888136
:103D70003A912A91280F311D2C966881CC54D84055
:103D8000862F90E0880F991F280F391F421753077D
:103D900031F511821082CB5BD74F1992199219829B
:103DA0001882C754D840662341F0C15BD74F888141
:103DB0009981CF54D840892B19F4CE010E94E51D7A
:103DC000FE01E55BF74F9081992349F0C359DF4F1E
:103DD00090588881CD56D040891709F41082FE0191
:103DE000E75BF74F808181111082DF91CF910895B9
:103DF0008FE89DE00E94310808958FE89DE00E94C1
:103E00002A0808951F93CF93DF93EA018BED9DE07D
:103E1000422F0E948C0B10E009C08BED9DE00E94A8
:103E2000C50AFE01E10FF11D80831F5F8BED9DE050
:103E30000E94BC0A892B89F7812FDF91CF911F91B6
:103E40000895FF920F931F93CF93DF93142F052FA5
:103E5000F22E8BED9DE00E94A80A212F302FC90180
:103E6000EC0110E006C08BED9DE069910E94340BDF
:103E70001F5F1F15C0F38BED9DE00E94770BDF9154
:103E8000CF911F910F91FF9008951F9318E08BED34
:103E90009DE0612F0E94A80A8BED9DE00E94770BA8
:103EA000882331F589EB90E16FE873E00E94443D8F
:103EB00089EB90E1612F4AE050E00E94A23C89EB3F
:103EC00090E163EA73E00E94443D89EB90E1612F49
:103ED00040E150E00E94A23C89EB90E168EA73E087
:103EE0000E94413E61E070E080E090E00E94343446
:103EF0001F5F183761F61F910895AF92BF92CF925E
:103F0000DF92EF92FF920F931F93DF93CF9300D036
:103F10000F92CDB7DEB77C016E010894C11CD11C95
:103F200056010FE010E0D701ED91FC910088F18976
:103F3000E02DC701B8011995F50181935F010F5F6D
:103F40001F4F0331110579F789819A81AB81BC81BB
:103F50008F5F9F4FAF4FBF4FD9F480E092ECA1E04D
:103F6000B0E089839A83AB83BC830FE010E0D70174
:103F7000ED91FC910288F389E02DC701B801D601CB
:103F80004D916D0119950F5F1F4F0331110579F7A1
:103F900049815A816B817C8189EB90E10E9434399F
:103FA0008BED9DE00E94900B0E94660A0E946007C4
:103FB000870108591F4FF8016083718382839383BF
:103FC00089EB90E16AEA73E00E94443DD8014D918B
:103FD0005D916D917C9189EB90E122E030E00E944F
:103FE0002B3E89EB90E16CEB73E00E94413E0F9019
:103FF0000F900F900F90CF91DF911F910F91FF9035
:10400000EF90DF90CF90BF90AF900895CF93DF9364
:10401000EC0108C089EB90E10E94EC39682FCE01D9
:104020000E94101E89EB90E10E94BB3918161906F8
:104030008CF3DF91CF9108957F928F929F92AF92F0
:10404000BF92CF92DF92EF92FF920F931F93CF9385
:10405000DF93FC0188E994E091838083E45BF74F70
:1040600060833997118210823696108239971182B7
:104070001082359611921192118210823A96108216
:10408000AA24BB24882499248FE89DE0B5010E94CE
:104090002A08182FB501695F7F4F8FE89DE00E94C5
:1040A0002A08E401EE24FF24C12EDD24C094D0941C
:1040B000082F10E000951095C633D105B4F4B60171
:1040C0000E2C02C0759567950A94E2F761708C2FEB
:1040D0000E94D935B8010E2C02C0759567950A94D7
:1040E000E2F761708C2F0E948C360894E11CF11C61
:1040F000219688E0E816F104F9F60894A11CB11C99
:1041000088E090E0880E991E97E0A916B10409F0A6
:10411000BBCFDF91CF911F910F91FF90EF90DF9078
:10412000CF90BF90AF909F908F907F9008951F93F6
:10413000162F862F8D57823050F489EB90E16DE772
:104140000E94253A60E2612789EB90E102C089EB89
:1041500090E10E94253A1F9108958F929F92AF920D
:10416000BF92CF92DF92EF92FF920F931F93CF9364
:10417000DF93EC01BEE6EB2EF12CE80EF91E00E019
:1041800010E0A0E48A2EA8E09A2E880E991EFCE486
:10419000AF2EF8E0BF2EA80EB91EEDE4CE2EE8E05B
:1041A000DE2EC80ED91E2AC0F50180818823F1F0C9
:1041B000F7012081F601808191818227282F2295A5
:1041C0002827022E269526952025022E2695202585
:1041D0002770082E892F269507942795902D8227E2
:1041E000069427959025822791838083CE01F7013D
:1041F00061917F010E9497200F5F1F4FF401808122
:1042000091810817190708F4CFCFF5018081882321
:1042100069F08E01035B174FCE01F80160810E94A7
:104220009720F8016181CE010E949720C05CD74F92
:1042300019821882279619821882DF91CF911F91D7
:104240000F91FF90EF90DF90CF90BF90AF909F9035
:104250008F9008950F931F93CF93DF93EC01062F58
:10426000FC01E05CF74FC95BD74F8881998191834E
:10427000808389EB90E16EE70E94253A259688813C
:10428000CC54D8408823F9F0C35BD74F8FEF9FEF12
:104290008027282F22952827022E2695269520252F
:1042A000022E269520252770082E892F2695079403
:1042B0002795902D8227069427959025822799830C
:1042C0008883CD54D840CE01602F0E949720DE0114
:1042D000A05CB74F2D913C911197FE01E45BF74F25
:1042E0002038310530F580818823F1F0FE01E35B51
:1042F000F74F808191818227282F22952827022E2F
:10430000269526952025022E269520252770082EF5
:10431000892F269507942795902D82270694279517
:104320009025822791838083CE01C05CD74F68811E
:1043300049C08081882309F437C03068FE01E35BFF
:10434000F74F808191818327282F22952827022EDD
:10435000269526952025022E269520252770082EA5
:10436000892F269507942795902D822706942795C7
:10437000902582272C918227282F22952827022EEC
:10438000269526952025022E269520252770082E75
:10439000892F269507942795902D82270694279597
:1043A00090258227918380838E01005C174FF8014E
:1043B000208131813068CE01632F0E949720CE0189
:1043C000F80160810E949720DF91CF911F910F919A
:1043D00008950F931F93DF93CF930F92CDB7DEB75E
:1043E0008C016983DC01A95BB74F8D919C9111977A
:1043F000F801E80FF91FE259FF4F608301968D9392
:104400009C93F801E359FF4FC80160810E942A2163
:10441000C8010E94AD200F90CF91DF911F910F91A5
:1044200008956F927F929F92AF92BF92CF92DF9248
:10443000EF92FF920F931F93DF93CF93CDB7DEB729
:104440006C970FB6F894DEBF0FBECDBF7C016DB682
:104450007EB670E0CB01805890408E31910508F017
:10446000C9C688539F4FD701A05CB74FFC01EE0F20
:10447000FF1F0590F491E02D19948D919C91892B4B
:1044800009F0FAC5D701ED91FC910280F381E02D8E
:10449000C70119958C01D701ED91FC910280F38140
:1044A000E02DC7011995DC010D900020E9F7AD0161
:1044B00041505040481B590B20E030E0B701695B88
:1044C000774F11C0F701E20FF31FDB018D919C9133
:1044D000E80FF91FE259FF4FD801A20FB31F8C91CB
:1044E00080832F5F3F4F2417350760F3E7C08D911E
:1044F0009C91892B09F0C0C5D701ED91FC910480F6
:10450000F581E02DC70119958C01D701ED91FC9142
:104510000480F581E02DC7011995DC010D90002084
:10452000E9F7AD0141505040481B590B20E030E005
:10453000B701695B774F11C0F701E20FF31FDB0191
:104540008D919C91E80FF91FE259FF4FD801A20FFE
:10455000B31F8C9180832F5F3F4F2417350760F383
:10456000ADC08D919C91892B09F086C5D701ED9145
:10457000FC910680F781E02DC70119958C01D701C8
:10458000ED91FC910680F781E02DC7011995DC01C2
:104590000D900020E9F7AD0141505040481B590BE8
:1045A00020E030E0B701695B774F11C0F701E20FFF
:1045B000F31FDB018D919C91E80FF91FE259FF4F2A
:1045C000D801A20FB31F8C9180832F5F3F4F241718
:1045D000350760F373C08D919C91892B09F04CC510
:1045E000D701ED91FC910084F185E02DC70119956B
:1045F0008C01D701ED91FC910084F185E02DC7017C
:104600001995DC010D900020E9F7AD0141505040B3
:10461000481B590B20E030E0B701695B774F11C0B0
:10462000F701E20FF31FDB018D919C91E80FF91F59
:10463000E259FF4FD801A20FB31F8C9180832F5FE7
:104640003F4F2417350760F339C08D919C91892B1A
:1046500009F012C5D701ED91FC910284F385E02D9C
:10466000C70119958C01D701ED91FC910284F38566
:10467000E02DC7011995DC010D900020E9F7AD018F
:1046800041505040481B590B20E030E0B701695BB6
:10469000774F11C0F701E20FF31FDB018D919C9161
:1046A000E80FF91FE259FF4FD801A20FB31F8C91F9
:1046B00080832F5F3F4F2417350760F3FB01808114
:1046C0009181840F951F918380832CE630E0E20E68
:1046D000F31ED7011C92E4E9FFEFEE0EFF1E8AC520
:1046E0008D919C91892B09F0C7C4D701ED91FC9164
:1046F0000484F585E02DC70119958C01D701ED9152
:10470000FC910484F585E02DC7011995DC010D901D
:104710000020E9F7AD0141505040481B590B20E003
:1047200030E0B701695B774F11C0F701E20FF31F6B
:10473000DB018D919C91E80FF91FE259FF4FD801E1
:10474000A20FB31F8C9180832F5F3F4F2417350733
:1047500060F3B4CF8D919C91892B09F08DC4D70162
:10476000ED91FC910684F785E02DC70119958C0128
:10477000D701ED91FC910684F785E02DC7011995CD
:10478000DC010D900020E9F7AD0141505040481B7D
:10479000590B20E030E0B701695B774F11C0F7019A
:1047A000E20FF31FDB018D919C91E80FF91FE25995
:1047B000FF4FD801A20FB31F8C9180832F5F3F4F13
:1047C0002417350760F37ACF8D919C91892B09F0DE
:1047D00053C420E030E0B701695B774FF701E20F87
:1047E000F31FDB014D915C91E40FF51FE259FF4F80
:1047F000D901A757BB4F8C9180832F5F3F4F2A3041
:10480000310561F7465F5F4F1FC28D919C91870113
:1048100004591F4F029709F0D0C3D701AB5BB74FC4
:104820002D913C911197F701E20FF31FE259FF4FD1
:1048300080812F5F3F4FF701E20FF31FE259FF4FD7
:1048400060812F5F3F4F2D933C930E94D935B2C3B7
:104850008D919C91870104591F4F029709F0ADC3B8
:10486000D701AB5BB74F2D913C911197F701E20F48
:10487000F31FE259FF4F80812F5F3F4FF701E20F97
:10488000F31FE259FF4F60812F5F3F4F2D933C9301
:104890000E948C368FC38D919C91870104591F4FC4
:1048A000019709F08AC3D701AB5BB74F2D913C91BB
:1048B0001197F701E20FF31FE259FF4F80812F5F3D
:1048C0003F4F2D933C930E94BF368983D701A95B4C
:1048D000B74F2D913C911197F701E20FF31FE25969
:1048E000FF4F80832F5F3F4F2D933C9363C38D9188
:1048F0009C91870104591F4F029709F05EC3D701AD
:10490000AB5BB74F2D913C911197F701E20FF31F6D
:10491000E259FF4F80812F5F3F4F11963C932E93BA
:1049200022593F4FF701E20FF31F608171812C562E
:1049300030402D933C930E94F9343CC32CE630E088
:10494000E20EF31E86E0F701808324E93FEFE20EDA
:10495000F31E2D913C912230310508F44BC4ADB6C5
:104960009EB6D701AB5BB74F8D919C911197F70124
:10497000E80FF91FE259FF4FB08001968D939C9389
:104980008DB79EB78B1991090FB6F8949EBF0FBED5
:104990008DBFCDB6DEB60894C11CD11C22303105C6
:1049A00019F491E0B916D9F08B2D90E003962817F1
:1049B000390709F096C013C08D919C911197F701AA
:1049C000E80FF91FE259FF4F2081019611969C9341
:1049D0008E93F601E30FF11D20833F5F04C030E0AA
:1049E000D701AB5BB74F3B1538F3A0E4B8E0EA0E54
:1049F000FB1EF7018081918120EC37EFE20EF31E60
:104A0000029701F1F701EB5BF74F808191818259A9
:104A10009F4FD701A80FB91F0D911C918C56904044
:104A20009183808333E0093E130770F08CE690E0B9
:104A3000E80EF91E89E0D7018C93E4E9FFEFEE0E52
:104A4000FF1E4FC001E010E02CE630E0E20EF31E46
:104A5000D7011C921093770D0093760DE2E0F0E001
:104A6000EE0EFF1EF092730DE092720D22E93FEF01
:104A7000E20EF31E80E00E94A50531E0B31629F492
:104A8000D6018C910E94BF0512C0D0927A0DC092BF
:104A9000790DB0927C0D10927D0D82E096E090939E
:104AA0007F0D80937E0DF60180810E94E8050E94B3
:104AB000F4072091760D3091770D8091740D9091CF
:104AC000750D82179307C9F70E94A207F701E95BEA
:104AD000F74F000F111F80819181080F191F11835B
:104AE00000838A2D992D9C010FB6F8943EBF0FBE0E
:104AF0002DBF80C38D919C91870104591F4F03974F
:104B000009F075C3D701AB5BB74F8D919C9111979D
:104B1000FC01E259FF4FEE0DFF1D60817181F7012D
:104B2000E80FF91FE059FF4F408103968D939C9346
:104B3000D701ED91FC910288F389E02DC701199509
:104B400053C38D919C91870104591F4F029709F01F
:104B50004EC3D701AB5BB74F8D919C911197825992
:104B60009F4FF701E80FF91F608171818C569040CB
:104B70008D939C93D701ED91FC910088F189E02DF4
:104B8000C70119958983D701A95BB74F2D913C9136
:104B90001197F701E20FF31FE259FF4F80832F5F58
:104BA0003F4F20C38D919C91029709F065C2D701B8
:104BB000AB5BB74F8D919C911197F701E80FF91FEF
:104BC000E259FF4F60810196F701E80FF91FE259A2
:104BD000FF4FA08001968D939C938E01015F1F4F24
:104BE000C8010E94110AC8010E943D08DD24B02EB0
:104BF000C12E8E01095F1F4F8B2D9C2DB8010E9485
:104C00007B09D394AD14C0F7882311F120E030E084
:104C1000B701695B774F8E01095F1F4FF701E20F04
:104C2000F31FDB014D915C91E40FF51FE259FF4F3B
:104C3000D801A20FB31F8C9180832F5F3F4F283084
:104C4000310561F7485F5F4FFB01518340833DCDE4
:104C50002CE630E0E20EF31E85E09CC28D919C9123
:104C60000B9709F009C2D701AB5BB74F8D919C91AF
:104C70001197F701E80FF91FE259FF4F6081019684
:104C800011969C938E9347E0C42ED12CCC0EDD1E42
:104C9000AD01C601BC2CA92E8E01015F1F4FFA0188
:104CA00080819181F701E80FF91FE259FF4F2081C0
:104CB0000196FA0191838083F60121936F01E01739
:104CC000F10769F78D919C911197F701E80FF91F92
:104CD000E259FF4F10810196F701E80FF91FE259E1
:104CE000FF4F008101968D939C93C6010E94110A8B
:104CF000C6010E943009C6016B2D7A2D0E940F0952
:104D0000C601612F40E00E94CF0810E03FE0A32ED3
:104D1000B12CAC0EBD1E27E4C22E28E0D22ECE0C44
:104D2000DF1C13C0C5010E947E088983D6012D9126
:104D30003C911197F701E20FF31FE259FF4F808377
:104D40002F5F3F4F2D933C931F5F101758F3ECE6F6
:104D5000F0E0EE0EFF1EBDCC8D919C910B9709F0FB
:104D60008BC1D701AB5BB74F8D919C911197F70128
:104D7000E80FF91FE259FF4F6081019611969C934D
:104D80008E9397E0C92ED12CCC0EDD1EAD01C6014D
:104D9000BC2CA92E8E01015F1F4FFA0180819181E9
:104DA000F701E80FF91FE259FF4F20810196FA0140
:104DB00091838083F60121936F01E017F10769F772
:104DC0008D919C911197F701E80FF91FE259FF4F60
:104DD00000810196F701E80FF91FE259FF4F10819A
:104DE00001968D939C93C6010E94110AC6010E94F0
:104DF0003009C6016B2D7A2D0E940F09C601602F64
:104E0000412F0E94CF0861CC8D919C91029709F0AF
:104E1000BCC1D701AB5BB74F8D919C911197F70146
:104E2000E80FF91FE259FF4F60810196F701E80F83
:104E3000F91FE259FF4FC08001968D939C938BED33
:104E40009DE04C2D0E948C0BDD248701095B174FE0
:104E500014C08BED9DE00E94C50A8983D8012D9175
:104E60003C911197F701E20FF31FE259FF4F808346
:104E70002F5F3F4F2D933C93D3948BED9DE00E9489
:104E8000BC0A892B31F7870104591F4FDC1409F440
:104E9000ABC181E0ADC18D919C91029708F4ECC04B
:104EA00087010B5B174FD8018D919C911197F701EA
:104EB000E80FF91FE259FF4F608101968D939C9393
:104EC0008BED9DE00E94A80ADD2480E4A82E88E0F6
:104ED000B82EAE0CBF1C12C0F80180819181F70181
:104EE000E80FF91FE259FF4F60810196D8018D93B9
:104EF0009C938BED9DE00E94340BD3942D2D30E0DC
:104F0000F5018081918101972817390728F38BEDEE
:104F10009DE00E94770BD9CB8D919C91870104591C
:104F20001F4F019709F049C0D701AB5BB74F2D91D7
:104F30003C911197F701E20FF31FE259FF4F808177
:104F40002F5F3F4F2D933C930E94470A33C08D91B2
:104F50009C91870104591F4F019779F5D701AB5BED
:104F6000B74F2D913C911197F701E20FF31FE259D2
:104F7000FF4F80812F5F3F4F2D933C930E94550A36
:104F800019C08D919C91870104591F4F0197A9F475
:104F9000D701AB5BB74F2D913C911197F701E20F11
:104FA000F31FE259FF4F80812F5F3F4F2D933C93BA
:104FB0000E94500AD8011C921DC186E0F80180832E
:104FC00019C18D919C91019709F056C0D701AB5B37
:104FD000B74F8D919C911197F701E80FF91FE25996
:104FE000FF4F208101968D939C932EBD0DB407FE3B
:104FF000FDCF2EB52983D701A95BB74F8D919C9129
:105000001197F701E80FF91FE259FF4F208301962E
:105010008D939C935ACB8D919C91892B69F526E6B3
:1050200030E0E20EF31ED7016D917C91EAE9FFEFCB
:10503000EE0EFF1E870120E030E0A701495B574FCD
:1050400010C0F701E20FF31FDA018D919C91E80F78
:10505000F91FE259FF4FD80111968C9180832F5F81
:105060003F4F0F5F1F4F2617370758F3FA01808114
:105070009181860F971F27CB2CE630E0E20EF31EBE
:1050800088C08D919C91870104591F4F892B09F08D
:10509000AEC08091820D9091830DA091840DB0914E
:1050A000850D8B839C83AD83BE83DE011396A701A0
:1050B000495B574FFA0120813181F701E20FF31F5D
:1050C000E259FF4F8B817FC08D919C9187010459DC
:1050D0001F4F049709F08BC0D701AB5BB74F2D91E1
:1050E0003C91119722593F4FF701E20FF31F608166
:1050F0007181828193812A5630402D933C930E9486
:10510000010572C08D919C91870104591F4F892B15
:1051100009F06DC00E94FA0489839A83D701A95BC4
:10512000B74F2D913C911197F701E20FF31FE25910
:10513000FF4F81938A8180832E5F3F4F53C08D91B3
:105140009C91029711F5D701AB5BB74F8D919C9164
:10515000119782599F4FF701E80FF91F0190F081D5
:10516000E02D8C5690408D939C93CF010297870140
:1051700004591F4F069738F48E2F0E94F10480E0E7
:105180000E94B10531C085E033C0ECE6F0E0EE0EE0
:10519000FF1E86E0D7018C939ECA8D919C9187015A
:1051A00004591F4F892B19F5D701A859BF4FA701E3
:1051B000495B574FFA0120813181F701E20FF31F5C
:1051C000E259FF4F8C91819311968C9111978193A5
:1051D00012968C911297819313968C9180832C5FF9
:1051E0003F4FDA012D933C93F801108203C086E013
:1051F000D8018C93870104591F4FC701F8016081C2
:105200000E94E921D8018C910FB6F8947EBE0FBEA2
:105210006DBE6C960FB6F894DEBF0FBECDBFCF91BA
:10522000DF911F910F91FF90EF90DF90CF90BF9093
:10523000AF909F907F906F9008958BE1EAE5FEE03C
:10524000DF01982F1D929A95E9F77B96DF011D9259
:105250008A95E9F708952F923F924F925F926F924D
:105260007F928F929F92AF92BF92CF92DF92EF92F6
:10527000FF920F931F93DF93CF93CDB7DEB7649761
:105280000FB6F894DEBF0FBECDBF2F833887498796
:105290005A87EB86FC860D871E87D88ACF86BA8A06
:1052A000A98A0E94234220E030E04AE754E40E94A9
:1052B0004D409B01AC010E94D23F5B016C0120E09C
:1052C00030E040E050E00E94DA4188234CF0C60113
:1052D000B50120E030E040E05FE30E94D23F08C02B
:1052E000C601B50120E030E040E05FE30E94D13F1D
:1052F0000E94B5400E94E84020E030E040E05FE3DB
:105300000E9423426B837C838D839E836B817C818F
:105310008D819E812F81388549855A850E944D4017
:105320002B853C854D855E850E9423420E94364038
:105330000E94BA407A83698384C329813A81B90182
:1053400080E090E00E94E6402B813C814D815E81AF
:105350000E944D402F81388549855A850E942342FD
:105360003B014C01EF85F8896083718382839383CD
:105370002B853C854D855E850E94DA4118160CF41C
:105380005BC3C401B3012F81388549855A850E94CA
:105390004D407B018C0160E070E080E090E4A8016A
:1053A00097010E944D405B016C0120E030E040E03D
:1053B00050E00E94DA4188234CF0C601B50120E09C
:1053C00030E040E05FE30E94D23F08C0C601B50173
:1053D00020E030E040E05FE30E94D13F0E94B54012
:1053E0000E94E840A80197010E9423429B01AC0162
:1053F00060E070E080E090E40E94D13F20E030E087
:1054000040E050E00E94DA411816A4F5C601B5014B
:1054100020E030E040E050E00E94DA4188234CF088
:10542000C601B50120E030E040E05FE30E94D23FDA
:1054300008C0C601B50120E030E040E05FE30E9413
:10544000D13F0E94B5400E94E840A80197010E9408
:1054500023429B01AC0160E070E080E090E40E9498
:10546000D13F2DEC3CEC4CEC5DE30E94494087FDC4
:10547000E3C234C0C601B50120E030E040E050E0B6
:105480000E94DA4188234CF0C601B50120E030E0EB
:1054900040E05FE30E94D23F08C0C601B50120E0B2
:1054A00030E040E05FE30E94D13F0E94B5400E949F
:1054B000E840A80197010E9423429B01AC0160E0F3
:1054C00070E080E090E40E94D13F2DEC3CEC4CEC8D
:1054D0005DEB0E94DA4118160CF4AEC26F8178853C
:1054E00089859A859B01AC010E94D23F9B01AC014A
:1054F000C401B3010E94494088230CF079C16F8137
:10550000788589859A85A40193010E944D401B01ED
:105510002C011C8A1B8A2B893C89B90180E090E010
:105520000E94E6405B016C01C201B101A601950138
:105530000E94D13F20E030E040E05FE30E9449401C
:10554000181634F48B899C8901969C8B8B8BE3CF46
:10555000C601B501A40193010E9423429B01AC0145
:105560006F81788589859A850E94D13F5B016C01A6
:1055700020E030E040E050E00E94DA41181624F0CC
:10558000D7FAD094D7F8D094C401B301A6019501FD
:105590000E944D403B014C0160E070E080E090E4EF
:1055A000A40193010E944D405B016C0120E030E0BA
:1055B00040E050E00E94DA4188234CF0C601B5017A
:1055C00020E030E040E05FE30E94D23F08C0C60127
:1055D000B50120E030E040E05FE30E94D13F0E944F
:1055E000B5400E94E840A40193010E9423429B0120
:1055F000AC0160E070E080E090E40E94D13F20E0E8
:1056000030E040E050E00E94DA411816A4F5C601EF
:10561000B50120E030E040E050E00E94DA4188230C
:105620004CF0C601B50120E030E040E05FE30E94AD
:10563000D23F08C0C601B50120E030E040E05FE3A2
:105640000E94D13F0E94B5400E94E840A40193010E
:105650000E9423429B01AC0160E070E080E090E496
:105660000E94D13F2DEC3CEC4CEC5DE30E944940A4
:105670008823ACF5E1C1C601B50120E030E040E08F
:1056800050E00E94DA4188234CF0C601B50120E0C9
:1056900030E040E05FE30E94D23F08C0C601B501A0
:1056A00020E030E040E05FE30E94D13F0E94B5403F
:1056B0000E94E840A40193010E9423429B01AC0197
:1056C00060E070E080E090E40E94D13F2DEC3CEC83
:1056D0004CEC5DEB0E94DA4118160CF4ADC1C80128
:1056E000B70120E030E040E050E00E94DA4188233A
:1056F0004CF0C801B70120E030E040E05FE30E94D9
:10570000D23F08C0C801B70120E030E040E05FE3CD
:105710000E94D13F0E94B5400E94E8409B01AC012D
:10572000C801B7010E94D13F20E030E040E050E0E6
:105730000E94DA41181674F5C801B70120E030E084
:1057400040E050E00E94DA4188234CF0C801B701E4
:1057500020E030E040E05FE30E94D23F08C0C80193
:10576000B70120E030E040E05FE30E94D13F0E94BB
:10577000B5400E94E8409B01AC01C801B7010E94FE
:10578000D13F27E137EB41ED58E30E9449408823A0
:105790007CF552C1C801B70120E030E040E050E0A4
:1057A0000E94DA4188234CF0C801B70120E030E0C4
:1057B00040E05FE30E94D23F08C0C801B70120E08B
:1057C00030E040E05FE30E94D13F0E94B5400E947C
:1057D000E8409B01AC01C801B7010E94D13F27E11D
:1057E00037EB41ED58EB0E94DA4118160CF424C156
:1057F000C801B70120E030E040E251E40E94494096
:1058000088230CF089C0C801B70120E030E040E0F7
:1058100050E00E94DA4188234CF0C801B70120E033
:1058200030E040E05FE30E94D23F08C0C801B7010A
:1058300020E030E040E05FE30E94D13F0E94B540AD
:105840000E94E8409B01AC01C801B7010E94D13F12
:1058500020E030E040E050E00E94DA41181674F594
:10586000C801B70120E030E040E050E00E94DA419A
:1058700088234CF0C801B70120E030E040E05FE34E
:105880000E94D23F08C0C801B70120E030E040E0EC
:105890005FE30E94D13F0E94B5400E94E8409B0117
:1058A000AC01C801B7010E94D13F27E137EB41EDC0
:1058B00058E30E94494088237CF5BEC0C801B70167
:1058C00020E030E040E050E00E94DA4188234CF0D4
:1058D000C801B70120E030E040E05FE30E94D23F22
:1058E00008C0C801B70120E030E040E05FE30E945B
:1058F000D13F0E94B5400E94E8409B01AC01C80125
:10590000B7010E94D13F27E137EB41ED58EB0E94F0
:10591000DA4118160CF490C0C801B7012B813C8104
:105920004D815E810E9423425B016C0120E030E0EA
:1059300040E050E00E94DA4188234CF0C601B501F6
:1059400020E030E040E05FE30E94D23F08C0C601A3
:10595000B50120E030E040E05FE30E94D13F0E94CB
:10596000B5400E94E8409B01AC01C601B5010E9410
:10597000D13F20E030E040E050E00E94DA411816CC
:1059800074F5C601B50120E030E040E050E00E942F
:10599000DA4188234CF0C601B50120E030E040E058
:1059A0005FE30E94D23F08C0C601B50120E030E0AD
:1059B00040E05FE30E94D13F0E94B5400E94E84072
:1059C0009B01AC01C601B5010E94D13F27E137EB35
:1059D00041ED58E30E944940882374F543C0C60155
:1059E000B50120E030E040E050E00E94DA41882339
:1059F0004CF0C601B50120E030E040E05FE30E94DA
:105A0000D23F08C0C601B50120E030E040E05FE3CE
:105A10000E94D13F0E94B5400E94E8409B01AC012A
:105A2000C601B5010E94D13F27E137EB41ED58EBAC
:105A30000E94DA411816B4F0E981FA813197FA83AD
:105A4000E98329813A812230310508F076CC6B81D7
:105A50007C818D819E8120E030E040E05FE30E9408
:105A6000D23F50CC29813A81E989FA893183208358
:105A700064960FB6F894DEBF0FBECDBFCF91DF9115
:105A80001F910F91FF90EF90DF90CF90BF90AF905C
:105A90009F908F907F906F905F904F903F902F904E
:105AA00008950F931F93082F162F882351F4662310
:105AB00021F0613009F041C002C08DE020C08DE0CE
:105AC00029C08130D1F5613051F0613028F0623069
:105AD00069F0633091F515C08CE061E014C08CE092
