:100000000C94B6010C94E3010C94E3010C94E3010D
:100010000C94E3010C94E3010C94E3010C94E301D0
:100020000C94E3010C94E3010C94E3010C94E301C0
:100030000C94E3010C94E3010C94E3010C94E301B0
:100040000C94E3010C94E3010C94E3010C94E301A0
:100050000C9483080C94E3010C94E3010C942C257C
:100060000C94E3010C9475280C94BD290C94E301C5
:100070000C94E3010C94E3010C94E3010C94E30170
:100080000C94E3010C94E3010C94E3010C94E30160
:100090000C94B5280C94FC290C94E3010C94C60430
:1000A0000C94E3010C94E3010C94E3010C94E30140
:1000B0000C94E3010C94E3010C94E3010C94E30130
:1000C0000C94E3010C94E3010C94E3010C94F528E7
:1000D0000C943B2A0C94E3010C9435290C947A2A55
:1000E0000C94E3019B0DB40D3C0E5B0EEF0E2B0F39
:1000F000440F6D0F8B0FB40FCB0F9210B810DC10A4
:100100000F113A118611F6114512BE12D512311394
:100110005B13B8160A172B17CD16E916521774176A
:10012000AB17AB17AB17AB17AB17AB17AB17AB17BF
:10013000AB17AB17AB17AB17AB17AB17AB17AB17AF
:10014000AB17AB17AB17AB17AB17AB17AB17AB179F
:10015000AB17AB17AB17AB17AB17AB17AB17AB178F
:10016000AB17AB17AB17AB17AB17AB17AB17AB177F
:10017000AB17AB17AB17AB17AB17AB17AB17AB176F
:10018000AB17AB17AB17AB17AB17AB17A913A01671
:100190006D1FA71FE11F1B208F205520C92029217B
:1001A0006F214C21C2219B2156222F228A226A23B1
:1001B000EC221224C22353246E248824A824D2249F
:1001C000082108000000BE922449123EABAAAA2AC8
:1001D000BECDCCCC4C3E00000080BEABAAAAAA3E4D
:1001E00000000000BF000000803F00000000000889
:1001F0004178D3BB4387D1133D190E3CC3BD428226
:10020000AD2B3E68EC8276BED98FE1A93E4C80EFE3
:10021000FFBE01C4FF7F3F000000000007634236BD
:10022000B79BD8A71A39685618AEBAAB558C1D3C87
:10023000B7CC5763BD6DEDFD753EF6177231BF004B
:100240000000803F00002100240027002A002D002C
:100250003000330001010000040107010A01000021
:100260002200250028002B002E003100340002015E
:100270000000050108010B010000200023002600FA
:1002800029002C002F0032000001000003010601AC
:10029000090105050505070508080808020202020C
:1002A0000A0A080804040404010101010101010112
:1002B0000303030303030303040707070C0C0C0CDD
:1002C0000C0C0C0C020202020606060606060606C6
:1002D0000B0B0B0B0B0B0B0B010210202008081053
:1002E00020401020408002010201080402010102A6
:1002F000040810204080804020100804020180047F
:1003000002018040201008040201080402010102D9
:1003100004081020408001020408102040800000E2
:10032000090A02080B0C0D07060304010000000077
:1003300000000000000000000000000000000000BD
:100340000000000000000000000011100F0000007D
:10035000000000000000000000000000000000009D
:10036000000000000B025E03EA2B040211241FBEF2
:10037000CFEFD1E2DEBFCDBF00E00CBF15E0A0E0C3
:10038000B2E0EEECF8E600E00BBF02C007900D9281
:10039000A235B107D9F71BBE14E1A2E5B5E001C053
:1003A0001D92A73FB107E1F713E0CAE6D3E004C00E
:1003B0002297FE010E945634C436D107C9F70E9425
:1003C000C2020C945A340C94000080914304909122
:1003D000440401969093440480934304089581302B
:1003E000910541F46F5F7F4F71F482E595E00E94C3
:1003F000DC170895892B39F46F5F7F4F21F482E574
:1004000095E00E94D317089580E090E06FEF7FEFB2
:100410000E94EF01089581E090E06FEF7FEF0E946E
:10042000EF0108958CE392E140E45BE46CE470E05A
:100430000E9422098CE392E165EE71E02FEF3FEF1D
:100440004FEF5FEF0E942A0982E595E00E94431872
:100450008BE694E160E072E00E94C92E6FEF71E2DA
:10046000605072408BE694E14AE050E00E94AA2E70
:100470008BE694E165E072E00E94C92E62E575E0CA
:10048000605072408BE694E14AE050E00E94AA2E50
:100490008BE694E16CE072E00E94C92E67EF74E194
:1004A000625575408BE694E14AE050E00E94AA2E26
:1004B0008BE694E162E172E00E94C92E6091F31430
:1004C0007091F4146115710519F460E070E002C0D8
:1004D000675F74418BE694E14AE050E00E94AA2EE7
:1004E0008BE694E168E172E00E94C92E8DB79EB759
:1004F0006FEF71E2681B790B8BE694E14AE050E004
:100500000E94AA2E8BE694E16FE172E00E94C92E50
:100510008091F3149091F414009729F46DB77EB78D
:10052000675F744104C06DB77EB7681B790B8BE6BB
:1005300094E14AE050E00E94AA2E089582E595E0F9
:100540000E94391D809143049091440469E170E058
:100550000E941E34892BA9F480912411882359F01C
:1005600080912511882329F482E595E00E94C00935
:1005700002C01092251181E090E090934404809392
:1005800043040895CF93DF930E94E5250E94120251
:10059000C4E7D9E20E949E022097E1F30E947429E9
:1005A000F9CFF999FECF72BD61BDF89A80B5089573
:1005B000F999FECF1FBA72BD61BD40BD0FB6F89468
:1005C000FA9AF99A0FBE0895882319F48CB58062BF
:1005D00002C08CB58F7D8CBD08959CB5937F982B00
:1005E0009CBD08952CB5382F33702C7F322B3CBD29
:1005F0002DB590E0959587959595879581702E7F7F
:10060000822B8DBD089585E361E00E94112885E36A
:1006100061E00E945E278CB580618CBD8CB58064E2
:100620008CBD84E361E00E945E2783E361E00E9469
:100630005E27089581E08093C11160939E1110920E
:10064000BF111092C011089581E08093C111609391
:100650009E111092BF111092C011089520919D110A
:1006600030E080919C11281B3109C9010895409107
:100670009C1180919D11481718F02FEF3FEF0AC091
:10068000E42FF0E0E458FE4E8081282F30E04F5FE9
:1006900040939C11C9010895E0919C1180919D1196
:1006A000E81718F0EFEFFFEF06C0F0E0E458FE4E59
:1006B0008081E82FF0E0CF01089508951092C511D0
:1006C0001092C41188EE93E0A0E0B0E08093C611D0
:1006D0009093C711A093C811B093C9118AE494E014
:1006E0009093C3118093C2110895CF92DF92EF923D
:1006F000FF920F931F93CF93DF937C016B018A01CD
:100700008091C1118823A1F0C0E0D0E00DC0D701D5
:10071000ED91FC91D601AC0FBD1F0190F081E02D51
:10072000C7016C9119952196C017D10780F304C0B9
:10073000CB01642F0E94AB04C801DF91CF911F91C0
:100740000F91FF90EF90DF90CF900895DF93CF93BC
:100750000F92CDB7DEB7FC0169838091C111882368
:10076000C9F08091C011803238F081E090E093832D
:10077000828320E030E015C08091BF11E82FF0E0C7
:10078000E156FE4E998190838F5F8093BF118093D5
:10079000C01105C0CE01019661E00E94AB0421E0CA
:1007A00030E0C9010F90CF91DF9108950F93062F8C
:1007B00080919E116FE971E14091C01121E00E948A
:1007C00056041092BF111092C0111092C1110F91D6
:1007D000089561E00E94D6030895413208F040E296
:1007E000862F6CE771E10E940D0410929C1180939A
:1007F0009D11089521E00E94ED03089521E00E94DB
:10080000ED03089510929C1110929D111092BF114A
:100810001092C0110E945B060895382F413210F0EB
:1008200040E042C08091CE118823E1F791E090939F
:10083000CE112093D0118FEF80933B121092F611BE
:1008400041504093F7114F5F9093CF118091CF119A
:10085000330F832B8093CF118091D111813041F4DC
:100860001092D1118091CF118093BB0085EC01C013
:1008700085EE8093BC008091CE118130E1F38091B0
:10088000F611841710F44091F61120E030E00AC010
:10089000FB01E20FF31FD901AA52BE4E8C91808357
:1008A0002F5F3F4F2417A0F3842F08950F931F93BA
:1008B000582F122F413210F081E04AC08091CE11A2
:1008C0008823E1F782E08093CE110093D0118FEF5F
:1008D00080933B121092F6114093F711A6EDB1E10F
:1008E000FB0102C081918D938E2F861B8417D0F35C
:1008F0001092CF118091CF11550F852B8093CF117E
:100900008091D111813041F41092D1118091CF1199
:100910008093BB0085EC01C085EE8093BC00112361
:1009200021F08091CE118230E1F380913B128F3F14
:1009300011F480E00DC080913B12803211F482E00E
:1009400007C080913B12803311F084E001C083E046
:100950001F910F910895482F613210F081E00895A2
:100960008091CE11843011F082E0089560931912C5
:10097000A8EFB1E1842F9C01F90102C081918D9310
:100980008E2F841B8617D0F380E008951F920F925C
:100990000FB60F920BB60F9211242F933F934F93E4
:1009A0005F936F937F938F939F93AF93BF93EF93D7
:1009B000FF938091B90090E0887F90708036910518
:1009C00009F4F2C081369105CCF58832910509F41D
:1009D0007BC089329105B4F48031910509F46FC070
:1009E000813191053CF4009709F447C1089709F05B
:1009F0004FC165C08831910509F466C0809709F040
:100A000047C182C08034910509F4A4C081349105A6
:100A100044F48033910509F482C0C89709F038C1C5
:100A200089C08035910509F489C08835910509F49C
:100A300096C08834910509F02BC1AEC08839910564
:100A400009F413C189399105ECF48837910509F44B
:100A5000ABC0893791054CF48836910509F4A4C0E0
:100A60008037910509F014C19FC08838910509F4B9
:100A7000FCC08039910509F49DC08038910509F0CA
:100A800007C198C0803B910509F4C6C0813B910520
:100A90004CF4803A910509F49FC0883A910509F019
:100AA000F7C0BAC0803C910509F4E3C0883C9105C9
:100AB00009F4DFC0883B910509F0EAC0C2C080910B
:100AC000CF118093BB00CFC09091F6118091F711A8
:100AD000981768F49091F611E92FF0E0EA52FE4E73
:100AE00080818093BB009F5F9093F611BCC0809182
:100AF000D011882309F44BC085ED8093BC00809110
:100B0000BC0084FDFCCFC2C080E280933B1285ED27
:100B10008093BC008091BC0084FDFCCFB7C080E313
:100B200080933B1285ED8093BC008091BC0084FDD6
:100B3000FCCFACC088E380933B129BC08091F61140
:100B40009091BB00E82FF0E0EA52FE4E90838F5F59
:100B50008093F6119091F6118091F71182C08091E7
:100B6000F6119091BB00E82FF0E0EA52FE4E908320
:100B70008F5F8093F6118091D011882341F085ED2D
:100B80008093BC008091BC0084FDFCCF7FC081E0DD
:100B90008093D11184EA6EC085ED8093BC00809172
:100BA000BC0084FDFCCF72C083E08093CE11109214
:100BB0003A1259C080913A12803208F056C08091A2
:100BC0003A129091BB00E82FF0E0E65EFD4E908374
:100BD0008F5F80933A1247C080913A12803230F48E
:100BE000E0913A12F0E0E65EFD4E108285ED8093D2
:100BF000BC008091BC0084FDFCCF1092CE116091AE
:100C00003A12E091D411F091D5118AE192E170E0AD
:100C1000199510923A122DC084E08093CE11109253
:100C2000181210921912E091D211F091D311199566
:100C300080911912882329F481E08093191210926F
:100C4000F81190911812E92FF0E0E850FE4E8081E3
:100C50008093BB009F5F909318129091181280911F
:100C60001912981710F485EC01C085E88093BC0038
:100C70000FC085EC8093BC0009C010923B1285ED3B
:100C80008093BC008091BC0084FDFCCF1092CE11FB
:100C9000FF91EF91BF91AF919F918F917F916F9154
:100CA0005F914F913F912F910F900BBE0F900FBE10
:100CB0000F901F9018951092CE1181E08093D01163
:100CC0001092D11184E161E00E94112885E161E078
:100CD0000E941128E9EBF0E080818E7F8083808183
:100CE0008D7F808388E48093B80085E48093BC0086
:100CF0000895FC0113861586148687E090E012861D
:100D00003197009711F00197FACF0895DF92EF9293
:100D1000FF920F931F93FC01E08001811281F894F0
:100D2000F80181818E2981838281DE2CD0948D21EE
:100D3000828383E090E00E94DB25F80181818D2190
:100D400081838AE090E00E94DB25F801008178949D
:100D500085E390E00E94DB2580E010E0FF240E2177
:100D60001F21012B09F081E01F910F91FF90EF905F
:100D7000DF900895EF92FF920F931F93CF93DF932D
:100D80007C0101E010E0C0E0D0E0C7010E948606CF
:100D90008111102B000F2196C830D105B1F7812F9A
:100DA000DF91CF911F910F91FF90EF9008951F93C6
:100DB000CF93DF93FC011081C181D281912F909557
:100DC00060FF12C0F8948A8189238A838981812BEC
:100DD00089838AE090E00E94DB258A81812B8A83C7
:100DE000789487E390E011C0F8948A8189238A83FC
:100DF0008981812B898381E490E00E94DB258A81AF
:100E0000812B8A83789485E090E00E94DB25DF9136
:100E1000CF911F910895CF92DF92EF92FF920F939F
:100E20001F93CF93DF938C01E42EFF24F394C0E053
:100E3000D0E0C62EDD2460E08F2D90E08C219D2136
:100E4000892B09F061E0C8010E94D706FF0C2196AA
:100E5000C830D10581F7EE20A9F4F894D801119695
:100E6000ED91FC91129791818C91809598239183BB
:100E70001196ED91FC91129792818C918095982317
:100E800092837894DF91CF911F910F91FF90EF9013
:100E9000DF90CF900895EF92FF920F931F93CF931F
:100EA000DF938C017B0165E540E00E940B07C0E009
:100EB000D0E0F701EC0FFD1FC801608140E00E9407
:100EC0000B072196C830D105A1F7DF91CF911F9173
:100ED0000F91FF90EF900895DF92EF92FF920F93A2
:100EE0001F93CF93DF93FC010081C181D281F894DD
:100EF0008981D02ED0948D21898378941DE7E02EAE
:100F0000FF24115059F182E090E00E94DB25888196
:100F100090E08E219F21892BA1F3F8948A818D2165
:100F20008A838981802B8983789480EE91E00E9466
:100F3000DB25F89489818D21898386E490E00E94E5
:100F4000DB25888110E090E0E822F922EF2809F4FF
:100F500011E078948AE991E00E94DB25812FDF91EE
:100F6000CF911F910F91FF90EF90DF900895AF9276
:100F7000BF92DF92EF92FF920F931F93CF93DF9375
:100F8000EC015B018D85882309F061C0CE010E94D0
:100F90006C07882329F41B861D861C8690E06BC095
:100FA000CE0160EF40E00E940B0701E0DD24EE245B
:100FB000FF24F394CE010E948606182FCE010E94D2
:100FC0008606113019F48130E1F439C0181709F59B
:100FD0008B85081770F460E0FE01EE0DF11D838132
:100FE00090E02F2D30E082239323181619064CF041
:100FF00003C060E0081729F0093008F04CC00C87E6
:101000004AC0FE01EE0DF11D83818F29838361E0CB
:1010100009C0612FFE01EE0DF11D9F2D909583817A
:1010200089238383CE010E94D7060F5FFF0C19F43A
:10103000E394FF24F39487E08E1508F0BBCF0134CE
:1010400030F0DB86DD2011F581E08D871FC01B8627
:101050001D861C8690E0DE0120E030E0F501E20F05
:10106000F31F13968C91139780832F5F3F4F119638
:101070002830310599F7892FDF91CF911F910F917A
:10108000FF90EF90DF90BF90AF9008958B81882301
:10109000F1F291E0E0CFD02EBDCFFF920F931F93DE
:1010A0008C01F62E862F60E00E945E278F2D90E047
:1010B000FC01E852FD4FE491D801EC938E569D4F10
:1010C000FC016491E62FF0E0EE0FFF1FE858FD4FA2
:1010D0008591949112969C938E9311971B961C92D6
:1010E0001B971D961C921D971C961C92F80187E079
:1010F00090E012863197009711F00197FACF1F9177
:101100000F91FF9008951F920F920FB60F920BB69A
:101110000F9211242F933F934F935F936F937F937D
:101120008F939F93AF93BF93EF93FF93E091401200
:10113000F09141121995FF91EF91BF91AF919F915D
:101140008F917F916F915F914F913F912F910F9070
:101150000BBE0F900FBE0F901F901895FC01A3E0DF
:10116000440F551F661F771FAA95D1F7403080E0C6
:10117000580781E0680780E0780714F481E010C028
:1011800033E075956795579547953A95D1F7403077
:1011900080E0580781E0680780E078071CF482E06F
:1011A000828339C023E075956795579547952A95B1
:1011B000D1F7403080E0580781E0680780E0780789
:1011C00014F483E0EDCF92E07595679557954795B8
:1011D0009A95D1F7403080E0580781E0680780E0B9
:1011E000780714F484E0DCCF82E075956795579515
:1011F00047958A95D1F7403080E0580781E068072D
:1012000080E0780714F485E0CBCF85E082834FEF50
:101210005FEF60E070E08FB78383F8945183408381
:10122000509387004093860083818FBF8091810017
:10123000887F80938100809181009281892B8093A7
:10124000810008951092800020E1209381000E9487
:10125000AE0808950F931F93CF93DF93EC018B019A
:10126000121613061406150624F4BA01A9010E94E9
:10127000AE081D830C8381E080936F008091810014
:101280009A81892B80938100DF91CF911F910F91DB
:10129000089582E794E0089587E894E008958BE844
:1012A00094E0089582EA94E008958CEB94E0089528
:1012B0008DEC94E008958CE292E00895FC0180E8C2
:1012C00090E0062E02C0959587950A94E2F780314A
:1012D000910561F1813191054CF484309105C1F1A2
:1012E0008830910561F1029749F43BC08034910543
:1012F00059F08038910521F0809779F081E00895C8
:1013000080917A00876035C080917A0086608093F2
:101310007A0080917A008E7F2CC080917A0085605F
:1013200080937A0080917A008D7F23C080917A002B
:10133000846080937A0080917A008C7F1AC08091BB
:101340007A00836080937A0080917A008B7F11C04D
:1013500080917A00826080937A0080917A008A7FFF
:1013600008C080917A00816080937A0080917A0031
:10137000897F80937A00EA52F44F608380E0089579
:1013800088E061E00E9411280895FF920F931F9357
:10139000F62E142F022F862F60E00E9411281EBD0A
:1013A0000DB407FEFDCF8EB50EBD0DB407FEFDCF0B
:1013B0008EB58F2D61E00E9411281F910F91FF9033
:1013C0000895362F242F643010F085E0089520957D
:1013D00065E3432F0E94C50980E00895AF92BF9254
:1013E000CF92DF92EF92FF920F931F93CF93DF93F1
:1013F000EC015A016B01CE51D44FE880F9800A818B
:101400001B81C25EDB40CB01BA0120E030E040E04E
:1014100050E00E943E3087FD3BC0C601B501A801E7
:1014200097010E9442309B01AC010E94DA2F23EF0A
:1014300034E045EB5FE30E94313220E030E040E8E9
:101440005EE30E94313220E030E04FE753E40E9437
:1014500031327B018C0120E030E04FE753E40E9401
:10146000E2311816ACF0C652D44FA882B982CA82B3
:10147000DB82CA5DDB40C801B7010E94AF309B012F
:10148000AC01CE0163E0422F0E94E10980E001C07F
:1014900088E0DF91CF911F910F91FF90EF90DF9047
:1014A000CF90BF90AF900895CF92DF92EF92FF92CE
:1014B0000F931F93CF93DF938C0187EEE82E8BE081
:1014C000F82EE00EF11E6801C0E0D0E0F701EC0F4D
:1014D000FD1FC601CC59DF4FBE0140810E944C1C4C
:1014E000C356D040C234D10589F7C80160E00E94DC
:1014F000820ADF91CF911F910F91FF90EF90DF90C3
:10150000CF900895BF92CF92DF92EF92FF920F9308
:101510001F93CF93DF93EC01B62E97EEE92E9BE05D
:10152000F92EEC0EFD1E6E0100E010E0E881F9815D
:10153000B8016C597F4F0088F189E02DC6011995DB
:10154000F701E00FF11F80830F5F1F4F0234110579
:1015500069F7C951D44F88819981C75EDB40892BD7
:1015600039F5C751D44F88819981C95EDB40892BF9
:10157000F9F49E012551344FF90180819181892B25
:10158000B9F4FE01EF5DF34FCE51D44F88819981BC
:10159000AA81BB81C25EDB4080839183A283B38337
:1015A00081E090E0F90191838083CE010E94540A8A
:1015B000C951D44F88819981C75EDB40892BE1F402
:1015C000C751D44F88819981C95EDB40892BA1F432
:1015D000FE01E551F44F80819181019769F4C25178
:1015E000D44F80E28883CE5EDB4082E090E091833E
:1015F0008083CE010E94540AC951D44F88819981B9
:10160000C75EDB40892B11F5C751D44F8881998182
:10161000C95EDB40892BD1F4FE01E551F44F808196
:101620009181029799F4CB5DD34F80E090E0A0EADE
:10163000B0E488839983AA83BB83C552DC4083E0EE
:1016400090E091838083CE010E94540AC951D44F07
:1016500088819981C75EDB40892B99F4C751D44FAB
:1016600088819981C95EDB40892B59F4C551D44FDB
:1016700088819981CB5EDB40039719F4BB2009F484
:1016800085C0C951D44F199219921992199283E0C9
:1016900090E0899399938FEF888323968CE78883D2
:1016A00080E78A93229680E09CE7A2E9B8E48993D8
:1016B0009993A993B99380E092E2A1EAB8E4888370
:1016C0009983AA83BB832C9680E090E0AAE7B4E4D8
:1016D00089939993A993B99380E090E4ACE1B6E43F
:1016E00089939993A993B99380E090E5A3ECB7E42B
:1016F00089939993A993B99380E094E2A4E7B9E41C
:1017000088839983AA83BB83649780E090E0A0E0FC
:10171000B0E089939993A993B99388839983AA8315
:10172000BB8364968FEF96EEABE5BEE28993999307
:10173000A993B99389939993A993B9938993999309
:10174000A993B99388839983AA83BB83CD51DC4045
:10175000FE01EF5DF34FCE51D44F88819981AA816C
:10176000BB8180839183A283B3832C9680E288839C
:10177000E79680E090E0A0EAB0E488839983AA83AA
:10178000BB83C552DC40CE010E94540ACF5DD34FCB
:10179000E880F9800A811B81C152DC40C801B70191
:1017A00020E030E040E050E00E943E30FE01EA518F
:1017B000F44F18161CF081E0808307C0CE51D44F3F
:1017C000E882F9820A831B831082DF91CF911F91F7
:1017D0000F91FF90EF90DF90CF90BF9008950F93FF
:1017E0001F938C010E944C1CC80160E00E94820A79
:1017F0001F910F9108954F925F926F927F928F92F7
:101800009F92AF92BF92CF92DF92EF92FF920F938F
:101810001F93DF93CF930F920F92CDB7DEB78C015A
:101820002C01EE2454ED852E5BE0952E880E991E3A
:1018300045ECC42E4BE0D42EC80ED91E3EEEA32E8E
:101840003BE0B32EA80EB91E3E010894611C711C2A
:1018500033C028E0F22E30E040E050E0F601808115
:101860009181F801E80FF91FE251FC4F20810196A8
:10187000F6019183808380E090E0222311F481E0DF
:1018800090E0042E02C0880F991F0A94E2F7380FE7
:101890004F5F5F4F4830510509F73A83F50160818A
:1018A0006E0DF982C201A30122E00E94751CF3941F
:1018B000FDE0FF1681F6E3942E2D30E0F4018081E7
:1018C000918168E270E00E941E342617370708F203
:1018D0000F900F90CF91DF911F910F91FF90EF909C
:1018E000DF90CF90BF90AF909F908F907F906F9040
:1018F0005F904F9008951F93CF93DF93EC01142FC7
:10190000662379F4442319F04130E1F503C08DE0FA
:1019100061E002C08DE060E00E941128C952D44FFE
:101920002EC0613079F5413051F0413028F042301D
:1019300069F0433039F515C08CE061E014C08CE0EB
:1019400060E00E9411288BE061E011C08CE060E053
:101950000E9411288BE060E00E9411288AE061E07B
:101960000AC08CE060E00E9411288BE060E00E94D9
:1019700011288AE060E00E941128C852D44F1883D1
:1019800010E001C015E088EC90E00E94DB25812F7B
:10199000DF91CF911F9108957F928F929F92AF9286
:1019A000BF92CF92DF92EF92FF920F931F93DF933C
:1019B000CF930F920F92CDB7DEB75C019B01742ECF
:1019C000CB0168E270E00E941E34862EC90168E2F5
:1019D00070E00E941E346C0173E0969587957A95AD
:1019E000E1F7982E082D10E06EEEE62E6BE0F62E55
:1019F000EA0CFB1CF7018081B801680F711D82ECB5
:101A000091E10E942403692D70E0685F7F4F82ECB2
:101A100091E10E94A60382EC91E10E94E903F701A3
:101A20008081080F111D82EC91E1B80141E050E086
:101A30000E94FA0382EC91E10E942E03892B11F49B
:101A400081E03BC00C2D0770F8E09F0E998282EC7C
:101A500091E10E943703282F772071F481E090E014
:101A6000A0E0B0E004C0880F991FAA1FBB1F0A9511
:101A7000D2F7282B2A830EC081E090E0A0E0B0E0EE
:101A800004C0880F991FAA1FBB1F0A95D2F7809523
:101A900082238A838EEE9BE0A80EB91EF501608139
:101AA00082E194EFA80EB91E680DC501AE014F5F2B
:101AB0005F4F22E00E94751C80E00F900F90CF9145
:101AC000DF911F910F91FF90EF90DF90CF90BF902B
:101AD000AF909F908F907F9008952F923F924F925A
:101AE0005F926F927F928F929F92AF92BF92CF92AE
:101AF000DF92EF92FF920F931F93DF93CF93CDB7B7
:101B0000DEB7AD970FB6F894DEBF0FBECDBF4C0168
:101B10006D8B862F90E0FC01E05AF040E635F10530
:101B200010F00C94AB17EE58FF4FEE0FFF1F05900F
:101B3000F491E02D199420EC3BE0820E931ED40129
:101B40008D919C91E0E4F4EF8E0E9F1E8401045170
:101B50001C4F892B11F00C947117B4016C52744F07
:101B6000C40142E050E033C120EC3BE0820E931E02
:101B7000D4018D919C91E0E4F4EF8E0E9F1E8401C0
:101B800004511C4F892B11F00C947117D8011C9231
:101B9000888E998ECC2464ED262E6BE0362E280C90
:101BA000391C5EEE652E5BE0752E680C791C2801F1
:101BB00054C048E0D42E5901F3018081B501680F6B
:101BC000711D82EC91E10E94240382EC91E16D2D64
:101BD0000E94A60382EC91E10E94E903D3018C915B
:101BE000B501680F711D82EC91E141E050E00E9467
:101BF000FA0382EC91E10E942E03892B21F182EC01
:101C000091E10E94370300E010E0E82EFF24C701B5
:101C1000002E02C0959587950A94E2F7E1E0F0E086
:101C20008E279F2781708983888D998DBE016F5F74
:101C30007F4F41E050E00E94101B0F5F1F4F0830A4
:101C4000110529F704C0E1E0D201EC9305C0D3945B
:101C5000FDE0DF1609F0B0CFC3942C2D30E0D101A8
:101C60008D919C9168E270E00E941E342617370720
:101C700008F49FCF0C94AB17F401E054F44F24ED1B
:101C80003BE0820E931E20813181D4018D919C9185
:101C9000ECE2F4EF8E0E9F1E840104511C4F2817B6
:101CA000390711F00C947117C4010E94FB0BD80185
:101CB0001C920C94AB1720EC3BE0820E931ED401D7
:101CC0008D919C91E0E4F4EF8E0E9F1E029711F02F
:101CD0000C94A017D401AB53B44F8D919C911197E4
:101CE00082519C4FF401E80FF91F0190F081E02D23
:101CF0008C5E93408D939C9324ED3BE0820E931E6B
:101D0000D4018D919C912CE234EF820E931EE81742
:101D1000F90738F04CEE53E0840E951E85E00C94E4
:101D2000A517CF0168E270E00E941E346C01CF015C
:101D300068E270E00E941E34062F10E09EEEE92E4D
:101D40009BE0F92EE80CF91CD7018C91B801680FC3
:101D5000711D82EC91E10E942403B60183E0769527
:101D600067958A95E1F770E0685F7F4F82EC91E1BB
:101D70000E94A60382EC91E10E94E903F7018081B1
:101D8000080F111D82EC91E1B80141E050E00E9482
:101D9000FA0382EC91E10E942E03840104511C4F4E
:101DA000892BC1F082EC91E10E94370390E02C2D49
:101DB000277002C0959587952A95E2F780958170E6
:101DC0008983C401BE016F5F7F4F41E050E00E94F4
:101DD000101B6DCF81E0F80180830C94AB1720ECD1
:101DE0003BE0820E931ED4018D919C91E0E4F4EFD0
:101DF0008E0E9F1E039711F00C94A017D401AB53C5
:101E0000B44F8D919C911197FC01E251FC4FE80D6C
:101E1000F91D60817181F401E80FF91FE051FC4F59
:101E2000408103968D939C9324ED3BE0820E931E9C
:101E3000D4018D919C91ECE2F4EF8E0E9F1E8401F3
:101E400004511C4F6817790708F096C3C4010E941B
:101E5000CC0C0C94281720EC3BE0820E931ED4018E
:101E60008D919C91E0E4F4EF8E0E9F1E840104514D
:101E70001C4F892B11F00C947117D8011C9289E02A
:101E80000E944428898312C420EC3BE0820E931EFA
:101E9000D4018D919C91E0E4F4EF8E0E9F1E01978A
:101EA00011F00C94A017D401AB53B44F8D919C91B9
:101EB0001197F401E80FF91FE251FC4F6081019680
:101EC0008D939C93840104511C4F623020F489E06F
:101ED0000E941128ECCE88E07ECF20EC3BE0820E01
:101EE000931ED4018D919C91E0E4F4EF8E0E9F1E21
:101EF000840104511C4F892B11F00C947117D801E7
:101F00001C92B4016652744FC40144E050E00E9438
:101F1000101B0C94AB1720EC3BE0820E931ED401F7
:101F20008D919C91E0E4F4EF8E0E9F1E840104518C
:101F30001C4F049709F0D5C7D401AB53B44F8D9112
:101F40009C91119782519C4FF401E80FF91F408139
:101F50005181628173818A5E93408D939C93C40109
:101F600021E00E94EE0974C720EC3BE0820E931E34
:101F7000D4018D919C91E0E4F4EF8E0E9F1E8401BC
:101F800004511C4F892B09F0ACC7D8011C92B40135
:101F90006252744FB9CF20EC3BE0820E931ED40105
:101FA0008D919C91E0E4F4EF8E0E9F1E049709F052
:101FB000C7C7D401AB53B44F2D913C911197225117
:101FC0003C4FF401E20FF31F6081718182819381A4
:101FD0002A5E33402D933C932EED3BE0820E931E00
:101FE000D4016D937D938D939C931397E2E2F4EF6C
:101FF0008E0E9F1E20E030E048E452E40E94313211
:102000007B018C0120E030E04AE754E40E943E303E
:1020100087FD21C3C801B70120E233EB41E85CE44E
:102020000E94E23118160CF416C3C801B70120E073
:1020300030EE41E854E40E9442300E94F13126EA39
:102040003BE944E550E40E9431322EE83DE543E1AE
:1020500050E40E9442300E94AF30D62E70E0665F9E
:102060007F4F882777FD8095982F0E94DD309B0158
:10207000AC0160E070E080E090E40E9494329B014B
:10208000AC01CA01B90120E030EE41E055EC0E94FC
:102090003132A80197010E94423020E030E040E058
:1020A00055E40E94DA2F7B018C0120E030E040E013
:1020B00050E00E94E23188234CF0C801B70120E0D3
:1020C00030E040E05FE30E94DA2F08C0C801B701AA
:1020D00020E030E040E05FE30E94D92F0E94AA3068
:1020E0008B0182EC91E167E10E941A03C80116E0BE
:1020F000969587951A95E1F7D294B0EFDB22D82A0E
:1021000082EC91E16D2D0E94A603602F660F660F91
:10211000626082EC91E10E94A60382EC91E10E9450
:10212000E90307C720EC3BE0820E931ED4018D919A
:102130009C91E0E4F4EF8E0E9F1E840104511C4F2D
:10214000892B09F0CEC626ED3BE0820E931ED4010A
:102150006C91EAE2F4EF8E0E9F1E70E0660F771F1F
:10216000660F771F6A5A7B4FC40144E050E02FCEC0
:1021700020EC3BE0820E931ED4018D919C91E0E413
:10218000F4EF8E0E9F1E840104511C4F019709F03D
:10219000A8C6D401AB53B44F8D919C911197F40113
:1021A000E80FF91FE251FC4F608101968D939C93DB
:1021B000C4010E945E094CC620EC3BE0820E931ED7
:1021C000D4018D919C91E0E4F4EF8E0E9F1E84016A
:1021D00004511C4F019709F03AC6D401AB53B44FD8
:1021E0008D919C911197F401E80FF91FE251FC4F7A
:1021F000E08101968D939C93D8011C92EE2321F0EF
:10220000E13009F0B9C104C0B4016952744F03C090
:10221000B4016852744FC40141E050E078CEE0EC64
:10222000FBE08E0E9F1ED4018D919C91E0E4F4EFB3
:102230008E0E9F1E840104511C4F029709F051C657
:10224000D401AB53B44F8D919C911197F401E80FD9
:10225000F91FE251FC4F60810196F401E80FF91F6C
:10226000E251FC4F408101968D939C93C4010E94E2
:102270007B0CEEC520EC3BE0820E931ED4018D91C9
:102280009C91E0E4F4EF8E0E9F1E840104511C4FDC
:10229000019709F026C6D401AB53B44F8D919C91A0
:1022A0001197F401E80FF91FE251FC4FE08101960C
:1022B0008D939C93D8011C92EE2321F0E13009F01C
:1022C000E2C012C0E7EDFBE08E0E9F1ED4016C91C0
:1022D000E9E2F4EF8E0E9F1E70E0660F771F660F27
:1022E000771F6F50744FCCC028ED3BE0820E931ED9
:1022F000D4016C91E8E2F4EF8E0E9F1E70E0660F41
:10230000771F660F771F6F5F734FBAC020EC3BE0FB
:10231000820E931ED4018D919C91E0E4F4EF8E0E19
:102320009F1E840104511C4F059709F090C5A4011C
:102330004B53544FDA012D913C911197F401E20F68
:10234000F31FE251FC4FE0812F5F3F4F2D933C93F1
:1023500021503040D8011C92EE2321F0E13009F0E9
:102360000BC122C0E7EDFBE08E0E9F1ED401EC9165
:1023700089E294EF880E991EF0E021513C4FD40180
:10238000A20FB31FED90FD900D911C912A5E33407A
:10239000DA012D933C93EE0FFF1FEE0FFF1FE80DA8
:1023A000F91DEF50F44FE0C0E8EDFBE08E0E9F1EEC
:1023B000D401EC9188E294EF880E991EF0E021514F
:1023C0003C4FD401A20FB31FED90FD900D911C91D5
:1023D0002A5E3340DA012D933C93EE0FFF1FEE0F80
:1023E000FF1FE80DF91DEF5FF34FBEC0E0ECFBE00F
:1023F0008E0E9F1ED4018D919C91E0E4F4EF8E0E21
:102400009F1E840104511C4F019709F06AC5D40135
:10241000AB53B44F8D919C911197F401E80FF91FC4
:10242000E251FC4FE08101968D939C93D8011C9260
:10243000EE2319F0E13039F512C0E7EDFBE08E0E26
:102440009F1ED4016C91E9E2F4EF8E0E9F1E70E0A6
:10245000660F771F660F771F6750744F11C028ED06
:102460003BE0820E931ED4016C91E8E2F4EF8E0EF5
:102470009F1E70E0660F771F660F771F6F5E734FAA
:10248000680D791D41CD85E0E3C420EC3BE0820E70
:10249000931ED4018D919C91E0E4F4EF8E0E9F1E6B
:1024A000840104511C4F059709F0D1C4A4014B537A
:1024B000544FDA012D913C911197F401E20FF31F73
:1024C000E251FC4FE0812F5F3F4F2D933C93215011
:1024D0003040D8011C92EE2321F0E13009F04CC0CD
:1024E00022C0E7EDFBE08E0E9F1ED401EC9189E245
:1024F00094EF880E991EF0E021513C4FD401A20FB9
:10250000B31FED90FD900D911C912A5E3340DA01CE
:102510002D933C93EE0FFF1FEE0FFF1FE80DF91DEB
:10252000E750F44F21C0E8EDFBE08E0E9F1ED40172
:10253000EC9188E294EF880E991EF0E021513C4F17
:10254000D401A20FB31FED90FD900D911C912A5E56
:102550003340DA012D933C93EE0FFF1FEE0FFF1F68
:10256000E80DF91DEF5EF34FE082F18202831383E1
:10257000C4010E94540AEFC485E02DCCE0ECFBE0DE
:102580008E0E9F1ED4018D919C91E0E4F4EF8E0E8F
:102590009F1E840104511C4F892B09F0A2C4D8014D
:1025A0001C92B4016E51744FAFCC20EC3BE0820E14
:1025B000931ED4018D919C91E0E4F4EF8E0E9F1E4A
:1025C000049709F0BDC4F401EB53F44F808191816D
:1025D00082519C4FD401A80FB91FED90FD900D9131
:1025E0001C918A5E934091838083C801B70120E0EB
:1025F00030E040E050E00E94E231181664F5F4014A
:10260000EA51F44F8081882379F022EE3BE0820E7C
:10261000931ED401ED92FD920D931C931397EEE15E
:10262000F4EF8E0E9F1E12C021E23CE0820E931E3C
:10263000D401ED92FD920D931C9313972FED33EF80
:10264000820E931E1082C4010E94540A4CEE53E085
:10265000840E951E72C42CEE33E0820E931E88E029
:1026600074C420EC3BE0820E931ED4018D919C91AA
:10267000E0E4F4EF8E0E9F1E840104511C4F892B61
:1026800009F02FC4D8011C9210E0F401EF5DF34F64
:10269000608171818281938120E030E040E050E0F0
:1026A0000E943E3018160CF011E01983C401BE01DF
:1026B0006F5F7F4FB1CD20EC3BE0820E931ED401C3
:1026C0008D919C91E0E4F4EF8E0E9F1E0197E1F551
:1026D000D401AB53B44F8D919C911197F401E80F45
:1026E000F91FE251FC4F208101968D939C93F401D8
:1026F000EF5DF34F222349F080E090E0A0E0B0E0EE
:1027000080839183A283B38311C022EE3BE0820ECB
:10271000931ED4012D913D914D915C918EE194EFEA
:10272000880E991E2083318342835383C4010E9403
:10273000540AACEEB3E08A0E9B1EF401108224E131
:102740003CEF820E931E07C44CEE53E0840E951EA0
:10275000FBC320EC3BE0820E931ED4018D919C9133
:10276000E0E4F4EF8E0E9F1E069708F4E9C394018F
:102770002B53344FF901A081B181FD01E251FC4F8F
:10278000E80DF91DE080F180CD010296F9019183F9
:102790008083A051BC4FF401EA0FFB1F408151819F
:1027A0000296F901918380831296A80DB91D0D91AF
:1027B0001C910296918380839A01388B2F87F1E0D8
:1027C0002E343F0720F02DE431E0388B2F8740EC8A
:1027D0005BE0840E951ED4012D913C91E0E4F4EF72
:1027E0008E0E9F1E2630310581F044ED5BE0840E95
:1027F000951ED4018D919C91ECE2F4EF8E0E9F1EFC
:1028000006962817390709F0C9C32CEE33E0820E6B
:10281000931ED4011C92EBEEF7E08E0E9F1ED401A6
:10282000ED914D01EE87FC91FD8728E234EF820E99
:10283000931EC40160E041E00E947B0CC40161E092
:1028400043E00E947B0CF401E054F44F44ED5BE064
:10285000840E951ED4018D919C912CE234EF820E52
:10286000931E0696208131812817390719F4C40177
:102870000E94FB0B8E8A9F8A1C861B8687ED282E62
:102880008BE0382E280C391CA4014852544F5B8F22
:102890004A8FC701A0E0B0E08C8F9D8FAE8FBF8FB5
:1028A000D401AA51B44FB9A3A8A3F401E652F44F3E
:1028B000FBA3EAA394012252344F3DA32CA3A4010D
:1028C0004B5D534F5FA34EA3C4018E51944F99A704
:1028D00088A7980140E050E02AA73BA74CA75DA736
:1028E0001CC2D1018C918983EA8DFB8D80818A8302
:1028F0000E9474252B013C01AA24BB241FEFC12E8A
:1029000013E0D12E3BC089818F3F19F180E00E94F6
:102910004A269C01F3E085339F0798F0D1014C9142
:10292000442361F04150C40160E00E947B0CAA2462
:10293000BB24BFEFCB2EB3E0DB2E30C0BFEFB9839B
:102940002DC0A816B90608F45C012C153D0508F445
:1029500069018A818F3F11F181E00E944A269C0122
:10296000E3E085339E0790F0AA8DBB8D4C91442304
:1029700051F04150C40161E00E947B0CEE24FF2421
:102980000FEF13E00BC0BFEFBA8308C0E816F906DB
:1029900008F47C012017310708F489010E9474258E
:1029A00064197509860997092C8D3D8D4E8D5F8DB3
:1029B000621773078407950708F4A5CFC5018C1922
:1029C0009D099C838B83C701801B910B9E838D8304
:1029D000EF2831F00F5F134031F48A818F3F19F0F7
:1029E0004FEF4A8304C0AA8DBB8D8C918A83AB289C
:1029F00041F0BFEFCB16B3E0DB0631F489818F3FA6
:102A000019F0EFEFE98345C1A8A1B9A18C91882302
:102A100009F43CC1AAA1BBA12D913D914D915C91BE
:102A2000298B3A8B4B8B5C8BCA01B90120E030E0DB
:102A300040E050E00E94E23118160CF027C1EB850F
:102A4000FC85EF2B09F422C18981E82FFF27E7FDE0
:102A5000F095D1018C9190E0E817F90709F016C1C3
:102A6000EE0FFF1FEE0FFF1FE80DF91DEF50F44FA3
:102A7000E080F180028113813896A080B180C2800D
:102A8000D3808A818F3F41F12D813E8137FD24C063
:102A9000B901882777FD8095982F0E94DD3020E0CE
:102AA00030E040EA50E40E94313220E030EC4FE761
:102AB00054E40E94423023EF34E045EB5FE30E9490
:102AC000423020E030E040E05FE30E9431326F832B
:102AD000788789879A8708C020E030E040E050E09E
:102AE0002F83388749875A8760E876E988E19BE435
:102AF000A80197010E94423020E030E040E85FE307
:102B00000E94DA2F9B01AC010E9431327B018C01C3
:102B1000C601B50120E836E948E15BE40E943132A4
:102B20009B01AC010E94DA2F2BED3FE049E450E419
:102B30000E943132ACA1BDA12D913D914D915C918E
:102B40000E9431329B01AC010E9431329B01AC01E9
:102B5000C801B7010E94DA2F0E94E4325B016C01C8
:102B60006B817C81882777FD8095982F0E94DD30CE
:102B700020E030E040EA50E40E94313220E030ECC6
:102B80004FE754E40E94423023EF34E045EB5FE32B
:102B90000E94423020E030E040E05FE30E943132AA
:102BA0007B018C0160E070E080E89FE3A601950165
:102BB0000E9442309B01AC01C801B7010E94423023
:102BC0002B013C0169897A898B899C892F81388501
:102BD00049855A850E94DA2F5B016C01C301B2015D
:102BE000A60195010E94D92F7B018C0120E030E0E5
:102BF00040E050E00E94E231181624F017FB1095D7
:102C000017F91095C801B701EEA1FFA1208131810C
:102C1000428153810E94E2311816C4F5C301B2010A
:102C2000A60195010E944230A8A5B9A52D913D911C
:102C30004D915C910E943132E8A5F9A560837183C2
:102C40008283938320E030E040E85FE30E943E30DF
:102C5000882354F480E090E0A0E8BFE3E8A5F9A55C
:102C600080839183A283B3836F81788589859A85D8
:102C7000AAA1BBA12D913D914D915C910E94DA2FAB
:102C8000AB01BC01C40121E00E94EE09F101808189
:102C900089838E899F89BE016D5F7F4F42E050E03E
:102CA0000E94101B8E899F89BE016F5F7F4F41E09C
:102CB00050E00E94101B8E899F89BE016B5F7F4F81
:102CC00042E050E00E94101B8E899F89BE016E5F1A
:102CD0007F4F41E050E00E94101B8BE694E10E9480
:102CE000402B181619060CF10E9474257B018C01EB
:102CF0000E9474256E197F09800B910B2AA53BA5B4
:102D00004CA55DA5621773078407950788F34B856B
:102D10005C854F5F5F4F5C874B878B859C85AF855C
:102D2000B8898A179B0708F4DCCDC40160E04E85A2
:102D30000E947B0CC40161E04D850E947B0C0BC19D
:102D4000E0ECFBE08E0E9F1ED4018D919C91E0E49F
:102D5000F4EF8E0E9F1E840104511C4F892B09F045
:102D6000C0C0D8011C92C40161E00E94820AF3C075
:102D700020EC3BE0820E931ED4018D919C91E0E407
:102D8000F4EF8E0E9F1E840104511C4F892B09F015
:102D9000A8C0D8011C9288E09EC020EC3BE0820EC7
:102DA000931ED4018D919C91E0E4F4EF8E0E9F1E52
:102DB000840104511C4F892B09F049C0D8011C9291
:102DC000E2EDFBE08E0E9F1ED4018C91EEE2F4EF5B
:102DD0003BC0E0ECFBE08E0E9F1ED4018D919C91D8
:102DE000E0E4F4EF8E0E9F1E019709F0A9C0D40114
:102DF000AB53B44F8D919C911197F401E80FF91FDB
:102E0000E251FC4F208101968D939C93F401EE5288
:102E1000F44F41C020EC3BE0820E931ED4018D9113
:102E20009C91E0E4F4EF8E0E9F1E840104511C4F30
:102E3000892B69F4D8011C92E3EDFBE08E0E9F1EF6
:102E4000D4018C91EDE2F4EF8E0E9F1E44C086E01B
:102E5000D8018C9380C0E0ECFBE08E0E9F1ED40165
:102E60008D919C91E0E4F4EF8E0E9F1E019709F086
:102E700067C0D401AB53B44F8D919C911197F4016D
:102E8000E80FF91FE251FC4F208101968D939C932E
:102E9000F401ED52F44F222319F081E0808349C000
:102EA000108247C020EC3BE0820E931ED4018D912E
:102EB0009C91E0E4F4EF8E0E9F1E840104511C4FA0
:102EC000892B79F4D8011C9288E00E9444281A8248
:102ED000892B11F481E08A83C401BE016E5F7F4FAC
:102EE0009BC986E00C94EB0E20EC3BE0820E931E17
:102EF000D4018D919C91E0E4F4EF8E0E9F1E01971A
:102F0000F9F4D401AB53B44F8D919C911197F40116
:102F1000E80FF91FE251FC4F208101968D939C939D
:102F2000222319F088E060E002C088E061E00E949E
:102F300011282CEE33E0820E931ED4011C9207C0A0
:102F40002CEE33E0820E931E86E0D4018C93E4E1F4
:102F5000FCEF8E0E9F1EC4016D890E94451F2CEE52
:102F600033E0820E931ED4018C91AD960FB6F89487
:102F7000DEBF0FBECDBFCF91DF911F910F91FF90AC
:102F8000EF90DF90CF90BF90AF909F908F907F9009
:102F90006F905F904F903F902F900895ECEEF3E08C
:102FA0008E0E9F1ED1CFFC0184E095E0918380833B
:102FB000CF010E940A1B08950F931F938C0161E0BB
:102FC0000E944F1D84E095E0F801918380830E52AA
:102FD000144FF801119210821F910F9108958F9252
:102FE0009F92AF92BF92CF92DF92EF92FF920F9398
:102FF0001F934B015C010E94E6310E9418310E9430
:10300000AA307B018C01772767FD7095872F972F5A
:103010000E94DD309B01AC0160E070E080E291E451
:103020000E9494329B01AC017BE6C72E74E1D72E3F
:10303000C501B4010E944230AB01BC01C60122E0CF
:1030400030E00E94B02FC60160E372E00E94C92EFA
:103050006E2D772767FD7095C6014AE050E00E940B
:10306000972E1F910F91FF90EF90DF90CF90BF9020
:10307000AF909F908F9008950E94EF178BE694E198
:103080000E944A2D08952F923F924F925F926F9225
:103090007F928F929F92AF92BF92CF92DF92EF92E8
:1030A000FF920F931F93DF93CF930F920F92CDB7A1
:1030B000DEB77C011C010E94D11C80E00E944726E3
:1030C00085E361E00E945E278DE061E00E945E275B
:1030D0008CE061E00E945E278BE061E00E945E2749
:1030E0008AE061E00E945E2789E061E00E945E273D
:1030F00088E061E00E945E2788E060E00E9411287D
:1031000064EF71E080E090E00E948225D701ED91AC
:10311000FC910680F781E02DC7011995BC018BE673
:1031200094E10E94C92E8BE694E162E372E00E9472
:10313000C92ED701ED91FC910484F585E02DC701DE
:103140001995BC018BE694E10E94C62F8BE694E1B1
:1031500065E372E00E94C92ED701ED91FC910284D3
:10316000F385E02DC7011995BC018BE694E10E941F
:10317000C62FC7010E94991C89E060E00E941128B7
:10318000E2EEFBE0EE0EFF1E80E090E0A8ECB2E481
:10319000F70180839183A283B3832EE134EFE20EA3
:1031A000F31EC70160E00E94820A8BE694E168E4A6
:1031B00072E00E94C92E87EE9BE0E80EF91ED7014F
:1031C0006D917D917D018BE694E14AE050E00E9493
:1031D000F92D8BE694E16FE572E00E94C92EF701AC
:1031E000619171917F018BE694E14AE050E00E9489
:1031F000F92D8BE694E16FE572E00E94C92ED701AC
:103200006D917D917D018BE694E14AE050E00E9452
:103210000A2E8BE694E161E672E00E94C92E8BE6ED
:1032200094E1F70160814AE050E00E94392E8BE67C
:1032300094E167E672E00E94C92E22E030E0E20EDF
:10324000F31E8BE694E1D7016D917D014AE050E0D9
:103250000E94392E8BE694E167E772E00E94C92E46
:103260008BE694E1F70161917F014AE050E00E9412
:10327000392E8BE694E16DE772E00E94C92ED701EA
:103280004D915D916D917D917D018BE694E122E000
:1032900030E00E94B32F8BE694E166E972E00E9471
:1032A000C92EF70141915191619171917F018BE696
:1032B00094E122E030E00E94B32F8BE694E16FEAC4
:1032C00072E00E94C92ED7016D917D918D919D91E3
:1032D0007D010E943C188BE694E169EC72E00E944B
:1032E000C92EF70161917191819191917F010E94A5
:1032F0003C188BE694E163EE72E00E94C92ED70180
:103300004D915D916D917D917D018BE694E122E07F
:1033100030E00E94B32F8BE694E16CEF72E00E94E4
:10332000C92EF70141915191619171917F018BE615
:1033300094E122E030E00E94B32F8BE694E165E156
:1033400073E00E94C92ED7014D915D916D917D91E1
:103350007D018BE694E122E030E00E94B32F8BE602
:1033600094E16EE273E00E94C92EF7014191519100
:10337000619171917F018BE694E122E030E00E943F
:10338000B32F8BE694E167E473E00E94C92ED70166
:103390006D917D918D919D917D010E943C188BE6F0
:1033A00094E161E673E00E94C92EF7016191719189
:1033B000819191917F010E943C188BE694E16BE72B
:1033C00073E00E94C92ED7016D917D918D919D91E1
:1033D0007D010E943C188BE694E165E973E00E9450
:1033E000C92EF701608171818281938123EE33EFD1
:1033F000E20EF31E0E943C188BE694E16FEA73E044
:103400000E94C92E87010251144F8BE694E1D80126
:103410006C914AE050E00E94392E8BE694E16CEC0E
:1034200073E00E94C92EE1E2FCE0EE0EFF1ED70120
:103430004D915D916D917D917D018BE694E122E04E
:1034400030E00E94B32F8BE694E16CED73E00E94B4
:10345000C92EF70140815181628173812BED33EFD9
:10346000E20EF31E8BE694E122E030E00E94B32FDF
:10347000F701EC52F44F11821082AA24BB24A8E277
:103480008A2E912C68013E010894611C711C2F0149
:103490001A2D38E139838FEF8A83D6016C916A0D3A
:1034A000C101A30122E00E94751CF60160816A0D32
:1034B000C101A30121E00E94561C89818F3F09F0C0
:1034C00045C000E0085E098308511A82D6016C915C
:1034D000610FC101A30122E00E94751CF601608109
:1034E000610FC101A30121E00E94561C898188233C
:1034F00069F5085F0983FFEFFA83D6016C91610FCC
:10350000C101A30122E00E94751C07500530D1F6CD
:103510008BE694E16FEE73E00E94C92E8BE694E196
:10352000B5014AE050E00E94972E8BE694E169EFE6
:1035300073E00E94C62F940128523040F20180812E
:1035400091818217930711F4918280820894A11CC3
:10355000B11C28E230E0820E931E38E0A316B104BD
:1035600009F096CF84ED9BE0E80EF91ED7016D912E
:103570007C91ECE2F4EFEE0EFF1E8BE694E14AE064
:1035800050E00E94F92D8BE694E165E074E00E9422
:10359000C62FF701E351F44FC70160E040810E945C
:1035A000E109F701E051F44FC70161E040810E9459
:1035B000E109F701E151F44FC70162E040810E9447
:1035C000E109C70163E040E00E94E109C70160E052
:1035D00040E00E947B0CC70161E040E00E947B0C50
:1035E000C70164E00E945E090F900F90CF91DF91B8
:1035F0001F910F91FF90EF90DF90CF90BF90AF9011
:103600009F908F907F906F905F904F903F902F9002
:1036100008950895FC018BE295E0918380830895DD
:103620000F931F93CF93DF938C0120E030E0EC01E8
:10363000C953D44F10C0F801E20FF31F888199815C
:10364000E80FF91FE251FC4FDB01A20FB31F8C9171
:1036500080832F5F3F4F2417350768F38881998156
:10366000840F951F99838883DF91CF911F910F91CC
:103670000895CF93DF93DC01FC01E351FC4F60819F
:10368000EC01C451DC4F67FF0EC06058608382E0DC
:103690008883ED91FC91119760580488F589E02D9D
:1036A000CD0119950EC0FC01E054F44F8081918149
:1036B000A80FB91FA351BC4F2C9128830197918368
:1036C0008083DF91CF910895CF93DF93EC01FC01CC
:1036D000E753F44F6D3719F481E08083DAC09081AD
:1036E000992311F080E268276E3749F4992339F461
:1036F000CD53D44F19821882C35CDB40C4C0CD5374
:10370000D44F28813981C35CDB4021153105A1F4F8
:10371000C351DC4F6883C152D84F8881CC5CDB40F9
:10372000882309F448C0C153D44F8FEF9FEF99838A
:103730008883CF5CDB403FC021303105B1F4DE012E
:10374000AE53B44FFE01E054F44F67FF09C083E06D
:103750008C93862F90E08F779070108281832BC09E
:1037600082E08C936083118226C02230310589F477
:10377000CE53D44F8881C25CDB40833051F4FE01CC
:10378000E054F44F80819181860F911D9183808355
:1037900012C0CE53D44F8881F901E81BF1099A91E8
:1037A0008A91C05CDB40E817F90728F4EC0FFD1F95
:1037B000E251FC4F6083C453D44F8881CC5CDB4022
:1037C0008823F1F0FE01E153F44F80819181862737
:1037D000282F22952827022E269526952025022E71
:1037E000269520252770082E892F26950794279542
:1037F000902D822706942795902582279183808398
:10380000FE01ED53F44F408151814F5F5F4F518373
:103810004083CE53D44F88813A912A91280F311D8D
:103820002C966881CC5CDB40862F90E0880F991F36
:10383000280F391F4217530731F511821082CB53DD
:10384000D44F1992199219821882C75CDB40662303
:1038500041F0C153D44F88819981CF5CDB40892BE3
:1038600019F4CE010E94391BFE01E553F44F9081FB
:10387000992349F0C351DC4F90588881CD5ED340E5
:10388000891709F41082FE01E753F44F80818111FA
:103890001082DF91CF9108958BE791E10E94D802C9
:1038A00008958BE791E10E94D10208951F93CF9371
:1038B000DF93EA0182EC91E1422F0E94FE0310E0C7
:1038C00009C082EC91E10E943703FE01E10FF11D76
:1038D00080831F5F82EC91E10E942E03892B89F780
:1038E000812FDF91CF911F910895FF920F931F9326
:1038F000CF93DF93142F052FF22E82EC91E10E94DB
:103900001A03212F302FC901EC0110E006C082EC10
:1039100091E169910E94A6031F5F1F15C0F382EC1D
:1039200091E10E94E903DF91CF911F910F91FF90E8
:1039300008951F9318E082EC91E1612F0E941A0311
:1039400082EC91E10E94E903882331F58BE694E152
:103950006AE174E00E94C92E8BE694E1612F4AE08F
:1039600050E00E94272E8BE694E16EE274E00E9404
:10397000C92E8BE694E1612F40E150E00E94272E92
:103980008BE694E163E374E00E94C62F61E070E08F
:1039900080E090E00E9482251F5F183761F61F913A
:1039A0000895AF92BF92CF92DF92EF92FF920F9362
:1039B0001F93DF93CF9300D00F92CDB7DEB77C017A
:1039C0006E010894C11CD11C56010FE010E0D70114
:1039D000ED91FC910088F189E02DC701B80119959E
:1039E000F50181935F010F5F1F4F0331110579F7D7
:1039F00089819A81AB81BC818F5F9F4FAF4FBF4F51
:103A0000D9F480E092ECA1E0B0E089839A83AB83A3
:103A1000BC830FE010E0D701ED91FC910288F3899F
:103A2000E02DC701B801D6014D916D0119950F5FC9
:103A30001F4F0331110579F749815A816B817C81D0
:103A40008BE694E10E94B92A82EC91E10E94020483
:103A50000E9403030F900F900F900F90CF91DF9172
:103A60001F910F91FF90EF90DF90CF90BF90AF909C
:103A70000895CF93DF93EC0108C08BE694E10E9498
:103A8000712B682FCE010E94641B8BE694E10E948B
:103A9000402B181619068CF3DF91CF9108957F9271
:103AA0008F929F92AF92BF92CF92DF92EF92FF924E
:103AB0000F931F93CF93DF93FC018BE295E09183EB
:103AC0008083E453F44F60833997118210823696D5
:103AD00010823997118210823596119211921182BB
:103AE00010823A961082AA24BB24882499248BE75A
:103AF00091E1B5010E94D102182FB501695F7F4F96
:103B00008BE791E10E94D102E401EE24FF24C12E53
:103B1000DD24C094D094082F10E000951095C63392
:103B2000D105B4F4B6010E2C02C0759567950A94C0
:103B3000E2F761708C2F0E945E27B8010E2C02C044
:103B4000759567950A94E2F761708C2F0E94112891
:103B50000894E11CF11C219688E0E816F104F9F6BE
:103B60000894A11CB11C88E090E0880E991E97E093
:103B7000A916B10409F0BBCFDF91CF911F910F912E
:103B8000FF90EF90DF90CF90BF90AF909F908F907D
:103B90007F9008951F93162F862F8D57823050F4F3
:103BA0008BE694E16DE70E94AA2B60E261278BE629
:103BB00094E102C08BE694E10E94AA2B1F91089524
:103BC0008F929F92AF92BF92CF92DF92EF92FF922D
:103BD0000F931F93CF93DF93EC01BEEEEB2EB3E078
:103BE000FB2EE80EF91E00E010E0A0EC8A2EABE000
:103BF0009A2E880E991EFCECAF2EFBE0BF2EA80E6D
:103C0000B91EEDECCE2EEBE0DE2EC80ED91E2AC07A
:103C1000F50180818823F1F0F7012081F601808190
:103C200091818227282F22952827022E26952695D6
:103C30002025022E269520252770082E892F2695CF
:103C400007942795902D8227069427959025822703
:103C500091838083CE01F70161917F010E94CA1D8B
:103C60000F5F1F4FF401808191810817190708F435
:103C7000CFCFF5018081882369F08E010353144F63
:103C8000CE01F80160810E94CA1DF8016181CE0158
:103C90000E94CA1DC054D44F1982188227961982D7
:103CA0001882DF91CF911F910F91FF90EF90DF90DD
:103CB000CF90BF90AF909F908F9008950F931F93D8
:103CC000CF93DF93EC01062FFC01E054F44FC9536E
:103CD000D44F88819981918380838BE694E16EE74C
:103CE0000E94AA2B25968881CC5CDB408823F9F0C2
:103CF000C353D44F8FEF9FEF8027282F229528277B
:103D0000022E269526952025022E26952025277001
:103D1000082E892F269507942795902D82270694A3
:103D200027959025822799838883CD5CDB40CE013F
:103D3000602F0E94CA1DDE01A054B44F2D913C910A
:103D40001197FE01E453F44F2038310530F580819E
:103D50008823F1F0FE01E353F44F808191818227A3
:103D6000282F22952827022E269526952025022EDB
:103D7000269520252770082E892F269507942795AC
:103D8000902D822706942795902582279183808302
:103D9000CE01C054D44F688149C08081882309F482
:103DA00037C03068FE01E353F44F8081918183274F
:103DB000282F22952827022E269526952025022E8B
:103DC000269520252770082E892F2695079427955C
:103DD000902D822706942795902582272C91822763
:103DE000282F22952827022E269526952025022E5B
:103DF000269520252770082E892F2695079427952C
:103E0000902D822706942795902582279183808381
:103E10008E010054144FF801208131813068CE01A9
:103E2000632F0E94CA1DCE01F80160810E94CA1D45
:103E3000DF91CF911F910F9108950F931F93DF93FF
:103E4000CF930F92CDB7DEB78C016983DC01A95304
:103E5000B44F8D919C911197F801E80FF91FE25131
:103E6000FC4F608301968D939C93F801E351FC4FC6
:103E7000C80160810E945E1EC8010E94E01D0F9073
:103E8000CF91DF911F910F9108959F92AF92BF92B2
:103E9000CF92DF92EF92FF920F931F93DF93CF9316
:103EA000CDB7DEB767970FB6F894DEBF0FBECDBFB4
:103EB0007C0170E0CB01805890408931910508F079
:103EC000AFC588539F4FD701A054B44FFC01EE0FEC
:103ED000FF1F0590F491E02D19948D919C91892BF1
:103EE00009F093C5D701ED91FC910280F381E02D9B
:103EF000C70119958C01D701ED91FC910280F381E6
:103F0000E02DC7011995DC010D900020E9F7AD0106
:103F100041505040481B590B20E030E0B701695335
:103F2000744F11C0F701E20FF31FDB018D919C91DB
:103F3000E80FF91FE251FC4FD801A20FB31F8C917B
:103F400080832F5F3F4F2417350760F35BC18D914E
:103F50009C91892B09F059C5D701ED91FC91048002
:103F6000F581E02DC70119958C01D701ED91FC91E8
:103F70000480F581E02DC7011995DC010D9000202A
:103F8000E9F7AD0141505040481B590B20E030E0AB
:103F9000B7016953744F11C0F701E20FF31FDB0142
:103FA0008D919C91E80FF91FE251FC4FD801A20FAF
:103FB000B31F8C9180832F5F3F4F2417350760F329
:103FC00021C18D919C91892B09F01FC5D701ED91DD
:103FD000FC910680F781E02DC70119958C01D7016E
:103FE000ED91FC910680F781E02DC7011995DC0168
:103FF0000D900020E9F7AD0141505040481B590B8E
:1040000020E030E0B7016953744F11C0F701E20FAF
:10401000F31FDB018D919C91E80FF91FE251FC4FDA
:10402000D801A20FB31F8C9180832F5F3F4F2417BD
:10403000350760F3E7C08D919C91892B09F0E5C4A9
:10404000D701ED91FC910084F185E02DC701199510
:104050008C01D701ED91FC910084F185E02DC70121
:104060001995DC010D900020E9F7AD014150504059
:10407000481B590B20E030E0B7016953744F11C061
:10408000F701E20FF31FDB018D919C91E80FF91FFF
:10409000E251FC4FD801A20FB31F8C9180832F5F98
:1040A0003F4F2417350760F3ADC08D919C91892B4C
:1040B00009F0ABC4D701ED91FC910284F385E02DAA
:1040C000C70119958C01D701ED91FC910284F3850C
:1040D000E02DC7011995DC010D900020E9F7AD0135
:1040E00041505040481B590B20E030E0B701695364
:1040F000744F11C0F701E20FF31FDB018D919C910A
:10410000E80FF91FE251FC4FD801A20FB31F8C91A9
:1041100080832F5F3F4F2417350760F373C08D9165
:104120009C91892B09F071C4D701ED91FC91048415
:10413000F585E02DC70119958C01D701ED91FC9112
:104140000484F585E02DC7011995DC010D90002050
:10415000E9F7AD0141505040481B590B20E030E0D9
:10416000B7016953744F11C0F701E20FF31FDB0170
:104170008D919C91E80FF91FE251FC4FD801A20FDD
:10418000B31F8C9180832F5F3F4F2417350760F357
:1041900039C08D919C91892B09F037C4D701ED91DD
:1041A000FC910684F785E02DC70119958C01D70194
:1041B000ED91FC910684F785E02DC7011995DC018E
:1041C0000D900020E9F7AD0141505040481B590BBC
:1041D00020E030E0B7016953744F11C0F701E20FDE
:1041E000F31FDB018D919C91E80FF91FE251FC4F09
:1041F000D801A20FB31F8C9180832F5F3F4F2417EC
:10420000350760F3FB0180819181840F951FFAC30C
:104210008D919C91892B09F0F8C320E030E0B70123
:104220006953744FF701E20FF31FDB014D915C916D
:10423000E40FF51FE251FC4FD901A45EBA4F8C91F7
:1042400080832F5F3F4F2A30310561F7465F5F4F14
:10425000B3C18D919C91870104511C4F029709F0C5
:1042600073C3D701AB53B44F2D913C911197F70114
:10427000E20FF31FE251FC4F80812F5F3F4FF701A8
:10428000E20FF31FE251FC4F60812F5F3F4F2D93F0
:104290003C930E945E2755C38D919C9187010451E8
:1042A0001C4F029709F050C3D701AB53B44F2D9167
:1042B0003C911197F701E20FF31FE251FC4F80810F
:1042C0002F5F3F4FF701E20FF31FE251FC4F608178
:1042D0002F5F3F4F2D933C930E94112832C38D9145
:1042E0009C91870104511C4F019709F02DC3D70100
:1042F000AB53B44F2D913C911197F701E20FF31F8F
:10430000E251FC4F80812F5F3F4F2D933C930E94E1
:1043100044288983D701A953B44F2D913C9111971B
:10432000F701E20FF31FE251FC4F80832F5F3F4FF5
:104330002D933C9306C38D919C91870104511C4F92
:10434000029709F001C3D701AB53B44F2D913C91B3
:104350001197F701E20FF31FE251FC4F80812F5FAD
:104360003F4F11963C932E9322513C4FF701E20FA1
:10437000F31F608171812C5E33402D933C930E942A
:104380007E26DFC28D919C918130910519F00397B3
:1043900009F03BC3D701AB53B44F2D913C9111971A
:1043A000F701E20FF31FE251FC4F90802F5F3F4F68
:1043B00011963C932E932150304040EC5BE0E40E8C
:1043C000F51EF7018081918140E454EFE40EF51E63
:1043D0000197B1F021513C4FF701E20FF31FC0806C
:1043E000D1802C5E33402D933C9359EEC51653E09B
:1043F000D50648F08CEE93E0E80EF91E89E00AC37A
:1044000071E0C72ED12C4CEE53E0E40EF51ED7011F
:104410001C92E4E1FCEFEE0EFF1EF701E953F44FAE
:10442000C601880F991F20813181820F931F9183CC
:1044300080835EEEA52E53E0B52EAE0CBF1C00E0CF
:1044400010E009C0892D0E944A26D5018D939D93C5
:104450005D010F5F1F4F0C151D05A0F3E1C28D918B
:104460009C91870104511C4F039709F051C0D7015B
:10447000AB53B44F8D919C911197FC01E251FC4FCD
:10448000EE0DFF1D60817181F701E80FF91FE0510A
:10449000FC4F408103968D939C93D701ED91FC9145
:1044A0000288F389E02DC7011995B0C18D919C91C7
:1044B000870104511C4F029759F5D701AB53B44FF4
:1044C0008D919C91119782519C4FF701E80FF91F34
:1044D000608171818C5E93408D939C93D701ED91A7
:1044E000FC910088F189E02DC70119958983D701D6
:1044F000A953B44F2D913C911197F701E20FF31F8F
:10450000E251FC4F80832F5F3F4F2D933C937EC140
:1045100086E080C18D919C91029709F076C2D70107
:10452000AB53B44F8D919C911197F701E80FF91F90
:10453000E251FC4F60810196F701E80FF91FE2514B
:10454000FC4FA08001968D939C938E01065F1F4FB8
:10455000C8010E944D08C8010E947906DD24B02ED2
:10456000C12E8E010E5F1F4F8B2D9C2DB8010E9416
:10457000B707D394AD14C0F7882341F120E030E0B1
:10458000B7016953744F8E010E5F1F4FF701E20FA1
:10459000F31FDB014D915C91E40FF51FE251FC4FDD
:1045A000D801A20FB31F8C9180832F5F3F4F28301B
:1045B000310561F7485F5F4FFB01518340834CEE4B
:1045C00053E0E40EF51ED7011C9226C24CEE53E0D8
:1045D000E40EF51E85E01EC28D919C910B9709F0AB
:1045E00014C2D701AB53B44F8D919C911197F70131
:1045F000E80FF91FE251FC4F6081019611969C93E0
:104600008E9342E0C42ED12CCC0EDD1EAD01C6012E
:10461000BC2CA92E8E01065F1F4FFA01808191816B
:10462000F701E80FF91FE251FC4F20810196FA01D2
:1046300091838083F60121936F01E017F10769F7F9
:104640008D919C911197F701E80FF91FE251FC4FF2
:1046500010810196F701E80FF91FE251FC4F00812C
:1046600001968D939C93C6010E944D08C6010E943D
:104670006C07C6016B2D7A2D0E944B07C601612F76
:1046800040E00E940B0710E03AE0A32EB12CAC0EE4
:10469000BD1E27ECC22E2BE0D22ECE0CDF1C13C089
:1046A000C5010E94BA068983D6012D913C911197CC
:1046B000F701E20FF31FE251FC4F80832F5F3F4F62
:1046C0002D933C931F5F101758F3ECEEF3E0EE0EC2
:1046D000FF1E79CF8D919C910B9709F096C1D70160
:1046E000AB53B44F8D919C911197F701E80FF91FCF
:1046F000E251FC4F6081019611969C938E9392E05B
:10470000C92ED12CCC0EDD1EAD01C601BC2CA92EAC
:104710008E01065F1F4FFA0180819181F701E80F3A
:10472000F91FE251FC4F20810196FA0191838083A9
:10473000F60121936F01E017F10769F78D919C91C4
:104740001197F701E80FF91FE251FC4F0081019624
:10475000F701E80FF91FE251FC4F108101968D938C
:104760009C93C6010E944D08C6010E946C07C601B9
:104770006B2D7A2D0E944B07C601602F412F0E949E
:104780000B071DCF8D919C91029709F046C0D70170
:10479000AB53B44F8D919C911197F701E80FF91F1E
:1047A000E251FC4F60810196F701E80FF91FE251D9
:1047B000FC4FC08001968D939C9382EC91E14C2D2F
:1047C0000E94FE03DD2487010953144F14C082ECBC
:1047D00091E10E9437038983D8012D913C91119773
:1047E000F701E20FF31FE251FC4F80832F5F3F4F31
:1047F0002D933C93D39482EC91E10E942E03892B5C
:1048000031F7870104511C4FDC1419F4F8011082B0
:1048100007C181E0D8018C9303C1ECEEF3E0EE0E0A
:10482000FF1EF7C08D919C91029708F4EEC087019E
:104830000B53144FD8018D919C911197F701E80FFC
:10484000F91FE251FC4F608101968D939C9382EC9D
:1048500091E10E941A03DD2480ECA82E8BE0B82E93
:10486000AE0CBF1C12C0F80180819181F701E80FE6
:10487000F91FE251FC4F60810196D8018D939C9302
:1048800082EC91E10E94A603D3942D2D30E0F50136
:104890008081918101972817390728F382EC91E1F3
:1048A0000E94E9038CCE8D919C91870104511C4F8D
:1048B000019709F049C0D701AB53B44F2D913C91FA
:1048C0001197F701E20FF31FE251FC4F80812F5F38
:1048D0003F4F2D933C930E94E40233C08D919C91F5
:1048E000870104511C4F019779F5D701AB53B44FA1
:1048F0002D913C911197F701E20FF31FE251FC4F0C
:1049000080812F5F3F4F2D933C930E94F20219C08C
:104910008D919C91870104511C4F0197A9F4D701F7
:10492000AB53B44F2D913C911197F701E20FF31F58
:10493000E251FC4F80812F5F3F4F2D933C930E94AB
:10494000ED02D8011C926CC086E0F801808368C03B
:104950008D919C91019709F058C0D701AB53B44F8A
:104960008D919C911197F701E80FF91FE251FC4FCF
:10497000208101968D939C932EBD0DB407FEFDCF33
:104980002EB52983D701A953B44F8D919C911197CE
:10499000F701E80FF91FE251FC4F208301968D9338
:1049A0009C930DCE8D919C91892B79F54AEE53E025
:1049B000E40EF51ED7016D917C91E6E1FCEFEE0E61
:1049C000FF1E870120E030E0A7014953544F10C07B
:1049D000F701E20FF31FDA018D919C91E80FF91FA7
:1049E000E251FC4FD80111968C9180832F5F3F4F8D
:1049F0000F5F1F4F2617370758F3FA018081918107
:104A0000860F971F91838083DACD4CEE53E0E40E3E
:104A1000F51E86E0D7018C93E4E1FCEFEE0EFF1E5D
:104A2000870104511C4FC701D8016C910E941D1FC2
:104A3000F801808167960FB6F894DEBF0FBECDBF38
:104A4000CF91DF911F910F91FF90EF90DF90CF906A
:104A5000BF90AF909F9008951F920F920FB60F9244
:104A600011242F933F938F939F93AF93BF93809184
:104A7000461290914712A0914812B091491230917C
:104A80004A120196A11DB11D232F2D5F2D3720F055
:104A90002D570196A11DB11D20934A1280934612F5
:104AA00090934712A0934812B093491280914212FA
:104AB00090914312A0914412B09145120196A11D0C
:104AC000B11D8093421290934312A0934412B0936D
:104AD0004512BF91AF919F918F913F912F910F9070
:104AE0000FBE0F901F9018958FB7F8942091461223
:104AF0003091471240914812509149128FBFB9012D
:104B0000CA0108959B01AC017FB7F89480914212CD
:104B100090914312A0914412B091451266B5A89BA2
:104B200005C06F3F19F00196A11DB11D7FBFBA2FBF
:104B3000A92F982F8827860F911DA11DB11D62E016
:104B4000880F991FAA1FBB1F6A95D1F7BC012DC002
:104B5000FFB7F8948091421290914312A0914412B1
:104B6000B0914512E6B5A89B05C0EF3F19F001963C
:104B7000A11DB11DFFBFBA2FA92F982F88278E0F17
:104B8000911DA11DB11DE2E0880F991FAA1FBB1F37
:104B9000EA95D1F7861B970B885E9340C8F22150A7
:104BA00030404040504068517C4F2115310541054F
:104BB000510571F60895019739F0880F991F880FF4
:104BC000991F02970197F1F70895789484B5826050
:104BD00084BD84B5816084BD85B5826085BD85B5A1
:104BE000816085BDEEE6F0E0808181608083E1E850
:104BF000F0E0108280818260808380818160808388
:104C0000E0E8F0E0808181608083E1EBF0E080818A
:104C100084608083E0EBF0E0808181608083E1E963
:104C2000F0E0808182608083808181608083E0E920
:104C3000F0E0808181608083E1EAF0E08081826041
:104C40008083808181608083E0EAF0E08081816000
:104C50008083E1E2F1E080818260808380818160F5
:104C60008083E0E2F1E0808181608083EAE7F0E028
:104C70008081846080838081826080838081816084
:104C800080838081806880831092C1000895809322
:104C900045040895382F863308F0365320917B0061
:104CA000832F86958695869590E08170907043E07D
:104CB000880F991F4A95E1F7277F282B20937B00C7
:104CC0003770809145048295880F880F807C832BF4
:104CD00080937C0080917A00806480937A00809138
:104CE0007A0086FDFCCF2091780040917900942FC6
:104CF00080E030E0282B392BC90108951F93CF9312
:104D0000DF93182FEB0161E00E945E27209709F4E2
:104D1000CAC0CF3FD10509F4C9C0E12FF0E0E25E7F
:104D2000FC4F8491893009F466C08A30B0F4843035
:104D3000F1F1853040F4823059F1833070F58130E3
:104D400009F0AEC020C0873009F443C0883008F0B5
:104D500048C0863009F0A4C034C08D3009F478C052
:104D60008E3038F48B3009F45AC08C3008F066C0AD
:104D70004CC0803109F480C0813109F487C08F3084
:104D800009F08EC06FC084B5806884BDC7BD92C075
:104D900084B5806284BDC8BD8DC08091800080686C
:104DA00080938000D0938900C093880083C0809155
:104DB0008000806280938000D0938B00C0938A0033
:104DC00079C08091B00080688093B000C093B30038
:104DD00071C08091B00080628093B000C093B40035
:104DE00069C080919000806880939000D093990072
:104DF000C09398005FC08091900080628093900083
:104E0000D0939B00C0939A0055C080919000886019
:104E100080939000D0939D00C0939C004BC08091E4
:104E2000A00080688093A0008091A0008F7B809379
:104E3000A000D093A900C093A8003CC08091A0001E
:104E400080628093A000D093AB00C093AA0032C0D0
:104E50008091A00088608093A000D093AD00C093A3
:104E6000AC0028C080912001806880932001D093FD
:104E70002901C09328011EC0809120018062809387
:104E80002001D0932B01C0932A0114C080912001EE
:104E9000886080932001D0932D01C0932C010AC01B
:104EA000C038D1051CF4812F60E002C0812F61E081
:104EB0000E941128DF91CF911F910895CF93DF9326
:104EC000482F50E0CA0188529D4FFC0134914E5644
:104ED0005D4FFA018491882369F190E0880F991F52
:104EE000FC01EC5BFD4FA591B491FC01E25AFD4F32
:104EF000C591D491662351F42FB7F8948C91932FD8
:104F0000909589238C93888189230BC0623061F44A
:104F10002FB7F8948C91932F909589238C93888147
:104F2000832B88832FBF06C09FB7F8948C91832B67
:104F30008C939FBFDF91CF910895893009F449C0C8
:104F40008A30A0F4843051F1853040F4823079F118
:104F5000833000F5813009F063C026C0873079F1D5
:104F6000883098F5863009F05BC025C08D3009F493
:104F700042C08E3028F48B30B1F18C30C0F52DC09A
:104F8000803109F442C0813109F445C08F3009F005
:104F900047C037C0809180008F7703C08091800028
:104FA0008F7D80938000089584B58F7702C084B58B
:104FB0008F7D84BD08958091B0008F7703C080916C
:104FC000B0008F7D8093B0000895809190008F771E
:104FD00007C0809190008F7D03C080919000877FF3
:104FE0008093900008958091A0008F7707C08091F2
:104FF000A0008F7D03C08091A000877F8093A000D8
:105000000895809120018F7703C0809120018F7DCA
:1050100080932001089580912001877F8093200153
:105020000895FF920F931F93F62E482F50E0CA0168
:10503000825E9C4FFC012491CA0188529D4FFC0165
:1050400014914E565D4FFA0104910023C9F02223BA
:1050500019F0822F0E949D27E02FF0E0EE0FFF1F36
:10506000E25AFD4FA591B4919FB7F894FF2021F427
:105070008C911095812302C08C91812B8C939FBFC2
:105080001F910F91FF9008950F931F93482F50E0A9
:10509000CA01825E9C4FFC012491CA0188529D4F37
:1050A000FC0104914E565D4FFA011491112319F43D
:1050B00020E030E015C0222319F0822F0E949D27A6
:1050C000812F90E0880F991F88589D4FFC01A59172
:1050D000B4918C9120E030E0802311F021E030E0A9
:1050E000C9011F910F91089508951F920F920FB655
:1050F0000F920BB60F9211242F933F934F938F93E0
:105100009F93EF93FF938091C00082FD1DC040915B
:10511000C60020918B1230918C122F5F3F4F2F735E
:10512000307080918D1290918E122817390771F08E
:10513000E0918B12F0918C12E55BFD4E4083309331
:105140008C1220938B1202C08091C600FF91EF91C8
:105150009F918F914F913F912F910F900BBE0F9088
:105160000FBE0F901F90189508951F920F920FB6C3
:105170000F920BB60F9211242F933F934F938F935F
:105180009F93EF93FF938091C80082FD1DC04091D3
:10519000CE0020911313309114132F5F3F4F2F73C4
:1051A000307080911513909116132817390771F0FC
:1051B000E0911313F0911413ED52FD4E40833093A0
:1051C00014132093131302C08091CE00FF91EF912E
:1051D0009F918F914F913F912F910F900BBE0F9008
:1051E0000FBE0F901F90189508951F920F920FB643
:1051F0000F920BB60F9211242F933F934F938F93DF
:105200009F93EF93FF938091D00082FD1DC040914A
:10521000D60020919B1330919C132F5F3F4F2F732B
:10522000307080919D1390919E132817390771F06B
:10523000E0919B13F0919C13E55AFC4E4083309310
:105240009C1320939B1302C08091D600FF91EF9195
:105250009F918F914F913F912F910F900BBE0F9087
:105260000FBE0F901F90189508951F920F920FB6C2
:105270000F920BB60F9211242F933F934F938F935E
:105280009F93EF93FF938091300182FD1DC0409169
:10529000360120912314309124142F5F3F4F2F7338
:1052A000307080912514909126142817390771F0D9
:1052B000E0912314F0912414ED51FC4E408330937F
:1052C00024142093231402C080913601FF91EF91A2
:1052D0009F918F914F913F912F910F900BBE0F9007
:1052E0000FBE0F901F901895E0917714F0917814ED
:1052F000E05CFF4F8191919120813181821B930B62
:105300008F739070892B11F00E947428E09199148A
:10531000F0919A14E05CFF4F81919191208131814D
:10532000821B930B8F739070892B11F00E94B4280D
:10533000E091BB14F091BC14E05CFF4F819191911E
:1053400020813181821B930B8F739070892B11F018
:105350000E94F428E091DD14F091DE14E05CFF4F30
:105360008191919120813181821B930B8F73907079
:10537000892B11F00E94342908951F920F920FB6C5
:105380000F920BB60F9211242F933F938F939F93FD
:10539000EF93FF932091CF123091D0128091D112D0
:1053A0009091D2122817390731F48091C1008F7D76
:1053B0008093C10014C0E091D112F091D212E15754
:1053C000FD4E20818091D1129091D21201968F735F
:1053D00090709093D2128093D1122093C600FF91C7
:1053E000EF919F918F913F912F910F900BBE0F9056
:1053F0000FBE0F901F9018951F920F920FB60F922D
:105400000BB60F9211242F933F938F939F93EF939B
:10541000FF93209157133091581380915913909115
:105420005A132817390731F48091C9008F7D809372
:10543000C90014C0E0915913F0915A13E95EFC4E73
:1054400020818091591390915A1301968F73907017
:1054500090935A13809359132093CE00FF91EF91AC
:105460009F918F913F912F910F900BBE0F900FBE88
:105470000F901F9018951F920F920FB60F920BB6B8
:105480000F9211242F933F938F939F93EF93FF934A
:105490002091DF133091E0138091E1139091E2139A
:1054A0002817390731F48091D1008F7D8093D10086
:1054B00014C0E091E113F091E213E156FC4E20811B
:1054C0008091E1139091E21301968F739070909305
:1054D000E2138093E1132093D600FF91EF919F9107
:1054E0008F913F912F910F900BBE0F900FBE0F9099
:1054F0001F9018951F920F920FB60F920BB60F9236
:1055000011242F933F938F939F93EF93FF932091B9
:105510006714309168148091691490916A14281767
:10552000390731F4809131018F7D8093310114C0AE
:10553000E0916914F0916A14E95DFB4E208180913D
:10554000691490916A1401968F73907090936A1405
:105550008093691420933601FF91EF919F918F9171
:105560003F912F910F900BBE0F900FBE0F901F9089
:105570001895AF92BF92DF92EF92FF920F931F9315
:10558000CF93DF93EC017A018B01DD24403081EE73
:10559000580780E0680780E0780711F0DD24D39495
:1055A00091E0A92EB12CEC89FD89DD2069F0C501BF
:1055B00008A002C0880F991F0A94E2F7808360E078
:1055C00079E08DE390E005C0108260E874E88EE138
:1055D00090E0A80197010E943234215030404040B1
:1055E0005040569547953795279580E120303807EC
:1055F00020F0DD2011F0DD24D6CFE889F989308351
:10560000EA89FB89208319A2EE89FF89408121E084
:1056100030E0C9010C8C02C0880F991F0A94E2F790
:10562000482B4083EE89FF894081C9010D8C02C05F
:10563000880F991F0A94E2F7482B4083EE89FF896F
:105640004081C9010E8C02C0880F991F0A94E2F7AD
:10565000482B4083EE89FF8980810F8C02C0220F86
:10566000331F0A94E2F7209528232083DF91CF91FE
:105670001F910F91FF90EF90DF90BF90AF90089532
:10568000DC011C96ED91FC911D97E05CFF4F219190
:10569000319180819181281B390B2F733070C901A2
:1056A0000895DC011C96ED91FC911D97E05CFF4F85
:1056B00020813181E054F040DF01AE5BBF4F8D911E
:1056C0009C9111972817390719F42FEF3FEF07C066
:1056D0008D919C91E80FF91F8081282F30E0C9013E
:1056E0000895DC011C96ED91FC911D97E05CFF4F45
:1056F00020813181E054F040DF01AE5BBF4F8D91DE
:105700009C9111972817390719F42FEF3FEF10C01C
:105710008D919C911197E80FF91F20818D919C919B
:10572000119701968F73907011969C938E9330E031
:10573000C9010895DC0191968C919197882339F0E5
:105740005496ED91FC915597808186FFF9CF919603
:105750001C920895CF93DF93EC01EE85FF85E05C0A
:10576000FF4F20813181E054F0402F5F3F4F2F7376
:105770003070DF01AE5BBF4F8D919C911197281760
:105780003907D1F3E05CFF4F80819181E054F04014
:10579000E80FF91F6083EE85FF85E05CFF4F3183E2
:1057A0002083EE89FF89208181E090E00F8C02C088
:1057B000880F991F0A94E2F7282B208381E089A3A0
:1057C000EC89FD8980818064808381E090E0DF91B5
:1057D000CF9108951F9310926E1410926D1428EEBD
:1057E00033E040E050E020936F1430937014409306
:1057F00071145093721465E475E070936C146093A7
:105800006B148BE492E190937814809377148FE873
:1058100092E190937A148093791485EC90E09093C0
:105820007C1480937B1484EC90E090937E1480939E
:105830007D1480EC90E09093801480937F1481EC31
:1058400090E0909382148093811482EC90E0909386
:1058500084148093831486EC90E090938614809354
:10586000851414E010938714B3E0B0938814A7E074
:10587000A0938914F5E0F0938A14E1E0E0938B148F
:105880001092901410928F142093911430939214CC
:10589000409393145093941470938E1460938D14CA
:1058A00083ED92E190939A148093991487E193E1A8
:1058B00090939C1480939B148DEC90E090939E1495
:1058C00080939D148CEC90E09093A01480939F148F
:1058D00088EC90E09093A2148093A11489EC90E05E
:1058E0009093A4148093A3148AEC90E09093A61450
:1058F0008093A5148EEC90E09093A8148093A71445
:105900001093A914B093AA14A093AB14F093AC1401
:10591000E093AD141092B2141092B1142093B3140A
:105920003093B4144093B5145093B6147093B014DC
:105930006093AF148BE593E19093BC148093BB14F8
:105940008FE993E19093BE148093BD1485ED90E0B0
:105950009093C0148093BF1484ED90E09093C21490
:105960008093C11480ED90E09093C4148093C3148D
:1059700081ED90E09093C6148093C51482ED90E081
:105980009093C8148093C71486ED90E09093CA1446
:105990008093C9141093CB14B093CC14A093CD145E
:1059A000F093CE14E093CF141092D4141092D31429
:1059B0002093D5143093D6144093D7145093D81411
:1059C0007093D2146093D11483EE93E19093DE141C
:1059D0008093DD1487E294E19093E0148093DF14C8
:1059E00085E391E09093E2148093E11484E391E0E5
:1059F0009093E4148093E31480E391E09093E61491
:105A00008093E51481E391E09093E8148093E71488
:105A100082E391E09093EA148093E91486E391E0A5
:105A20009093EC148093EB141093ED14B093EE1458
:105A3000A093EF14F093F014E093F1141F910895E4
:105A4000CF92DF92EF92FF920F931F93CF93DF934A
:105A50007C016B018A01C0E0D0E00FC0D6016D91DE
:105A60006D01D701ED91FC910190F081E02DC7010E
:105A70001995C80FD91F015010400115110571F774
:105A8000CE01DF91CF911F910F91FF90EF90DF90AA
:105A9000CF900895EF92FF920F931F938C01DC013A
:105AA000ED91FC910190F081E02D6DE019957C0164
:105AB000D801ED91FC910190F081E02DC8016AE0E0
:105AC00019959C012E0D3F1DC9011F910F91FF904B
:105AD000EF900895CF93DF93EC016115710519F4F0
