:100000000C94B6010C94E3010C94E3010C94E3010D
:100010000C94E3010C94E3010C94E3010C94E301D0
:100020000C94E3010C94E3010C94E3010C94E301C0
:100030000C94E3010C94E3010C94E3010C94E301B0
:100040000C94E3010C94E3010C94E3010C94E301A0
:100050000C9483080C94E3010C94E3010C94F724B2
:100060000C94E3010C943D280C9485290C94E30135
:100070000C94E3010C94E3010C94E3010C94E30170
:100080000C94E3010C94E3010C94E3010C94E30160
:100090000C947D280C94C4290C94E3010C94C604A0
:1000A0000C94E3010C94E3010C94E3010C94E30140
:1000B0000C94E3010C94E3010C94E3010C94E30130
:1000C0000C94E3010C94E3010C94E3010C94BD281F
:1000D0000C94032A0C94E3010C94FD280C94422AFE
:1000E0000C94E301990DB20D3A0E590EED0E280F46
:1000F000410F6A0F870FB00FC70F8E10B410D810C2
:100100000B1136117A11DE1129129C12B3120F1342
:1001100039139D16EF161017B216CE16371759174A
:100120009017901790179017901790179017901797
:100130009017901790179017901790179017901787
:100140009017901790179017901790179017901777
:100150009017901790179017901790179017901767
:100160009017901790179017901790179017901757
:100170009017901790179017901790179017901747
:100180009017901790179017901790178713851650
:10019000381F721FAC1FE61F5A2020209420F42025
:1001A0003A2117218D2166212122FA21552235235A
:1001B000B722DD238D231E243924532473249D2448
:1001C000D32008000000BE922449123EABAAAA2AFE
:1001D000BECDCCCC4C3E00000080BEABAAAAAA3E4D
:1001E00000000000BF000000803F00000000000889
:1001F0004178D3BB4387D1133D190E3CC3BD428226
:10020000AD2B3E68EC8276BED98FE1A93E4C80EFE3
:10021000FFBE01C4FF7F3F000000000007634236BD
:10022000B79BD8A71A39685618AEBAAB558C1D3C87
:10023000B7CC5763BD6DEDFD753EF6177231BF004B
:100240000000803F00002100240027002A002D002C
:100250003000330001010000040107010A01000021
:100260002200250028002B002E003100340002015E
:100270000000050108010B010000200023002600FA
:1002800029002C002F0032000001000003010601AC
:10029000090105050505070508080808020202020C
:1002A0000A0A080804040404010101010101010112
:1002B0000303030303030303040707070C0C0C0CDD
:1002C0000C0C0C0C020202020606060606060606C6
:1002D0000B0B0B0B0B0B0B0B010210202008081053
:1002E00020401020408002010201080402010102A6
:1002F000040810204080804020100804020180047F
:1003000002018040201008040201080402010102D9
:1003100004081020408001020408102040800000E2
:10032000090A02080B0C0D07060304010000000077
:1003300000000000000000000000000000000000BD
:100340000000000000000000000011100F0000007D
:10035000000000000000000000000000000000009D
:10036000000000000B025E03B22B040211241FBE2A
:10037000CFEFD1E2DEBFCDBF00E00CBF15E0A0E0C3
:10038000B2E0EEE5F8E600E00BBF02C007900D9288
:10039000AC34B107D9F71BBE14E1ACE4B5E001C041
:1003A0001D92A03FB107E1F713E0CAE6D3E004C015
:1003B0002297FE010E941E34C436D107C9F70E945D
:1003C000C2020C9422340C94000080913D04909160
:1003D0003E04019690933E0480933D04089581303D
:1003E000910541F46F5F7F4F71F48CE495E00E94BA
:1003F000C1170895892B39F46F5F7F4F21F48CE486
:1004000095E00E94B817089580E090E06FEF7FEFCD
:100410000E94EF01089581E090E06FEF7FEF0E946E
:10042000EF01089585E392E140E45BE46CE470E061
:100430000E94220985E392E165EE71E02FEF3FEF24
:100440004FEF5FEF0E942A098CE495E00E94281884
:1004500084E694E160E072E00E94912E6FEF71E219
:100460006050724084E694E14AE050E00E94722EAF
:1004700084E694E165E072E00E94912E6CE475E000
:100480006050724084E694E14AE050E00E94722E8F
:1004900084E694E16CE072E00E94912E60EF74E1DA
:1004A0006C54754084E694E14AE050E00E94722E5C
:1004B00084E694E162E172E00E94912E6091EC1476
:1004C0007091ED146115710519F460E070E002C0DF
:1004D000605F744184E694E14AE050E00E94722E2D
:1004E00084E694E168E172E00E94912E8DB79EB798
:1004F0006FEF71E2681B790B84E694E14AE050E00B
:100500000E94722E84E694E16FE172E00E94912EC7
:100510008091EC149091ED14009729F46DB77EB79B
:10052000605F744104C06DB77EB7681B790B84E6C9
:1005300094E14AE050E00E94722E08958CE495E028
:100540000E94041D80913D0490913E0469E170E099
:100550000E94E633892BA9F480911E11882359F05B
:1005600080911F11882329F48CE495E00E94C00932
:1005700002C010921F1181E090E090933E0480939E
:100580003D040895CF93DF930E94B0250E9412028C
:10059000CCE3D9E20E949E022097E1F30E943C291D
:1005A000F9CFF999FECF72BD61BDF89A80B5089573
:1005B000F999FECF1FBA72BD61BD40BD0FB6F89468
:1005C000FA9AF99A0FBE0895882319F48CB58062BF
:1005D00002C08CB58F7D8CBD08959CB5937F982B00
:1005E0009CBD08952CB5382F33702C7F322B3CBD29
:1005F0002DB590E0959587959595879581702E7F7F
:10060000822B8DBD089585E361E00E94D92785E3A3
:1006100061E00E9426278CB580618CBD8CB580641A
:100620008CBD84E361E00E94262783E361E00E94A1
:100630002627089581E08093BA1160939711109254
:10064000B8111092B911089581E08093BA116093A6
:1006500097111092B8111092B91108952091961126
:1006600030E080919511281B3109C901089540910E
:10067000951180919611481718F02FEF3FEF0AC09F
:10068000E42FF0E0EB58FE4E8081282F30E04F5FE2
:1006900040939511C9010895E091951180919611AB
:1006A000E81718F0EFEFFFEF06C0F0E0EB58FE4E52
:1006B0008081E82FF0E0CF01089508951092BE11D7
:1006C0001092BD1188EE93E0A0E0B0E08093BF11DE
:1006D0009093C011A093C111B093C21184E494E02F
:1006E0009093BC118093BB110895CF92DF92EF924B
:1006F000FF920F931F93CF93DF937C016B018A01CD
:100700008091BA118823A1F0C0E0D0E00DC0D701DC
:10071000ED91FC91D601AC0FBD1F0190F081E02D51
:10072000C7016C9119952196C017D10780F304C0B9
:10073000CB01642F0E94AB04C801DF91CF911F91C0
:100740000F91FF90EF90DF90CF900895DF93CF93BC
:100750000F92CDB7DEB7FC0169838091BA1188236F
:10076000C9F08091B911803238F081E090E0938334
:10077000828320E030E015C08091B811E82FF0E0CE
:10078000E856FE4E998190838F5F8093B8118093D5
:10079000B91105C0CE01019661E00E94AB0421E0D1
:1007A00030E0C9010F90CF91DF9108950F93062F8C
:1007B0008091971168E971E14091B91121E00E949F
:1007C00056041092B8111092B9111092BA110F91EB
:1007D000089561E00E94D6030895413208F040E296
:1007E000862F65E771E10E940D04109295118093A8
:1007F0009611089521E00E94ED03089521E00E94E2
:10080000ED03089510929511109296111092B8115F
:100810001092B9110E945B060895382F413210F0F2
:1008200040E042C08091C7118823E1F791E09093A6
:10083000C7112093C9118FEF809334121092EF11DA
:1008400041504093F0114F5F9093C8118091C811AF
:10085000330F832B8093C8118091CA11813041F4EA
:100860001092CA118091C8118093BB0085EC01C021
:1008700085EE8093BC008091C7118130E1F38091B7
:10088000EF11841710F44091EF1120E030E00AC01E
:10089000FB01E20FF31FD901A153BE4E8C9180835F
:1008A0002F5F3F4F2417A0F3842F08950F931F93BA
:1008B000582F122F413210F081E04AC08091C711A9
:1008C0008823E1F782E08093C7110093C9118FEF6D
:1008D000809334121092EF114093F011AFECB1E11C
:1008E000FB0102C081918D938E2F861B8417D0F35C
:1008F0001092C8118091C811550F852B8093C81193
:100900008091CA11813041F41092CA118091C811AE
:100910008093BB0085EC01C085EE8093BC00112361
:1009200021F08091C7118230E1F3809134128F3F22
:1009300011F480E00DC080913412803211F482E015
:1009400007C080913412803311F084E001C083E04D
:100950001F910F910895482F613210F081E00895A2
:100960008091C711843011F082E0089560931212D3
:10097000A1EFB1E1842F9C01F90102C081918D9317
:100980008E2F841B8617D0F380E008951F920F925C
:100990000FB60F920BB60F9211242F933F934F93E4
:1009A0005F936F937F938F939F93AF93BF93EF93D7
:1009B000FF938091B90090E0887F90708036910518
:1009C00009F4F2C081369105CCF58832910509F41D
:1009D0007BC089329105B4F48031910509F46FC070
:1009E000813191053CF4009709F447C1089709F05B
:1009F0004FC165C08831910509F466C0809709F040
:100A000047C182C08034910509F4A4C081349105A6
:100A100044F48033910509F482C0C89709F038C1C5
:100A200089C08035910509F489C08835910509F49C
:100A300096C08834910509F02BC1AEC08839910564
:100A400009F413C189399105ECF48837910509F44B
:100A5000ABC0893791054CF48836910509F4A4C0E0
:100A60008037910509F014C19FC08838910509F4B9
:100A7000FCC08039910509F49DC08038910509F0CA
:100A800007C198C0803B910509F4C6C0813B910520
:100A90004CF4803A910509F49FC0883A910509F019
:100AA000F7C0BAC0803C910509F4E3C0883C9105C9
:100AB00009F4DFC0883B910509F0EAC0C2C080910B
:100AC000C8118093BB00CFC09091EF118091F011BD
:100AD000981768F49091EF11E92FF0E0E153FE4E82
:100AE00080818093BB009F5F9093EF11BCC0809189
:100AF000C911882309F44BC085ED8093BC00809117
:100B0000BC0084FDFCCFC2C080E28093341285ED2E
:100B10008093BC008091BC0084FDFCCFB7C080E313
:100B20008093341285ED8093BC008091BC0084FDDD
:100B3000FCCFACC088E3809334129BC08091EF114E
:100B40009091BB00E82FF0E0E153FE4E90838F5F61
:100B50008093EF119091EF118091F01182C08091FC
:100B6000EF119091BB00E82FF0E0E153FE4E90832F
:100B70008F5F8093EF118091C911882341F085ED3B
:100B80008093BC008091BC0084FDFCCF7FC081E0DD
:100B90008093CA1184EA6EC085ED8093BC00809179
:100BA000BC0084FDFCCF72C083E08093C71110921B
:100BB000331259C080913312803208F056C08091B0
:100BC00033129091BB00E82FF0E0ED5EFD4E908374
:100BD0008F5F8093331247C080913312803230F49C
:100BE000E0913312F0E0ED5EFD4E108285ED8093D2
:100BF000BC008091BC0084FDFCCF1092C7116091B5
:100C00003312E091CD11F091CE1183E192E170E0C9
:100C10001995109233122DC084E08093C711109261
:100C2000111210921212E091CB11F091CC11199582
:100C300080911212882329F481E08093121210927D
:100C4000F11190911112E92FF0E0EF50FE4E8081EA
:100C50008093BB009F5F909311129091111280912D
:100C60001212981710F485EC01C085E88093BC003F
:100C70000FC085EC8093BC0009C01092341285ED42
:100C80008093BC008091BC0084FDFCCF1092C71102
:100C9000FF91EF91BF91AF919F918F917F916F9154
:100CA0005F914F913F912F910F900BBE0F900FBE10
:100CB0000F901F9018951092C71181E08093C91171
:100CC0001092CA1184E161E00E94D92785E161E0B8
:100CD0000E94D927E9EBF0E080818E7F80838081BC
:100CE0008D7F808388E48093B80085E48093BC0086
:100CF0000895FC0113861586148687E090E012861D
:100D00003197009711F00197FACF0895DF92EF9293
:100D1000FF920F931F93FC01E08001811281F894F0
:100D2000F80181818E2981838281DE2CD0948D21EE
:100D3000828383E090E00E94A625F80181818D21C5
:100D400081838AE090E00E94A625F80100817894D2
:100D500085E390E00E94A62580E010E0FF240E21AC
:100D60001F21012B09F081E01F910F91FF90EF905F
:100D7000DF900895EF92FF920F931F93CF93DF932D
:100D80007C0101E010E0C0E0D0E0C7010E948606CF
:100D90008111102B000F2196C830D105B1F7812F9A
:100DA000DF91CF911F910F91FF90EF9008951F93C6
:100DB000CF93DF93FC011081C181D281912F909557
:100DC00060FF12C0F8948A8189238A838981812BEC
:100DD00089838AE090E00E94A6258A81812B8A83FC
:100DE000789487E390E011C0F8948A8189238A83FC
:100DF0008981812B898381E490E00E94A6258A81E4
:100E0000812B8A83789485E090E00E94A625DF916B
:100E1000CF911F910895CF92DF92EF92FF920F939F
:100E20001F93CF93DF938C01E42EFF24F394C0E053
:100E3000D0E0C62EDD2460E08F2D90E08C219D2136
:100E4000892B09F061E0C8010E94D706FF0C2196AA
:100E5000C830D10581F7EE20A9F4F894D801119695
:100E6000ED91FC91129791818C91809598239183BB
:100E70001196ED91FC91129792818C918095982317
:100E800092837894DF91CF911F910F91FF90EF9013
:100E9000DF90CF900895EF92FF920F931F93CF931F
:100EA000DF938C017B0165E540E00E940B07C0E009
:100EB000D0E0F701EC0FFD1FC801608140E00E9407
:100EC0000B072196C830D105A1F7DF91CF911F9173
:100ED0000F91FF90EF900895DF92EF92FF920F93A2
:100EE0001F93CF93DF93FC010081C181D281F894DD
:100EF0008981D02ED0948D21898378941DE7E02EAE
:100F0000FF24115059F182E090E00E94A6258881CB
:100F100090E08E219F21892BA1F3F8948A818D2165
:100F20008A838981802B8983789480EE91E00E9466
:100F3000A625F89489818D21898386E490E00E941A
:100F4000A625888110E090E0E822F922EF2809F434
:100F500011E078948AE991E00E94A625812FDF9123
:100F6000CF911F910F91FF90EF90DF900895AF9276
:100F7000BF92DF92EF92FF920F931F93CF93DF9375
:100F8000EC015B018D85882309F061C0CE010E94D0
:100F90006C07882329F41B861D861C8690E06BC095
:100FA000CE0160EF40E00E940B0701E0DD24EE245B
:100FB000FF24F394CE010E948606182FCE010E94D2
:100FC0008606113019F48130E1F439C0181709F59B
:100FD0008B85081770F460E0FE01EE0DF11D838132
:100FE00090E02F2D30E082239323181619064CF041
:100FF00003C060E0081729F0093008F04CC00C87E6
:101000004AC0FE01EE0DF11D83818F29838361E0CB
:1010100009C0612FFE01EE0DF11D9F2D909583817A
:1010200089238383CE010E94D7060F5FFF0C19F43A
:10103000E394FF24F39487E08E1508F0BBCF0134CE
:1010400030F0DB86DD2011F581E08D871FC01B8627
:101050001D861C8690E0DE0120E030E0F501E20F05
:10106000F31F13968C91139780832F5F3F4F119638
:101070002830310599F7892FDF91CF911F910F917A
:10108000FF90EF90DF90BF90AF9008958B81882301
:10109000F1F291E0E0CFD02EBDCFFF920F931F93DE
:1010A0008C01F62E862F60E00E9426278F2D90E07F
:1010B000FC01E852FD4FE491D801EC938E569D4F10
:1010C000FC016491E62FF0E0EE0FFF1FE858FD4FA2
:1010D0008591949112969C938E9311971B961C92D6
:1010E0001B971D961C921D971C961C92F80187E079
:1010F00090E012863197009711F00197FACF1F9177
:101100000F91FF9008951F920F920FB60F920BB69A
:101110000F9211242F933F934F935F936F937F937D
:101120008F939F93AF93BF93EF93FF93E091391207
:10113000F0913A121995FF91EF91BF91AF919F9164
:101140008F917F916F915F914F913F912F910F9070
:101150000BBE0F900FBE0F901F901895FC01A3E0DF
:10116000440F551F661F771FAA95D1F7403080E0C6
:10117000580781E0680780E0780714F481E010C028
:1011800033E075956795579547953A95D1F7403077
:1011900080E0580781E0680780E078071CF482E06F
:1011A000828339C023E075956795579547952A95B1
:1011B000D1F7403080E0580781E0680780E0780789
:1011C00014F483E0EDCF92E07595679557954795B8
:1011D0009A95D1F7403080E0580781E0680780E0B9
:1011E000780714F484E0DCCF82E075956795579515
:1011F00047958A95D1F7403080E0580781E068072D
:1012000080E0780714F485E0CBCF85E082834FEF50
:101210005FEF60E070E08FB78383F8945183408381
:10122000509387004093860083818FBF8091810017
:10123000887F80938100809181009281892B8093A7
:10124000810008951092800020E1209381000E9487
:10125000AE0808950F931F93CF93DF93EC018B019A
:10126000121613061406150624F4BA01A9010E94E9
:10127000AE081D830C8381E080936F008091810014
:101280009A81892B80938100DF91CF911F910F91DB
:1012900008958CE694E0089581E894E0089585E847
:1012A00094E008958CE994E0089586EB94E0089525
:1012B00087EC94E008958CE292E00895FC0180E8C8
:1012C00090E0062E02C0959587950A94E2F780314A
:1012D000910561F1813191054CF484309105C1F1A2
:1012E0008830910561F1029749F43BC08034910543
:1012F00059F08038910521F0809779F081E00895C8
:1013000080917A00876035C080917A0086608093F2
:101310007A0080917A008E7F2CC080917A0085605F
:1013200080937A0080917A008D7F23C080917A002B
:10133000846080937A0080917A008C7F1AC08091BB
:101340007A00836080937A0080917A008B7F11C04D
:1013500080917A00826080937A0080917A008A7FFF
:1013600008C080917A00816080937A0080917A0031
:10137000897F80937A00EA52F44F608380E0089579
:1013800088E061E00E94D9270895FF920F931F9390
:10139000F62E142F022F862F60E00E94D9271EBD43
:1013A0000DB407FEFDCF8EB50EBD0DB407FEFDCF0B
:1013B0008EB58F2D61E00E94D9271F910F91FF906C
:1013C0000895362F242F643010F085E0089520957D
:1013D00065E3432F0E94C50980E00895AF92BF9254
:1013E000CF92DF92EF92FF920F931F93CF93DF93F1
:1013F000EC015A016B01CE51D44FE880F9800A818B
:101400001B81C25EDB40CB01BA0120E030E040E04E
:1014100050E00E94063087FD3BC0C601B501A8011F
:1014200097010E940A309B01AC010E94A22F23EF7A
:1014300034E045EB5FE30E94F93120E030E040E822
:101440005EE30E94F93120E030E04FE753E40E9470
:10145000F9317B018C0120E030E04FE753E40E943A
:10146000AA311816ACF0C652D44FA882B982CA82EB
:10147000DB82CA5DDB40C801B7010E9477309B0167
:10148000AC01CE0163E0422F0E94E10980E001C07F
:1014900088E0DF91CF911F910F91FF90EF90DF9047
:1014A000CF90BF90AF900895CF92DF92EF92FF92CE
:1014B0000F931F93CF93DF938C0187EEE82E8BE081
:1014C000F82EE00EF11E6801C0E0D0E0F701EC0F4D
:1014D000FD1FC601CC59DF4FBE0140810E94171C81
:1014E000C356D040C134D10589F7C80160E00E94DD
:1014F000820ADF91CF911F910F91FF90EF90DF90C3
:10150000CF900895BF92CF92DF92EF92FF920F9308
:101510001F93CF93DF93EC01B62E97EEE92E9BE05D
:10152000F92EEC0EFD1E6E0100E010E0E881F9815D
:10153000B8016C597F4F0088F189E02DC6011995DB
:10154000F701E00FF11F80830F5F1F4F013411057A
:1015500069F7C951D44F88819981C75EDB40892BD7
:1015600039F5C751D44F88819981C95EDB40892BF9
:10157000F9F49E012551344FF90180819181892B25
:10158000B9F4FE01E05EF34FCE51D44F88819981CA
:10159000AA81BB81C25EDB4080839183A283B38337
:1015A00081E090E0F90191838083CE010E94540A8A
:1015B000C951D44F88819981C75EDB40892BE1F402
:1015C000C751D44F88819981C95EDB40892BA1F432
:1015D000FE01E551F44F80819181019769F4C35177
:1015E000D44F80E28883CD5EDB4082E090E091833F
:1015F0008083CE010E94540AC951D44F88819981B9
:10160000C75EDB40892B11F5C751D44F8881998182
:10161000C95EDB40892BD1F4FE01E551F44F808196
:101620009181029799F4CC5DD34F80E090E0A0EADD
:10163000B0E488839983AA83BB83C452DC4083E0EF
:1016400090E091838083CE010E94540AC951D44F07
:1016500088819981C75EDB40892B99F4C751D44FAB
:1016600088819981C95EDB40892B59F4C551D44FDB
:1016700088819981CB5EDB40039719F4BB2009F484
:1016800083C0C951D44F199219921992199283E0CB
:1016900090E09983888324968CE7888380E78A93F7
:1016A000229680E09CE7A2E9B8E489939993A993F4
:1016B000B99380E092E2A1EAB8E488839983AA838F
:1016C000BB832C9680E090E0AAE7B4E489939993D9
:1016D000A993B99380E090E4ACE1B6E4899399933F
:1016E000A993B99380E090E5A3ECB7E4899399932B
:1016F000A993B99380E094E2A4E7B9E4888399833D
:10170000AA83BB83649780E090E0A0E0B0E0899377
:101710009993A993B99388839983AA83BB83649689
:101720008FEF96EEABE5BEE289939993A993B993B7
:1017300089939993A993B99389939993A993B99309
:1017400088839983AA83BB83CC51DC40FE01E05E91
:10175000F34FCE51D44F88819981AA81BB81808378
:101760009183A283B3832B9680E28883E79680E0FF
:1017700090E0A0EAB0E488839983AA83BB83C45233
:10178000DC40CE010E94540AC05ED34FE880F9804D
:101790000A811B81C052DC40C801B70120E030E063
:1017A00040E050E00E940630FE01EA51F44F181666
:1017B0001CF081E0808307C0CE51D44FE882F982CB
:1017C0000A831B831082DF91CF911F910F91FF90AD
:1017D000EF90DF90CF90BF9008950F931F938C01EF
:1017E0000E94171CC80160E00E94820A1F910F919D
:1017F00008954F925F926F927F928F929F92AF92D5
:10180000BF92CF92DF92EF92FF920F931F93DF93DD
:10181000CF930F920F92CDB7DEB78C012C01EE243F
:1018200054ED852E5BE0952E880E991E45ECC42E56
:101830004BE0D42EC80ED91E3DEEA32E3BE0B32EB6
:10184000A80EB91E3E010894611C711C33C028E02B
:10185000F22E30E040E050E0F60180819181F80105
:10186000E80FF91FE251FC4F20810196F6019183A8
:10187000808380E090E0222311F481E090E0042E48
:1018800002C0880F991F0A94E2F7380F4F5F5F4F2D
:101890004830510509F73A83F50160816E0DF982F0
:1018A000C201A30122E00E94401CF394FDE0FF1658
:1018B00081F6E3942E2D30E0F4018081918168E27D
:1018C00070E00E94E6332617370708F20F900F905A
:1018D000CF91DF911F910F91FF90EF90DF90CF900C
:1018E000BF90AF909F908F907F906F905F904F9040
:1018F00008951F93CF93DF93EC01142F662379F49F
:10190000442319F04130E1F503C08DE061E002C0ED
:101910008DE060E00E94D927C952D44F2EC06130BB
:1019200079F5413051F0413028F0423069F04330D0
:1019300039F515C08CE061E014C08CE060E00E94D5
:10194000D9278BE061E011C08CE060E00E94D927CC
:101950008BE060E00E94D9278AE061E00AC08CE059
:1019600060E00E94D9278BE060E00E94D9278AE0DE
:1019700060E00E94D927C852D44F188310E001C0FC
:1019800015E088EC90E00E94A625812FDF91CF9191
:101990001F9108957F928F929F92AF92BF92CF92A4
:1019A000DF92EF92FF920F931F93DF93CF930F92EB
:1019B0000F92CDB7DEB75C019B01742ECB0168E2BC
:1019C00070E00E94E633862EC90168E270E00E9452
:1019D000E6336C0173E0969587957A95E1F7982E3A
:1019E000082D10E06DEEE62E6BE0F62EEA0CFB1CE7
:1019F000F7018081B801680F711D8BEB91E10E94A6
:101A00002403692D70E0685F7F4F8BEB91E10E94AA
:101A1000A6038BEB91E10E94E903F7018081080F97
:101A2000111D8BEB91E1B80141E050E00E94FA03F7
:101A30008BEB91E10E942E03892B11F481E03BC0D6
:101A40000C2D0770F8E09F0E99828BEB91E10E94BC
:101A50003703282F772071F481E090E0A0E0B0E018
:101A600004C0880F991FAA1FBB1F0A95D2F7282B05
:101A70002A830EC081E090E0A0E0B0E004C0880FAF
:101A8000991FAA1FBB1F0A95D2F7809582238A83CC
:101A90008DEE9BE0A80EB91EF501608183E194EF05
:101AA000A80EB91E680DC501AE014F5F5F4F22E061
:101AB0000E94401C80E00F900F90CF91DF911F910A
:101AC0000F91FF90EF90DF90CF90BF90AF909F90DD
:101AD0008F907F9008952F923F924F925F926F92D6
:101AE0007F928F929F92AF92BF92CF92DF92EF92AE
:101AF000FF920F931F93DF93CF93CDB7DEB7AD97D0
:101B00000FB6F894DEBF0FBECDBF4C016D8B862F94
:101B100090E0FC01E05AF040E635F10510F00C943D
:101B20009017EE58FF4FEE0FFF1F0590F491E02D38
:101B3000199420EC3BE0820E931ED4018D919C9170
:101B4000E0E4F4EF8E0E9F1E840104511C4F892B9C
:101B500011F00C945617B4016C52744FC40142E05A
:101B600050E033C120EC3BE0820E931ED4018D91F6
:101B70009C91E0E4F4EF8E0E9F1E840104511C4FF3
:101B8000892B11F00C945617D8011C92888E998ECF
:101B9000CC2484ED282E8BE0382E280C391CBDEE89
:101BA0006B2EBBE07B2E680C791C280154C0A8E08A
:101BB000DA2E5901F3018081B501680F711D8BEB9D
:101BC00091E10E9424038BEB91E16D2D0E94A6030D
:101BD0008BEB91E10E94E903D3018C91B501680F71
:101BE000711D8BEB91E141E050E00E94FA038BEB19
:101BF00091E10E942E03892B21F18BEB91E10E9450
:101C0000370300E010E0E82EFF24C701002E02C0D9
:101C1000959587950A94E2F7E1E0F0E08E279F27FB
:101C200081708983888D998DBE016F5F7F4F41E000
:101C300050E00E94DB1A0F5F1F4F0830110529F793
:101C400004C0E1E0D201EC9305C0D394FDE0DF16BF
:101C500009F0B0CFC3942C2D30E0D1018D919C912F
:101C600068E270E00E94E6332617370708F49FCF3A
:101C70000C949017F401E054F44F24ED3BE0820EF5
:101C8000931E20813181D4018D919C91ECE2F4EF7F
:101C90008E0E9F1E840104511C4F2817390711F026
:101CA0000C945617C4010E94F90BD8011C920C9495
:101CB000901720EC3BE0820E931ED4018D919C91F5
:101CC000E0E4F4EF8E0E9F1E029711F00C9485173E
:101CD000D401AB53B44F8D919C91119782519C4F7D
:101CE000F401E80FF91F0190F081E02D8C5E934024
:101CF0008D939C9324ED3BE0820E931ED4018D9135
:101D00009C912CE234EF820E931EE817F90738F00D
:101D10004CEE53E0840E951E85E00C948A17CF019B
:101D200068E270E00E94E6336C01CF0168E270E087
:101D30000E94E633062F10E0FDEEEF2EFBE0FF2EB3
:101D4000E80CF91CD7018C91B801680F711D8BEB61
:101D500091E10E942403B601E3E076956795EA9548
:101D6000E1F770E0685F7F4F8BEB91E10E94A60383
:101D70008BEB91E10E94E903F7018081080F111DAF
:101D80008BEB91E1B80141E050E00E94FA038BEB4C
:101D900091E10E942E03840104511C4F892BC1F054
:101DA0008BEB91E10E94370390E02C2D277002C04D
:101DB000959587952A95E2F7809581708983C4016E
:101DC000BE016F5F7F4F41E050E00E94DB1A6DCF94
:101DD00081E0F80180830C94901720EC3BE0820EA8
:101DE000931ED4018D919C91E0E4F4EF8E0E9F1E22
:101DF000039711F00C948517D401AB53B44F8D9118
:101E00009C911197FC01E251FC4FE80DF91D608196
:101E10007181F401E80FF91FE051FC4F40810396F6
:101E20008D939C9324ED3BE0820E931ED4018D9103
:101E30009C91ECE2F4EF8E0E9F1E840104511C4F26
:101E40006817790708F076C3C4010E94CA0CE5C779
:101E500020EC3BE0820E931ED4018D919C91E0E436
:101E6000F4EF8E0E9F1E840104511C4F892B11F03C
:101E70000C945617D8011C9289E00E940C28898383
:101E8000F3C320EC3BE0820E931ED4018D919C9114
:101E9000E0E4F4EF8E0E9F1E019711F00C9485176D
:101EA000D401AB53B44F8D919C911197F401E80F7D
:101EB000F91FE251FC4F608101968D939C93840140
:101EC00004511C4F623020F489E00E94D927EDCEE6
:101ED00088E07FCF20EC3BE0820E931ED4018D91F1
:101EE0009C91E0E4F4EF8E0E9F1E840104511C4F80
:101EF000892B09F0DBC7D8011C92B4016652744FDC
:101F0000C40144E050E00E94DB1A0C94901720ECCE
:101F10003BE0820E931ED4018D919C91E0E4F4EF9E
:101F20008E0E9F1E840104511C4F049709F0BEC7FA
:101F3000D401AB53B44F8D919C91119782519C4F1A
:101F4000F401E80FF91F40815181628173818A5E3B
:101F500093408D939C93C40121E00E94EE095DC7DC
:101F600020EC3BE0820E931ED4018D919C91E0E425
:101F7000F4EF8E0E9F1E840104511C4F892B09F033
:101F800095C7D8011C92B4016252744FB9CF20ECAE
:101F90003BE0820E931ED4018D919C91E0E4F4EF1E
:101FA0008E0E9F1E049709F0B0C7D401AB53B44FF7
:101FB0002D913C91119722513C4FF401E20FF31FF8
:101FC00060817181828193812A5E33402D933C939D
:101FD0002EED3BE0820E931ED4016D937D938D9385
:101FE0009C931397E2E2F4EF8E0E9F1E20E030E008
:101FF00048E452E40E94F9317B018C0120E030E09A
:102000004AE754E40E94063087FD03C3C801B701C4
:1020100020E233EB41E85CE40E94AA3118160CF48C
:10202000F8C2C801B70120E030EE41E854E40E9454
:102030000A300E94B93126EA3BE944E550E40E94A7
:10204000F9312EE83DE543E150E40E940A300E9458
:102050007730D62E70E0665F7F4F882777FD8095BA
:10206000982F0E94A5309B01AC0160E070E080E0F9
:1020700090E40E945C329B01AC01CA01B90120E0EE
:1020800030EE41E055EC0E94F931A80197010E9421
:102090000A3020E030E040E055E40E94A22F7B01AE
:1020A0008C0120E030E040E050E00E94AA3188231B
:1020B0004CF0C801B70120E030E040E05FE30E944F
:1020C000A22F08C0C801B70120E030E040E05FE384
:1020D0000E94A12F0E9472308B018BEB91E167E18E
:1020E0000E941A03C80176E0969587957A95E1F7E4
:1020F000D29460EFD622D82A8BEB91E16D2D0E940D
:10210000A603602F660F660F62608BEB91E10E9461
:10211000A6038BEB91E10E94E903F0C620EC3BE0C3
:10212000820E931ED4018D919C91E0E4F4EF8E0E0B
:102130009F1E840104511C4F892B09F0B7C626ED60
:102140003BE0820E931ED4016C91EAE2F4EF8E0E16
:102150009F1E70E0660F771F660F771F605B7B4FD7
:10216000C40144E050E031CE20EC3BE0820E931EEF
:10217000D4018D919C91E0E4F4EF8E0E9F1E8401BA
:1021800004511C4F019709F091C6D401AB53B44FD1
:102190008D919C911197F401E80FF91FE251FC4FCA
:1021A000608101968D939C93C4010E945E0935C69F
:1021B00020EC3BE0820E931ED4018D919C91E0E4D3
:1021C000F4EF8E0E9F1E840104511C4F019709F0FD
:1021D00023C6D401AB53B44F8D919C911197F40158
:1021E000E80FF91FE251FC4FE08101968D939C931B
:1021F000D8011C92EE2321F0E13009F09BC104C00C
:10220000B4016952744F03C0B4016852744FC401E1
:1022100041E050E078CEE0ECFBE08E0E9F1ED40152
:102220008D919C91E0E4F4EF8E0E9F1E8401045189
:102230001C4F029709F03AC6D401AB53B44F8D91AD
:102240009C911197F401E80FF91FE251FC4F608156
:102250000196F401E80FF91FE251FC4F408101960D
:102260008D939C93C4010E94790CD7C520EC3BE070
:10227000820E931ED4018D919C91E0E4F4EF8E0EBA
:102280009F1E840104511C4F019709F00FC6D40111
:10229000AB53B44F8D919C911197F401E80FF91F46
:1022A000E251FC4FE08101968D939C93D8011C92E2
:1022B000EE2321F0E13009F0CAC00EC0E7EDFBE0EB
:1022C0008E0E9F1ED4016C91E9E2F4EF8E0E9F1EDC
:1022D00070E064507D4FB4C028ED3BE0820E931E49
:1022E000D4016C91E8E2F4EF8E0E9F1E70E0605016
:1022F0007D4FA6C020EC3BE0820E931ED4018D9151
:102300009C91E0E4F4EF8E0E9F1E840104511C4F5B
:10231000059709F081C5A4014B53544FDA012D9163
:102320003C911197F401E20FF31FE251FC4FE08161
:102330002F5F3F4F2D933C9321503040D8011C928A
:10234000EE2321F0E13009F0F5C01CC0E7EDFBE021
:102350008E0E9F1ED401EC9189E294EF880E991E97
:10236000F0E021513C4FD401A20FB31FED90FD903E
:102370000D911C912A5E3340DA012D933C93E45079
:10238000FD4FCAC0E8EDFBE08E0E9F1ED401EC911C
:1023900088E294EF880E991EF0E021513C4FD40161
:1023A000A20FB31FED90FD900D911C912A5E33405A
:1023B000DA012D933C93E050FD4FAEC0E0ECFBE022
:1023C0008E0E9F1ED4018D919C91E0E4F4EF8E0E51
:1023D0009F1E840104511C4F019709F067C5D40169
:1023E000AB53B44F8D919C911197F401E80FF91FF5
:1023F000E251FC4FE08101968D939C93D8011C9291
:10240000EE2319F0E13019F50EC0E7EDFBE08E0E7A
:102410009F1ED4016C91E9E2F4EF8E0E9F1E70E0D6
:1024200062507D4F0DC028ED3BE0820E931ED4011B
:102430006C91E8E2F4EF8E0E9F1E70E06C5F7C4FB3
:10244000660F771F660F771F680D791D59CD85E0E0
:10245000E4C420EC3BE0820E931ED4018D919C914C
:10246000E0E4F4EF8E0E9F1E840104511C4F05978B
:1024700009F0D2C4A4014B53544FDA012D913C9181
:102480001197F401E20FF31FE251FC4FE0812F5F3F
:102490003F4F2D933C9321503040D8011C92EE23A6
:1024A00021F0E13009F046C01CC0E7EDFBE08E0EE4
:1024B0009F1ED401EC9189E294EF880E991EF0E002
:1024C00021513C4FD401A20FB31FED90FD900D910F
:1024D0001C912A5E3340DA012D933C93E250FD4F6C
:1024E0001BC0E8EDFBE08E0E9F1ED401EC9188E24C
:1024F00094EF880E991EF0E021513C4FD401A20FB9
:10250000B31FED90FD900D911C912A5E3340DA01CE
:102510002D933C93EC5FFC4FEE0FFF1FEE0FFF1F60
:10252000E80DF91DE082F18202831383C4010E9449
:10253000540AF6C485E04DCCE0ECFBE08E0E9F1E05
:10254000D4018D919C91E0E4F4EF8E0E9F1E8401E6
:1025500004511C4F892B09F0A9C4D8011C92B40165
:102560006E51744FCDCC20EC3BE0820E931ED40113
:102570008D919C91E0E4F4EF8E0E9F1E049709F07C
:10258000C4C4F401EB53F44F8081918182519C4F7C
:10259000D401A80FB91FED90FD900D911C918A5E9A
:1025A000934091838083C801B70120E030E040E090
:1025B00050E00E94AA31181664F5F401EA51F44F74
:1025C0008081882379F022EE3BE0820E931ED401B5
:1025D000ED92FD920D931C931397EEE1F4EF8E0EA6
:1025E0009F1E12C020E23CE0820E931ED401ED92A9
:1025F000FD920D931C93139720EE33EF820E931EE2
:102600001082C4010E94540A4CEE53E0840E951EC1
:1026100079C42CEE33E0820E931E88E07BC420EC5C
:102620003BE0820E931ED4018D919C91E0E4F4EF87
:102630008E0E9F1E840104511C4F892B09F036C455
:10264000D8011C9210E0F401E05EF34F60817181CB
:102650008281938120E030E040E050E00E9406302B
:1026600018160CF011E01983C401BE016F5F7F4F93
:10267000CFCD20EC3BE0820E931ED4018D919C9136
:10268000E0E4F4EF8E0E9F1E0197E1F5D401AB5309
:10269000B44F8D919C911197F401E80FF91FE2510D
:1026A000FC4F208101968D939C93F401E05EF34FE3
:1026B000222349F080E090E0A0E0B0E080839183A5
:1026C000A283B38311C022EE3BE0820E931ED4019D
:1026D0002D913D914D915C918EE194EF880E991E64
:1026E0002083318342835383C4010E94540AACEE99
:1026F000B3E08A0E9B1EF401108224E13CEF820EAF
:10270000931E0EC44CEE53E0840E951E02C420ECC2
:102710003BE0820E931ED4018D919C91E0E4F4EF96
:102720008E0E9F1E069708F4F0C394012B53344F6E
:10273000F901A081B181FD01E251FC4FE80DF91DC5
:10274000E080F180CD010296F90191838083A05150
:10275000BC4FF401EA0FFB1F408151810296F90141
:10276000918380831296A80DB91D0D911C9102963C
:10277000918380839A01388B2F87F1E02E343F07B5
:1027800020F02DE431E0388B2F8740EC5BE0840EA5
:10279000951ED4012D913C91E0E4F4EF8E0E9F1E26
:1027A0002630310581F044ED5BE0840E951ED401A6
:1027B0008D919C91ECE2F4EF8E0E9F1E06962817E9
:1027C000390709F0D0C32CEE33E0820E931ED401FA
:1027D0001C92EBEEF7E08E0E9F1ED401ED914D01A1
:1027E000EE87FC91FD8728E234EF820E931EC40130
:1027F00060E041E00E94790CC40161E043E00E9486
:10280000790CF401E054F44F44ED5BE0840E951E26
:10281000D4018D919C912CE234EF820E931E06968A
:10282000208131812817390719F4C4010E94F90B5E
:102830008E8A9F8A1C861B8627ED222E2BE0322E45
:10284000280C391CA4014852544F5B8F4A8FC70192
:10285000A0E0B0E08C8F9D8FAE8FBF8FD401AA51C6
:10286000B44FB9A3A8A3F401E652F44FFBA3EAA323
:1028700094012252344F3DA32CA3A4014C5D534F2D
:102880005FA34EA3C4018E51944F99A788A79801C6
:1028900040E050E02AA73BA74CA75DA723C2D10187
:1028A0008C918983EA8DFB8D80818A830E943F25EC
:1028B0002B013C01AA24BB249FEFC92E93E0D92E03
:1028C0003BC089818F3F19F180E00E9412269C0154
:1028D000F3E085339F0798F0D1014C91442361F0D8
:1028E0004150C40160E00E94790CAA24BB248FEF00
:1028F000C82E83E0D82E30C0BFEFB9832DC0A816F4
:10290000B90608F45C012C153D0508F469018A81BB
:102910008F3F11F181E00E9412269C01E3E0853394
:102920009E0790F0AA8DBB8D4C91442351F04150ED
:10293000C40161E00E94790CEE24FF240FEF13E044
:102940000BC0BFEFBA8308C0E816F90608F47C0193
:102950002017310708F489010E943F256419750981
:10296000860997092C8D3D8D4E8D5F8D62177307FB
:102970008407950708F4A5CFC5018C199D099C8390
:102980008B83C701801B910B9E838D83EF2831F0D1
:102990000F5F134031F48A818F3F19F04FEF4A8364
:1029A00004C0AA8DBB8D8C918A83AB2841F0BFEF08
:1029B000CB16B3E0DB0631F489818F3F19F0EFEFDE
:1029C000E9834CC1A8A1B9A18C91882309F443C122
:1029D000AAA1BBA12D913D914D915C91298B3A8B80
:1029E0004B8B5C8BCA01B90120E030E040E050E045
:1029F0000E94AA3118160CF02EC1EB85FC85EF2B36
:102A000009F429C18981A82FBB27A7FDB095F10141
:102A1000808190E0A817B90709F01DC1A450BD4FEF
:102A2000FD01EE0FFF1FEE0FFF1FE80DF91DE08007
:102A3000F180028113811296AA0FBB1FAA0FBB1F40
:102A4000A80DB91DAD90BD90CD90DC908A818F3FCF
:102A500041F12D813E8137FD24C0B901882777FDE2
:102A60008095982F0E94A53020E030E040EA50E4A5
:102A70000E94F93120E030EC4FE754E40E940A3024
:102A800023EF34E045EB5FE30E940A3020E030E0C2
:102A900040E05FE30E94F9316F83788789879A87E6
:102AA00008C020E030E040E050E02F8338874987BD
:102AB0005A8760E876E988E19BE4A80197010E94C3
:102AC0000A3020E030E040E85FE30E94A22F9B0143
:102AD000AC010E94F9317B018C01C601B50120E8EF
:102AE00036E948E15BE40E94F9319B01AC010E94A8
:102AF000A22F2BED3FE049E450E40E94F931ACA154
:102B0000BDA12D913D914D915C910E94F9319B01A8
:102B1000AC010E94F9319B01AC01C801B7010E94D0
:102B2000A22F0E94AC325B016C016B817C818827F3
:102B300077FD8095982F0E94A53020E030E040EA94
:102B400050E40E94F93120E030EC4FE754E40E9459
:102B50000A3023EF34E045EB5FE30E940A3020E0C7
:102B600030E040E05FE30E94F9317B018C0160E0DE
:102B700070E080E89FE3A60195010E940A309B0166
:102B8000AC01C801B7010E940A302B013C016989E0
:102B90007A898B899C892F81388549855A850E943D
:102BA000A22F5B016C01C301B201A60195010E9435
:102BB000A12F7B018C0120E030E040E050E00E943A
:102BC000AA31181624F017FB109517F91095C801B3
:102BD000B701EEA1FFA120813181428153810E9482
:102BE000AA311816C4F5C301B201A60195010E94CD
:102BF0000A30A8A5B9A52D913D914D915C910E94F7
:102C0000F931E8A5F9A5608371838283938320E07D
:102C100030E040E85FE30E940630882354F480E00F
:102C200090E0A0E8BFE3E8A5F9A580839183A283A3
:102C3000B3836F81788589859A85AAA1BBA12D91DF
:102C40003D914D915C910E94A22FAB01BC01C4014A
:102C500021E00E94EE09F101808189838E899F899C
:102C6000BE016D5F7F4F42E050E00E94DB1A8E890B
:102C70009F89BE016F5F7F4F41E050E00E94DB1AE9
:102C80008E899F89BE016B5F7F4F42E050E00E94BA
:102C9000DB1A8E899F89BE016E5F7F4F41E050E055
:102CA0000E94DB1A84E694E10E94082B181619068C
:102CB0000CF10E943F257B018C010E943F256E197B
:102CC0007F09800B910B2AA53BA54CA55DA562173A
:102CD00073078407950788F34B855C854F5F5F4FCB
:102CE0005C874B878B859C85AF85B8898A179B0746
:102CF00008F4D5CDC40160E04E850E94790CC40172
:102D000061E04D850E94790C0BC1E0ECFBE08E0E7A
:102D10009F1ED4018D919C91E0E4F4EF8E0E9F1ED6
:102D2000840104511C4F892B09F0C0C0D8011C92AA
:102D3000C40161E00E94820AF3C020EC3BE0820EF5
:102D4000931ED4018D919C91E0E4F4EF8E0E9F1EB2
:102D5000840104511C4F892B09F0A8C0D8011C9292
:102D600088E09EC020EC3BE0820E931ED4018D9142
:102D70009C91E0E4F4EF8E0E9F1E840104511C4FE1
:102D8000892B09F049C0D8011C92E2EDFBE08E0EC0
:102D90009F1ED4018C91EEE2F4EF3BC0E0ECFBE02F
:102DA0008E0E9F1ED4018D919C91E0E4F4EF8E0E67
:102DB0009F1E019709F0A9C0D401AB53B44F8D9168
:102DC0009C911197F401E80FF91FE251FC4F20810B
:102DD00001968D939C93F401EE52F44F41C020EC88
:102DE0003BE0820E931ED4018D919C91E0E4F4EFC0
:102DF0008E0E9F1E840104511C4F892B69F4D8014B
:102E00001C92E3EDFBE08E0E9F1ED4018C91EDE24F
:102E1000F4EF8E0E9F1E44C086E0D8018C9380C0D4
:102E2000E0ECFBE08E0E9F1ED4018D919C91E0E4BE
:102E3000F4EF8E0E9F1E019709F067C0D401AB53CB
:102E4000B44F8D919C911197F401E80FF91FE25155
:102E5000FC4F208101968D939C93F401ED52F44F29
:102E6000222319F081E0808349C0108247C020EC02
:102E70003BE0820E931ED4018D919C91E0E4F4EF2F
:102E80008E0E9F1E840104511C4F892B79F4D801AA
:102E90001C9288E00E940C281A82892B11F481E090
:102EA0008A83C401BE016E5F7F4FB2C986E00C9475
:102EB000E90E20EC3BE0820E931ED4018D919C9193
:102EC000E0E4F4EF8E0E9F1E0197F9F4D401AB53AA
:102ED000B44F8D919C911197F401E80FF91FE251C5
:102EE000FC4F208101968D939C93222319F088E05A
:102EF00060E002C088E061E00E94D9272CEE33E058
:102F0000820E931ED4011C9207C02CEE33E0820E79
:102F1000931E86E0D4018C93E4E1FCEF8E0E9F1E9D
:102F2000C4016D890E94101F2CEE33E0820E931EA7
:102F3000D4018C91AD960FB6F894DEBF0FBECDBF15
:102F4000CF91DF911F910F91FF90EF90DF90CF9085
:102F5000BF90AF909F908F907F906F905F904F90B9
:102F60003F902F900895ECEEF3E08E0E9F1ED1CF90
:102F7000FC018EEF94E091838083CF010E94D51AEB
:102F800008950F931F938C0161E00E941A1D8EEF2C
:102F900094E0F801918380830E52144FF80111924E
:102FA00010821F910F9108958F929F92AF92BF92BE
:102FB000CF92DF92EF92FF920F931F934B015C0130
:102FC0000E94AE310E94E0300E9472307B018C0181
:102FD000772767FD7095872F972F0E94A5309B015B
:102FE000AC0160E070E080E291E40E945C329B0101
:102FF000AC0194E6C92E94E1D92EC501B4010E941A
:103000000A30AB01BC01C60122E030E00E94782FFB
:10301000C60160E372E00E94912E6E2D772767FD56
:103020007095C6014AE050E00E945F2E1F910F91FB
:10303000FF90EF90DF90CF90BF90AF909F908F90D8
:1030400008950E94D41784E694E10E94122D0895F9
:103050002F923F924F925F926F927F928F929F92A8
:10306000AF92BF92CF92DF92EF92FF920F931F9396
:10307000DF93CF930F920F92CDB7DEB77C011C0187
:103080000E949C1C85E361E00E9426278DE061E0A0
:103090000E9426278CE061E00E9426278BE061E0F9
:1030A0000E9426278AE061E00E94262789E061E0ED
:1030B0000E94262788E061E00E94262788E060E0E1
:1030C0000E94D92764EF71E080E090E00E944D25D6
:1030D000D701ED91FC910680F781E02DC70119958C
:1030E000BC0184E694E10E94912E84E694E162E3BF
:1030F00072E00E94912ED701ED91FC910484F58538
:10310000E02DC7011995BC0184E694E10E948E2F41
:1031100084E694E165E372E00E94912ED701ED917F
:10312000FC910284F385E02DC7011995BC0184E66A
:1031300094E10E948E2FC7010E94641C89E060E028
:103140000E94D927E2EEFBE0EE0EFF1E80E090E049
:10315000A8ECB2E4F70180839183A283B3832EE1CC
:1031600034EFE20EF31EC70160E00E94820A84E69B
:1031700094E168E472E00E94912E87EE9BE0E80EF5
:10318000F91ED7016D917D917D0184E694E14AE0BD
:1031900050E00E94C12D84E694E16FE572E00E9448
:1031A000912EF701619171917F0184E694E14AE0EB
:1031B00050E00E94C12D84E694E16FE572E00E9428
:1031C000912ED7016D917C9184E694E14AE050E024
:1031D0000E94D22D84E694E161E672E00E94912E75
:1031E000E3E0F0E0EE0EFF1E84E694E1D7016D917E
:1031F0007D014AE050E00E94012E84E694E161E7FF
:1032000072E00E94912E84E694E1F70161917F01C2
:103210004AE050E00E94012E84E694E167E772E004
:103220000E94912ED7014D915D916D917D917D010F
:1032300084E694E122E030E00E947B2F84E694E172
:1032400060E972E00E94912EF701419151916191E4
:1032500071917F0184E694E122E030E00E947B2FAF
:1032600084E694E169EA72E00E94912ED7016D91A3
:103270007D918D919D917D010E94211884E694E1BC
:1032800063EC72E00E94912EF7016191719181913E
:1032900091917F010E94211884E694E16DED72E026
:1032A0000E94912ED7014D915D916D917D917D018F
:1032B00084E694E122E030E00E947B2F84E694E1F2
:1032C00066EF72E00E94912EF70141915191619158
:1032D00071917F0184E694E122E030E00E947B2F2F
:1032E00084E694E16FE073E00E94912ED7014D9146
:1032F0005D916D917D917D0184E694E122E030E065
:103300000E947B2F84E694E168E273E00E94912E94
:10331000F70141915191619171917F0184E694E1AE
:1033200022E030E00E947B2F84E694E161E473E0C8
:103330000E94912ED7016D917D918D919D917D017E
:103340000E94211884E694E16BE573E00E94912EBF
:10335000F70161917191819191917F010E942118F2
:1033600084E694E165E773E00E94912ED7016D91A8
:103370007D918D919D917D010E94211884E694E1BB
:103380006FE873E00E94912EF70160817181828164
:10339000938124EE33EFE20EF31E0E94211884E69F
:1033A00094E169EA73E00E94912E87010351144F62
:1033B00084E694E1D8016C914AE050E00E94012E2D
:1033C00084E694E166EC73E00E94912EE0E2FCE07A
:1033D000EE0EFF1ED7014D915D916D917D917D01A6
:1033E00084E694E122E030E00E947B2F84E694E1C1
:1033F00066ED73E00E94912EF70140815181628158
:1034000073812CED33EFE20EF31E84E694E122E0AB
:1034100030E00E947B2FF701EC52F44F11821082B2
:10342000AA24BB2428E2822E912C68013E01089434
:10343000611C711C2F011A2D38E139838FEF8A83AB
:10344000D6016C916A0DC101A30122E00E94401CCB
:10345000F60160816A0DC101A30121E00E94211CD7
:1034600089818F3F09F045C000E0085E098308515B
:103470001A82D6016C91610FC101A30122E00E9462
:10348000401CF6016081610FC101A30121E00E948F
:10349000211C8981882369F5085F0983FFEFFA837E
:1034A000D6016C91610FC101A30122E00E94401C72
:1034B00007500530D1F684E694E169EE73E00E948E
:1034C000912E84E694E1B5014AE050E00E945F2E1F
:1034D00084E694E163EF73E00E948E2F94012852FA
:1034E0003040F201808191818217930711F491821B
:1034F00080820894A11CB11C28E230E0820E931E49
:1035000038E0A316B10409F096CF84ED9BE0E80EF5
:10351000F91ED7016D917C91ECE2F4EFEE0EFF1EE7
:1035200084E694E14AE050E00E94C12D84E694E1F3
:103530006FEF73E00E948E2FF701E151F44FC70146
:1035400061E040810E94E109F701E251F44FC701B7
:1035500062E040810E94E109C70163E040E00E940F
:10356000E109C70160E040E00E94790CC70161E019
:1035700040E00E94790CC70164E00E945E090F9050
:103580000F90CF91DF911F910F91FF90EF90DF90FF
:10359000CF90BF90AF909F908F907F906F905F90F3
:1035A0004F903F902F9008950895FC0185E295E09B
:1035B0009183808308950F931F93CF93DF938C01A2
:1035C00020E030E0EC01C953D44F10C0F801E20F05
:1035D000F31F88819981E80FF91FE251FC4FDB014D
:1035E000A20FB31F8C9180832F5F3F4F24173507A5
:1035F00068F388819981840F951F99838883DF916F
:10360000CF911F910F910895CF93DF93DC01FC01BF
:10361000E351FC4F6081EC01C451DC4F67FF0EC0E9
:103620006058608382E08883ED91FC911197605827
:103630000488F589E02DCD0119950EC0FC01E054F8
:10364000F44F80819181A80FB91FA351BC4F2C91D9
:103650002883019791838083DF91CF910895CF9341
:10366000DF93EC01FC01E753F44F6D3719F481E06F
:103670008083DAC09081992311F080E268276E3749
:1036800049F4992339F4CD53D44F19821882C35C7D
:10369000DB40C4C0CD53D44F28813981C35CDB40AB
:1036A00021153105A1F4C351DC4F6883C152D84FB5
:1036B0008881CC5CDB40882309F448C0C153D44FD7
:1036C0008FEF9FEF99838883CF5CDB403FC0213031
:1036D0003105B1F4DE01AE53B44FFE01E054F44FB6
:1036E00067FF09C083E08C93862F90E08F779070FE
:1036F000108281832BC082E08C936083118226C06C
:103700002230310589F4CE53D44F8881C25CDB402E
:10371000833051F4FE01E054F44F80819181860F93
:10372000911D9183808312C0CE53D44F8881F901BB
:10373000E81BF1099A918A91C05CDB40E817F90710
:1037400028F4EC0FFD1FE251FC4F6083C453D44FAB
:103750008881CC5CDB408823F1F0FE01E153F44F1B
:10376000808191818627282F22952827022E269551
:1037700026952025022E269520252770082E892F94
:10378000269507942795902D8227069427959025B6
:10379000822791838083FE01ED53F44F4081518154
:1037A0004F5F5F4F51834083CE53D44F88813A910E
:1037B0002A91280F311D2C966881CC5CDB40862F26
:1037C00090E0880F991F280F391F4217530731F5D2
:1037D00011821082CB53D44F1992199219821882F8
:1037E000C75CDB40662341F0C153D44F8881998187
:1037F000CF5CDB40892B19F4CE010E94041BFE0133
:10380000E553F44F9081992349F0C351DC4F905810
:103810008881CD5ED340891709F41082FE01E753F9
:10382000F44F808181111082DF91CF91089584E758
:1038300091E10E94D802089584E791E10E94D102AB
:1038400008951F93CF93DF93EA018BEB91E1422F11
:103850000E94FE0310E009C08BEB91E10E94370348
:10386000FE01E10FF11D80831F5F8BEB91E10E9450
:103870002E03892B89F7812FDF91CF911F91089516
:10388000FF920F931F93CF93DF93142F052FF22EE8
:103890008BEB91E10E941A03212F302FC901EC011B
:1038A00010E006C08BEB91E169910E94A6031F5FB7
:1038B0001F15C0F38BEB91E10E94E903DF91CF91DB
:1038C0001F910F91FF9008951F9318E08BEB91E1EA
:1038D000612F0E941A038BEB91E10E94E903882378
:1038E00031F584E694E164E174E00E94912E84E66F
:1038F00094E1612F4AE050E00E94EF2D84E694E1CC
:1039000068E274E00E94912E84E694E1612F40E128
:1039100050E00E94EF2D84E694E16DE274E00E9495
:103920008E2F61E070E080E090E00E944D251F5FE7
:10393000183761F61F910895AF92BF92CF92DF9230
:10394000EF92FF920F931F93DF93CF9300D00F92CC
:10395000CDB7DEB77C016E010894C11CD11C5601A5
:103960000FE010E0D701ED91FC910088F189E02D86
:10397000C701B8011995F50181935F010F5F1F4FD2
:103980000331110579F789819A81AB81BC818F5F01
:103990009F4FAF4FBF4FD9F480E092ECA1E0B0E071
:1039A00089839A83AB83BC830FE010E0D701ED914C
:1039B000FC910288F389E02DC701B801D6014D9131
:1039C0006D0119950F5F1F4F0331110579F749817B
:1039D0005A816B817C8184E694E10E94812A8BEB81
:1039E00091E10E9402040E9403030F900F900F9038
:1039F0000F90CF91DF911F910F91FF90EF90DF908B
:103A0000CF90BF90AF900895CF93DF93EC0108C0A3
:103A100084E694E10E94392B682FCE010E942F1B6F
:103A200084E694E10E94082B181619068CF3DF91A6
:103A3000CF9108957F928F929F92AF92BF92CF9233
:103A4000DF92EF92FF920F931F93CF93DF93FC01CE
:103A500085E295E091838083E453F44F6083399746
:103A60001182108236961082399711821082359613
:103A700011921192118210823A961082AA24BB24CC
:103A80008824992484E791E1B5010E94D102182F7E
:103A9000B501695F7F4F84E791E10E94D102E401A3
:103AA000EE24FF24C12EDD24C094D094082F10E012
:103AB00000951095C633D105B4F4B6010E2C02C0A2
:103AC000759567950A94E2F761708C2F0E942627FE
:103AD000B8010E2C02C0759567950A94E2F76170E3
:103AE0008C2F0E94D9270894E11CF11C219688E0B4
:103AF000E816F104F9F60894A11CB11C88E090E0E6
:103B0000880E991E97E0A916B10409F0BBCFDF918A
:103B1000CF911F910F91FF90EF90DF90CF90BF90CA
:103B2000AF909F908F907F9008951F93162F862FB0
:103B30008D57823050F484E694E16DE70E94722B39
:103B400060E2612784E694E102C084E694E10E9489
:103B5000722B1F9108958F929F92AF92BF92CF9236
:103B6000DF92EF92FF920F931F93CF93DF93EC01BD
:103B7000BEEEEB2EB3E0FB2EE80EF91E00E010E0E7
:103B8000A0EC8A2EABE09A2E880E991EFCECAF2E8C
:103B9000FBE0BF2EA80EB91EEDECCE2EEBE0DE2E24
:103BA000C80ED91E2AC0F50180818823F1F0F701E3
:103BB0002081F601808191818227282F2295282754
:103BC000022E269526952025022E26952025277043
:103BD000082E892F269507942795902D82270694E5
:103BE00027959025822791838083CE01F7016191EB
:103BF0007F010E94951D0F5F1F4FF401808191810D
:103C00000817190708F4CFCFF5018081882369F0E0
:103C10008E010353144FCE01F80160810E94951D5F
:103C2000F8016181CE010E94951DC054D44F1982C4
:103C30001882279619821882DF91CF911F910F91D8
:103C4000FF90EF90DF90CF90BF90AF909F908F90BC
:103C500008950F931F93CF93DF93EC01062FFC0180
:103C6000E054F44FC953D44F888199819183808364
:103C700084E694E16EE70E94722B25968881CC5CE5
:103C8000DB408823F9F0C353D44F8FEF9FEF802799
:103C9000282F22952827022E269526952025022EAC
:103CA000269520252770082E892F2695079427957D
:103CB000902D8227069427959025822799838883C3
:103CC000CD5CDB40CE01602F0E94951DDE01A0542B
:103CD000B44F2D913C911197FE01E453F44F2038DD
:103CE000310530F580818823F1F0FE01E353F44F74
:103CF000808191818227282F22952827022E2695C0
:103D000026952025022E269520252770082E892FFE
:103D1000269507942795902D822706942795902520
:103D2000822791838083CE01C054D44F688149C0DB
:103D30008081882309F437C03068FE01E353F44FD3
:103D4000808191818327282F22952827022E26956E
:103D500026952025022E269520252770082E892FAE
:103D6000269507942795902D8227069427959025D0
:103D700082272C918227282F22952827022E2695EC
:103D800026952025022E269520252770082E892F7E
:103D9000269507942795902D8227069427959025A0
:103DA0008227918380838E010054144FF801208173
:103DB00031813068CE01632F0E94951DCE01F8013C
:103DC00060810E94951DDF91CF911F910F91089501
:103DD0000F931F93DF93CF930F92CDB7DEB78C0174
:103DE0006983DC01A953B44F8D919C911197F8011F
:103DF000E80FF91FE251FC4F608301968D939C936D
:103E0000F801E351FC4FC80160810E94291EC801DE
:103E10000E94AB1D0F90CF91DF911F910F910895DC
:103E20009F92AF92BF92CF92DF92EF92FF920F9349
:103E30001F93DF93CF93CDB7DEB767970FB6F89494
:103E4000DEBF0FBECDBF7C0170E0CB01805890403B
:103E50008931910508F0AFC588539F4FD701A05411
:103E6000B44FFC01EE0FFF1F0590F491E02D199463
:103E70008D919C91892B09F093C5D701ED91FC910F
:103E80000280F381E02DC70119958C01D701ED91D6
:103E9000FC910280F381E02DC7011995DC010D90A2
:103EA0000020E9F7AD0141505040481B590B20E07C
:103EB00030E0B7016953744F11C0F701E20FF31FEF
:103EC000DB018D919C91E80FF91FE251FC4FD80165
:103ED000A20FB31F8C9180832F5F3F4F24173507AC
:103EE00060F35BC18D919C91892B09F059C5D70175
:103EF000ED91FC910480F581E02DC70119958C01AD
:103F0000D701ED91FC910480F581E02DC701199551
:103F1000DC010D900020E9F7AD0141505040481BF5
:103F2000590B20E030E0B7016953744F11C0F7011D
:103F3000E20FF31FDB018D919C91E80FF91FE25115
:103F4000FC4FD801A20FB31F8C9180832F5F3F4F8E
:103F50002417350760F321C18D919C91892B09F0BD
:103F60001FC5D701ED91FC910680F781E02DC701B7
:103F700019958C01D701ED91FC910680F781E02D18
:103F8000C7011995DC010D900020E9F7AD01415002
:103F90005040481B590B20E030E0B7016953744F83
:103FA00011C0F701E20FF31FDB018D919C91E80F27
:103FB000F91FE251FC4FD801A20FB31F8C918083EF
:103FC0002F5F3F4F2417350760F3E7C08D919C9119
:103FD000892B09F0E5C4D701ED91FC910084F185AE
:103FE000E02DC70119958C01D701ED91FC9100845A
:103FF000F185E02DC7011995DC010D900020E9F74E
:10400000AD0141505040481B590B20E030E0B70152
:104010006953744F11C0F701E20FF31FDB018D915B
:104020009C91E80FF91FE251FC4FD801A20FB31F7A
:104030008C9180832F5F3F4F2417350760F3ADC00D
:104040008D919C91892B09F0ABC4D701ED91FC9126
:104050000284F385E02DC70119958C01D701ED91FC
:10406000FC910284F385E02DC7011995DC010D90C8
:104070000020E9F7AD0141505040481B590B20E0AA
:1040800030E0B7016953744F11C0F701E20FF31F1D
:10409000DB018D919C91E80FF91FE251FC4FD80193
:1040A000A20FB31F8C9180832F5F3F4F24173507DA
:1040B00060F373C08D919C91892B09F071C4D70175
:1040C000ED91FC910484F585E02DC70119958C01D3
:1040D000D701ED91FC910484F585E02DC701199578
:1040E000DC010D900020E9F7AD0141505040481B24
:1040F000590B20E030E0B7016953744F11C0F7014C
:10410000E20FF31FDB018D919C91E80FF91FE25143
:10411000FC4FD801A20FB31F8C9180832F5F3F4FBC
:104120002417350760F339C08D919C91892B09F0D4
:1041300037C4D701ED91FC910684F785E02DC701C6
:1041400019958C01D701ED91FC910684F785E02D3E
:10415000C7011995DC010D900020E9F7AD01415030
:104160005040481B590B20E030E0B7016953744FB1
:1041700011C0F701E20FF31FDB018D919C91E80F55
:10418000F91FE251FC4FD801A20FB31F8C9180831D
:104190002F5F3F4F2417350760F3FB01808191812A
:1041A000840F951FFAC38D919C91892B09F0F8C358
:1041B00020E030E0B7016953744FF701E20FF31FBD
:1041C000DB014D915C91E40FF51FE251FC4FD901E9
:1041D000AA5EBA4F8C9180832F5F3F4F2A30310502
:1041E00061F7465F5F4FB3C18D919C918701045188
:1041F0001C4F029709F073C3D701AB53B44F2D91F5
:104200003C911197F701E20FF31FE251FC4F8081BF
:104210002F5F3F4FF701E20FF31FE251FC4F608128
:104220002F5F3F4F2D933C930E94262755C38D91BE
:104230009C91870104511C4F029709F050C3D7018C
:10424000AB53B44F2D913C911197F701E20FF31F3F
:10425000E251FC4F80812F5F3F4FF701E20FF31FC8
:10426000E251FC4F60812F5F3F4F2D933C930E94A2
:10427000D92732C38D919C91870104511C4F01971E
:1042800009F02DC3D701AB53B44F2D913C91119739
:10429000F701E20FF31FE251FC4F80812F5F3F4F88
:1042A0002D933C930E940C288983D701A953B44FC6
:1042B0002D913C911197F701E20FF31FE251FC4F52
:1042C00080832F5F3F4F2D933C9306C38D919C912C
:1042D000870104511C4F029709F001C3D701AB536A
:1042E000B44F2D913C911197F701E20FF31FE2516A
:1042F000FC4F80812F5F3F4F11963C932E932251AC
:104300003C4FF701E20FF31F608171812C5E334057
:104310002D933C930E944626DFC28D919C91813063
:10432000910519F0039709F03BC3D701AB53B44F84
:104330002D913C911197F701E20FF31FE251FC4FD1
:1043400090802F5F3F4F11963C932E932150304029
:1043500040EC5BE0E40EF51EF7018081918140E4C2
:1043600054EFE40EF51E0197B1F021513C4FF701D7
:10437000E20FF31FC080D1802C5E33402D933C931D
:1043800059EEC51653E0D50648F08CEE93E0E80EE2
:10439000F91E89E00AC371E0C72ED12C4CEE53E020
:1043A000E40EF51ED7011C92E4E1FCEFEE0EFF1EB9
:1043B000F701E953F44FC601880F991F208131811D
:1043C000820F931F918380835EEEA52E53E0B52E5E
:1043D000AE0CBF1C00E010E009C0892D0E9412261F
:1043E000D5018D939D935D010F5F1F4F0C151D052A
:1043F000A0F3E1C28D919C91870104511C4F03975A
:1044000009F051C0D701AB53B44F8D919C911197D6
:10441000FC01E251FC4FEE0DFF1D60817181F7013F
:10442000E80FF91FE051FC4F408103968D939C9358
:10443000D701ED91FC910288F389E02DC701199510
:10444000B0C18D919C91870104511C4F029759F581
:10445000D701AB53B44F8D919C91119782519C4FD2
:10446000F701E80FF91F608171818C5E93408D9395
:104470009C93D701ED91FC910088F189E02DC70153
:1044800019958983D701A953B44F2D913C91119768
:10449000F701E20FF31FE251FC4F80832F5F3F4F84
:1044A0002D933C937EC186E080C18D919C910297B3
:1044B00009F076C2D701AB53B44F8D919C911197FF
:1044C000F701E80FF91FE251FC4F60810196F701F7
:1044D000E80FF91FE251FC4FA08001968D939C9349
:1044E0008E01065F1F4FC8010E944D08C8010E943F
:1044F0007906DD24B02EC12E8E010E5F1F4F8B2D4D
:104500009C2DB8010E94B707D394AD14C0F788233F
:1045100041F120E030E0B7016953744F8E010E5F26
:104520001F4FF701E20FF31FDB014D915C91E40F88
:10453000F51FE251FC4FD801A20FB31F8C9180836D
:104540002F5F3F4F2830310561F7485F5F4FFB0118
:10455000518340834CEE53E0E40EF51ED7011C92CC
:1045600026C24CEE53E0E40EF51E85E01EC28D918E
:104570009C910B9709F014C2D701AB53B44F8D91A6
:104580009C911197F701E80FF91FE251FC4F6081F0
:10459000019611969C938E9342E0C42ED12CCC0EA2
:1045A000DD1EAD01C601BC2CA92E8E01065F1F4F7A
:1045B000FA0180819181F701E80FF91FE251FC4F68
:1045C00020810196FA0191838083F60121936F0186
:1045D000E017F10769F78D919C911197F701E80FAA
:1045E000F91FE251FC4F10810196F701E80FF91F06
:1045F000E251FC4F008101968D939C93C6010E946D
:104600004D08C6010E946C07C6016B2D7A2D0E94D1
:104610004B07C601612F40E00E940B0710E03AE013
:10462000A32EB12CAC0EBD1E27ECC22E2BE0D22E39
:10463000CE0CDF1C13C0C5010E94BA068983D601C7
:104640002D913C911197F701E20FF31FE251FC4FBE
:1046500080832F5F3F4F2D933C931F5F101758F3BC
:10466000ECEEF3E0EE0EFF1E79CF8D919C910B974F
:1046700009F096C1D701AB53B44F8D919C9111971E
:10468000F701E80FF91FE251FC4F60810196119686
:104690009C938E9392E0C92ED12CCC0EDD1EAD01E1
:1046A000C601BC2CA92E8E01065F1F4FFA01808126
:1046B0009181F701E80FF91FE251FC4F208101962B
:1046C000FA0191838083F60121936F01E017F107CE
:1046D00069F78D919C911197F701E80FF91FE2514D
:1046E000FC4F00810196F701E80FF91FE251FC4FE2
:1046F000108101968D939C93C6010E944D08C601BE
:104700000E946C07C6016B2D7A2D0E944B07C601D3
:10471000602F412F0E940B071DCF8D919C91029716
:1047200009F046C0D701AB53B44F8D919C911197BE
:10473000F701E80FF91FE251FC4F60810196F70184
:10474000E80FF91FE251FC4FC08001968D939C93B6
:104750008BEB91E14C2D0E94FE03DD248701095370
:10476000144F14C08BEB91E10E9437038983D80169
:104770002D913C911197F701E20FF31FE251FC4F8D
:1047800080832F5F3F4F2D933C93D3948BEB91E12C
:104790000E942E03892B31F7870104511C4FDC1432
:1047A00019F4F801108207C181E0D8018C9303C18C
:1047B000ECEEF3E0EE0EFF1EF7C08D919C91029798
:1047C00008F4EEC087010B53144FD8018D919C91D2
:1047D0001197F701E80FF91FE251FC4F6081019634
:1047E0008D939C938BEB91E10E941A03DD2480EC66
:1047F000A82E8BE0B82EAE0CBF1C12C0F801808131
:104800009181F701E80FF91FE251FC4F6081019699
:10481000D8018D939C938BEB91E10E94A603D394D6
:104820002D2D30E0F50180819181019728173907FE
:1048300028F38BEB91E10E94E9038CCE8D919C9142
:10484000870104511C4F019709F049C0D701AB53B0
:10485000B44F2D913C911197F701E20FF31FE251F4
:10486000FC4F80812F5F3F4F2D933C930E94E402C9
:1048700033C08D919C91870104511C4F019779F5AC
:10488000D701AB53B44F2D913C911197F701E20F33
:10489000F31FE251FC4F80812F5F3F4F2D933C93DC
:1048A0000E94F20219C08D919C91870104511C4F06
:1048B0000197A9F4D701AB53B44F2D913C911197B7
:1048C000F701E20FF31FE251FC4F80812F5F3F4F52
:1048D0002D933C930E94ED02D8011C926CC086E09F
:1048E000F801808368C08D919C91019709F058C0B0
:1048F000D701AB53B44F8D919C911197F701E80FFD
:10490000F91FE251FC4F208101968D939C932EBD9F
:104910000DB407FEFDCF2EB52983D701A953B44F9F
:104920008D919C911197F701E80FF91FE251FC4F0F
:10493000208301968D939C930DCE8D919C91892B14
:1049400079F54AEE53E0E40EF51ED7016D917C91A6
:10495000E6E1FCEFEE0EFF1E870120E030E0A7014C
:104960004953544F10C0F701E20FF31FDA018D9144
:104970009C91E80FF91FE251FC4FD80111968C91E0
:1049800080832F5F3F4F0F5F1F4F2617370758F366
:10499000FA0180819181860F971F91838083DACD00
:1049A0004CEE53E0E40EF51E86E0D7018C93E4E173
:1049B000FCEFEE0EFF1E870104511C4FC701D8010A
:1049C0006C910E94E81EF801808167960FB6F894FA
:1049D000DEBF0FBECDBFCF91DF911F910F91FF9032
:1049E000EF90DF90CF90BF90AF909F9008951F926F
:1049F0000F920FB60F9211242F933F938F939F9393
:104A0000AF93BF9380913F1290914012A0914112B9
:104A1000B0914212309143120196A11DB11D232F76
:104A20002D5F2D3720F02D570196A11DB11D20932C
:104A3000431280933F1290934012A0934112B0937F
:104A4000421280913B1290913C12A0913D12B09184
:104A50003E120196A11DB11D80933B1290933C1212
:104A6000A0933D12B0933E12BF91AF919F918F9151
:104A70003F912F910F900FBE0F901F9018958FB7F9
:104A8000F89420913F123091401240914112509180
:104A900042128FBFB901CA0108959B01AC017FB7D3
:104AA000F89480913B1290913C12A0913D12B091EC
:104AB0003E1266B5A89B05C06F3F19F00196A11D77
:104AC000B11D7FBFBA2FA92F982F8827860F911D60
:104AD000A11DB11D62E0880F991FAA1FBB1F6A9517
:104AE000D1F7BC012DC0FFB7F89480913B12909193
:104AF0003C12A0913D12B0913E12E6B5A89B05C0B4
:104B0000EF3F19F00196A11DB11DFFBFBA2FA92FCC
:104B1000982F88278E0F911DA11DB11DE2E0880FEF
:104B2000991FAA1FBB1FEA95D1F7861B970B885EBA
:104B30009340C8F2215030404040504068517C4F73
:104B4000211531054105510571F60895019739F098
:104B5000880F991F880F991F02970197F1F7089501
:104B6000789484B5826084BD84B5816084BD85B548
:104B7000826085BD85B5816085BDEEE6F0E080810F
:104B800081608083E1E8F0E0108280818260808330
:104B9000808181608083E0E8F0E0808181608083B3
:104BA000E1EBF0E0808184608083E0EBF0E08081E5
:104BB00081608083E1E9F0E0808182608083808190
:104BC00081608083E0E9F0E0808181608083E1EAB8
:104BD000F0E0808182608083808181608083E0EA70
:104BE000F0E0808181608083E1E2F1E08081826099
:104BF0008083808181608083E0E2F1E08081816058
:104C00008083EAE7F0E08081846080838081826035
:104C1000808380818160808380818068808310921E
:104C2000C1000895382F863308F0365320917B0059
:104C3000832F86958695869590E08170907043E0ED
:104C4000880F991F4A95E1F7277F282B20937B0037
:104C5000377080913F048295880F880F807C832B6A
:104C600080937C0080917A00806480937A008091A8
:104C70007A0086FDFCCF2091780040917900942F36
:104C800080E030E0282B392BC90108951F93CF9382
:104C9000DF93182FEB0161E00E942627209709F48B
:104CA000CAC0CF3FD10509F4C9C0E12FF0E0E25EF0
:104CB000FC4F8491893009F466C08A30B0F48430A6
:104CC000F1F1853040F4823059F1833070F5813054
:104CD00009F0AEC020C0873009F443C0883008F026
:104CE00048C0863009F0A4C034C08D3009F478C0C3
:104CF0008E3038F48B3009F45AC08C3008F066C01E
:104D00004CC0803109F480C0813109F487C08F30F4
:104D100009F08EC06FC084B5806884BDC7BD92C0E5
:104D200084B5806284BDC8BD8DC0809180008068DC
:104D300080938000D0938900C093880083C08091C5
:104D40008000806280938000D0938B00C0938A00A3
:104D500079C08091B00080688093B000C093B300A8
:104D600071C08091B00080628093B000C093B400A5
:104D700069C080919000806880939000D0939900E2
:104D8000C09398005FC080919000806280939000F3
:104D9000D0939B00C0939A0055C08091900088608A
:104DA00080939000D0939D00C0939C004BC0809155
:104DB000A00080688093A0008091A0008F7B8093EA
:104DC000A000D093A900C093A8003CC08091A0008F
:104DD00080628093A000D093AB00C093AA0032C041
:104DE0008091A00088608093A000D093AD00C09314
:104DF000AC0028C080912001806880932001D0936E
:104E00002901C09328011EC08091200180628093F7
:104E10002001D0932B01C0932A0114C0809120015E
:104E2000886080932001D0932D01C0932C010AC08B
:104E3000C038D1051CF4812F60E002C0812F61E0F1
:104E40000E94D927DF91CF911F910895CF93DF93CF
:104E5000482F50E0CA0188529D4FFC0134914E56B4
:104E60005D4FFA018491882369F190E0880F991FC2
:104E7000FC01EC5BFD4FA591B491FC01E25AFD4FA2
:104E8000C591D491662351F42FB7F8948C91932F48
:104E9000909589238C93888189230BC0623061F4BB
:104EA0002FB7F8948C91932F909589238C938881B8
:104EB000832B88832FBF06C09FB7F8948C91832BD8
:104EC0008C939FBFDF91CF910895893009F449C039
:104ED0008A30A0F4843051F1853040F4823079F189
:104EE000833000F5813009F063C026C0873079F146
:104EF000883098F5863009F05BC025C08D3009F404
:104F000042C08E3028F48B30B1F18C30C0F52DC00A
:104F1000803109F442C0813109F445C08F3009F075
:104F200047C037C0809180008F7703C08091800098
:104F30008F7D80938000089584B58F7702C084B5FB
:104F40008F7D84BD08958091B0008F7703C08091DC
:104F5000B0008F7D8093B0000895809190008F778E
:104F600007C0809190008F7D03C080919000877F63
:104F70008093900008958091A0008F7707C0809162
:104F8000A0008F7D03C08091A000877F8093A00048
:104F90000895809120018F7703C0809120018F7D3B
:104FA00080932001089580912001877F80932001C4
:104FB0000895FF920F931F93F62E482F50E0CA01D9
:104FC000825E9C4FFC012491CA0188529D4FFC01D6
:104FD00014914E565D4FFA0104910023C9F022232B
:104FE00019F0822F0E946527E02FF0E0EE0FFF1FDF
:104FF000E25AFD4FA591B4919FB7F894FF2021F498
:105000008C911095812302C08C91812B8C939FBF32
:105010001F910F91FF9008950F931F93482F50E019
:10502000CA01825E9C4FFC012491CA0188529D4FA7
:10503000FC0104914E565D4FFA011491112319F4AD
:1050400020E030E015C0222319F0822F0E9465274E
:10505000812F90E0880F991F88589D4FFC01A591E2
:10506000B4918C9120E030E0802311F021E030E019
:10507000C9011F910F91089508951F920F920FB6C5
:105080000F920BB60F9211242F933F934F938F9350
:105090009F93EF93FF938091C00082FD1DC04091CC
:1050A000C60020918412309185122F5F3F4F2F73DD
:1050B000307080918612909187122817390771F00D
:1050C000E0918412F0918512EC5BFD4E40833093A9
:1050D00085122093841202C08091C600FF91EF9147
:1050E0009F918F914F913F912F910F900BBE0F90F9
:1050F0000FBE0F901F90189508951F920F920FB634
:105100000F920BB60F9211242F933F934F938F93CF
:105110009F93EF93FF938091C80082FD1DC0409143
:10512000CE0020910C1330910D132F5F3F4F2F7342
:10513000307080910E1390910F132817390771F07A
:10514000E0910C13F0910D13E453FD4E4083309326
:105150000D1320930C1302C08091CE00FF91EF91AC
:105160009F918F914F913F912F910F900BBE0F9078
:105170000FBE0F901F90189508951F920F920FB6B3
:105180000F920BB60F9211242F933F934F938F934F
:105190009F93EF93FF938091D00082FD1DC04091BB
:1051A000D60020919413309195132F5F3F4F2F73AA
:1051B000307080919613909197132817390771F0EA
:1051C000E0919413F0919513EC5AFC4E4083309388
:1051D00095132093941302C08091D600FF91EF9114
:1051E0009F918F914F913F912F910F900BBE0F90F8
:1051F0000FBE0F901F90189508951F920F920FB633
:105200000F920BB60F9211242F933F934F938F93CE
:105210009F93EF93FF938091300182FD1DC04091D9
:10522000360120911C1430911D142F5F3F4F2F73B6
:10523000307080911E1490911F142817390771F057
:10524000E0911C14F0911D14E452FC4E4083309305
:105250001D1420931C1402C080913601FF91EF9120
:105260009F918F914F913F912F910F900BBE0F9077
:105270000FBE0F901F901895E0917014F09171146B
:10528000E05CFF4F8191919120813181821B930BD2
:105290008F739070892B11F00E943C28E09192143A
:1052A000F0919314E05CFF4F8191919120813181C5
:1052B000821B930B8F739070892B11F00E947C28B6
:1052C000E091B414F091B514E05CFF4F819191919D
:1052D00020813181821B930B8F739070892B11F089
:1052E0000E94BC28E091D614F091D714E05CFF4FE7
:1052F0008191919120813181821B930B8F739070EA
:10530000892B11F00E94FC2808951F920F920FB66E
:105310000F920BB60F9211242F933F938F939F936D
:10532000EF93FF932091C8123091C9128091CA1255
:105330009091CB122817390731F48091C1008F7DED
:105340008093C10014C0E091CA12F091CB12E857CB
:10535000FD4E20818091CA129091CB1201968F73DD
:1053600090709093CB128093CA122093C600FF9145
:10537000EF919F918F913F912F910F900BBE0F90C6
:105380000FBE0F901F9018951F920F920FB60F929D
:105390000BB60F9211242F933F938F939F93EF930C
:1053A000FF9320915013309151138091521390919B
:1053B00053132817390731F48091C9008F7D8093EA
:1053C000C90014C0E0915213F0915313E05FFC4EFA
:1053D0002081809152139091531301968F73907096
:1053E00090935313809352132093CE00FF91EF912B
:1053F0009F918F913F912F910F900BBE0F900FBEF9
:105400000F901F9018951F920F920FB60F920BB628
:105410000F9211242F933F938F939F93EF93FF93BA
:105420002091D8133091D9138091DA139091DB1326
:105430002817390731F48091D1008F7D8093D100F6
:1054400014C0E091DA13F091DB13E856FC4E208192
:105450008091DA139091DB1301968F739070909383
:10546000DB138093DA132093D600FF91EF919F9185
:105470008F913F912F910F900BBE0F900FBE0F9009
:105480001F9018951F920F920FB60F920BB60F92A6
:1054900011242F933F938F939F93EF93FF9320912A
:1054A00060143091611480916214909163142817F4
:1054B000390731F4809131018F7D8093310114C01F
:1054C000E0916214F0916314E05EFB4E20818091C4
:1054D00062149091631401968F739070909363148B
:1054E0008093621420933601FF91EF919F918F91E9
:1054F0003F912F910F900BBE0F900FBE0F901F90FA
:105500001895AF92BF92DF92EF92FF920F931F9385
:10551000CF93DF93EC017A018B01DD24403081EEE3
:10552000580780E0680780E0780711F0DD24D39405
:1055300091E0A92EB12CEC89FD89DD2069F0C5012F
:1055400008A002C0880F991F0A94E2F7808360E0E8
:1055500079E08DE390E005C0108260E874E88EE1A8
:1055600090E0A80197010E94FA332150304040405A
:105570005040569547953795279580E1203038075C
:1055800020F0DD2011F0DD24D6CFE889F9893083C1
:10559000EA89FB89208319A2EE89FF89408121E0F5
:1055A00030E0C9010C8C02C0880F991F0A94E2F701
:1055B000482B4083EE89FF894081C9010D8C02C0D0
:1055C000880F991F0A94E2F7482B4083EE89FF89E0
:1055D0004081C9010E8C02C0880F991F0A94E2F71E
:1055E000482B4083EE89FF8980810F8C02C0220FF7
:1055F000331F0A94E2F7209528232083DF91CF916F
:105600001F910F91FF90EF90DF90BF90AF900895A2
:10561000DC011C96ED91FC911D97E05CFF4F219100
:10562000319180819181281B390B2F733070C90112
:105630000895DC011C96ED91FC911D97E05CFF4FF5
:1056400020813181E054F040DF01AE5BBF4F8D918E
:105650009C9111972817390719F42FEF3FEF07C0D6
:105660008D919C91E80FF91F8081282F30E0C901AE
:105670000895DC011C96ED91FC911D97E05CFF4FB5
:1056800020813181E054F040DF01AE5BBF4F8D914E
:105690009C9111972817390719F42FEF3FEF10C08D
:1056A0008D919C911197E80FF91F20818D919C910C
:1056B000119701968F73907011969C938E9330E0A2
:1056C000C9010895DC0191968C919197882339F056
:1056D0005496ED91FC915597808186FFF9CF919674
:1056E0001C920895CF93DF93EC01EE85FF85E05C7B
:1056F000FF4F20813181E054F0402F5F3F4F2F73E7
:105700003070DF01AE5BBF4F8D919C9111972817D0
:105710003907D1F3E05CFF4F80819181E054F04084
:10572000E80FF91F6083EE85FF85E05CFF4F318352
:105730002083EE89FF89208181E090E00F8C02C0F8
:10574000880F991F0A94E2F7282B208381E089A310
:10575000EC89FD8980818064808381E090E0DF9125
:10576000CF9108951F93109267141092661428EE3B
:1057700033E040E050E02093681430936914409384
:105780006A1450936B146FE375E070936514609323
:10579000641484E492E1909371148093701488E807
:1057A00092E1909373148093721485EC90E090933F
:1057B00075148093741484EC90E090937714809324
:1057C000761480EC90E0909379148093781481ECB7
:1057D00090E090937B1480937A1482EC90E0909305
:1057E0007D1480937C1486EC90E090937F148093DA
:1057F0007E1414E010938014B3E0B0938114A7E0FA
:10580000A0938214F5E0F0938314E1E0E093841414
:10581000109289141092881420938A1430938B1458
:1058200040938C1450938D14709387146093861456
:105830008CEC92E1909393148093921480E193E125
:1058400090939514809394148DEC90E0909397141A
:10585000809396148CEC90E0909399148093981414
:1058600088EC90E090939B1480939A1489EC90E0DC
:1058700090939D1480939C148AEC90E090939F14D5
:1058800080939E148EEC90E09093A1148093A014CA
:105890001093A214B093A314A093A414F093A5148E
:1058A000E093A6141092AB141092AA142093AC1497
:1058B0003093AD144093AE145093AF147093A91469
:1058C0006093A81484E593E19093B5148093B41485
:1058D00088E993E19093B7148093B61485ED90E036
:1058E0009093B9148093B81484ED90E09093BB1416
:1058F0008093BA1480ED90E09093BD148093BC1413
:1059000081ED90E09093BF148093BE1482ED90E0FF
:105910009093C1148093C01486ED90E09093C314CB
:105920008093C2141093C414B093C514A093C614EA
:10593000F093C714E093C8141092CD141092CC14B5
:105940002093CE143093CF144093D0145093D1149D
:105950007093CB146093CA148CED93E19093D71499
:105960008093D61480E294E19093D9148093D81454
:1059700085E391E09093DB148093DA1484E391E063
:105980009093DD148093DC1480E391E09093DF1416
:105990008093DE1481E391E09093E1148093E0140E
:1059A00082E391E09093E3148093E21486E391E024
:1059B0009093E5148093E4141093E614B093E714E5
:1059C000A093E814F093E914E093EA141F9108956A
:1059D000CF92DF92EF92FF920F931F93CF93DF93BB
:1059E0007C016B018A01C0E0D0E00FC0D6016D914F
:1059F0006D01D701ED91FC910190F081E02DC7017F
:105A00001995C80FD91F015010400115110571F7E4
:105A1000CE01DF91CF911F910F91FF90EF90DF901A
:105A2000CF900895EF92FF920F931F938C01DC01AA
:105A3000ED91FC910190F081E02D6DE019957C01D4
:105A4000D801ED91FC910190F081E02DC8016AE050
:105A500019959C012E0D3F1DC9011F910F91FF90BB
:105A6000EF900895CF93DF93EC016115710519F460
:105A700020E030E00FC0DB010D900020E9F7119726
:105A8000A61BB70BE881F9810280F381E02DAD01FF
:105A900019959C01C901DF91CF9108954F925F92B2
:105AA0007F928F929F92AF92BF92CF92DF92EF92AE
:105AB000FF920F931F93DF93CF93CDB7DEB7A197DC
:105AC0000FB6F894DEBF0FBECDBF2C01742ECB01F4
:105AD000223008F42AE019A231E2C32ED12CCC0ED8
