:100000000C94EB020C941C030C941C030C941C0326
:100010000C941C030C941C030C941C030C941C03E4
:100020000C941C030C941C030C941C030C941C03D4
:100030000C941C030C941C030C941C030C941C03C4
:100040000C941C030C941C030C941C030C941C03B4
:100050000C94530B0C941C030C941C030C94062E50
:100060000C941C030C94B72F0C94A7300C941C0315
:100070000C941C030C94280B0C941C030C941C0370
:100080000C941C030C941C030C941C030C940F097B
:100090000C94EB2F0C94E6300C941C030C94ED059F
:1000A0000C941C030C941C030C941C030C941C0354
:1000B0000C941C030C941C030C941C030C941C0344
:1000C0000C941C030C941C030C941C030C941F3004
:1000D0000C9425310C941C030C9453300C94643113
:1000E0000C941C0373128D12071383128313AE1327
:1000F000BD13D813E913081419146B186B18F214F4
:10010000311517157015C115FE1557166816AB1663
:10011000C816C71707181618D417ED1736184A1837
:100120006B186B186B186B186B186B186B186B18B7
:100130006B186B186B186B186B186B186B186B18A7
:100140006B186B186B186B186B186B186B186B1897
:100150006B186B186B186B186B186B186B186B1887
:100160006B186B186B186B186B186B186B186B1877
:100170006B186B186B186B186B186B186B186B1867
:100180006B186B186B186B186B186B18FB16B7177E
:10019000AA1CD21CF61C131D4F1D311D6D1D961D72
:1001A000D01DB31D0C1EE81D401F1B1F5F1F01202B
:1001B0009B1F92205620D020E820002118213521B5
:1001C0008B1D442159217521C71CB421772C7A2C11
:1001D0006D2C712CB12C7E2C822C882C8C2C902C8C
:1001E000962C9A2C9E2CB12CA42CA82CAC2C702DC7
:1001F000752D7A2D842DFD2D8E2D962D9E2DA82DBD
:10020000B22DBC2DCB2DD52DFD2DDF2DE92DF32DC0
:1002100008000000BE922449123EABAAAA2ABECD15
:10022000CCCC4C3E00000080BEABAAAAAA3E000087
:100230000000BF000000803F00000000000841787F
:10024000D3BB4387D1133D190E3CC3BD4282AD2BB6
:100250003E68EC8276BED98FE1A93E4C80EFFFBEAE
:1002600001C4FF7F3F000000000007634236B79BD8
:10027000D8A71A39685618AEBAAB558C1D3CB7CC06
:100280005763BD6DEDFD753EF6177231BF0000007E
:10029000803F0000090A02080B0C0D070603040149
:1002A000000000000000000000000000000000004E
:1002B000000000000000000000000000000011101D
:1002C0000F0000000000000000000000000000001F
:1002D00000000000000000000102102020080810AB
:1002E00020401020408002010201080402010102A6
:1002F000040810204080804020100804020180047F
:1003000002018040201008040201080402010102D9
:1003100004081020408001020408102040800505D8
:100320000505070508080808020202020A0A08086B
:100330000404040401010101010101010303030399
:1003400003030303040707070C0C0C0C0C0C0C0C28
:100350000202020206060606060606060B0B0B0B39
:100360000B0B0B0B000020002300260029002C00A3
:100370002F00320000010000030106010901000006
:100380002200250028002B002E003100340002013D
:100390000000050108010B010000210024002700D6
:1003A0002A002D0030003300010100000401070184
:1003B0000A010C945A330C943F190C94C7170C94EF
:1003C000A82D0C9456200C94600B0C9468160C9479
:1003D0008D120C94470F0C9435210C9419140C9425
:1003E0005F1F0C9436180C94C1150C94332F0C9489
:1003F00007130C948D040C94602F0C94311D0C94F5
:10040000DF2D0C946B180C94C71C0C944A180C9498
:10041000D4170C946D1D0C949D0A0C9490180C9498
:10042000822C0C94702D0C9470150C94842D0C94CB
:10043000E9130C943D040C94131D0C946F0B0C9455
:100440000B050C94850A0C94630B0C9459210C94A5
:10045000CB2D0C94062F0C9450040C945D0B0C9433
:100460001E030C943A090C9475210C94B7170C9444
:10047000712C0C946C0B0C9408140C940C1E0C94A2
:1004800058270C94B12C0C947A2C0C947A2D0C9443
:10049000962D0C949E2D0C9443190C94A82C0C941E
:1004A000FB160C9416180C948B1D0C94D01D0C94F8
:1004B000AB160C94AC2C0C94C8160C9486300C948F
:1004C000772C0C94182F0C94A42C0C944F1D0C9486
:1004D00037230C9424320C94E8200C94E81D0C94DF
:1004E000BD130C94AE130C9444210C94902C0C94DA
:1004F000401F0C9483120C9401200C9447190C9407
:10050000FE150C94720B0C94ED170C9400210C94B6
:10051000752D0C94F32D0C94750B0C94E92D0C9403
:1005200092200C94F2140C9473120C94B31D0C943E
:10053000F61C0C9418210C94D52D0C9435040C94B5
:100540005F040C94AA1C0C949B1F0C9456030C94EF
:1005500093230C94D21C0C94660B0C9483130C9470
:1005600045120C9496230C9460040C9457160C942A
:10057000BC2D0C949A2C0C948E2D0C94B22D0C94B2
:100580006D2C0C9417150C9431150C94961D0C942D
:10059000D8130C941B1F0C94B4210C948C2C0C9429
:1005A000D0200C94962C0C94690B0C94882C0C94F1
:1005B000FD2D0C947E2C0C94552F0C9407180C9444
:1005C0009E2C0C9452030C94B31852030B055D0B34
:1005D00058272432560311241FBECFEFD1E2DEBFCD
:1005E000CDBF00E00CBF14E0A0E0B2E0E0E3FCE728
:1005F00000E00BBF02C007900D92AA3AB107D9F7ED
:1006000011E1AAEAB4E001C01D92A133B107E1F7FC
:1006100015E0C4EDD5E000E006C022970109FE0117
:100620000BBF0E94A63BCA3CD10780E00807A9F790
:100630000E94EF030C94063E0C9400008091060289
:100640009091070201969093070280930602089505
:100650008AEA94E00E941D2280910602909107028E
:1006600069E170E00E946A3B892BD9F48091FC0C0F
:10067000882389F08091FD0C81110BC0E091AA04C0
:10068000F091AB040688F789E02D8AEA94E0199589
:1006900002C01092FD0C81E090E0909307028093DD
:1006A000060208958AEA94E00C94800B8AEA94E0AA
:1006B0000C94910B80E1809391001092900085E062
:1006C00080931F0E86E998E99093210E8093200E67
:1006D000909397008093960085E1809391008EE13E
:1006E00093E090931E0E80931D0E81E08093710025
:1006F0008AEA94E00E94470F68E072E08BEE9EE089
:100700000E94CD336FEF71E2605072404AE050E0DA
:100710008BEE9EE00E94A7346DE072E08BEE9EE0CF
:100720000E94CD336AEA74E0605072404AE050E0C3
:100730008BEE9EE00E94A73464E172E08BEE9EE0B7
:100740000E94CD3361E371E16A5A74404AE050E09F
:100750008BEE9EE00E94A7346AE172E08BEE9EE091
:100760000E94CD3360912D1170912E11611571058C
:1007700019F06153714102C060E070E04AE050E05E
:100780008BEE9EE00E94A73460E272E08BEE9EE06A
:100790000E94CD338DB79EB76FEF71E2681B790B66
:1007A0004AE050E08BEE9EE00E94A73467E272E0E0
:1007B0008BEE9EE00E94CD3380912D1190912E11F1
:1007C0006DB77EB7009719F46153714102C0681B81
:1007D000790B4AE050E08BEE9EE00C94A7340E9427
:1007E000A42E0E945A03C6E8D0E30E942803209753
:1007F000E1F30E948630F9CFCB010C94E03DCB01B0
:10080000642F0C94E83D61E085E30E94EB2C61E0ED
:1008100085E30E94B22C8CB580618CBD8CB5806460
:100820008CBD61E084E30E94B22C61E083E30C9410
:10083000B22C811103C08CB5806202C08CB58F7D53
:100840008CBD08959CB5937F982B9CBD08952CB5C5
:10085000982F93702C7F922B9CBD9DB582FB88278F
:1008600080F99E7F982B9DBD089580918D0D90E01D
:1008700020918E0D821B9109089520918E0D8091FB
:100880008D0D281750F4E22FF0E0E157F24F8081F0
:1008900090E02F5F20938E0D08958FEF9FEF0895C6
:1008A000E0918E0D80918D0DE81730F4F0E0E15766
:1008B000F24F808190E008958FEF9FEF08950895A3
:1008C000CF92DF92EF92FF920F931F93CF93DF931C
:1008D0007C01CB018A012091690D222389F0EB0173
:1008E0006B01C40ED51ECC15DD0569F06991D701E9
:1008F000ED91FC910190F081E02DC7011995F3CFA6
:10090000642F0E94C405C801DF91CF911F910F9100
:10091000FF90EF90DF90CF900895CF93DF931F92D9
:10092000CDB7DEB769832091690D2223D1F02091E4
:100930006A0D203240F021E030E0FC013383228355
:1009400080E090E015C080916B0DE82FF0E0E45955
:10095000F24F998190838F5F80936B0D80936A0D26
:1009600005C061E0CE0101960E94C40581E090E0DF
:100970000F90DF91CF910895FC011382128248EE0F
:1009800053E060E070E0448355836683778388E3B7
:1009900092E091838083089510928E0D10928D0DB8
:1009A00010926B0D10926A0D0C940F05862F413238
:1009B00008F040E26FE87DE00E942D0510928E0D58
:1009C00080938D0D089521E00C94D60421E00C94C1
:1009D000D60481E08093690D60938C0D10926B0DAD
:1009E00010926A0D08950C94E9040F93062F21E0EC
:1009F00040916A0D6CE67DE080918C0D0E9471053E
:100A000010926B0D10926A0D1092690D0F9108955E
:100A100061E00C94F5048DE59DE00C94BC0410920B
:100A20001C0E81E080931A0E1092190E61E084E191
:100A30000E94EB2C61E085E10E94EB2CE9EBF0E0F9
:100A400080818E7F808380818D7F808388E4809306
:100A5000B80085E48093BC000895413208F03FC09F
:100A600090911C0E9111FCCF91E090931C0E20935D
:100A70001A0E2FEF2093AF0D1092F40D240F209338
:100A8000F30D90931B0E90911B0E880F892B809372
:100A90001B0E8091190E813041F41092190E809135
:100AA0001B0E8093BB0085EC01C085EE8093BC00DB
:100AB00080911C0E8130E1F38091F40D841710F4C5
:100AC0004091F40D25EF3DE0FB01D9018A2F821BF7
:100AD000841718F48D918193F9CF842F089580E0C5
:100AE00008950F93413208F046C090911C0E911169
:100AF000FCCF92E090931C0E00931A0E9FEF909300
:100B0000AF0D1092F40D4093F30DFB0165EF7DE006
:100B1000DB019A2F961B941718F491919D93F9CFAE
:100B200010921B0E90911B0E880F892B80931B0E29
:100B30008091190E813041F41092190E80911B0E94
:100B40008093BB0085EC01C085EE8093BC0022231E
:100B500021F080911C0E8230E1F38091AF0D8F3F28
:100B600061F08091AF0D803251F08091AF0D8033F4
:100B700041F483E007C081E005C080E003C082E06B
:100B800001C084E00F910895613298F420911C0E09
:100B9000243089F46093D10DFC0183ED9DE0DC01EC
:100BA0002A2F281B261718F421912D93F9CF80E0C6
:100BB000089581E0089582E0089585ED8093BC005A
:100BC0008091BC0084FDFCCF10921C0E089585EC32
:100BD0008093BC0010921C0E08951F920F920FB6C6
:100BE0000F9211240BB60F922F933F934F935F9365
:100BF0006F937F938F939F93AF93BF93EF93FF93E5
:100C00008091B900887F803609F49CC068F58832ED
:100C100009F45BC090F4803109F454C038F488239F
:100C200009F4F5C0883009F44DC0F5C0883109F4E5
:100C30004CC0803209F45DC0EEC0803409F468C055
:100C400048F4803309F455C0883309F0E4C0809338
:100C5000AF0DA8C0803509F44FC0883509F45DC0D8
:100C6000883409F0D8C0D5C0883909F4C6C0A8F4C2
:100C7000883709F467C038F4883609F463C08037D0
:100C800009F460C0C8C0883809F4B7C0803909F4D5
:100C90005FC0803809F0BFC05BC0803B09F485C0ED
:100CA00038F4803A09F466C0883A09F47EC0B3C0CB
:100CB000803C09F4A6C0883C09F4A3C0883B09F431
:100CC00089C0A9C080911B0E10C09091F40D809135
:100CD000F30D981770F5E091F40D81E08E0F80937D
:100CE000F40DF0E0EB50F24F80818093BB0085EC77
:100CF00085C08093AF0D8DC0E091F40D81E08E0F23
:100D00008093F40D8091BB00F0E0EB50F24F8083B4
:100D10009091F40D8091F30D6DC0E091F40D81E0A0
:100D20008E0F8093F40D8091BB00F0E0EB50F24FFA
:100D3000808380911A0E81116CC081E08093190E1E
:100D400084EA60C083E080931C0E1092B00DCFCF78
:100D50008091B00D803208F050C0E091B00D81E07C
:100D60008E0F8093B00D8091BB00F0E0EF54F24FF6
:100D70008083BDCF8091B00D803230F4E091B00D12
:100D8000F0E0EF54F24F10820E94DD056091B00D4B
:100D900070E0E091150EF091160E81EB9DE0199533
:100DA0001092B00D0E94E70536C084E080931C0EBF
:100DB0001092D20D1092D10DE091170EF091180EF5
:100DC00019958091D10D811105C081E08093D10DDD
:100DD0001092D30DE091D20D81E08E0F8093D20D51
:100DE000F0E0ED52F24F80818093BB009091D20DE4
:100DF0008091D10D981708F47ACF85E88093BC00D4
:100E00000AC085EC8093BC0010921C0E04C01092A6
:100E1000AF0D0E94DD05FF91EF91BF91AF919F91C2
:100E20008F917F916F915F914F913F912F910F9093
:100E30000BBE0F900FBE0F901F901895FF920F934F
:100E40001F93CF93DF93FC010081C181D281F8947D
:100E50008981F02EF0948F21898378941DE71150B9
:100E600029F182E090E00E94992E88818023B9F3D5
:100E7000F8948A818F218A838981802B8983789451
:100E800080EE91E00E94992EF89489818F218983C8
:100E900086E490E00E94992E8881802311E009F079
:100EA00010E078948AE991E00E94992E812FDF91D9
:100EB000CF911F910F91FF9008951F93CF93DF93D0
:100EC000FC011081C181D281912F909560FF12C0E9
:100ED000F8948A8189238A838981812B89838AE096
:100EE00090E00E94992E8A81812B8A83789487E3EF
:100EF00090E011C0F8948A8189238A838981812BAB
:100F0000898381E490E00E94992E8A81812B8A83D3
:100F1000789485E090E0DF91CF911F910C94992E09
:100F20000F931F93CF93DF93FC011081C181D28176
:100F3000F8948981812B89838A81012F00958023F0
:100F40008A8383E090E00E94992E8981802389839F
:100F50008AE090E00E94992EC881789485E390E021
:100F60000E94992E1C2381E009F480E0DF91CF914B
:100F70001F910F910895CF92DF92EF92FF920F93FE
:100F80001F93CF93DF931F92CDB7DEB76C01E62E90
:100F900008E010E0FF24F39461E09F2D9E2109F406
:100FA00060E0C60149830E945D07FF0C01501109F2
:100FB00049810115110581F7411115C0F894D60139
:100FC0001196ED91FC91129791818C9180958923D6
:100FD00081831196ED91FC91129792818C9180956D
:100FE0008923828378940F90DF91CF911F910F9185
:100FF000FF90EF90DF90CF900895EF92FF920F93C4
:101000001F93CF93DF938C01C8E0D0E0F12CEE2446
:10101000E394C8010E9490078111FE28EE0C2197ED
:101020002097B9F78F2DDF91CF911F910F91FF90EE
:10103000EF900895CF92DF92FF920F931F93CF937B
:10104000DF931F92CDB7DEB78C01F62E40E065E549
:1010500079830E94BB07CF2C7981D72E88E0F82EA8
:10106000F60161916F0140E0C8010E94BB07FA944C
:10107000B9F70F90DF91CF911F910F91FF90DF9003
:10108000CF900895FC0113861586148627E030E082
:10109000DF01A20FB31F13961C922115310519F021
:1010A00021503109F5CF08951F93CF93DF93EC01C1
:1010B000162F60E0812F0E94B22C612F70E0FB019F
:1010C000E852FD4FE491E883FB01E25EFC4FE491BE
:1010D000F0E0EE0FFF1FEC59FC4F859194919A833D
:1010E0008983CE01DF91CF911F910C944208AF927A
:1010F000BF92CF92DF92EF92FF920F931F93CF9305
:10110000DF931F92CDB7DEB75C01E62ED72EFC0130
:10111000858581115DC0C5010E941E07811105C032
:10112000F5011386158614866EC040E060EFC50198
:101130000E94BB0701E0F12CC12C11E0C5010E9407
:101140009007682FC50169830E949007698161300B
:1011500019F48130B9F433C02F2D30E068131BC06F
:10116000F5018385181730F4E20FF31F8381802384
:1011700049F402C0181731F060E0193058F4F50155
:10118000148708C0F501EF0DF11D8381802B838347
:1011900061E009C0C12EF501E20FF31F8381902F9A
:1011A000909589238383C5010E945D071F5F000F0F
:1011B00011F4F39401E0F7E0FF1508F0BFCF11340C
:1011C00038F0F501C386C11018C081E0858715C0CD
:1011D000F50113861586148680E0EE2DFD2D20E0A6
:1011E00030E0D501A20FB31F13969C9191932F5F0E
:1011F0003F4F28303105A9F706C0F50183818823C8
:1012000039F381E0EACF0F90DF91CF911F910F91D9
:10121000FF90EF90DF90CF90BF90AF9008951F9216
:101220000F920FB60F9211240BB60F922F933F938C
:101230004F935F936F937F938F939F93AF93BF93DE
:10124000EF93FF93E0911D0EF0911E0E1995FF9103
:10125000EF91BF91AF919F918F917F916F915F912E
:101260004F913F912F910F900BBE0F900FBE0F909B
:101270001F901895809178006091790040913B0E05
:1012800050913C0E2091390E30913A0E421753077F
:10129000B8F59091380E911105C090917A00906444
:1012A00090937A0090E0962B20917C0025FF13C04C
:1012B000E0913F0EF091400E20913B0E30913C0E9C
:1012C000A9014F5F5F4F50933C0E40933B0EE20FDE
:1012D000F31F90830895E0913D0EF0913E0E209112
:1012E0003B0E30913C0EA9014F5F5F4F50933C0E77
:1012F00040933B0E220F331FE20FF31F9183808335
:101300000895ECE7F0E090819F739083208130E4B2
:10131000839FC0011124282B2083089580917A0097
:10132000877090E00895E1E8F0E08081887F808315
:1013300008950E9493091092850010928400E1E8BC
:10134000F0E080819091220E892B8083089588237C
:1013500021F080917C00806203C080917C008F7DB1
:1013600080937C000895EBE7F0E09081987F908374
:101370009081982B9083089580917B0087700895C9
:101380008093380E882321F080917A00806203C018
:1013900080917A008F7D80937A000895CF92DF92BA
:1013A000EF92FF926B017C0180E1809381001092AB
:1013B0008000A701960160E074E284E799E40E944E
:1013C000B63720E030E040E051E40E948A390E94C4
:1013D00023386115710521E08207910528F421E089
:1013E0002093220ECB014CC06115710528E08207C5
:1013F000910568F422E02093220EDC01CB0123E06A
:10140000B695A795979587952A95D1F739C0611517
:10141000710520E48207910568F423E02093220EF1
:10142000DC01CB01F6E0B695A79597958795FA95DF
:10143000D1F726C061157105810521E0920740F4BE
:1014400024E02093220EBB27A92F982F872F18C0A6
:1014500061157105810524E0920768F425E0209369
:10146000220EDC01CB015AE0B695A795979587959A
:101470005A95D1F705C085E08093220E8FEF9FEF3C
:10148000909387008093860081E080936F0086E0D0
:101490000E94B30981E00E94C009C0922B0ED09235
:1014A0002C0EE0922D0EF0922E0EFF90EF90DF901A
:1014B000CF9008958093350E90917C00907F90930B
:1014C0007C0020917C00982F9770922B90937C0049
:1014D000883020F080917B00886003C080917B0081
:1014E000877F80937B00089591E09093340E109253
:1014F000370E1092360E1092330E2AE339E03093F5
:10150000320E2093310E0C945A0A8091330E8F5F65
:101510008093330E9091340E891302C01092330ED3
:101520008091330EE091360EF091370EE80FF11DE9
:1015300080810E945A0A0C943A09CF93C091330ECD
:101540009091340E9230A0F081E08C0F891719F041
:101550008093330E02C01092330E8091330EE091CF
:10156000360EF091370EE80FF11D80810E945A0A65
:10157000609178008091790040913B0E50913C0E33
:101580002091390E30913A0E4217530700F5909191
:10159000380E911105C090917A00906490937A0072
:1015A00070E0782B80917C0085FF02C0672F772741
:1015B000E0912F0EF091300E8C2F199580913B0EFB
:1015C00090913C0E019690933C0E80933B0ECF91F0
:1015D0000895CF93DF93D0917C00C0917B008091E0
:1015E0007C00807E80937C0080917C008E61809363
:1015F0007C0080917B00877F80937B0063E070E0BC
:1016000080E090E00E94732E80917A008064809345
:101610007A0080917A0086FDFCCF609178008091FD
:101620007900D0937C00C0937B0070E0782B8827F2
:1016300077FD8095982F0E9451389B01AC0160E0A6
:1016400070E889E894E40E94B637DF91CF9108955D
:101650001F920F920FB60F9211240BB60F922F9379
:101660003F934F935F936F937F938F939F93AF932A
:10167000BF93EF93FF93E091310EF091320E1995E5
:10168000FF91EF91BF91AF919F918F917F916F915A
:101690005F914F913F912F910F900BBE0F900FBE16
:1016A0000F901F9018951F920F920FB60F92112452
:1016B0000F900FBE0F901F90189581E00C94810938
:1016C00084E294E0089580E294E0089589E094E053
:1016D00008958FEE93E0089584EE93E0089581EBF2
:1016E00093E0089584E492E0089561E088E00C942A
:1016F000EB2CDC01ED91FC910190F081E02D19942F
:10170000CF93DF93EC0161E00E94481989E993E0EF
:1017100099838883CE5AD74F18821982DF91CF914F
:10172000089529E933E0FC01318320830C94CA1920
:101730001F93CF93DF931F921F92CDB7DEB7162F63
:1017400060E0812F2A8349830E94EB2C49814EBDA2
:101750002A810DB407FEFDCF8EB52EBD0DB407FE58
:10176000FDCF8EB561E0812F0F900F90DF91CF916B
:101770001F910C94EB2C643040F4242F2095462FBD
:1017800065E30E94980B80E0089585E00895AF928C
:10179000BF92CF92DF92EF92FF920F931F93CF935E
:1017A000DF931F921F92CDB7DEB78C01D12C7C0145
:1017B0008BEBE81A87EFF80A5801E6E9AE1AE7EF73
:1017C000BE0A2D2D30E0F801EC5AF74F808191814F
:1017D00068E270E00E946A3B26173707E0F588E070
:1017E000C82EC982F7012081318180E090E040E07D
:1017F000B801620F731FE42FF0E0DB01A80FB91FDF
:10180000A259BF4F41E050E0AC91AA2311F040E053
:1018100050E0082E02C0440F551F0A94E2F74E0F05
:101820005F1F01968830910531F74A83285F3F4F4B
:10183000F70131832083F50160816D0D22E0AE0157
:101840004F5F5F4FC8010E94EF21C394FDE0CF12AC
:10185000C8CFD394B6CF0F900F90DF91CF911F9147
:101860000F91FF90EF90DF90CF90BF90AF900895D1
:101870008F929F92AF92BF92CF92DF92EF92FF92A0
:10188000CF93DF93EC016A017B01FC01E15AF74F32
:1018900080809180A280B38020E030E0A901C70160
:1018A000B6010E94B23787FD45C0FE01E255F74FF1
:1018B0002081318142815381C701B6010E944139A3
:1018C0001816C4F1A5019401C701B6010E94B637EC
:1018D0009B01AC010E943B3723EF34E045EB5FE313
:1018E0000E948A3920E030E040E85EE30E948A39B5
:1018F00020E030E04FE753E40E948A394B015C015D
:1019000020E030E04FE753E40E944139181694F08C
:10191000FE01E95AF74FC082D182E282F382C5010B
:10192000B4010E942338462F63E0CE010E94BB0B16
:1019300080E001C088E0DF91CF91FF90EF90DF90D1
:10194000CF90BF90AF909F908F900895FC01E15A87
:10195000F74F4083518362837383FC01E95AF74F49
:10196000408151816281738120E00C94380C5F9238
:101970006F927F928F929F92AF92BF92CF92DF929F
:10198000EF92FF920F931F93CF93DF931F921F92BB
:10199000CDB7DEB76C01CB01542E68E270E00E9437
:1019A0006A3B7B014C015C0193E0B694A7949A9545
:1019B000E1F73B01772486010659174FF801808132
:1019C000B301680F711D8DE59DE00E94F304B50120
:1019D000685F7F4F8DE59DE00E94790B8DE59DE06E
:1019E0000E940805F8018081B301680F711D41E074
:1019F00050E08DE59DE00E94E6048DE59DE00E94AB
:101A00003504892B41F1F82DF7708F2E88E08A0D6F
:101A100089838DE59DE00E943D0441E050E060E057
:101A200070E004C0440F551F661F771F8A94D2F7D9
:101A3000511002C0482B02C0409548234A83F80148
:101A400060816E0D22E0AE014F5F5F4FC6010E94C4
:101A5000EF2180E001C081E00F900F90DF91CF91E6
:101A60001F910F91FF90EF90DF90CF90BF90AF90BC
:101A70009F908F907F906F905F900895EF92FF926C
:101A80000F931F93CF93DF938C017C018CE9E81AAD
:101A900087EFF80AC4E6D0E0F70141917F01BE016B
:101AA000C8010E9443192196C23BD105A9F760E005
:101AB000C801DF91CF911F910F91FF90EF900C948F
:101AC000610D9F92AF92BF92CF92DF92EF92FF9201
:101AD0000F931F93CF93DF93EC01962E7C012CE99B
:101AE000E21A27EFF20A04E610E05701E881F981D3
:101AF0000088F189E02DB801CE011995F701819395
:101B00007F010F5F1F4F023B110581F7F5018081B7
:101B100091819E012A59374F6901FE01E859F74F1B
:101B20007F018E010356174F892BF1F4F901808153
:101B30009181892BC9F4F70180819181892BA1F4CE
:101B4000FE01E15AF74F80819181A281B381F801B2
:101B500080839183A283B38381E090E0F701918336
:101B60008083CE010E943E0DF50180819181892BF9
:101B7000B9F4F60180819181892B91F4F70180817C
:101B80009181019769F480E2FE01E659F74F808365
:101B900082E090E0F70191838083CE010E943E0DA8
:101BA000F50180819181892BE9F4F6018081918191
:101BB000892BC1F4F70180819181029799F480E02B
:101BC00090E0A0EAB0E4FE01EF55F74F80839183E7
:101BD000A283B38383E090E0F70191838083CE01F9
:101BE0000E943E0DF50180819181892BB1F4F601AF
:101BF00080819181892B89F4F701808191810397FC
:101C000061F4FE01EB55F74F108284E090E0F7019C
:101C100091838083CE010E943E0DF50180819181E8
:101C2000892B99F5F60180819181892B71F5F70156
:101C300080819181049749F580E090E0A8ECB2E4BE
:101C4000FE01EA55F74F80839183A283B38380E03E
:101C500090E4ACE9B6E4FE01E655F74F808391834A
:101C6000A283B38380E090E0A8E4B3E4FE01E255F0
:101C7000F74F80839183A283B38385E090E0F701DF
:101C800091838083CE010E943E0DF5018081918178
:101C9000892B69F4F60180819181892B41F4F70148
:101CA00080819181059719F4992009F4C9C0F50143
:101CB00011821082F6011182108285E090E0F70116
:101CC000918380838CE7FE01E459F74F808380E79E
:101CD000FE01E559F74F808380E09CE7A2E9B8E474
:101CE000FE01E359F74F80839183A283B38380E0A1
:101CF00092E2A1EAB8E4FE01EF58F74F80839183A6
:101D0000A283B38380E090E0AAE7B4E4FE01E35845
:101D1000F74F80839183A283B38380E090E4ACE1AA
:101D2000B6E4FE01EF57F74F80839183A283B3831C
:101D300080E090E5A3ECB7E4FE01EB57F74F80831A
:101D40009183A283B38380E094E2A4E7B9E4FE0127
:101D5000E757F74F80839183A283B383FE01EB584B
:101D6000F74F1082118212821382FE01E758F74F5B
:101D700010821182128213824FEF56EE6BE57EE2E3
:101D8000FE01E357F74F4083518362837383FE0163
:101D9000EF56F74F4083518362837383FE01EB5606
:101DA000F74F4083518362837383FE01E756F74FF9
:101DB0004083518362837383FE01E15AF74F808130
:101DC0009181A281B381F80180839183A283B3833F
:101DD00080E2FE01E659F74F808380E090E0A0EAC0
:101DE000B0E4FE01EF55F74F80839183A283B38364
:101DF000FE01EB55F74F108280E090E0A8ECB2E4D2
:101E0000FE01EA55F74F80839183A283B38380E07C
:101E100090E4ACE9B6E4FE01E655F74F8083918388
:101E2000A283B38380E090E0A8E4B3E4FE01E2552E
:101E3000F74F80839183A283B383CE010E943E0D2E
:101E4000F801C080D180E280F38020E030E0A90179
:101E5000C701B6010E94B237FE01ED59F74F1816BF
:101E60001CF081E0808307C0C15AD74FC882D98255
:101E7000EA82FB821082DF91CF911F910F91FF9038
:101E8000EF90DF90CF90BF90AF909F9008952F92EA
:101E90003F924F925F926F927F928F929F92AF92FA
:101EA000BF92CF92DF92EF92FF920F931F93CF9347
:101EB000DF93CDB7DEB769970FB6F894DEBF0FBEDC
:101EC000CDBF8C010E94B31861E085E30E94B22C63
:101ED00061E089E00E94B22C61E088E00E94B22CAF
:101EE00060E088E00E94EB2C64EF71E080E090E01D
:101EF0000E94732ED801ED91FC910680F781E02DB0
:101F0000C8011995BC018BEE9EE00E94CD336AE4B6
:101F100072E08BEE9EE00E94CD33D801ED91FC91F2
:101F20000484F585E02DC8011995BC018BEE9EE077
:101F30000E94EA336DE472E08BEE9EE00E94CD33A6
:101F4000D801ED91FC910284F385E02DC80119952B
:101F5000BC018BEE9EE00E94EA33C8010E94001B88
:101F600060E089E00E94EB2CF801E15AF74F80E035
:101F700090E0A8ECB2E480839183A283B38360E015
:101F8000C8010E94610D60E672E08BEE9EE00E9447
:101F9000CD337801BCE9EB1AB7EFFB0AF70160819A
:101FA00071814AE050E08BEE9EE00E94EA3463E9E2
:101FB00073E08BEE9EE00E94CD33F801EA59F74FB3
:101FC000608171814AE050E08BEE9EE00E94EA342D
:101FD00063E973E08BEE9EE00E94CD33F801E8598F
:101FE000F74F608171814AE050E08BEE9EE00E94E5
:101FF000F03467E772E08BEE9EE00E94CD33C801BB
:102000008559974F9F8B8E8B4AE050E0DC016C9195
:102010008BEE9EE00E94D33467E872E08BEE9EE088
:102020000E94CD33F801E459F74FF98FE88F4AE069
:1020300050E060818BEE9EE00E94D334B12CA12C45
:1020400091E0B91202C084E001C082E0A81608F055
:10205000B9C04AE06A2DCE0101960E94A2364AE03C
:102060006B2DCE010F960E94A2366DE872E0CE0174
:1020700008960E947336BE01615F7F4FCE010896BD
:102080000E94FC366FE872E00E940F37BE016F5F5E
:102090007F4F0E94FC3663EA72E00E940F37BC015A
:1020A0008BEE9EE00E949833CE0108960E94053682
:1020B000CE010F960E940536CE0101960E9405368C
:1020C000CA2CD12CF1E0BF1661F0F601EE0FFF1F14
:1020D000EE0FFF1FEE0DFF1D418552856385748550
:1020E0000BC0F601EE0FFF1FEE0FFF1FEE0DFF1DE1
:1020F000418D528D638D748D22E030E08BEE9EE039
:102100000E94F3354AE06A2DCE0101960E94A23664
:102110004AE06B2DCE010F960E94A2366DE872E068
:10212000CE0108960E947336BE01615F7F4FCE01DB
:1021300008960E94FC3666EA72E00E940F37BE01E4
:102140006F5F7F4F0E94FC3663EA72E00E940F3798
:10215000BC018BEE9EE00E949833CE0108960E944F
:102160000536CE010F960E940536CE0101960E94DB
:10217000053681E0F601EE0FFF1FEE0FFF1FEE0D9B
:10218000FF1DB81629F0618972898389948904C07A
:1021900061A572A583A594A525EA34ED48E653E52B
:1021A0000E948A39AB01BC0122E030E08BEE9EE058
:1021B0000E94F1356BEB72E08BEE9EE00E94EA33F9
:1021C000A3943ECFB394A2E0BA1239CF6FEB72E082
:1021D0008BEE9EE00E94CD336801B6E9CB1AB7EFD3
:1021E000DB0A4AE050E0F60160818BEE9EE00E943F
:1021F000D33464E173E08BEE9EE00E94CD33F801AE
:10220000E356F74F408151816281738122E030E0D3
:102210008BEE9EE00E94F3356CED72E08BEE9EE05B
:102220000E94CD33F801EF55F74F40815181628113
:10223000738122E030E08BEE9EE00E94F3356FEE7A
:1022400072E08BEE9EE00E94CD332801FBE54F1A31
:10225000F7EF5F0AD2016C9170E04AE050E08BEE3C
:102260009EE00E94A73468E073E08BEE9EE00E943F
:10227000CD33F801ED59F74F608170E04AE050E04E
:102280008BEE9EE00E94A73464E273E08BEE9EE04A
:102290000E94CD33F801EA55F74F408151816281A8
:1022A000738122E030E08BEE9EE00E94F3356CE318
:1022B00073E08BEE9EE00E94CD33F801E655F74FB8
:1022C000408151816281738122E030E08BEE9EE09B
:1022D0000E94F33564E573E08BEE9EE00E94CD33FF
:1022E000F801E255F74F408151816281738122E00C
:1022F00030E08BEE9EE00E94F3354801BCEA8B1A79
:10230000B7EF9B0AF4011182108238E2A32EB12CA0
:10231000E12CF12C36013E2CF8E1F9838FEF8A8312
:10232000D6016C916E0D22E0AE014F5F5F4FC80188
:102330000E94EF21F60160816E0D21E0AE014F5F3A
:102340005F4FC8010E94551C89818F3F09F04CC026
:1023500028E1222E29821A82D3016C91630D22E09A
:10236000AE014F5F5F4FC8010E94EF21F301608112
:10237000630D21E0AE014F5F5F4FC8010E94551C05
:102380008981811131C080EF820D8983FFEFFA834B
:10239000D3016C91630D22E0AE014F5F5F4FC80126
:1023A0000E94EF212394BDE12B12D4CF6FE773E09D
:1023B0008BEE9EE00E94CD334AE050E0B7018BEEF9
:1023C0009EE00E949F3469E873E08BEE9EE00E94DD
:1023D000EA33D4012D913C91C5018897281739071C
:1023E00019F4F401B182A082FFEFEF1AFF0A88E22C
:1023F000A80EB11C98E0E916F10409F08CCFD401C5
:102400006D917C914AE050E08BEE9EE00E94EA34B0
:102410006AE673E08BEE9EE00E94EA33E88DF98D68
:10242000408161E0C8010E94BB0BAE89BF894C911D
:1024300062E0C8010E94BB0B40E063E0C8010E945B
:10244000BB0BF2018081882311F042E001C041E022
:1024500060E0C8010E94E52269960FB6F894DEBFDD
:102460000FBECDBFDF91CF911F910F91FF90EF90E5
:10247000DF90CF90BF90AF909F908F907F906F90A4
:102480005F904F903F902F9008952F923F924F92E0
:102490005F926F927F928F929F92AF92BF92CF92F4
:1024A000DF92EF92FF920F931F93CF93DF93CDB7FD
:1024B000DEB760970FB6F894DEBF0FBECDBF1C012C
:1024C000B62E862F90E0FC01E05AF10991012459C3
:1024D0003F4F3E832D83E635F10508F0FCC5EE58ED
:1024E000FF4F0C94A03BF101E05CF74F808191819C
:1024F000892B89F442E050E0B1016C5A774FC10159
:102500000E94D019E5C5F101E05CF74F808191810F
:10251000029709F48EC086E01AC4F101E05CF74F1F
:1025200080819181892BB9F7AD81BE811C92A12C4C
:1025300091012C5A374F38872F8308E2802E912C37
:10254000610136E9C31A37EFD30A4A2C512CAF8107
:10255000B8858D919C91B4010E946A3B461657063E
:1025600008F0B9C508E010E0D6018C91B201680FFF
:10257000711D8DE59DE00E94F304B8018DE59DE09D
:102580000E94790B8DE59DE00E940805F60180818F
:10259000B201680F711D41E050E08DE59DE00E94A1
:1025A000E6048DE59DE00E943504892B51F18DE50F
:1025B0009DE00E943D047C01612C712CFF24C70129
:1025C000062C02C0959587950A94E2F781709927A9
:1025D000F1E08F27898341E050E0BE016F5F7F4FBC
:1025E000C1010E94D0192FEF621A720A38E06316F7
:1025F000710429F70F5F1F4F0D30110509F0B4CF9B
:1026000004C0E1E0AD81BE81EC93A3949ECFF101C3
:10261000E05CF74F20813181F101EC5AF74F808166
:1026200091812817390709F076CFC1010E94C70BA5
:10263000DEC3D101AB5BB74F2D913C911197F901EE
:10264000E259FF4FE20DF31D808191812E5F3F4FD4
:102650002D933C93F101EC5AF74F20813181821781
:10266000930708F022C368E270E00E946A3B8C0185
:102670006B01DD247101B6E9EB1AB7EFFB0AF70134
:102680008081B601680F711D8DE59DE00E94F30405
:10269000B80113E0769567951A95E1F7685F7F4F6B
:1026A0008DE59DE00E94790B8DE59DE00E94080577
:1026B000D7018C91B601680F711D41E050E08DE5A6
:1026C0009DE00E94E6048DE59DE00E943504892B83
:1026D00009F44BC48DE59DE00E943D0499270770E5
:1026E00002C0959587950A95E2F781709927B1E028
:1026F0008B27898341E050E0BE016F5F7F4FC101AE
:102700000E94D01974C3F101E05CF74F8081918180
:10271000039709F000CFD101AB5BB74F8D919C912E
:102720001197FC01E259FF4FE20DF31D60817181A9
:10273000F101E80FF91FE059FF4F408103968D9397
:102740009C93F101EC5AF74F8081918168177907CA
:1027500008F0ABC2C1010E94B70CF9C2F101E05C04
:10276000F74F80819181892B09F0D5CEED81FE81D3
:10277000108289E00E94212D26C4F101E05CF74F10
:1027800080819181019709F0C6CEF101EB5BF74F93
:1027900080819181D101A80FB91FA259BF4F6C91BF
:1027A000019691838083623008F0D0C289E08EC4A4
:1027B000F101E05CF74F80819181892B09F0ABCE6C
:1027C000AD81BE811C9244E050E0B101695A774F5F
:1027D00000C4F101E05CF74F80819181049709F01A
:1027E0009ACED101AB5BB74F8D919C911197FC01B3
:1027F000E259FF4FE20DF31D4081518162817381E7
:1028000004968D939C9321E0C1010E94380C9FC2D5
:10281000F101E05CF74F80819181892B09F07BCE3B
:10282000AD81BE811C9244E050E0B101655A774F02
:10283000D0C3F101E05CF74F80819181049709F0EA
:102840006ACED101AB5BB74F8D919C911197FC0182
:10285000E259FF4FE20DF31DC080D180E280F3808A
:1028600004968D939C93F101EA55F74F20813181B5
:1028700042815381C701B6010E94413987FD29C0B9
:10288000F101E655F74F2081318142815381C70123
:10289000B6010E94B2371816E4F020E030E048E4B8
:1028A00052E4C701B6010E948A392B013C0120E0A5
:1028B00030E04AE754E40E94B23787FD0AC020E2C4
:1028C00033EB41E85CE4C301B2010E9441391816C0
:1028D0002CF488E0ED81FE81808377C020E030EE2B
:1028E00041E854E4C301B2010E94B6370E944A395C
:1028F00026EA3BE944E550E40E948A392EE83DE5AA
:1029000043E150E40E94B6370E942338162F70E04E
:10291000665F7F4F882777FD8095982F0E945138FA
:102920009B01AC0160E070E080E090E40E94ED3932
:1029300020E030EE41E055E40E948A39A301920183
:102940000E94B6379B01AC0160E070E080E095E446
:102950000E943A372B013C0120E030E0A9010E949F
:10296000413920E030E040E05FE387FD05C0C3016E
:10297000B2010E943B3704C0C301B2010E943A3742
:102980000E941E384B01CB01B6E096958795BA950B
:10299000E1F71295107F182B67E18DE59DE00E940D
:1029A000E904612F8DE59DE00E948D04682D660F7E
:1029B000660F62608DE59DE00E948D048DE59DE0CF
:1029C0000E940805AD81BE811C92ED81FE8180814F
:1029D000811181C3F101E55AF74FC082D182E282B1
:1029E000F38279C3F101E05CF74F80819181019717
:1029F00009F091CDD101AB5BB74F8D919C911197AF
:102A0000F101E80FF91FE259FF4FE08101968D9324
:102A10009C93E23020F52BE1E29FF0011124EF5B63
:102A2000F14F81818983AD81BE811C92CDC2F101BC
:102A3000E05CF74F80819181019709F06CCDF10145
:102A4000EB5BF74F80819181D101A80FB91FA2598B
:102A5000BF4F2C91019691838083223008F185E04D
:102A600076C1F101E05CF74F80819181029709F016
:102A700052CDF101EB5BF74F20813181A101420F73
:102A8000531FDA01A259BF4F8C91DA01A159BF4FF0
:102A90006C912E5F3F4F318320830E94A1223CC363
:102AA000ED81FE8110823BE1239FF0011124EF5B59
:102AB000F14FE181C1018C59974FF0E0EE0FFF1FFC
:102AC000EE0FFF1FE80FF91F213029F08185928555
:102AD000A385B4858EC0818D928DA38DB48D89C060
:102AE000F101E05CF74F80819181059709F013CDEA
:102AF000F101EB5BF74F20813181D101A20FB31FB0
:102B0000A259BF4F4C91C901019691838083AD8139
:102B1000BE811C924423E1F0413009F0C6C04091CF
:102B20005D0ED901A159BF4FA20DB31D8D919D918D
:102B30000D90BC91A02D2B5F3F4F31832083F1017D
:102B400034E0439FE00DF11D1124E358F74FA5C079
:102B50004091420ED901A159BF4FA20DB31D8D91D5
:102B60009D910D90BC91A02D2B5F3F4F3183208311
:102B7000F10124E0429FE00DF11D1124E359F74FCC
:102B80008CC0F101E05CF74F80819181019709F0E1
:102B9000C2CCF101EB5BF74F80819181D101A80F8D
:102BA000B91FA259BF4F2C91019691838083223087
:102BB00008F055CFED81FE8110823BE1239FF001AB
:102BC0001124EF5BF14FE181C1018C59974FF0E087
:102BD000EE0FFF1FEE0FFF1FE80FF91F213029F046
:102BE00081899289A389B48904C081A592A5A3A5EE
:102BF000B4A589839A83AB83BC83B4C1F101E05C43
:102C0000F74F80819181059709F085CCF101EB5B4D
:102C1000F74F20813181D101A20FB31FA259BF4FBD
:102C20004C91C901019691838083AD81BE811C9234
:102C30004423D9F04130C9F540915D0ED901A15925
:102C4000BF4FA20DB31D8D919D910D90BC91A02DF4
:102C50002B5F3F4F31832083F10134E0439FE00D30
:102C6000F11D1124E357F74F18C04091420ED901CE
:102C7000A159BF4FA20DB31D8D919D910D90BC9197
:102C8000A02D2B5F3F4F31832083F10124E0429F31
:102C9000E00DF11D1124EB58F74F80839183A2833F
:102CA000B383C1010E943E0D16C285E035C2F10119
:102CB000E05CF74F80819181892B09F02CCCED816C
:102CC000FE81108244E050E0B101615A774F81C12A
:102CD000F101E05CF74F80819181049709F01BCCF2
:102CE000D101AB5BB74F8D919C911197FC01E259DB
:102CF000FF4FE20DF31DC080D180E280F380049687
:102D00008D939C9320E030E0A901C701B6010E9499
:102D100041391816DCF4F101ED59F74F8081882311
:102D200041F0F101E15AF74FC082D182E282F38291
:102D3000CFC1D101A356B74FCD92DD92ED92FC9257
:102D400013971082C1010E943E0DC2C188E0ED813F
:102D5000FE818083C0C1F101E05CF74F80819181E9
:102D6000892B09F0D8CBAD81BE811C9211E020E007
:102D700030E0A901F101E356F74F60817181828152
:102D800093810E94B23718160CF410E019831CC10D
:102D9000F101E05CF74F80819181019709F0BBCB95
:102DA000F101EB5BF74F80819181D101A80FB91F31
:102DB000A259BF4F2C91019691838083F101E35674
:102DC000F74F222329F010821182128213820CC045
:102DD000D101A15AB74F8D919D910D90BC91A02D1D
:102DE00080839183A283B383C1010E943E0DED8154
:102DF000FE81108270C1F101E05CF74F008111810A
:102E00000A30110508F487CBF101EB5BF74F8081A5
:102E10009181DC01A259BF4FA20DB31D4D905D9071
:102E20006D907C909C012C5F3F4F31832083DC01AF
:102E3000AE58BF4FA20DB31D2D913C9138872F8303
:102E4000DC01AC58BF4FA20DB31D2D913D914D91AA
:102E50005C912D873E874F87588BD101A80FB91FF2
:102E6000A858BF4FFC900B96918380830B301105BF
:102E700051F0F101EC5AF74F808191810B960817C0
:102E8000190709F048C12F8138852D34314008F0E9
:102E90006CC020E030E04AE754E4C301B2010E9474
:102EA000B63720E030E44CE157E40E948A3920E054
:102EB00030E040E855E40E94B23787FF56C0AD814C
:102EC000BE811C92F101EC5AF74F808191810B96E3
:102ED0000817190719F4C1010E94C70B0E94502E50
:102EE00069877A878B879C8788248394F1FE812C5D
:102EF000AA24A394F0FEA12CF101E55AF74FC0805B
:102F0000D180E280F3800D851E852F8538894F8121
:102F10005885C301B2010E9467270E94502E29855F
:102F20003A854B855C85621B730B840B950B0E9465
:102F30004F386B017C014F815885BA0180E090E0E9
:102F40000E944F3820E030E04AE754E40E948A397A
:102F50009B01AC01C701B6010E94B63769837A8331
:102F60008B839C8344E050E031C081E0D5C0F10107
:102F7000E05CF74F80819181892B09F0CCCAED810B
:102F8000FE81108261E0C1010E94610DA4C0F101C7
:102F9000E05CF74F80819181892B09F0BCCAAD813B
:102FA000BE811C9288E00FC0F101E05CF74F808188
:102FB0009181892B09F0AFCAED81FE811082F10168
:102FC000EE5AF74F8081898341E050E0BE016F5F88
:102FD0007F4FC1010E94D0197EC0F101E05CF74F24
:102FE00080819181019709F096CAF101EB5BF74F5F
:102FF00080819181D101A80FB91FA259BF4F2C9197
:10300000019691838083F101EE5AF74F28C0F101B8
:10301000E05CF74F80819181892B09F07CCAED81BA
:10302000FE811082F101ED5AF74FCCCFF101E05C47
:10303000F74F80819181019709F06DCAF101EB5B37
:10304000F74F80819181D101A80FB91FA259BF4FBD
:103050002C91019691838083F101ED5AF74F222341
:1030600019F081E0808334C0108232C0F101E05C4D
:10307000F74F80819181892B09F04DCAED81FE8146
:10308000108288E00E94212D21E0892B09F020E0A8
:1030900029839ACFF101E05CF74F808191810197FC
:1030A00009F039CAF101EB5BF74F80819181D101C1
:1030B000A80FB91FA259BF4F2C910196918380830D
:1030C000222311F060E001C061E088E00E94EB2C57
:1030D000AD81BE811C926B2DC1010E947C1CED81D3
:1030E000FE81808160960FB6F894DEBF0FBECDBF23
:1030F000DF91CF911F910F91FF90EF90DF90CF90D4
:10310000BF90AF909F908F907F906F905F904F9007
:103110003F902F90089586E0AD81BE818C93DBCFE8
:10312000CF93DF93EC010E94431960E0CE01DF9161
:10313000CF910C94610D8627682F62956827062E23
:10314000669566956025062E669560256770082E43
:10315000892F669507946795902D86270694679525
:10316000902586270895CF92DF92EF92FF920F93DA
:103170001F93CF93DF9300D01F92CDB7DEB78C01A2
:10318000CE0101966C019FE0E92EF12CD801ED9162
:10319000FC910088F189E02DB701C8011995F6016D
:1031A00081936F01FFEFEF1AFF0A23E1E216F104AA
:1031B00069F789819A81AB81BC818F3F9F4FAF4F67
:1031C000BF4FD9F149815A816B817C818BEE9EE0A2
:1031D0000E94A3318DE59DE00E94CC040E9403046F
:1031E0000E94E90A08591F4FD8016D937D938D9372
:1031F0009C93139769E374E08BEE9EE00E94CD33BD
:10320000F801408151816281738122E030E08BEED0
:103210009EE00E94F1356BE474E08BEE9EE00F902F
:103220000F900F900F90DF91CF911F910F91FF9012
:10323000EF90DF90CF900C94EA3340E052EC61E0E5
:1032400070E049835A836B837C83CE0101966C01C5
:103250008FE0E82EF12CD6014D916D01D801ED9152
:10326000FC910288F389E02DB701C8011995BFEFE1
:10327000EB1AFB0AE3E1EE16F10469F7A3CF8CE544
:103280009DE00C94FC038CE59DE00C94FF030895F5
:103290008F929F92AF92BF92CF92DF92EF92FF9266
:1032A0000F931F93CF93DF932DE634E0FC0131831E
:1032B0002083E45BF74F6083FC01ED5BF74F1182E5
:1032C0001082FC01E75BF74F1082FC01E05CF74FD6
:1032D00011821082FC01EB5BF74F11821082FC011E
:1032E000E95BF74F11821082FC01EF5AF74F108211
:1032F000E12CF12C00E010E0B8018CE59DE00E948B
:10330000FC03A82EB801695F7F4F8CE59DE00E9409
:10331000FC038E2CC0E0D0E0B12CA094B094C82E59
:10332000D12CC094D094CE018E0D9F1DC697C4F4AD
:10333000B5010C2E02C0759567950A94E2F761708D
:103340009C2E980C892D0E94B22CB6010C2E02C026
:10335000759567950A94E2F76170892D0E94EB2CB0
:103360002196C830D105F9F60F5F1F4FE8E0EE0E49
:10337000F11C0730110509F0BFCFDF91CF911F91EC
:103380000F91FF90EF90DF90CF90BF90AF909F9004
:103390008F9008952DE634E0FC0131832083089559
:1033A0001F93CF93DF93FB0120E030E0DC01A95BAA
:1033B000B74F2417350781F01191BC01620F731FBD
:1033C000CD91DC9111976C0F7D1FEB01C259DF4F3E
:1033D00018832F5F3F4FEDCF8D919C911197820FF6
:1033E000931F8D939C93DF91CF911F910895CF935D
:1033F000DF93FC01E359FF4F6081DC01A459BF4F0B
:1034000067FF0EC020E8260F208322E02C93DC010A
:10341000ED91FC910488F589E02DDF91CF9119940D
:10342000FC01E05CF74F2081318121503109820F8E
:10343000931FEC01C259DF4F88818C933183208325
:10344000DF91CF9108956F927F928F929F92AF926A
:10345000BF92CF92DF92EF92FF920F931F93CF9381
:10346000DF93EC019C01275B374F59016D3721F445
:1034700081E0F9018083B5C0F90180819E012D5B57
:10348000374F7901882309F4A5C080E26827F70146
:10349000808191819E01245B374F4901FE01EE5BE3
:1034A000F74F6F018E01005C174F009771F4FE011A
:1034B000E359FF4F6083F90180818823B9F18FEFD1
:1034C0009FEFFE01E15BF74F1EC08130910581F453
:1034D00067FF08C083E08083862F8F77F801108212
:1034E000818324C082E08083862F90E0F8010BC0A6
:1034F0008230910559F42081233041F4F801808114
:103500009181860F911D9183808310C0F6012081E7
:10351000821B9109F801208131818217930730F4D1
:103520008C0F9D1FFC01E259FF4F6083F4018081E5
:10353000882369F03E01F1EB6F1AF7EF7F0AF30180
:10354000808191810E949B18F30191838083F70110
:10355000208131812F5F3F4F31832083F4014081EF
:10356000F6015081F80180819181850F911D840FB2
:10357000911D840F911D2817390731F5F70111822C
:103580001082FE01EB5BF74F11821082FE01E95BB6
:10359000F74F11821082442339F0FE01E15BF74FAF
:1035A00080819181892B19F4CE010E94F719FE01C7
:1035B000E55BF74F8081882339F0C359DF4F80588E
:1035C0009881981301C01082F5018081882349F009
:1035D000108207C06E3709F05ACFF70111821082AE
:1035E000F3CFDF91CF911F910F91FF90EF90DF907C
:1035F000CF90BF90AF909F908F907F906F900895E5
:10360000CF93C8E06C2F8DE59DE00E94E9048DE525
:103610009DE00E940805811126C06EE474E08BEEE7
:103620009EE00E94CD334AE050E06C2F8BEE9EE08E
:103630000E94CC3462E674E08BEE9EE00E94CD33B3
:1036400040E150E06C2F8BEE9EE00E94CC3467E6A8
:1036500074E08BEE9EE00E94EA3361E070E080E06F
:1036600090E00E94732ECF5FC83761F6CF91089526
:10367000CF93C62F83E8860F823090F46DE78BEEF0
:103680009EE00E94602FE091EB0EF091EC0E60E264
:103690006C270190F081E02D8BEE9EE0CF91199484
:1036A0008BEE9EE0CF910C94602F8F929F92AF9201
:1036B000BF92CF92DF92EF92FF920F931F93CF931F
:1036C000DF93EC018C017C0120ECE21A27EFF20A77
:1036D000845B974F6C015E0193EBA91A97EFB90ACF
:1036E000F7018081918198012C1B3D0BF601281771
:1036F0003907C8F48081980122593F4F4901882336
:1037000051F0F9016081F501808191810E949B183F
:10371000F50191838083F4016081CE010E94381B02
:103720000F5F1F4FDDCF8081882369F08E01035B1F
:10373000174FF8016081CE010E94381BF8016181AA
:10374000CE010E94381BF70111821082C95BD74F4E
:1037500019821882DF91CF911F910F91FF90EF9006
:10376000DF90CF90BF90AF909F908F900895BF92C1
:10377000CF92DF92EF92FF920F931F93CF93DF933D
:10378000EC01B62E8C01005C174FFC01E95BF74F92
:1037900080819181F801918380836EE78BEE9EE0BA
:1037A0000E94602F7E01F4EBEF1AF7EFFF0AF7019A
:1037B0008081882381F08FEF9FEF6E01F3EBCF1AAA
:1037C000F7EFDF0AF601918380836B2D0E949B182F
:1037D000F601918380836B2DCE010E94381BF80186
:1037E00060817181F70180816038710580F48823E0
:1037F00071F17E01F3EBEF1AF7EFFF0AF701808119
:1038000091810E949B18F7019183808320C08823B7
:10381000B1F07068672F7E01F3EBEF1AF7EFFF0A44
:10382000F701808191810E949B18F7019183808329
:10383000F80160810E949B18F70191838083F80151
:10384000808191819068692FCE010E94381BF80118
:103850006081CE01DF91CF911F910F91FF90EF908A
:10386000DF90CF90BF900C94381B0F931F93CF9392
:10387000DF931F92CDB7DEB78C01698341E050E042
:10388000BE016F5F7F4F0E94D019F801E359FF4FCF
:103890006081C8010E94B71BC8010E94551B0F9090
:1038A000DF91CF911F910F910895FF920F931F9376
:1038B000CF93DF938A01422F8DE59DE00E94E304C0
:1038C000C0E08DE59DE00E943504892B71F0FF2456
:1038D000F394FC0EC8018C0F911DEC018DE59DE069
:1038E0000E943D048883CF2DECCF8C2FDF91CF91A8
:1038F0001F910F91FF9008952F923F924F925F92E8
:103900006F927F928F929F92AF92BF92CF92DF92EF
:10391000EF92FF920F931F93CF93DF93CDB7DEB754
:1039200069970FB6F894DEBF0FBECDBF8C012DB6E0
:103930003EB6862F90E0FC01E058F109EE31F1052A
:1039400008F024C5E853FF4F9801205C374F7901F8
:103950000C94A03BD9018D919C91892BF1F4D80155
:10396000ED91FC910280F381E02DC8011995FC01D5
:1039700001900020E9F7AF0141505109481B590B54
:10398000D801ED91FC910280F381E02D27C0D9018F
:103990008D919C91029709F4B8C486E0F801E4592E
:1039A000FF4FE0C4F90180819181892BB1F7D801E3
:1039B000ED91FC910480F581E02DC8011995FC0181
:1039C00001900020E9F7AF0141505109481B590B04
:1039D000D801ED91FC910480F581E02DC801498F5B
:1039E000588F1995498D588DBC01C9C4F901808142
:1039F0009181892B91F6D801ED91FC910680F78198
:103A0000E02DC8011995FC0101900020E9F7AF01F4
:103A100041505109481B590BD801ED91FC9106808A
:103A2000F781E02DDBCFF90180819181892B09F0AD
:103A3000B4CFD801ED91FC910084F185E02DC8014F
:103A40001995FC0101900020E9F7AF01415051099F
:103A5000481B590BD801ED91FC910084F185E02DB4
:103A6000BDCFF90180819181892B09F096CFD801D2
:103A7000ED91FC910284F385E02DC8011995FC01BC
:103A800001900020E9F7AF0141505109481B590B43
:103A9000D801ED91FC910284F385E02D9FCFF901CF
:103AA00080819181892B09F078CFD801ED91FC912B
:103AB0000484F585E02DC8011995FC0101900020D2
:103AC000E9F7AF0141505109481B590BD801ED915D
:103AD000FC910484F585E02D81CFF90180819181ED
:103AE000892B09F05ACFD801ED91FC910684F78516
:103AF000E02DC8011995FC0101900020E9F7AF0104
:103B000041505109481B590BD801ED91FC91068495
:103B1000F785E02D63CFF90180819181892B09F030
:103B20003CCF4AE050E063E874E029C4D9018D91AC
:103B30009C91029709F031CFF801EB5BF74F2081A0
:103B40003181A801420F531FDA01A259BF4F8C9156
:103B5000DA01A159BF4F6C912E5F3F4F3183208313
:103B60000E94B22C0FC4F90180819181029709F063
:103B700014CFF801EB5BF74F20813181A801420F90
:103B8000531FDA01A259BF4F8C91DA01A159BF4FDF
:103B90006C912E5F3F4F318320830E94EB2CF2C348
:103BA000D9018D919C91019709F0F7CEF801EB5B5B
:103BB000F74F20813181D801A20FB31FA259BF4F07
:103BC0008C912F5F3F4F318320830E94212D49C369
:103BD000F90180819181029709F0DFCEF801EB5B5A
:103BE000F74F20813181D801A20FB31FA259BF4FD7
:103BF0008C91A9014F5F5F4F51834083D901A15937
:103C0000BF4FA00FB11F6D917C912D5F3F4F31834E
:103C100020830E944A2DB6C3C80184599F4F26E0D5
:103C2000DC012C93F701208131812230310508F429
:103C3000ADC38DB69EB6F801EB5BF74F4081518165
:103C4000D801A40FB51FA259BF4F6C914F5F5F4FB2
:103C500051834083462F50E0ADB7BEB7A41BB50BD0
:103C60000FB6F894BEBF0FBEADBF11966D012230E6
:103C7000310511F4613031F04D5F5F4F2417350786
:103C800009F0D3C07C2D56012A2D271B261788F456
:103C900020813181A801420F531F42595F4FDA0141
:103CA0004C912F5F3F4F31832083D5014D935D01B0
:103CB000EBCFD7012D913C9122303105B1F020811D
:103CC0003181D901A259BF4FA00FB11FAD90BC9057
:103CD0002E5F3F4F31832083B9EEAB16B3E0BB06B6
:103CE00038F029E0FC012083A0C0AA24A394B12CC1
:103CF000DC011C92B0923A0EA092390EC801825992
:103D00009F4F90933E0E80933D0E80E0688F0E94FF
:103D1000A709688D613029F4F60180810E94740A38
:103D200012C0D092370EC092360E6093340E1092AD
:103D3000330E85E89AE09093320E8093310ED601CF
:103D40008C910E945A0A10923C0E10923B0E809168
:103D5000380E0E94C0090E94502E6093230E70936B
:103D6000240E8093250E9093260E80917A00886C05
:103D700080937A000E94BC09863011F40E94990950
:103D80008091390E90913A0E20913B0E30913C0E6D
:103D900028173907C9F70E94502E2B013C0180914A
:103DA0007A00877D80937A000E94BC09863011F4E6
:103DB0000E9493096091390E70913A0E80E090E074
:103DC0000E944F3820E034E244E759E40E948A39E7
:103DD0006B017C018091230E9091240EA091250E01
:103DE000B091260EA3019201281B390B4A0B5B0BE5
:103DF000CA01B9010E944F389B01AC01C701B6014D
:103E00000E94B6376093270E7093280E8093290E78
:103E100090932A0EAA0CBB1CF801E95BF74F808136
:103E20009181A80EB91EB182A0820FB6F8949EBEF1
:103E30000FBE8DBEABC2D9018D919C91039709F045
:103E4000ACCDD801AB5BB74F8D919C911197FC0124
:103E5000E259FF4FE00FF11F60817181F801E80F17
:103E6000F91FE059FF4F408103968D939C93D80131
:103E7000ED91FC910288F389E02DC801199582C269
:103E8000F90180819181029709F087CDD801AB5B60
:103E9000B74F8D919C911197FC01E259FF4FE00FB4
:103EA000F11F6081718102968D939C93D801ED91F1
:103EB000FC910088F189E02DC8011995D2C1F90162
:103EC00080819181029709F068CDF801EB5BF74F93
:103ED000808191819801280F391FD901A259BF4FC4
:103EE0006C91D901A159BF4FEC90029691838083C8
:103EF000CE0101960E945408CE0101960E9442080C
:103F0000F12CBE01615F7F4FCE0101960E947708C0
:103F1000F394EF14B0F7980124593F4F79018823A7
:103F200009F41EC248E050E0BE01615F7F4FC80146
:103F30000E94D01912C2D9018D919C910B9709F062
:103F40002CCDD801AB5BB74F2D913C911197A801B7
:103F5000420F531FFA01E259FF4F60816901EFEFF1
:103F6000CE1ADE0A1196DC92CE924E01FFE08F0E41
:103F7000911C80E090E0B82CA92CC00ED11E7601D7
:103F8000E80EF91E7EE6E70EF11CF701F080F40161
:103F9000F1924F0101968830910589F7FA01E958AD
:103FA000FF4FF080FA01E858FF4FE080255F3F4F58
:103FB0002D933C93CE0101960E945408CE010196A8
:103FC0000E941E076B2D7A2DCE0101960E941A08C1
:103FD00040E06F2DCE0101960E94BB07F12CFE142C
:103FE00009F4D0C1CE0101960E94FD078F8B41E0FC
:103FF00050E0BE01695E7F4FC8010E94D019F39462
:10400000EECFD9018D919C910B9709F0C6CCD801C8
:10401000AB5BB74F2D913C911197A801420F531FF5
:10402000FA01E259FF4F60816901EFEFCE1ADE0A13
:104030001196DC92CE924E01FFE08F0E911C80E033
:1040400090E0B82CA92CC00ED11E7601E80EF91E06
:104050007EE6E70EF11CF701F080F401F1924F01CA
:1040600001968830910589F7FA01E958FF4FF080F1
:10407000FA01E858FF4F4081255F3F4F2D933C9355
:10408000CE010196498F0E945408CE0101960E94EC
:104090001E076B2D7A2DCE0101960E941A08498DBC
:1040A0006F2DCE0101960E94BB076CC1D9018D9185
:1040B0009C91029709F071CCF801EB5BF74F80817E
:1040C00091819801280F391FD901A259BF4F6C91D6
:1040D000D901A159BF4FEC900296918380834E2D58
:1040E0008DE59DE00E94E304F12C8DE59DE00E94AA
:1040F0003504892B79F08DE59DE00E943D0489838C
:1041000041E050E0BE016F5F7F4FC8010E94D019AF
:10411000F394EBCFF801E459FF4FFE1409F435C1D5
:1041200081E020C1F90180819181029708F435CCAA
:104130006801FBEBCF1AF7EFDF0AD6018D919C9156
:104140001197F801E80FF91FE259FF4F60810196BE
:104150008D939C938DE59DE00E94E904B12C2B2D5D
:1041600030E0F7018081918101972817390798F491
:10417000F60180819181F801E80FF91FE259FF4FA4
:1041800060810196D6018D939C938DE59DE00E9400
:104190008D04B394E4CF8DE59DE00E940805F2C044
:1041A000D9018D919C91019709F0F7CBF801EB5B58
:1041B000F74F20813181D801A20FB31FA259BF4F01
:1041C0008C912F5F3F4F318320830E941904DAC006
:1041D000F90180819181019709F0DFCBF801EB5B58
:1041E000F74F20813181D801A20FB31FA259BF4FD1
:1041F0008C912F5F3F4F318320830E942704C2C0E0
:10420000D9018D919C91019709F0C7CBF801EB5B27
:10421000F74F20813181D801A20FB31FA259BF4FA0
:104220008C912F5F3F4F318320830E942204AAC0CC
:10423000F90180819181019709F0AFCBF801EB5B27
:10424000F74F80819181D801A80FB91FA259BF4FA4
:104250002C910196918380832EBD0DB407FEFDCF76
:104260008EB5898341E050E04CC0D9018D919C917D
:10427000892B09F092CBF801EA59FF4F4081518117
:10428000B8016E5F7F4F7BC0F90180819181892BDE
:1042900009F083CB80912B0E90912C0EA0912D0EC6
:1042A000B0912E0E89839A83AB83BC8344E050E0A7
:1042B00028C0D9018D919C91049709F06ECBD8014B
:1042C000AB5BB74F2D913C911197F901E259FF4F2C
:1042D000E00FF11F60817181828193812C5F3F4FDC
:1042E0002D933C930E94CE094DC0F90180819181AC
:1042F000892B09F052CB0E948E099A83898342E070
:1043000050E0BE016F5F7F4F3AC0D801AB5BB74F43
:104310002D913C911197F901E259FF4FE00FF11FE8
:10432000808191812E5F3F4F2D933C939C012250C1
:104330003109F801E459FF4F7F012630310580F43F
:1043400090917A00987F90937A0090917A00982BC0
:1043500090937A0080E00E94C009D7011C9216C099
:1043600085E0F701808312C0D9018D919C91892B42
:1043700009F013CB44E050E0B80168597F4FC80101
:104380000E94D019F801E459FF4F10827801BCE671
:10439000EB0EF11CF7016081C8010E94351CD701AA
:1043A0008C910FB6F8943EBE0FBE2DBE69960FB627
:1043B000F894DEBF0FBECDBFDF91CF911F910F915B
:1043C000FF90EF90DF90CF90BF90AF909F908F9035
:1043D0007F906F905F904F903F902F900895EF9255
:1043E000FF920F931F93CF93DF931F921F92CDB72E
:1043F000DEB7122F8DE59DE049835A830E94E904C0
:104400004981042FE42E5A81F52E8E2D801B8117B1
:1044100040F4F70161917F018DE59DE00E948D04DC
:10442000F4CF8DE59DE00F900F90DF91CF911F911C
:104430000F91FF90EF900C940805CF93DF93EC0160
:104440008BEE9EE00E94062F181619064CF48BEE98
:104450009EE00E94332F682FCE010E94231AF0CFD6
:10446000DF91CF91089510923C0E10923B0E8091F7
:10447000380E0E94C0090E94502E6093230E709344
:10448000240E8093250E9093260E80917A00886CDE
:1044900080937A000E94BC09863011F40C9499092B
:1044A00008958F929F92AF92BF92CF92DF92EF9238
:1044B000FF920E94502E4B015C0180917A00877D13
:1044C00080937A000E94BC09863011F40E949309FF
:1044D0006091390E70913A0E80E090E00E944F3862
:1044E00020E034E244E759E40E948A396B017C0100
:1044F0008091230E9091240EA091250EB091260E4E
:10450000A5019401281B390B4A0B5B0BCA01B901A9
:104510000E944F389B01AC01C701B6010E94B6371B
:104520006093270E7093280E8093290E90932A0E85
:10453000FF90EF90DF90CF90BF90AF909F908F90C3
:104540000895CF93DF93D82FC62F811109C066231A
:1045500021F06130B1F560E001C061E08DE01DC087
:10456000813079F5613049F030F0623061F06330CC
:1045700041F560E01DC061E01BC060E08CE00E947E
:10458000EB2C61E019C060E08CE00E94EB2C60E055
:104590008BE00E94EB2C61E08AE00E94EB2C8BE127
:1045A000D89FF0011124EF5BF14FC18380E00AC076
:1045B0008CE00E94EB2C60E08BE00E94EB2C60E032
:1045C000EBCF85E0DF91CF9108959093790E8093A2
:1045D000780E6093410E40935C0E60E078EB88E0CB
:1045E00097E40E94CE0961E08DE00E94B22C61E068
:1045F0008CE00E94B22C61E08BE00E94B22C61E062
:104600008AE00E94B22CEAE7F0E08081887F808314
:1046100080818360808360E080E00E94A12260E06E
:1046200081E00E94A12220E032E03093570E2093D7
:10463000560E80E090E0A0E0B4E48093580E909392
:10464000590EA0935A0EB0935B0E41E04093510E69
:104650003093720E2093710E8093730E9093740EAC
:10466000A093750EB093760E40936C0E08950F9341
:104670001F93CF93DF93AB019BE1899FE00111244E
:10468000CF5BD14F9B01235331092A39334090F03E
:104690009B8191110CC09A819F5F9A8369816623E7
:1046A00019F061500E94A12283E08B8337C09150A2
:1046B0009B8334C08091770E882309F18D899E8970
:1046C000DB01A81BB90B9D010E944C3B09891A898B
:1046D0002B893C89060F171F281F391F098B1A8B3E
:1046E0002B8B3C8B88859985AA85BB85840F951F6C
:1046F000A11DB11D88879987AA87BB870FC08C81B0
:104700009D818617970718F47D836C8307C08E817F
:104710009F816817790710F47F836E83DF91CF91B3
:104720001F910F91089580E00C94372381E00C9441
:1047300037232F923F924F925F926F927F928F9288
:104740009F92AF92BF92CF92DF92EF92FF920F9320
:104750001F93CF93DF93CDB7DEB764970FB6F8946E
:10476000DEBF0FBECDBF29013A01E986FA860B876D
:104770001C871601BA8AA98A0E948A3920E030E093
:104780004AE754E40E94B6379B01AC010E943B37D4
:104790006B017C0120E030E0A9010E94413920E05A
:1047A00030E040E05FE387FD05C0C701B6010E942D
:1047B0003B3704C0C701B6010E943A370E941E3839
:1047C0000E94513820E030E040E05FE30E948A39E7
:1047D0006D837E838F839887A30192016D817E8193
:1047E0008F8198850E94B63729853A854B855C85EF
:1047F0000E948A390E949F370E9423388B01023021
:10480000110508F42DC3B80180E090E00E944F38F4
:104810002D813E814F8158850E94B637A3019201B8
:104820000E948A3969837A838B839C83D1016D933B
:104830007D938D939C93139729853A854B855C8551
:104840000E94413918160CF408C3A3019201698132
:104850007A818B819C810E94B6376B017C019B0120
:10486000AC0160E070E080E090E40E94B6374B015C
:104870005C0120E030E0A9010E94413920E030E0F5
:1048800040E05FE387FD05C0C501B4010E943B37EE
:1048900004C0C501B4010E943A370E941E380E942C
:1048A0005138A70196010E948A399B01AC0160E052
:1048B00070E080E090E40E943A3720E030E0A90107
:1048C0000E94413920E030E0A901181664F5C501C5
:1048D000B4010E94413920E030E040E05FE387FD11
:1048E00005C0C501B4010E943B3704C0C501B40135
:1048F0000E943A370E941E380E945138A701960143
:104900000E948A399B01AC0160E070E080E090E495
:104910000E943A372DEC3CEC4CEC5DE30E94B23740
:1049200087FD9BC22CC0C501B4010E94413920E023
:1049300030E040E05FE387FD05C0C501B4010E949F
:104940003B3704C0C501B4010E943A370E941E38AB
:104950000E945138A70196010E948A399B01AC013F
:1049600060E070E080E090E40E943A372DEC3CEC8F
:104970004CEC5DEB0E94413918160CF46EC2A30199
:104980009201C301B2010E943B379B01AC016981D6
:104990007A818B819C810E94B23787FF61C1298116
:1049A0003A814B815C81C301B2010E94B6376D87A9
:1049B0007E878F87988B1C8A1B8AEB89FC89BF01B5
:1049C00080E090E00E944F384B015C019B01AC01FC
:1049D0006D857E858F8598890E943A3720E030E08A
:1049E00040E05FE30E94B23718163CF42B893C8903
:1049F0002F5F3F4F3C8B2B8BE0CF29813A814B813E
:104A00005C81C501B4010E948A399B01AC01C301DC
:104A1000B2010E943A374B015C0120E030E0A9016D
:104A20000E944139181624F0B7FAB094B7F8B09440
:104A3000A501940169817A818B819C810E94B6379E
:104A400069837A838B839C839B01AC0160E070E077
:104A500080E090E40E94B6374B015C0120E030E03A
:104A6000A9010E94413920E030E040E05FE387FD8A
:104A700005C0C501B4010E943B3704C0C501B401A3
:104A80000E943A370E941E380E94513829813A818B
:104A90004B815C810E948A399B01AC0160E070E02F
:104AA00080E090E40E943A3720E030E0A9010E94C3
:104AB000413920E030E0A901181674F5C501B401B0
:104AC0000E94413920E030E040E05FE387FD05C00F
:104AD000C501B4010E943B3704C0C501B4010E9466
:104AE0003A370E941E380E94513829813A814B8101
:104AF0005C810E948A399B01AC0160E070E080E03B
:104B000090E40E943A372DEC3CEC4CEC5DE30E94C3
:104B1000B23787FF2FC0A1C1C501B4010E9441393E
:104B200020E030E040E05FE387FD05C0C501B4014F
:104B30000E943B3704C0C501B4010E943A370E946D
:104B40001E380E94513829813A814B815C810E9434
:104B50008A399B01AC0160E070E080E090E40E9443
:104B60003A372DEC3CEC4CEC5DEB0E9441391816C9
:104B70000CF473C120E030E0A901C701B6010E9426
:104B8000413920E030E040E05FE387FD05C0C70128
:104B9000B6010E943B3704C0C701B6010E943A37F4
:104BA0000E941E380E9451389B01AC01C701B6011A
:104BB0000E943A3720E030E0A9010E94413920E00C
:104BC00030E0A901181634F5C701B6010E94413939
:104BD00020E030E040E05FE387FD05C0C701B6019B
:104BE0000E943B3704C0C701B6010E943A370E94B9
:104BF0001E380E9451389B01AC01C701B6010E94CA
:104C00003A3727E137EB41ED58E30E94B23787FF8F
:104C100027C023C1C701B6010E94413920E030E01E
:104C200040E05FE387FD05C0C701B6010E943B3746
:104C300004C0C701B6010E943A370E941E380E9484
:104C400051389B01AC01C701B6010E943A3727E1F8
:104C500037EB41ED58EB0E94413918160CF4FDC0BA
:104C600020E030E040E251E4C701B6010E94B237D3
:104C700087FF76C020E030E0A901C701B6010E949D
:104C8000413920E030E040E05FE387FD05C0C70127
:104C9000B6010E943B3704C0C701B6010E943A37F3
:104CA0000E941E380E9451389B01AC01C701B60119
:104CB0000E943A3720E030E0A9010E94413920E00B
:104CC00030E0A901181634F5C701B6010E94413938
:104CD00020E030E040E05FE387FD05C0C701B6019A
:104CE0000E943B3704C0C701B6010E943A370E94B8
:104CF0001E380E9451389B01AC01C701B6010E94C9
:104D00003A3727E137EB41ED58E30E94B23787FF8E
:104D100027C0A3C0C701B6010E94413920E030E09E
:104D200040E05FE387FD05C0C701B6010E943B3745
:104D300004C0C701B6010E943A370E941E380E9483
:104D400051389B01AC01C701B6010E943A3727E1F7
:104D500037EB41ED58EB0E94413918160CF47DC039
:104D60002D813E814F815885C701B6010E948A3945
:104D70006B017C0120E030E0A9010E94413920E074
:104D800030E040E05FE387FD05C0C701B6010E9447
:104D90003B3704C0C701B6010E943A370E941E3853
:104DA0000E9451389B01AC01C701B6010E943A37FD
:104DB00020E030E0A9010E94413920E030E0A90163
:104DC000181634F5C701B6010E94413920E030E0E1
:104DD00040E05FE387FD05C0C701B6010E943B3795
:104DE00004C0C701B6010E943A370E941E380E94D3
:104DF00051389B01AC01C701B6010E943A3727E147
:104E000037EB41ED58E30E94B23787FF26C033C02D
:104E1000C701B6010E94413920E030E040E05FE385
:104E200087FD05C0C701B6010E943B3704C0C7011A
:104E3000B6010E943A370E941E380E9451389B01E9
:104E4000AC01C701B6010E943A3727E137EB41EDCB
:104E500058EB0E944139181674F001501109CFCC5B
:104E600020E030E040E05FE36D817E818F819885B6
:104E70000E943B37ADCCA989BA890D931C936496E7
:104E80000FB6F894DEBF0FBECDBFDF91CF911F915B
:104E90000F91FF90EF90DF90CF90BF90AF909F90D9
:104EA0008F907F906F905F904F903F902F900895DC
:104EB0008BE1E1E4FEE0DF01982F1D929A95E9F77E
:104EC000ECE5FEE0DF011D928A95E9F708952F9247
:104ED0003F924F925F926F927F928F929F92AF928A
:104EE000BF92CF92DF92EF92FF920F931F93CF93D7
:104EF000DF93CDB7DEB7C65CD1090FB6F894DEBF3D
:104F00000FBECDBFC554DF4F59834883CB5BD04024
:104F1000C154DF4F088319832A833B83CF5BD04082
:104F200026013701CF54DF4FA882C15BD040809269
:104F3000770EAA2031F1AAE7AA2EAEE0BA2EAE0172
:104F40004B555F4F6A01E12C10E4F12E0CE916E499
:104F5000A30192010E949923CB55DF4F688179818B
:104F60008A819B81C55AD0409B01AC010E943B378E
:104F7000CB55DF4F688379838A839B83C55AD040A2
:104F800017C020E030E040E05FE30E948A39EAE7A2
:104F9000AE2EEEE0BE2EDE01AB55BF4F6D01E12C13
:104FA00010E4F12E0CE117E4A30192010E94992371
:104FB00080917A0E90917B0E880F991F90937B0EB3
:104FC00080937A0ECB55DF4F688179818A819B81EE
:104FD000C55AD0400E94CE09B091420EC354DF4F53
:104FE000B883CD5BD04081E0C555DF4F8883CB5A75
:104FF000D04061E080E00E94A122E0915D0EC254A9
:10500000DF4FE883CE5BD04083E0C455DF4F888319
:10501000CC5AD04063E081E00E94A1228091410EF1
:10502000FE01E755FF4F808390915C0E91832091A4
:105030007A0E30917B0ECF54DF4F4881C15BD04058
:10504000442311F130933A0E2093390EF093370E2A
:10505000E093360E92E09093340E1092330E25E8D2
:105060003AE03093320E2093310E0E945A0A8DE9B5
:105070009AE09093320E8093310E87E393E29093FF
:10508000300E80932F0E06C03695279530933A0E3A
:105090002093390EE090780EF090790EF701E859E0
:1050A000FF4F20E030EC4FE754E460817181828152
:1050B00093810E94B637C954DF4F688379838A830E
:1050C0009B83C75BD0401E015DE9250E311C2E017C
:1050D00082E1480E511CCE01815B9F4F3C01A9E04B
:1050E0006A0E711CF1013896C355DF4FF983E883CE
:1050F000CD5AD040CE54DF4F8883C25BD040CA54D3
:10510000DF4F9883C65BD04087010C59174F97013A
:10511000255A374FC155DF4F39832883CF5AD040A6
:105120008091410EF801CE54DF4FA881C25BD04080
:10513000CA54DF4FB881C65BD0409EE401900D9207
:105140009A95E1F7882341F0813061F4F3012089D9
:1051500031894289538909C0D3012D913D914D91E7
:105160005C9103C020E030E0A901F801DE01119656
:105170009EE401900D929A95E1F7882341F08130E9
:1051800061F4F201C08CD18CE28CF38C09C0D201A5
:10519000CD90DD90ED90FC9003C0C12CD12C760118
:1051A00060E876E988E19BE40E94B63720E030E0D1
:1051B00040E85FE30E943B374B015C0120E836E9A1
:1051C00048E15BE4C701B6010E948A399B01AC014A
:1051D0000E943B372BED3FE049E450E40E948A39BE
:1051E000C155DF4FA881B981CF5AD0402D913D9153
:1051F0004D915C910E948A396B017C01A50194015B
:10520000C501B4010E948A394B015C01A7019601D6
:10521000C701B6010E948A399B01AC01C501B401E6
:105220000E943B370E943D3A9B01AC01C954DF4FBD
:10523000688179818A819B81C75BD0400E948A39CD
:10524000F10161937193819391931F01F4E04F0EEB
:10525000511C24E0620E711CC355DF4F48815981F7
:10526000CD5AD0402416350609F05ACFC155DF4F2C
:1052700019821882CF5AD040C155DF4F8881998159
:10528000CF5AD040C554DF4FA881B981CB5BD04005
:105290008A179B0709F4E6C28091770E1092430E9D
:1052A0001092440E81110BC0EFEFF3E0F093480E23
:1052B000E093470E1092460E1092450E10C01092C9
:1052C000490E10924A0E10924B0E10924C0E1092F4
:1052D000520E1092530E1092540E1092550E1092C0
:1052E0005E0E10925F0E882389F01092640E109269
:1052F000650E1092660E1092670E10926D0E10924F
:105300006E0E10926F0E1092700E0AC08FEF93E027
:105310009093630E8093620E1092610E1092600E55
:10532000CF54DF4F9881C15BD040992309F445C029
:105330000E9433228091390E90913A0E20913B0EBB
:1053400030913C0E28173907C9F70E9451220E945C
:10535000502ECE54DF4F688379838A839B83C25B50
:10536000D040A091770ECA54DF4FA883C65BD040CF
:1053700080917A0E90917B0EFE01E555FF4FC3554B
:10538000DF4FF983E883CD5AD04001E41EE09E014F
:105390002F5F3F4F2901AE01415B5F4F1A01612C26
:1053A000712C9C0140E050E0CD53DF4F28833983BE
:1053B0004A835B83C35CD040AAC08091410E0E94A7
:1053C000740A4DE95AE05093320E4093310E83E94E
:1053D00093E29093300E80932F0E0E94332280919F
:1053E000390E90913A0E20913B0E30913C0E2817C9
:1053F0003907C9F70E94512280915C0E0E94740AFD
:10540000ADE9BAE0B093320EA093310EE6E9F3E2D3
:10541000F093300EE0932F0E0E9433228091390ECC
:1054200090913A0E20913B0E30913C0E281739078F
:10543000C9F78BCFCD53DF4F688179818A819B81FA
:10544000C35CD0400E944F386B017C01D80151965B
:105450006D917D918D919C9154970E944F389B0145
:10546000AC010E943B37A70196010E94B6370E940B
:105470003D3AF201608371838283938320E030E0C0
:1054800040E852E40E948A399B01AC010E943B37FC
:1054900023EF34E045EB5FE30E948A390E94233812
:1054A000D1016D937C93F301EF5BF14F82818823EF
:1054B000B9F1F301EF5BF14F8281882309F4B3C0A6
:1054C0008195C355DF4FA881B981CD5AD0408C93C7
:1054D000B1E0B08BC355DF4FE881F981CD5AD040A0
:1054E0003196C355DF4FF983E883CD5AD040FBE1B5
:1054F0006F0E711C055E1F4F22E0220E311C34E03E
:10550000430E511C46E36416710409F496C0CA5454
:10551000DF4FF881C65BD040FF2309F45AC08ACF21
:1055200080898111C6CFF80180849184A284B384DC
:105530006485758586859785680D791D8A1D9B1DF7
:105540000E944F382AE037ED43E25CE30E948A393B
:10555000A70196010E94B6376B017C0124EA30E76F
:105560004DE75FE3D80157966D917D918D919C91A8
:105570005A970E948A399B01AC01C701B6010E946B
:105580003B376B017C01F801678B708F818F928FA5
:1055900020E030E0A9010E94413920E030E040E005
:1055A0005FE387FD05C0C701B6010E943B3704C019
:1055B000C701B6010E943A370E941E38D80156969C
:1055C0007C936E935597F80184869586A686B78658
:1055D00070CFD80114966D917C91159716968D9188
:1055E0009C911797681B790B96E0660F771F9A9529
:1055F000E1F7F1017183608380E090E00E944F3811
:1056000023EF34E045EB5FE30E94B63720E030E063
:1056100040E05CE30E948A39D2016D937D938D93C3
:105620009C93139746CF8181C355DF4FA881B981E1
:10563000CD5AD0408C93108A4DCF0091780E1091A6
:10564000790EF801ED59F74F8081882309F468C07D
:105650008091430E811164C0F801E95AF74FC08070
:10566000D180E280F38020E030E0A901C701B601DB
:105670000E94413918160CF053C0C555DF4F888180
:10568000CB5AD040EDE9F0E0EC0FFD1F24E08202A0
:10569000E00DF11D11242081318142815381698106
:1056A0007A818B819C810E948A394B015C018091B7
:1056B0005E0E8111ABC02D813E814F815885C9544A
:1056C000DF4F688179818A819B81C75BD0400E94CE
:1056D0008A399B01AC01C701B6010E943B372B01FF
:1056E0003C019B01AC01C501B4010E943A376B013A
:1056F0007C0120E030E0A9010E94413918160CF429
:1057000089C0C701B6019058F801EF55F74F2081C5
:105710003181428153810E94413918160CF47DC0B9
:1057200002E41EE0CE01815B9F4F6C01E12CF12C65
:10573000D6018D919C91893C9C4030F4F8016081A8
:105740006F5F8E2D0E94A12242E050E0B601809151
:10575000780E9091790E0E94D0196BEA70E06C0F70
:105760007D1F6E0D7F1D41E050E08091780E90917D
:10577000790E0E94D019FFEFEF1AFF0A22E0C20E45
:10578000D11C055E1F4F32E0E316F10489F68BEE63
:105790009EE00E94062F181619060CF463C00E94A2
:1057A000502ECE54DF4F288139814A815B81C25B04
:1057B000D040621B730B840B950B0E944F386B011A
:1057C0007C0120E030E04AE754E4C154DF4F6881B7
:1057D00079818A819B81CF5BD0400E948A399B016D
:1057E000AC01C701B6010E94B23787FDD8CFC155C1
:1057F000DF4F48815981CF5AD0404F5F5F4FC1552D
:10580000DF4F59834883CF5AD04036CD20E030E077
:10581000A90161CFC701B60177CFF801E15AF74F6F
:105820002081318142815381C501B4010E948A39AE
:10583000A30192010E94B6376B017C0120E030E0A9
:1058400040E85FE30E94B23787FF06C0C12CD12C2D
:1058500080E8E82E8FE3F82EB701A601C8010E9468
:10586000A60C5ECFC354DF4F6881CD5BD04080E093
:105870000E94A122C254DF4F6881CE5BD04081E0FC
:105880000E94A122C554DF4F88819981CB5BD04013
:10589000CA53DF4F0FB6F894DEBF0FBECDBFDF9106
:1058A000CF911F910F91FF90EF90DF90CF90BF901D
:1058B000AF909F908F907F906F905F904F903F90B0
:1058C0002F90089590E0FC013197E131F10508F047
:1058D00048C0EA51FF4F0C94A03B809180008F7725
:1058E00003C0809180008F7D80938000089584B5EF
:1058F0008F7702C084B58F7D84BD08958091B000FC
:105900008F7703C08091B0008F7D8093B0000895A1
:10591000809190008F7707C0809190008F7D03C0A9
:1059200080919000877F8093900008958091A000DF
:105930008F7707C08091A0008F7D03C08091A00069
:10594000877F8093A0000895809120018F7707C002
:10595000809120018F7D03C080912001877F8093FB
:1059600020010895CF93DF9390E0FC01E852FD4FB2
:105970002491FC01E25EFC4F8491882349F190E080
:10598000880F991FFC01E856FC4FA591B4918258ED
:105990009C4FFC01C591D4919FB7611108C0F89448
:1059A0008C91209582238C93888182230AC0623057
:1059B00051F4F8948C91322F309583238C93888105
:1059C000822B888304C0F8948C91822B8C939FBF88
:1059D000DF91CF9108950F931F93CF93DF931F9281
:1059E000CDB7DEB7282F30E0F901EE56FD4F849198
:1059F000F901E852FD4F1491F901E25EFC4F049168
:105A00000023C9F0882321F069830E94622C6981F8
:105A1000E02FF0E0EE0FFF1FE258FC4FA591B4918C
:105A20009FB7F8948C91611103C01095812301C038
:105A3000812B8C939FBF0F90DF91CF911F910F917E
:105A40000895CF93DF93282F30E0F901EE56FD4FF4
:105A50008491F901E852FD4FD491F901E25EFC4FC7
:105A6000C491CC2391F081110E94622CEC2FF0E0C4
:105A7000EE0FFF1FEC59FC4FA591B4912C912D23F3
:105A800081E090E021F480E002C080E090E0DF91CE
:105A9000CF9108951F93CF93DF93182FEB0161E00F
:105AA0000E94B22C209711F460E004C0CF3FD105D2
:105AB00039F461E0812FDF91CF911F910C94EB2C91
:105AC000E12FF0E0EE56FD4F449150E0FA0131979E
:105AD000E131F10508F091C0E950FF4F0C94A03B73
