:100000000C94BD010C94EA010C94EA010C94EA01F1
:100010000C94EA010C94EA010C94EA010C94EA01B4
:100020000C94EA010C94EA010C94EA010C94EA01A4
:100030000C94EA010C94EA010C94EA010C94EA0194
:100040000C94EA010C94EA010C94EA010C94EA0184
:100050000C944D070C94EA010C94EA010C94E333E0
:100060000C94EA010C9410370C9458380C94EA0163
:100070000C94EA010C9422070C94EA010C94EA0116
:100080000C94EA010C94EA010C94EA010C947D0AA8
:100090000C9450370C9497380C94EA010C946A0C29
:1000A0000C94EA010C94EA010C94EA010C94EA0124
:1000B0000C94EA010C94EA010C94EA010C94EA0114
:1000C0000C94EA010C94EA010C94EA010C94903728
:1000D0000C94D6380C94EA010C94D0370C94153952
:1000E0000C94EA0175168D1613173017C117FB17FC
:1000F00012183A1856187F1896188B1D8B1DBE18AB
:10010000F81824197119D1192D1A951AAC1A081B4F
:100110002E1B9C1CEF1C101DB21CCE1C371D541D29
:100120008B1D8B1D8B1D8B1D8B1D8B1D8B1D8B1D8F
:100130008B1D8B1D8B1D8B1D8B1D8B1D8B1D8B1D7F
:100140008B1D8B1D8B1D8B1D8B1D8B1D8B1D8B1D6F
:100150008B1D8B1D8B1D8B1D8B1D8B1D8B1D8B1D5F
:100160008B1D8B1D8B1D8B1D8B1D8B1D8B1D8B1D4F
:100170008B1D8B1D8B1D8B1D8B1D8B1D8B1D8B1D3F
:100180008B1D8B1D8B1D8B1D8B1D8B1D721B841C52
:1001900057229122CB2205238A233F23C4231F24E5
:1001A00065244224B8249124BB259425EC25C62639
:1001B000482665271E27A627C127DB27FB272528DA
:1001C000FE235B287E289C28B928E7280800000029
:1001D000BE922449123EABAAAA2ABECDCCCC4C3E3C
:1001E00000000080BEABAAAAAA3E00000000BF002B
:1001F0000000803F0000000000084178D3BB438727
:10020000D1133D190E3CC3BD4282AD2B3E68EC823A
:1002100076BED98FE1A93E4C80EFFFBE01C4FF7FBF
:100220003F000000000007634236B79BD8A71A3989
:10023000685618AEBAAB558C1D3CB7CC5763BD6D34
:10024000EDFD753EF6177231BF000000803F0000E3
:100250002100240027002A002D0030003300010176
:100260000000040107010A01000022002500280007
:100270002B002E00310034000201000005010801AE
:100280000B01000020002300260029002C002F0075
:100290003200000100000301060109010505050502
:1002A000070508080808020202020A0A08080404EE
:1002B000040401010101010101010303030303031C
:1002C0000303040707070C0C0C0C0C0C0C0C0202AB
:1002D000020206060606060606060B0B0B0B0B0BA8
:1002E0000B0B010210202008081020401020408035
:1002F00002010201080402010102040810204080EA
:100300008040201008040201800402018040201077
:1003100008040201080402010102040810204080C0
:1003200001020408102040800000090A02080B0C9A
:100330000D0706030401000000000000000000009B
:1003400000000000000000000000000000000000AD
:100350000000000011100F0000000000000000006D
:1003600000000000000000000000000000001F046A
:100370005707EC0A3729853A180411241FBECFEF1E
:10038000D1E2DEBFCDBF00E00CBF14E0A0E0B2E0E0
:10039000E0E6F9E800E00BBF02C007900D92A63C32
:1003A000B107D9F71BBE11E1A6ECB4E001C01D9264
:1003B000AE34B107E1F713E0C8E7D3E004C02297F9
:1003C000FE010E946844CE36D107C9F70E94E204BC
:1003D0000C94A3440C940000CF93DF93BC018230B3
:1003E000910510F462E070E0A0914C11B0914D11B4
:1003F000ED01E0E0F0E040E050E021C0888199812B
:100400008617970769F48A819B81309719F0938347
:10041000828304C090934D1180934C11FE0134C02F
:100420006817790738F44115510519F084179507B5
:1004300008F4AC01FE018A819B819C01E9012097AF
:10044000E9F641155105A9F1CA01861B970B0497DE
:1004500008F4BA01E0E0F0E02AC08D919C91119778
:1004600084179507F9F46417750781F412968D9136
:100470009C911397309719F09383828304C09093D3
:100480004D1180934C11FD0132964CC0CA01861B60
:10049000970BFD01E80FF91F6193719302978D93FC
:1004A0009C9340C0FD01828193819C01D9011097EA
:1004B000A1F680914A1190914B11892B41F48091C2
:1004C000D5039091D60390934B1180934A1140919C
:1004D000D7035091D8034115510541F44DB75EB78C
:1004E0008091D3039091D403481B590B20914A115A
:1004F00030914B11CA01821B930B8617970780F02E
:10050000AB014E5F5F4F8417950750F0420F531FAA
:1005100050934B1140934A11F9016193719302C0BA
:10052000E0E0F0E0CF01DF91CF910895CF93DF932A
:10053000009709F450C0EC0122971B821A82A09107
:100540004C11B0914D11109709F140E050E0AC17FB
:10055000BD0708F1BB83AA83FE0121913191E20F0F
:10056000F31FAE17BF0779F48D919C911197280F57
:10057000391F2E5F3F4F3983288312968D919C91AE
:1005800013979B838A834115510571F4D0934D11C4
:10059000C0934C1120C012968D919C911397AD0180
:1005A000009711F0DC01D3CFFA01D383C2832191EC
:1005B0003191E20FF31FCE17DF0769F4888199812B
:1005C000280F391F2E5F3F4FFA01318320838A8124
:1005D0009B8193838283DF91CF910895A0E0B0E067
:1005E000E4EFF2E00C946E446C01009729F4CB0127
:1005F0000E94EC016C01C1C08EEF882E8FEF982E07
:100600008C0C9D1C8601060F171F0815190508F490
:10061000B2C0F401A081B181A617B707B8F0A53028
:10062000B10508F4AAC0CD0104978617970708F40E
:10063000A4C01297A61BB70BF801A193B193D401E4
:100640006D937C93CF010E94960297C07B01EA1ABA
:10065000FB0AEEEFFFEFEE0EFF1E36016A0E7B1E69
:10066000C0914C11D0914D1144245524AA24BB248F
:100670004AC0C615D705E1F5488159814E155F0579
:10068000B8F1CA0104978E159F05B0F41296A40F15
:10069000B51FF401B183A0832A813B814114510429
:1006A00031F0D20113963C932E93129766C030938B
:1006B0004D1120934C1161C08A819B81F801938375
:1006C0008283425050404E195F0951834083411448
:1006D000510431F0D20113961C930E93129704C06B
:1006E00010934D1100934C11F4017183608345C048
:1006F00088819981A816B90608F45C012E018A81C7
:100700009B819C01E901209709F0B3CF80914A11A8
:1007100090914B1186159705E9F4A616B706D0F40B
:100720002091D7033091D8032115310541F42DB71D
:100730003EB78091D3039091D403281B390B021745
:100740001307C8F410934B1100934A11D4016D9311
:100750007C9313C0CB010E94EC01EC01009759F08F
:10076000F40140815181B6010E94C303C6010E9479
:1007700096026E0102C0CC24DD24C601CDB7DEB7DF
:10078000E0E10C948A44FB01DC0102C001900D926F
:1007900041505040D8F70895FB01DC0101900D92C3
:1007A0000020E1F70895FB019F01423074F04532CB
:1007B00064F4642F77270E943044805D8A330CF004
:1007C000895D8193CB010097A1F71082C9010C9438
:1007D000E903DC01FC01672F71917723E1F7329780
:1007E00004C07C916D9370836291AE17BF07C8F30C
:1007F00008958091D9039091DA0301969093DA03DA
:100800008093D90308958130910541F46F5F7F4F44
:1008100071F486EC94E00E94BC1D0895892B39F494
:100820006F5F7F4F21F486EC94E00E94B31D089522
:1008300080E090E06FEF7FEF0E940304089581E075
:1008400090E06FEF7FEF0E940304089580E18093B2
:1008500091001092900085E080939B0D86E998E9C5
:1008600090939A0D8093990D9093970080939600A2
:1008700085E18093910089EF93E090939D0D8093A3
:100880009C0D81E08093710086EC94E00E94EE1252
:1008900082EC90E160E072E00E94643D6FEF71E2F3
:1008A0006050724082EC90E14AE050E00E94453D89
:1008B00082EC90E165E072E00E94643D66EC74E0D9
:1008C0006050724082EC90E14AE050E00E94453D69
:1008D00082EC90E16CE072E00E94643D6EE471E1B4
:1008E000665C744082EC90E14AE050E00E94453D35
:1008F00082EC90E162E172E00E94643D60914A11F5
:1009000070914B116115710519F460E070E002C03F
:100910006E54714182EC90E14AE050E00E94453D06
:1009200082EC90E168E172E00E94643D8DB79EB771
:100930006FEF71E2681B790B82EC90E14AE050E0C6
:100940000E94453D82EC90E16FE172E00E94643DBF
:1009500080914A1190914B11009729F46DB77EB7A1
:100960006E54714104C06DB77EB7681B790B82EC81
:1009700090E14AE050E00E94453D089586EC94E005
:100980000E9420208091D9039091DA0369E170E000
:100990000E943044892BA9F48091180D882359F0C6
:1009A0008091190D882329F486EC94E00E94140E9E
:1009B00002C01092190D81E090E09093DA038093C9
:1009C000D9030895CF93DF930E94B4340E94260484
:1009D000CFE0D8E30E94BE042097E1F30E940F38D5
:1009E000F9CFEAE7F0E09081987F90839081982B8F
:1009F0009083089520917A0030E027703070C9010B
:100A00000895EF92FF920F931F937B018C0180E179
:100A1000809381001092800060E074E284E799E4A2
:100A2000A80197010E946D4020E030E040E051E4D1
:100A30000E9443420E94DA409B01AC01203080E0DA
:100A4000380781E0480780E0580728F481E0809368
:100A5000970DB90155C0203080E0380788E048077D
:100A600080E0580768F482E08093970DDA01C901AD
:100A7000E3E0B695A79597958795EA95D1F714C0C9
:100A8000203080E0380780E4480780E0580770F4A1
:100A900083E08093970DDA01C90176E0B695A795BA
:100AA000979587957A95D1F7BC012AC0203080E0D0
:100AB000380780E0480781E0580740F484E08093DD
:100AC000970DBB27A52F942F832FEECF203080E0EA
:100AD000380780E0480784E0580768F485E0809391
:100AE000970DDA01C9012AE0B695A79597958795E4
:100AF0002A95D1F7D9CF85E08093970D6FEF7FEFDF
:100B0000709387006093860091E090936F008091CE
:100B10007B00887F80937B0080917B008660809340
:100B20007B009093810D80917A00806280937A009F
:100B3000E0928B0DF0928C0D00938D0D10938E0D25
:100B40001F910F91FF90EF900895882321F08091DD
:100B50007C00806203C080917C008F7D80937C004C
:100B600008958093810D882321F080917A0080621E
:100B700003C080917A008F7D80937A00089591E080
:100B80009093850D1092830D1092820D1092860D18
:100B900027E736E03093880D2093870D8093840DEE
:100BA00090917C00907F90937C0020917C00982F06
:100BB0009770922B90937C00883020F080917B007E
:100BC000886003C080917B00877F80937B000895BD
:100BD0008093840D90917C00907F90937C00209175
:100BE0007C00982F9770922B90937C00883020F097
:100BF00080917B00886003C080917B00877F809319
:100C00007B0008958091860D8F5F8093860D909173
:100C1000850D891711F41092860D8091860DE09153
:100C2000820DF091830DE80FF11D20812093840D3A
:100C300080917C00807F80937C0090917C00822F4B
:100C40008770892B80937C00283020F080917B0076
:100C5000886003C080917B00877F80937B005091E8
:100C600078004091790020917D0D30917E0D80912A
:100C70007F0D9091800D28173907C0F58091810D67
:100C8000882329F480917A00806480937A00942FDD
:100C900080E0452F50E0482B592B80917C0085FF48
:100CA00011C080917D0D90917E0DE091790DF091B4
:100CB0007A0DE80FF91F5083019690937E0D809373
:100CC0007D0D089580917D0D90917E0D9C01220FE8
:100CD000331FE0917B0DF0917C0DE20FF31F5183E8
:100CE0004083019690937E0D80937D0D08955091E1
:100CF00078004091790020917D0D30917E0D80919A
:100D00007F0D9091800D28173907C0F58091810DD6
:100D1000882329F480917A00806480937A00942F4C
:100D200080E0452F50E0482B592B80917C0085FFB7
:100D300011C080917D0D90917E0DE091790DF09123
:100D40007A0DE80FF91F5083019690937E0D8093E2
:100D50007D0D089580917D0D90917E0D9C01220F57
:100D6000331FE0917B0DF0917C0DE20FF31F518357
:100D70004083019690937E0D80937D0D0895509150
:100D8000860D9091850D923050F1852F8F5F809365
:100D9000860D891711F41092860D8091860DE091D1
:100DA000820DF091830DE80FF11D20812093840DB9
:100DB00080917C00807F80937C0090917C00822FCA
:100DC0008770892B80937C00283020F080917B00F5
:100DD000886003C080917B00877F80937B00609157
:100DE00078004091790020917D0D30917E0D8091A9
:100DF0007F0D9091800D2817390718F58091810D8E
:100E0000882329F480917A00806480937A00942F5B
:100E100080E070E0682B792B80917C0085FF02C018
:100E2000672F7727E091890DF0918A0D852F19950D
:100E300080917D0D90917E0D019690937E0D809313
:100E40007D0D08951F920F920FB60F920BB60F9261
:100E500011242F933F934F935F936F937F938F93BF
:100E60009F93AF93BF93EF93FF93E091870DF09122
:100E7000880D1995FF91EF91BF91AF919F918F913F
:100E80007F916F915F914F913F912F910F900BBE8A
:100E90000F900FBE0F901F9018951F920F920FB6D4
:100EA0000F9211240F900FBE0F901F901895ECE732
:100EB000F0E080818F7380838081806480830895D7
:100EC0000F931F9300917C0010917B0080917C0018
:100ED000807E80937C0080917C008E6180937C007A
:100EE00080917B00877F80937B0063E070E080E0EF
:100EF00090E00E94513480917A00806480937A005F
:100F000080917A0086FDFCCF209178004091790095
:100F100000937C0010937B00742F60E030E0622B24
:100F2000732B882777FD8095982F0E9408419B019D
:100F3000AC0160E070E889E894E40E946D401F9184
:100F40000F910895AF92BF92CF92DF92EF92FF92EE
:100F50000F931F930E942B345B016C0180917A00E8
:100F6000877D80937A0080917B008770863029F49A
:100F700080918100887F8093810060917F0D7091C6
:100F8000800D80E090E00E94064120E034E244E7DA
:100F900059E40E9443427B018C018091930D909112
:100FA000940DA091950DB091960DA81AB90ACA0A90
:100FB000DB0AC601B5010E9406419B01AC01C801D4
:100FC000B7010E946D4060938F0D7093900D8093D8
:100FD000910D9093920D1F910F91FF90EF90DF90E4
:100FE000CF90BF90AF90089510927E0D10927D0D1E
:100FF0008091810D882321F080917A00806203C066
:1010000080917A008F7D80937A000E942B346093C8
:10101000930D7093940D8093950D9093960D809100
:101020007A00886C80937A0080917B00877086308C
:1010300081F480918100887F8093810010928500E7
:1010400010928400809181009091970D892B80935C
:1010500081000895F999FECF72BD61BDF89A80B5FF
:101060000895F999FECF1FBA72BD61BD40BD0FB69C
:10107000F894FA9AF99A0FBE0895FC011386158622
:10108000148687E090E012863197009711F001975F
:10109000FACF0895DF92EF92FF920F931F93FC0116
:1010A000E08001811281F894F80181818E29818389
:1010B0008281DE2CD0948D21828383E090E00E9497
:1010C000AA34F80181818D2181838AE090E00E9419
:1010D000AA34F8010081789485E390E00E94AA3454
:1010E00080E010E0FF240E211F21012B09F081E098
:1010F0001F910F91FF90EF90DF900895EF92FF9274
:101100000F931F93CF93DF937C0101E010E0C0E0C9
:10111000D0E0C7010E944A088111102B000F2196D0
:10112000C830D105B1F7812FDF91CF911F910F9179
:10113000FF90EF9008951F93CF93DF93FC011081F0
:10114000C181D281912F909560FF12C0F8948A815D
:1011500089238A838981812B89838AE090E00E9498
:10116000AA348A81812B8A83789487E390E011C026
:10117000F8948A8189238A838981812B898381E4F8
:1011800090E00E94AA348A81812B8A83789485E03A
:1011900090E00E94AA34DF91CF911F910895CF92E1
:1011A000DF92EF92FF920F931F93CF93DF938C0107
:1011B000E42EFF24F394C0E0D0E0C62EDD2460E0EE
:1011C0008F2D90E08C219D21892B09F061E0C801D1
:1011D0000E949B08FF0C2196C830D10581F7EE20B4
:1011E000A9F4F894D8011196ED91FC911297918190
:1011F0008C918095982391831196ED91FC91129793
:1012000092818C918095982392837894DF91CF91ED
:101210001F910F91FF90EF90DF90CF900895EF9284
:10122000FF920F931F93CF93DF938C017B0165E5B2
:1012300040E00E94CF08C0E0D0E0F701EC0FFD1FB6
:10124000C801608140E00E94CF082196C830D105D6
:10125000A1F7DF91CF911F910F91FF90EF9008952B
:10126000DF92EF92FF920F931F93CF93DF93FC01D6
:101270000081C181D281F8948981D02ED0948D21B2
:10128000898378941DE7E02EFF24115059F182E004
:1012900090E00E94AA34888190E08E219F21892BC2
:1012A000A1F3F8948A818D218A838981802B898397
:1012B000789480EE91E00E94AA34F89489818D217F
:1012C000898386E490E00E94AA34888110E090E04F
:1012D000E822F922EF2809F411E078948AE991E0F4
:1012E0000E94AA34812FDF91CF911F910F91FF901F
:1012F000EF90DF900895AF92BF92DF92EF92FF924E
:101300000F931F93CF93DF93EC015B018D858823AF
:1013100009F061C0CE010E943009882329F41B86A0
:101320001D861C8690E06BC0CE0160EF40E00E94FD
:10133000CF0801E0DD24EE24FF24F394CE010E94C7
:101340004A08182FCE010E944A08113019F4813042
:10135000E1F439C0181709F58B85081770F460E0BF
:10136000FE01EE0DF11D838190E02F2D30E08223F0
:101370009323181619064CF003C060E0081729F0F3
:10138000093008F04CC00C874AC0FE01EE0DF11D7B
:1013900083818F29838361E009C0612FFE01EE0DF7
:1013A000F11D9F2D9095838189238383CE010E9417
:1013B0009B080F5FFF0C19F4E394FF24F39487E07C
:1013C0008E1508F0BBCF013430F0DB86DD2011F53F
:1013D00081E08D871FC01B861D861C8690E0DE0184
:1013E00020E030E0F501E20FF31F13968C91139784
:1013F00080832F5F3F4F11962830310599F7892F51
:10140000DF91CF911F910F91FF90EF90DF90BF90F0
:10141000AF9008958B818823F1F291E0E0CFD02E38
:10142000BDCFFF920F931F938C01F62E862F60E0A5
:101430000E94F9358F2D90E0FC01EE51FD4FE491B3
:10144000D801EC9384569D4FFC016491E62FF0E0A7
:10145000EE0FFF1FEE57FD4F8591949112969C93CE
:101460008E9311971B961C921B971D961C921D978D
:101470001C961C92F80187E090E012863197009745
:1014800011F00197FACF1F910F91FF9008958823D3
:1014900019F48CB5806202C08CB58F7D8CBD089527
:1014A0009CB5937F982B9CBD08952CB5382F337035
:1014B0002C7F322B3CBD2DB590E095958795959569
:1014C000879581702E7F822B8DBD089585E361E025
:1014D0000E94AC3685E361E00E94F9358CB58061ED
:1014E0008CBD8CB580648CBD84E361E00E94F935CD
:1014F00083E361E00E94F93508951F920F920FB6C1
:101500000F920BB60F9211242F933F934F935F933B
:101510006F937F938F939F93AF93BF93EF93FF93BB
:10152000E0919C0DF0919D0D1995FF91EF91BF9168
:10153000AF919F918F917F916F915F914F913F916B
:101540002F910F900BBE0F900FBE0F901F9018950C
:1015500081E08093E30D6093C00D1092E10D109235
:10156000E20D089581E08093E30D6093C00D109229
:10157000E10D1092E20D08952091BF0D30E08091B1
:10158000BE0D281B3109C90108954091BE0D8091FF
:10159000BF0D481718F02FEF3FEF0AC0E42FF0E01F
:1015A000E256F24F8081282F30E04F5F4093BE0D0E
:1015B000C9010895E091BE0D8091BF0DE81718F0A4
:1015C000EFEFFFEF06C0F0E0E256F24F8081E82F28
:1015D000F0E0CF01089508951092E70D1092E60D06
:1015E00088EE93E0A0E0B0E08093E80D9093E90DE1
:1015F000A093EA0DB093EB0D80EE93E09093E50D90
:101600008093E40D0895CF92DF92EF92FF920F93B3
:101610001F93CF93DF937C016B018A018091E30DCF
:101620008823A1F0C0E0D0E00DC0D701ED91FC917E
:10163000D601AC0FBD1F0190F081E02DC7016C9168
:1016400019952196C017D10780F304C0CB01642FF0
:101650000E944F0CC801DF91CF911F910F91FF9015
:10166000EF90DF90CF900895DF93CF930F92CDB797
:10167000DEB7FC0169838091E30D8823C9F0809176
:10168000E20D803238F081E090E09383828320E0A5
:1016900030E015C08091E10DE82FF0E0EF53F24FFC
:1016A000998190838F5F8093E10D8093E20D05C057
:1016B000CE01019661E00E944F0C21E030E0C901AB
:1016C0000F90CF91DF9108950F93062F8091C00D59
:1016D00061EC7DE04091E20D21E00E94FA0B109256
:1016E000E10D1092E20D1092E30D0F91089561E06B
:1016F0000E94640B0895413208F040E2862F6EE9A3
:101700007DE00E94B10B1092BE0D8093BF0D089535
:1017100021E00E947B0B089521E00E947B0B08953D
:101720001092BE0D1092BF0D1092E10D1092E20DBD
:101730000E949B0B08951092F00D81E08093F20DB2
:101740001092F30DE9EBF0E080818E7F8083808141
:101750008D7F808388E48093B80085E48093BC000B
:101760000895382F413210F040E042C08091F00DD2
:101770008823E1F791E09093F00D2093F20D8FEF25
:1017800080935D0E1092180E41504093190E4F5FDA
:101790009093F10D8091F10D330F832B8093F10D18
:1017A0008091F30D813041F41092F30D8091F10D91
:1017B0008093BB0085EC01C085EE8093BC008091D6
:1017C000F00D8130E1F38091180E841710F44091F0
:1017D000180E20E030E00AC0FB01E20FF31FD90130
:1017E000A850B24F8C9180832F5F3F4F2417A0F3F6
:1017F000842F08950F931F93582F122F413210F00A
:1018000081E04AC08091F00D8823E1F782E0809367
:10181000F00D0093F20D8FEF80935D0E1092180E75
:101820004093190EA8EFBDE0FB0102C081918D939A
:101830008E2F861B8417D0F31092F10D8091F10D3D
:10184000550F852B8093F10D8091F30D813041F47C
:101850001092F30D8091F10D8093BB0085EC01C0D7
:1018600085EE8093BC00112321F08091F00D823031
:10187000E1F380915D0E8F3F11F480E00DC0809107
:101880005D0E803211F482E007C080915D0E8033DE
:1018900011F084E001C083E01F910F910895482F5B
:1018A000613210F081E008958091F00D843011F0E4
:1018B00082E0089560933B0EAAE1BEE0842F9C0174
:1018C000F90102C081918D938E2F841B8617D0F36E
:1018D00080E008951F920F920FB60F920BB60F92F1
:1018E00011242F933F934F935F936F937F938F9325
:1018F0009F93AF93BF93EF93FF938091B90090E0D4
:10190000887F90708036910509F4F2C08136910588
:10191000CCF58832910509F47BC089329105B4F485
:101920008031910509F46FC0813191053CF4009735
:1019300009F447C1089709F04FC165C08831910586
:1019400009F466C0809709F047C182C080349105D0
:1019500009F4A4C08134910544F48033910509F45D
:1019600082C0C89709F038C189C08035910509F453
:1019700089C08835910509F496C08834910509F02D
:101980002BC1AEC08839910509F413C1893991057D
:10199000ECF48837910509F4ABC0893791054CF414
:1019A0008836910509F4A4C08037910509F014C167
:1019B0009FC08838910509F4FCC08039910509F46D
:1019C0009DC08038910509F007C198C0803B910502
:1019D00009F4C6C0813B91054CF4803A910509F4A5
:1019E0009FC0883A910509F0F7C0BAC0803C9105C4
:1019F00009F4E3C0883C910509F4DFC0883B9105F8
:101A000009F0EAC0C2C08091F10D8093BB00CFC045
:101A10009091180E8091190E981768F49091180EF5
:101A2000E92FF0E0E850F24F80818093BB009F5F88
:101A30009093180EBCC08091F20D882309F44BC01E
:101A400085ED8093BC008091BC0084FDFCCFC2C0BA
:101A500080E280935D0E85ED8093BC008091BC0098
:101A600084FDFCCFB7C080E380935D0E85ED80934D
:101A7000BC008091BC0084FDFCCFACC088E38093A7
:101A80005D0E9BC08091180E9091BB00E82FF0E096
:101A9000E850F24F90838F5F8093180E9091180E4C
:101AA0008091190E82C08091180E9091BB00E82F92
:101AB000F0E0E850F24F90838F5F8093180E809192
:101AC000F20D882341F085ED8093BC008091BC002D
:101AD00084FDFCCF7FC081E08093F30D84EA6EC06B
:101AE00085ED8093BC008091BC0084FDFCCF72C06A
:101AF00083E08093F00D10925C0E59C080915C0ED3
:101B0000803208F056C080915C0E9091BB00E82FA7
:101B1000F0E0E45CF14F90838F5F80935C0E47C0F0
:101B200080915C0E803230F4E0915C0EF0E0E45C79
:101B3000F14F108285ED8093BC008091BC0084FD44
:101B4000FCCF1092F00D60915C0EE091F60DF091DB
:101B5000F70D8CE39EE070E0199510925C0E2DC09D
:101B600084E08093F00D10923A0E10923B0EE091BB
:101B7000F40DF091F50D199580913B0E882329F411
:101B800081E080933B0E10921A0E90913A0EE92F4D
:101B9000F0E0E65EF14F80818093BB009F5F909301
:101BA0003A0E90913A0E80913B0E981710F485EC06
:101BB00001C085E88093BC000FC085EC8093BC0019
:101BC00009C010925D0E85ED8093BC008091BC0031
:101BD00084FDFCCF1092F00DFF91EF91BF91AF917A
:101BE0009F918F917F916F915F914F913F912F9135
:101BF0000F900BBE0F900FBE0F901F9018958CEE9C
:101C000093E0089581E094E0089585E094E00895DC
:101C10008CE194E0089586E394E0089581E494E0F3
:101C200008958CE292E0089588E061E00E94AC366D
:101C30000895FF920F931F93F62E142F022F862FD5
:101C400060E00E94AC361EBD0DB407FEFDCF8EB520
:101C50000EBD0DB407FEFDCF8EB58F2D61E00E9445
:101C6000AC361F910F91FF900895362F242F6430CA
:101C700010F085E00895209565E3432F0E94190E2A
:101C800080E00895AF92BF92CF92DF92EF92FF92E1
:101C90000F931F93CF93DF93EC015A016B01C15A4D
:101CA000D74FE880F9800A811B81CF55D840CB01FE
:101CB000BA0120E030E040E050E00E94694087FD3A
:101CC00048C0FE01E155F74FC601B50120813181C1
:101CD000428153810E94FA411816DCF1C601B50118
:101CE000A80197010E946D409B01AC010E94F23F48
:101CF00023EF34E045EB5FE30E94434220E030E015
:101D000040E85EE30E94434220E030E04FE753E4C6
:101D10000E9443427B018C0120E030E04FE753E416
:101D20000E94FA411816ACF0C95AD74FA882B9825E
:101D3000CA82DB82C755D840C801B7010E94DA4089
:101D40009B01AC01CE0163E0422F0E94350E80E082
:101D500001C088E0DF91CF911F910F91FF90EF902C
:101D6000DF90CF90BF90AF900895FC01E15AF74FFC
:101D700040835183628373833897408151816281AC
:101D80007381E755F840CF0120E00E94420E08958C
:101D9000CF92DF92EF92FF920F931F93CF93DF9337
:101DA0008C0184E6E82E88E0F82EE00EF11E680132
:101DB000C0E0D0E0F701EC0FFD1FC601CC59DF4FAA
:101DC000BE0140810E94121FC356D040CF34D105BE
:101DD00089F7C80160E00E94F60EDF91CF911F9154
:101DE0000F91FF90EF90DF90CF900895BF92CF9228
:101DF000DF92EF92FF920F931F93CF93DF93EC014B
:101E0000B62E94E6E92E98E0F92EEC0EFD1E6E013A
:101E100000E010E0E881F981B8016C597F4F00883B
:101E2000F189E02DC6011995F701E00FF11F8083BC
:101E30000F5F1F4F0F34110569F7CC59D74F8881B9
:101E40009981C456D840892B39F5CA59D74F888112
:101E50009981C656D840892BF9F49E012859374FED
:101E6000F90180819181892BB9F4FE01E256F74F87
:101E7000C15AD74F88819981AA81BB81CF55D8405B
:101E800080839183A283B38381E090E0F901918301
:101E90008083CE010E94C80ECC59D74F888199818A
:101EA000C456D840892BE1F4CA59D74F888199810B
:101EB000C656D840892BA1F4FE01E859F74F80811E
:101EC0009181019769F4C559D74F80E28883CB5639
:101ED000D84082E090E091838083CE010E94C80EBA
:101EE000CC59D74F88819981C456D840892B11F598
:101EF000CA59D74F88819981C656D840892BD1F4C9
:101F0000FE01E859F74F80819181029799F4CE55EF
:101F1000D74F80E090E0A0EAB0E488839983AA8359
:101F2000BB83C25AD84083E090E091838083CE0186
:101F30000E94C80ECC59D74F88819981C456D84089
:101F4000892BD9F4CA59D74F88819981C656D84070
:101F5000892B99F4FE01E859F74F8081918103970D
:101F600061F4CA55D74F1882C65AD84084E090E031
:101F700091838083CE010E94C80ECC59D74F8881AF
:101F80009981C456D840892B91F5CA59D74F888179
:101F90009981C656D840892B51F5FE01E859F74F73
:101FA00080819181049719F5C955D74F80E090E061
:101FB000A8ECB2E489939993A993B99380E090E453
:101FC000ACE9B6E489939993A993B99380E090E042
:101FD000A8E4B3E488839983AA83BB83CF5AD8400B
:101FE00085E090E091838083CE010E94C80ECC5999
:101FF000D74F88819981C456D840892B99F4CA5902
:10200000D74F88819981C656D840892B59F4C85931
:10201000D74F88819981C856D840059719F4BB20BD
:1020200009F49EC0CC59D74F19921992199219925E
:1020300085E090E0899399938FEF888323968CE7CE
:10204000888380E78A93229680E09CE7A2E9B8E43F
:1020500089939993A993B99380E092E2A1EAB8E4B5
:1020600088839983AA83BB832C9680E090E0AAE7BB
:10207000B4E489939993A993B99380E090E4ACE197
:10208000B6E489939993A993B99380E090E5A3EC82
:10209000B7E489939993A993B99380E094E2A4E774
:1020A000B9E488839983AA83BB83649780E090E036
:1020B000A0E0B0E089939993A993B9938883998319
:1020C000AA83BB8364968FEF96EEABE5BEE289935D
:1020D0009993A993B99389939993A993B993899360
:1020E0009993A993B99388839983AA83BB83CA5987
:1020F000D840FE01E256F74FC15AD74F88819981E7
:10210000AA81BB8180839183A283B3832C9680E2D2
:102110008883E79680E090E0A0EAB0E48993999301
:10212000A993B993199280E090E0A8ECB2E4899366
:102130009993A993B99380E090E4ACE9B6E48993CC
:102140009993A993B99380E090E0A8E4B3E48883DD
:102150009983AA83BB83CF5AD840CE010E94C80E70
:10216000C256D74FE880F9800A811B81CE59D840EA
:10217000C801B70120E030E040E050E00E94694033
:10218000FE01ED59F74F18161CF081E0808307C05F
:10219000C15AD74FE882F9820A831B831082DF91EC
:1021A000CF911F910F91FF90EF90DF90CF90BF9054
:1021B00008950F931F938C010E94121FC80160E0C5
:1021C0000E94F60E1F910F9108959F92AF92BF92B9
:1021D000CF92DF92EF92FF920F931F93CF93DF93F3
:1021E000EC015A016B01FC01E955F74F60817181E7
:1021F0008281938124EA30E74DE75FE30E94434206
:102200009B01AC01C601B5010E94FA4188230CF480
:10221000B7C0FE01E555F74F6081718182819381DE
:102220002EEA37E441E85FE30E9443429B01AC01A0
:10223000C601B5010E94694018160CF4A1C0C60180
:10224000B50120E030E048E452E40E9443427B01C3
:102250008C0120E030E04AE754E40E94694087FDA9
:102260008FC0C801B70120E233EB41E85CE40E9473
:10227000FA4118160CF484C0C801B70120E030EE12
:1022800041E854E40E946D400E94034226EA3BE983
:1022900044E550E40E9443422EE83DE543E150E42A
:1022A0000E946D400E94DA40962E70E0665F7F4F7C
:1022B000882777FD8095982F0E9408419B01AC01EB
:1022C00060E070E080E090E40E94A6429B01AC01D7
:1022D000CA01B90120E030EE41E055EC0E944342D2
:1022E000A80197010E946D4020E030E040E055E4F5
:1022F0000E94F23F7B018C0120E030E040E050E0A2
:102300000E94FA4188234CF0C801B70120E030E078
:1023100040E05FE30E94F23F08C0C801B70120E03F
:1023200030E040E05FE30E94F13F0E94D5408B0126
:1023300084EE9DE067E10E94A80AC80136E0969508
:1023400087953A95E1F7929420EF9222982A84EEAD
:102350009DE0692D0E94340B602F660F660F62604E
:1023600084EE9DE00E94340B84EE9DE00E94770B8A
:10237000C55AD74FA882B982CA82DB8280E001C0E9
:1023800088E0DF91CF911F910F91FF90EF90DF9048
:10239000CF90BF90AF909F9008957F928F929F9221
:1023A000AF92BF92CF92DF92EF92FF920F931F9363
:1023B000DF93CF930F920F92CDB7DEB75C019B01F5
:1023C000742ECB0168E270E00E943044862EC90171
:1023D00068E270E00E9430446C0153E09695879566
:1023E0005A95E1F7982E082D10E04BE6E42E48E0D0
:1023F000F42EEA0CFB1CF7018081B801680F711DF7
:1024000084EE9DE00E94B20A692D70E0685F7F4F04
:1024100084EE9DE00E94340B84EE9DE00E94770BD9
:10242000F7018081080F111D84EE9DE0B80141E0A5
:1024300050E00E94880B84EE9DE00E94BC0A892B2C
:1024400011F481E03BC00C2D0770F8E09F0E9982DB
:1024500084EE9DE00E94C50A282F772071F481E068
:1024600090E0A0E0B0E004C0880F991FAA1FBB1F36
:102470000A95D2F7282B2A830EC081E090E0A0E0D5
:10248000B0E004C0880F991FAA1FBB1F0A95D2F79E
:10249000809582238A838BE698E0A80EB91EF50109
:1024A000608185E997EFA80EB91E680DC501AE01E0
:1024B0004F5F5F4F22E00E943B1F80E00F900F9024
:1024C000CF91DF911F910F91FF90EF90DF90CF9010
:1024D000BF90AF909F908F907F9008954F925F92A2
:1024E0006F927F928F929F92AF92BF92CF92DF9224
:1024F000EF92FF920F931F93DF93CF930F920F9260
:10250000CDB7DEB78C012C01EE24F4E58F2EF8E078
:102510009F2E880E991EE5E4CE2EE8E0DE2EC80E32
:10252000D91E7BE6A72E78E0B72EA80EB91E3E0175
:102530000894611C711C33C068E0F62E30E040E066
:1025400050E0F60180819181F801E80FF91FE2590E
:10255000FF4F20810196F6019183808380E090E017
:10256000222311F481E090E0042E02C0880F991F0D
:102570000A94E2F7380F4F5F5F4F4830510509F773
:102580003A83F50160816E0DF982C201A30122E058
:102590000E943B1FF394FDE0FF1681F6E3942E2D7D
:1025A00030E0F4018081918168E270E00E94304463
:1025B0002617370708F20F900F90CF91DF911F91E8
:1025C0000F91FF90EF90DF90CF90BF90AF909F90D2
:1025D0008F907F906F905F904F9008952F923F92D1
:1025E0004F925F926F927F928F929F92AF92BF9223
:1025F000CF92DF92EF92FF920F931F93DF93CF93CF
:10260000CDB7DEB7E2970FB6F894DEBF0FBECDBFF1
:102610007C0189ABFAAA0E94971F85E361E00E94C2
:10262000F93589E061E00E94F93588E061E00E94B7
:10263000F93588E060E00E94AC3664EF71E080E03C
:1026400090E00E945134D701ED91FC910680F78112
:10265000E02DC7011995BC0182EC90E10E94643D18
:1026600082EC90E160E372E00E94643DD701ED915D
:10267000FC910484F585E02DC7011995BC0182EC1D
:1026800090E10E94613E82EC90E163E372E00E947F
:10269000643DD701ED91FC910284F385E02DC701E3
:1026A0001995BC0182EC90E10E94613EC7010E9435
:1026B0005F1F89E060E00E94AC36EFE5F8E0EE0EC7
:1026C000FF1E80E090E0A6E9B3E4F70180839183E8
:1026D000A283B38321EA37EFE20EF31EC70160E065
:1026E0000E94F60E82EC90E166E472E00E94643D86
:1026F00084E698E0E80EF91ED7016D917D917D0189
:1027000082EC90E14AE050E00E94943C82EC90E13F
:102710006DE572E00E94643DF701619171917F0166
:1027200082EC90E14AE050E00E94943C82EC90E11F
:102730006DE572E00E94643DD7016D917C91E8E9FE
:10274000F7EFEE0EFF1E82EC90E14AE050E00E94AF
:10275000A53C82EC90E16FE572E00E94643DF701D8
:10276000E659F74F82EC90E160814AE050E00E9428
:10277000D43C82EC90E165E672E00E94643DF70192
:10278000E459F74F82EC90E160814AE050E00E940A
:10279000D43C82EC90E165E772E00E94643DF70171
:1027A000E359F74F82EC90E160814AE050E00E94EB
:1027B000D43C10E073E0272E312C2C0E3D1E61E13D
:1027C000462E512C4C0E5D1E5FE1652E712C6C0E59
:1027D0007D1E48E1842E912C8C0E9D1E36E2A32E88
:1027E000B12CAC0EBD1ECFC0CE010A966BE772E0D5
:1027F0000E94803FC101612F4AE00E94B33FCE0199
:102800000A96B1010E94493F6DE772E00E942D3F98
:1028100098AB8FA7C2016D2D4AE00E94B33F8FA5F0
:1028200098A9B2010E94493F61E972E00E942D3FE0
:10283000BC0182EC90E10E94743EC2010E94E53F1F
:10284000C1010E94E53FCE010A960E94EB3F112391
:1028500039F0113081F040E050E060E070E019C0E4
:10286000ED2DF0E0EE0FFF1FEE0FFF1FEE0DFF1D31
:10287000E259F74F0AC0ED2DF0E0EE0FFF1FEE0F0B
:10288000FF1FEE0DFF1DE258F74F4081518162811D
:10289000738182EC90E122E030E00E944E3EC30161
:1028A0006BE772E00E94803FC401612F4AE00E9402
:1028B000B33FC301B4010E94493F64E972E00E9442
:1028C0002D3F9EA78DA7C5016D2D4AE00E94B33F05
:1028D0008DA59EA5B5010E94493F61E972E00E9465
:1028E0002D3FBC0182EC90E10E94743EC5010E9424
:1028F000E53FC4010E94E53FC3010E94EB3F112365
:1029000039F0113081F060E070E080E090E019C0B3
:10291000ED2DF0E0EE0FFF1FEE0FFF1FEE0DFF1D80
:10292000EA58F74F0AC0ED2DF0E0EE0FFF1FEE0F53
:10293000FF1FEE0DFF1DE257F74F6081718182810D
:10294000938125EA34ED48E653E50E944342AB010A
:10295000BC0182EC90E122E030E00E944B3E82EC30
:1029600090E169EA72E00E94613ED394112321F064
:10297000113031F484E001C082E0D81608F434CF7D
:102980001F5F123011F0DD24F1CF82EC90E16DEA8F
:1029900072E00E94643D1BE6C12E18E0D12ECE0CE1
:1029A000DF1C82EC90E1D6016C914AE050E00E947D
:1029B000D43C82EC90E16AEC72E00E94643DEEE966
:1029C000F8E0EE0EFF1ED7014D915D916D917D9166
:1029D0007D0182EC90E122E030E00E944E3E82ECEC
:1029E00090E16AED72E00E94643DF70141915191DE
:1029F000619171917F0182EC90E122E030E00E94D0
:102A00004E3E82EC90E16DEE72E00E94643DD70193
:102A10006C9182EC90E170E04AE050E00E94453D0C
:102A200082EC90E166E073E00E94643DEDEBFFEF25
:102A3000EE0EFF1ED7016C9182EC90E170E04AE04F
:102A400050E00E94453D82EC90E162E273E00E941A
:102A5000643DE4E4F0E0EE0EFF1ED7014D915D9180
:102A60006D917D917D0182EC90E122E030E00E9449
:102A70004E3E82EC90E16AE373E00E94643DF70110
:102A800041915191619171917F0182EC90E122E03D
:102A900030E00E944E3E82EC90E162E573E00E94DD
:102AA000643DD7014D915D916D917C91E1E5F7EF2A
:102AB000EE0EFF1E82EC90E122E030E00E944E3EDE
:102AC000F701EC5AF74F11821082AA24BB24B8E216
:102AD0008B2E912CA8E12A2E33243A943E0108949F
:102AE000611C711C2F011A2D29823A82D6016C912A
:102AF0006A0D89A99AA9A30122E00E943B1FF60151
:102B000060816A0D89A99AA9A30121E00E941C1F76
:102B100089818F3F09F047C000E0085E09830851B2
:102B20001A82D6016C91610F89A99AA9A30122E0AA
:102B30000E943B1FF6016081610F89A99AA9A30138
:102B400021E00E941C1F8981882369F5085F0983A1
:102B50003A82D6016C91610F89A99AA9A30122E05A
:102B60000E943B1F07500530C1F682EC90E168E6F9
:102B700073E00E94643D82EC90E1B5014AE050E0D0
:102B80000E94323D82EC90E162E773E00E94613E78
:102B9000940128523040F20180819181821793077D
:102BA00011F4918280820894A11CB11C28E230E0CB
:102BB000820E931E38E0A316B10409F094CF84E589
:102BC00098E0E80EF91ED7016D917C91ECEAF7EFE1
:102BD000EE0EFF1E82EC90E14AE050E00E94943C31
:102BE00082EC90E16EE773E00E94613EF701E659E6
:102BF000F74FC70160E040810E94350EF701E359AD
:102C0000F74FC70161E040810E94350EF701E4599A
:102C1000F74FC70162E040810E94350EC70163E0B3
:102C200040E00E94350E26EA38E0E20EF31ED7019E
:102C30008C91EAE5F7EFEE0EFF1E882321F0C70125
:102C400060E042E003C0C70160E041E00E949333CE
:102C5000C70140E050E46CE176E40E94E510E296A2
:102C60000FB6F894DEBF0FBECDBFCF91DF911F919D
:102C70000F91FF90EF90DF90CF90BF90AF909F901B
:102C80008F907F906F905F904F903F902F9008951E
:102C90002F923F924F925F926F927F928F929F926C
:102CA000AF92BF92CF92DF92EF92FF920F931F935A
:102CB000DF93CF93CDB7DEB765970FB6F894DEBF3D
:102CC0000FBECDBF3C016B8B862F90E0FC01E05A1C
:102CD000F040E635F10508F01EC7EE58FF4FEE0F45
:102CE000FF1F0590F491E02D199420E438E0620E66
:102CF000731ED3018D919C91E0ECF7EF6E0E7F1E59
:102D0000830104591F4F892B09F0CCC6B3016C5ABB
:102D1000774FC30142E050E02DC120E438E0620E5D
:102D2000731ED3018D919C91E0ECF7EF6E0E7F1E28
:102D3000830104591F4F892B09F0B4C6D8011C9296
:102D40006C8A7D8ACC24E4E58E2EE8E09E2E860CEB
:102D5000971C7BE6272E78E0372E260C371C58016F
:102D600054C068E0D62E2901F1018081B201680FBC
:102D7000711D84EE9DE00E94B20A84EE9DE06D2DEF
:102D80000E94340B84EE9DE00E94770BD1018C9160
:102D9000B201680F711D84EE9DE041E050E00E9499
:102DA000880B84EE9DE00E94BC0A892B21F184EE01
:102DB0009DE00E94C50A00E010E0E82EFF24C70154
:102DC000002E02C0959587950A94E2F7E1E0F0E0C5
:102DD0008E279F27817089838C899D89BE016F5FB3
:102DE0007F4F41E050E00E94D61D0F5F1F4F08301B
:102DF000110529F704C0E1E0D501EC9305C0D39497
:102E0000FDE0DF1609F0B0CFC3942C2D30E0D401E3
:102E10008D919C9168E270E00E943044261737073C
:102E200008F49FCF78C6F301E05CF74F24E538E063
:102E3000620E731E20813181D3018D919C91ECEA49
:102E4000F7EF6E0E7F1E830104591F4F28173907B5
:102E500009F028C6C3010E946E12D8011C925BC6FD
:102E600020E438E0620E731ED3018D919C91E0EC5A
:102E7000F7EF6E0E7F1E029709F042C6D301AB5BDF
:102E8000B74F8D919C91119782599F4FF301E80F95
:102E9000F91F0190F081E02D8C5690408D939C930A
:102EA00024E538E0620E731ED3018D919C912CEACB
:102EB00037EF620E731EE817F90730F04CE650E06A
:102EC000640E751E85E021C6CF0168E270E00E94A5
:102ED00030446C01CF0168E270E00E943044062F5C
:102EE00010E05BE6E52E58E0F52EE60CF71CD70166
:102EF0008C91B801680F711D84EE9DE00E94B20AAA
:102F0000B60143E0769567954A95E1F770E0685F12
:102F10007F4F84EE9DE00E94340B84EE9DE00E9482
:102F2000770BF7018081080F111D84EE9DE0B80139
:102F300041E050E00E94880B84EE9DE00E94BC0AB4
:102F4000830104591F4F892BC1F084EE9DE00E943C
:102F5000C50A90E02C2D277002C0959587952A957B
:102F6000E2F7809581708983C301BE016F5F7F4F57
:102F700041E050E00E94D61D70CF81E0F8018083CF
:102F8000CAC520E438E0620E731ED3018D919C9176
:102F9000E0ECF7EF6E0E7F1E039709F0B1C5D30189
:102FA000AB5BB74F8D919C911197FC01E259FF4F9C
:102FB000E60DF71D60817181F301E80FF91FE059FB
:102FC000FF4F408103968D939C9324E538E0620E79
:102FD000731ED3018D919C91ECEAF7EF6E0E7F1E6C
:102FE000830104591F4F6817790708F09CC2C30179
:102FF0000E94CD1112C520E438E0620E731ED30189
:103000008D919C91E0ECF7EF6E0E7F1E83010459C9
:103010001F4F892B09F046C5D8011C9289E00E94F8
:10302000DF369EC420E438E0620E731ED3018D911A
:103030009C91E0ECF7EF6E0E7F1E019709F060C5E2
:10304000D301AB5BB74F8D919C911197F301E80FC2
:10305000F91FE259FF4F608101968D939C93830184
:1030600004591F4F623020F489E00E94AC36F5CE3F
:1030700088E084CF20E438E0620E731ED3018D9186
:103080009C91E0ECF7EF6E0E7F1E830104591F4FF9
:10309000892B09F007C5D8011C92B301695A774FF3
:1030A000C30144E050E00E94D61D35C520E438E05D
:1030B000620E731ED3018D919C91E0ECF7EF6E0EC2
:1030C0007F1E830104591F4F049709F0EBC4D301FD
:1030D000AB5BB74F8D919C91119782599F4FF30134
:1030E000E80FF91F40815181628173818A569040B7
:1030F0008D939C93C30121E00E94420E8EC420E474
:1031000038E0620E731ED3018D919C91E0ECF7EFD5
:103110006E0E7F1E830104591F4F892B09F0C2C414
:10312000D8011C92B301655A774FBACF20E438E03A
:10313000620E731ED3018D919C91E0ECF7EF6E0E41
:103140007F1E830104591F4F049709F0ABC4D301BC
:10315000AB5BB74F8D919C91119782599F4FF301B3
:10316000E80FF91F40815181628173818A56904036
:103170008D939C93C3010E94E5104FC420E438E076
:10318000620E731ED3018D919C91E0ECF7EF6E0EF1
:103190007F1E019709F0B4C4D301AB5BB74F8D918B
:1031A0009C911197F301E80FF91FE259FF4F20811D
:1031B00001968D939C93830104591F4F223008F090
:1031C000B2C130E08BE190E0289FF001299FF00D23
:1031D000389FF00D1124ED59F14F81818983D80179
:1031E0001C92C301BE016F5F7F4F41E050E05BCF97
:1031F00020E438E0620E731ED3018D919C91E0ECC7
:10320000F7EF6E0E7F1E830104591F4F029709F0DE
:1032100049C4D301AB5BB74F2D913C911197F3019A
:10322000E20FF31FE259FF4F80812F5F3F4FF30101
:10323000E20FF31FE259FF4F60812F5F3F4F2D9345
:103240003C930E946B2DE9C320E438E0620E731EAC
:10325000D3018D919C91E0ECF7EF6E0E7F1E0197EC
:1032600009F04EC4D301AB5BB74F8D919C91119780
:10327000F301E80FF91FE259FF4F408101968D934A
:103280009C93830104591F4F423008F04CC1D80170
:103290001C92242F30E08BE190E0289FF001299FC1
:1032A000F00D389FF00D1124ED59F14FE1814423C9
:1032B00021F0413009F0ACC00AC0F0E0EE0FFF1F72
:1032C000EE0FFF1FE60DF71DE259F74FB9C0F0E012
:1032D000EE0FFF1FEE0FFF1FE60DF71DE258F74F31
:1032E000AFC020E438E0620E731ED3018D919C9133
:1032F000E0ECF7EF6E0E7F1E830104591F4F059718
:1033000009F08AC3A3014B5B574FDA012D913C9121
:103310001197F301E20FF31FE259FF4FE0812F5F96
:103320003F4F2D933C9321503040D8011C92EE2307
:1033300021F0E13009F0F7C01AC0E091640EF0E02E
:1033400021593F4FD301A20FB31FED90FD900D9176
:103350001C912A563040DA012D933C93EE0FFF1F4B
:10336000EE0FFF1FE60DF71DE259F74FD4C0E091B5
:103370007F0EF0E021593F4FD301A20FB31FED9014
:10338000FD900D911C912A563040DA012D933C930B
:10339000EE0FFF1FEE0FFF1FE60DF71DE258F74F70
:1033A000BAC0E0E4F8E06E0E7F1ED3018D919C91CF
:1033B000E0ECF7EF6E0E7F1E019709F0A1C3D30179
:1033C000AB5BB74F8D919C911197F301E80FF91FFB
:1033D000E259FF4F408101968D939C9383010459DC
:1033E0001F4F423008F09FC0D8011C92242F30E0BC
:1033F0008BE190E0289FF001299FF00D389FF00DA0
:103400001124ED59F14FE181442339F0413079F035
:1034100080E090E0A0E0B0E017C0F0E0EE0FFF1F0A
:10342000EE0FFF1FE60DF71DEA58F74F09C0F0E059
:10343000EE0FFF1FEE0FFF1FE60DF71DE257F74FD0
:1034400080819181A281B38189839A83AB83BC837C
:10345000C301BE016F5F7F4F24CE20E438E0620ECF
:10346000731ED3018D919C91E0ECF7EF6E0E7F1EE1
:10347000830104591F4F059709F0CEC2A3014B5B8E
:10348000574FDA012D913C911197F301E20FF31F91
:10349000E259FF4FE0812F5F3F4F2D933C93215026
:1034A0003040D8011C92EE2319F0E130E1F51AC04A
:1034B000E091640EF0E021593F4FD301A20FB31FFA
:1034C000ED90FD900D911C912A563040DA012D931C
:1034D0003C93EE0FFF1FEE0FFF1FE60DF71DEA589E
:1034E000F74F19C0E0917F0EF0E021593F4FD30113
:1034F000A20FB31FED90FD900D911C912A56304004
:10350000DA012D933C93EE0FFF1FEE0FFF1FE60D28
:10351000F71DE257F74FE082F18202831383C30164
:103520000E94C80EF8C285E029CDE0E4F8E06E0EF6
:103530007F1ED3018D919C91E0ECF7EF6E0E7F1E04
:10354000830104591F4F892B09F0ACC2D8011C928A
:10355000B301615A774FA4CD20E438E0620E731EA8
:10356000D3018D919C91E0ECF7EF6E0E7F1E0497D6
:1035700009F0C6C2F301EB5BF74F8081918182595C
:103580009F4FD301A80FB91FED90FD900D911C9195
:103590008A56904091838083C801B70120E030E0D3
:1035A00040E050E00E94FA41181664F5F301ED592D
:1035B000F74F8081882379F02FE538E0620E731E83
:1035C000D301ED92FD920D931C931397E1EAF7EF6F
:1035D0006E0E7F1E12C02EE938E0620E731ED301FC
:1035E000ED92FD920D931C93139722E637EF620E36
:1035F000731E1082C3010E94C80E4CE650E0640E98
:10360000751E7BC22CE630E0620E731E88E07DC220
:1036100020E438E0620E731ED3018D919C91E0ECA2
:10362000F7EF6E0E7F1E830104591F4F892B09F09F
:1036300039C2D8011C9210E0F301E256F74F6081C5
:1036400071818281938120E030E040E050E00E946F
:10365000694018160CF011E01983C3CD20E438E05E
:10366000620E731ED3018D919C91E0ECF7EF6E0E0C
:103670007F1E019709F044C2D301AB5BB74F8D9118
:103680009C911197F301E80FF91FE259FF4F208138
:1036900001968D939C93F301E256F74F222349F054
:1036A00080E090E0A0E0B0E080839183A283B383C8
:1036B00011C02FE538E0620E731ED3012D913D91AC
:1036C0004D915C9161EA77EF660E771E208331831E
:1036D00042835383C3010E94C80E8CE690E0680EBB
:1036E000791E0BC220E438E0620E731ED3012D91C7
:1036F0003C91E0ECF7EF6E0E7F1E2A30310508F4A6
:10370000FFC1D301AB5BB74F8D919C911197FC0129
:10371000E259FF4FE60DF71D4081518162817381AF
:103720004F87588B698B7A8B049611969C938E9356
:103730000497FC01EE58FF4FE60DF71D6081718183
:103740007E876D87FC01EC58FF4FE60DF71D408129
:1037500051816281738149875A876B877C87F30126
:10376000E80FF91FE858FF4F10810B968D939C933B
:103770002B30310581F064E578E0660E771ED301C9
:103780008D919C91ECEAF7EF6E0E7F1E0B96281739
:10379000390709F0E3C12D853E852B54314008F0EF
:1037A000ADC06F85788989899A8920E030E04AE741
:1037B00054E40E946D4020E030E44CE157E40E9464
:1037C000434220E030E040E855E40E94694088230D
:1037D0000CF094C06CE670E0660E771ED3011C926C
:1037E000E4E9FFEF6E0E7F1EF301E05CF74F24E586
:1037F00038E0620E731ED3018D919C912CEA37EF55
:10380000620E731E0B96208131812817390719F437
:10381000C3010E946E12A12E0E942B341B012C01A9
:103820004BE558E0640E751ED301CD90DD90ED9010
:10383000FC90E5EAF7EF6E0E7F1EF0E010FDF1E080
:10384000E0E0A1FCE1E06F85788989899A894D855E
:103850005E8509851A852B853C85AF2E8E2E0E94AC
:10386000BB2D0E942B3462197309840995090E94AB
:1038700006417B018C012D853E85B90180E090E0F9
:103880000E94064120E030E04AE754E40E944342AF
:103890009B01AC01C801B7010E946D4069837A8326
:1038A0008B839C83C301BE016F5F7F4F44E050E078
:1038B0000E94D61DC3016AE77EE044E050E00E940A
:1038C000D61DC30165E97EE044E050E00E94D61DAC
:1038D0004FE558E0640E751EF30180819181A2814D
:1038E000B38121EA37EF620E731E8D839E83AF830F
:1038F000B887C301BE016B5F7F4FD3CB4CE650E06E
:10390000640E751E81E001C120E438E0620E731E72
:10391000D3018D919C91E0ECF7EF6E0E7F1E830139
:1039200004591F4F892B09F0BDC0D8011C92C30157
:1039300061E00E94F60EEFC020E438E0620E731ED4
:10394000D3018D919C91E0ECF7EF6E0E7F1E830109
:1039500004591F4F892B09F0A5C0D8011C9288E09B
:1039600089833FCC20E438E0620E731ED3018D9131
:103970009C91E0ECF7EF6E0E7F1E830104591F4F00
:10398000892B09F049C0D8011C92E2E5F8E06E0EDF
:103990007F1ED3018C91EEEAF7EF3BC0E0E4F8E044
:1039A0006E0E7F1ED3018D919C91E0ECF7EF6E0EB1
:1039B0007F1E019709F0A4C0D301AB5BB74F8D9177
:1039C0009C911197F301E80FF91FE259FF4F2081F5
:1039D00001968D939C93F301EE5AF74F41C020E47A
:1039E00038E0620E731ED3018D919C91E0ECF7EFED
:1039F0006E0E7F1E830104591F4F892B69F4D80175
:103A00001C92E3E5F8E06E0E7F1ED3018C91EDEA87
:103A1000F7EF6E0E7F1EA4CF86E0D8018C937BC09B
:103A2000E0E4F8E06E0E7F1ED3018D919C91E0ECF6
:103A3000F7EF6E0E7F1E019709F062C0D301AB5BFA
:103A4000B74F8D919C911197F301E80FF91FE2593F
:103A5000FF4F208101968D939C93F301ED5AF74F10
:103A6000222319F081E0808344C0108242C020E408
:103A700038E0620E731ED3018D919C91E0ECF7EF5C
:103A80006E0E7F1E830104591F4F892B59F4D801F4
:103A90001C9288E00E94DF361982892B09F0A1CBA5
:103AA00081E05ECF86E06ACA20E438E0620E731ED1
:103AB000D3018D919C91E0ECF7EF6E0E7F1E019784
:103AC000F9F4D301AB5BB74F8D919C911197F30142
:103AD000E80FF91FE259FF4F208101968D939C93C7
:103AE000222319F088E060E002C088E061E00E94D3
:103AF000AC362CE630E0620E731ED3011C9207C078
:103B00002CE630E0620E731E86E0D3018C93E4E96C
:103B1000FFEF6E0E7F1EC3016B890E942B222CE6E5
:103B200030E0620E731ED3018C9165960FB6F89447
:103B3000DEBF0FBECDBFCF91DF911F910F91FF90E0
:103B4000EF90DF90CF90BF90AF909F908F907F903D
:103B50006F905F904F903F902F900895ECE6F0E0CB
:103B60006E0E7F1ED1CFFC0188E794E091838083A5
:103B7000CF010E94D01D08950F931F938C0161E027
:103B80000E94362088E794E0F801918380830E5AE2
:103B9000174FF801119210821F910F910895089507
:103BA000FC018FE994E09183808308950F931F9324
:103BB000CF93DF938C0120E030E0EC01C95BD74F5D
:103BC00010C0F801E20FF31F88819981E80FF91FF7
:103BD000E259FF4FDB01A20FB31F8C9180832F5F4F
:103BE0003F4F2417350768F388819981840F951F0B
:103BF00099838883DF91CF911F910F910895CF937F
:103C0000DF93DC01FC01E359FF4F6081EC01C459F3
:103C1000DF4F67FF0EC06058608382E08883ED91BC
:103C2000FC91119760580488F589E02DCD01199514
:103C30000EC0FC01E05CF74F80819181A80FB91F95
:103C4000A359BF4F2C912883019791838083DF91E3
:103C5000CF910895CF93DF93EC01FC01E75BF74F21
:103C60006D3719F481E08083DAC09081992311F0D7
:103C700080E268276E3749F4992339F4CD5BD74F3A
:103C800019821882C354D840C4C0CD5BD74F288155
:103C90003981C354D84021153105A1F4C359DF4FF0
:103CA0006883C152D84F8881CC54D840882309F406
:103CB00048C0C15BD74F8FEF9FEF99838883CF5464
:103CC000D8403FC021303105B1F4DE01AE5BB74FC3
:103CD000FE01E05CF74F67FF09C083E08C93862FFD
:103CE00090E08F779070108281832BC082E08C935C
:103CF0006083118226C02230310589F4CE5BD74F14
:103D00008881C254D840833051F4FE01E05CF74F03
:103D100080819181860F911D9183808312C0CE5B3B
:103D2000D74F8881F901E81BF1099A918A91C05413
:103D3000D840E817F90728F4EC0FFD1FE259FF4FB0
:103D40006083C45BD74F8881CC54D8408823F1F07E
:103D5000FE01E15BF74F808191818627282F229514
:103D60002827022E269526952025022E26952025E9
:103D70002770082E892F269507942795902D822746
:103D8000069427959025822791838083FE01ED5B21
:103D9000F74F408151814F5F5F4F51834083CE5B2E
:103DA000D74F88813A912A91280F311D2C9668812E
:103DB000CC54D840862F90E0880F991F280F391FC8
:103DC0004217530731F511821082CB5BD74F1992FE
:103DD000199219821882C754D840662341F0C15BFA
:103DE000D74F88819981CF54D840892B19F4CE01BF
:103DF0000E94FF1DFE01E55BF74F9081992349F07A
:103E0000C359DF4F90588881CD56D040891709F4A7
:103E10001082FE01E75BF74F808181111082DF91F4
:103E2000CF91089588E99DE00E943108089588E9BE
:103E30009DE00E942A0808951F93CF93DF93EA0123
:103E400084EE9DE0422F0E948C0B10E009C084EEAE
:103E50009DE00E94C50AFE01E10FF11D80831F5FF6
:103E600084EE9DE00E94BC0A892B89F7812FDF91A7
:103E7000CF911F910895FF920F931F93CF93DF93DC
:103E8000142F052FF22E84EE9DE00E94A80A212F08
:103E9000302FC901EC0110E006C084EE9DE069916D
:103EA0000E94340B1F5F1F15C0F384EE9DE00E943B
:103EB000770BDF91CF911F910F91FF9008951F9382
:103EC00018E084EE9DE0612F0E94A80A84EE9DE038
:103ED0000E94770B882331F582EC90E165E973E06D
:103EE0000E94643D82EC90E1612F4AE050E00E9424
:103EF000C23C82EC90E169EA73E00E94643D82EC8E
:103F000090E1612F40E150E00E94C23C82EC90E1E0
:103F10006EEA73E00E94613E61E070E080E090E054
:103F20000E9451341F5F183761F61F910895AF92B8
:103F3000BF92CF92DF92EF92FF920F931F93DF9386
:103F4000CF9300D00F92CDB7DEB77C016E010894FD
:103F5000C11CD11C56010FE010E0D701ED91FC917E
:103F60000088F189E02DC701B8011995F501819309
:103F70005F010F5F1F4F0331110579F789819A8126
:103F8000AB81BC818F5F9F4FAF4FBF4FD9F480E0B3
:103F900092ECA1E0B0E089839A83AB83BC830FE00D
:103FA00010E0D701ED91FC910288F389E02DC70163
:103FB000B801D6014D916D0119950F5F1F4F033167
:103FC000110579F749815A816B817C8182EC90E1FE
:103FD0000E94543984EE9DE00E94900B0E94660A74
:103FE0000E946007870108591F4FF80160837183A1
:103FF0008283938382EC90E160EB73E00E94643DE6
:10400000D8014D915D916D917C9182EC90E122E01F
:1040100030E00E944B3E82EC90E162EC73E00E9443
:10402000613E0F900F900F900F90CF91DF911F91F5
:104030000F91FF90EF90DF90CF90BF90AF900895D9
:10404000CF93DF93EC0108C082EC90E10E940C3A20
:10405000682FCE010E942A1E82EC90E10E94DB397B
:10406000181619068CF3DF91CF9108957F928F92E5
:104070009F92AF92BF92CF92DF92EF92FF920F93F7
:104080001F93CF93DF93FC018FE994E091838083AA
:10409000E45BF74F60833997118210823696108265
:1040A00039971182108235961192119211821082E5
:1040B0003A961082AA24BB248824992488E99DE09A
:1040C000B5010E942A08182FB501695F7F4F88E962
:1040D0009DE00E942A08E401EE24FF24C12EDD2485
:1040E000C094D094082F10E000951095C633D105E8
:1040F000B4F4B6010E2C02C0759567950A94E2F7E8
:1041000061708C2F0E94F935B8010E2C02C0759594
:1041100067950A94E2F761708C2F0E94AC36089480
:10412000E11CF11C219688E0E816F104F9F60894E8
:10413000A11CB11C88E090E0880E991E97E0A9169A
:10414000B10409F0BBCFDF91CF911F910F91FF9088
:10415000EF90DF90CF90BF90AF909F908F907F9027
:1041600008951F93162F862F8D57823050F482ECBE
:1041700090E16DE70E94453A60E2612782EC90E1B0
:1041800002C082EC90E10E94453A1F9108958F92FF
:104190009F92AF92BF92CF92DF92EF92FF920F93D6
:1041A0001F93CF93DF93EC01BEE6EB2EF12CE80ECC
:1041B000F91E00E010E0A0E48A2EA8E09A2E880EF6
:1041C000991EFCE4AF2EF8E0BF2EA80EB91EEDE458
:1041D000CE2EE8E0DE2EC80ED91E2AC0F501808161
:1041E0008823F1F0F7012081F601808191818227F7
:1041F000282F22952827022E269526952025022E47
:10420000269520252770082E892F26950794279517
:10421000902D82270694279590258227918380836D
:10422000CE01F70161917F010E94B1200F5F1F4F06
:10423000F401808191810817190708F4CFCFF501A7
:104240008081882369F08E01035B174FCE01F8014E
:1042500060810E94B120F8016181CE010E94B120ED
:10426000C05CD74F19821882279619821882DF9175
:10427000CF911F910F91FF90EF90DF90CF90BF9063
:10428000AF909F908F9008950F931F93CF93DF93DC
:10429000EC01062FFC01E05CF74FC95BD74F88812A
:1042A00099819183808382EC90E16EE70E94453A88
:1042B00025968881CC54D8408823F9F0C35BD74F2A
:1042C0008FEF9FEF8027282F22952827022E2695F3
:1042D00026952025022E269520252770082E892F29
:1042E000269507942795902D82270694279590254B
:1042F000822799838883CD54D840CE01602F0E94B5
:10430000B120DE01A05CB74F2D913C911197FE01C9
:10431000E45BF74F2038310530F580818823F1F0D8
:10432000FE01E35BF74F808191818227282F229540
:104330002827022E269526952025022E2695202513
:104340002770082E892F269507942795902D822770
:10435000069427959025822791838083CE01C05CA7
:10436000D74F688149C08081882309F437C03068FD
:10437000FE01E35BF74F808191818327282F2295EF
:104380002827022E269526952025022E26952025C3
:104390002770082E892F269507942795902D822720
:1043A00006942795902582272C918227282F2295E5
:1043B0002827022E269526952025022E2695202593
:1043C0002770082E892F269507942795902D8227F0
:1043D0000694279590258227918380838E01005C27
:1043E000174FF801208131813068CE01632F0E9480
:1043F000B120CE01F80160810E94B120DF91CF9100
:104400001F910F9108950F931F93DF93CF930F92F6
:10441000CDB7DEB78C016983DC01A95BB74F8D9105
:104420009C911197F801E80FF91FE259FF4F608343
:1044300001968D939C93F801E359FF4FC801608169
:104440000E944421C8010E94C7200F90CF91DF91A4
:104450001F910F9108956F927F929F92AF92BF929A
:10446000CF92DF92EF92FF920F931F93DF93CF9340
:10447000CDB7DEB76C970FB6F894DEBF0FBECDBFD9
:104480007C016DB67EB670E0CB01805890408E31D5
:10449000910508F0C9C688539F4FD701A05CB74F5C
:1044A000FC01EE0FFF1F0590F491E02D19948D9102
:1044B0009C91892B09F0FAC5D701ED91FC910280FE
:1044C000F381E02DC70119958C01D701ED91FC9185
:1044D0000280F381E02DC7011995DC010D900020C9
:1044E000E9F7AD0141505040481B590B20E030E046
:1044F000B701695B774F11C0F701E20FF31FDB01D2
:104500008D919C91E80FF91FE259FF4FD801A20F3E
:10451000B31F8C9180832F5F3F4F2417350760F3C3
:10452000E7C08D919C91892B09F0C0C5D701ED9111
:10453000FC910480F581E02DC70119958C01D7010C
:10454000ED91FC910480F581E02DC7011995DC0106
:104550000D900020E9F7AD0141505040481B590B28
:1045600020E030E0B701695B774F11C0F701E20F3F
:10457000F31FDB018D919C91E80FF91FE259FF4F6A
:10458000D801A20FB31F8C9180832F5F3F4F241758
:10459000350760F3ADC08D919C91892B09F086C5DC
:1045A000D701ED91FC910680F781E02DC7011995A7
:1045B0008C01D701ED91FC910680F781E02DC701B8
:1045C0001995DC010D900020E9F7AD0141505040F4
:1045D000481B590B20E030E0B701695B774F11C0F1
:1045E000F701E20FF31FDB018D919C91E80FF91F9A
:1045F000E259FF4FD801A20FB31F8C9180832F5F28
:104600003F4F2417350760F373C08D919C91892B20
:1046100009F04CC5D701ED91FC910084F185E02DA6
:10462000C70119958C01D701ED91FC910084F185AA
:10463000E02DC7011995DC010D900020E9F7AD01CF
:1046400041505040481B590B20E030E0B701695BF6
:10465000774F11C0F701E20FF31FDB018D919C91A1
:10466000E80FF91FE259FF4FD801A20FB31F8C9139
:1046700080832F5F3F4F2417350760F339C08D913A
:104680009C91892B09F012C5D701ED91FC91028410
:10469000F385E02DC70119958C01D701ED91FC91AF
:1046A0000284F385E02DC7011995DC010D900020EF
:1046B000E9F7AD0141505040481B590B20E030E074
:1046C000B701695B774F11C0F701E20FF31FDB0100
:1046D0008D919C91E80FF91FE259FF4FD801A20F6D
:1046E000B31F8C9180832F5F3F4F2417350760F3F2
:1046F000FB0180819181840F951F918380832CE63B
:1047000030E0E20EF31ED7011C92E4E9FFEFEE0E5B
:10471000FF1E8AC58D919C91892B09F0C7C4D701D2
:10472000ED91FC910484F585E02DC70119958C016C
:10473000D701ED91FC910484F585E02DC701199511
:10474000DC010D900020E9F7AD0141505040481BBD
:10475000590B20E030E0B701695B774F11C0F701DA
:10476000E20FF31FDB018D919C91E80FF91FE259D5
:10477000FF4FD801A20FB31F8C9180832F5F3F4F53
:104780002417350760F3B4CF8D919C91892B09F0E4
:104790008DC4D701ED91FC910684F785E02DC7010A
:1047A00019958C01D701ED91FC910684F785E02DD8
:1047B000C7011995DC010D900020E9F7AD014150CA
:1047C0005040481B590B20E030E0B701695B774F40
:1047D00011C0F701E20FF31FDB018D919C91E80FEF
:1047E000F91FE259FF4FD801A20FB31F8C918083AC
:1047F0002F5F3F4F2417350760F37ACF8D919C913F
:10480000892B09F053C420E030E0B701695B774F92
:10481000F701E20FF31FDB014D915C91E40FF51FEF
:10482000E259FF4FD901A057BB4F8C9180832F5F76
:104830003F4F2A30310561F7465F5F4F1FC28D91B0
:104840009C91870104591F4F029709F0D0C3D701EB
:10485000AB5BB74F2D913C911197F701E20FF31F1E
:10486000E259FF4F80812F5F3F4FF701E20FF31FA7
:10487000E259FF4F60812F5F3F4F2D933C930E9481
:10488000F935B2C38D919C91870104591F4F02974E
:1048900009F0ADC3D701AB5BB74F2D913C91119798
:1048A000F701E20FF31FE259FF4F80812F5F3F4F67
:1048B000F701E20FF31FE259FF4F60812F5F3F4F77
:1048C0002D933C930E94AC368FC38D919C918701B0
:1048D00004591F4F019709F08AC3D701AB5BB74F4B
:1048E0002D913C911197F701E20FF31FE259FF4F11
:1048F00080812F5F3F4F2D933C930E94DF36898349
:10490000D701A95BB74F2D913C911197F701E20FA9
:10491000F31FE259FF4F80832F5F3F4F2D933C934E
:1049200063C38D919C91870104591F4F029709F031
:104930005EC3D701AB5BB74F2D913C911197F70147
:10494000E20FF31FE259FF4F80812F5F3F4F119617
:104950003C932E9322593F4FF701E20FF31F6081E2
:1049600071812C5630402D933C930E9419353CC3E5
:104970002CE630E0E20EF31E86E0F701808324E9A6
:104980003FEFE20EF31E2D913C912230310508F4E9
:104990004BC4ADB69EB6D701AB5BB74F8D919C9122
:1049A0001197F701E80FF91FE259FF4FB080019608
:1049B0008D939C938DB79EB78B1991090FB6F89480
:1049C0009EBF0FBE8DBFCDB6DEB60894C11CD11CF4
:1049D0002230310519F491E0B916D9F08B2D90E011
:1049E00003962817390709F096C013C08D919C9142
:1049F0001197F701E80FF91FE259FF4F2081019647
:104A000011969C938E93F601E30FF11D20833F5F77
:104A100004C030E0D701AB5BB74F3B1538F3A0E4DF
:104A2000B8E0EA0EFB1EF7018081918120EC37EFA0
:104A3000E20EF31E029701F1F701EB5BF74F808165
:104A4000918182599F4FD701A80FB91F0D911C91D9
:104A50008C5690409183808333E0093E130770F0B9
:104A60008CE690E0E80EF91E89E0D7018C93E4E92A
:104A7000FFEFEE0EFF1E4FC001E010E02CE630E02D
:104A8000E20EF31ED7011C921093800D00937F0D50
:104A9000E2E0F0E0EE0EFF1EF0927C0DE0927B0D66
:104AA00022E93FEFE20EF31E80E00E94A50531E00F
:104AB000B31629F4D6018C910E94BF0512C0D09282
:104AC000830DC092820DB092850D1092860D82E00A
:104AD00096E09093880D8093870DF60180810E9467
:104AE000E8050E94F40720917F0D3091800D8091A0
:104AF0007D0D90917E0D82179307C9F70E94A20742
:104B0000F701E95BF74F000F111F80819181080FBA
:104B1000191F118300838A2D992D9C010FB6F894DB
:104B20003EBF0FBE2DBF80C38D919C91870104595C
:104B30001F4F039709F075C3D701AB5BB74F8D913A
:104B40009C911197FC01E259FF4FEE0DFF1D608112
:104B50007181F701E80FF91FE059FF4F408103967B
:104B60008D939C93D701ED91FC910288F389E02D00
:104B7000C701199553C38D919C91870104591F4F0B
:104B8000029709F04EC3D701AB5BB74F8D919C9153
:104B9000119782599F4FF701E80FF91F60817181CA
:104BA0008C5690408D939C93D701ED91FC91008899
:104BB000F189E02DC70119958983D701A95BB74F0A
:104BC0002D913C911197F701E20FF31FE259FF4F2E
:104BD00080832F5F3F4F20C38D919C91029709F0F6
:104BE00065C2D701AB5BB74F8D919C911197F701CF
:104BF000E80FF91FE259FF4F60810196F701E80FB6
:104C0000F91FE259FF4FA08001968D939C938E016E
:104C1000015F1F4FC8010E94110AC8010E943D0890
:104C2000DD24B02EC12E8E01095F1F4F8B2D9C2DD0
:104C3000B8010E947B09D394AD14C0F7882311F109
:104C400020E030E0B701695B774F8E01095F1F4FAD
:104C5000F701E20FF31FDB014D915C91E40FF51FAB
:104C6000E259FF4FD801A20FB31F8C9180832F5FB1
:104C70003F4F2830310561F7485F5F4FFB0151839B
:104C800040833DCD2CE630E0E20EF31E85E09CC271
:104C90008D919C910B9709F009C2D701AB5BB74F7F
:104CA0008D919C911197F701E80FF91FE259FF4F81
:104CB0006081019611969C938E9347E0C42ED12C6F
:104CC000CC0EDD1EAD01C601BC2CA92E8E01015FEC
:104CD0001F4FFA0180819181F701E80FF91FE25916
:104CE000FF4F20810196FA0191838083F601219381
:104CF0006F01E017F10769F78D919C911197F7010A
:104D0000E80FF91FE259FF4F10810196F701E80FF4
:104D1000F91FE259FF4F008101968D939C93C601C4
:104D20000E94110AC6010E943009C6016B2D7A2D1E
:104D30000E940F09C601612F40E00E94CF0810E0D9
:104D40003FE0A32EB12CAC0EBD1E27E4C22E28E0FE
:104D5000D22ECE0CDF1C13C0C5010E947E088983B1
:104D6000D6012D913C911197F701E20FF31FE25903
:104D7000FF4F80832F5F3F4F2D933C931F5F101792
:104D800058F3ECE6F0E0EE0EFF1EBDCC8D919C9149
:104D90000B9709F08BC1D701AB5BB74F8D919C91FD
:104DA0001197F701E80FF91FE259FF4F6081019653
:104DB00011969C938E9397E0C92ED12CCC0EDD1EBC
:104DC000AD01C601BC2CA92E8E01015F1F4FFA0157
:104DD00080819181F701E80FF91FE259FF4F20818F
:104DE0000196FA0191838083F60121936F01E01708
:104DF000F10769F78D919C911197F701E80FF91F61
:104E0000E259FF4F00810196F701E80FF91FE259BF
:104E1000FF4F108101968D939C93C6010E94110A49
:104E2000C6010E943009C6016B2D7A2D0E940F0920
:104E3000C601602F412F0E94CF0861CC8D919C91BB
:104E4000029709F0BCC1D701AB5BB74F8D919C9124
:104E50001197F701E80FF91FE259FF4F60810196A2
:104E6000F701E80FF91FE259FF4FC08001968D93BB
:104E70009C9384EE9DE04C2D0E948C0BDD248701D9
:104E8000095B174F14C084EE9DE00E94C50A898318
:104E9000D8012D913C911197F701E20FF31FE259D0
:104EA000FF4F80832F5F3F4F2D933C93D39484EE2D
:104EB0009DE00E94BC0A892B31F7870104591F4FDE
:104EC000DC1409F4ABC181E0ADC18D919C910297D6
:104ED00008F4ECC087010B5B174FD8018D919C91B2
:104EE0001197F701E80FF91FE259FF4F6081019612
:104EF0008D939C9384EE9DE00E94A80ADD2480E4BB
:104F0000A82E88E0B82EAE0CBF1C12C0F80180811C
:104F10009181F701E80FF91FE259FF4F6081019677
:104F2000D8018D939C9384EE9DE00E94340BD39422
:104F30002D2D30E0F50180819181019728173907E7
:104F400028F384EE9DE00E94770BD9CB8D919C9144
:104F5000870104591F4F019709F049C0D701AB5B86
:104F6000B74F2D913C911197F701E20FF31FE259D2
:104F7000FF4F80812F5F3F4F2D933C930E94470A44
:104F800033C08D919C91870104591F4F019779F58A
:104F9000D701AB5BB74F2D913C911197F701E20F11
:104FA000F31FE259FF4F80812F5F3F4F2D933C93BA
:104FB0000E94550A19C08D919C91870104591F4F79
:104FC0000197A9F4D701AB5BB74F2D913C91119795
:104FD000F701E20FF31FE259FF4F80812F5F3F4F30
:104FE0002D933C930E94500AD8011C921DC186E06B
:104FF000F801808319C18D919C91019709F056C0E9
:10500000D701AB5BB74F8D919C911197F701E80FDA
:10501000F91FE259FF4F208101968D939C932EBD7D
:105020000DB407FEFDCF2EB52983D701A95BB74F7D
:105030008D919C911197F701E80FF91FE259FF4FED
:10504000208301968D939C935ACB8D919C91892BB3
:1050500069F526E630E0E20EF31ED7016D917C91F2
:10506000EAE9FFEFEE0EFF1E870120E030E0A70126
:10507000495B574F10C0F701E20FF31FDA018D9122
:105080009C91E80FF91FE259FF4FD80111968C91BE
:1050900080832F5F3F4F0F5F1F4F2617370758F34F
:1050A000FA0180819181860F971F27CB2CE630E093
:1050B000E20EF31E88C08D919C91870104591F4F09
:1050C000892B09F0AEC080918B0D90918C0DA09131
:1050D0008D0DB0918E0D8B839C83AD83BE83DE01DD
:1050E0001396A701495B574FFA0120813181F701DF
:1050F000E20FF31FE259FF4F8B817FC08D919C918E
:10510000870104591F4F049709F08BC0D701AB5B8F
:10511000B74F2D913C91119722593F4FF701E20F64
:10512000F31F60817181828193812A5630402D93D3
:105130003C930E94010572C08D919C918701045996
:105140001F4F892B09F06DC00E94FA0489839A834E
:10515000D701A95BB74F2D913C911197F701E20F51
:10516000F31FE259FF4F81938A8180832E5F3F4F67
:1051700053C08D919C91029711F5D701AB5BB74F4E
:105180008D919C91119782599F4FF701E80FF91F5C
:105190000190F081E02D8C5690408D939C93CF012F
:1051A0000297870104591F4F069738F48E2F0E94EB
:1051B000F10480E00E94B10531C085E033C0ECE627
:1051C000F0E0EE0EFF1E86E0D7018C939ECA8D9113
:1051D0009C91870104591F4F892B19F5D701A859B4
:1051E000BF4FA701495B574FFA0120813181F70179
:1051F000E20FF31FE259FF4F8C91819311968C912E
:105200001197819312968C911297819313968C919A
:1052100080832C5F3F4FDA012D933C93F80110827D
:1052200003C086E0D8018C93870104591F4FC70142
:10523000F80160810E940322D8018C910FB6F89486
:105240007EBE0FBE6DBE6C960FB6F894DEBF0FBE6D
:10525000CDBFCF91DF911F910F91FF90EF90DF9025
:10526000CF90BF90AF909F907F906F9008958BE10B
:10527000E3E6FEE0DF01982F1D929A95E9F77B9611
:10528000DF011D928A95E9F708952F923F924F9280
:105290005F926F927F928F929F92AF92BF92CF92C6
:1052A000DF92EF92FF920F931F93DF93CF93CDB7CF
:1052B000DEB764970FB6F894DEBF0FBECDBF2F8365
:1052C000388749875A87EB86FC860D871E87D88AE0
:1052D000CF86BA8AA98A0E94434220E030E04AE79A
:1052E00054E40E946D409B01AC010E94F23F5B01BF
:1052F0006C0120E030E040E050E00E94FA41882359
:105300004CF0C601B50120E030E040E05FE30E94D0
:10531000F23F08C0C601B50120E030E040E05FE3A5
:105320000E94F13F0E94D5400E94084120E030E0F9
:1053300040E05FE30E9443426B837C838D839E83C6
:105340006B817C818D819E812F81388549855A852D
:105350000E946D402B853C854D855E850E944342B1
:105360000E9456400E94DA407A83698384C329816F
:105370003A81B90180E090E00E9406412B813C8196
:105380004D815E810E946D402F81388549855A8507
:105390000E9443423B014C01EF85F8896083718391
:1053A000828393832B853C854D855E850E94FA41DF
:1053B00018160CF45BC3C401B3012F8138854985ED
:1053C0005A850E946D407B018C0160E070E080E0B6
:1053D00090E4A80197010E946D405B016C0120E000
:1053E00030E040E050E00E94FA4188234CF0C601D2
:1053F000B50120E030E040E05FE30E94F23F08C0EA
:10540000C601B50120E030E040E05FE30E94F13FDB
:105410000E94D5400E940841A80197010E94434282
:105420009B01AC0160E070E080E090E40E94F13FFD
:1054300020E030E040E050E00E94FA411816A4F568
:10544000C601B50120E030E040E050E00E94FA41A2
:1054500088234CF0C601B50120E030E040E05FE376
:105460000E94F23F08C0C601B50120E030E040E0F4
:105470005FE30E94F13F0E94D5400E940841A801CD
:1054800097010E9443429B01AC0160E070E080E024
:1054900090E40E94F13F2DEC3CEC4CEC5DE30E946B
:1054A000694087FDE3C234C0C601B50120E030E0A9
:1054B00040E050E00E94FA4188234CF0C601B5015B
:1054C00020E030E040E05FE30E94F23F08C0C60108
:1054D000B50120E030E040E05FE30E94F13F0E9430
:1054E000D5400E940841A80197010E9443429B01B8
:1054F000AC0160E070E080E090E40E94F13F2DECB0
:105500003CEC4CEC5DEB0E94FA4118160CF4AEC278
:105510006F81788589859A859B01AC010E94F23F55
:105520009B01AC01C401B3010E94694088230CF0C7
:1055300079C16F81788589859A85A40193010E943C
:105540006D401B012C011C8A1B8A2B893C89B901E7
:1055500080E090E00E9406415B016C01C201B10154
:10556000A60195010E94F13F20E030E040E05FE3BA
:105570000E946940181634F48B899C8901969C8B93
:105580008B8BE3CFC601B501A40193010E94434276
:105590009B01AC016F81788589859A850E94F13FD6
:1055A0005B016C0120E030E040E050E00E94FA41F5
:1055B000181624F0D7FAD094D7F8D094C401B301C8
:1055C000A60195010E946D403B014C0160E070E036
:1055D00080E090E4A40193010E946D405B016C01A6
:1055E00020E030E040E050E00E94FA4188234CF097
:1055F000C601B50120E030E040E05FE30E94F23FE9
:1056000008C0C601B50120E030E040E05FE30E9441
:10561000F13F0E94D5400E940841A40193010E94DD
:1056200043429B01AC0160E070E080E090E40E94A6
:10563000F13F20E030E040E050E00E94FA411816CF
:10564000A4F5C601B50120E030E040E050E00E9442
:10565000FA4188234CF0C601B50120E030E040E07B
:105660005FE30E94F23F08C0C601B50120E030E0D0
:1056700040E05FE30E94F13F0E94D5400E94084154
:10568000A40193010E9443429B01AC0160E070E0E1
:1056900080E090E40E94F13F2DEC3CEC4CEC5DE3AB
:1056A0000E9469408823ACF5E1C1C601B50120E044
:1056B00030E040E050E00E94FA4188234CF0C601FF
:1056C000B50120E030E040E05FE30E94F23F08C017
:1056D000C601B50120E030E040E05FE30E94F13F09
:1056E0000E94D5400E940841A40193010E944342B8
:1056F0009B01AC0160E070E080E090E40E94F13F2B
:105700002DEC3CEC4CEC5DEB0E94FA4118160CF4CD
:10571000ADC1C801B70120E030E040E050E00E9498
:10572000FA4188234CF0C801B70120E030E040E0A6
:105730005FE30E94F23F08C0C801B70120E030E0FB
:1057400040E05FE30E94F13F0E94D5400E94084183
:105750009B01AC01C801B7010E94F13F20E030E09D
:1057600040E050E00E94FA41181674F5C801B701F4
:1057700020E030E040E050E00E94FA4188234CF005
:10578000C801B70120E030E040E05FE30E94F23F53
:1057900008C0C801B70120E030E040E05FE30E94AC
:1057A000F13F0E94D5400E9408419B01AC01C80115
:1057B000B7010E94F13F27E137EB41ED58E30E942A
:1057C000694088237CF552C1C801B70120E030E070
:1057D00040E050E00E94FA4188234CF0C801B70134
:1057E00020E030E040E05FE30E94F23F08C0C801E3
:1057F000B70120E030E040E05FE30E94F13F0E940B
:10580000D5400E9408419B01AC01C801B7010E942C
:10581000F13F27E137EB41ED58EB0E94FA411816B2
:105820000CF424C1C801B70120E030E040E251E4AB
:105830000E94694088230CF089C0C801B70120E0AC
:1058400030E040E050E00E94FA4188234CF0C8016B
:10585000B70120E030E040E05FE30E94F23F08C083
:10586000C801B70120E030E040E05FE30E94F13F73
:105870000E94D5400E9408419B01AC01C801B701BC
:105880000E94F13F20E030E040E050E00E94FA4109
:10589000181674F5C801B70120E030E040E050E090
:1058A0000E94FA4188234CF0C801B70120E030E0A3
:1058B00040E05FE30E94F23F08C0C801B70120E06A
:1058C00030E040E05FE30E94F13F0E94D5400E943B
:1058D00008419B01AC01C801B7010E94F13F27E1DB
:1058E00037EB41ED58E30E94694088237CF5BEC048
:1058F000C801B70120E030E040E050E00E94FA41EA
:1059000088234CF0C801B70120E030E040E05FE3BD
:105910000E94F23F08C0C801B70120E030E040E03B
:105920005FE30E94F13F0E94D5400E9408419B0125
:10593000AC01C801B7010E94F13F27E137EB41ED0F
:1059400058EB0E94FA4118160CF490C0C801B70138
:105950002B813C814D815E810E9443425B016C0141
:1059600020E030E040E050E00E94FA4188234CF013
:10597000C601B50120E030E040E05FE30E94F23F65
:1059800008C0C601B50120E030E040E05FE30E94BE
:10599000F13F0E94D5400E9408419B01AC01C60125
:1059A000B5010E94F13F20E030E040E050E00E946D
:1059B000FA41181674F5C601B50120E030E040E068
:1059C00050E00E94FA4188234CF0C601B50120E066
:1059D00030E040E05FE30E94F23F08C0C601B5013D
:1059E00020E030E040E05FE30E94F13F0E94D540BC
:1059F0000E9408419B01AC01C601B5010E94F13F24
:105A000027E137EB41ED58E30E946940882374F5A4
:105A100043C0C601B50120E030E040E050E00E9404
:105A2000FA4188234CF0C601B50120E030E040E0A7
:105A30005FE30E94F23F08C0C601B50120E030E0FC
:105A400040E05FE30E94F13F0E94D5400E94084180
:105A50009B01AC01C601B5010E94F13F27E137EB84
:105A600041ED58EB0E94FA411816B4F0E981FA8131
:105A70003197FA83E98329813A812230310508F090
:105A800076CC6B817C818D819E8120E030E040E08E
:105A90005FE30E94F23F50CC29813A81E989FA897B
:105AA0003183208364960FB6F894DEBF0FBECDBF5E
:105AB000CF91DF911F910F91FF90EF90DF90CF90EA
:105AC000BF90AF909F908F907F906F905F904F901E
:105AD0003F902F9008950F931F93082F162F882320
