:100000000C94B6010C94E3010C94E3010C94E3010D
:100010000C94E3010C94E3010C94E3010C94E301D0
:100020000C94E3010C94E3010C94E3010C94E301C0
:100030000C94E3010C94E3010C94E3010C94E301B0
:100040000C94E3010C94E3010C94E3010C94E301A0
:100050000C9483080C94E3010C94E3010C94162592
:100060000C94E3010C945C280C94A4290C94E301F7
:100070000C94E3010C94E3010C94E3010C94E30170
:100080000C94E3010C94E3010C94E3010C94E30160
:100090000C949C280C94E3290C94E3010C94C60462
:1000A0000C94E3010C94E3010C94E3010C94E30140
:1000B0000C94E3010C94E3010C94E3010C94E30130
:1000C0000C94E3010C94E3010C94E3010C94DC2800
:1000D0000C94222A0C94E3010C941C290C94612AA0
:1000E0000C94E30111112A11B211D1116312B71A44
:1000F000B71A9E120B1334138F13F2131A143E14F3
:100100006F149A14E614481598150B1622167E16CD
:10011000A816C219141A351AD719F3195C1A801ABD
:10012000B71AB71AB71AB71AB71AB71AB71AB71A47
:10013000B71AB71AB71AB71AB71AB71AB71AB71A37
:10014000B71AB71AB71AB71AB71AB71AB71AB71A27
:10015000B71AB71AB71AB71AB71AB71AB71AB71A17
:10016000B71AB71AB71AB71AB71AB71AB71AB71A07
:10017000B71AB71AB71AB71AB71AB71AB71AB71AF7
:10018000B71AB71AB71AB71AB71AB71AF616AA19BA
:10019000571F911FCB1F052079203F20B32013212B
:1001A00059213621AC218521402219227422542361
:1001B000D622FC23AC233D24582472249224BC2450
:1001C000F22008000000BE922449123EABAAAA2ADF
:1001D000BECDCCCC4C3E00000080BEABAAAAAA3E4D
:1001E00000000000BF000000803F00000000000889
:1001F0004178D3BB4387D1133D190E3CC3BD428226
:10020000AD2B3E68EC8276BED98FE1A93E4C80EFE3
:10021000FFBE01C4FF7F3F000000000007634236BD
:10022000B79BD8A71A39685618AEBAAB558C1D3C87
:10023000B7CC5763BD6DEDFD753EF6177231BF004B
:100240000000803F00002100240027002A002D002C
:100250003000330001010000040107010A01000021
:100260002200250028002B002E003100340002015E
:100270000000050108010B010000200023002600FA
:1002800029002C002F0032000001000003010601AC
:10029000090105050505070508080808020202020C
:1002A0000A0A080804040404010101010101010112
:1002B0000303030303030303040707070C0C0C0CDD
:1002C0000C0C0C0C020202020606060606060606C6
:1002D0000B0B0B0B0B0B0B0B010210202008081053
:1002E00020401020408002010201080402010102A6
:1002F000040810204080804020100804020180047F
:1003000002018040201008040201080402010102D9
:1003100004081020408001020408102040800000E2
:10032000090A02080B0C0D07060304010000000077
:1003300000000000000000000000000000000000BD
:100340000000000000000000000011100F0000007D
:10035000000000000000000000000000000000009D
:10036000000000000B025E03D12B040211241FBE0B
:10037000CFEFD1E2DEBFCDBF00E00CBF15E0A0E0C3
:10038000B2E0ECE9F8E600E00BBF02C007900D9286
:10039000A03CB107D9F71BBE15E1A0ECB5E001C048
:1003A0001D92A337B107E1F713E0CAE6D3E004C01A
:1003B0002297FE010E943D34C436D107C9F70E943E
:1003C000C2020C9441340C9400008091B1049091CD
:1003D000B20401969093B2048093B10408958130E1
:1003E000910541F46F5F7F4F71F480EC95E00E94BE
:1003F000160D0895892B39F46F5F7F4F21F480EC3F
:1004000095E00E940D0D089580E090E06FEF7FEF82
:100410000E94EF01089581E090E06FEF7FEF0E946E
:10042000EF01089588EB92E140E45BE46CE470E056
:100430000E94220988EB92E165EE71E02FEF3FEF19
:100440004FEF5FEF0E942A0980EC95E00E947D0D3E
:1004500087EE94E160E072E00E94B02E6FEF71E2EF
:100460006050724087EE94E14AE050E00E94912E85
:1004700087EE94E165E072E00E94B02E60EC75E0DA
:100480006050724087EE94E14AE050E00E94912E65
:1004900087EE94E16CE072E00E94B02E63E775E1B4
:1004A000605C754087EE94E14AE050E00E94912E36
:1004B00087EE94E162E172E00E94B02E60916F15C8
:1004C000709170156115710519F460E070E002C05B
:1004D0006357754187EE94E14AE050E00E94912E07
:1004E00087EE94E168E172E00E94B02E8DB79EB76E
:1004F0006FEF71E2681B790B87EE94E14AE050E000
:100500000E94912E87EE94E16FE172E00E94B02E7E
:1005100080916F1590917015009729F46DB77EB793
:100520006357754104C06DB77EB7681B790B87EEC2
:1005300094E14AE050E00E94912E089580EC95E00D
:100540000E94231D8091B1049091B20469E170E092
:100550000E940534892BA9F480919211882359F0C7
:1005600080919311882329F480EC95E00E94C009C2
:1005700002C01092931181E090E09093B2048093B6
:10058000B1040895CF93DF930E94CF250E941202F9
:10059000CBE5D9E20E949E022097E1F30E945B29FD
:1005A000F9CFF999FECF72BD61BDF89A80B5089573
:1005B000F999FECF1FBA72BD61BD40BD0FB6F89468
:1005C000FA9AF99A0FBE0895882319F48CB58062BF
:1005D00002C08CB58F7D8CBD08959CB5937F982B00
:1005E0009CBD08952CB5382F33702C7F322B3CBD29
:1005F0002DB590E0959587959595879581702E7F7F
:10060000822B8DBD089585E361E00E94F82785E384
:1006100061E00E9445278CB580618CBD8CB58064FB
:100620008CBD84E361E00E94452783E361E00E9482
:100630004527089581E080933D1260931A1210922D
:100640003B1210923C12089581E080933D1260931A
:100650001A1210923B1210923C1208952091191216
:1006600030E080911812281B3109C901089540918A
:10067000181280911912481718F02FEF3FEF0AC097
:10068000E42FF0E0E850FE4E8081282F30E04F5FED
:1006900040931812C9010895E0911812809119121F
:1006A000E81718F0EFEFFFEF06C0F0E0E850FE4E5D
:1006B0008081E82FF0E0CF01089508951092411253
:1006C0001092401288EE93E0A0E0B0E080934212D6
:1006D00090934312A0934412B093451288EB94E098
:1006E00090933F1280933E120895CF92DF92EF9243
:1006F000FF920F931F93CF93DF937C016B018A01CD
:1007000080913D128823A1F0C0E0D0E00DC0D70158
:10071000ED91FC91D601AC0FBD1F0190F081E02D51
:10072000C7016C9119952196C017D10780F304C0B9
:10073000CB01642F0E94AB04C801DF91CF911F91C0
:100740000F91FF90EF90DF90CF900895DF93CF93BC
:100750000F92CDB7DEB7FC01698380913D128823EB
:10076000C9F080913C12803238F081E090E09383B0
:10077000828320E030E015C080913B12E82FF0E04A
:10078000E55EFD4E998190838F5F80933B1280934D
:100790003C1205C0CE01019661E00E94AB0421E04D
:1007A00030E0C9010F90CF91DF9108950F93062F8C
:1007B00080911A126BE172E140913C1221E00E949B
:1007C000560410923B1210923C1210923D120F915F
:1007D000089561E00E94D6030895413208F040E296
:1007E000862F68EF71E10E940D0410921812809319
:1007F0001912089521E00E94ED03089521E00E945E
:10080000ED030895109218121092191210923B12D3
:1008100010923C120E945B060895382F413210F06E
:1008200040E042C080914A128823E1F791E0909322
:100830004A1220934C128FEF8093B71210927212CB
:100840004150409373124F5F90934B1280914B1223
:10085000330F832B80934B1280914D12813041F4E2
:1008600010924D1280914B128093BB0085EC01C019
:1008700085EE8093BC0080914A128130E1F3809133
:100880007212841710F44091721220E030E00AC016
:10089000FB01E20FF31FD901AE5ABD4E8C9180834C
:1008A0002F5F3F4F2417A0F3842F08950F931F93BA
:1008B000582F122F413210F081E04AC080914A1225
:1008C0008823E1F782E080934A1200934C128FEF65
:1008D0008093B7121092721240937312A2E5B2E1A4
:1008E000FB0102C081918D938E2F861B8417D0F35C
:1008F00010924B1280914B12550F852B80934B1207
:1009000080914D12813041F410924D1280914B1222
:100910008093BB0085EC01C085EE8093BC00112361
:1009200021F080914A128230E1F38091B7128F3F1B
:1009300011F480E00DC08091B712803211F482E092
:1009400007C08091B712803311F084E001C083E0CA
:100950001F910F910895482F613210F081E00895A2
:1009600080914A12843011F082E0089560939512CC
:10097000A4E7B2E1842F9C01F90102C081918D931B
:100980008E2F841B8617D0F380E008951F920F925C
:100990000FB60F920BB60F9211242F933F934F93E4
:1009A0005F936F937F938F939F93AF93BF93EF93D7
:1009B000FF938091B90090E0887F90708036910518
:1009C00009F4F2C081369105CCF58832910509F41D
:1009D0007BC089329105B4F48031910509F46FC070
:1009E000813191053CF4009709F447C1089709F05B
:1009F0004FC165C08831910509F466C0809709F040
:100A000047C182C08034910509F4A4C081349105A6
:100A100044F48033910509F482C0C89709F038C1C5
:100A200089C08035910509F489C08835910509F49C
:100A300096C08834910509F02BC1AEC08839910564
:100A400009F413C189399105ECF48837910509F44B
:100A5000ABC0893791054CF48836910509F4A4C0E0
:100A60008037910509F014C19FC08838910509F4B9
:100A7000FCC08039910509F49DC08038910509F0CA
:100A800007C198C0803B910509F4C6C0813B910520
:100A90004CF4803A910509F49FC0883A910509F019
:100AA000F7C0BAC0803C910509F4E3C0883C9105C9
:100AB00009F4DFC0883B910509F0EAC0C2C080910B
:100AC0004B128093BB00CFC0909172128091731231
:100AD000981768F490917212E92FF0E0EE5AFD4EEB
:100AE00080818093BB009F5F90937212BCC0809105
:100AF0004C12882309F44BC085ED8093BC00809193
:100B0000BC0084FDFCCFC2C080E28093B71285EDAB
:100B10008093BC008091BC0084FDFCCFB7C080E313
:100B20008093B71285ED8093BC008091BC0084FD5A
:100B3000FCCFACC088E38093B7129BC08091721247
:100B40009091BB00E82FF0E0EE5AFD4E90838F5F4E
:100B500080937212909172128091731282C0809170
:100B600072129091BB00E82FF0E0EE5AFD4E908398
:100B70008F5F8093721280914C12882341F085ED33
:100B80008093BC008091BC0084FDFCCF7FC081E0DD
:100B900080934D1284EA6EC085ED8093BC008091F5
:100BA000BC0084FDFCCF72C083E080934A12109297
:100BB000B61259C08091B612803208F056C08091AA
:100BC000B6129091BB00E82FF0E0EA56FD4E9083FC
:100BD0008F5F8093B61247C08091B612803230F496
:100BE000E091B612F0E0EA56FD4E108285ED80935A
:100BF000BC008091BC0084FDFCCF10924A12609131
:100C0000B612E0915012F091511286E992E170E033
:100C100019951092B6122DC084E080934A1210925A
:100C2000941210929512E0914E12F0914F12199574
:100C300080919512882329F481E080939512109277
:100C4000741290919412E92FF0E0EC58FD4E8081DF
:100C50008093BB009F5F9093941290919412809127
:100C60009512981710F485EC01C085E88093BC00BC
:100C70000FC085EC8093BC0009C01092B71285EDBF
:100C80008093BC008091BC0084FDFCCF10924A127E
:100C9000FF91EF91BF91AF919F918F917F916F9154
:100CA0005F914F913F912F910F900BBE0F900FBE10
:100CB0000F901F90189510924A1281E080934C1269
:100CC00010924D1284E161E00E94F82785E161E015
:100CD0000E94F827E9EBF0E080818E7F808380819D
:100CE0008D7F808388E48093B80085E48093BC0086
:100CF0000895FC0113861586148687E090E012861D
:100D00003197009711F00197FACF0895DF92EF9293
:100D1000FF920F931F93FC01E08001811281F894F0
:100D2000F80181818E2981838281DE2CD0948D21EE
:100D3000828383E090E00E94C525F80181818D21A6
:100D400081838AE090E00E94C525F80100817894B3
:100D500085E390E00E94C52580E010E0FF240E218D
:100D60001F21012B09F081E01F910F91FF90EF905F
:100D7000DF900895EF92FF920F931F93CF93DF932D
:100D80007C0101E010E0C0E0D0E0C7010E948606CF
:100D90008111102B000F2196C830D105B1F7812F9A
:100DA000DF91CF911F910F91FF90EF9008951F93C6
:100DB000CF93DF93FC011081C181D281912F909557
:100DC00060FF12C0F8948A8189238A838981812BEC
:100DD00089838AE090E00E94C5258A81812B8A83DD
:100DE000789487E390E011C0F8948A8189238A83FC
:100DF0008981812B898381E490E00E94C5258A81C5
:100E0000812B8A83789485E090E00E94C525DF914C
:100E1000CF911F910895CF92DF92EF92FF920F939F
:100E20001F93CF93DF938C01E42EFF24F394C0E053
:100E3000D0E0C62EDD2460E08F2D90E08C219D2136
:100E4000892B09F061E0C8010E94D706FF0C2196AA
:100E5000C830D10581F7EE20A9F4F894D801119695
:100E6000ED91FC91129791818C91809598239183BB
:100E70001196ED91FC91129792818C918095982317
:100E800092837894DF91CF911F910F91FF90EF9013
:100E9000DF90CF900895EF92FF920F931F93CF931F
:100EA000DF938C017B0165E540E00E940B07C0E009
:100EB000D0E0F701EC0FFD1FC801608140E00E9407
:100EC0000B072196C830D105A1F7DF91CF911F9173
:100ED0000F91FF90EF900895DF92EF92FF920F93A2
:100EE0001F93CF93DF93FC010081C181D281F894DD
:100EF0008981D02ED0948D21898378941DE7E02EAE
:100F0000FF24115059F182E090E00E94C5258881AC
:100F100090E08E219F21892BA1F3F8948A818D2165
:100F20008A838981802B8983789480EE91E00E9466
:100F3000C525F89489818D21898386E490E00E94FB
:100F4000C525888110E090E0E822F922EF2809F415
:100F500011E078948AE991E00E94C525812FDF9104
:100F6000CF911F910F91FF90EF90DF900895AF9276
:100F7000BF92DF92EF92FF920F931F93CF93DF9375
:100F8000EC015B018D85882309F061C0CE010E94D0
:100F90006C07882329F41B861D861C8690E06BC095
:100FA000CE0160EF40E00E940B0701E0DD24EE245B
:100FB000FF24F394CE010E948606182FCE010E94D2
:100FC0008606113019F48130E1F439C0181709F59B
:100FD0008B85081770F460E0FE01EE0DF11D838132
:100FE00090E02F2D30E082239323181619064CF041
:100FF00003C060E0081729F0093008F04CC00C87E6
:101000004AC0FE01EE0DF11D83818F29838361E0CB
:1010100009C0612FFE01EE0DF11D9F2D909583817A
:1010200089238383CE010E94D7060F5FFF0C19F43A
:10103000E394FF24F39487E08E1508F0BBCF0134CE
:1010400030F0DB86DD2011F581E08D871FC01B8627
:101050001D861C8690E0DE0120E030E0F501E20F05
:10106000F31F13968C91139780832F5F3F4F119638
:101070002830310599F7892FDF91CF911F910F917A
:10108000FF90EF90DF90BF90AF9008958B81882301
:10109000F1F291E0E0CFD02EBDCFFF920F931F93DE
:1010A0008C01F62E862F60E00E9445278F2D90E060
:1010B000FC01E852FD4FE491D801EC938E569D4F10
:1010C000FC016491E62FF0E0EE0FFF1FE858FD4FA2
:1010D0008591949112969C938E9311971B961C92D6
:1010E0001B971D961C921D971C961C92F80187E079
:1010F00090E012863197009711F00197FACF1F9177
:101100000F91FF9008951F920F920FB60F920BB69A
:101110000F9211242F933F934F935F936F937F937D
:101120008F939F93AF93BF93EF93FF93E091BC1284
:10113000F091BD121995FF91EF91BF91AF919F91E1
:101140008F917F916F915F914F913F912F910F9070
:101150000BBE0F900FBE0F901F901895FC01A3E0DF
:10116000440F551F661F771FAA95D1F7403080E0C6
:10117000580781E0680780E0780714F481E010C028
:1011800033E075956795579547953A95D1F7403077
:1011900080E0580781E0680780E078071CF482E06F
:1011A000828339C023E075956795579547952A95B1
:1011B000D1F7403080E0580781E0680780E0780789
:1011C00014F483E0EDCF92E07595679557954795B8
:1011D0009A95D1F7403080E0580781E0680780E0B9
:1011E000780714F484E0DCCF82E075956795579515
:1011F00047958A95D1F7403080E0580781E068072D
:1012000080E0780714F485E0CBCF85E082834FEF50
:101210005FEF60E070E08FB78383F8945183408381
:10122000509387004093860083818FBF8091810017
:10123000887F80938100809181009281892B8093A7
:10124000810008951092800020E1209381000E9487
:10125000AE0808950F931F93CF93DF93EC018B019A
:10126000121613061406150624F4BA01A9010E94E9
:10127000AE081D830C8381E080936F008091810014
:101280009A81892B80938100DF91CF911F910F91DB
:10129000089580EE94E0089585EF94E0089589EF35
:1012A00094E0089580E195E008958AE295E008953C
:1012B0008BE395E008958CE292E00895FC0180E8CC
:1012C00090E0062E02C0959587950A94E2F780314A
:1012D000910561F1813191054CF484309105C1F1A2
:1012E0008830910561F1029749F43BC08034910543
:1012F00059F08038910521F0809779F081E00895C8
:1013000080917A00876035C080917A0086608093F2
:101310007A0080917A008E7F2CC080917A0085605F
:1013200080937A0080917A008D7F23C080917A002B
:10133000846080937A0080917A008C7F1AC08091BB
:101340007A00836080937A0080917A008B7F11C04D
:1013500080917A00826080937A0080917A008A7FFF
:1013600008C080917A00816080937A0080917A0031
:10137000897F80937A00EA52F44F608380E0089579
:1013800082E061E00E94F8270895CF92DF92EF9209
:10139000FF920F931F93CF93DF938C0187EEE82E7C
:1013A0008BE0F82EE00EF11E6801C0E0D0E0F701FE
:1013B000EC0FFD1FC601CC59DF4FBE0140810E94DA
:1013C000221CC356D040C035D10589F7C80160E062
:1013D0000E94F309DF91CF911F910F91FF90EF9041
:1013E000DF90CF900895AF92BF92CF92DF92EF92AD
:1013F000FF920F931F93CF93DF93EC01C62E97EECE
:10140000E92E9BE0F92EEC0EFD1EDC2EAD2E00E049
:1014100010E0E881F981B8016C597F4F0088F189AB
:10142000E02D8D2D9A2D1995F701E00FF11F808386
:101430000F5F1F4F0035110561F7C951D44F8881E7
:101440009981C75EDB40892B39F5C751D44F88811C
:101450009981C95EDB40892BF9F49E012551344FF7
:10146000F90180819181892BB9F4FE01E15DF34F8F
:10147000CE51D44F88819981AA81BB81C25EDB4065
:1014800080839183A283B38381E090E0F90191830B
:101490008083CE010E94C509C951D44F88819981AA
:1014A000C75EDB40892BE1F4C751D44F8881998115
:1014B000C95EDB40892BA1F4FE01E551F44F808128
:1014C0009181019769F4C351D44F80E28883CD5E46
:1014D000DB4082E090E091838083CE010E94C509C9
:1014E000C951D44F88819981C75EDB40892B11F5A2
:1014F000C751D44F88819981C95EDB40892BD1F4D3
:10150000FE01E551F44F80819181029799F4CD5C01
:10151000D34F80E090E0A0EAB0E488839983AA8367
:10152000BB83C353DC4083E090E091838083CE0192
:101530000E94C509C951D44F88819981C75EDB409B
:10154000892B99F4C751D44F88819981C95EDB40BA
:10155000892B59F4C551D44F88819981CB5EDB40EA
:10156000039719F4CC2009F49CC0C951D44F1992A7
:1015700019921992199283E090E0998388832496B6
:101580000F2EF0E0AF2EF0E4BF2EFCE9CF2EF6E4F4
:10159000DF2EF02DA992B992C992D9920F2EF0E0C8
:1015A000EF2EF0E5FF2EF3E40F2FF8E41F2FF02DC0
:1015B000E992F9920993199320E034E244EF59E457
:1015C000288339834A835B83609680E090E0A8E4B7
:1015D000B3E489939993A993B99380E090E0AAEF3B
:1015E000B4E489939993A993B993A992B992C992B2
:1015F000D992E992F99209931993288339834A83FE
:101600005B8364972FEF36EE4BE55EE228833983E8
:101610004A835B83A896288339834A835B83ED974B
:101620008AE088832D9680E090E0A0E0B0E0899386
:101630009993A993B99388839983AA83BB836C9662
:1016400029933993499359932993399349935993FA
:101650002993399349935993288339834A835B8328
:10166000C752DC40FE01E15DF34FCE51D44F88817B
:101670009981AA81BB8180839183A283B3832B96B6
:1016800080E28883CA5BDF4F80E090E0A0EAB0E4AC
:1016900088839983AA83BB83C353DC40CE010E9415
:1016A000C509C15DD34FE880F9800A811B81CF5203
:1016B000DC40C801B70120E030E040E050E00E948B
:1016C0002530FE01EA51F44F18161CF081E08083AA
:1016D00007C0CE51D44FE882F9820A831B8310825F
:1016E000DF91CF911F910F91FF90EF90DF90CF90FE
:1016F000BF90AF9008950F931F938C010E94221CFE
:10170000C80160E00E94F3091F910F9108954F9264
:101710005F926F927F928F929F92AF92BF92CF9281
:10172000DF92EF92FF920F931F93DF93CF930F926D
:101730000F92CDB7DEB78C012C01EE2454ED852E2F
:101740005BE0952E880E991E45ECC42E4BE0D42EFE
:10175000C80ED91E3DEEA32E3BE0B32EA80EB91E37
:101760003E010894611C711C33C028E0F22E30E069
:1017700040E050E0F60180819181F801E80FF91F07
:10178000E251FC4F20810196F6019183808380E035
:1017900090E0222311F481E090E0042E02C0880F33
:1017A000991F0A94E2F7380F4F5F5F4F4830510599
:1017B00009F73A83F50160816E0DF982C201A30138
:1017C00022E00E944B1CF394FDE0FF1681F6E394A7
:1017D0002E2D30E0F4018081918168E270E00E945A
:1017E00005342617370708F20F900F90CF91DF913D
:1017F0001F910F91FF90EF90DF90CF90BF90AF902F
:101800009F908F907F906F905F904F9008958F92F0
:101810009F92AF92BF92CF92DF92EF92FF921F936F
:10182000DF93CF93CDB7DEB72A970FB6F894DEBF1C
:101830000FBECDBF7C015A016B01122FFC01EE518E
:10184000F44FCB01BA0120813181428153810E9442
:1018500029306A837B838C839D8388EA8E838A8187
:101860009B81AC81BD818F839887A987BA876EEEF3
:10187000862E6BE0962E8E0C9F1CC701F4016081B2
:10188000AE014A5F5F4F25E00E944B1C112379F1A6
:1018900064E670E080E090E00E946C258EE392E1C7
:1018A000F401608141E00E94FE038EE392E10E9418
:1018B0002E03892B31F18EE392E10E9437038130B0
:1018C00001F5C701F4016081AE014F5F5F4F21E078
:1018D0000E942C1C89818823A1F48AED9BE0E80EEC
:1018E000F91EF701A082B182C282D3820AC08AEDBA
:1018F0009BE0E80EF91EF701A082B182C282D3827A
:10190000198289812A960FB6F894DEBF0FBECDBF2B
:10191000CF91DF911F91FF90EF90DF90CF90BF901C
:10192000AF909F908F9008951F93CF93DF93EC011A
:10193000142F6623E9F4413049F0413020F0423061
:1019400009F061C00AC088E061E009C088E060E099
:101950000E94F82789E061E006C088E060E00E940C
:10196000F82789E060E00E94F827C952D44F48C0A8
:10197000613009F048C04230B9F0433030F44423BC
:1019800049F0413009F03FC008C04330C1F0443055
:10199000D1F524C08AE061E023C08AE060E00E94C3
:1019A000F8278BE061E020C08AE060E00E94F82721
:1019B0008BE060E00E94F8278CE061E019C08AE0CB
:1019C00060E00E94F8278BE060E00E94F8278CE03E
:1019D00060E00E94F8278DE061E00EC08AE060E0E0
:1019E0000E94F8278BE060E00E94F8278CE060E01E
:1019F0000E94F8278DE060E00E94F827C852D44F7B
:101A0000188310E001C015E088EC90E00E94C52525
:101A1000812FDF91CF911F910895FC0182E795E01E
:101A200091838083CF010E94E01A08950F931F9342
:101A30008C0161E00E94391D82E795E0F8019183F5
:101A400080830E52144FF801119210821F910F9152
:101A500008958F929F92AF92BF92CF92DF92EF92B2
:101A6000FF920F931F934B015C010E94CD310E94A6
:101A7000FF300E9491307B018C01772767FD7095C4
:101A8000872F972F0E94C4309B01AC0160E070E06B
:101A900080E291E40E947B329B01AC0177EEC72E7D
:101AA00074E1D72EC501B4010E942930AB01BC01FD
:101AB000C60122E030E00E94972FC60160E372E089
:101AC0000E94B02E6E2D772767FD7095C6014AE003
:101AD00050E00E947E2E1F910F91FF90EF90DF90BB
:101AE000CF90BF90AF909F908F9008950E94290D46
:101AF00087EE94E10E94312D08952F923F924F92EC
:101B00005F926F927F928F929F92AF92BF92CF928D
:101B1000DF92EF92FF920F931F93DF93CF930F9279
:101B20000F92CDB7DEB77C011C010E94BB1C88E080
:101B300061E00E94452789E061E00E9445278AE034
:101B400061E00E9445278BE061E00E9445278CE020
:101B500061E00E9445278DE061E00E94452782E018
:101B600061E00E94452782E060E00E94F82764EF70
:101B700071E080E090E00E946C25D701ED91FC912E
:101B80000680F781E02DC7011995BC0187EE94E12D
:101B90000E94B02E87EE94E162E372E00E94B02EC4
:101BA000D701ED91FC910484F585E02DC7011995CD
:101BB000BC0187EE94E10E94AD2F87EE94E165E3CE
:101BC00072E00E94B02ED701ED91FC910284F38562
:101BD000E02DC7011995BC0187EE94E10E94AD2F5D
:101BE000C7010E94831CE2EEFBE0EE0EFF1E80E0C8
:101BF00090E0A8ECB2E4F70180839183A283B383E1
:101C00002EE134EFE20EF31EC70160E00E94F309FB
:101C100087EE94E168E472E00E94B02E87EE9BE0CC
:101C2000E80EF91ED7016D917D917D0187EE94E15B
:101C30004AE050E00E94E02D87EE94E16FE572E00B
:101C40000E94B02EF701619171917F0187EE94E1BE
:101C50004AE050E00E94E02D87EE94E16FE572E0EB
:101C60000E94B02ED7016D917C9187EE94E14AE0FD
:101C700050E00E94F12D87EE94E161E672E00E944F
:101C8000B02EE4E0F0E0EE0EFF1ED7014D915D9125
:101C90006D917D917D0187EE94E122E030E00E941C
:101CA0009A2F87EE94E16AE772E00E94B02EF70166
:101CB00041915191619171917F0187EE94E122E010
:101CC00030E00E949A2F87EE94E163E972E00E946F
:101CD000B02ED7014D915D916D917D917D0187EE83
:101CE00094E122E030E00E949A2F87EE94E16CEAC2
:101CF00072E00E94B02EF7016191719181919191F2
:101D00007F010E94760D87EE94E166EC72E00E94FE
:101D1000B02ED7016D917D918D919D917D010E9495
:101D2000760D87EE94E160EE72E00E94B02EF7012E
:101D300061917191819191917F010E94760D87EE61
:101D400094E16AEF72E00E94B02ED7014D915D914F
:101D50006D917D917D0187EE94E122E030E00E945B
:101D60009A2F87EE94E163E173E00E94B02EF701B1
:101D700041915191619171917F0187EE94E122E04F
:101D800030E00E949A2F87EE94E16CE273E00E94AB
:101D9000B02ED7014D915D916D917D917D0187EEC2
:101DA00094E122E030E00E949A2F87EE94E165E40E
:101DB00073E00E94B02EF7014191519161917191B0
:101DC0007F0187EE94E122E030E00E949A2F87EEB7
:101DD00094E16EE573E00E94B02ED7014D915D91C4
:101DE0006D917D917D0187EE94E122E030E00E94CB
:101DF0009A2F87EE94E167E773E00E94B02EF70117
:101E000061917191819191917F010E94760D87EE90
:101E100094E161E973E00E94B02ED7016D917D914C
:101E20008D919D917D010E94760D87EE94E16BEA84
:101E300073E00E94B02EF7016191719181919191AF
:101E40007F010E94760D87EE94E165EC73E00E94BD
:101E5000B02ED7016D917D918D919D917D010E9454
:101E6000760D87EE94E16FED73E00E94B02EF701DE
:101E7000608171818281938125ED33EFE20EF31E43
:101E80000E94760D87EE94E169EF73E00E94B02E18
:101E9000F701E251F44F87EE94E160814AE050E0AF
:101EA0000E94202E87EE94E16DE174E00E94B02E36
:101EB00087010351144F87EE94E1D8016C914AE0F9
:101EC00050E00E94202E87EE94E16AE374E00E94C5
:101ED000B02EEFE2FCE0EE0EFF1ED7014D915D91BA
:101EE0006D917D917D0187EE94E122E030E00E94CA
:101EF0009A2F87EE94E16AE474E00E94B02EF70115
:101F000040815181628173812DEC33EFE20EF31E2B
:101F100087EE94E122E030E00E949A2FF701EC5224
:101F2000F44F11821082AA24BB24A8E28A2E912C9D
:101F300068013E010894611C711C2F011A2D38E1C3
:101F400039838FEF8A83D6016C916A0DC101A30199
:101F500022E00E944B1CF60160816A0DC101A301C1
:101F600021E00E942C1C89818F3F09F045C000E0D0
:101F7000085E098308511A82D6016C91610FC10174
:101F8000A30122E00E944B1CF6016081610FC10198
:101F9000A30121E00E942C1C8981882369F5085F38
:101FA0000983FFEFFA83D6016C91610FC101A30190
:101FB00022E00E944B1C07500530D1F687EE94E1D9
:101FC0006DE574E00E94B02E87EE94E1B5014AE021
:101FD00050E00E947E2E87EE94E167E674E00E9456
:101FE000AD2F940128523040F201808191818217F7
:101FF000930711F4918280820894A11CB11C28E2FD
:1020000030E0820E931E38E0A316B10409F096CF9B
:1020100084ED9BE0E80EF91ED7016D917C91ECE216
:10202000F4EFEE0EFF1E87EE94E14AE050E00E94CE
:10203000E02D87EE94E163E774E00E94AD2FC701C5
:1020400060E040E00E94940CC70161E040E00E9423
:10205000940CC70164E00E945E090F900F90CF912D
:10206000DF911F910F91FF90EF90DF90CF90BF9085
:10207000AF909F908F907F906F905F904F903F9028
:102080002F9008957F928F929F92AF92BF92CF929E
:10209000DF92EF92FF920F931F93DF93CF930F92F4
:1020A0000F92CDB7DEB75C019B01742ECB0168E2C5
:1020B00070E00E940534862EC90168E270E00E943B
:1020C00005346C0113E0969587951A95E1F7982EE3
:1020D000082D10E0BDEEEB2EBBE0FB2EEA0CFB1C46
:1020E000F7018081B801680F711D8EE392E10E94B3
:1020F0002403692D70E0685F7F4F8EE392E10E94B8
:10210000A6038EE392E10E94E903F7018081080FA4
:10211000111D8EE392E1B80141E050E00E94FA0304
:102120008EE392E10E942E03892B11F481E03BC0E3
:102130000C2D0770F8E09F0E99828EE392E10E94C9
:102140003703282F772071F481E090E0A0E0B0E021
:1021500004C0880F991FAA1FBB1F0A95D2F7282B0E
:102160002A830EC081E090E0A0E0B0E004C0880FB8
:10217000991FAA1FBB1F0A95D2F7809582238A83D5
:102180008DEE9BE0A80EB91EF501608183E194EF0E
:10219000A80EB91E680DC501AE014F5F5F4F22E06A
:1021A0000E944B1C80E00F900F90CF91DF911F9108
:1021B0000F91FF90EF90DF90CF90BF90AF909F90E6
:1021C0008F907F9008952F923F924F925F926F92DF
:1021D0007F928F929F92AF92BF92CF92DF92EF92B7
:1021E000FF920F931F93DF93CF93CDB7DEB7AA97DC
:1021F0000FB6F894DEBF0FBECDBF4C016A8B862FA1
:1022000090E0FC01E05AF040E635F10510F00C9446
:10221000B71AEE58FF4FEE0FFF1F0590F491E02D17
:10222000199420EC3BE0820E931ED4018D919C9179
:10223000E0E4F4EF8E0E9F1E840104511C4F892BA5
:1022400011F00C947D1AB4016C52744FC40142E039
:1022500050E0EDC220EC3BE0820E931ED4018D9144
:102260009C91E0E4F4EF8E0E9F1E840104511C4FFC
:10227000892B11F00C947D1AD8011C928D8A9E8AAC
:10228000CC2464ED262E6BE0362E280C391C5DEE36
:10229000652E5BE0752E680C791C280154C048E05F
:1022A000D42E5901F3018081B501680F711D8EE3B1
:1022B00092E10E9424038EE392E16D2D0E94A60319
:1022C0008EE392E10E94E903D3018C91B501680F7E
:1022D000711D8EE392E141E050E00E94FA038EE32B
:1022E00092E10E942E03892B21F18EE392E10E945C
:1022F000370300E010E0E82EFF24C701002E02C0E3
:10230000959587950A94E2F7E1E0F0E08E279F2704
:10231000817089838D899E89BE016F5F7F4F41E007
:1023200050E00E94E61A0F5F1F4F0830110529F791
:1023300004C0E1E0D201EC9305C0D394FDE0DF16C8
:1023400009F0B0CFC3942C2D30E0D1018D919C9138
:1023500068E270E00E9405342617370708F49FCF23
:102360000C94B71AF401E054F44F24ED3BE0820ED4
:10237000931E20813181D4018D919C91ECE2F4EF88
:102380008E0E9F1E840104511C4F2817390711F02F
:102390000C947D1AC4010E94870BD8011C920C94E6
:1023A000B71A20EC3BE0820E931ED4018D919C91D4
:1023B000E0E4F4EF8E0E9F1E029711F00C94AC1A1D
:1023C000D401AB53B44F8D919C91119782519C4F86
:1023D000F401E80FF91F0190F081E02D8C5E93402D
:1023E0008D939C9324ED3BE0820E931ED4018D913E
:1023F0009C912CE234EF820E931EE817F90738F017
:102400004CEE53E0840E951E85E00C94B11ACF017A
:1024100068E270E00E9405346C01CF0168E270E070
:102420000E940534062F10E02DEEE22E2BE0F22E56
:10243000E80CF91CD7018C91B801680F711D8EE36F
:1024400092E10E942403B60193E0769567959A95F0
:10245000E1F770E0685F7F4F8EE392E10E94A60390
:102460008EE392E10E94E903F7018081080F111DBC
:102470008EE392E1B80141E050E00E94FA038EE35E
:1024800092E10E942E03840104511C4F892BB1F06C
:102490008EE392E10E94370390E02C2D277002C05A
:1024A000959587952A95E2F7809581708983C40177
:1024B000BE016F5F7F4F41E050E0B9C181E0F8019C
:1024C00080830C94B71A20EC3BE0820E931ED4015B
:1024D0008D919C91E0E4F4EF8E0E9F1E039711F016
:1024E0000C94AC1AD401AB53B44F8D919C911197BD
:1024F000FC01E251FC4FE80DF91D60817181F4018E
:10250000E80FF91FE051FC4F408103968D939C9397
:1025100024ED3BE0820E931ED4018D919C91ECE260
:10252000F4EF8E0E9F1E840104511C4F681779072B
:1025300008F06FC3C4010E94421094C720EC3BE036
:10254000820E931ED4018D919C91E0E4F4EF8E0EE7
:102550009F1E892B11F00C94AC1A84010251144F68
:10256000C401D8016C9147EA0E946F1C64E670E0D8
:1025700080E090E00E946C258EE392E1F80160819A
:1025800041E00E94FE038EE392E10E942E03892B1C
:1025900011F40C94B71A8EE392E10E943703853050
:1025A00009F0E5C7C401D8016C91AE01495F5F4FE6
:1025B00025E00E942C1C8B85ECEEF3E08E0E9F1E16
:1025C000D4018C93E4E1FCEF8E0E9F1E882309F06A
:1025D000CEC784010652144F8F819885A985BA858C
:1025E000F80180839183A283B383F401EE51F44F09
:1025F000D8016D917D918D919C9120813181428195
:1026000053810E941832F80160837183828393831F
:10261000C401B8017FC020EC3BE0820E931ED401C0
:102620008D919C91E0E4F4EF8E0E9F1E8401045185
:102630001C4F049709F061C7D401AB53B44F8D917F
:102640009C91119782519C4FF401E80FF91F408132
:102650005181628173818A5E93408D939C93C40102
:1026600021E00E94070CFEC620EC3BE0820E931E88
:10267000D4018D919C91E0E4F4EF8E0E9F1E892B86
:1026800009F06AC784010251144FC401D8016C914A
:1026900049EA0E946F1C64E670E080E090E00E94CE
:1026A0006C258EE392E1F801608141E00E94FE0317
:1026B0008EE392E10E942E03892B09F458C78EE322
:1026C00092E10E943703853009F051C7C401D80157
:1026D0006C91AE01495F5F4F25E00E942C1C8B85F9
:1026E000ECEEF3E08E0E9F1ED4018C93E4E1FCEF40
:1026F0008E0E9F1E882309F03AC7F401E252F44F70
:102700008F819885A985BA8580839183A283B383BD
:10271000C401BF0144E050E00E94E61A28C720EC43
:102720003BE0820E931ED4018D919C91E0E4F4EF86
:102730008E0E9F1E049709F03DC7D401AB53B44FD2
:102740008D919C91119782519C4FF401E80FF91FD4
:1027500020813181428153818A5E93408D939C9385
:10276000F401E252F44F20833183428353838AEA97
:102770008F8380819181A281B38188879987AA877D
:10278000BB8784010251144FC401D8016C91AE0182
:10279000495F5F4F25E00E944B1C64E670E080E0DB
:1027A00090E00E946C258EE392E1F801608141E0A7
:1027B0000E94FE038EE392E10E942E03892B09F40E
:1027C000D6C68EE392E10E943703813009F0CFC66E
:1027D000A40144515C4FC401D8016C9121E00E94D6
:1027E0002C1CC5C620EC3BE0820E931ED4018D91BB
:1027F0009C91E0E4F4EF8E0E9F1E840104511C4F67
:10280000892B09F07AC626ED3BE0820E931ED40197
:102810006C91EAE2F4EF8E0E9F1E70E0660F771F58
:10282000660F771F6C537B4FC40144E050E00E9459
:10283000E61AB3CD20EC3BE0820E931ED4018D91BD
:102840009C91E0E4F4EF8E0E9F1E840104511C4F16
:10285000019709F052C6D401AB53B44F8D919C91AE
:102860001197F401E80FF91FE251FC4F60810196C6
:102870008D939C93C4010E945E09F4C520EC3BE05B
:10288000820E931ED4018D919C91E0E4F4EF8E0EA4
:102890009F1E840104511C4F019709F0E2C5D40129
:1028A000AB53B44F8D919C911197F401E80FF91F30
:1028B000E251FC4FE08101968D939C93D8011C92CC
:1028C000EE2321F0E13009F0A4C104C0B401695243
:1028D000744F03C0B4016852744FC4010BC6E0ECDE
:1028E000FBE08E0E9F1ED4018D919C91E0E4F4EFED
:1028F0008E0E9F1E840104511C4F029709F0FDC5E6
:10290000D401AB53B44F8D919C911197F401E80F12
:10291000F91FE251FC4F60810196F401E80FF91FA5
:10292000E251FC4F408101968D939C93C4010E941B
:10293000940C98C520EC3BE0820E931ED4018D913F
:102940009C91E0E4F4EF8E0E9F1E840104511C4F15
:10295000019709F0D2C5D401AB53B44F8D919C912E
:102960001197F401E80FF91FE251FC4FE081019645
:102970008D939C93D8011C92EE2321F0E13009F055
:10298000D5C012C0E7EDFBE08E0E9F1ED4016C9106
:10299000E9E2F4EF8E0E9F1E70E0660F771F660F60
:1029A000771F6151744FBEC028ED3BE0820E931E2D
:1029B000D4016C91E8E2F4EF8E0E9F1E70E0660F7A
:1029C000771F660F771F695F734FACC020EC3BE049
:1029D000820E931ED4018D919C91E0E4F4EF8E0E53
:1029E0009F1E840104511C4F059709F03AC5A401AC
:1029F0004B53544FDA012D913C911197F401E20FA2
:102A0000F31FE251FC4FE0812F5F3F4F2D933C932A
:102A100021503040D8011C92EE2321F0E13009F022
:102A2000F8C01BC0E7EDFBE08E0E9F1ED401EC91B9
:102A300089E294EF880E991EF0E021513C4FD401B9
:102A4000A20FB31FED90FD900D911C912A5E3340B3
:102A5000DA012D933C933296CCC0E8EDFBE08E0E6C
:102A60009F1ED401EC9188E294EF880E991EF0E04D
:102A700021513C4FD401A20FB31FED90FD900D9159
:102A80001C912A5E3340DA012D933C933896B1C0F5
:102A9000E0ECFBE08E0E9F1ED4018D919C91E0E452
:102AA000F4EF8E0E9F1E840104511C4F019709F014
:102AB00024C5D401AB53B44F8D919C911197F4016F
:102AC000E80FF91FE251FC4FE08101968D939C9332
:102AD000D8011C92EE2319F0E13041F512C0E7ED68
:102AE000FBE08E0E9F1ED4016C91E9E2F4EF8E0E96
:102AF0009F1E70E0660F771F660F771F6550744F3B
:102B000011C028ED3BE0820E931ED4016C91E8E2E7
:102B1000F4EF8E0E9F1E70E0660F771F660F771F13
:102B2000655E734F680D791DC401F4CD85E09AC4CC
:102B300020EC3BE0820E931ED4018D919C91E0E449
:102B4000F4EF8E0E9F1E840104511C4F059709F06F
:102B500088C4A4014B53544FDA012D913C91119735
:102B6000F401E20FF31FE251FC4FE0812F5F3F4F72
:102B70002D933C9321503040D8011C92EE2321F03C
:102B8000E13009F046C01BC0E7EDFBE08E0E9F1E52
:102B9000D401EC9189E294EF880E991EF0E0215166
:102BA0003C4FD401A20FB31FED90FD900D911C91ED
:102BB0002A5E3340DA012D933C9335961AC0E8ED36
:102BC000FBE08E0E9F1ED401EC9188E294EF880EFC
:102BD000991EF0E021513C4FD401A20FB31FED909C
:102BE000FD900D911C912A5E3340DA012D933C93A8
:102BF0003D96EE0FFF1FEE0FFF1FE80DF91DE95187
:102C0000F44FE082F18202831383C4010E94C5095C
:102C1000AEC485E054CCE0ECFBE08E0E9F1ED401E8
:102C20008D919C91E0E4F4EF8E0E9F1E840104517F
:102C30001C4F892B09F061C4D8011C92B4016E515C
:102C4000744F72CF20EC3BE0820E931ED4018D9125
:102C50009C91E0E4F4EF8E0E9F1E049709F07CC473
:102C6000F401EB53F44F8081918182519C4FD40148
:102C7000A80FB91FED90FD900D911C918A5E9340B5
:102C800091838083C801B70120E030E040E050E04C
:102C90000E94C931181664F5F401EA51F44F80819D
:102CA000882379F022EE3BE0820E931ED401ED9250
:102CB000FD920D931C931397EEE1F4EF8E0E9F1E81
:102CC00012C02FE23CE0820E931ED401ED92FD92E1
:102CD0000D931C93139721ED33EF820E931E1082F8
:102CE000C4010E94C5094CEE53E0840E951E31C408
:102CF0002CEE33E0820E931E88E033C420EC3BE0E0
:102D0000820E931ED4018D919C91E0E4F4EF8E0E1F
:102D10009F1E840104511C4F892B09F0EEC3D8017A
:102D20001C9210E0F401E15DF34F608171818281BA
:102D3000938120E030E040E050E00E9425301816FA
:102D40000CF011E01983C401BE016F5F7F4FD2C345
:102D500020EC3BE0820E931ED4018D919C91E0E427
:102D6000F4EF8E0E9F1E0197E1F5D401AB53B44FE3
:102D70008D919C911197F401E80FF91FE251FC4FDE
:102D8000208101968D939C93F401E15DF34F222302
:102D900049F080E090E0A0E0B0E080839183A283DE
:102DA000B38311C022EE3BE0820E931ED4012D911D
:102DB0003D914D915C918EE194EF880E991E208398
:102DC000318342835383C4010E94C509ACEEB3E052
:102DD0008A0E9B1EF401108224E13CEF820E931EAA
:102DE000C6C34CEE53E0840E951EBAC320EC3BE004
:102DF000820E931ED4018D919C91E0E4F4EF8E0E2F
:102E00009F1E069708F4A8C394012B53344FF90171
:102E1000A081B181FD01E251FC4FE80DF91DE08078
:102E2000F180CD010296F90191838083A051BC4FBE
:102E3000F401EA0FFB1F408151810296F901918351
:102E400080831296A80DB91D0D911C910296918355
:102E500080839A013D872C87F1E02E343F0720F0D4
:102E60002DE431E03D872C8740EC5BE0840E951E1D
:102E7000D4012D913C91E0E4F4EF8E0E9F1E26309C
:102E8000310581F044ED5BE0840E951ED4018D91F7
:102E90009C91ECE2F4EF8E0E9F1E069628173907E0
:102EA00009F088C32CEE33E0820E931ED4011C92ED
:102EB000EBEEF7E08E0E9F1ED401ED914D01E98BF4
:102EC000FC91F88B28E234EF820E931EC40160E07F
:102ED00042E00E94940CC40161E044E00E94940C22
:102EE000F401E054F44F44ED5BE0840E951ED401F0
:102EF0008D919C912CE234EF820E931E06962081D8
:102F000031812817390719F4C4010E94870B8B8A75
:102F10009C8A1F861E8647ED242E4BE0342E280CFB
:102F2000391CA4014852544F588F4F8BC701A0E061
:102F3000B0E0898F9A8FAB8FBC8FD401AA51B44F68
:102F4000BE8FAD8FF401E652F44FF8A3EF8F9401DA
:102F50002252344F3AA329A3A4014D5C534F5CA3E2
:102F60004BA3C4018E51944F9EA38DA3980140E0C2
:102F700050E02FA338A749A75AA7D9C1D1018C91F6
:102F80008983EF89F88D80818A830E945E252B01D9
:102F90003C01AA24BB243FEFC32E33E0D32E3BC019
:102FA00089818F3F19F180E00E9431269C01F3E076
:102FB00085339F0798F0D1014C91442361F0415033
:102FC000C40160E00E94940CAA24BB242FEFC22EFF
:102FD00023E0D22E30C0BFEFB9832DC0A816B906AA
:102FE00008F45C012C153D0508F469018A818F3FC6
:102FF00011F181E00E9431269C01E3E085339E07B8
:1030000090F0AF89B88D4C91442351F04150C401E8
:1030100061E00E94940CEE24FF240FEF13E00BC03C
:10302000BFEFBA8308C0E816F90608F47C01201740
:10303000310708F489010E945E2564197509860923
:103040009709298D3A8D4B8D5C8D62177307840724
:10305000950708F4A5CFC5018C199D099C838B8326
:10306000C701801B910B9E838D83EF2831F00F5F8A
:10307000134031F48A818F3F19F04FEF4A8304C027
:10308000AF89B88D8C918A83AB2841F0BFEFCB1606
:10309000B3E0DB0631F489818F3F19F0EFEFE9836C
:1030A00002C1AD8DBE8D8C91882309F4F9C0EF8DDE
:1030B000F8A14080518062807380C301B20120E09A
:1030C00030E040E050E00E94C93118160CF0E8C032
:1030D0002E853F85232B09F4E3C08981C82EDD248A
:1030E000C7FCD094D1018C9190E0C816D90609F0A4
:1030F000D7C0E2E0F0E0CE0EDF1EF601EE0FFF1FBC
:10310000EE0FFF1FE80DF91DE951F44F60E876E975
:1031100088E19BE420813181428153810E942930E2
:103120009B01AC010E9418327B018C0123E030E04E
:10313000C20ED31ECC0CDD1CCC0CDD1CC80CD91C63
:1031400047EE5BE0C40ED51ED6016D917D918D9149
:103150009C9120E836E948E15BE40E9418329B012B
:10316000AC010E94C12F2BED3FE049E450E40E94E6
:103170001832E9A1FAA120813181428153810E9454
:1031800018329B01AC010E9418329B01AC01C801AE
:10319000B7010E94C12F0E94CB325B016C016B8191
:1031A0007C81882777FD8095982F0E94C43020E08D
:1031B00030E040EA50E40E94183220E030EC4FE763
:1031C00054E40E94293023EF34E045EB5FE30E9492
:1031D000293020E030E040E05FE30E9418327B01BC
:1031E0008C0160E070E080E89FE3A60195010E94F9
:1031F00029309B01AC01C801B7010E9429305B0155
:103200006C01A30192010E94C02F7B018C0120E080
:1032100030E040E050E00E94C931181624F017FB5E
:10322000109517F91095C801B701ABA1BCA12D915C
:103230003D914D915C910E94C93118168CF5C601E3
:10324000B501A30192010E942930EDA1FEA12081C8
:103250003181428153810E941832ADA1BEA16D938C
:103260007D938D939C93139720E030E040E85FE3DB
:103270000E942530882354F480E090E0A0E8BFE36A
:10328000EDA1FEA180839183A283B383AF8DB8A10A
:103290004D915D916D917C91C40120E00E94070CDD
:1032A000F101808189838B899C89BE016D5F7F4F8D
:1032B00042E050E00E94E61A8B899C89BE016F5F54
:1032C0007F4F41E050E00E94E61A8B899C89BE0145
:1032D0006B5F7F4F42E050E00E94E61A8B899C8929
:1032E000BE016E5F7F4F41E050E00E94E61A87EE1C
:1032F00094E10E94272B181619060CF10E945E25F6
:103300007B018C010E945E256E197F09800B910B59
:103310002FA138A549A55AA56217730784079507F9
:1033200088F34E855F854F5F5F4F5F874E878E8541
:103330009F85AC85BD858A179B0708F41FCEC40105
:1033400060E049890E94940CC40161E048890E94B0
:10335000940C0DC1E0ECFBE08E0E9F1ED4018D910C
:103360009C91E0E4F4EF8E0E9F1E840104511C4FEB
:10337000892B09F0C2C0D8011C92C40161E00E94EF
:10338000F309F5C020EC3BE0820E931ED4018D9131
:103390009C91E0E4F4EF8E0E9F1E840104511C4FBB
:1033A000892B09F0AAC0D8011C9282E09EC020ECB3
:1033B0003BE0820E931ED4018D919C91E0E4F4EFEA
:1033C0008E0E9F1E840104511C4F892B09F049C0A9
:1033D000D8011C92E2EDFBE08E0E9F1ED4018C9171
:1033E000EEE2F4EF3BC0E0ECFBE08E0E9F1ED4015A
:1033F0008D919C91E0E4F4EF8E0E9F1E019709F0F1
:10340000ABC0D401AB53B44F8D919C911197F40193
:10341000E80FF91FE251FC4F208101968D939C9398
:10342000F401EE52F44F41C020EC3BE0820E931EBB
:10343000D4018D919C91E0E4F4EF8E0E9F1E8401E7
:1034400004511C4F892B69F4D8011C92E3EDFBE079
:103450008E0E9F1ED4018C91EDE2F4EF8E0E9F1E16
:1034600044C086E0D8018C9382C0E0ECFBE08E0E75
:103470009F1ED4018D919C91E0E4F4EF8E0E9F1E6F
:10348000019709F069C0D401AB53B44F8D919C9161
:103490001197F401E80FF91FE251FC4F20810196CA
:1034A0008D939C93F401ED52F44F222319F081E0A7
:1034B00080834BC0108249C020EC3BE0820E931EFB
:1034C000D4018D919C91E0E4F4EF8E0E9F1E840157
:1034D00004511C4F892B89F4D8011C9282E00E9470
:1034E0002B281A82892B11F481E08A83C401BE0142
:1034F0006E5F7F4F41E050E00FC986E00C945F1291
:1035000020EC3BE0820E931ED4018D919C91E0E46F
:10351000F4EF8E0E9F1E0197F9F4D401AB53B44F14
:103520008D919C911197F401E80FF91FE251FC4F26
:10353000208101968D939C93222319F082E060E014
:1035400002C082E061E00E94F8272CEE33E0820E98
:10355000931ED4011C9207C02CEE33E0820E931E02
:1035600086E0D4018C93E4E1FCEF8E0E9F1EC40133
:103570006A890E942F1F2CEE33E0820E931ED40125
:103580008C91AA960FB6F894DEBF0FBECDBFCF9137
:10359000DF911F910F91FF90EF90DF90CF90BF9040
:1035A000AF909F908F907F906F905F904F903F90E3
:1035B0002F900895ECEEF3E08E0E9F1ED1CF08956C
:1035C000FC0189E995E09183808308950F931F930F
:1035D000CF93DF938C0120E030E0EC01C953D44F4E
:1035E00010C0F801E20FF31F88819981E80FF91FDD
:1035F000E251FC4FDB01A20FB31F8C9180832F5F40
:103600003F4F2417350768F388819981840F951FF0
:1036100099838883DF91CF911F910F910895CF9364
:10362000DF93DC01FC01E351FC4F6081EC01C451EC
:10363000DC4F67FF0EC06058608382E08883ED91A5
:10364000FC91119760580488F589E02DCD011995FA
:103650000EC0FC01E054F44F80819181A80FB91F86
:10366000A351BC4F2C912883019791838083DF91D4
:10367000CF910895CF93DF93EC01FC01E753F44F12
:103680006D3719F481E08083DAC09081992311F0BD
:1036900080E268276E3749F4992339F4CD53D44F2B
:1036A00019821882C35CDB40C4C0CD53D44F28813B
:1036B0003981C35CDB4021153105A1F4C351DC4FD6
:1036C0006883C152D84F8881CC5CDB40882309F4E1
:1036D00048C0C153D44F8FEF9FEF99838883CF5C4D
:1036E000DB403FC021303105B1F4DE01AE53B44FB1
:1036F000FE01E054F44F67FF09C083E08C93862FEE
:1037000090E08F779070108281832BC082E08C9341
:103710006083118226C02230310589F4CE53D44F04
:103720008881C25CDB40833051F4FE01E054F44FE9
:1037300080819181860F911D9183808312C0CE5329
:10374000D44F8881F901E81BF1099A918A91C05CF4
:10375000DB40E817F90728F4EC0FFD1FE251FC4F9E
:103760006083C453D44F8881CC5CDB408823F1F064
:10377000FE01E153F44F808191818627282F229505
:103780002827022E269526952025022E26952025CF
:103790002770082E892F269507942795902D82272C
:1037A000069427959025822791838083FE01ED530F
:1037B000F44F408151814F5F5F4F51834083CE531F
:1037C000D44F88813A912A91280F311D2C96688117
:1037D000CC5CDB40862F90E0880F991F280F391FA3
:1037E0004217530731F511821082CB53D44F1992EF
:1037F000199219821882C75CDB40662341F0C153DD
:10380000D44F88819981CF5CDB40892B19F4CE019C
:103810000E940F1BFE01E553F44F9081992349F05C
:10382000C351DC4F90588881CD5ED340891709F48D
:103830001082FE01E753F44F808181111082DF91E5
:10384000CF91089587EF91E10E94D802089587EF04
:1038500091E10E94D10208951F93CF93DF93EA0173
:103860008EE392E1422F0E94FE0310E009C08EE336
:1038700092E10E943703FE01E10FF11D80831F5F7B
:103880008EE392E10E942E03892B89F7812FDF912D
:10389000CF911F910895FF920F931F93CF93DF93C2
:1038A000142F052FF22E8EE392E10E941A03212F8E
:1038B000302FC901EC0110E006C08EE392E169915E
:1038C0000E94A6031F5F1F15C0F38EE392E10E94C2
:1038D000E903DF91CF911F910F91FF900895FF921F
:1038E0000F931F93F42E0EE312E1C8010E941A03F6
:1038F000C8016F2D0E94A603C8010E94E9031F9111
:103900000F91FF9008951F9318E08EE392E1612FCD
:103910000E941A038EE392E10E94E903882331F5A5
:1039200087EE94E168E874E00E94B02E87EE94E19F
:10393000612F4AE050E00E940E2E87EE94E16CE980
:1039400074E00E94B02E87EE94E1612F40E150E0D8
:103950000E940E2E87EE94E161EA74E00E94AD2F82
:1039600061E070E080E090E00E946C251F5F1837F6
:1039700061F61F910895AF92BF92CF92DF92EF92BE
:10398000FF920F931F93DF93CF9300D00F92CDB789
:10399000DEB77C016E010894C11CD11C56010FE0FA
:1039A00010E0D701ED91FC910088F189E02DC7016D
:1039B000B8011995F50181935F010F5F1F4F033126
:1039C000110579F789819A81AB81BC818F5F9F4F07
:1039D000AF4FBF4FD9F480E092ECA1E0B0E0898313
:1039E0009A83AB83BC830FE010E0D701ED91FC918B
:1039F0000288F389E02DC701B801D6014D916D0110
:103A000019950F5F1F4F0331110579F749815A81CD
:103A10006B817C8187EE94E10E94A02A8EE392E183
:103A20000E9402040E9403030F900F900F900F90CA
:103A3000CF91DF911F910F91FF90EF90DF90CF908A
:103A4000BF90AF900895CF93DF93EC0108C087EE4D
:103A500094E10E94582B682FCE010E943A1B87EEFA
:103A600094E10E94272B181619068CF3DF91CF9151
:103A700008957F928F929F92AF92BF92CF92DF92E2
:103A8000EF92FF920F931F93CF93DF93FC0189E98D
:103A900095E091838083E453F44F608339971182DA
:103AA00010823696108239971182108235961192C3
:103AB0001192118210823A961082AA24BB24882483
:103AC000992487EF91E1B5010E94D102182FB50129
:103AD000695F7F4F87EF91E10E94D102E401EE24FC
:103AE000FF24C12EDD24C094D094082F10E000954F
:103AF0001095C633D105B4F4B6010E2C02C07595ED
:103B000067950A94E2F761708C2F0E944527B801EF
:103B10000E2C02C0759567950A94E2F761708C2FA0
:103B20000E94F8270894E11CF11C219688E0E81611
:103B3000F104F9F60894A11CB11C88E090E0880E0D
:103B4000991E97E0A916B10409F0BBCFDF91CF9180
:103B50001F910F91FF90EF90DF90CF90BF90AF90AB
:103B60009F908F907F9008951F93162F862F8D57CB
:103B7000823050F487EE94E16DE70E94912B60E271
:103B8000612787EE94E102C087EE94E10E94912BB9
:103B90001F9108958F929F92AF92BF92CF92DF9222
:103BA000EF92FF920F931F93CF93DF93EC01BEEE42
:103BB000EB2EB3E0FB2EE80EF91E00E010E0A0ECC7
:103BC0008A2EABE09A2E880E991EFCECAF2EFBE0FD
:103BD000BF2EA80EB91EEDECCE2EEBE0DE2EC80EE9
:103BE000D91E2AC0F50180818823F1F0F7012081D8
:103BF000F601808191818227282F22952827022E85
:103C0000269526952025022E269520252770082EFC
:103C1000892F269507942795902D8227069427951E
:103C20009025822791838083CE01F70161917F01E6
:103C30000E94B41D0F5F1F4FF4018081918108170E
:103C4000190708F4CFCFF5018081882369F08E0130
:103C50000353144FCE01F80160810E94B41DF80196
:103C60006181CE010E94B41DC054D44F19821882C4
:103C7000279619821882DF91CF911F910F91FF90A3
:103C8000EF90DF90CF90BF90AF909F908F9008956E
:103C90000F931F93CF93DF93EC01062FFC01E054A9
:103CA000F44FC953D44F888199819183808387EEE3
:103CB00094E16EE70E94912B25968881CC5CDB40D5
:103CC0008823F9F0C353D44F8FEF9FEF8027282F1D
:103CD00022952827022E269526952025022E269508
:103CE00020252770082E892F269507942795902D3B
:103CF0008227069427959025822799838883CD5C17
:103D0000DB40CE01602F0E94B41DDE01A054B44FF1
:103D10002D913C911197FE01E453F44F2038310569
:103D200030F580818823F1F0FE01E353F44F808168
:103D300091818227282F22952827022E26952695C5
:103D40002025022E269520252770082E892F2695BE
:103D500007942795902D82270694279590258227F2
:103D600091838083CE01C054D44F688149C0808143
:103D7000882309F437C03068FE01E353F44F808193
:103D800091818327282F22952827022E2695269574
:103D90002025022E269520252770082E892F26956E
:103DA00007942795902D82270694279590258227A2
:103DB0002C918227282F22952827022E269526959A
:103DC0002025022E269520252770082E892F26953E
:103DD00007942795902D8227069427959025822772
:103DE000918380838E010054144FF801208131812A
:103DF0003068CE01632F0E94B41DCE01F8016081AE
:103E00000E94B41DDF91CF911F910F9108950F93E0
:103E10001F93DF93CF930F92CDB7DEB78C016983E9
:103E2000DC01A953B44F8D919C911197F801E80FD3
:103E3000F91FE251FC4F608301968D939C93F8012A
:103E4000E351FC4FC80160810E94481EC8010E94D6
:103E5000CA1D0F90CF91DF911F910F9108959F92EE
:103E6000AF92BF92CF92DF92EF92FF920F931F9388
:103E7000DF93CF93CDB7DEB767970FB6F894DEBF69
:103E80000FBECDBF7C0170E0CB01805890408931DE
:103E9000910508F0AFC588539F4FD701A054B44F88
:103EA000FC01EE0FFF1F0590F491E02D19948D9108
:103EB0009C91892B09F093C5D701ED91FC9102806B
:103EC000F381E02DC70119958C01D701ED91FC918B
:103ED0000280F381E02DC7011995DC010D900020CF
:103EE000E9F7AD0141505040481B590B20E030E04C
:103EF000B7016953744F11C0F701E20FF31FDB01E3
:103F00008D919C91E80FF91FE251FC4FD801A20F4F
:103F1000B31F8C9180832F5F3F4F2417350760F3C9
:103F20005BC18D919C91892B09F059C5D701ED9109
:103F3000FC910480F581E02DC70119958C01D70112
:103F4000ED91FC910480F581E02DC7011995DC010C
:103F50000D900020E9F7AD0141505040481B590B2E
:103F600020E030E0B7016953744F11C0F701E20F50
:103F7000F31FDB018D919C91E80FF91FE251FC4F7B
:103F8000D801A20FB31F8C9180832F5F3F4F24175E
:103F9000350760F321C18D919C91892B09F01FC5D4
:103FA000D701ED91FC910680F781E02DC7011995AD
:103FB0008C01D701ED91FC910680F781E02DC701BE
:103FC0001995DC010D900020E9F7AD0141505040FA
:103FD000481B590B20E030E0B7016953744F11C002
:103FE000F701E20FF31FDB018D919C91E80FF91FA0
:103FF000E251FC4FD801A20FB31F8C9180832F5F39
:104000003F4F2417350760F3E7C08D919C91892BB2
:1040100009F0E5C4D701ED91FC910084F185E02D14
:10402000C70119958C01D701ED91FC910084F185B0
:10403000E02DC7011995DC010D900020E9F7AD01D5
:1040400041505040481B590B20E030E0B701695304
:10405000744F11C0F701E20FF31FDB018D919C91AA
:10406000E80FF91FE251FC4FD801A20FB31F8C914A
:1040700080832F5F3F4F2417350760F3ADC08D91CC
:104080009C91892B09F0ABC4D701ED91FC9102847E
:10409000F385E02DC70119958C01D701ED91FC91B5
:1040A0000284F385E02DC7011995DC010D900020F5
:1040B000E9F7AD0141505040481B590B20E030E07A
:1040C000B7016953744F11C0F701E20FF31FDB0111
:1040D0008D919C91E80FF91FE251FC4FD801A20F7E
:1040E000B31F8C9180832F5F3F4F2417350760F3F8
:1040F00073C08D919C91892B09F071C4D701ED910A
:10410000FC910484F585E02DC70119958C01D70138
:10411000ED91FC910484F585E02DC7011995DC0132
:104120000D900020E9F7AD0141505040481B590B5C
:1041300020E030E0B7016953744F11C0F701E20F7E
:10414000F31FDB018D919C91E80FF91FE251FC4FA9
:10415000D801A20FB31F8C9180832F5F3F4F24178C
:10416000350760F339C08D919C91892B09F037C4D4
:10417000D701ED91FC910684F785E02DC7011995D3
:104180008C01D701ED91FC910684F785E02DC701E4
:104190001995DC010D900020E9F7AD014150504028
:1041A000481B590B20E030E0B7016953744F11C030
:1041B000F701E20FF31FDB018D919C91E80FF91FCE
:1041C000E251FC4FD801A20FB31F8C9180832F5F67
:1041D0003F4F2417350760F3FB0180819181840FE5
:1041E000951FFAC38D919C91892B09F0F8C320E0AB
:1041F00030E0B7016953744FF701E20FF31FDB01A1
:104200004D915C91E40FF51FE251FC4FD901A65787
:10421000BA4F8C9180832F5F3F4F2A30310561F771
:10422000465F5F4FB3C18D919C91870104511C4F34
:10423000029709F073C3D701AB53B44F2D913C9152
:104240001197F701E20FF31FE251FC4F80812F5FBE
:104250003F4FF701E20FF31FE251FC4F60812F5FE8
:104260003F4F2D933C930E94452755C38D919C91C0
:10427000870104511C4F029709F050C3D701AB537B
:10428000B44F2D913C911197F701E20FF31FE251CA
:10429000FC4F80812F5F3F4FF701E20FF31FE25188
:1042A000FC4F60812F5F3F4F2D933C930E94F82776
:1042B00032C38D919C91870104511C4F019709F0E5
:1042C0002DC3D701AB53B44F2D913C911197F701FA
:1042D000E20FF31FE251FC4F80812F5F3F4F2D9380
:1042E0003C930E942B288983D701A953B44F2D9169
:1042F0003C911197F701E20FF31FE251FC4F8083CD
:104300002F5F3F4F2D933C9306C38D919C91870166
:1043100004511C4F029709F001C3D701AB53B44FAE
:104320002D913C911197F701E20FF31FE251FC4FE1
:1043300080812F5F3F4F11963C932E9322513C4F2B
:10434000F701E20FF31F608171812C5E33402D93E2
:104350003C930E946526DFC28D919C91813091052E
:1043600019F0039709F03BC3D701AB53B44F2D911C
:104370003C911197F701E20FF31FE251FC4F90803F
:104380002F5F3F4F11963C932E932150304040ECCD
:104390005BE0E40EF51EF7018081918140E454EF6B
:1043A000E40EF51E0197B1F021513C4FF701E20FE9
:1043B000F31FC080D1802C5E33402D933C9359EE87
:1043C000C51653E0D50648F08CEE93E0E80EF91ED2
:1043D00089E00AC371E0C72ED12C4CEE53E0E40E05
:1043E000F51ED7011C92E4E1FCEFEE0EFF1EF70173
:1043F000E953F44FC601880F991F20813181820F44
:10440000931F918380835EEEA52E53E0B52EAE0CF4
:10441000BF1C00E010E009C0892D0E943126D501A3
:104420008D939D935D010F5F1F4F0C151D05A0F32C
:10443000E1C28D919C91870104511C4F039709F0B3
:1044400051C0D701AB53B44F8D919C911197FC0192
:10445000E251FC4FEE0DFF1D60817181F701E80F05
:10446000F91FE051FC4F408103968D939C93D70137
:10447000ED91FC910288F389E02DC7011995B0C137
:104480008D919C91870104511C4F029759F5D701DA
:10449000AB53B44F8D919C91119782519C4FF70172
:1044A000E80FF91F608171818C5E93408D939C931E
:1044B000D701ED91FC910088F189E02DC701199594
:1044C0008983D701A953B44F2D913C911197F701DE
:1044D000E20FF31FE251FC4F80832F5F3F4F2D937C
:1044E0003C937EC186E080C18D919C91029709F03A
:1044F00076C2D701AB53B44F8D919C911197F701C0
:10450000E80FF91FE251FC4F60810196F701E80FB7
:10451000F91FE251FC4FA08001968D939C938E0170
:10452000065F1F4FC8010E944D08C8010E9479060E
:10453000DD24B02EC12E8E010E5F1F4F8B2D9C2DC2
:10454000B8010E94B707D394AD14C0F7882341F196
:1045500020E030E0B7016953744F8E010E5F1F4FAA
:10456000F701E20FF31FDB014D915C91E40FF51FA2
:10457000E251FC4FD801A20FB31F8C9180832F5FB3
:104580003F4F2830310561F7485F5F4FFB01518392
:1045900040834CEE53E0E40EF51ED7011C9226C278
:1045A0004CEE53E0E40EF51E85E01EC28D919C9109
:1045B0000B9709F014C2D701AB53B44F8D919C9166
:1045C0001197F701E80FF91FE251FC4F6081019646
:1045D00011969C938E9342E0C42ED12CCC0EDD1EFE
:1045E000AD01C601BC2CA92E8E01065F1F4FFA013A
:1045F00080819181F701E80FF91FE251FC4F208182
:104600000196FA0191838083F60121936F01E017EF
:10461000F10769F78D919C911197F701E80FF91F48
:10462000E251FC4F10810196F701E80FF91FE251AA
:10463000FC4F008101968D939C93C6010E944D080A
:10464000C6010E946C07C6016B2D7A2D0E944B0794
:10465000C601612F40E00E940B0710E03AE0A32E54
:10466000B12CAC0EBD1E27ECC22E2BE0D22ECE0CF0
:10467000DF1C13C0C5010E94BA068983D6012D91A3
:104680003C911197F701E20FF31FE251FC4F808339
:104690002F5F3F4F2D933C931F5F101758F3ECEEA5
:1046A000F3E0EE0EFF1E79CF8D919C910B9709F0F0
:1046B00096C1D701AB53B44F8D919C911197F701DF
:1046C000E80FF91FE251FC4F6081019611969C930F
:1046D0008E9392E0C92ED12CCC0EDD1EAD01C60109
:1046E000BC2CA92E8E01065F1F4FFA01808191819B
:1046F000F701E80FF91FE251FC4F20810196FA0102
:1047000091838083F60121936F01E017F10769F728
:104710008D919C911197F701E80FF91FE251FC4F21
:1047200000810196F701E80FF91FE251FC4F10815B
:1047300001968D939C93C6010E944D08C6010E946C
:104740006C07C6016B2D7A2D0E944B07C601602FA6
:10475000412F0E940B071DCF8D919C91029709F06C
:1047600046C0D701AB53B44F8D919C911197F7017F
:10477000E80FF91FE251FC4F60810196F701E80F45
:10478000F91FE251FC4FC08001968D939C938EE3FC
:1047900092E14C2D0E94FE03DD2487010953144F42
:1047A00014C08EE392E10E9437038983D8012D91D2
:1047B0003C911197F701E20FF31FE251FC4F808308
:1047C0002F5F3F4F2D933C93D3948EE392E10E9451
:1047D0002E03892B31F7870104511C4FDC1419F487
:1047E000F801108207C181E0D8018C9303C1ECEE7F
:1047F000F3E0EE0EFF1EF7C08D919C91029708F436
:10480000EEC087010B53144FD8018D919C911197E5
:10481000F701E80FF91FE251FC4F608101968D937B
:104820009C938EE392E10E941A03DD2480ECA82E73
:104830008BE0B82EAE0CBF1C12C0F80180819181B4
:10484000F701E80FF91FE251FC4F60810196D80192
:104850008D939C938EE392E10E94A603D3942D2D19
:1048600030E0F5018081918101972817390728F3FD
:104870008EE392E10E94E9038CCE8D919C91870199
:1048800004511C4F019709F049C0D701AB53B44FF5
:104890002D913C911197F701E20FF31FE251FC4F6C
:1048A00080812F5F3F4F2D933C930E94E40233C0E1
:1048B0008D919C91870104511C4F019779F5D70187
:1048C000AB53B44F2D913C911197F701E20FF31FB9
:1048D000E251FC4F80812F5F3F4F2D933C930E940C
:1048E000F20219C08D919C91870104511C4F0197D0
:1048F000A9F4D701AB53B44F2D913C911197F70117
:10490000E20FF31FE251FC4F80812F5F3F4F2D9349
:104910003C930E94ED02D8011C926CC086E0F80125
:10492000808368C08D919C91019709F058C0D70190
:10493000AB53B44F8D919C911197F701E80FF91F7C
:10494000E251FC4F208101968D939C932EBD0DB4B6
:1049500007FEFDCF2EB52983D701A953B44F8D9102
:104960009C911197F701E80FF91FE251FC4F20834A
:1049700001968D939C930DCE8D919C91892B79F509
:104980004AEE53E0E40EF51ED7016D917C91E6E10D
:10499000FCEFEE0EFF1E870120E030E0A701495337
:1049A000544F10C0F701E20FF31FDA018D919C9173
:1049B000E80FF91FE251FC4FD80111968C918083CA
:1049C0002F5F3F4F0F5F1F4F2617370758F3FA012E
:1049D00080819181860F971F91838083DACD4CEE81
:1049E00053E0E40EF51E86E0D7018C93E4E1FCEF82
:1049F000EE0EFF1E870104511C4FC701D8016C91B8
:104A00000E94071FF801808167960FB6F894DEBFF9
:104A10000FBECDBFCF91DF911F910F91FF90EF900F
:104A2000DF90CF90BF90AF909F9008951F920F920C
:104A30000FB60F9211242F933F938F939F93AF93B1
:104A4000BF938091C2129091C312A091C412B091F1
:104A5000C5123091C6120196A11DB11D232F2D5FE5
:104A60002D3720F02D570196A11DB11D2093C612A0
:104A70008093C2129093C312A093C412B093C51234
:104A80008091BE129091BF12A091C012B091C1123C
:104A90000196A11DB11D8093BE129093BF12A093E9
:104AA000C012B093C112BF91AF919F918F913F916E
:104AB0002F910F900FBE0F901F9018958FB7F894FD
:104AC0002091C2123091C3124091C4125091C5126C
:104AD0008FBFB901CA0108959B01AC017FB7F8945B
:104AE0008091BE129091BF12A091C012B091C112DC
:104AF00066B5A89B05C06F3F19F00196A11DB11DB9
:104B00007FBFBA2FA92F982F8827860F911DA11D2F
:104B1000B11D62E0880F991FAA1FBB1F6A95D1F7CC
:104B2000BC012DC0FFB7F8948091BE129091BF12C6
:104B3000A091C012B091C112E6B5A89B05C0EF3F8D
:104B400019F00196A11DB11DFFBFBA2FA92F982FF3
:104B500088278E0F911DA11DB11DE2E0880F991FBE
:104B6000AA1FBB1FEA95D1F7861B970B885E93405F
:104B7000C8F2215030404040504068517C4F2115D0
:104B800031054105510571F60895019739F0880FF7
:104B9000991F880F991F02970197F1F7089578944C
:104BA00084B5826084BD84B5816084BD85B5826032
:104BB00085BD85B5816085BDEEE6F0E080818160D0
:104BC0008083E1E8F0E010828081826080838081D0
:104BD00081608083E0E8F0E0808181608083E1EBA8
:104BE000F0E0808184608083E0EBF0E08081816090
:104BF0008083E1E9F0E08081826080838081816050
:104C00008083E0E9F0E0808181608083E1EAF0E088
:104C1000808182608083808181608083E0EAF0E02F
:104C2000808181608083E1E2F1E080818260808325
:104C3000808181608083E0E2F1E080818160808317
:104C4000EAE7F0E0808184608083808182608083F5
:104C50008081816080838081806880831092C10020
:104C60000895382F863308F0365320917B00832F28
:104C700086958695869590E08170907043E0880FC8
:104C8000991F4A95E1F7277F282B20937B003770E7
:104C90008091B3048295880F880F807C832B80934A
:104CA0007C0080917A00806480937A0080917A0001
:104CB00086FDFCCF2091780040917900942F80E010
:104CC00030E0282B392BC90108951F93CF93DF9330
:104CD000182FEB0161E00E944527209709F4CAC014
:104CE000CF3FD10509F4C9C0E12FF0E0E25EFC4FEF
:104CF0008491893009F466C08A30B0F48430F1F1CF
:104D0000853040F4823059F1833070F5813009F0FC
:104D1000AEC020C0873009F443C0883008F048C0D6
:104D2000863009F0A4C034C08D3009F478C08E30CC
:104D300038F48B3009F45AC08C3008F066C04CC08F
:104D4000803109F480C0813109F487C08F3009F0C7
:104D50008EC06FC084B5806884BDC7BD92C084B565
:104D6000806284BDC8BD8DC08091800080688093C2
:104D70008000D0938900C093880083C08091800018
:104D8000806280938000D0938B00C0938A0079C0AA
:104D90008091B00080688093B000C093B30071C070
:104DA0008091B00080628093B000C093B40069C06D
:104DB00080919000806880939000D0939900C09378
:104DC00098005FC080919000806280939000D093A3
:104DD0009B00C0939A0055C080919000886080939A
:104DE0009000D0939D00C0939C004BC08091A00088
:104DF00080688093A0008091A0008F7B8093A000AA
:104E0000D093A900C093A8003CC08091A00080620C
:104E10008093A000D093AB00C093AA0032C08091D1
:104E2000A00088608093A000D093AD00C093AC0038
:104E300028C080912001806880932001D0932901AF
:104E4000C09328011EC080912001806280932001C0
:104E5000D0932B01C0932A0114C080912001886057
:104E600080932001D0932D01C0932C010AC0C0383B
:104E7000D1051CF4812F60E002C0812F61E00E9407
:104E8000F827DF91CF911F910895CF93DF93482F9B
:104E900050E0CA0188529D4FFC0134914E565D4F3F
:104EA000FA018491882369F190E0880F991FFC0131
:104EB000EC5BFD4FA591B491FC01E25AFD4FC59109
:104EC000D491662351F42FB7F8948C91932F909539
:104ED00089238C93888189230BC0623061F42FB7BA
:104EE000F8948C91932F909589238C938881832BB0
:104EF00088832FBF06C09FB7F8948C91832B8C9327
:104F00009FBFDF91CF910895893009F449C08A305D
:104F1000A0F4843051F1853040F4823079F183304F
:104F200000F5813009F063C026C0873079F1883000
:104F300098F5863009F05BC025C08D3009F442C079
:104F40008E3028F48B30B1F18C30C0F52DC080311B
:104F500009F442C0813109F445C08F3009F047C0DF
:104F600037C0809180008F7703C0809180008F7D53
:104F700080938000089584B58F7702C084B58F7DBB
:104F800084BD08958091B0008F7703C08091B000F8
:104F90008F7D8093B0000895809190008F7707C037
:104FA000809190008F7D03C080919000877F8093D7
:104FB000900008958091A0008F7707C08091A00095
:104FC0008F7D03C08091A000877F8093A00008950B
:104FD000809120018F7703C0809120018F7D809385
:104FE0002001089580912001877F809320010895FA
:104FF000FF920F931F93F62E482F50E0CA01825E56
:105000009C4FFC012491CA0188529D4FFC011491D0
:105010004E565D4FFA0104910023C9F0222319F086
:10502000822F0E948427E02FF0E0EE0FFF1FE25A4C
:10503000FD4FA591B4919FB7F894FF2021F48C9176
:105040001095812302C08C91812B8C939FBF1F915F
:105050000F91FF9008950F931F93482F50E0CA01BE
:10506000825E9C4FFC012491CA0188529D4FFC0135
:1050700004914E565D4FFA011491112319F420E06A
:1050800030E015C0222319F0822F0E948427812F3F
:1050900090E0880F991F88589D4FFC01A591B4910D
:1050A0008C9120E030E0802311F021E030E0C90154
:1050B0001F910F91089508951F920F920FB60F92AE
:1050C0000BB60F9211242F933F934F938F939F937F
:1050D000EF93FF938091C00082FD1DC04091C600F8
:1050E00020910713309108132F5F3F4F2F733070BB
:1050F0008091091390910A132817390771F0E091F4
:105100000713F0910813E953FD4E408330930813C1
:105110002093071302C08091C600FF91EF919F91E9
:105120008F914F913F912F910F900BBE0F900FBE1B
:105130000F901F90189508951F920F920FB60F921F
:105140000BB60F9211242F933F934F938F939F93FE
:10515000EF93FF938091C80082FD1DC04091CE0067
:1051600020918F13309190132F5F3F4F2F7330702A
:1051700080919113909192132817390771F0E09163
:105180008F13F0919013E15BFC4E408330939013AA
:1051900020938F1302C08091CE00FF91EF919F91D9
:1051A0008F914F913F912F910F900BBE0F900FBE9B
:1051B0000F901F90189508951F920F920FB60F929F
:1051C0000BB60F9211242F933F934F938F939F937E
:1051D000EF93FF938091D00082FD1DC04091D600D7
:1051E00020911714309118142F5F3F4F2F73307098
:1051F0008091191490911A142817390771F0E091D1
:105200001714F0911814E952FC4E4083309318148F
:105210002093171402C08091D600FF91EF919F91C7
:105220008F914F913F912F910F900BBE0F900FBE1A
:105230000F901F90189508951F920F920FB60F921E
:105240000BB60F9211242F933F934F938F939F93FD
:10525000EF93FF938091300182FD1DC04091360194
:1052600020919F143091A0142F5F3F4F2F73307007
:105270008091A1149091A2142817390771F0E09140
:105280009F14F091A014E15AFB4E40833093A01478
:1052900020939F1402C080913601FF91EF919F915E
:1052A0008F914F913F912F910F900BBE0F900FBE9A
:1052B0000F901F901895E091F314F091F414E05CB6
:1052C000FF4F8191919120813181821B930B8F73CC
:1052D0009070892B11F00E945B28E0911515F091D8
:1052E0001615E05CFF4F8191919120813181821BE5
:1052F000930B8F739070892B11F00E949B28E09183
:105300003715F0913815E05CFF4F81919191208124
:105310003181821B930B8F739070892B11F00E9447
:10532000DB28E0915915F0915A15E05CFF4F81910F
:10533000919120813181821B930B8F739070892B07
:1053400011F00E941B2908951F920F920FB60F9221
:105350000BB60F9211242F933F938F939F93EF934C
:10536000FF9320914B1330914C1380914D139091EA
:105370004E132817390731F48091C1008F7D809337
:10538000C10014C0E0914D13F0914E13E55FFC4E47
:10539000208180914D1390914E1301968F739070E0
:1053A00090934E1380934D132093C600FF91EF917D
:1053B0009F918F913F912F910F900BBE0F900FBE39
:1053C0000F901F9018951F920F920FB60F920BB669
:1053D0000F9211242F933F938F939F93EF93FF93FB
:1053E0002091D3133091D4138091D5139091D6137B
:1053F0002817390731F48091C9008F7D8093C90047
:1054000014C0E091D513F091D613ED56FC4E2081D7
:105410008091D5139091D61301968F7390709093CD
:10542000D6138093D5132093CE00FF91EF919F91D7
:105430008F913F912F910F900BBE0F900FBE0F9049
:105440001F9018951F920F920FB60F920BB60F92E6
:1054500011242F933F938F939F93EF93FF9320916A
:105460005B1430915C1480915D1490915E14281748
:10547000390731F48091D1008F7D8093D10014C021
:10548000E0915D14F0915E14E55EFB4E2081809109
:105490005D1490915E1401968F73907090935E14DA
:1054A00080935D142093D600FF91EF919F918F918F
:1054B0003F912F910F900BBE0F900FBE0F901F903A
:1054C00018951F920F920FB60F920BB60F921124E0
:1054D0002F933F938F939F93EF93FF932091E31428
:1054E0003091E4148091E5149091E614281739075F
:1054F00031F4809131018F7D8093310114C0E091AE
:10550000E514F091E614ED55FB4E20818091E514F1
:105510009091E61401968F7390709093E6148093A7
:10552000E51420933601FF91EF919F918F913F9168
:105530002F910F900BBE0F900FBE0F901F901895DC
:10554000AF92BF92DF92EF92FF920F931F93CF9390
:10555000DF93EC017A018B01DD24403081EE5807A6
:1055600080E0680780E0780711F0DD24D39491E0B3
:10557000A92EB12CEC89FD89DD2069F0C50108A0B8
:1055800002C0880F991F0A94E2F7808360E079E0F7
:105590008DE390E005C0108260E874E88EE190E051
:1055A000A80197010E9419342150304040405040DA
:1055B000569547953795279580E12030380720F09C
:1055C000DD2011F0DD24D6CFE889F9893083EA891E
:1055D000FB89208319A2EE89FF89408121E030E018
:1055E000C9010C8C02C0880F991F0A94E2F7482B5E
:1055F0004083EE89FF894081C9010D8C02C0880F6C
:10560000991F0A94E2F7482B4083EE89FF89408175
:10561000C9010E8C02C0880F991F0A94E2F7482B2B
:105620004083EE89FF8980810F8C02C0220F331FD7
:105630000A94E2F7209528232083DF91CF911F91D0
:105640000F91FF90EF90DF90BF90AF900895DC0135
:105650001C96ED91FC911D97E05CFF4F21913191DB
:1056600080819181281B390B2F733070C9010895F7
:10567000DC011C96ED91FC911D97E05CFF4F2081B1
:105680003181E054F040DF01AE5BBF4F8D919C91C2
:1056900011972817390719F42FEF3FEF07C08D91A5
:1056A0009C91E80FF91F8081282F30E0C9010895EF
:1056B000DC011C96ED91FC911D97E05CFF4F208171
:1056C0003181E054F040DF01AE5BBF4F8D919C9182
:1056D00011972817390719F42FEF3FEF10C08D915C
:1056E0009C911197E80FF91F20818D919C91119742
:1056F00001968F73907011969C938E9330E0C90140
:105700000895DC0191968C919197882339F05496F5
:10571000ED91FC915597808186FFF9CF91961C926F
:105720000895CF93DF93EC01EE85FF85E05CFF4F9A
:1057300020813181E054F0402F5F3F4F2F73307054
:10574000DF01AE5BBF4F8D919C91119728173907F0
:10575000D1F3E05CFF4F80819181E054F040E80F8D
:10576000F91F6083EE85FF85E05CFF4F3183208366
:10577000EE89FF89208181E090E00F8C02C0880FC4
:10578000991F0A94E2F7282B208381E089A3EC89F2
:10579000FD8980818064808381E090E0DF91CF91FA
:1057A00008951F931092EA141092E91428EE33E042
:1057B00040E050E02093EB143093EC144093ED1450
:1057C0005093EE1463EB75E07093E8146093E71464
:1057D00087EC92E19093F4148093F3148BE093E1BF
:1057E0009093F6148093F51485EC90E09093F81460
:1057F0008093F71484EC90E09093FA148093F9145A
:1058000080EC90E09093FC148093FB1481EC90E08A
:105810009093FE148093FD1482EC90E09093001519
:105820008093FF1486EC90E090930215809301150D
:1058300014E010930315B3E0B0930415A7E0A09310
:105840000515F5E0F0930615E1E0E09307151092D9
:105850000C1510920B1520930D1530930E154093D7
:105860000F155093101570930A15609309158FE466
:1058700093E1909316158093151583E993E1909326
:105880001815809317158DEC90E090931A1580935E
:1058900019158CEC90E090931C1580931B1588ECE7
:1058A00090E090931E1580931D1589EC90E09093E5
:1058B000201580931F158AEC90E090932215809319
:1058C00021158EEC90E0909324158093231510936E
:1058D0002515B0932615A0932715F0932815E0936E
:1058E000291510922E1510922D1520932F153093F7
:1058F0003015409331155093321570932C156093E9
:105900002B1587ED93E190933815809337158BE134
:1059100094E190933A158093391585ED90E090933A
:105920003C1580933B1584ED90E090933E15809359
:105930003D1580ED90E09093401580933F1581EDEB
:1059400090E0909342158093411582ED90E0909302
:1059500044158093431586ED90E09093461580930F
:10596000451510934715B0934815A0934915F0932A
:105970004A15E0934B151092501510924F15209335
:1059800051153093521540935315509354157093FD
:105990004E1560934D158FE594E190935A158093C1
:1059A000591583EA94E190935C1580935B1585E328
:1059B00091E090935E1580935D1584E391E0909360
:1059C000601580935F1580E391E09093621580935A
:1059D000611581E391E0909364158093631582E3F0
:1059E00091E0909366158093651586E391E090931E
:1059F00068158093671510936915B0936A15A09385
:105A00006B15F0936C15E0936D151F910895CF926F
:105A1000DF92EF92FF920F931F93CF93DF937C015E
:105A20006B018A01C0E0D0E00FC0D6016D916D011D
:105A3000D701ED91FC910190F081E02DC7011995FE
:105A4000C80FD91F015010400115110571F7CE0183
:105A5000DF91CF911F910F91FF90EF90DF90CF904A
:105A60000895EF92FF920F931F938C01DC01ED914B
:105A7000FC910190F081E02D6DE019957C01D80139
:105A8000ED91FC910190F081E02DC8016AE019953B
:105A90009C012E0D3F1DC9011F910F91FF90EF90AA
:105AA0000895CF93DF93EC016115710519F420E09F
:105AB00030E00FC0DB010D900020E9F71197A61B25
:105AC000B70BE881F9810280F381E02DAD011995D2
:105AD0009C01C901DF91CF9108954F925F927F920F
