:100000000C94BD010C94EA010C94EA010C94EA01F1
:100010000C94EA010C94EA010C94EA010C94EA01B4
:100020000C94EA010C94EA010C94EA010C94EA01A4
:100030000C94EA010C94EA010C94EA010C94EA0194
:100040000C94EA010C94EA010C94EA010C94EA0184
:100050000C94E90A0C94EA010C94EA010C943634ED
:100060000C94EA010C9463370C94AB380C94EA01BD
:100070000C94EA010C94BE0A0C94EA010C94EA0177
:100080000C94EA010C94EA010C94EA010C94D00D52
:100090000C94A3370C94EA380C94EA010C94DA0619
:1000A0000C94EA010C94EA010C94EA010C94EA0124
:1000B0000C94EA010C94EA010C94EA010C94EA0114
:1000C0000C94EA010C94EA010C94EA010C94E337D5
:1000D0000C9429390C94EA010C9423380C94683957
:1000E0000C94EA0119163116B716D41665179F1726
:1000F000B617DE17FA1723183A18DE1DDE1D3C1955
:100100007619A219EF194F1AA71A0F1B261B821B6B
:10011000A81BEF1C421D631D051D211D8A1DA71D67
:10012000DE1DDE1DDE1DDE1DDE1DDE1DDE1DDE1DF7
:10013000DE1DDE1DDE1DDE1DDE1DDE1DDE1DDE1DE7
:10014000DE1DDE1DDE1DDE1DDE1DDE1DDE1DDE1DD7
:10015000DE1DDE1DDE1DDE1DDE1DDE1DDE1DDE1DC7
:10016000DE1DDE1DDE1DDE1DDE1DDE1DDE1DDE1DB7
:10017000DE1DDE1DDE1DDE1DDE1DDE1DDE1DDE1DA7
:10018000DE1DDE1DDE1DDE1DDE1DDE1DEC1BD71C93
:10019000AA22E4221E235823DD239223172472244B
:1001A000B82495240B25E4240E26E7253F2619279D
:1001B0009B26B8277127F92714282E284E2878283F
:1001C0005124AE28D128EF280C293A290800000034
:1001D000BE922449123EABAAAA2ABECDCCCC4C3E3C
:1001E00000000080BEABAAAAAA3E00000000BF002B
:1001F0000000803F0000000000084178D3BB438727
:10020000D1133D190E3CC3BD4282AD2B3E68EC823A
:1002100076BED98FE1A93E4C80EFFFBE01C4FF7FBF
:100220003F000000000007634236B79BD8A71A3989
:10023000685618AEBAAB558C1D3CB7CC5763BD6D34
:10024000EDFD753EF6177231BF000000803F0000E3
:100250002100240027002A002D0030003300010176
:100260000000040107010A01000022002500280007
:100270002B002E00310034000201000005010801AE
:100280000B01000020002300260029002C002F0075
:100290003200000100000301060109010505050502
:1002A000070508080808020202020A0A08080404EE
:1002B000040401010101010101010303030303031C
:1002C0000303040707070C0C0C0C0C0C0C0C0202AB
:1002D000020206060606060606060B0B0B0B0B0BA8
:1002E0000B0B010210202008081020401020408035
:1002F00002010201080402010102040810204080EA
:100300008040201008040201800402018040201077
:1003100008040201080402010102040810204080C0
:1003200001020408102040800000090A02080B0C9A
:100330000D0706030401000000000000000000009B
:1003400000000000000000000000000000000000AD
:100350000000000011100F0000000000000000006D
:1003600000000000000000000000000000001F046A
:100370007205F30A8A29D83A180411241FBECFEF58
:10038000D1E2DEBFCDBF00E00CBF14E0A0E0B2E0E0
:10039000E6E0FAE800E00BBF02C007900D92A83D2E
:1003A000B107D9F71BBE11E1A8EDB4E001C01D9261
:1003B000A036B107E1F713E0C8E7D3E004C0229705
:1003C000FE010E94BB44CE36D107C9F70E94D60475
:1003D0000C94F6440C940000CF93DF93BC01823060
:1003E000910510F462E070E0A0915E11B0915F1190
:1003F000ED01E0E0F0E040E050E021C0888199812B
:100400008617970769F48A819B81309719F0938347
:10041000828304C090935F1180935E11FE0134C00B
:100420006817790738F44115510519F084179507B5
:1004300008F4AC01FE018A819B819C01E9012097AF
:10044000E9F641155105A9F1CA01861B970B0497DE
:1004500008F4BA01E0E0F0E02AC08D919C91119778
:1004600084179507F9F46417750781F412968D9136
:100470009C911397309719F09383828304C09093D3
:100480005F1180935E11FD0132964CC0CA01861B3C
:10049000970BFD01E80FF91F6193719302978D93FC
:1004A0009C9340C0FD01828193819C01D9011097EA
:1004B000A1F680915C1190915D11892B41F480919E
:1004C000D5039091D60390935D1180935C11409178
:1004D000D7035091D8034115510541F44DB75EB78C
:1004E0008091D3039091D403481B590B20915C1148
:1004F00030915D11CA01821B930B8617970780F01C
:10050000AB014E5F5F4F8417950750F0420F531FAA
:1005100050935D1140935C11F9016193719302C096
:10052000E0E0F0E0CF01DF91CF910895CF93DF932A
:10053000009709F450C0EC0122971B821A82A09107
:100540005E11B0915F11109709F140E050E0AC17D7
:10055000BD0708F1BB83AA83FE0121913191E20F0F
:10056000F31FAE17BF0779F48D919C911197280F57
:10057000391F2E5F3F4F3983288312968D919C91AE
:1005800013979B838A834115510571F4D0935F11B2
:10059000C0935E1120C012968D919C911397AD016E
:1005A000009711F0DC01D3CFFA01D383C2832191EC
:1005B0003191E20FF31FCE17DF0769F4888199812B
:1005C000280F391F2E5F3F4FFA01318320838A8124
:1005D0009B8193838283DF91CF910895A0E0B0E067
:1005E000E4EFF2E00C94C1446C01009729F4CB01D4
:1005F0000E94EC016C01C1C08EEF882E8FEF982E07
:100600008C0C9D1C8601060F171F0815190508F490
:10061000B2C0F401A081B181A617B707B8F0A53028
:10062000B10508F4AAC0CD0104978617970708F40E
:10063000A4C01297A61BB70BF801A193B193D401E4
:100640006D937C93CF010E94960297C07B01EA1ABA
:10065000FB0AEEEFFFEFEE0EFF1E36016A0E7B1E69
:10066000C0915E11D0915F1144245524AA24BB246B
:100670004AC0C615D705E1F5488159814E155F0579
:10068000B8F1CA0104978E159F05B0F41296A40F15
:10069000B51FF401B183A0832A813B814114510429
:1006A00031F0D20113963C932E93129766C030938B
:1006B0005F1120935E1161C08A819B81F801938351
:1006C0008283425050404E195F0951834083411448
:1006D000510431F0D20113961C930E93129704C06B
:1006E00010935F1100935E11F4017183608345C024
:1006F00088819981A816B90608F45C012E018A81C7
:100700009B819C01E901209709F0B3CF80915C1196
:1007100090915D1186159705E9F4A616B706D0F4F9
:100720002091D7033091D8032115310541F42DB71D
:100730003EB78091D3039091D403281B390B021745
:100740001307C8F410935D1100935C11D4016D93ED
:100750007C9313C0CB010E94EC01EC01009759F08F
:10076000F40140815181B6010E94C303C6010E9479
:1007700096026E0102C0CC24DD24C601CDB7DEB7DF
:10078000E0E10C94DD44FB01DC0102C001900D921C
:1007900041505040D8F70895FB01DC0101900D92C3
:1007A0000020E1F70895FB019F01423074F04532CB
:1007B00064F4642F77270E948344805D8A330CF0B1
:1007C000895D8193CB010097A1F71082C9010C9438
:1007D000E903DC01FC01672F71917723E1F7329780
:1007E00004C07C916D9370836291AE17BF07C8F30C
:1007F00008958091D9039091DA0301969093DA03DA
:100800008093D90308958130910541F46F5F7F4F44
:1008100071F488ED94E00E940F1E0895892B39F43D
:100820006F5F7F4F21F488ED94E00E94061E0895CB
:1008300080E090E06FEF7FEF0E940304089581E075
:1008400090E06FEF7FEF0E94030408958BE69EE037
:1008500040E45BE46CE470E00E946A0E8BE69EE08C
:1008600069EF73E02FEF3FEF4FEF5FEF0E94720EE3
:1008700088ED94E00E94F81184ED90E160E072E070
:100880000E94B73D6FEF71E26050724084ED90E1DD
:100890004AE050E00E94983D84ED90E165E072E00E
:1008A0000E94B73D68ED74E06050724084ED90E1C5
:1008B0004AE050E00E94983D84ED90E16CE072E0E7
:1008C0000E94B73D60E671E1685D744084ED90E19F
:1008D0004AE050E00E94983D84ED90E162E172E0D0
:1008E0000E94B73D60915C1170915D1161157105B9
:1008F00019F460E070E002C06056714184ED90E14F
:100900004AE050E00E94983D84ED90E168E172E099
:100910000E94B73D8DB79EB76FEF71E2681B790BF0
:1009200084ED90E14AE050E00E94983D84ED90E132
:100930006FE172E00E94B73D80915C1190915D1172
:10094000009729F46DB77EB76056714104C06DB74A
:100950007EB7681B790B84ED90E14AE050E00E947D
:10096000983D089588ED94E00E9473208091D9030A
:100970009091DA0369E170E00E948344892BA9F425
:1009800080912A0D882359F080912B0D882329F41A
:1009900088ED94E00E94A70E02C010922B0D81E01A
:1009A00090E09093DA038093D9030895CF93DF9377
:1009B0000E9407350E942604C2E6D8E30E94B204D2
:1009C0002097E1F30E946238F9CFF999FECF72BD0A
:1009D00061BDF89A80B50895F999FECF1FBA72BD2E
:1009E00061BD40BD0FB6F894FA9AF99A0FBE08950A
:1009F000882319F48CB5806202C08CB58F7D8CBDC4
:100A000008959CB5937F982B9CBD08952CB5382FE5
:100A100033702C7F322B3CBD2DB590E0959587959A
:100A20009595879581702E7F822B8DBD089585E3E6
:100A300061E00E94FF3685E361E00E944C368CB590
:100A400080618CBD8CB580648CBD84E361E00E94C4
:100A50004C3683E361E00E944C36089581E0809338
:100A6000D10D6093AE0D1092CF0D1092D00D089560
:100A700081E08093D10D6093AE0D1092CF0D109256
:100A8000D00D08952091AD0D30E08091AC0D281B64
:100A90003109C90108954091AC0D8091AD0D481701
:100AA00018F02FEF3FEF0AC0E42FF0E0E457F24FC9
:100AB0008081282F30E04F5F4093AC0DC90108952D
:100AC000E091AC0D8091AD0DE81718F0EFEFFFEF5E
:100AD00006C0F0E0E457F24F8081E82FF0E0CF014C
:100AE000089508951092D50D1092D40D88EE93E0DC
:100AF000A0E0B0E08093D60D9093D70DA093D80DD1
:100B0000B093D90D80EE93E09093D30D8093D20DE6
:100B10000895CF92DF92EF92FF920F931F93CF939E
:100B2000DF937C016B018A018091D10D8823A1F0B4
:100B3000C0E0D0E00DC0D701ED91FC91D601AC0F23
:100B4000BD1F0190F081E02DC7016C911995219690
:100B5000C017D10780F304C0CB01642F0E94BF06E9
:100B6000C801DF91CF911F910F91FF90EF90DF901F
:100B7000CF900895DF93CF930F92CDB7DEB7FC01EE
:100B800069838091D10D8823C9F08091D00D803286
:100B900038F081E090E09383828320E030E015C05C
:100BA0008091CF0DE82FF0E0E155F24F99819083CD
:100BB0008F5F8093CF0D8093D00D05C0CE0101963D
:100BC00061E00E94BF0621E030E0C9010F90CF91A3
:100BD000DF9108950F93062F8091AE0D6FEA7DE0AF
:100BE0004091D00D21E00E946A061092CF0D109224
:100BF000D00D1092D10D0F91089561E00E94EA0589
:100C00000895413208F040E2862F6CE87DE00E94B2
:100C100021061092AC0D8093AD0D089521E00E9445
:100C20000106089521E00E94010608951092AC0D7E
:100C30001092AD0D1092CF0D1092D00D0E946F0842
:100C40000895382F413210F040E042C08091DE0D0F
:100C50008823E1F791E09093DE0D2093E00D8FEF74
:100C600080934B0E1092060E41504093070E4F5F3B
:100C70009093DF0D8091DF0D330F832B8093DF0D79
:100C80008091E10D813041F41092E10D8091DF0DF2
:100C90008093BB0085EC01C085EE8093BC00809101
:100CA000DE0D8130E1F38091060E841710F440913F
:100CB000060E20E030E00AC0FB01E20FF31FD9016D
:100CC000AA51B24F8C9180832F5F3F4F2417A0F31E
:100CD000842F08950F931F93582F122F413210F035
:100CE00081E04AC08091DE0D8823E1F782E08093A5
:100CF000DE0D0093E00D8FEF80934B0E1092060EE9
:100D00004093070EA6EEBDE0FB0102C081918D93DA
:100D10008E2F861B8417D0F31092DF0D8091DF0D8C
:100D2000550F852B8093DF0D8091E10D813041F4CB
:100D30001092E10D8091DF0D8093BB0085EC01C026
:100D400085EE8093BC00112321F08091DE0D82306E
:100D5000E1F380914B0E8F3F11F480E00DC0809144
:100D60004B0E803211F482E007C080914B0E80332D
:100D700011F084E001C083E01F910F910895482F86
:100D8000613210F081E008958091DE0D843011F021
:100D900082E008956093290EA8E0BEE0842F9C01B4
:100DA000F90102C081918D938E2F841B8617D0F399
:100DB00080E008951F920F920FB60F920BB60F921C
:100DC00011242F933F934F935F936F937F938F9350
:100DD0009F93AF93BF93EF93FF938091B90090E0FF
:100DE000887F90708036910509F4F2C081369105B4
:100DF000CCF58832910509F47BC089329105B4F4B1
:100E00008031910509F46FC0813191053CF4009760
:100E100009F447C1089709F04FC165C088319105B1
:100E200009F466C0809709F047C182C080349105FB
:100E300009F4A4C08134910544F48033910509F488
:100E400082C0C89709F038C189C08035910509F47E
:100E500089C08835910509F496C08834910509F058
:100E60002BC1AEC08839910509F413C189399105A8
:100E7000ECF48837910509F4ABC0893791054CF43F
:100E80008836910509F4A4C08037910509F014C192
:100E90009FC08838910509F4FCC08039910509F498
:100EA0009DC08038910509F007C198C0803B91052D
:100EB00009F4C6C0813B91054CF4803A910509F4D0
:100EC0009FC0883A910509F0F7C0BAC0803C9105EF
:100ED00009F4E3C0883C910509F4DFC0883B910523
:100EE00009F0EAC0C2C08091DF0D8093BB00CFC083
:100EF0009091060E8091070E981768F49091060E57
:100F0000E92FF0E0EA51F24F80818093BB009F5FB0
:100F10009093060EBCC08091E00D882309F44BC06D
:100F200085ED8093BC008091BC0084FDFCCFC2C0E5
:100F300080E280934B0E85ED8093BC008091BC00D5
:100F400084FDFCCFB7C080E380934B0E85ED80938A
:100F5000BC008091BC0084FDFCCFACC088E38093D2
:100F60004B0E9BC08091060E9091BB00E82FF0E0E5
:100F7000EA51F24F90838F5F8093060E9091060E98
:100F80008091070E82C08091060E9091BB00E82FE1
:100F9000F0E0EA51F24F90838F5F8093060E8091CC
:100FA000E00D882341F085ED8093BC008091BC006A
:100FB00084FDFCCF7FC081E08093E10D84EA6EC0A8
:100FC00085ED8093BC008091BC0084FDFCCF72C095
:100FD00083E08093DE0D10924A0E59C080914A0E34
:100FE000803208F056C080914A0E9091BB00E82FE5
:100FF000F0E0E65DF14F90838F5F80934A0E47C02B
:1010000080914A0E803230F4E0914A0EF0E0E65DC5
:10101000F14F108285ED8093BC008091BC0084FD6F
:10102000FCCF1092DE0D60914A0EE091E40DF0913C
:10103000E50D8AE29EE070E0199510924A0E2DC0EF
:1010400084E08093DE0D1092280E1092290EE0911C
:10105000E20DF091E30D19958091290E882329F472
:1010600081E08093290E1092080E9091280EE92FAE
:10107000F0E0E85FF14F80818093BB009F5F909329
:10108000280E9091280E8091290E981710F485EC67
:1010900001C085E88093BC000FC085EC8093BC0044
:1010A00009C010924B0E85ED8093BC008091BC006E
:1010B00084FDFCCF1092DE0DFF91EF91BF91AF91B7
:1010C0009F918F917F916F915F914F913F912F9160
:1010D0000F900BBE0F900FBE0F901F90189510929F
:1010E000DE0D81E08093E00D1092E10D84E161E07E
:1010F0000E94FF3685E161E00E94FF36E9EBF0E0F7
:1011000080818E7F808380818D7F808388E480933F
:10111000B80085E48093BC000895EAE7F0E0908190
:10112000987F90839081982B9083089520917A00E6
:1011300030E027703070C9010895EF92FF920F934D
:101140001F937B018C0180E18093810010928000CD
:1011500060E074E284E799E4A80197010E94C0402E
:1011600020E030E040E051E40E9496420E942D4190
:101170009B01AC01203080E0380781E0480780E027
:10118000580728F481E080936A0EB90155C02030D9
:1011900080E0380788E0480780E0580768F482E07C
:1011A00080936A0EDA01C901E3E0B695A795979599
:1011B0008795EA95D1F714C0203080E0380780E4A5
:1011C000480780E0580770F483E080936A0EDA01E4
:1011D000C90176E0B695A795979587957A95D1F749
:1011E000BC012AC0203080E0380780E0480781E059
:1011F000580740F484E080936A0EBB27A52F942FF4
:10120000832FEECF203080E0380780E0480784E06D
:10121000580768F485E080936A0EDA01C9012AE074
:10122000B695A795979587952A95D1F7D9CF85E05B
:1012300080936A0E6FEF7FEF709387006093860054
:1012400091E090936F0080917B00887F80937B007A
:1012500080917B00866080937B009093540E8091F8
:101260007A00806280937A00E0925E0EF0925F0EC8
:101270000093600E1093610E1F910F91FF90EF90FD
:101280000895882321F080917C00806203C08091C2
:101290007C008F7D80937C0008958093540E88237A
:1012A00021F080917A00806203C080917A008F7D66
:1012B00080937A00089591E09093580E1092560E04
:1012C0001092550E1092590E23E13AE030935B0EC6
:1012D00020935A0E8093570E90917C00907F9093AC
:1012E0007C0020917C00982F9770922B90937C002B
:1012F000883020F080917B00886003C080917B0063
:10130000877F80937B0008958093570E90917C0097
:10131000907F90937C0020917C00982F9770922B67
:1013200090937C00883020F080917B00886003C01F
:1013300080917B00877F80937B0008958091590E78
:101340008F5F8093590E9091580E891711F4109267
:10135000590E8091590EE091550EF091560EE80FFE
:10136000F11D20812093570E80917C00807F809317
:101370007C0090917C00822F8770892B80937C0069
:10138000283020F080917B00886003C080917B0032
:10139000877F80937B005091780040917900209165
:1013A000500E3091510E8091520E9091530E28178D
:1013B0003907C0F58091540E882329F480917A0072
:1013C000806480937A00942F80E0452F50E0482B72
:1013D000592B80917C0085FF11C08091500E909117
:1013E000510EE0914C0EF0914D0EE80FF91F508315
:1013F00001969093510E8093500E08958091500E57
:101400009091510E9C01220F331FE0914E0EF091EE
:101410004F0EE20FF31F5183408301969093510EBC
:101420008093500E0895509178004091790020915A
:10143000500E3091510E8091520E9091530E2817FC
:101440003907C0F58091540E882329F480917A00E1
:10145000806480937A00942F80E0452F50E0482BE1
:10146000592B80917C0085FF11C08091500E909186
:10147000510EE0914C0EF0914D0EE80FF91F508384
:1014800001969093510E8093500E08958091500EC6
:101490009091510E9C01220F331FE0914E0EF0915E
:1014A0004F0EE20FF31F5183408301969093510E2C
:1014B0008093500E08955091590E9091580E92308D
:1014C00050F1852F8F5F8093590E891711F4109278
:1014D000590E8091590EE091550EF091560EE80F7D
:1014E000F11D20812093570E80917C00807F809396
:1014F0007C0090917C00822F8770892B80937C00E8
:10150000283020F080917B00886003C080917B00B0
:10151000877F80937B0060917800409179002091D3
:10152000500E3091510E8091520E9091530E28170B
:10153000390718F58091540E882329F480917A0098
:10154000806480937A00942F80E070E0682B792B80
:1015500080917C0085FF02C0672F7727E0915C0EA9
:10156000F0915D0E852F19958091500E9091510E3E
:1015700001969093510E8093500E08951F920F92F2
:101580000FB60F920BB60F9211242F933F934F93E8
:101590005F936F937F938F939F93AF93BF93EF93DB
:1015A000FF93E0915A0EF0915B0E1995FF91EF9128
:1015B000BF91AF919F918F917F916F915F914F916B
:1015C0003F912F910F900BBE0F900FBE0F901F9069
:1015D00018951F920F920FB60F9211240F900FBE05
:1015E0000F901F901895ECE7F0E080818F73808357
:1015F00080818064808308950F931F9300917C0005
:1016000010917B0080917C00807E80937C00809193
:101610007C008E6180937C0080917B00877F80932B
:101620007B0063E070E080E090E00E94A434809151
:101630007A00806480937A0080917A0086FDFCCFE6
:10164000209178004091790000937C0010937B00FA
:10165000742F60E030E0622B732B882777FD809534
:10166000982F0E945B419B01AC0160E070E889E823
:1016700094E40E94C0401F910F910895AF92BF92D1
:10168000CF92DF92EF92FF920F931F930E947E34CE
:101690005B016C0180917A00877D80937A00809154
:1016A0007B008770863029F480918100887F809349
:1016B00081006091520E7091530E80E090E00E9484
:1016C000594120E034E244E759E40E9496427B010C
:1016D0008C018091660E9091670EA091680EB0917A
:1016E000690EA81AB90ACA0ADB0AC601B5010E9426
:1016F00059419B01AC01C801B7010E94C0406093F1
:10170000620E7093630E8093640E9093650E1F912A
:101710000F91FF90EF90DF90CF90BF90AF90089522
:101720001092510E1092500E8091540E882321F089
:1017300080917A00806203C080917A008F7D8093CF
:101740007A000E947E346093660E7093670E8093D9
:10175000680E9093690E80917A00886C80937A006D
:1017600080917B008770863081F480918100887F32
:1017700080938100109285001092840080918100F6
:1017800090916A0E892B809381000895FC01138645
:101790001586148687E090E012863197009711F045
:1017A0000197FACF0895DF92EF92FF920F931F9364
:1017B000FC01E08001811281F894F80181818E2979
:1017C00081838281DE2CD0948D21828383E090E01E
:1017D0000E94FD34F80181818D2181838AE090E0AF
:1017E0000E94FD34F8010081789485E390E00E9426
:1017F000FD3480E010E0FF240E211F21012B09F0B1
:1018000081E01F910F91FF90EF90DF900895EF928C
:10181000FF920F931F93CF93DF937C0101E010E0C1
:10182000C0E0D0E0C7010E94D30B8111102B000F44
:101830002196C830D105B1F7812FDF91CF911F914B
:101840000F91FF90EF9008951F93CF93DF93FC01CA
:101850001081C181D281912F909560FF12C0F894C0
:101860008A8189238A838981812B89838AE090E018
:101870000E94FD348A81812B8A83789487E390E0EB
:1018800011C0F8948A8189238A838981812B898375
:1018900081E490E00E94FD348A81812B8A837894D0
:1018A00085E090E00E94FD34DF91CF911F91089573
:1018B000CF92DF92EF92FF920F931F93CF93DF931C
:1018C0008C01E42EFF24F394C0E0D0E0C62EDD248A
:1018D00060E08F2D90E08C219D21892B09F061E043
:1018E000C8010E94240CFF0C2196C830D10581F755
:1018F000EE20A9F4F894D8011196ED91FC9112977D
:1019000091818C918095982391831196ED91FC9112
:10191000129792818C918095982392837894DF918D
:10192000CF911F910F91FF90EF90DF90CF9008958E
:10193000EF92FF920F931F93CF93DF938C017B0164
:1019400065E540E00E94580CC0E0D0E0F701EC0FE4
:10195000FD1FC801608140E00E94580C2196C830EC
:10196000D105A1F7DF91CF911F910F91FF90EF90DB
:101970000895DF92EF92FF920F931F93CF93DF931F
:10198000FC010081C181D281F8948981D02ED0944C
:101990008D21898378941DE7E02EFF24115059F1A1
:1019A00082E090E00E94FD34888190E08E219F21AA
:1019B000892BA1F3F8948A818D218A838981802BD8
:1019C0008983789480EE91E00E94FD34F8948981B7
:1019D0008D21898386E490E00E94FD34888110E0A7
:1019E00090E0E822F922EF2809F411E078948AE9DE
:1019F00091E00E94FD34812FDF91CF911F910F91D3
:101A0000FF90EF90DF900895AF92BF92DF92EF9238
:101A1000FF920F931F93CF93DF93EC015B018D85B2
:101A2000882309F061C0CE010E94B90C882329F4F3
:101A30001B861D861C8690E06BC0CE0160EF40E0E7
:101A40000E94580C01E0DD24EE24FF24F394CE0123
:101A50000E94D30B182FCE010E94D30B113019F422
:101A60008130E1F439C0181709F58B85081770F437
:101A700060E0FE01EE0DF11D838190E02F2D30E03E
:101A800082239323181619064CF003C060E0081750
:101A900029F0093008F04CC00C874AC0FE01EE0D59
:101AA000F11D83818F29838361E009C0612FFE01CD
:101AB000EE0DF11D9F2D9095838189238383CE01A7
:101AC0000E94240C0F5FFF0C19F4E394FF24F3949D
:101AD00087E08E1508F0BBCF013430F0DB86DD20C7
:101AE00011F581E08D871FC01B861D861C8690E046
:101AF000DE0120E030E0F501E20FF31F13968C9138
:101B0000139780832F5F3F4F11962830310599F747
:101B1000892FDF91CF911F910F91FF90EF90DF9070
:101B2000BF90AF9008958B818823F1F291E0E0CFD0
:101B3000D02EBDCFFF920F931F938C01F62E862FD0
:101B400060E00E944C368F2D90E0FC01EE51FD4F7D
:101B5000E491D801EC9384569D4FFC016491E62FEB
:101B6000F0E0EE0FFF1FEE57FD4F85919491129616
:101B70009C938E9311971B961C921B971D961C92FB
:101B80001D971C961C92F80187E090E01286319711
:101B9000009711F00197FACF1F910F91FF900895D0
:101BA0001F920F920FB60F920BB60F9211242F9324
:101BB0003F934F935F936F937F938F939F93AF93D5
:101BC000BF93EF93FF93E0916E0EF0916F0E199516
:101BD000FF91EF91BF91AF919F918F917F916F9105
:101BE0005F914F913F912F910F900BBE0F900FBEC1
:101BF0000F901F901895FC01A3E0440F551F661F1E
:101C0000771FAA95D1F7403080E0580781E0680738
:101C100080E0780714F481E010C033E07595679593
:101C2000579547953A95D1F7403080E0580781E0C5
:101C3000680780E078071CF482E0828339C023E0E3
:101C400075956795579547952A95D1F7403080E06F
:101C5000580781E0680780E0780714F483E0EDCF4F
:101C600092E075956795579547959A95D1F74030CD
:101C700080E0580781E0680780E0780714F484E08A
:101C8000DCCF82E075956795579547958A95D1F792
:101C9000403080E0580781E0680780E0780714F45E
:101CA00085E0CBCF85E082834FEF5FEF60E070E0AF
:101CB0005183408350939700409396008091910008
:101CC000887F80939100809191009281892B8093ED
:101CD000910008951092900020E1209391000E94BD
:101CE000FB0D08950F931F93CF93DF93EC018B01AE
:101CF000121613061406150624F4BA01A9010E944F
:101D0000FB0D1C830B8381E080937100789480919C
:101D100091009A81892B80939100DF91CF911F913F
:101D20000F9108958CEE93E0089581E094E008957A
:101D300085E094E008958CE194E0089586E394E0D2
:101D4000089583E594E008958CE292E0089588E098
:101D500061E00E94FF360895FF920F931F93F62EC5
:101D6000142F022F862F60E00E94FF361EBD0DB497
:101D700007FEFDCF8EB50EBD0DB407FEFDCF8EB5AF
:101D80008F2D61E00E94FF361F910F91FF90089503
:101D9000362F242F643010F085E00895209565E3F8
:101DA000432F0E94AC0E80E00895AF92BF92CF9275
:101DB000DF92EF92FF920F931F93CF93DF93EC018B
:101DC0005A016B01C15AD74FE880F9800A811B8103
:101DD000CF55D840CB01BA0120E030E040E050E0E0
:101DE0000E94BC4087FD48C0FE01E155F74FC60187
:101DF000B50120813181428153810E944D421816E4
:101E0000DCF1C601B501A80197010E94C0409B0109
:101E1000AC010E94454023EF34E045EB5FE30E94B4
:101E2000964220E030E040E85EE30E94964220E0E7
:101E300030E04FE753E40E9496427B018C0120E0A2
:101E400030E04FE753E40E944D421816ACF0C95AF7
:101E5000D74FA882B982CA82DB82C755D840C80151
:101E6000B7010E942D419B01AC01CE0163E0422FDE
:101E70000E94C80E80E001C088E0DF91CF911F91E1
:101E80000F91FF90EF90DF90CF90BF90AF900895AB
:101E9000FC01E15AF74F4083518362837383389783
:101EA0004081518162817381E755F840CF0120E084
:101EB0000E94D50E0895CF92DF92EF92FF920F937A
:101EC0001F93CF93DF938C0184E6E82E88E0F82EF1
:101ED000E00EF11E6801C0E0D0E0F701EC0FFD1F3D
:101EE000C601CC59DF4FBE0140810E94651FC35619
:101EF000D040CF34D10589F7C80160E00E94890F36
:101F0000DF91CF911F910F91FF90EF90DF90CF90D5
:101F10000895BF92CF92DF92EF92FF920F931F939B
:101F2000CF93DF93EC01B62E94E6E92E98E0F92EDC
:101F3000EC0EFD1E6E0100E010E0E881F981B801B1
:101F40006C597F4F0088F189E02DC6011995F70182
:101F5000E00FF11F80830F5F1F4F0F34110569F7EA
:101F6000CC59D74F88819981C456D840892B39F5EF
:101F7000CA59D74F88819981C656D840892BF9F420
:101F80009E012859374FF90180819181892BB9F43D
:101F9000FE01E256F74FC15AD74F88819981AA8135
:101FA000BB81CF55D84080839183A283B38381E0E6
:101FB00090E0F90191838083CE010E945B0FCC59A0
:101FC000D74F88819981C456D840892BE1F4CA59EA
:101FD000D74F88819981C656D840892BA1F4FE013C
:101FE000E859F74F80819181019769F4C559D74F1E
:101FF00080E28883CB56D84082E090E09183808352
:10200000CE010E945B0FCC59D74F88819981C4566D
:10201000D840892B11F5CA59D74F88819981C65666
:10202000D840892BD1F4FE01E859F74F8081918186
:10203000029799F4CE55D74F80E090E0A0EAB0E443
:1020400088839983AA83BB83C25AD84083E090E0F7
:1020500091838083CE010E945B0FCC59D74F88813A
:102060009981C456D840892BD9F4CA59D74F888151
:102070009981C656D840892B99F4FE01E859F74F4B
:1020800080819181039761F4CA55D74F1882C65A4F
:10209000D84084E090E091838083CE010E945B0F62
:1020A000CC59D74F88819981C456D840892B91F556
:1020B000CA59D74F88819981C656D840892B51F586
:1020C000FE01E859F74F80819181049719F5C955B0
:1020D000D74F80E090E0A8ECB2E489939993A9935C
:1020E000B99380E090E4ACE9B6E489939993A9931D
:1020F000B99380E090E0A8E4B3E488839983AA834D
:10210000BB83CF5AD84085E090E091838083CE0195
:102110000E945B0FCC59D74F88819981C456D84013
:10212000892B99F4CA59D74F88819981C656D840CE
:10213000892B59F4C859D74F88819981C856D840FE
:10214000059719F4BB2009F49EC0CC59D74F1992BA
:1021500019921992199285E090E0899399938FEFE3
:10216000888323968CE7888380E78A93229680E091
:102170009CE7A2E9B8E489939993A993B99380E085
:1021800092E2A1EAB8E488839983AA83BB832C9660
:1021900080E090E0AAE7B4E489939993A993B99376
:1021A00080E090E4ACE1B6E489939993A993B99364
:1021B00080E090E5A3ECB7E489939993A993B99350
:1021C00080E094E2A4E7B9E488839983AA83BB837F
:1021D000649780E090E0A0E0B0E089939993A993A0
:1021E000B99388839983AA83BB8364968FEF96EE15
:1021F000ABE5BEE289939993A993B9938993999397
:10220000A993B99389939993A993B993888399834F
:10221000AA83BB83CA59D840FE01E256F74FC15A80
:10222000D74F88819981AA81BB8180839183A283C2
:10223000B3832C9680E28883E79680E090E0A0EA62
:10224000B0E489939993A993B993199280E090E0AF
:10225000A8ECB2E489939993A993B99380E090E4B0
:10226000ACE9B6E489939993A993B99380E090E09F
:10227000A8E4B3E488839983AA83BB83CF5AD84068
:10228000CE010E945B0FC256D74FE880F9800A81C9
:102290001B81CE59D840C801B70120E030E040E0B2
:1022A00050E00E94BC40FE01ED59F74F18161CF09B
:1022B00081E0808307C0C15AD74FE882F9820A8340
:1022C0001B831082DF91CF911F910F91FF90EF90B0
:1022D000DF90CF90BF9008950F931F938C010E94C1
:1022E000651FC80160E00E94890F1F910F9108953A
:1022F0004F925F926F927F928F929F92AF92BF9216
:10230000CF92DF92EF92FF920F931F93DF93CF93C1
:102310000F920F92CDB7DEB78C012C01EE2454E55D
:10232000852E58E0952E880E991E45E4C42E48E06F
:10233000D42EC80ED91E3BE6A32E38E0B32EA80E2D
:10234000B91E3E010894611C711C33C028E0F22EB6
:1023500030E040E050E0F60180819181F801E80F23
:10236000F91FE259FF4F20810196F6019183808386
:1023700080E090E0222311F481E090E0042E02C07E
:10238000880F991F0A94E2F7380F4F5F5F4F48306C
:10239000510509F73A83F50160816E0DF982C2019A
:1023A000A30122E00E948E1FF394FDE0FF1681F648
:1023B000E3942E2D30E0F4018081918168E270E099
:1023C0000E9483442617370708F20F900F90CF9191
:1023D000DF911F910F91FF90EF90DF90CF90BF9012
:1023E000AF909F908F907F906F905F904F900895E7
:1023F0002F923F924F925F926F927F928F929F9215
:10240000AF92BF92CF92DF92EF92FF920F931F9302
:10241000DF93CF93CDB7DEB7E2970FB6F894DEBF68
:102420000FBECDBF7C0189ABFAAA0E94EA1F85E3EB
:1024300061E00E944C3689E061E00E944C3688E001
:1024400061E00E944C3688E060E00E94FF3664EF55
:1024500071E080E090E00E94A434D701ED91FC91FE
:102460000680F781E02DC7011995BC0184ED90E14C
:102470000E94B73D84ED90E160E372E00E94B73DB9
:10248000D701ED91FC910484F585E02DC7011995E4
:10249000BC0184ED90E10E94B43E84ED90E163E3E1
:1024A00072E00E94B73DD701ED91FC910284F38563
:1024B000E02DC7011995BC0184ED90E10E94B43E66
:1024C000C7010E94B21F89E060E00E94FF36EFE57D
:1024D000F8E0EE0EFF1E80E090E0A8ECB2E4F70119
:1024E00080839183A283B38321EA37EFE20EF31E48
:1024F000C70160E00E94890F84ED90E166E472E01C
:102500000E94B73D84E698E0E80EF91ED7016D9170
:102510007D917D0184ED90E14AE050E00E94E73C2E
:1025200084ED90E16DE572E00E94B73DF7016191A5
:1025300071917F0184ED90E14AE050E00E94E73C18
:1025400084ED90E16DE572E00E94B73DD7016D9199
:102550007C91E8E9F7EFEE0EFF1E84ED90E14AE092
:1025600050E00E94F83C84ED90E16FE572E00E943B
:10257000B73DF701E659F74F84ED90E160814AE0FD
:1025800050E00E94273D84ED90E165E672E00E94F4
:10259000B73DF701E459F74F84ED90E160814AE0DF
:1025A00050E00E94273D84ED90E165E772E00E94D3
:1025B000B73DF701E359F74F84ED90E160814AE0C0
:1025C00050E00E94273D10E053E0252E312C2C0EC8
:1025D0003D1E41E1442E512C4C0E5D1E3FE1632E09
:1025E000712C6C0E7D1E28E1822E912C8C0E9D1E6E
:1025F00096E2A92EB12CAC0EBD1ECFC0CE010A961C
:102600006BE772E00E94D33FC101612F4AE00E9454
:102610000640CE010A96B1010E949C3F6DE772E030
:102620000E94803F98AB8FA7C2016D2D4AE00E94A7
:1026300006408FA598A9B2010E949C3F61E972E013
:102640000E94803FBC0184ED90E10E94C73EC20120
:102650000E943840C1010E943840CE010A960E9473
:102660003E40112339F0113081F040E050E060E04D
:1026700070E019C0ED2DF0E0EE0FFF1FEE0FFF1F11
:10268000EE0DFF1DE259F74F0AC0ED2DF0E0EE0F01
:10269000FF1FEE0FFF1FEE0DFF1DE258F74F4081A9
:1026A00051816281738184ED90E122E030E00E94EB
:1026B000A13EC3016BE772E00E94D33FC401612FCA
:1026C0004AE00E940640C301B4010E949C3F64E9B5
:1026D00072E00E94803F9EA78DA7C5016D2D4AE044
:1026E0000E9406408DA59EA5B5010E949C3F61E910
:1026F00072E00E94803FBC0184ED90E10E94C73EE1
:10270000C5010E943840C4010E943840C3010E94A4
:102710003E40112339F0113081F060E070E080E03C
:1027200090E019C0ED2DF0E0EE0FFF1FEE0FFF1F40
:10273000EE0DFF1DEA58F74F0AC0ED2DF0E0EE0F49
:10274000FF1FEE0FFF1FEE0DFF1DE257F74F6081D9
:1027500071818281938125EA34ED48E653E50E9438
:102760009642AB01BC0184ED90E122E030E00E9492
:102770009E3E84ED90E169EA72E00E94B43ED394FB
:10278000112321F0113031F484E001C082E0D81629
:1027900008F434CF1F5F123011F0DD24F1CF84ED47
:1027A00090E16DEA72E00E94B73DEBE6CE2EE8E0E4
:1027B000DE2ECE0CDF1C84ED90E1D6016C914AE058
:1027C00050E00E94273D84ED90E16AEC72E00E94A7
:1027D000B73DEEE9F8E0EE0EFF1ED7014D915D9199
:1027E0006D917D917D0184ED90E122E030E00E94C9
:1027F000A13E84ED90E16AED72E00E94B73DF701E1
:1028000041915191619171917F0184ED90E122E0BC
:1028100030E00E94A13E84ED90E16DEE72E00E94F6
:10282000B73DD7016C9184ED90E170E04AE050E053
:102830000E94983D84ED90E166E073E00E94B73D10
:10284000EDEBFFEFEE0EFF1ED7016C9184ED90E1F2
:1028500070E04AE050E00E94983D84ED90E162E231
:1028600073E00E94B73DE4E4F0E0EE0EFF1ED701F6
:102870004D915D916D917D917D0184ED90E122E01E
:1028800030E00E94A13E84ED90E16AE373E00E9493
:10289000B73DF70141915191619171917F0184EDB3
:1028A00090E122E030E00E94A13E84ED90E162E5FB
:1028B00073E00E94B73DD7014D915D916D917C9180
:1028C000E1E5F7EFEE0EFF1E84ED90E122E030E04F
:1028D0000E94A13EF701EC5AF74F11821082AA2400
:1028E000BB2478E2872E912C68E1262E33243A947B
:1028F0003E010894611C711C2F011A2D29823A8215
:10290000D6016C916A0D89A99AA9A30122E00E94BF
:102910008E1FF60160816A0D89A99AA9A30121E0A1
:102920000E946F1F89818F3F09F047C000E0085E59
:10293000098308511A82D6016C91610F89A99AA95D
:10294000A30122E00E948E1FF6016081610F89A918
:102950009AA9A30121E00E946F1F8981882369F54C
:10296000085F09833A82D6016C91610F89A99AA9FF
:10297000A30122E00E948E1F07500530C1F684EDAE
:1029800090E168E673E00E94B73D84ED90E1B50107
:102990004AE050E00E94853D84ED90E162E773E0FB
:1029A0000E94B43E940128523040F201808191810E
:1029B0008217930711F4918280820894A11CB11CA4
:1029C00028E230E0820E931E38E0A316B10409F02D
:1029D00094CF84E598E0E80EF91ED7016D917C91C3
:1029E000ECEAF7EFEE0EFF1E84ED90E14AE050E0D6
:1029F0000E94E73C84ED90E16EE773E00E94B43EF4
:102A0000F701E659F74FC70160E040810E94C80E08
:102A1000F701E359F74FC70161E040810E94C80EFA
:102A2000F701E459F74FC70162E040810E94C80EE8
:102A3000C70163E040E00E94C80E26EA38E0E20EDB
:102A4000F31ED7018C91EAE5F7EFEE0EFF1E882307
:102A500021F0C70160E042E003C0C70160E041E04F
:102A60000E94E633E2960FB6F894DEBF0FBECDBFEC
:102A7000CF91DF911F910F91FF90EF90DF90CF905A
:102A8000BF90AF909F908F907F906F905F904F908E
:102A90003F902F9008957F928F929F92AF92BF9216
:102AA000CF92DF92EF92FF920F931F93DF93CF931A
:102AB0000F920F92CDB7DEB75C019B01742ECB0154
:102AC00068E270E00E948344862EC90168E270E0EB
:102AD0000E9483446C0173E0969587957A95E1F79F
:102AE000982E082D10E06BE6E62E68E0F62EEA0C34
:102AF000FB1CF7018081B801680F711D82ED9DE01C
:102B00000E943805692D70E0685F7F4F82ED9DE07F
:102B10000E94BA0582ED9DE00E94FD05F7018081CB
:102B2000080F111D82ED9DE0B80141E050E00E94C8
:102B30000E0682ED9DE00E944205892B11F481E092
:102B40003BC00C2D0770F8E09F0E998282ED9DE04E
:102B50000E944B05282F772071F481E090E0A0E0DF
:102B6000B0E004C0880F991FAA1FBB1F0A95D2F7B7
:102B7000282B2A830EC081E090E0A0E0B0E004C0E2
:102B8000880F991FAA1FBB1F0A95D2F78095822331
:102B90008A838BE698E0A80EB91EF501608185E96D
:102BA00097EFA80EB91E680DC501AE014F5F5F4FCC
:102BB00022E00E948E1F80E00F900F90CF91DF9156
:102BC0001F910F91FF90EF90DF90CF90BF90AF904B
:102BD0009F908F907F9008952F923F924F925F9297
:102BE0006F927F928F929F92AF92BF92CF92DF921D
:102BF000EF92FF920F931F93DF93CF93CDB7DEB782
:102C000061970FB6F894DEBF0FBECDBF3C016F8752
:102C1000862F90E0FC01E05AF040E635F10508F01F
:102C2000CDC7EE58FF4FEE0FFF1F0590F491E02D3A
:102C3000199420E438E0620E731ED3018D919C91AB
:102C4000E0ECF7EF6E0E7F1E830104591F4F892BB6
:102C500009F07BC7B3016C5A774FC30142E050E0E3
:102C60002DC120E438E0620E731ED3018D919C913A
:102C7000E0ECF7EF6E0E7F1E830104591F4F892B86
:102C800009F063C7D8011C92688A798ACC2484E54C
:102C9000882E88E0982E860C971CBBE62B2EB8E079
:102CA0003B2E260C371C580154C0A8E0DA2E29010F
:102CB000F1018081B201680F711D82ED9DE00E94DB
:102CC000380582ED9DE06D2D0E94BA0582ED9DE0F4
:102CD0000E94FD05D1018C91B201680F711D82ED3A
:102CE0009DE041E050E00E940E0682ED9DE00E94D2
:102CF0004205892B21F182ED9DE00E944B0500E009
:102D000010E0E82EFF24C701002E02C0959587959C
:102D10000A94E2F7E1E0F0E08E279F278170898333
:102D200088899989BE016F5F7F4F41E050E00E9422
:102D3000291E0F5F1F4F0830110529F704C0E1E07D
:102D4000D501EC9305C0D394FDE0DF1609F0B0CFB8
:102D5000C3942C2D30E0D4018D919C9168E270E0F9
:102D60000E9483442617370708F49FCF27C7F30133
:102D7000E05CF74F24E538E0620E731E208131815C
:102D8000D3018D919C91ECEAF7EF6E0E7F1E8301CB
:102D900004591F4F2817390709F0D7C6C3010E94ED
:102DA0007811D8011C920AC720E438E0620E731E25
:102DB000D3018D919C91E0ECF7EF6E0E7F1E029790
:102DC00009F0F1C6D301AB5BB74F8D919C91119780
:102DD00082599F4FF301E80FF91F0190F081E02D18
:102DE0008C5690408D939C9324E538E0620E731EC0
:102DF000D3018D919C912CEA37EF620E731EE81778
:102E0000F90730F04CE650E0640E751E85E0D0C640
:102E1000CF0168E270E00E9483446C01CF0168E258
:102E200070E00E948344062F10E0FBE6EF2EF8E0EE
:102E3000FF2EE60CF71CD7018C91B801680F711DAD
:102E400082ED9DE00E943805B601E3E07695679536
:102E5000EA95E1F770E0685F7F4F82ED9DE00E94A8
:102E6000BA0582ED9DE00E94FD05F7018081080F03
:102E7000111D82ED9DE0B80141E050E00E940E0678
:102E800082ED9DE00E944205830104591F4F892B6A
:102E9000C1F082ED9DE00E944B0590E02C2D277043
:102EA00002C0959587952A95E2F780958170898370
:102EB000C301BE016F5F7F4F41E050E00E94291EB9
:102EC00070CF81E0F801808379C620E438E0620E9B
:102ED000731ED3018D919C91E0ECF7EF6E0E7F1E77
:102EE000039709F060C6D301AB5BB74F8D919C91FE
:102EF0001197FC01E259FF4FE60DF71D60817181CA
:102F0000F301E80FF91FE059FF4F408103968D93BD
:102F10009C9324E538E0620E731ED3018D919C9141
:102F2000ECEAF7EF6E0E7F1E830104591F4F6817FE
:102F3000790708F072C3C3010E944B15C1C520E494
:102F400038E0620E731ED3018D919C91E0ECF7EF97
:102F50006E0E7F1E830104591F4F892B09F0F5C5A2
:102F6000D8011C9289E00E9432374DC520E438E038
:102F7000620E731ED3018D919C91E0ECF7EF6E0E03
:102F80007F1E019709F00FC6D301AB5BB74F8D9140
:102F90009C911197F301E80FF91FE259FF4F6081EF
:102FA00001968D939C93830104591F4F623020F446
:102FB00089E00E94FF36F5CE88E084CF20E438E037
:102FC000620E731ED3018D919C91E0ECF7EF6E0EB3
:102FD0007F1E830104591F4F892B09F0B6C5D80104
:102FE0001C92B301695A774FC30144E050E00E943C
:102FF000291EE4C520E438E0620E731ED3018D91D2
:103000009C91E0ECF7EF6E0E7F1E830104591F4F79
:10301000049709F09AC5D301AB5BB74F8D919C9192
:10302000119782599F4FF301E80FF91F4081518199
:10303000628173818A5690408D939C93C30121E0F5
:103040000E94D50E3DC520E438E0620E731ED30108
:103050008D919C91E0ECF7EF6E0E7F1E8301045979
:103060001F4F892B09F071C5D8011C92B301655A15
:10307000774FBACF20E438E0620E731ED3018D91F2
:103080009C91E0ECF7EF6E0E7F1E049709F08BC564
:10309000D301AB5BB74F8D919C91119782599F4F94
:1030A000F301E80FF91F20803180428053808A5657
:1030B00090408D939C93F301E955F74FC201B10104
:1030C00020813181428153810E944D4288230CF43A
:1030D000AEC0F301E555F74FC201B1012081318146
:1030E000428153810E94BC4018160CF4A0C0C2015A
:1030F000B10120E030E048E452E40E9496427B01B6
:103100008C0120E030E04AE754E40E94BC4087FD97
:103110008EC0C801B70120E233EB41E85CE40E94B5
:103120004D4218160CF483C0C801B70120E030EE00
:1031300041E854E40E94C0400E94564226EA3BE91E
:1031400044E550E40E9496422EE83DE543E150E418
:103150000E94C0400E942D41D62E70E0665F7F4FD6
:10316000882777FD8095982F0E945B419B01AC01D9
:1031700060E070E080E090E40E94F9429B01AC01C5
:10318000CA01B90120E030EE41E055EC0E949642C0
:10319000A80197010E94C04020E030E040E055E4E3
:1031A0000E9445407B018C0120E030E040E050E08F
:1031B0000E944D4288234CF0C801B70120E030E066
:1031C00040E05FE30E94454008C0C801B70120E02D
:1031D00030E040E05FE30E9444400E9428418B01C0
:1031E00082ED9DE067E10E942E05C80156E09695AC
:1031F00087955A95E1F7D29440EFD422D82A82EDF0
:103200009DE06D2D0E94BA05602F660F660F62600B
:1032100082ED9DE00E94BA0582ED9DE00E94FD05D1
:103220002CE630E0620E731ED3011C9207C02CE620
:1032300030E0620E731E88E0D3018C93E4E9FFEF67
:103240006E0E7F1E2CE630E0620E731ED3018C9151
:10325000E4E9FFEF6E0E7F1E882309F0AFC42BE573
:1032600038E0620E731ED3012D923D924D925C9216
:103270001397E5EAF7EFA0C420E438E0620E731E6E
:10328000D3018D919C91E0ECF7EF6E0E7F1E0197BC
:1032900009F089C4D301AB5BB74F8D919C91119715
:1032A000F301E80FF91FE259FF4F208101968D933A
:1032B0009C93830104591F4F223008F0AEC130E0C7
:1032C0008BE190E0289FF001299FF00D389FF00DD1
:1032D0001124EB58F14F81818983D8011C92C301DD
:1032E000BE016F5F7F4F41E050E081CE20E438E0C7
:1032F000620E731ED3018D919C91E0ECF7EF6E0E80
:103300007F1E830104591F4F029709F01EC4D30189
:10331000AB5BB74F2D913C911197F301E20FF31F77
:10332000E259FF4F80812F5F3F4FF301E20FF31F00
:10333000E259FF4F60812F5F3F4F2D933C930E94D6
:10334000BE2DBEC320E438E0620E731ED3018D9102
:103350009C91E0ECF7EF6E0E7F1E019709F023C4FD
:10336000D301AB5BB74F8D919C911197F301E80F9F
:10337000F91FE259FF4F408101968D939C93830181
:1033800004591F4F423008F048C1D8011C92242F25
:1033900030E08BE190E0289FF001299FF00D389FED
:1033A000F00D1124EB58F14FE181442321F041301D
:1033B00009F0ACC00AC0F0E0EE0FFF1FEE0FFF1FD8
:1033C000E60DF71DE259F74FB9C0F0E0EE0FFF1F11
:1033D000EE0FFF1FE60DF71DE258F74FAFC020E4D8
:1033E00038E0620E731ED3018D919C91E0ECF7EFF3
:1033F0006E0E7F1E830104591F4F059709F05FC3AE
:10340000A3014B5B574FDA012D913C911197F301CA
:10341000E20FF31FE259FF4FE0812F5F3F4F2D93E3
:103420003C9321503040D8011C92EE2321F0E13032
:1034300009F0F3C01AC0E091760EF0E021593F4F39
:10344000D301A20FB31FED90FD900D911C912A5650
:103450003040DA012D933C93EE0FFF1FEE0FFF1F5C
:10346000E60DF71DE259F74FD0C0E091910EF0E064
:1034700021593F4FD301A20FB31FED90FD900D9145
:103480001C912A563040DA012D933C93EE0FFF1F1A
:10349000EE0FFF1FE60DF71DE258F74FB6C0E0E450
:1034A000F8E06E0E7F1ED3018D919C91E0ECF7EF5A
:1034B0006E0E7F1E019709F076C3D301AB5BB74F49
:1034C0008D919C911197F301E80FF91FE259FF4F7D
:1034D000408101968D939C93830104591F4F423084
:1034E00008F09BC0D8011C92242F30E08BE190E0C3
:1034F000289FF001299FF00D389FF00D1124EB5803
:10350000F14FE181442339F0413079F080E090E0DF
:10351000A0E0B0E017C0F0E0EE0FFF1FEE0FFF1FBE
:10352000E60DF71DEA58F74F09C0F0E0EE0FFF1F58
:10353000EE0FFF1FE60DF71DE257F74F80819181D7
:10354000A281B38189839A83AB83BC8325C220E4A3
:1035500038E0620E731ED3018D919C91E0ECF7EF81
:103560006E0E7F1E830104591F4F059709F0A7C2F5
:10357000A3014B5B574FDA012D913C911197F30159
:10358000E20FF31FE259FF4FE0812F5F3F4F2D9372
:103590003C9321503040D8011C92EE2319F0E130C9
:1035A000E1F51AC0E091760EF0E021593F4FD301CA
:1035B000A20FB31FED90FD900D911C912A56304043
:1035C000DA012D933C93EE0FFF1FEE0FFF1FE60D68
:1035D000F71DEA58F74F19C0E091910EF0E021591C
:1035E0003F4FD301A20FB31FED90FD900D911C91A1
:1035F0002A563040DA012D933C93EE0FFF1FEE0F59
:10360000FF1FE60DF71DE257F74FE082F1820283BC
:103610001383C3010E945B0FD1C285E053CCE0E469
:10362000F8E06E0E7F1ED3018D919C91E0ECF7EFD8
:103630006E0E7F1E830104591F4F892B09F085C22E
:10364000D8011C92B301615A774FCECC20E438E008
:10365000620E731ED3018D919C91E0ECF7EF6E0E1C
:103660007F1E049709F09FC2F301EB5BF74F808147
:10367000918182599F4FD301A80FB91FED90FD9002
:103680000D911C918A56904091838083C801B701A7
:1036900020E030E040E050E00E944D42181664F512
:1036A000F301ED59F74F8081882379F02FE538E059
:1036B000620E731ED301ED92FD920D931C9313972E
:1036C000E1EAF7EF6E0E7F1E12C02EE938E0620EBF
:1036D000731ED301ED92FD920D931C93139722E676
:1036E00037EF620E731E1082C3010E945B0F4CE61F
:1036F00050E0640E751E54C22CE630E0620E731E5C
:1037000088E056C220E438E0620E731ED3018D912A
:103710009C91E0ECF7EF6E0E7F1E830104591F4F62
:10372000892B09F012C2D8011C9210E0F301E25675
:10373000F74F608171818281938120E030E040E029
:1037400050E00E94BC4018160CF011E01983C7CD60
:1037500020E438E0620E731ED3018D919C91E0EC61
:10376000F7EF6E0E7F1E019709F01DC2D301AB5B10
:10377000B74F8D919C911197F301E80FF91FE25912
:10378000FF4F208101968D939C93F301E256F74FF2
:10379000222349F080E090E0A0E0B0E080839183B4
:1037A000A283B38311C02FE538E0620E731ED301EC
:1037B0002D913D914D915C9161EA77EF660E771EF8
:1037C0002083318342835383C3010E945B0F8CE6C5
:1037D00090E0680E791EE4C120E438E0620E731EAA
:1037E000D3012D913C91E0ECF7EF6E0E7F1E2A3055
:1037F000310508F4D8C1D301AB5BB74F8D919C91D3
:103800001197FC01E259FF4FE60DF71D40815181F0
:10381000628173814B875C876D877E8704961196E2
:103820009C938E930497FC01EE58FF4FE60DF71D15
:10383000608171817A876987FC01EC58FF4FE60D42
:10384000F71D40815181628173814D835E836F8357
:103850007887F301E80FF91FE858FF4F10810B96A6
:103860008D939C932B30310581F064E578E0660EF2
:10387000771ED3018D919C91ECEAF7EF6E0E7F1EBF
:103880000B962817390709F0BCC129853A852D54B4
:10389000314008F086C06B857C858D859E8520E053
:1038A00030E04AE754E40E94C04020E030E44CE1BC
:1038B00057E40E94964220E030E040E855E40E9440
:1038C000BC4088230CF06DC06CE670E0660E771E7D
:1038D000D3011C92E4E9FFEF6E0E7F1EF301E05C62
:1038E000F74F24E538E0620E731ED3018D919C9151
:1038F0002CEA37EF620E731E0B9620813181281758
:10390000390719F4C3010E947811A12E0E947E3458
:103910001B012C014BE558E0640E751ED301CD90C0
:10392000DD90ED90FC90E5EAF7EF6E0E7F1EF0E083
:1039300010FDF1E0E0E0A1FCE1E06B857C858D8588
:103940009E8549855A850D811E812F813885AF2E30
:103950008E2E0E940E2E0E947E34621973098409F5
:1039600095090E9459417B018C0129853A85B9014D
:1039700080E090E00E94594120E030E04AE754E4C2
:103980000E9496429B01AC01C801B7010E94C04051
:1039900069837A838B839C83C301BE016F5F7F4FF2
:1039A00024CB4CE650E0640E751E81E001C120E49A
:1039B00038E0620E731ED3018D919C91E0ECF7EF1D
:1039C0006E0E7F1E830104591F4F892B09F0BDC065
:1039D000D8011C92C30161E00E94890FEFC020E46E
:1039E00038E0620E731ED3018D919C91E0ECF7EFED
:1039F0006E0E7F1E830104591F4F892B09F0A5C04D
:103A0000D8011C9288E089836ACC20E438E0620EF9
:103A1000731ED3018D919C91E0ECF7EF6E0E7F1E2B
:103A2000830104591F4F892B09F049C0D8011C920A
:103A3000E2E5F8E06E0E7F1ED3018C91EEEAF7EF1F
:103A40003BC0E0E4F8E06E0E7F1ED3018D919C91A7
:103A5000E0ECF7EF6E0E7F1E019709F0A4C0D301D2
:103A6000AB5BB74F8D919C911197F301E80FF91F54
:103A7000E259FF4F208101968D939C93F301EE5AFA
:103A8000F74F41C020E438E0620E731ED3018D91E0
:103A90009C91E0ECF7EF6E0E7F1E830104591F4FDF
:103AA000892B69F4D8011C92E3E5F8E06E0E7F1EC5
:103AB000D3018C91EDEAF7EF6E0E7F1EA4CF86E066
:103AC000D8018C937BC0E0E4F8E06E0E7F1ED3013A
:103AD0008D919C91E0ECF7EF6E0E7F1E019709F03F
:103AE00062C0D301AB5BB74F8D919C911197F301ED
:103AF000E80FF91FE259FF4F208101968D939C93A7
:103B0000F301ED5AF74F222319F081E0808344C07E
:103B1000108242C020E438E0620E731ED3018D9102
:103B20009C91E0ECF7EF6E0E7F1E830104591F4F4E
:103B3000892B59F4D8011C9288E00E9432371982EF
:103B4000892B09F0CCCB81E05ECF86E0BBC920E4B5
:103B500038E0620E731ED3018D919C91E0ECF7EF7B
:103B60006E0E7F1E0197F9F4D301AB5BB74F8D91B9
:103B70009C911197F301E80FF91FE259FF4F208143
:103B800001968D939C93222319F088E060E002C097
:103B900088E061E00E94FF362CE630E0620E731E82
:103BA000D3011C9207C02CE630E0620E731E86E043
:103BB000D3018C93E4E9FFEF6E0E7F1EC3016F8586
:103BC0000E947E222CE630E0620E731ED3018C919F
:103BD00061960FB6F894DEBF0FBECDBFCF91DF91D7
:103BE0001F910F91FF90EF90DF90CF90BF90AF901B
:103BF0009F908F907F906F905F904F903F902F900D
:103C00000895ECE6F0E06E0E7F1ED1CFFC018AE84D
:103C100094E091838083CF010E94231E08950F9327
:103C20001F938C0161E00E9489208AE894E0F801EA
:103C3000918380830E5A174FF801119210821F91C1
:103C40000F9108950895FC0181EB94E091838083A6
:103C500008950F931F93CF93DF938C0120E030E002
:103C6000EC01C95BD74F10C0F801E20FF31F888148
:103C70009981E80FF91FE259FF4FDB01A20FB31F33
:103C80008C9180832F5F3F4F2417350768F388811D
:103C90009981840F951F99838883DF91CF911F911C
:103CA0000F910895CF93DF93DC01FC01E359FF4F9F
:103CB0006081EC01C459DF4F67FF0EC0605860831C
:103CC00082E08883ED91FC91119760580488F58912
:103CD000E02DCD0119950EC0FC01E05CF74F80810D
:103CE0009181A80FB91FA359BF4F2C912883019729
:103CF00091838083DF91CF910895CF93DF93EC017F
:103D0000FC01E75BF74F6D3719F481E08083DAC07F
:103D10009081992311F080E268276E3749F4992346
:103D200039F4CD5BD74F19821882C354D840C4C030
:103D3000CD5BD74F28813981C354D8402115310537
:103D4000A1F4C359DF4F6883C152D84F8881CC5446
:103D5000D840882309F448C0C15BD74F8FEF9FEF4D
:103D600099838883CF54D8403FC021303105B1F4C6
:103D7000DE01AE5BB74FFE01E05CF74F67FF09C0A5
:103D800083E08C93862F90E08F77907010828183F0
:103D90002BC082E08C936083118226C022303105D3
:103DA00089F4CE5BD74F8881C254D840833051F418
:103DB000FE01E05CF74F80819181860F911D918318
:103DC000808312C0CE5BD74F8881F901E81BF109CF
:103DD0009A918A91C054D840E817F90728F4EC0F5B
:103DE000FD1FE259FF4F6083C45BD74F8881CC54DD
:103DF000D8408823F1F0FE01E15BF74F808191818B
:103E00008627282F22952827022E269526952025BD
:103E1000022E269520252770082E892F2695079497
:103E20002795902D822706942795902582279183A8
:103E30008083FE01ED5BF74F408151814F5F5F4F03
:103E400051834083CE5BD74F88813A912A91280FC6
:103E5000311D2C966881CC54D840862F90E0880F75
:103E6000991F280F391F4217530731F5118210820D
:103E7000CB5BD74F1992199219821882C754D84038
:103E8000662341F0C15BD74F88819981CF54D840D8
:103E9000892B19F4CE010E94521EFE01E55BF74FFB
:103EA0009081992349F0C359DF4F90588881CD56AE
:103EB000D040891709F41082FE01E75BF74F80813B
:103EC00081111082DF91CF9108958BE89DE00E94CF
:103ED000EC0408958BE89DE00E94E50408951F938B
:103EE000CF93DF93EA0182ED9DE0422F0E941206FC
:103EF00010E009C082ED9DE00E944B05FE01E10F3C
:103F0000F11D80831F5F82ED9DE00E944205892B99
:103F100089F7812FDF91CF911F910895FF920F9321
:103F20001F93CF93DF93142F052FF22E82ED9DE088
:103F30000E942E05212F302FC901EC0110E006C090
:103F400082ED9DE069910E94BA051F5F1F15C0F3C5
:103F500082ED9DE00E94FD05DF91CF911F910F91B1
:103F6000FF9008951F9318E082ED9DE0612F0E945D
:103F70002E0582ED9DE00E94FD05882331F584ED3C
:103F800090E165E973E00E94B73D84ED90E1612F17
:103F90004AE050E00E94153D84ED90E169EA73E04B
:103FA0000E94B73D84ED90E1612F40E150E00E9416
:103FB000153D84ED90E16EEA73E00E94B43E61E04D
:103FC00070E080E090E00E94A4341F5F183761F633
:103FD0001F910895AF92BF92CF92DF92EF92FF921E
:103FE0000F931F93DF93CF9300D00F92CDB7DEB71F
:103FF0007C016E010894C11CD11C56010FE010E039
:10400000D701ED91FC910088F189E02DC701B8013D
:104010001995F50181935F010F5F1F4F0331110562
:1040200079F789819A81AB81BC818F5F9F4FAF4FB8
:10403000BF4FD9F480E092ECA1E0B0E089839A838D
:10404000AB83BC830FE010E0D701ED91FC910288B7
:10405000F389E02DC701B801D6014D916D01199585
:104060000F5F1F4F0331110579F749815A816B8129
:104070007C8184ED90E10E94A73982ED9DE00E9451
:1040800016060E9417050E94FC0A870108591F4F57
:10409000F801608371838283938384ED90E160EB08
:1040A00073E00E94B73DD8014D915D916D917C9177
:1040B00084ED90E122E030E00E949E3E84ED90E1AC
:1040C00062EC73E00E94B43E0F900F900F900F903F
:1040D000CF91DF911F910F91FF90EF90DF90CF90E4
:1040E000BF90AF900895CF93DF93EC0108C084EDAB
:1040F00090E10E945F3A682FCE010E947D1E84ED00
:1041000090E10E942E3A181619068CF3DF91CF9198
:1041100008957F928F929F92AF92BF92CF92DF923B
:10412000EF92FF920F931F93CF93DF93FC0181EBEC
:1041300094E091838083E45BF74F60833997118229
:10414000108236961082399711821082359611921C
:104150001192118210823A961082AA24BB248824DC
:1041600099248BE89DE0B5010E94E504182FB50164
:10417000695F7F4F8BE89DE00E94E504E401EE2437
:10418000FF24C12EDD24C094D094082F10E00095A8
:104190001095C633D105B4F4B6010E2C02C0759546
:1041A00067950A94E2F761708C2F0E944C36B80133
:1041B0000E2C02C0759567950A94E2F761708C2FFA
:1041C0000E94FF360894E11CF11C219688E0E81655
:1041D000F104F9F60894A11CB11C88E090E0880E67
:1041E000991E97E0A916B10409F0BBCFDF91CF91DA
:1041F0001F910F91FF90EF90DF90CF90BF90AF9005
:104200009F908F907F9008951F93162F862F8D5724
:10421000823050F484ED90E16DE70E94983A60E2BC
:10422000612784ED90E102C084ED90E10E94983A0C
:104230001F9108958F929F92AF92BF92CF92DF927B
:10424000EF92FF920F931F93CF93DF93EC01BEE6A3
:10425000EB2EF12CE80EF91E00E010E0A0E48A2E0F
:10426000A8E09A2E880E991EFCE4AF2EF8E0BF2E2F
:10427000A80EB91EEDE4CE2EE8E0DE2EC80ED91E43
:104280002AC0F50180818823F1F0F7012081F60131
:10429000808191818227282F22952827022E26951A
:1042A00026952025022E269520252770082E892F59
:1042B000269507942795902D82270694279590257B
:1042C000822791838083CE01F70161917F010E9453
:1042D00004210F5F1F4FF401808191810817190796
:1042E00008F4CFCFF5018081882369F08E01035B4C
:1042F000174FCE01F80160810E940421F80161810D
:10430000CE010E940421C05CD74F198218822796E3
:1043100019821882DF91CF911F910F91FF90EF903A
:10432000DF90CF90BF90AF909F908F9008950F93A4
:104330001F93CF93DF93EC01062FFC01E05CF74F56
:10434000C95BD74F888199819183808384ED90E107
:104350006EE70E94983A25968881CC54D8408823ED
:10436000F9F0C35BD74F8FEF9FEF8027282F22955F
:104370002827022E269526952025022E26952025D3
:104380002770082E892F269507942795902D822730
:10439000069427959025822799838883CD54D84009
:1043A000CE01602F0E940421DE01A05CB74F2D9149
:1043B0003C911197FE01E45BF74F2038310530F551
:1043C00080818823F1F0FE01E35BF74F80819181CA
:1043D0008227282F22952827022E269526952025EC
:1043E000022E269520252770082E892F26950794C2
:1043F0002795902D822706942795902582279183D3
:104400008083CE01C05CD74F688149C080818823FA
:1044100009F437C03068FE01E35BF74F808191817A
:104420008327282F22952827022E2695269520259A
:10443000022E269520252770082E892F2695079471
:104440002795902D822706942795902582272C91D9
:104450008227282F22952827022E2695269520256B
:10446000022E269520252770082E892F2695079441
:104470002795902D82270694279590258227918352
:1044800080838E01005C174FF801208131813068F4
:10449000CE01632F0E940421CE01F80160810E94A9
:1044A0000421DF91CF911F910F9108950F931F93D6
:1044B000DF93CF930F92CDB7DEB78C016983DC0118
:1044C000A95BB74F8D919C911197F801E80FF91FE7
:1044D000E259FF4F608301968D939C93F801E35955
:1044E000FF4FC80160810E949721C8010E941A21D4
:1044F0000F90CF91DF911F910F9108956F927F924E
:104500009F92AF92BF92CF92DF92EF92FF920F9362
:104510001F93DF93CF93CDB7DEB76C970FB6F894A8
:10452000DEBF0FBECDBF7C016DB67EB670E0CB01A5
:10453000805890408E31910508F0C9C688539F4F2E
:10454000D701A05CB74FFC01EE0FFF1F0590F4915F
:10455000E02D19948D919C91892B09F0FAC5D70112
:10456000ED91FC910280F381E02DC70119958C013A
:10457000D701ED91FC910280F381E02DC7011995DF
:10458000DC010D900020E9F7AD0141505040481B7F
:10459000590B20E030E0B701695B774F11C0F7019C
:1045A000E20FF31FDB018D919C91E80FF91FE25997
:1045B000FF4FD801A20FB31F8C9180832F5F3F4F15
:1045C0002417350760F3E7C08D919C91892B09F082
:1045D000C0C5D701ED91FC910480F581E02DC701A4
:1045E00019958C01D701ED91FC910480F581E02DA6
:1045F000C7011995DC010D900020E9F7AD0141508C
:104600005040481B590B20E030E0B701695B774F01
:1046100011C0F701E20FF31FDB018D919C91E80FB0
:10462000F91FE259FF4FD801A20FB31F8C9180836D
:104630002F5F3F4F2417350760F3ADC08D919C91DC
:10464000892B09F086C5D701ED91FC910680F78191
:10465000E02DC70119958C01D701ED91FC910680E1
:10466000F781E02DC7011995DC010D900020E9F7D5
:10467000AD0141505040481B590B20E030E0B701DC
:10468000695B774F11C0F701E20FF31FDB018D91DA
:104690009C91E80FF91FE259FF4FD801A20FB31FF9
:1046A0008C9180832F5F3F4F2417350760F373C0D1
:1046B0008D919C91892B09F04CC5D701ED91FC910E
:1046C0000084F185E02DC70119958C01D701ED918A
:1046D000FC910084F185E02DC7011995DC010D9056
:1046E0000020E9F7AD0141505040481B590B20E034
:1046F00030E0B701695B774F11C0F701E20FF31F9C
:10470000DB018D919C91E80FF91FE259FF4FD80111
:10471000A20FB31F8C9180832F5F3F4F2417350763
:1047200060F339C08D919C91892B09F012C5D70196
:10473000ED91FC910284F385E02DC70119958C0160
:10474000D701ED91FC910284F385E02DC701199505
:10475000DC010D900020E9F7AD0141505040481BAD
:10476000590B20E030E0B701695B774F11C0F701CA
:10477000E20FF31FDB018D919C91E80FF91FE259C5
:10478000FF4FD801A20FB31F8C9180832F5F3F4F43
:104790002417350760F3FB0180819181840F951FF9
:1047A000918380832CE630E0E20EF31ED7011C9249
:1047B000E4E9FFEFEE0EFF1E8AC58D919C91892BD7
:1047C00009F0C7C4D701ED91FC910484F585E02D73
:1047D000C70119958C01D701ED91FC910484F585F1
:1047E000E02DC7011995DC010D900020E9F7AD011E
:1047F00041505040481B590B20E030E0B701695B45
:10480000774F11C0F701E20FF31FDB018D919C91EF
:10481000E80FF91FE259FF4FD801A20FB31F8C9187
:1048200080832F5F3F4F2417350760F3B4CF8D91FE
:104830009C91892B09F08DC4D701ED91FC910684E0
:10484000F785E02DC70119958C01D701ED91FC91F9
:104850000684F785E02DC7011995DC010D90002035
:10486000E9F7AD0141505040481B590B20E030E0C2
:10487000B701695B774F11C0F701E20FF31FDB014E
:104880008D919C91E80FF91FE259FF4FD801A20FBB
:10489000B31F8C9180832F5F3F4F2417350760F340
:1048A0007ACF8D919C91892B09F053C420E030E0A0
:1048B000B701695B774FF701E20FF31FDB014D9101
:1048C0005C91E40FF51FE259FF4FD901AE55BB4F84
:1048D0008C9180832F5F3F4F2A30310561F7465F0F
:1048E0005F4F1FC28D919C91870104591F4F029702
:1048F00009F0D0C3D701AB5BB74F2D913C91119715
:10490000F701E20FF31FE259FF4F80812F5F3F4F06
:10491000F701E20FF31FE259FF4F60812F5F3F4F16
:104920002D933C930E944C36B2C38D919C9187018C
:1049300004591F4F029709F0ADC3D701AB5BB74FC6
:104940002D913C911197F701E20FF31FE259FF4FB0
:1049500080812F5F3F4FF701E20FF31FE259FF4FB6
:1049600060812F5F3F4F2D933C930E94FF368FC392
:104970008D919C91870104591F4F019709F08AC3BB
:10498000D701AB5BB74F2D913C911197F701E20F27
:10499000F31FE259FF4F80812F5F3F4F2D933C93D0
:1049A0000E9432378983D701A95BB74F2D913C9183
:1049B0001197F701E20FF31FE259FF4F80832F5F3A
:1049C0003F4F2D933C9363C38D919C918701045974
:1049D0001F4F029709F05EC3D701AB5BB74F2D9114
:1049E0003C911197F701E20FF31FE259FF4F8081CD
:1049F0002F5F3F4F11963C932E9322593F4FF70163
:104A0000E20FF31F608171812C5630402D933C934F
:104A10000E946C353CC32CE630E0E20EF31E86E0CB
:104A2000F701808324E93FEFE20EF31E2D913C91C4
:104A30002230310508F44BC4ADB69EB6D701AB5B4E
:104A4000B74F8D919C911197F701E80FF91FE2592B
:104A5000FF4FB08001968D939C938DB79EB78B19B5
:104A600091090FB6F8949EBF0FBE8DBFCDB6DEB6CE
:104A70000894C11CD11C2230310519F491E0B916FB
:104A8000D9F08B2D90E003962817390709F096C0CE
:104A900013C08D919C911197F701E80FF91FE2590E
:104AA000FF4F2081019611969C938E93F601E30FA0
:104AB000F11D20833F5F04C030E0D701AB5BB74FEF
:104AC0003B1538F3A0E4B8E0EA0EFB1EF701808145
:104AD000918120EC37EFE20EF31E029701F1F7010E
:104AE000EB5BF74F8081918182599F4FD701A80FCF
:104AF000B91F0D911C918C5690409183808333E0B7
:104B0000093E130770F08CE690E0E80EF91E89E08C
:104B1000D7018C93E4E9FFEFEE0EFF1E4FC001E0DA
:104B200010E02CE630E0E20EF31ED7011C92109349
:104B3000530E0093520EE2E0F0E0EE0EFF1EF092F4
:104B40004F0EE0924E0E22E93FEFE20EF31E80E0A0
:104B50000E94410931E0B31629F4D6018C910E94DC
:104B60005B0912C0D092560EC092550EB092580EEC
:104B70001092590E8EE999E090935B0E80935A0E35
:104B8000F60180810E9484090E94900B2091520EB0
:104B90003091530E8091500E9091510E82179307D1
:104BA000C9F70E943E0BF701E95BF74F000F111F99
:104BB00080819181080F191F118300838A2D992DFF
:104BC0009C010FB6F8943EBF0FBE2DBF80C38D91E0
:104BD0009C91870104591F4F039709F075C3D701B2
:104BE000AB5BB74F8D919C911197FC01E259FF4F40
:104BF000EE0DFF1D60817181F701E80FF91FE0598B
:104C0000FF4F408103968D939C93D701ED91FC91CA
:104C10000288F389E02DC701199553C38D919C91AA
:104C2000870104591F4F029709F04EC3D701AB5BB0
:104C3000B74F8D919C91119782599F4FF701E80FC3
:104C4000F91F608171818C5690408D939C93D701A0
:104C5000ED91FC910088F189E02DC70119958983B8
:104C6000D701A95BB74F2D913C911197F701E20F46
:104C7000F31FE259FF4F80832F5F3F4F20C38D9179
:104C80009C91029709F065C2D701AB5BB74F8D913C
:104C90009C911197F701E80FF91FE259FF4F6081CE
:104CA0000196F701E80FF91FE259FF4FA080019626
:104CB0008D939C938E01015F1F4FC8010E949A0D36
:104CC000C8010E94C60BDD24B02EC12E8E01095FE3
:104CD0001F4F8B2D9C2DB8010E94040DD394AD1451
:104CE000C0F7882311F120E030E0B701695B774F0E
:104CF0008E01095F1F4FF701E20FF31FDB014D919A
:104D00005C91E40FF51FE259FF4FD801A20FB31FCA
:104D10008C9180832F5F3F4F2830310561F7485FCA
:104D20005F4FFB01518340833DCD2CE630E0E20E26
:104D3000F31E85E09CC28D919C910B9709F009C2EE
:104D4000D701AB5BB74F8D919C911197F701E80F9D
:104D5000F91FE259FF4F6081019611969C938E9343
:104D600047E0C42ED12CCC0EDD1EAD01C601BC2CFB
:104D7000A92E8E01015F1F4FFA0180819181F701F9
:104D8000E80FF91FE259FF4F20810196FA01918344
:104D90008083F60121936F01E017F10769F78D9188
:104DA0009C911197F701E80FF91FE259FF4F10810D
:104DB0000196F701E80FF91FE259FF4F00810196B4
:104DC0008D939C93C6010E949A0DC6010E94B90C56
:104DD000C6016B2D7A2D0E94980CC601612F40E010
:104DE0000E94580C10E03FE0A32EB12CAC0EBD1E6B
:104DF00027E4C22E28E0D22ECE0CDF1C13C0C50142
:104E00000E94070C8983D6012D913C911197F701DF
:104E1000E20FF31FE259FF4F80832F5F3F4F2D9327
:104E20003C931F5F101758F3ECE6F0E0EE0EFF1E08
:104E3000BDCC8D919C910B9709F08BC1D701AB5BD9
:104E4000B74F8D919C911197F701E80FF91FE25927
:104E5000FF4F6081019611969C938E9397E0C92E27
:104E6000D12CCC0EDD1EAD01C601BC2CA92E8E01AD
:104E7000015F1F4FFA0180819181F701E80FF91F4F
:104E8000E259FF4F20810196FA0191838083F60158
:104E900021936F01E017F10769F78D919C911197AC
:104EA000F701E80FF91FE259FF4F00810196F70162
:104EB000E80FF91FE259FF4F108101968D939C93E3
:104EC000C6010E949A0DC6010E94B90CC6016B2D45
:104ED0007A2D0E94980CC601602F412F0E94580C19
:104EE00061CC8D919C91029709F0BCC1D701AB5B5D
:104EF000B74F8D919C911197F701E80FF91FE25977
:104F0000FF4F60810196F701E80FF91FE259FF4F4B
:104F1000C08001968D939C9382ED9DE04C2D0E9464
:104F20001206DD248701095B174F14C082ED9DE056
:104F30000E944B058983D8012D913C911197F7016F
:104F4000E20FF31FE259FF4F80832F5F3F4F2D93F6
:104F50003C93D39482ED9DE00E944205892B31F76A
:104F6000870104591F4FDC1409F4ABC181E0ADC1C6
:104F70008D919C91029708F4ECC087010B5B174F51
:104F8000D8018D919C911197F701E80FF91FE25913
:104F9000FF4F608101968D939C9382ED9DE00E946E
:104FA0002E05DD2480E4A82E88E0B82EAE0CBF1CB0
:104FB00012C0F80180819181F701E80FF91FE259D1
:104FC000FF4F60810196D8018D939C9382ED9DE007
:104FD0000E94BA05D3942D2D30E0F5018081918196
:104FE00001972817390728F382ED9DE00E94FD05FF
:104FF000D9CB8D919C91870104591F4F019709F0DE
:1050000049C0D701AB5BB74F2D913C911197F70188
:10501000E20FF31FE259FF4F80812F5F3F4F2D9327
:105020003C930E94F80433C08D919C9187010459F0
:105030001F4F019779F5D701AB5BB74F2D913C918D
:105040001197F701E20FF31FE259FF4F80812F5FA5
:105050003F4F2D933C930E94060519C08D919C9162
:10506000870104591F4F0197A9F4D701AB5BB74FD4
:105070002D913C911197F701E20FF31FE259FF4F79
:1050800080812F5F3F4F2D933C930E940105D801F3
:105090001C921DC186E0F801808319C18D919C91FD
:1050A000019709F056C0D701AB5BB74F8D919C912A
:1050B0001197F701E80FF91FE259FF4F2081019680
:1050C0008D939C932EBD0DB407FEFDCF2EB5298385
:1050D000D701A95BB74F8D919C911197F701E80F0C
:1050E000F91FE259FF4F208301968D939C935ACB71
:1050F0008D919C91892B69F526E630E0E20EF31E36
:10510000D7016D917C91EAE9FFEFEE0EFF1E87015A
:1051100020E030E0A701495B574F10C0F701E20FD4
:10512000F31FDA018D919C91E80FF91FE259FF4FAF
:10513000D80111968C9180832F5F3F4F0F5F1F4FD7
:105140002617370758F3FA0180819181860F971F40
:1051500027CB2CE630E0E20EF31E88C08D919C91A7
:10516000870104591F4F892B09F0AEC080915E0E54
:1051700090915F0EA091600EB091610E8B839C8325
:10518000AD83BE83DE011396A701495B574FFA0139
:1051900020813181F701E20FF31FE259FF4F8B812C
:1051A0007FC08D919C91870104591F4F049709F08E
:1051B0008BC0D701AB5BB74F2D913C911197225912
:1051C0003F4FF701E20FF31F60817181828193816C
:1051D0002A5630402D933C930E949D0872C08D91B9
:1051E0009C91870104591F4F892B09F06DC00E94C3
:1051F000960889839A83D701A95BB74F2D913C917B
:105200001197F701E20FF31FE259FF4F81938A8153
:1052100080832E5F3F4F53C08D919C91029711F573
:10522000D701AB5BB74F8D919C91119782599F4FDE
:10523000F701E80FF91F0190F081E02D8C569040A6
:105240008D939C93CF010297870104591F4F0697B6
:1052500038F48E2F0E948D0880E00E944D0931C0E5
:1052600085E033C0ECE6F0E0EE0EFF1E86E0D701ED
:105270008C939ECA8D919C91870104591F4F892B55
:1052800019F5D701A859BF4FA701495B574FFA013C
:1052900020813181F701E20FF31FE259FF4F8C911A
:1052A000819311968C911197819312968C911297FC
:1052B000819313968C9180832C5F3F4FDA012D935D
:1052C0003C93F801108203C086E0D8018C938701DB
:1052D00004591F4FC701F80160810E945622D8016E
:1052E0008C910FB6F8947EBE0FBE6DBE6C960FB655
:1052F000F894DEBF0FBECDBFCF91DF911F910F910C
:10530000FF90EF90DF90CF90BF90AF909F907F90F5
:105310006F9008958BE1E5E7FEE0DF01982F1D9285
:105320009A95E9F77B96DF011D928A95E9F7089532
:105330002F923F924F925F926F927F928F929F92A5
:10534000AF92BF92CF92DF92EF92FF920F931F9393
:10535000DF93CF93CDB7DEB764970FB6F894DEBF77
:105360000FBECDBF2F83388749875A87EB86FC86CF
:105370000D871E87D88ACF86BA8AA98A0E9496424C
:1053800020E030E04AE754E40E94C0409B01AC01B9
:105390000E9445405B016C0120E030E040E050E0BD
:1053A0000E944D4288234CF0C601B50120E030E058
:1053B00040E05FE30E94454008C0C601B50120E01F
:1053C00030E040E05FE30E9444400E9428410E9498
:1053D0005B4120E030E040E05FE30E9496426B8357
:1053E0007C838D839E836B817C818D819E812F81C7
:1053F000388549855A850E94C0402B853C854D855E
:105400005E850E9496420E94A9400E942D417A83A7
:10541000698384C329813A81B90180E090E00E94C8
:1054200059412B813C814D815E810E94C0402F817A
:10543000388549855A850E9496423B014C01EF858B
:10544000F88960837183828393832B853C854D85A6
:105450005E850E944D4218160CF45BC3C401B30173
:105460002F81388549855A850E94C0407B018C0177
:1054700060E070E080E090E4A80197010E94C040E5
:105480005B016C0120E030E040E050E00E944D42C2
:1054900088234CF0C601B50120E030E040E05FE336
:1054A0000E94454008C0C601B50120E030E040E060
:1054B0005FE30E9444400E9428410E945B41A80192
:1054C00097010E9496429B01AC0160E070E080E091
:1054D00090E40E94444020E030E040E050E00E9430
:1054E0004D421816A4F5C601B50120E030E040E0B9
:1054F00050E00E944D4288234CF0C601B50120E0E7
:1055000030E040E05FE30E94454008C0C601B501BD
:1055100020E030E040E05FE30E9444400E942841E8
:105520000E945B41A80197010E9496429B01AC0139
:1055300060E070E080E090E40E9444402DEC3CECA0
:105540004CEC5DE30E94BC4087FDE3C234C0C60161
:10555000B50120E030E040E050E00E944D42882359
:105560004CF0C601B50120E030E040E05FE30E946E
:10557000454008C0C601B50120E030E040E05FE3EF
:105580000E9444400E9428410E945B41A80197016B
:105590000E9496429B01AC0160E070E080E090E4E4
:1055A0000E9444402DEC3CEC4CEC5DEB0E944D42E3
:1055B00018160CF4AEC26F81788589859A859B0197
:1055C000AC010E9445409B01AC01C401B3010E94A3
:1055D000BC4088230CF079C16F81788589859A85D4
:1055E000A40193010E94C0401B012C011C8A1B8A4C
:1055F0002B893C89B90180E090E00E9459415B0110
:105600006C01C201B101A60195010E94444020E055
:1056100030E040E05FE30E94BC40181634F48B8910
:105620009C8901969C8B8B8BE3CFC601B501A401AD
:1056300093010E9496429B01AC016F817885898518
:105640009A850E9444405B016C0120E030E040E01C
:1056500050E00E944D42181624F0D7FAD094D7F8A3
:10566000D094C401B301A60195010E94C0403B0142
:105670004C0160E070E080E090E4A40193010E949E
:10568000C0405B016C0120E030E040E050E00E944F
:105690004D4288234CF0C601B50120E030E040E0E7
:1056A0005FE30E94454008C0C601B50120E030E03C
:1056B00040E05FE30E9444400E9428410E945B4119
:1056C000A40193010E9496429B01AC0160E070E04E
:1056D00080E090E40E94444020E030E040E050E070
:1056E0000E944D421816A4F5C601B50120E030E035
:1056F00040E050E00E944D4288234CF0C601B501C5
:1057000020E030E040E05FE30E94454008C0C60171
:10571000B50120E030E040E05FE30E9444400E9499
:1057200028410E945B41A40193010E9496429B0183
:10573000AC0160E070E080E090E40E9444402DEC19
:105740003CEC4CEC5DE30E94BC408823ACF5E1C12D
:10575000C601B50120E030E040E050E00E944D423B
:1057600088234CF0C601B50120E030E040E05FE363
:105770000E94454008C0C601B50120E030E040E08D
:105780005FE30E9444400E9428410E945B41A401C3
:1057900093010E9496429B01AC0160E070E080E0C2
:1057A00090E40E9444402DEC3CEC4CEC5DEB0E94FC
:1057B0004D4218160CF4ADC1C801B70120E030E02D
:1057C00040E050E00E944D4288234CF0C801B701F0
:1057D00020E030E040E05FE30E94454008C0C8019F
:1057E000B70120E030E040E05FE30E9444400E94C7
:1057F00028410E945B419B01AC01C801B7010E9496
:10580000444020E030E040E050E00E944D42181655
:1058100074F5C801B70120E030E040E050E00E949C
:105820004D4288234CF0C801B70120E030E040E051
:105830005FE30E94454008C0C801B70120E030E0A6
:1058400040E05FE30E9444400E9428410E945B4187
:105850009B01AC01C801B7010E94444027E137EB2E
:1058600041ED58E30E94BC4088237CF552C1C80139
:10587000B70120E030E040E050E00E944D42882334
:105880004CF0C801B70120E030E040E05FE30E9447
:10589000454008C0C801B70120E030E040E05FE3C8
:1058A0000E9444400E9428410E945B419B01AC0140
:1058B000C801B7010E94444027E137EB41ED58EBA6
:1058C0000E944D4218160CF424C1C801B70120E013
:1058D00030E040E251E40E94BC4088230CF089C0D3
:1058E000C801B70120E030E040E050E00E944D42A6
:1058F00088234CF0C801B70120E030E040E05FE3CE
:105900000E94454008C0C801B70120E030E040E0F7
:105910005FE30E9444400E9428410E945B419B013A
:10592000AC01C801B7010E94444020E030E040E0F3
:1059300050E00E944D42181674F5C801B70120E0EE
:1059400030E040E050E00E944D4288234CF0C80116
:10595000B70120E030E040E05FE30E94454008C02E
:10596000C801B70120E030E040E05FE30E9444401E
:105970000E9428410E945B419B01AC01C801B70114
:105980000E94444027E137EB41ED58E30E94BC40C0
:1059900088237CF5BEC0C801B70120E030E040E0BC
:1059A00050E00E944D4288234CF0C801B70120E02E
:1059B00030E040E05FE30E94454008C0C801B70105
:1059C00020E030E040E05FE30E9444400E94284134
:1059D0000E945B419B01AC01C801B7010E94444099
:1059E00027E137EB41ED58EB0E944D4218160CF4BD
:1059F00090C0C801B7012B813C814D815E810E941E
:105A000096425B016C0120E030E040E050E00E94F3
:105A10004D4288234CF0C601B50120E030E040E063
:105A20005FE30E94454008C0C601B50120E030E0B8
:105A300040E05FE30E9444400E9428410E945B4195
:105A40009B01AC01C601B5010E94444020E030E05A
:105A500040E050E00E944D42181674F5C601B501B1
:105A600020E030E040E050E00E944D4288234CF0BE
:105A7000C601B50120E030E040E05FE30E94454010
:105A800008C0C601B50120E030E040E05FE30E94BD
:105A900044400E9428410E945B419B01AC01C60129
:105AA000B5010E94444027E137EB41ED58E30E94E5
:105AB000BC40882374F543C0C601B50120E030E046
:105AC00040E050E00E944D4288234CF0C601B501F1
:105AD00020E030E040E05FE30E94454008C0C6019E
