:100000000C9416020C9447020C9447020C9447027D
:100010000C9447020C9447020C9447020C9447023C
:100020000C9447020C9447020C9447020C9447022C
:100030000C9447020C9447020C9447020C9447021C
:100040000C9447020C9447020C9447020C9447020C
:100050000C947E0A0C9447020C9447020C94492D90
:100060000C9447020C94FA2E0C94EA2F0C9447023D
:100070000C9447020C94530A0C9447020C944702C8
:100080000C9447020C9447020C9447020C943A08D3
:100090000C942E2F0C9429300C9447020C941805C4
:1000A0000C9447020C9447020C9447020C944702AC
:1000B0000C9447020C9447020C9447020C9447029C
:1000C0000C9447020C9447020C9447020C94622F44
:1000D0000C9468300C9447020C94962F0C94A73023
:1000E0000C944702B61BDE1B021C1F1C5B1C3D1C34
:1000F000791CA21CDC1CBF1C181DF41C4C1E271EE6
:100100006B1E0D1FA71E9E1F621FDC1FF41F0C20FD
:1001100024204120971C502065208120D31BC02023
:10012000BA2BBD2BB02BB42BF42BC12BC52BCB2B57
:10013000CF2BD32BD92BDD2BE12BF42BE72BEB2B68
:10014000EF2BB32CB82CBD2CC72C402DD12CD92C87
:10015000E12CEB2CF52CFF2C0E2D182D402D222DF3
:100160002C2D362D0000090A02080B0C0D07060382
:10017000040100000000000000000000000000007A
:10018000000000000000000000000000000000006F
:1001900011100F000000000000000000000000002F
:1001A00000000000000000000000010210202008F4
:1001B00008102040102040800201020108040201C2
:1001C0000102040810204080804020100804020131
:1001D000800402018040201008040201080402018A
:1001E0000102040810204080010204081020408011
:1001F00005050505070508080808020202020A0AA3
:1002000008080404040401010101010101010303C0
:10021000030303030303040707070C0C0C0C0C0C6B
:100220000C0C0202020206060606060606060B0B68
:100230000B0B0B0B0B0B00002000230026002900EA
:100240002C002F003200000100000301060109010B
:1002500000002200250028002B002E003100340071
:1002600002010000050108010B010000210024002B
:1002700027002A002D003000330001010000040196
:1002800007010A010C944F180C948B0A0C94A71EBA
:100290000C94BD2B0C94CF2B0C946C0E0C940E2D47
:1002A0000C94EF2B0C94982E0C94B8030C949E1F76
:1002B0000C94222D0C94E12B0C94B42B0C94EB2C6D
:1002C0000C94C8090C94E72B0C942C2D0C948622CA
:1002D0000C94BA2B0C94182D0C94C12B0C94971CD5
:1002E0000C9468030C949A0A0C94B82C0C94360461
:1002F0000C944C1E0C94C0200C94B0090C949C17C8
:100300000C948E0A0C941F1C0C94271E0C94F42B36
:100310000C94A7260C94F52C0C94D92C0C945B2EE1
:100320000C947B030C9481200C94880A0C94490251
:100330000C9465080C94970A0C940C200C94C72C10
:100340000C94D92B0C94D32B0C943D1C0C94531867
:100350000C94181D0C94B32C0C94A21C0C94762EA7
:100360000C945B1C0C94B61B0C94BF1C0C94E222E6
:100370000C94BF170C946B1E0C94DE1B0C94B02BCA
:100380000C94F41F0C94021C0C949D0A0C945020A5
:100390000C9467310C9424200C94A00A0C94C92F5F
:1003A0000C94DD2B0C94EB2B0C94CB2B0C94412058
:1003B0000C9460030C948A030C940D1F0C9481021E
:1003C0000C94E5220C94910A0C94E12C0C94D12C01
:1003D0000C94F41C0C9427110C94492E0C94621F5D
:1003E0000C948B030C9465200C94C52B0C94BD2CA1
:1003F0000C94362D0C94940A0C94D31B0C94402D21
:100400000C94DC1C0C94A32E0C94DC1F0C94791C13
:100410000C947D020C949D320C944B180C94FF2C80
:100420007D023604880AA7266731810211241FBE87
:10043000CFEFD1E2DEBFCDBF00E00CBF14E0A0E003
:10044000B2E0E8E0F8E700E00BBF02C007900D92D1
:10045000A83BB107D9F711E1A8EBB4E001C01D92A8
:10046000AE34B107E1F714E0CAE2D4E000E006C020
:1004700022970109FE010BBF0E949239C032D107B9
:1004800080E00807A9F70E941A030C94F23B0C9431
:100490000000809106029091070201969093070256
:1004A00080930602089588EB94E00E944021809199
:1004B00006029091070269E170E00E945639892B8B
:1004C000D9F480910A0D882389F080910B0D811158
:1004D0000BC0E091B804F091B9040688F789E02DCB
:1004E00088EB94E0199502C010920B0D81E090E02A
:1004F0009093070280930602089588EB94E00C9491
:10050000AB0A88EB94E00C94BC0A80E180939100E4
:100510001092900085E080933C0E86E998E99093D4
:100520003E0E80933D0E909397008093960085E158
:100530008093910089E492E090933B0E80933A0E71
:1005400081E08093710088EB94E00E946C0E68E07B
:1005500072E088E09FE00E9410336FEF71E260501C
:1005600072404AE050E088E09FE00E94EA336DE08C
:1005700072E088E09FE00E94103368EB74E0605006
:1005800072404AE050E088E09FE00E94EA3364E174
:1005900072E088E09FE00E9410336EE471E1685BD6
:1005A00074404AE050E088E09FE00E94EA336AE14C
:1005B00072E088E09FE00E94103360914A117091D0
:1005C0004B116115710519F06E54714102C060E064
:1005D00070E04AE050E088E09FE00E94EA3360E289
:1005E00072E088E09FE00E9410338DB79EB76FEFF6
:1005F00071E2681B790B4AE050E088E09FE00E94BE
:10060000EA3367E272E088E09FE00E941033809155
:100610004A1190914B116DB77EB7009719F46E5443
:10062000714102C0681B790B4AE050E088E09FE00E
:100630000C94EA330E94E72D0E948502C9ECDFE2A8
:100640000E9453022097E1F30E94C92FF9CFCB01FA
:100650000C94CC3BCB01642F0C94D43B61E085E33C
:100660000E942E2C61E085E30E94F52B8CB5806101
:100670008CBD8CB580648CBD61E084E30E94F52B59
:1006800061E083E30C94F52B811103C08CB580628B
:1006900002C08CB58F7D8CBD08959CB5937F982B3F
:1006A0009CBD08952CB5982F93702C7F922B9CBDE8
:1006B0009DB582FB882780F99E7F982B9DBD08956C
:1006C0008091AA0D90E02091AB0D821B91090895B5
:1006D0002091AB0D8091AA0D281750F4E22FF0E085
:1006E000E455F24F808190E02F5F2093AB0D089589
:1006F0008FEF9FEF0895E091AB0D8091AA0DE81761
:1007000030F4F0E0E455F24F808190E008958FEFEF
:100710009FEF08950895CF92DF92EF92FF920F938B
:100720001F93CF93DF937C01CB018A012091860D2B
:10073000222389F0EB016B01C40ED51ECC15DD051B
:1007400069F06991D701ED91FC910190F081E02D64
:10075000C7011995F3CF642F0E94EF04C801DF9100
:10076000CF911F910F91FF90EF90DF90CF90089560
:10077000CF93DF931F92CDB7DEB769832091860DAB
:100780002223D1F02091870D203240F021E030E08B
:10079000FC013383228380E090E015C08091880DB6
:1007A000E82FF0E0E757F24F998190838F5F8093B5
:1007B000880D8093870D05C061E0CE0101960E94EF
:1007C000EF0481E090E00F90DF91CF910895FC015C
:1007D0001382128248EE53E060E070E04483558358
:1007E0006683778388E392E09183808308951092F3
:1007F000AB0D1092AA0D1092880D1092870D0C94DB
:100800003A04862F413208F040E26CEA7DE00E9413
:1008100058041092AB0D8093AA0D089521E00C941A
:10082000010421E00C94010481E08093860D609323
:10083000A90D1092880D1092870D08950C94140440
:100840000F93062F21E04091870D69E87DE08091AC
:10085000A90D0E949C041092880D1092870D109291
:10086000860D0F91089561E00C9420048AE79DE0C5
:100870000C94E7031092390E81E08093370E1092AA
:10088000360E61E084E10E942E2C61E085E10E9439
:100890002E2CE9EBF0E080818E7F808380818D7F3C
:1008A000808388E48093B80085E48093BC00089539
:1008B000413208F03FC09091390E9111FCCF91E088
:1008C0009093390E2093370E2FEF2093CC0D10927A
:1008D000110E240F2093100E9093380E9091380E25
:1008E000880F892B8093380E8091360E813041F429
:1008F0001092360E8091380E8093BB0085EC01C0BB
:1009000085EE8093BC008091390E8130E1F38091B7
:10091000110E841710F44091110E22E13EE0FB010C
:10092000D9018A2F821B841718F48D918193F9CFF6
:10093000842F089580E008950F93413208F046C057
:100940009091390E9111FCCF92E09093390E009363
:10095000370E9FEF9093CC0D1092110E4093100E16
:10096000FB0162E17EE0DB019A2F961B941718F4DD
:1009700091919D93F9CF1092380E9091380E880F77
:10098000892B8093380E8091360E813041F410927D
:10099000360E8091380E8093BB0085EC01C085EE49
:1009A0008093BC00222321F08091390E8230E1F344
:1009B0008091CC0D8F3F61F08091CC0D803251F051
:1009C0008091CC0D803341F483E007C081E005C005
:1009D00080E003C082E001C084E00F91089561329D
:1009E00098F42091390E243089F46093EE0DFC01C7
:1009F00080EF9DE0DC012A2F281B261718F4219197
:100A00002D93F9CF80E0089581E0089582E0089564
:100A100085ED8093BC008091BC0084FDFCCF1092DA
:100A2000390E089585EC8093BC001092390E08951C
:100A30001F920F920FB60F9211240BB60F922F93A5
:100A40003F934F935F936F937F938F939F93AF9356
:100A5000BF93EF93FF938091B900887F803609F4AC
:100A60009CC068F5883209F45BC090F4803109F4C9
:100A700054C038F4882309F4F5C0883009F44DC017
:100A8000F5C0883109F44CC0803209F45DC0EEC075
:100A9000803409F468C048F4803309F455C08833C1
:100AA00009F0E4C08093CC0DA8C0803509F44FC094
:100AB000883509F45DC0883409F0D8C0D5C08839BC
:100AC00009F4C6C0A8F4883709F467C038F488363A
:100AD00009F463C0803709F460C0C8C0883809F4DD
:100AE000B7C0803909F45FC0803809F0BFC05BC06F
:100AF000803B09F485C038F4803A09F466C0883A2E
:100B000009F47EC0B3C0803C09F4A6C0883C09F457
:100B1000A3C0883B09F489C0A9C08091380E10C0D9
:100B20009091110E8091100E981770F5E091110EB2
:100B300081E08E0F8093110EF0E0EE5EF14F808128
:100B40008093BB0085EC85C08093CC0D8DC0E09177
:100B5000110E81E08E0F8093110E8091BB00F0E0AA
:100B6000EE5EF14F80839091110E8091100E6DC05A
:100B7000E091110E81E08E0F8093110E8091BB00E9
:100B8000F0E0EE5EF14F80838091370E81116CC0F2
:100B900081E08093360E84EA60C083E08093390E52
:100BA0001092CD0DCFCF8091CD0D803208F050C086
:100BB000E091CD0D81E08E0F8093CD0D8091BB0033
:100BC000F0E0E253F24F8083BDCF8091CD0D8032B3
:100BD00030F4E091CD0DF0E0E253F24F10820E942C
:100BE00008056091CD0D70E0E091320EF091330E6A
:100BF0008EEC9DE019951092CD0D0E94120536C025
:100C000084E08093390E1092EF0D1092EE0DE0917A
:100C1000340EF091350E19958091EE0D811105C0BD
:100C200081E08093EE0D1092F00DE091EF0D81E0E8
:100C30008E0F8093EF0DF0E0E051F24F80818093B2
:100C4000BB009091EF0D8091EE0D981708F47ACFCC
:100C500085E88093BC000AC085EC8093BC001092AC
:100C6000390E04C01092CC0D0E940805FF91EF913F
:100C7000BF91AF919F918F917F916F915F914F91B4
:100C80003F912F910F900BBE0F900FBE0F901F90B2
:100C90001895FF920F931F93CF93DF93FC01008170
:100CA000C181D281F8948981F02EF0948F218983BB
:100CB00078941DE7115029F182E090E00E94DC2D2C
:100CC00088818023B9F3F8948A818F218A8389816E
:100CD000802B8983789480EE91E00E94DC2DF8943B
:100CE00089818F21898386E490E00E94DC2D8881B0
:100CF000802311E009F010E078948AE991E00E94E5
:100D0000DC2D812FDF91CF911F910F91FF900895DE
:100D10001F93CF93DF93FC011081C181D281912F6A
:100D2000909560FF12C0F8948A8189238A83898113
:100D3000812B89838AE090E00E94DC2D8A81812BBF
:100D40008A83789487E390E011C0F8948A8189239C
:100D50008A838981812B898381E490E00E94DC2D44
:100D60008A81812B8A83789485E090E0DF91CF910E
:100D70001F910C94DC2D0F931F93CF93DF93FC01F5
:100D80001081C181D281F8948981812B89838A81E4
:100D9000012F009580238A8383E090E00E94DC2D60
:100DA0008981802389838AE090E00E94DC2DC881BC
:100DB000789485E390E00E94DC2D1C2381E009F407
:100DC00080E0DF91CF911F910F910895CF92DF9234
:100DD000EF92FF920F931F93CF93DF931F92CDB7A4
:100DE000DEB76C01E62E08E010E0FF24F39461E02A
:100DF0009F2D9E2109F460E0C60149830E94880668
:100E0000FF0C0150110949810115110581F74111AC
:100E100015C0F894D6011196ED91FC91129791812D
:100E20008C918095892381831196ED91FC91129785
:100E300092818C9180958923828378940F90DF91A1
:100E4000CF911F910F91FF90EF90DF90CF90089579
:100E5000EF92FF920F931F93CF93DF938C01C8E023
:100E6000D0E0F12CEE24E394C8010E94BB0681116E
:100E7000FE28EE0C21972097B9F78F2DDF91CF91A7
:100E80001F910F91FF90EF900895CF92DF92FF9204
:100E90000F931F93CF93DF931F92CDB7DEB78C01D3
:100EA000F62E40E065E579830E94E606CF2C798135
:100EB000D72E88E0F82EF60161916F0140E0C8015D
:100EC0000E94E606FA94B9F70F90DF91CF911F9137
:100ED0000F91FF90DF90CF900895FC011386158647
:100EE000148627E030E0DF01A20FB31F13961C9297
:100EF0002115310519F021503109F5CF08951F93BF
:100F0000CF93DF93EC01162F60E0812F0E94F52B29
:100F1000612F70E0FB01E655FE4FE491E883FB0191
:100F2000E051FE4FE491F0E0EE0FFF1FEA5CFD4F51
:100F3000859194919A838983CE01DF91CF911F91FE
:100F40000C946D07AF92BF92CF92DF92EF92FF9217
:100F50000F931F93CF93DF931F92CDB7DEB75C0142
:100F6000E62ED72EFC01858581115DC0C5010E944A
:100F70004906811105C0F5011386158614866EC0D9
:100F800040E060EFC5010E94E60601E0F12CC12CB3
:100F900011E0C5010E94BB06682FC50169830E944C
:100FA000BB066981613019F48130B9F433C02F2D4B
:100FB00030E068131BC0F5018385181730F4E20F89
:100FC000F31F8381802349F402C0181731F060E0D9
:100FD000193058F4F501148708C0F501EF0DF11D23
:100FE0008381802B838361E009C0C12EF501E20F6C
:100FF000F31F8381902F909589238383C5010E94DD
:1010000088061F5F000F11F4F39401E0F7E0FF156D
:1010100008F0BFCF113438F0F501C386C11018C0F5
:1010200081E0858715C0F50113861586148680E05A
:10103000EE2DFD2D20E030E0D501A20FB31F139659
:101040009C9191932F5F3F4F28303105A9F706C03F
:10105000F5018381882339F381E0EACF0F90DF9196
:10106000CF911F910F91FF90EF90DF90CF90BF90A5
:10107000AF9008951F920F920FB60F9211240BB6E6
:101080000F922F933F934F935F936F937F938F9321
:101090009F93AF93BF93EF93FF93E0913A0EF0913C
:1010A0003B0E1995FF91EF91BF91AF919F918F9159
:1010B0007F916F915F914F913F912F910F900BBE58
:1010C0000F900FBE0F901F9018958091780060913F
:1010D00079004091580E5091590E2091560E309142
:1010E000570E42175307B8F59091550E911105C050
:1010F00090917A00906490937A0090E0962B2091E2
:101100007C0025FF13C0E0915C0EF0915D0E2091F4
:10111000580E3091590EA9014F5F5F4F5093590EF1
:101120004093580EE20FF31F90830895E0915A0EFA
:10113000F0915B0E2091580E3091590EA9014F5F2E
:101140005F4F5093590E4093580E220F331FE20FFA
:10115000F31F918380830895ECE7F0E090819F7303
:101160009083208130E4839FC0011124282B2083A9
:10117000089580917A00877090E00895E1E8F0E0AA
:101180008081887F808308950E94BE081092850028
:1011900010928400E1E8F0E0808190913F0E892B6D
:1011A00080830895882321F080917C00806203C0B1
:1011B00080917C008F7D80937C000895EBE7F0E0C8
:1011C0009081987F90839081982B9083089580914F
:1011D0007B00877008958093550E882321F08091BD
:1011E0007A00806203C080917A008F7D80937A00BC
:1011F0000895CF92DF92EF92FF926B017C0180E124
:101200008093810010928000A701960160E074E253
:1012100084E799E40E94F93620E030E040E051E4B0
:101220000E9488380E9466376115710521E08207A7
:10123000910528F421E020933F0ECB014CC06115AD
:10124000710528E08207910568F422E020933F0EA3
:10125000DC01CB0123E0B695A795979587952A9554
:10126000D1F739C06115710520E48207910568F452
:1012700023E020933F0EDC01CB01F6E0B695A79565
:1012800097958795FA95D1F726C061157105810567
:1012900021E0920740F424E020933F0EBB27A92FC2
:1012A000982F872F18C061157105810524E09207DA
:1012B00068F425E020933F0EDC01CB015AE0B6959F
:1012C000A795979587955A95D1F705C085E08093A6
:1012D0003F0E8FEF9FEF909387008093860081E011
:1012E00080936F0086E00E94DE0881E00E94EB0898
:1012F000C092480ED092490EE0924A0EF0924B0EE8
:10130000FF90EF90DF90CF9008958093520E9091D0
:101310007C00907F90937C0020917C00982F9770A8
:10132000922B90937C00883020F080917B00886025
:1013300003C080917B00877F80937B00089591E0BC
:101340009093510E1092540E1092530E1092500E14
:1013500025E638E030934F0E20934E0E0C9485090D
:101360008091500E8F5F8093500E9091510E891393
:1013700002C01092500E8091500EE091530EF091E9
:10138000540EE80FF11D80810E9485090C946508B8
:10139000CF93C091500E9091510E9230A0F081E009
:1013A0008C0F891719F08093500E02C01092500EC6
:1013B0008091500EE091530EF091540EE80FF11D04
:1013C00080810E9485096091780080917900409128
:1013D000580E5091590E2091560E3091570E4217CB
:1013E000530700F59091550E911105C090917A0028
:1013F000906490937A0070E0782B80917C0085FF58
:1014000002C0672F7727E0914C0EF0914D0E8C2F84
:1014100019958091580E9091590E01969093590EFE
:101420008093580ECF910895CF93DF93D0917C0095
:10143000C0917B0080917C00807E80937C008091B5
:101440007C008E6180937C0080917B00877F8093FD
:101450007B0063E070E080E090E00E94B62D809118
:101460007A00806480937A0080917A0086FDFCCFB8
:101470006091780080917900D0937C00C0937B00CC
:1014800070E0782B882777FD8095982F0E949437FD
:101490009B01AC0160E070E889E894E40E94F936B1
:1014A000DF91CF9108951F920F920FB60F921124E2
:1014B0000BB60F922F933F934F935F936F937F934E
:1014C0008F939F93AF93BF93EF93FF93E0914E0E53
:1014D000F0914F0E1995FF91EF91BF91AF919F91B0
:1014E0008F917F916F915F914F913F912F910F90CD
:1014F0000BBE0F900FBE0F901F9018951F920F926A
:101500000FB60F9211240F900FBE0F901F901895D9
:1015100081E00C94AC0882E394E008958EE294E0BC
:10152000089587E194E008958DEF93E0089582EFA8
:1015300093E008958FEB93E0089584E492E008959A
:1015400061E082E00C942E2CDC01ED91FC91019085
:10155000F081E02D1994CF93DF93EC0161E00E94BC
:10156000541887EA93E099838883CE5AD74F18821C
:101570001982DF91CF91089527EA33E0FC0131838E
:1015800020830C94D618AF92BF92CF92DF92EF9245
:10159000FF920F931F93CF93DF931F921F92CDB7AC
:1015A000DEB78C01D12C7C018BEBE81A87EFF80AAF
:1015B0005801E6E9AE1AE7EFBE0A2D2D30E0F8013A
:1015C000EC5AF74F8081918168E270E00E945639B1
:1015D00026173707E0F588E0C82EC982F701208179
:1015E000318180E090E040E0B801620F731FE42F8A
:1015F000F0E0DB01A80FB91FA259BF4F41E050E056
:10160000AC91AA2311F040E050E0082E02C0440F34
:10161000551F0A94E2F74E0F5F1F0196883091051F
:1016200031F74A83285F3F4FF70131832083F5016B
:1016300060816D0D22E0AE014F5F5F4FC8010E94D7
:101640001221C394FDE0CF12C8CFD394B6CF0F9030
:101650000F90DF91CF911F910F91FF90EF90DF904E
:10166000CF90BF90AF9008955F926F927F928F92CC
:101670009F92AF92BF92CF92DF92EF92FF920F9321
:101680001F93CF93DF931F921F92CDB7DEB76C01EC
:10169000CB01542E68E270E00E9456397B014C0168
:1016A0005C0193E0B694A7949A95E1F73B01772407
:1016B00086010659174FF8018081B301680F711D2B
:1016C0008AE79DE00E941E04B501685F7F4F8AE7AC
:1016D0009DE00E94A40A8AE79DE00E943304F8017D
:1016E0008081B301680F711D41E050E08AE79DE001
:1016F0000E9411048AE79DE00E946003892B41F15A
:10170000F82DF7708F2E88E08A0D89838AE79DE097
:101710000E94680341E050E060E070E004C0440FC4
:10172000551F661F771F8A94D2F7511002C0482BAD
:1017300002C0409548234A83F80160816E0D22E083
:10174000AE014F5F5F4FC6010E94122180E001C0D1
:1017500081E00F900F90DF91CF911F910F91FF903B
:10176000EF90DF90CF90BF90AF909F908F907F9041
:101770006F905F9008959F92AF92BF92CF92DF9249
:10178000EF92FF920F931F93CF93DF9300D000D07F
:10179000CDB7DEB78C016A017B01922E1E82FC015F
:1017A000E354F74F2081318142815381C701B60153
:1017B0000E94F53618160CF444C0F801E15AF74FB0
:1017C0002081318142815381C701B6010E94F936DF
:1017D00028EA29836A837B838C839D83580185E96A
:1017E000A81A87EFB80A25E0AE014F5F5F4FF501F9
:1017F0006081C8010E941221992029F164E670E0FD
:1018000080E090E00E94B62D41E0F50160818AE71A
:101810009DE00E940E048AE79DE00E946003892BF0
:1018200091F08AE79DE00E946803813061F421E035
:10183000AE014A5F5F4FF5016081C8010E94611BE4
:1018400002C088E08E838E81811107C0F801E95AB9
:10185000F74FC082D182E282F38226960FB6F894C7
:10186000DEBF0FBECDBFDF91CF911F910F91FF90D3
:10187000EF90DF90CF90BF90AF909F900895FC01C4
:10188000E15AF74F4083518362837383FC01E95A25
:10189000F74F408151816281738120E00C94BB0B32
:1018A000EF92FF920F931F93CF93DF938C017C01F4
:1018B0008CE9E81A87EFF80AC4E6D0E0F701419115
:1018C0007F01BE01C8010E944F182196C13CD1057D
:1018D000A9F760E0C801DF91CF911F910F91FF90B0
:1018E000EF900C94730C8F929F92AF92BF92CF9215
:1018F000DF92EF92FF920F931F93CF93DF93EC0150
:10190000B62E7C012CE9E21A27EFF20A04E610E079
:101910006701E881F9810088F189E02DB801CE01E5
:101920001995F70181937F010F5F1F4F013C11054E
:1019300081F7F601808191819E012A59374F790103
:101940008E010859174F892B01F5F901808191818A
:10195000892BD9F4F80180819181892BB1F4FE01A2
:10196000E15AF74F80819181A281B381FE01E45554
:10197000F74F80839183A283B38381E090E0F801E5
:1019800091838083CE010E94500CF6018081918169
:10199000892BB9F4F70180819181892B91F4F801A9
:1019A00080819181019769F480E2FE01E659F74F49
:1019B000808382E090E0F80191838083CE010E94D1
:1019C000500CF60180819181892BE9F4F701808127
:1019D0009181892BC1F4F80180819181029799F45A
:1019E00080E090E0A0EAB0E4FE01E055F74F80838C
:1019F0009183A283B38383E090E0F8019183808395
:101A0000CE010E94500CF60180819181892BB1F4A6
:101A1000F70180819181892B89F4F801808191817E
:101A2000039761F4FE01EC54F74F108284E090E0DC
:101A3000F80191838083CE010E94500CF6018081D1
:101A40009181892B99F5F70180819181892B71F51D
:101A5000F80180819181049749F580E090E0A8EC3D
:101A6000B2E4FE01EB54F74F80839183A283B383EA
:101A700080E090E4ACE9B6E4FE01E754F74F8083E0
:101A80009183A283B38380E090E0A8E4B3E4FE01F5
:101A9000E354F74F80839183A283B38385E090E082
:101AA000F80191838083CE010E94500CF601808161
:101AB0009181892B69F4F70180819181892B41F40F
:101AC000F80180819181059719F4BB2009F4DAC0EF
:101AD000F60111821082F7011182108285E090E0F8
:101AE000F8019183808300E010E42CE936E4FE01E4
:101AF000E459F74F008311832283338380E090E51C
:101B0000A3E4B8E4FE01E059F74F80839183A283F8
:101B1000B38340E054E264EF79E4FE01EC58F74F00
:101B20004083518362837383C12CD12CE8E4EE2E71
:101B3000E3E4FE2EFE01EC57F74FC082D182E28231
:101B4000F382812C912CFAEFAF2EF4E4BF2EFE012C
:101B5000E857F74F80829182A282B382FE01E45758
:101B6000F74F0083118322833383FE01E057F74F41
:101B700080839183A283B383FE01EC56F74F4083A9
:101B80005183628373834FEF56EE6BE57EE2FE0175
:101B9000E058F74F4083518362837383FE01E85519
:101BA000F74F40835183628373838AE0FE01E559D6
:101BB000F74F8083FE01E858F74F1082118212829E
:101BC0001382FE01E458F74F1082118212821382B1
:101BD000FE01E856F74F4083518362837383FE0111
:101BE000E456F74F4083518362837383FE01E056CE
:101BF000F74F4083518362837383FE01EC55F74FA7
:101C00004083518362837383FE01E15AF74F8081E1
:101C10009181A281B381FE01E455F74F80839183C6
:101C2000A283B38380E2FE01E659F74F808380E010
:101C300090E0A0EAB0E4FE01E055F74F8083918385
:101C4000A283B383FE01EC54F74F108280E090E052
:101C5000A8ECB2E4FE01EB54F74F80839183A2839A
:101C6000B383FE01E754F74F00831183228333834C
:101C7000FE01E354F74FC082D182E282F382CE01AB
:101C80000E94500CFE01E455F74FC080D180E280E5
:101C9000F38020E030E0A901C701B6010E94F536CB
:101CA000FE01ED59F74F18161CF081E0808307C044
:101CB000C15AD74FC882D982EA82FB821082DF9153
:101CC000CF911F910F91FF90EF90DF90CF90BF9039
:101CD000AF909F908F9008954F925F926F927F92F6
:101CE0008F929F92AF92BF92CF92DF92EF92FF922C
:101CF0000F931F93CF93DF93CDB7DEB765970FB6E2
:101D0000F894DEBF0FBECDBF8C010E94BF1761E00B
:101D100082E00E94F52B60E082E00E942E2C64EFAE
:101D200071E080E090E00E94B62DD801ED91FC9129
:101D30000680F781E02DC8011995BC0188E09FE07D
:101D40000E9410336AE472E088E09FE00E94103342
:101D5000D801ED91FC910484F585E02DC801199519
:101D6000BC0188E09FE00E942D336DE472E088E0C2
:101D70009FE00E941033D801ED91FC910284F3851D
:101D8000E02DC8011995BC0188E09FE00E942D3329
:101D9000C8010E940C1AF801E15AF74F80E090E068
:101DA000A8ECB2E480839183A283B38360E0C8018E
:101DB0000E94730C60E672E088E09FE00E9410339E
:101DC0007801BCE9EB1AB7EFFB0AF701608171817A
:101DD0004AE050E088E09FE00E942D3461EA73E021
:101DE00088E09FE00E941033F801EA59F74F6081C4
:101DF00071814AE050E088E09FE00E942D3461EA62
:101E000073E088E09FE00E941033F801E859F74F33
:101E1000608171814AE050E088E09FE00E943334A5
:101E200067E772E088E09FE00E941033F801E5590F
:101E3000F74F4AE050E0608188E09FE00E9416344E
:101E4000B12CA12CA1E0BA1202C085E001C083E050
:101E5000A81608F0AFC04AE06A2DCE0101960E9494
:101E6000E5354AE06B2DCE010F960E94E5356BE912
:101E700072E0CE0108960E94B635BE01615F7F4FC9
:101E8000CE0108960E943F366DE972E00E945236FC
:101E9000BE016F5F7F4F0E943F3661EB72E00E9490
:101EA0005236BC0188E09FE00E94DB32CE010896EA
:101EB0000E944835CE010F960E944835CE0101960A
:101EC0000E944835CA2CD12CF1E0BF1619F0F6015A
:101ED000329602C0F6013896EE0FFF1FEE0FFF1F7D
:101EE000EE0DFF1D408151816281738122E030E05F
:101EF00088E09FE00E9436354AE06A2DCE010196C7
:101F00000E94E5354AE06B2DCE010F960E94E53523
:101F10006BE972E0CE0108960E94B635BE01615FA2
:101F20007F4FCE0108960E943F3664EB72E00E941C
:101F30005236BE016F5F7F4F0E943F3661EB72E009
:101F40000E945236BC0188E09FE00E94DB32CE0145
:101F500008960E944835CE010F960E944835CE0162
:101F600001960E94483581E0F601B81611F03596C9
:101F700001C03D96EE0FFF1FEE0FFF1FEE0DFF1D80
:101F8000608171818281938125EA34ED48E653E5D1
:101F90000E948838AB01BC0122E030E088E09FE07D
:101FA0000E94343569EC72E088E09FE00E942D3396
:101FB000A39448CFB394B2E0BB1243CF6DEC72E070
:101FC00088E09FE00E9410337801E6E9EE1AE7EF1F
:101FD000FE0A4AE050E0D7016C9188E09FE00E9441
:101FE000163462E273E088E09FE00E941033F8014B
:101FF000E455F74F408151816281738122E030E0E6
:1020000088E09FE00E9436356AEE72E088E09FE04B
:102010000E941033F801E055F74F408151816281F1
:10202000738122E030E088E09FE00E9436356DEF5A
:1020300072E088E09FE00E941033F801EC54F74F03
:10204000608170E04AE050E088E09FE00E94EA335F
:1020500066E173E088E09FE00E941033F801ED59DB
:10206000F74F608170E04AE050E088E09FE00E9416
:10207000EA3362E373E088E09FE00E941033F801E6
:10208000EB54F74F408151816281738122E030E04F
:1020900088E09FE00E9436356AE473E088E09FE0C4
:1020A0000E941033F801E754F74F4081518162815B
:1020B000738122E030E088E09FE00E94363562E6DE
:1020C00073E088E09FE00E941033F801E354F74F7B
:1020D000408151816281738122E030E088E09FE09D
:1020E0000E943635F801EC5AF74F11821082B8E29F
:1020F000AB2EB12CC12CD12C88E1682E77247A9498
:102100004F014C2C69827A82F70160816C0D22E0CC
:10211000AE014F5F5F4FC8010E941221D7016C9141
:102120006C0D21E0AE014F5F5F4FC8010E94611B43
:1021300089818F3F09F04BC0A8E15A2E59821A823B
:10214000F7016081640D22E0AE014F5F5F4FC8016F
:102150000E941221D7016C91640D21E0AE014F5F06
:102160005F4FC8010E94611B8981811130C080EFDF
:10217000850D89837A82F7016081640D22E0AE01CA
:102180004F5F5F4FC8010E9412215394FDE15F121F
:10219000D5CF6DE873E088E09FE00E9410334AE0FD
:1021A00050E0B60188E09FE00E94E23367E973E007
:1021B00088E09FE00E942D33D4012D913C91C50110
:1021C00088972817390719F4D401AD92BC92BFEF54
:1021D000CB1ADB0AE8E2AE0EB11CF8E0CF16D10450
:1021E00009F08FCFF801EC5AF74F608171814AE016
:1021F00050E088E09FE00E942D3468E773E088E0BB
:102200009FE00E942D33F801EC54F74F8081882322
:1022100011F042E001C041E060E0C8010E942C22C0
:1022200065960FB6F894DEBF0FBECDBFDF91CF919C
:102230001F910F91FF90EF90DF90CF90BF90AF90E4
:102240009F908F907F906F905F904F9008952F9206
:102250003F924F925F926F927F928F929F92AF9236
:10226000BF92CF92DF92EF92FF920F931F93CF9383
:10227000DF93CDB7DEB761970FB6F894DEBF0FBE20
:10228000CDBF1C01B62E9C0124593F4F290131EBD3
:10229000631709F4A2C33617D8F148EA641709F4A2
:1022A00006C24617D8F052EA651709F4FEC0561761
:1022B00048F080EA681709F468C091EA691709F4E0
:1022C0007EC0C6C5A4EA6A1709F46BC16A1708F490
:1022D0006CC0B7EA6B1709F48FC1BAC5EDEA6E1787
:1022E00009F4C3C2E61748F0F9EA6F1709F4FEC112
:1022F0002AEA621709F443C2ABC5FC01E05CF74F60
:102300003FEA631709F4F2C2361708F0D3C217C3C5
:1023100048EB641709F434C54617D0F054EB651741
:1023200009F400C4561748F082EB681709F491C30A
:1023300093EB691709F4E6C38BC5FC01E05CF74F2A
:10234000A6EB6A1709F449C4A61708F02DC4EDC41A
:10235000BCEB6B1709F441C5B61758F0FC01E05C03
:10236000F74F2AEB621709F4E9C4261708F018C5DD
:10237000F0C434EF631709F45FC445EF641709F440
:10238000C5C45DEB651364C543C5F101E05CF74F5F
:1023900080819181892B89F442E050E0B1016C5A2F
:1023A000774FC1010E94DC1851C5FC01E05CF74F7A
:1023B00080819181029709F48AC086E0F2C3F1011D
:1023C000E05CF74F80819181892BB9F7D2011C9293
:1023D000A12C91012C5A374F3F832E83610136E99E
:1023E000C31A37EFD30AEA2CF12CAE81BF818D914D
:1023F0009C9168E270E00E945639E616F70608F0F4
:1024000027C508E010E0D6018C91B701680F711D57
:102410008AE79DE00E941E04B8018AE79DE00E94C1
:10242000A40A8AE79DE00E943304F6018081B70187
:10243000680F711D41E050E08AE79DE00E941104A1
:102440008AE79DE00E946003892B51F18AE79DE0B5
:102450000E9468034C01612C712C9924C401062C44
:1024600002C0959587950A94E2F781709927F1E06B
:102470008F27898341E050E0BE016F5F7F4FC1012C
:102480000E94DC182FEF621A720A38E0631671049A
:1024900029F70F5F1F4F0D30110509F0B4CF03C0AE
:1024A000E1E0D201EC93A3949ECFFC01E05CF74FF6
:1024B00020813181FC01EC5AF74F808191812817EE
:1024C000390709F07ACFC1010E94C30AB2C3D10112
:1024D000AB5BB74F2D913C911197F901E259FF4F3A
:1024E000E20DF31D808191812E5F3F4F2D933C9330
:1024F000F101EC5AF74F208131818217930708F0E0
:10250000FFC268E270E00E9456398C016B01DD2445
:102510007101B6E9EB1AB7EFFB0AF7018081B6014A
:10252000680F711D8AE79DE00E941E04B80143E018
:10253000769567954A95E1F7685F7F4F8AE79DE05A
:102540000E94A40A8AE79DE00E943304D7018C917F
:10255000B601680F711D41E050E08AE79DE00E94DE
:1025600011048AE79DE00E946003892B09F4CCC323
:102570008AE79DE00E9468039927077002C095953D
:1025800087950A95E2F781709927B1E08B278983B7
:1025900041E050E0BE016F5F7F4FC1010E94DC1837
:1025A00048C3FC01E05CF74F80819181039709F0FB
:1025B00004CFD101AB5BB74F8D919C911197FC017A
:1025C000E259FF4FE20DF31D60817181F101E80FC7
:1025D000F91FE059FF4F408103968D939C93F101C1
:1025E000EC5AF74F808191816817790708F088C20B
:1025F000C1010E94340BD5C2FC01E05CF74F808121
:102600009181892B09F0D9CE81010559174F47EAED
:10261000F8016081C1010E94FB2064E670E080E067
:1026200090E00E94B62D41E0D8016C918AE79DE0D0
:102630000E940E048AE79DE00E946003892B09F442
:1026400007C48AE79DE00E946803853009F000C452
:1026500025E0AE014F5F5F4FF8016081C1010E942C
:10266000611B8D81D2018C938111F2C38101095AC2
:10267000174FC980DA80EB80FC80C701B601F801F2
:10268000C082D182E282F382F101E15AF74F2081C8
:102690003181428153810E948838D8016D937D93A6
:1026A0008D939C93139744E050E0B801ADC3FC01B7
:1026B000E05CF74F80819181049709F07ECED101D3
:1026C000AB5BB74F8D919C911197FC01E259FF4F85
:1026D000E20DF31D408151816281738104968D93D7
:1026E0009C9321E0C1010E94BB0B5BC2FC01E05C3A
:1026F000F74F80819181892B09F05FCE81010559C7
:10270000174F49EAD8016C91C1010E94FB2064E691
:1027100070E080E090E00E94B62D41E0F801608119
:102720008AE79DE00E940E048AE79DE00E94600314
:10273000892B09F48DC38AE79DE00E9468038530E8
:1027400009F086C325E0AE014F5F5F4FD8016C9161
:10275000C1010E94611B8D81F2018083811178C3C8
:1027600089819A81AB81BC81B101655A774FFB01A8
:1027700080839183A283B38344E050E045C3FC018E
:10278000E05CF74F80819181049709F016CED1016A
:10279000AB5BB74F8D919C911197FC01E259FF4FB4
:1027A000E20DF31DC080D180E280F38004968D930A
:1027B0009C93F101EB54F74F208131814281538189
:1027C000C701B6010E94843887FD40C0F101E7547B
:1027D000F74F2081318142815381C701B6010E94A8
:1027E000F53618169CF18AEA8983CA82DB82EC826C
:1027F000FD8281010559174F25E0AE014F5F5F4F04
:10280000D8016C91C1010E94122164E670E080E061
:1028100090E00E94B62D41E0F80160818AE79DE0DA
:102820000E940E048AE79DE00E946003892B89F0D4
:102830008AE79DE00E946803813059F421E0A201FB
:10284000D8016C91C1010E94611B03C088E0F201B4
:102850008083D2018C918111FBC2F101E55AF74FBF
:10286000C082D182E282F382F3C2FC01E05CF74FC6
:1028700080819181019709F0A0CDD101AB5BB74F69
:102880008D919C911197F101E80FF91FE259FF4FCB
:10289000E08101968D939C93E23008F031C1BBE159
:1028A000EB9FF0011124E25AF14F81818983F201FB
:1028B0001082A5C280819181029709F07ECDF1013D
:1028C000EB5BF74F20813181A101420F531FDA01E9
:1028D000A259BF4F8C91DA01A159BF4F6C912E5F65
:1028E0003F4F318320830E94C4215BC1808191814D
:1028F000019709F062CDF101EB5BF74F8081918187
:10290000D101A80FB91FA259BF4F2C9101969183F5
:102910008083223008F0F4C0D2011C92BBE12B9FCF
:10292000F0011124E25AF14FE181C1018C59974F16
:10293000F0E0213011F032967BC0389679C080816A
:102940009181059709F039CDF101EB5BF74F2081BB
:102950003181D101A20FB31FA259BF4F8C91B90190
:102960006F5F7F4F71836083D2011C928823E1F0F7
:10297000813009F0C5C040917A0EDB01A259BF4FEA
:10298000A20DB31D8D919D910D90BC91A02D2B5F3B
:102990003F4F31832083F10134E0439FE00DF11D6F
:1029A0001124EC57F74FA4C040915F0EDB01A259F0
:1029B000BF4FA20DB31D8D919D910D90BC91A02D87
:1029C0002B5F3F4F31832083F10124E0429FE00DD4
:1029D000F11D1124E459F74F8BC0FC01E05CF74F67
:1029E00080819181019709F0E8CCF101EB5BF74F11
:1029F00080819181D101A80FB91FA259BF4F2C919D
:102A0000019691838083223008F07AC0F20110820F
:102A10003BE1239FF0011124E25AF14FE181C10112
:102A20008C59974FF0E0213011F0359601C03D965A
:102A3000EE0FFF1FEE0FFF1FE80FF91F808191813E
:102A4000A281B38189839A83AB83BC8344E050E045
:102A5000D8C1F101E05CF74F80819181059709F0C1
:102A6000ACCCF101EB5BF74F20813181D101A20F9A
:102A7000B31FA259BF4F8C91B9016F5F7F4F718314
:102A80006083D2011C928823D9F08130C9F540912E
:102A90007A0EDB01A259BF4FA20DB31D8D919D91FE
:102AA0000D90BC91A02D2B5F3F4F31832083F1010E
:102AB00034E0439FE00DF11D1124E856F74F18C094
:102AC00040915F0ED901A159BF4FA20DB31D8D9149
:102AD0009D910D90BC91A02D2B5F3F4F31832083A2
:102AE000F10124E0429FE00DF11D1124E858F74F59
:102AF00080839183A283B383C1010E94500CA8C13B
:102B000085E0C5C1F101E05CF74F80819181892B9F
:102B100009F053CCF201108244E050E0B101615A57
:102B2000774F72C1FC01E05CF74F8081918104977F
:102B300009F043CCD101AB5BB74F8D919C911197BC
:102B4000FC01E259FF4FE20DF31DC080D180E2800D
:102B5000F38004968D939C9320E030E0A901C70197
:102B6000B6010E9484381816DCF4F101ED59F74FD4
:102B70008081882341F0F101E15AF74FC082D18270
:102B8000E282F38263C1D101A455B74FCD92DD92A9
:102B9000ED92FC9213971082C1010E94500C56C115
:102BA00088E0F201808354C180819181892B09F0F2
:102BB00004CCD2011C9211E020E030E0A901F10127
:102BC000E455F74F60817181828193810E94F536CF
:102BD00018160CF410E0198312C1808191810197BD
:102BE00009F0EBCBF101EB5BF74F80819181D101D3
:102BF000A80FB91FA259BF4F2C91019691838083D2
:102C0000F101E455F74F222329F01082118212823C
:102C100013820CC0D101A15AB74F8D919D910D9097
:102C2000BC91A02D80839183A283B383C1010E94B4
:102C3000500CF20110820CC1FC01E05CF74F0081E6
:102C400011810A30110508F4B8CBFC01EB5BF74F9A
:102C500080819181DC01A259BF4FA20DB31D2D913E
:102C60003D914D915C912E833F83488759879C010C
:102C70002C5F3F4F31832083DC01AE58BF4FA20D44
:102C8000B31D6D907C90DC01AC58BF4FA20DB31DFD
:102C90002D913D914D915C912E873F87488B598BAB
:102CA000D101A80FB91FA858BF4FFC900B96918374
:102CB00080830B30110559F0F101EC5AF74F8081F8
:102CC00091810B960817190711F086E0E0C0BDE46A
:102CD0006B16B1E07B06C0F420E030E04AE754E434
:102CE0006E817F81888599850E94F93620E030E4E5
:102CF0004CE157E40E94883820E030E040E855E499
:102D00000E94F53687FDC6C081E0C1C0FC01E05CD1
:102D1000F74F80819181892B09F04FCBF20110820E
:102D200061E0C1010E94730C93C080819181892B65
:102D300009F043CBD2011C9282E030C080819181A6
:102D4000892B09F03ACBF2011082F101EE5AF74FCC
:102D500024C080819181019709F02FCBF101EB5BB9
:102D6000F74F80819181D101A80FB91FA259BF4FA0
:102D70002C91019691838083F101EE5AF74F26C082
:102D8000FC01E05CF74F80819181892B09F015CB24
:102D9000F2011082F101ED5AF74F808189832FC033
:102DA00080819181019709F008CBF101EB5BF74F2E
:102DB00080819181D101A80FB91FA259BF4F2C91D9
:102DC000019691838083F101ED5AF74F222319F088
:102DD00081E080833BC0108239C0FC01E05CF74F8A
:102DE00080819181892B09F0E8CAF201108282E08A
:102DF0000E94642C21E0892B09F020E0298341E026
:102E000050E0BE016F5F7F4FC1010E94DC1820C0FF
:102E1000FC01E05CF74F80819181019709F0CDCAF8
:102E2000F101EB5BF74F80819181D101A80FB91FB0
:102E3000A259BF4F2C91019691838083222311F0D8
:102E400060E001C061E082E00E942E2CD2011C9261
:102E50006B2DC1010E94881BF201808161960FB623
:102E6000F894DEBF0FBECDBFDF91CF911F910F91C0
:102E7000FF90EF90DF90CF90BF90AF909F908F909A
:102E80007F906F905F904F903F902F900895D20168
:102E90008C93DECFD2011C92F101EC5AF74F808166
:102EA00091810B960817190719F4C1010E94C30AF2
:102EB0000E94932D6A877B878C879D8788248394C3
:102EC000F1FE812CAA24A394F0FEA12CF101E55A75
:102ED000F74FC080D180E280F3800E851F8528895E
:102EE0003989A3016E817F81888599850E94B626E4
:102EF0000E94932D2A853B854C855D85621B730B53
:102F0000840B950B0E9492376B017C01B30180E02A
:102F100090E00E94923720E030E04AE754E40E94BB
:102F200088389B01AC01C701B6010E94F93669835C
:102F30007A838B839C838ACDCF93DF93EC010E94AD
:102F40004F1860E0CE01DF91CF910C94730C86276F
:102F5000682F62956827062E669566956025062E71
:102F6000669560256770082E892F6695079467958A
:102F7000902D862706946795902586270895CF92F1
:102F8000DF92EF92FF920F931F93CF93DF9300D0C6
:102F90001F92CDB7DEB78C01CE0101966C019FE088
:102FA000E92EF12CD801ED91FC910088F189E02DFA
:102FB000B701C8011995F60181936F01FFEFEF1A70
:102FC000FF0A23E1E216F10469F789819A81AB8156
:102FD000BC818F3F9F4FAF4FBF4FD9F149815A817D
:102FE0006B817C8188E09FE00E94E6308AE79DE06B
:102FF0000E94F7030E942E030E94140A08591F4FD3
:10300000D8016D937D938D939C93139767E474E03F
:1030100088E09FE00E941033F80140815181628175
:10302000738122E030E088E09FE00E94343569E55A
:1030300074E088E09FE00F900F900F900F90DF9169
:10304000CF911F910F91FF90EF90DF90CF900C9454
:103050002D3340E052EC61E070E049835A836B838A
:103060007C83CE0101966C018FE0E82EF12CD60115
:103070004D916D01D801ED91FC910288F389E02D0D
:10308000B701C8011995BFEFEB1AFB0AE3E1EE1691
:10309000F10469F7A3CF89E79DE00C94270389E742
:1030A0009DE00C942A0308958F929F92AF92BF9255
:1030B000CF92DF92EF92FF920F931F93CF93DF9304
:1030C0002BE734E0FC0131832083E45BF74F60831E
:1030D000FC01ED5BF74F11821082FC01E75BF74FBB
:1030E0001082FC01E05CF74F11821082FC01EB5B67
:1030F000F74F11821082FC01E95BF74F11821082B9
:10310000FC01EF5AF74F1082E12CF12C00E010E0A7
:10311000B80189E79DE00E942703A82EB801695FE6
:103120007F4F89E79DE00E9427038E2CC0E0D0E00E
:10313000B12CA094B094C82ED12CC094D094CE01C0
:103140008E0D9F1DC697C4F4B5010C2E02C0759557
:1031500067950A94E2F761709C2E980C892D0E9465
:10316000F52BB6010C2E02C0759567950A94E2F70F
:103170006170892D0E942E2C2196C830D105F9F658
:103180000F5F1F4FE8E0EE0EF11C0730110509F04C
:10319000BFCFDF91CF911F910F91FF90EF90DF9004
:1031A000CF90BF90AF909F908F9008952BE734E021
:1031B000FC013183208308951F93CF93DF93FB019C
:1031C00020E030E0DC01A95BB74F2417350781F020
:1031D0001191BC01620F731FCD91DC9111976C0F9F
:1031E0007D1FEB01C259DF4F18832F5F3F4FEDCF9B
:1031F0008D919C911197820F931F8D939C93DF91DA
:10320000CF911F910895CF93DF93FC01E359FF4FB6
:103210006081DC01A459BF4F67FF0EC020E8260F74
:10322000208322E02C93DC01ED91FC910488F58948
:10323000E02DDF91CF911994FC01E05CF74F2081E4
:10324000318121503109820F931FEC01C259DF4FA8
:1032500088818C9331832083DF91CF9108956F9281
:103260007F928F929F92AF92BF92CF92DF92EF9216
:10327000FF920F931F93CF93DF93EC019C01275B89
:10328000374F59016D3721F481E0F9018083B5C0D2
:10329000F90180819E012D5B374F7901882309F464
:1032A000A5C080E26827F701808191819E01245B9F
:1032B000374F4901FE01EE5BF74F6F018E01005C55
:1032C000174F009771F4FE01E359FF4F6083F90136
:1032D00080818823B9F18FEF9FEFFE01E15BF74F0B
:1032E0001EC08130910581F467FF08C083E08083B0
:1032F000862F8F77F8011082818324C082E080833B
:10330000862F90E0F8010BC08230910559F420819E
:10331000233041F4F80180819181860F911D9183C2
:10332000808310C0F6012081821B9109F801208161
:1033300031818217930730F48C0F9D1FFC01E259F5
:10334000FF4F6083F4018081882369F03E01F1EB37
:103350006F1AF7EF7F0AF301808191810E94A7170E
:10336000F30191838083F701208131812F5F3F4FEB
:1033700031832083F4014081F6015081F80180817E
:103380009181850F911D840F911D840F911D281728
:10339000390731F5F70111821082FE01EB5BF74F1F
:1033A00011821082FE01E95BF74F118210824423E3
:1033B00039F0FE01E15BF74F80819181892B19F48F
:1033C000CE010E940319FE01E55BF74F808188233F
:1033D00039F0C359DF4F80589881981301C010828B
:1033E000F5018081882349F0108207C06E3709F00B
:1033F0005ACFF70111821082F3CFDF91CF911F9145
:103400000F91FF90EF90DF90CF90BF90AF909F9083
:103410008F907F906F900895CF93C8E06C2F8AE7CC
:103420009DE00E9414048AE79DE00E94330481110C
:1034300026C06CE574E088E09FE00E9410334AE00B
:1034400050E06C2F88E09FE00E940F3460E774E04A
:1034500088E09FE00E94103340E150E06C2F88E04C
:103460009FE00E940F3465E774E088E09FE00E94CF
:103470002D3361E070E080E090E00E94B62DCF5FD8
:10348000C83761F6CF910895CF93C62F83E8860F92
:10349000823090F46DE788E09FE00E94A32EE091D7
:1034A000080FF091090F60E26C270190F081E02D88
:1034B00088E09FE0CF91199488E09FE0CF910C9431
:1034C000A32E8F929F92AF92BF92CF92DF92EF92F4
:1034D000FF920F931F93CF93DF93EC018C017C013C
:1034E00020ECE21A27EFF20A845B974F6C015E0131
:1034F00093EBA91A97EFB90AF7018081918198019E
:103500002C1B3D0BF60128173907C8F48081980160
:1035100022593F4F4901882351F0F9016081F5019B
:10352000808191810E94A717F50191838083F40126
:103530006081CE010E94441A0F5F1F4FDDCF808152
:10354000882369F08E01035B174FF8016081CE017B
:103550000E94441AF8016181CE010E94441AF701C9
:1035600011821082C95BD74F19821882DF91CF91E7
:103570001F910F91FF90EF90DF90CF90BF90AF9091
:103580009F908F900895BF92CF92DF92EF92FF921B
:103590000F931F93CF93DF93EC01B62E8C01005C49
:1035A000174FFC01E95BF74F80819181F80191830E
:1035B00080836EE788E09FE00E94A32E7E01F4EBFB
:1035C000EF1AF7EFFF0AF7018081882381F08FEF70
:1035D0009FEF6E01F3EBCF1AF7EFDF0AF60191834D
:1035E00080836B2D0E94A717F601918380836B2D3A
:1035F000CE010E94441AF80160817181F701808137
:103600006038710580F4882371F17E01F3EBEF1AC5
:10361000F7EFFF0AF701808191810E94A717F70158
:103620009183808320C08823B1F07068672F7E016A
:10363000F3EBEF1AF7EFFF0AF701808191810E9407
:10364000A717F70191838083F80160810E94A71773
:10365000F70191838083F801808191819068692FBF
:10366000CE010E94441AF8016081CE01DF91CF9112
:103670001F910F91FF90EF90DF90CF90BF900C942F
:10368000441A0F931F93CF93DF931F92CDB7DEB7EA
:103690008C01698341E050E0BE016F5F7F4F0E9463
:1036A000DC18F801E359FF4F6081C8010E94C31A7A
:1036B000C8010E94611A0F90DF91CF911F910F9165
:1036C0000895FF920F931F93CF93DF938A01422FA8
:1036D0008AE79DE00E940E04C0E08AE79DE00E9418
:1036E0006003892B71F0FF24F394FC0EC8018C0F4A
:1036F000911DEC018AE79DE00E9468038883CF2D2D
:10370000ECCF8C2FDF91CF911F910F91FF900895F7
:103710002F923F924F925F926F927F928F929F92E1
:10372000AF92BF92CF92DF92EF92FF920F931F93CF
:10373000CF93DF93CDB7DEB769970FB6F894DEBFAE
:103740000FBECDBF8C012DB63EB6862F90E0FC019A
:10375000E058F109EE31F10508F024C5EE58FF4FAD
:103760009801205C374F79010C948C39D9018D91E7
:103770009C91892BF1F4D801ED91FC910280F381A9
:10378000E02DC8011995FC0101900020E9F7AF0177
:1037900041505109481B590BD801ED91FC91028011
:1037A000F381E02D27C0D9018D919C91029709F4F6
:1037B000B8C486E0F801E459FF4FE0C4F901808104
:1037C0009181892BB1F7D801ED91FC910480F581AD
:1037D000E02DC8011995FC0101900020E9F7AF0127
:1037E00041505109481B590BD801ED91FC910480BF
:1037F000F581E02DC801498F588F1995498D588D55
:10380000BC01C9C4F90180819181892B91F6D8014D
:10381000ED91FC910680F781E02DC8011995FC011E
:1038200001900020E9F7AF0141505109481B590BA5
:10383000D801ED91FC910680F781E02DDBCFF901F5
:1038400080819181892B09F0B4CFD801ED91FC9151
:103850000084F185E02DC8011995FC01019000203C
:10386000E9F7AF0141505109481B590BD801ED91BF
:10387000FC910084F185E02DBDCFF901808191811B
:10388000892B09F096CFD801ED91FC910284F38544
:10389000E02DC8011995FC0101900020E9F7AF0166
:1038A00041505109481B590BD801ED91FC910284FC
:1038B000F385E02D9FCFF90180819181892B09F05B
:1038C00078CFD801ED91FC910484F585E02DC801F5
:1038D0001995FC0101900020E9F7AF014150510911
:1038E000481B590BD801ED91FC910484F585E02D1E
:1038F00081CFF90180819181892B09F05ACFD801BC
:10390000ED91FC910684F785E02DC8011995FC0125
:1039100001900020E9F7AF0141505109481B590BB4
:10392000D801ED91FC910684F785E02D63CFF90174
:1039300080819181892B09F03CCF4AE050E061E918
:1039400074E029C4D9018D919C91029709F031CF7F
:10395000F801EB5BF74F20813181A801420F531F23
:10396000DA01A259BF4F8C91DA01A159BF4F6C9176
:103970002E5F3F4F318320830E94F52B0FC4F90146
:1039800080819181029709F014CFF801EB5BF74F2A
:1039900020813181A801420F531FDA01A259BF4F84
:1039A0008C91DA01A159BF4F6C912E5F3F4F31834B
:1039B00020830E942E2CF2C3D9018D919C910197F6
:1039C00009F0F7CEF801EB5BF74F20813181D80188
:1039D000A20FB31FA259BF4F8C912F5F3F4F31836E
:1039E00020830E94642C49C3F90180819181029750
:1039F00009F0DFCEF801EB5BF74F20813181D80170
:103A0000A20FB31FA259BF4F8C91A9014F5F5F4F07
:103A100051834083D901A159BF4FA00FB11F6D91B0
:103A20007C912D5F3F4F318320830E948D2CB6C344
:103A3000C80184599F4F26E0DC012C93F7012081B7
:103A400031812230310508F4ADC38DB69EB6F80140
:103A5000EB5BF74F40815181D801A40FB51FA259EC
:103A6000BF4F6C914F5F5F4F51834083462F50E0B3
:103A7000ADB7BEB7A41BB50B0FB6F894BEBF0FBE53
:103A8000ADBF11966D012230310511F4613031F076
:103A90004D5F5F4F2417350709F0D3C07C2D5601C9
:103AA0002A2D271B261788F420813181A801420F77
:103AB000531F42595F4FDA014C912F5F3F4F3183C3
:103AC0002083D5014D935D01EBCFD7012D913C9122
:103AD00022303105B1F020813181D901A259BF4F87
:103AE000A00FB11FAD90BC902E5F3F4F318320835C
:103AF000B9EEAB16B3E0BB0638F029E0FC01208339
:103B0000A0C0AA24A394B12CDC011C92B092570E41
:103B1000A092560EC80182599F4F90935B0E8093DE
:103B20005A0E80E0688F0E94D208688D613029F4B7
:103B3000F60180810E949F0912C0D092540EC0925B
:103B4000530E6093510E1092500E80EB99E09093BB
:103B50004F0E80934E0ED6018C910E9485091092D3
:103B6000590E1092580E8091550E0E94EB080E943B
:103B7000932D6093400E7093410E8093420E90936C
:103B8000430E80917A00886C80937A000E94E70847
:103B9000863011F40E94C4088091560E9091570E01
:103BA0002091580E3091590E28173907C9F70E94F5
:103BB000932D2B013C0180917A00877D80937A00C0
:103BC0000E94E708863011F40E94BE086091560EEC
:103BD0007091570E80E090E00E94923720E034E22E
:103BE00044E759E40E9488386B017C018091400EC3
:103BF0009091410EA091420EB091430EA30192010B
:103C0000281B390B4A0B5B0BCA01B9010E94923782
:103C10009B01AC01C701B6010E94F9366093440EC6
:103C20007093450E8093460E9093470EAA0CBB1CD2
:103C3000F801E95BF74F80819181A80EB91EB1822E
:103C4000A0820FB6F8949EBE0FBE8DBEABC2D90146
:103C50008D919C91039709F0ACCDD801AB5BB74F28
:103C60008D919C911197FC01E259FF4FE00FF11FDC
:103C700060817181F801E80FF91FE059FF4F408121
:103C800003968D939C93D801ED91FC910288F38962
:103C9000E02DC801199582C2F901808191810297B6
:103CA00009F087CDD801AB5BB74F8D919C911197EF
:103CB000FC01E259FF4FE00FF11F60817181029614
:103CC0008D939C93D801ED91FC910088F189E02DB2
:103CD000C8011995D2C1F90180819181029709F03B
:103CE00068CDF801EB5BF74F808191819801280F37
:103CF000391FD901A259BF4F6C91D901A159BF4FAA
:103D0000EC90029691838083CE0101960E947F07FA
:103D1000CE0101960E946D07F12CBE01615F7F4FBD
:103D2000CE0101960E94A207F394EF14B0F7980118
:103D300024593F4F7901882309F41EC248E050E01E
:103D4000BE01615F7F4FC8010E94DC1812C2D90119
:103D50008D919C910B9709F02CCDD801AB5BB74F9F
:103D60002D913C911197A801420F531FFA01E2597E
:103D7000FF4F60816901EFEFCE1ADE0A1196DC92E7
:103D8000CE924E01FFE08F0E911C80E090E0B82CA7
:103D9000A92CC00ED11E7601E80EF91E7EE6E70EB4
:103DA000F11CF701F080F401F1924F010196883087
:103DB000910589F7FA01E958FF4FF080FA01E858B8
:103DC000FF4FE080255F3F4F2D933C93CE0101963E
:103DD0000E947F07CE0101960E9449066B2D7A2D25
:103DE000CE0101960E94450740E06F2DCE0101965D
:103DF0000E94E606F12CFE1409F4D0C1CE01019612
:103E00000E9428078F8B41E050E0BE01695E7F4F22
:103E1000C8010E94DC18F394EECFD9018D919C91DA
:103E20000B9709F0C6CCD801AB5BB74F2D913C91F5
:103E30001197A801420F531FFA01E259FF4F608109
:103E40006901EFEFCE1ADE0A1196DC92CE924E0196
:103E5000FFE08F0E911C80E090E0B82CA92CC00EE2
:103E6000D11E7601E80EF91E7EE6E70EF11CF70181
:103E7000F080F401F1924F0101968830910589F7A5
:103E8000FA01E958FF4FF080FA01E858FF4F4081EE
:103E9000255F3F4F2D933C93CE010196498F0E94A1
:103EA0007F07CE0101960E9449066B2D7A2DCE0127
:103EB00001960E944507498D6F2DCE0101960E9403
:103EC000E6066CC1D9018D919C91029709F071CCE5
:103ED000F801EB5BF74F808191819801280F391F22
:103EE000D901A259BF4F6C91D901A159BF4FEC9094
:103EF0000296918380834E2D8AE79DE00E940E04F6
:103F0000F12C8AE79DE00E946003892B79F08AE713
:103F10009DE00E946803898341E050E0BE016F5F2D
:103F20007F4FC8010E94DC18F394EBCFF801E459ED
:103F3000FF4FFE1409F435C181E020C1F9018081F1
:103F40009181029708F435CC6801FBEBCF1AF7EFAB
:103F5000DF0AD6018D919C911197F801E80FF91FA6
:103F6000E259FF4F608101968D939C938AE79DE013
:103F70000E941404B12C2B2D30E0F7018081918137
:103F800001972817390798F4F60180819181F8018B
:103F9000E80FF91FE259FF4F60810196D6018D931A
:103FA0009C938AE79DE00E94B803B394E4CF8AE72C
:103FB0009DE00E943304F2C0D9018D919C9101973C
:103FC00009F0F7CBF801EB5BF74F20813181D80185
:103FD000A20FB31FA259BF4F8C912F5F3F4F318368
:103FE00020830E944403DAC0F90180819181019706
:103FF00009F0DFCBF801EB5BF74F20813181D8016D
:10400000A20FB31FA259BF4F8C912F5F3F4F318337
:1040100020830E945203C2C0D9018D919C910197C7
:1040200009F0C7CBF801EB5BF74F20813181D80154
:10403000A20FB31FA259BF4F8C912F5F3F4F318307
:1040400020830E944D03AAC0F901808191810197CC
:1040500009F0AFCBF801EB5BF74F80819181D8017C
:10406000A80FB91FA259BF4F2C910196918380834D
:104070002EBD0DB407FEFDCF8EB5898341E050E023
:104080004CC0D9018D919C91892B09F092CBF801FC
:10409000EA59FF4F40815181B8016E5F7F4F7BC06D
:1040A000F90180819181892B09F083CB8091480EA1
:1040B0009091490EA0914A0EB0914B0E89839A833C
:1040C000AB83BC8344E050E028C0D9018D919C9122
:1040D000049709F06ECBD801AB5BB74F2D913C91A3
:1040E0001197F901E259FF4FE00FF11F60817181D3
:1040F000828193812C5F3F4F2D933C930E94F9085E
:104100004DC0F90180819181892B09F052CB0E9429
:10411000B9089A83898342E050E0BE016F5F7F4F08
:104120003AC0D801AB5BB74F2D913C911197F90183
:10413000E259FF4FE00FF11F808191812E5F3F4FC9
:104140002D933C939C0122503109F801E459FF4F13
:104150007F012630310580F490917A00987F90930A
:104160007A0090917A00982B90937A0080E00E94D8
:10417000EB08D7011C9216C085E0F701808312C0BE
:10418000D9018D919C91892B09F013CB44E050E02B
:10419000B80168597F4FC8010E94DC18F801E45942
:1041A000FF4F10827801BCE6EB0EF11CF701608135
:1041B000C8010E94411BD7018C910FB6F8943EBEF6
:1041C0000FBE2DBE69960FB6F894DEBF0FBECDBFF1
:1041D000DF91CF911F910F91FF90EF90DF90CF90E3
:1041E000BF90AF909F908F907F906F905F904F9017
:1041F0003F902F900895CF93DF931F92CDB7DEB7F6
:104200008AE79DE049830E9414044981642F8AE76C
:104210009DE00E94B8038AE79DE00F90DF91CF9167
:104220000C943304EF92FF920F931F93CF93DF937D
:104230001F921F92CDB7DEB7122F8AE79DE0498308
:104240005A830E9414044981042FE42E5A81F52ECA
:104250008E2D801B811740F4F70161917F018AE761
:104260009DE00E94B803F4CF8AE79DE00F900F9085
:10427000DF91CF911F910F91FF90EF900C94330439
:10428000CF93DF93EC0188E09FE00E94492E18163F
:1042900019064CF488E09FE00E94762E682FCE012C
:1042A0000E942F19F0CFDF91CF9108951092590EEF
:1042B0001092580E8091550E0E94EB080E94932D8B
:1042C0006093400E7093410E8093420E9093430E84
:1042D00080917A00886C80937A000E94E70886308B
:1042E00011F40C94C40808958F929F92AF92BF92DC
:1042F000CF92DF92EF92FF920E94932D4B015C01CF
:1043000080917A00877D80937A000E94E70886304A
:1043100011F40E94BE086091560E7091570E80E015
:1043200090E00E94923720E034E244E759E40E9492
:1043300088386B017C018091400E9091410EA091D4
:10434000420EB091430EA5019401281B390B4A0B74
:104350005B0BCA01B9010E9492379B01AC01C701F6
:10436000B6010E94F9366093440E7093450E809317
:10437000460E9093470EFF90EF90DF90CF90BF9046
:10438000AF909F908F900895CF93DF93D82FC62F33
:10439000811116C0613041F028F0623009F058C038
:1043A00060E009C061E007C060E088E00E942E2C58
:1043B00061E089E02BC088E00E942E2C60E0F9CFFC
:1043C000813009F045C0623099F050F4662371F0F5
:1043D0006130F1F560E08AE00E942E2C61E033C08C
:1043E0006330F9F06430A1F560E029C061E027C0D6
:1043F00060E08AE00E942E2C60E08BE00E942E2C70
:1044000061E08CE00E942E2C60E08DE00E942E2C5A
:104410008BE1D89FF0011124E25AF14FC18380E073
:1044200018C060E08AE00E942E2C60E08BE00E94C1
:104430002E2C60E08CE00E942E2C61E0E6CF8AE01A
:104440000E942E2C60E08BE00E942E2C60E0D9CFE1
:1044500085E0DF91CF9108959093960E8093950E0D
:1044600060935E0E4093790E60E078EB88E097E40D
:104470000E94F90861E088E00E94F52B61E089E084
:104480000E94F52B61E08AE00E94F52B61E08BE051
:104490000E94F52B61E08CE00E94F52B61E08DE03D
:1044A0000E94F52BEAE7F0E08081887F808380819D
:1044B0008360808360E080E00E94C42160E081E04E
:1044C0000E94C42120E032E03093740E2093730EDA
:1044D00080E090E0A0E0B4E48093750E9093760EB7
:1044E000A093770EB093780E41E040936E0E309318
:1044F0008F0E20938E0E8093900E9093910EA0932A
:10450000920EB093930E4093890E08950F931F93CC
:10451000CF93DF93AB019BE1899FE0011124C25A45
:10452000D14F9B01235331092A39334090F09B81AD
:1045300091110CC09A819F5F9A836981662319F05B
:1045400061500E94C42183E08B8337C091509B83CC
:1045500034C08091940E882309F18D899E89DB01F6
:10456000A81BB90B9D010E94383909891A892B892A
:104570003C89060F171F281F391F098B1A8B2B8B9D
:104580003C8B88859985AA85BB85840F951FA11DC5
:10459000B11D88879987AA87BB870FC08C819D81B1
:1045A0008617970718F47D836C8307C08E819F81DF
:1045B0006817790710F47F836E83DF91CF911F9185
:1045C0000F91089580E00C94862281E00C9486225D
:1045D0002F923F924F925F926F927F928F929F9213
:1045E000AF92BF92CF92DF92EF92FF920F931F9301
:1045F000CF93DF93CDB7DEB764970FB6F894DEBFE5
:104600000FBECDBF29013A01E986FA860B871C87C8
:104610001601BA8AA98A0E94883820E030E04AE769
:1046200054E40E94F9369B01AC010E947E366B0176
:104630007C0120E030E0A9010E94843820E030E0D5
:1046400040E05FE387FD05C0C701B6010E947E36EA
:1046500004C0C701B6010E947D360E9461370E94E6
:10466000943720E030E040E05FE30E9488386D83BB
:104670007E838F839887A30192016D817E818F81D4
:1046800098850E94F93629853A854B855C850E947C
:1046900088380E94E2360E9466378B01023011058D
:1046A00008F42DC3B80180E090E00E9492372D817C
:1046B0003E814F8158850E94F936A30192010E94E4
:1046C000883869837A838B839C83D1016D937D9332
:1046D0008D939C93139729853A854B855C850E9421
:1046E000843818160CF408C3A301920169817A81F9
:1046F0008B819C810E94F9366B017C019B01AC018E
:1047000060E070E080E090E40E94F9364B015C01CB
:1047100020E030E0A9010E94843820E030E040E051
:104720005FE387FD05C0C501B4010E947E3604C069
:10473000C501B4010E947D360E9461370E94943702
:10474000A70196010E9488389B01AC0160E070E0EF
:1047500080E090E40E947D3620E030E0A9010E94D4
:10476000843820E030E0A901181664F5C501B401D1
:104770000E94843820E030E040E05FE387FD05C020
:10478000C501B4010E947E3604C0C501B4010E9477
:104790007D360E9461370E949437A70196010E94DE
:1047A00088389B01AC0160E070E080E090E40E94FA
:1047B0007D362DEC3CEC4CEC5DE30E94F53687FD3C
:1047C0009BC22CC0C501B4010E94843820E030E0B7
:1047D00040E05FE387FD05C0C501B4010E947E365D
:1047E00004C0C501B4010E947D360E9461370E9459
:1047F0009437A70196010E9488389B01AC0160E0C4
:1048000070E080E090E40E947D362DEC3CEC4CECB6
:104810005DEB0E94843818160CF46EC2A30192015D
:10482000C301B2010E947E369B01AC0169817A818D
:104830008B819C810E94F53687FF61C129813A8175
:104840004B815C81C301B2010E94F9366D877E877E
:104850008F87988B1C8A1B8AEB89FC89BF0180E0BB
:1048600090E00E9492374B015C019B01AC016D8589
:104870007E858F8598890E947D3620E030E040E07B
:104880005FE30E94F53618163CF42B893C892F5FB4
:104890003F4F3C8B2B8BE0CF29813A814B815C8150
:1048A000C501B4010E9488389B01AC01C301B2016B
:1048B0000E947D364B015C0120E030E0A9010E949E
:1048C0008438181624F0B7FAB094B7F8B094A5015C
:1048D000940169817A818B819C810E94F936698378
:1048E0007A838B839C839B01AC0160E070E080E065
:1048F00090E40E94F9364B015C0120E030E0A90110
:104900000E94843820E030E040E05FE387FD05C08E
:10491000C501B4010E947E3604C0C501B4010E94E5
:104920007D360E9461370E94943729813A814B81FC
:104930005C810E9488389B01AC0160E070E080E0FF
:1049400090E40E947D3620E030E0A9010E94843886
:1049500020E030E0A901181674F5C501B4010E94E9
:10496000843820E030E040E05FE387FD05C0C5010A
:10497000B4010E947E3604C0C501B4010E947D3698
:104980000E9461370E94943729813A814B815C8172
:104990000E9488389B01AC0160E070E080E090E408
:1049A0000E947D362DEC3CEC4CEC5DE30E94F5362C
:1049B00087FF2FC0A1C1C501B4010E94843820E047
:1049C00030E040E05FE387FD05C0C501B4010E940F
:1049D0007E3604C0C501B4010E947D360E94613755
:1049E0000E94943729813A814B815C810E948838EA
:1049F0009B01AC0160E070E080E090E40E947D36B5
:104A00002DEC3CEC4CEC5DEB0E94843818160CF459
:104A100073C120E030E0A901C701B6010E948438CB
:104A200020E030E040E05FE387FD05C0C701B6014C
:104A30000E947E3604C0C701B6010E947D360E94E6
:104A400061370E9494379B01AC01C701B6010E94F7
:104A50007D3620E030E0A9010E94843820E030E07B
:104A6000A901181634F5C701B6010E94843820E068
:104A700030E040E05FE387FD05C0C701B6010E945A
:104A80007E3604C0C701B6010E947D360E946137A0
:104A90000E9494379B01AC01C701B6010E947D368C
:104AA00027E137EB41ED58E30E94F53687FF27C039
:104AB00023C1C701B6010E94843820E030E040E005
:104AC0005FE387FD05C0C701B6010E947E3604C0C2
:104AD000C701B6010E947D360E9461370E9494375B
:104AE0009B01AC01C701B6010E947D3627E137EB7F
:104AF00041ED58EB0E94843818160CF4FDC020E0FC
:104B000030E040E251E4C701B6010E94F53687FF6C
:104B100076C020E030E0A901C701B6010E948438C8
:104B200020E030E040E05FE387FD05C0C701B6014B
:104B30000E947E3604C0C701B6010E947D360E94E5
:104B400061370E9494379B01AC01C701B6010E94F6
:104B50007D3620E030E0A9010E94843820E030E07A
:104B6000A901181634F5C701B6010E94843820E067
:104B700030E040E05FE387FD05C0C701B6010E9459
:104B80007E3604C0C701B6010E947D360E9461379F
:104B90000E9494379B01AC01C701B6010E947D368B
:104BA00027E137EB41ED58E30E94F53687FF27C038
:104BB000A3C0C701B6010E94843820E030E040E085
:104BC0005FE387FD05C0C701B6010E947E3604C0C1
:104BD000C701B6010E947D360E9461370E9494375A
:104BE0009B01AC01C701B6010E947D3627E137EB7E
:104BF00041ED58EB0E94843818160CF47DC02D81CD
:104C00003E814F815885C701B6010E9488386B01EB
:104C10007C0120E030E0A9010E94843820E030E0EF
:104C200040E05FE387FD05C0C701B6010E947E3604
:104C300004C0C701B6010E947D360E9461370E9400
:104C400094379B01AC01C701B6010E947D3620E07C
:104C500030E0A9010E94843820E030E0A901181654
:104C600034F5C701B6010E94843820E030E040E00E
:104C70005FE387FD05C0C701B6010E947E3604C010
:104C8000C701B6010E947D360E9461370E949437A9
:104C90009B01AC01C701B6010E947D3627E137EBCD
:104CA00041ED58E30E94F53687FF26C033C0C701A7
:104CB000B6010E94843820E030E040E05FE387FDE9
:104CC00005C0C701B6010E947E3604C0C701B60107
:104CD0000E947D360E9461370E9494379B01AC018F
:104CE000C701B6010E947D3627E137EB41ED58EB55
:104CF0000E948438181674F001501109CFCC20E0BE
:104D000030E040E05FE36D817E818F8198850E9475
:104D10007E36ADCCA989BA890D931C9364960FB6E3
:104D2000F894DEBF0FBECDBFDF91CF911F910F91E1
:104D3000FF90EF90DF90CF90BF90AF909F908F90BB
:104D40007F906F905F904F903F902F9008958BE1F0
:104D5000EEE5FEE0DF01982F1D929A95E9F7E9E76D
:104D6000FEE0DF011D928A95E9F708952F923F92A8
:104D70004F925F926F927F928F929F92AF92BF926B
:104D8000CF92DF92EF92FF920F931F93CF93DF9317
:104D9000CDB7DEB7C65ED1090FB6F894DEBF0FBE41
:104DA000CDBFC252DF4F59834883CE5DD040CE5134
:104DB000DF4F088319832A833B83C25ED0402601DC
:104DC0003701CD52DF4FA882C35DD0408092940E50
:104DD000AA2031F1A7E9AA2EAEE0BA2EAE014953BE
:104DE0005F4F6A01E12C10E4F12E0CE916E4A301F7
:104DF00092010E94E822C953DF4F688179818A813C
:104E00009B81C75CD0409B01AC010E947E36C95398
:104E1000DF4F688379838A839B83C75CD04017C048
:104E200020E030E040E05FE30E948838E7E9AE2E02
:104E3000EEE0BE2EDE01A953BF4F6D01E12C10E460
:104E4000F12E0CE117E4A30192010E94E822809167
:104E5000970E9091980E880F991F9093980E8093BB
:104E6000970EC953DF4F688179818A819B81C75C26
:104E7000D0400E94F908B0915F0EC052DF4FB88356
:104E8000C05ED04012E0C353DF4F1883CD5CD040EA
:104E900062E080E00E94C421E0917A0ECF51DF4FA2
:104EA000E883C15ED04084E0C253DF4F8883CE5C8C
:104EB000D04064E081E00E94C42180915E0EFE013A
:104EC000E553FF4F80839091790E91832091970E47
:104ED0003091980ECD52DF4F4881C35DD0404423BE
:104EE00009F13093570E2093560EF093540EE09331
:104EF000530E1093510E1092500E20EB39E0309368
:104F00004F0E20934E0E0E94850988EC99E09093F5
:104F10004F0E80934E0E86E892E290934D0E809352
:104F20004C0E06C0369527953093570E2093560E9B
:104F3000E090950EF090960EF701E859FF4F20E0B3
:104F400030EC4FE754E460817181828193810E944B
:104F5000F9362B013C018E0105541F4F1E0155E10E
:104F6000250E311CCE01825A9F4FDC011896C15389
:104F7000DF4FB983A883CF5CD040F8013C96CC5278
:104F8000DF4FF983E883C45DD040C652DF4F88838A
:104F9000CA5DD040CA51DF4F9883C65ED0409701AA
:104FA0002C59374FCF52DF4F39832883C15DD04012
:104FB000A701455A574FC852DF4F59834883C85DF0
:104FC000D04080915E0ECF52DF4FE881F981C15D04
:104FD000D040C652DF4FA881CA5DD040CA51DF4FD2
:104FE000B881C65ED0409DE501900D929A95E1F79B
:104FF000882369F08130B1F4C153DF4FE881F98132
:10500000CF5CD040208D318D428D538D0EC0C15369
:10501000DF4FA881B981CF5CD0402D913D914D915A
:105020005C9103C020E030E0A901CF52DF4FE8815E
:10503000F981C15DD040DE0111969DE501900D9290
:105040009A95E1F7882341F0813061F4F101C0A025
:10505000D1A0E2A0F3A009C0D101CD90DD90ED90E8
:10506000FC9003C0C12CD12C760160E876E988E180
:105070009BE40E94F9364B015C0120E836E948E1E7
:105080005BE4C701B6010E9488389B01AC010E9415
:105090007E362BED3FE049E450E40E948838C85248
:1050A000DF4FA881B981C85DD0402D913D914D91D0
:1050B0005C910E9488386B017C01A5019401C501B7
:1050C000B4010E9488384B015C01A7019601C70119
:1050D000B6010E9488389B01AC01C501B4010E9451
:1050E0007E360E94EF389B01AC01C301B2010E94E1
:1050F0008838F80161937193819391938F01F4E063
:105100002F0E311CC153DF4F28813981CF5CD04035
:105110002C5F3F4FC153DF4F39832883CF5CD04092
:10512000CC52DF4F48815981C45DD0400417150728
:1051300009F047CFCF52DF4F19821882C15DD040AE
:10514000CF52DF4F88819981C15DD040C252DF4F7D
:10515000A881B981CE5DD0408A179B0709F4C5C2EA
:105160008091940E1092600E1092610E81110BC00E
:10517000EFEFF3E0F093650EE093640E1092630E90
:105180001092620E10C01092660E1092670E10926E
:10519000680E1092690E10926F0E1092700E10929F
:1051A000710E1092720E10927B0E10927C0E88235C
:1051B00089F01092810E1092820E1092830E10923E
:1051C000840E10928A0E10928B0E10928C0E1092FA
:1051D0008D0E0AC08FEF93E09093800E80937F0E28
:1051E00010927E0E10927D0ECD52DF4F9881C35DDE
:1051F000D040992309F445C00E9456218091560E53
:105200009091570E2091580E3091590E281739075A
:10521000C9F70E9474210E94932DCC52DF4F6883FE
:1052200079838A839B83C45DD040A091940EC85239
:10523000DF4FA883C85DD0408091970E9091980E63
:10524000FE01E353FF4FC153DF4FF983E883CF5C87
:10525000D0400EE51EE09E012F5F3F4F2901AE01B9
:10526000425A5F4F1A01612C712C9C0140E050E0C2
:10527000C652DF4F288339834A835B83CA5DD0409F
:10528000AAC080915E0E0E949F0948EC59E050939D
:105290004F0E40934E0E82EE92E290934D0E80930D
:1052A0004C0E0E9456218091560E9091570E2091DF
:1052B000580E3091590E28173907C9F70E947421EA
:1052C0008091790E0E949F09A8ECB9E0B0934F0E2F
:1052D000A0934E0EE5EEF2E2F0934D0EE0934C0EED
:1052E0000E9456218091560E9091570E2091580E93
:1052F0003091590E28173907C9F78BCFC652DF4FA7
:10530000688179818A819B81CA5DD0400E949237F1
:105310006B017C01D80151966D917D918D919C918D
:1053200054970E9492379B01AC010E947E36A701E0
:1053300096010E94F9360E94EF38F2016083718372
:105340008283938320E030E040E852E40E94883872
:105350009B01AC010E947E3623EF34E045EB5FE316
:105360000E9488380E946637D1016D937C93F301C7
:10537000E25AF14F82818823B9F1F301E25AF14FE9
:105380008281882309F4B3C08195C153DF4FA8817E
:10539000B981CF5CD0408C93B1E0B08BC153DF4F6B
:1053A000E881F981CF5CD0403196C153DF4FF9835A
:1053B000E883CF5CD040FBE16F0E711C055E1F4F90
:1053C00022E0220E311C34E0430E511C46E36416E9
:1053D000710409F496C0C852DF4FF881C85DD0400F
:1053E000FF2309F45AC08ACF80898111C6CFF80102
:1053F00080849184A284B38464857585868597852D
:10540000680D791D8A1D9B1D0E9492372AE037ED99
:1054100043E25CE30E948838A70196010E94F936B6
:105420006B017C0124EA30E74DE75FE3D801579632
:105430006D917D918D919C915A970E9488389B0126
:10544000AC01C701B6010E947E366B017C01F801F8
:10545000678B708F818F928F20E030E0A9010E94CE
:10546000843820E030E040E05FE387FD05C0C701FD
:10547000B6010E947E3604C0C701B6010E947D3687
:105480000E946137D80156967C936E935597F80128
:1054900084869586A686B78670CFD80114966D91BE
:1054A0007C91159716968D919C911797681B790B97
:1054B00096E0660F771F9A95E1F7F101718360839B
:1054C00080E090E00E94923723EF34E045EB5FE309
:1054D0000E94F93620E030E040E05CE30E9488382A
:1054E000D2016D937D938D939C93139746CF8181C9
:1054F000C153DF4FA881B981CF5CD0408C93108A13
:105500004DCF0091950E1091960EF801ED59F74F81
:105510008081882309F44BC08091600E811147C0BF
:10552000F801E95AF74FC080D180E280F38020E093
:1055300030E0A901C701B6010E9484381816BCF5F5
:10554000C353DF4F8881CD5CD040EBEBF0E0EC0F34
:10555000FD1F24E08202E00DF11D11242081318124
:105560004281538169817A818B819C810E94883834
:105570002B013C01A70196010E947D364B015C0185
:1055800020E030E0A9010E94843818160CF485C090
:10559000C501B4019058F801E055F74F20813181E1
:1055A000428153810E94843818160CF479C00FE5AB
:1055B0001EE0CE01825A9F4F6C01E12CF12CD601E6
:1055C0008D919C91893C9C4030F4F80160816F5F23
:1055D0008E2D0E94C42142E050E0B6018091950ECC
:1055E0009091960E0E94DC186DEC70E06C0F7D1FA0
:1055F0006E0D7F1D41E050E08091950E9091960ECA
:105600000E94DC18FFEFEF1AFF0A22E0C20ED11C45
:10561000055E1F4F32E0E316F10489F688E09FE053
:105620000E94492E181619060CF45FC00E94932D93
:10563000CC52DF4F288139814A815B81C45DD040E3
:10564000621B730B840B950B0E9492376B017C01DC
:1056500020E030E04AE754E4CE51DF4F68817981A1
:105660008A819B81C25ED0400E9488389B01AC0138
:10567000C701B6010E94F53687FDD8CFCF52DF4F64
:1056800048815981C15DD0404F5F5F4FCF52DF4F9E
:1056900059834883C15DD04053CDC501B4017BCF50
:1056A000F801E15AF74F2081318142815381C301D2
:1056B000B2010E948838A70196010E94F9366B0159
:1056C0007C0120E030E040E85FE30E94F53687FF90
:1056D00006C0C12CD12C80E8E82E8FE3F82EB7014C
:1056E000A601C8010E943F0C62CFC052DF4F688103
:1056F000C05ED04080E00E94C421CF51DF4F68815E
:10570000C15ED04081E00E94C421C252DF4F888137
:105710009981CE5DD040CA51DF4F0FB6F894DEBFFD
:105720000FBECDBFDF91CF911F910F91FF90EF90F2
:10573000DF90CF90BF90AF909F908F907F906F90B1
:105740005F904F903F902F90089590E0FC0131972B
:10575000E131F10508F048C0E057FF4F0C948C3957
:10576000809180008F7703C0809180008F7D80932F
:105770008000089584B58F7702C084B58F7D84BD85
:1057800008958091B0008F7703C08091B0008F7D25
:105790008093B0000895809190008F7707C080912A
:1057A00090008F7D03C080919000877F8093900050
:1057B00008958091A0008F7707C08091A0008F7D11
:1057C00003C08091A000877F8093A00008958091FE
:1057D00020018F7707C0809120018F7D03C08091C9
:1057E0002001877F809320010895CF93DF9390E07D
:1057F000FC01E655FE4F2491FC01E051FE4F8491DF
:10580000882349F190E0880F991FFC01E659FD4F6C
:10581000A591B491805B9D4FFC01C591D4919FB738
:10582000611108C0F8948C91209582238C93888113
:1058300082230AC0623051F4F8948C91322F309553
:1058400083238C938881822B888304C0F8948C9165
:10585000822B8C939FBFDF91CF9108950F931F935D
:10586000CF93DF931F92CDB7DEB7282F30E0F90139
:10587000EC59FE4F8491F901E655FE4F1491F90160
:10588000E051FE4F04910023C9F0882321F0698381
:105890000E94A52B6981E02FF0E0EE0FFF1FE05B77
:1058A000FD4FA591B4919FB7F8948C91611103C0FD
:1058B0001095812301C0812B8C939FBF0F90DF91A6
:1058C000CF911F910F910895CF93DF93282F30E050
:1058D000F901EC59FE4F8491F901E655FE4FD49140
:1058E000F901E051FE4FC491CC2391F081110E9447
:1058F000A52BEC2FF0E0EE0FFF1FEA5CFD4FA5910A
:10590000B4912C912D2381E090E021F480E002C03D
:1059100080E090E0DF91CF9108951F93CF93DF93C4
:10592000182FEB0161E00E94F52B209711F460E045
:1059300004C0CF3FD10539F461E0812FDF91CF91D1
:105940001F910C942E2CE12FF0E0EC59FE4F449166
:1059500050E0FA013197E131F10508F091C0EF55BF
:10596000FF4F0C948C3984B5806884BDC7BD8DC051
:1059700084B5806284BDC8BD88C080918000806885
:1059800080938000D0938900C09388007EC080916E
:105990008000806280938000D0938B00C0938A0047
:1059A00074C08091B00080688093B000C093B30051
:1059B0006CC08091B00080628093B000C093B4004E
:1059C00064C080919000806880939000D09399008B
:1059D000C09398005AC0809190008062809390009C
:1059E000D0939B00C0939A0050C080919000886033
:1059F00080939000D0939D00C0939C0046C08091FE
:105A0000A00080688093A0008091A0008F7B80938D
:105A1000A000D093A900C093A80037C08091A00037
:105A200080628093A000D093AB00C093AA002DC0E9
:105A30008091A00088608093A000D093AD00C093B7
:105A4000AC0023C080912001806880932001D09316
:105A50002901C093280119C08091200180628093A0
:105A60002001D0932B01C0932A010FC08091200107
:105A7000886080932001D0932D01C0932C0105C034
:105A8000C038D1050CF058CF52CFDF91CF911F9184
:105A900008951F920F920FB60F9211242F933F93E8
:105AA0008F939F93AF93BF9380919A0E90919B0E8B
:105AB000A0919C0EB0919D0E3091990E23E0230F82
:105AC0002D3720F40196A11DB11D05C026E8230F36
:105AD0000296A11DB11D2093990E80939A0E90936A
