:100000000C94EB020C941C030C941C030C941C0326
:100010000C941C030C941C030C941C030C941C03E4
:100020000C941C030C941C030C941C030C941C03D4
:100030000C941C030C941C030C941C030C941C03C4
:100040000C941C030C941C030C941C030C941C03B4
:100050000C94530B0C941C030C941C030C94292E2D
:100060000C941C030C94DA2F0C94CA300C941C03CF
:100070000C941C030C94280B0C941C030C941C0370
:100080000C941C030C941C030C941C030C940F097B
:100090000C940E300C9409310C941C030C94ED0557
:1000A0000C941C030C941C030C941C030C941C0354
:1000B0000C941C030C941C030C941C030C941C0344
:1000C0000C941C030C941C030C941C030C944230E1
:1000D0000C9448310C941C030C9476300C948731AA
:1000E0000C941C039012AA122413A012A013CB1379
:1000F000DA13F513061425143614881888180F150A
:100100004E1534158D15DE151B1674168516C8167A
:10011000E516E41724183318F1170A18531867184E
:1001200088188818881888188818881888188818CF
:1001300088188818881888188818881888188818BF
:1001400088188818881888188818881888188818AF
:10015000881888188818881888188818881888189F
:10016000881888188818881888188818881888188F
:10017000881888188818881888188818881888187F
:100180008818881888188818881888181817D41795
:10019000C71CEF1C131D301D6C1D4E1D8A1DB31D89
:1001A000ED1DD01D291E051E5D1F381F7C1F1E2042
:1001B000B81FAF207320ED2005211D2135215221CC
:1001C000A81D612176219221E41CD121972C9A2C23
:1001D0008D2C912CD12C9E2CA22CA82CAC2CB02C8C
:1001E000B62CBA2CBE2CD12CC42CC82CCC2C932DC4
:1001F000982D9D2DA72D202EB12DB92DC12DCB2DA4
:10020000D52DDF2DEE2DF82D202E022E0C2E162EA4
:1002100008000000BE922449123EABAAAA2ABECD15
:10022000CCCC4C3E00000080BEABAAAAAA3E000087
:100230000000BF000000803F00000000000841787F
:10024000D3BB4387D1133D190E3CC3BD4282AD2BB6
:100250003E68EC8276BED98FE1A93E4C80EFFFBEAE
:1002600001C4FF7F3F000000000007634236B79BD8
:10027000D8A71A39685618AEBAAB558C1D3CB7CC06
:100280005763BD6DEDFD753EF6177231BF0000007E
:10029000803F0000090A02080B0C0D070603040149
:1002A000000000000000000000000000000000004E
:1002B000000000000000000000000000000011101D
:1002C0000F0000000000000000000000000000001F
:1002D00000000000000000000102102020080810AB
:1002E00020401020408002010201080402010102A6
:1002F000040810204080804020100804020180047F
:1003000002018040201008040201080402010102D9
:1003100004081020408001020408102040800505D8
:100320000505070508080808020202020A0A08086B
:100330000404040401010101010101010303030399
:1003400003030303040707070C0C0C0C0C0C0C0C28
:100350000202020206060606060606060B0B0B0B39
:100360000B0B0B0B000020002300260029002C00A3
:100370002F00320000010000030106010901000006
:100380002200250028002B002E003100340002013D
:100390000000050108010B010000210024002700D6
:1003A0002A002D0030003300010100000401070184
:1003B0000A010C947D330C945C190C94E4170C9492
:1003C000CB2D0C9473200C94600B0C9485160C941C
:1003D000AA120C944C0F0C9452210C9436140C94C9
:1003E0007C1F0C9453180C94DE150C94562F0C940F
:1003F00024130C948D040C94832F0C944E1D0C9498
:10040000022E0C9488180C94E41C0C9467180C941D
:10041000F1170C948A1D0C949D0A0C94AD180C9441
:10042000A22C0C94932D0C948D150C94A72D0C9448
:1004300006140C943D040C94301D0C946F0B0C941A
:100440000B050C94850A0C94630B0C9476210C9488
:10045000EE2D0C94292F0C9450040C945D0B0C94ED
:100460001E030C943A090C9492210C94D4170C940A
:10047000912C0C946C0B0C9425140C94291E0C9448
:1004800078270C94D12C0C949A2C0C949D2D0C94C0
:10049000B92D0C94C12D0C9460190C94C82C0C949B
:1004A00018170C9433180C94A81D0C94ED1D0C9483
:1004B000C8160C94CC2C0C94E5160C94A9300C9412
:1004C000972C0C943B2F0C94C42C0C946C1D0C9406
:1004D00057230C9447320C9405210C94051E0C9460
:1004E000DA130C94CB130C9461210C94B02C0C9463
:1004F0005D1F0C94A0120C941E200C9464190C9493
:100500001B160C94720B0C940A180C941D210C945D
:10051000982D0C94162E0C94750B0C940C2E0C9498
:10052000AF200C940F150C9490120C94D01D0C94C9
:10053000131D0C9435210C94F82D0C9435040C9457
:100540005F040C94C71C0C94B81F0C9456030C94B5
:10055000B3230C94EF1C0C94660B0C94A0130C9416
:1005600062120C94B6230C9460040C9474160C94D0
:10057000DF2D0C94BA2C0C94B12D0C94D52D0C9429
:100580008D2C0C9434150C944E150C94B31D0C94B6
:10059000F5130C94381F0C94D1210C94AC2C0C94B2
:1005A000ED200C94B62C0C94690B0C94A82C0C9494
:1005B000202E0C949E2C0C94782F0C9424180C94C0
:1005C000BE2C0C9452030C94D01852030B055D0BF7
:1005D00078274732560311241FBECFEFD1E2DEBF8A
:1005E000CDBF00E00CBF14E0A0E0B2E0E6E7FCE71E
:1005F00000E00BBF02C007900D92A23BB107D9F7F4
:1006000011E1A2EBB4E001C01D92AA33B107E1F7FA
:1006100015E0C4EDD5E000E006C022970109FE0117
:100620000BBF0E94C93BCA3CD10780E00807A9F76D
:100630000E94EF030C94293E0C9400008091060266
:100640009091070201969093070280930602089505
:1006500082EB94E00E943A22809106029091070278
:1006600069E170E00E948D3B892BD9F48091040DE3
:10067000882389F08091050D81110BC0E091B204AF
:10068000F091B3040688F789E02D82EB94E0199588
:1006900002C01092050D81E090E0909307028093D4
:1006A0000602089582EB94E00C94800B82EB94E0B8
:1006B0000C94910B80E1809391001092900085E062
:1006C0008093280E86E998E990932A0E8093290E4C
:1006D000909397008093960085E1809391008EE13E
:1006E00093E09093270E8093260E81E08093710013
:1006F00082EB94E00E944C0F69E072E084EF9EE090
:100700000E94F0336FEF71E2605072404AE050E0B7
:1007100084EF9EE00E94CA346EE072E084EF9EE0B7
:100720000E94F03362EB74E0605072404AE050E0A7
:1007300084EF9EE00E94CA3465E172E084EF9EE09F
:100740000E94F0336AE371E1625B74404AE050E07A
:1007500084EF9EE00E94CA346BE172E084EF9EE079
:100760000E94F03360913611709137116115710557
:1007700019F06A53714102C060E070E04AE050E055
:1007800084EF9EE00E94CA3461E272E084EF9EE052
:100790000E94F0338DB79EB76FEF71E2681B790B43
:1007A0004AE050E084EF9EE00E94CA3468E272E0C2
:1007B00084EF9EE00E94F0338091361190913711C2
:1007C0006DB77EB7009719F46A53714102C0681B78
:1007D000790B4AE050E084EF9EE00C94CA340E940A
:1007E000C72E0E945A03C9EAD0E30E94280320972B
:1007F000E1F30E94A930F9CFCB010C94033ECB0169
:10080000642F0C940B3E61E085E30E940B2D61E0A8
:1008100085E30E94D22C8CB580618CBD8CB5806440
:100820008CBD61E084E30E94D22C61E083E30C94F0
:10083000D22C811103C08CB5806202C08CB58F7D33
:100840008CBD08959CB5937F982B9CBD08952CB5C5
:10085000982F93702C7F922B9CBD9DB582FB88278F
:1008600080F99E7F982B9DBD08958091960D90E014
:100870002091970D821B910908952091970D8091E9
:10088000960D281750F4E22FF0E0E856F24F8081E1
:1008900090E02F5F2093970D08958FEF9FEF0895BD
:1008A000E091970D8091960DE81730F4F0E0E8564E
:1008B000F24F808190E008958FEF9FEF08950895A3
:1008C000CF92DF92EF92FF920F931F93CF93DF931C
:1008D0007C01CB018A012091720D222389F0EB016A
:1008E0006B01C40ED51ECC15DD0569F06991D701E9
:1008F000ED91FC910190F081E02DC7011995F3CFA6
:10090000642F0E94C405C801DF91CF911F910F9100
:10091000FF90EF90DF90CF900895CF93DF931F92D9
:10092000CDB7DEB769832091720D2223D1F02091DB
:10093000730D203240F021E030E0FC01338322834C
:1009400080E090E015C08091740DE82FF0E0EB5846
:10095000F24F998190838F5F8093740D8093730D14
:1009600005C061E0CE0101960E94C40581E090E0DF
:100970000F90DF91CF910895FC011382128248EE0F
:1009800053E060E070E0448355836683778389E3B6
:1009900092E09183808308951092970D1092960DA6
:1009A0001092740D1092730D0C940F05862F413226
:1009B00008F040E268E97DE00E942D051092970D55
:1009C0008093960D089521E00C94D60421E00C94B8
:1009D000D60481E08093720D6093950D1092740D92
:1009E0001092730D08950C94E9040F93062F21E0E3
:1009F0004091730D65E77DE08091950D0E94710532
:100A00001092740D1092730D1092720D0F91089543
:100A100061E00C94F50486E69DE00C94BC04109211
:100A2000250E81E08093230E1092220E61E084E176
:100A30000E940B2D61E085E10E940B2DE9EBF0E0B7
:100A400080818E7F808380818D7F808388E4809306
:100A5000B80085E48093BC000895413208F03FC09F
:100A60009091250E9111FCCF91E09093250E20934B
:100A7000230E2FEF2093B80D1092FD0D240F20931D
:100A8000FC0D9093240E9091240E880F892B809357
:100A9000240E8091220E813041F41092220E80911A
:100AA000240E8093BB0085EC01C085EE8093BC00D2
:100AB0008091250E8130E1F38091FD0D841710F4B3
:100AC0004091FD0D2EEF3DE0FB01D9018A2F821BE5
:100AD000841718F48D918193F9CF842F089580E0C5
:100AE00008950F93413208F046C09091250E911160
:100AF000FCCF92E09093250E0093230E9FEF9093EE
:100B0000B80D1092FD0D4093FC0DFB016EEF7DE0E2
:100B1000DB019A2F961B941718F491919D93F9CFAE
:100B20001092240E9091240E880F892B8093240E0E
:100B30008091220E813041F41092220E8091240E79
:100B40008093BB0085EC01C085EE8093BC0022231E
:100B500021F08091250E8230E1F38091B80D8F3F16
:100B600061F08091B80D803251F08091B80D8033E2
:100B700041F483E007C081E005C080E003C082E06B
:100B800001C084E00F910895613298F42091250E00
:100B9000243089F46093DA0DFC018CED9DE0DC01DA
:100BA0002A2F281B261718F421912D93F9CF80E0C6
:100BB000089581E0089582E0089585ED8093BC005A
:100BC0008091BC0084FDFCCF1092250E089585EC29
:100BD0008093BC001092250E08951F920F920FB6BD
:100BE0000F9211240BB60F922F933F934F935F9365
:100BF0006F937F938F939F93AF93BF93EF93FF93E5
:100C00008091B900887F803609F49CC068F58832ED
:100C100009F45BC090F4803109F454C038F488239F
:100C200009F4F5C0883009F44DC0F5C0883109F4E5
:100C30004CC0803209F45DC0EEC0803409F468C055
:100C400048F4803309F455C0883309F0E4C0809338
:100C5000B80DA8C0803509F44FC0883509F45DC0CF
:100C6000883409F0D8C0D5C0883909F4C6C0A8F4C2
:100C7000883709F467C038F4883609F463C08037D0
:100C800009F460C0C8C0883809F4B7C0803909F4D5
:100C90005FC0803809F0BFC05BC0803B09F485C0ED
:100CA00038F4803A09F466C0883A09F47EC0B3C0CB
:100CB000803C09F4A6C0883C09F4A3C0883B09F431
:100CC00089C0A9C08091240E10C09091FD0D809123
:100CD000FC0D981770F5E091FD0D81E08E0F80936B
:100CE000FD0DF0E0E250F24F80818093BB0085EC77
:100CF00085C08093B80D8DC0E091FD0D81E08E0F11
:100D00008093FD0D8091BB00F0E0E250F24F8083B4
:100D10009091FD0D8091FC0D6DC0E091FD0D81E085
:100D20008E0F8093FD0D8091BB00F0E0E250F24FFA
:100D300080838091230E81116CC081E08093220E0C
:100D400084EA60C083E08093250E1092B90DCFCF66
:100D50008091B90D803208F050C0E091B90D81E06A
:100D60008E0F8093B90D8091BB00F0E0E654F24FF6
:100D70008083BDCF8091B90D803230F4E091B90D00
:100D8000F0E0E654F24F10820E94DD056091B90D4B
:100D900070E0E0911E0EF0911F0E8AEB9DE0199518
:100DA0001092B90D0E94E70536C084E08093250EAD
:100DB0001092DB0D1092DA0DE091200EF091210ED1
:100DC00019958091DA0D811105C081E08093DA0DCB
:100DD0001092DC0DE091DB0D81E08E0F8093DB0D36
:100DE000F0E0E452F24F80818093BB009091DB0DE4
:100DF0008091DA0D981708F47ACF85E88093BC00CB
:100E00000AC085EC8093BC001092250E04C010929D
:100E1000B80D0E94DD05FF91EF91BF91AF919F91B9
:100E20008F917F916F915F914F913F912F910F9093
:100E30000BBE0F900FBE0F901F901895FF920F934F
:100E40001F93CF93DF93FC010081C181D281F8947D
:100E50008981F02EF0948F21898378941DE71150B9
:100E600029F182E090E00E94BC2E88818023B9F3B2
:100E7000F8948A818F218A838981802B8983789451
:100E800080EE91E00E94BC2EF89489818F218983A5
:100E900086E490E00E94BC2E8881802311E009F056
:100EA00010E078948AE991E00E94BC2E812FDF91B6
:100EB000CF911F910F91FF9008951F93CF93DF93D0
:100EC000FC011081C181D281912F909560FF12C0E9
:100ED000F8948A8189238A838981812B89838AE096
:100EE00090E00E94BC2E8A81812B8A83789487E3CC
:100EF00090E011C0F8948A8189238A838981812BAB
:100F0000898381E490E00E94BC2E8A81812B8A83B0
:100F1000789485E090E0DF91CF911F910C94BC2EE6
:100F20000F931F93CF93DF93FC011081C181D28176
:100F3000F8948981812B89838A81012F00958023F0
:100F40008A8383E090E00E94BC2E8981802389837C
:100F50008AE090E00E94BC2EC881789485E390E0FE
:100F60000E94BC2E1C2381E009F480E0DF91CF9128
:100F70001F910F910895CF92DF92EF92FF920F93FE
:100F80001F93CF93DF931F92CDB7DEB76C01E62E90
:100F900008E010E0FF24F39461E09F2D9E2109F406
:100FA00060E0C60149830E945D07FF0C01501109F2
:100FB00049810115110581F7411115C0F894D60139
:100FC0001196ED91FC91129791818C9180958923D6
:100FD00081831196ED91FC91129792818C9180956D
:100FE0008923828378940F90DF91CF911F910F9185
:100FF000FF90EF90DF90CF900895EF92FF920F93C4
:101000001F93CF93DF938C01C8E0D0E0F12CEE2446
:10101000E394C8010E9490078111FE28EE0C2197ED
:101020002097B9F78F2DDF91CF911F910F91FF90EE
:10103000EF900895CF92DF92FF920F931F93CF937B
:10104000DF931F92CDB7DEB78C01F62E40E065E549
:1010500079830E94BB07CF2C7981D72E88E0F82EA8
:10106000F60161916F0140E0C8010E94BB07FA944C
:10107000B9F70F90DF91CF911F910F91FF90DF9003
:10108000CF900895FC0113861586148627E030E082
:10109000DF01A20FB31F13961C922115310519F021
:1010A00021503109F5CF08951F93CF93DF93EC01C1
:1010B000162F60E0812F0E94D22C612F70E0FB017F
:1010C000E852FD4FE491E883FB01E25EFC4FE491BE
:1010D000F0E0EE0FFF1FEC59FC4F859194919A833D
:1010E0008983CE01DF91CF911F910C944208AF927A
:1010F000BF92CF92DF92EF92FF920F931F93CF9305
:10110000DF931F92CDB7DEB75C01E62ED72EFC0130
:10111000858581115DC0C5010E941E07811105C032
:10112000F5011386158614866EC040E060EFC50198
:101130000E94BB0701E0F12CC12C11E0C5010E9407
:101140009007682FC50169830E949007698161300B
:1011500019F48130B9F433C02F2D30E068131BC06F
:10116000F5018385181730F4E20FF31F8381802384
:1011700049F402C0181731F060E0193058F4F50155
:10118000148708C0F501EF0DF11D8381802B838347
:1011900061E009C0C12EF501E20FF31F8381902F9A
:1011A000909589238383C5010E945D071F5F000F0F
:1011B00011F4F39401E0F7E0FF1508F0BFCF11340C
:1011C00038F0F501C386C11018C081E0858715C0CD
:1011D000F50113861586148680E0EE2DFD2D20E0A6
:1011E00030E0D501A20FB31F13969C9191932F5F0E
:1011F0003F4F28303105A9F706C0F50183818823C8
:1012000039F381E0EACF0F90DF91CF911F910F91D9
:10121000FF90EF90DF90CF90BF90AF9008951F9216
:101220000F920FB60F9211240BB60F922F933F938C
:101230004F935F936F937F938F939F93AF93BF93DE
:10124000EF93FF93E091260EF091270E1995FF91F1
:10125000EF91BF91AF919F918F917F916F915F912E
:101260004F913F912F910F900BBE0F900FBE0F909B
:101270001F90189580917800609179004091440EFC
:101280005091450E2091420E3091430E4217530764
:10129000B8F59091410E911105C090917A0090643B
:1012A00090937A0090E0962B20917C0025FF13C04C
:1012B000E091480EF091490E2091440E3091450E78
:1012C000A9014F5F5F4F5093450E4093440EE20FCC
:1012D000F31F90830895E091460EF091470E209100
:1012E000440E3091450EA9014F5F5F4F5093450E5C
:1012F0004093440E220F331FE20FF31F918380832C
:101300000895ECE7F0E090819F739083208130E4B2
:10131000839FC0011124282B2083089580917A0097
:10132000877090E00895E1E8F0E08081887F808315
:1013300008950E9493091092850010928400E1E8BC
:10134000F0E0808190912B0E892B80830895882373
:1013500021F080917C00806203C080917C008F7DB1
:1013600080937C000895EBE7F0E09081987F908374
:101370009081982B9083089580917B0087700895C9
:101380008093410E882321F080917A00806203C00F
:1013900080917A008F7D80937A000895CF92DF92BA
:1013A000EF92FF926B017C0180E1809381001092AB
:1013B0008000A701960160E074E284E799E40E944E
:1013C000D93720E030E040E051E40E94AD390E947E
:1013D00046386115710521E08207910528F421E066
:1013E00020932B0ECB014CC06115710528E08207BC
:1013F000910568F422E020932B0EDC01CB0123E061
:10140000B695A795979587952A95D1F739C0611517
:10141000710520E48207910568F423E020932B0EE8
:10142000DC01CB01F6E0B695A79597958795FA95DF
:10143000D1F726C061157105810521E0920740F4BE
:1014400024E020932B0EBB27A92F982F872F18C09D
:1014500061157105810524E0920768F425E0209369
:101460002B0EDC01CB015AE0B695A7959795879591
:101470005A95D1F705C085E080932B0E8FEF9FEF33
:10148000909387008093860081E080936F0086E0D0
:101490000E94B30981E00E94C009C092340ED0922C
:1014A000350EE092360EF092370EFF90EF90DF90FF
:1014B000CF90089580933E0E90917C00907F909302
:1014C0007C0020917C00982F9770922B90937C0049
:1014D000883020F080917B00886003C080917B0081
:1014E000877F80937B00089591E090933D0E10924A
:1014F000400E10923F0E10923C0E2AE339E03093DA
:101500003B0E20933A0E0C945A0A80913C0E8F5F4A
:1015100080933C0E90913D0E891302C010923C0EB8
:1015200080913C0EE0913F0EF091400EE80FF11DCE
:1015300080810E945A0A0C943A09CF93C0913C0EC4
:1015400090913D0E9230A0F081E08C0F891719F038
:1015500080933C0E02C010923C0E80913C0EE091B4
:101560003F0EF091400EE80FF11D80810E945A0A53
:1015700060917800809179004091440E5091450E21
:101580002091420E3091430E4217530700F590917F
:10159000410E911105C090917A00906490937A0069
:1015A00070E0782B80917C0085FF02C0672F772741
:1015B000E091380EF091390E8C2F19958091440EE0
:1015C0009091450E01969093450E8093440ECF91D5
:1015D0000895CF93DF93D0917C00C0917B008091E0
:1015E0007C00807E80937C0080917C008E61809363
:1015F0007C0080917B00877F80937B0063E070E0BC
:1016000080E090E00E94962E80917A008064809322
:101610007A0080917A0086FDFCCF609178008091FD
:101620007900D0937C00C0937B0070E0782B8827F2
:1016300077FD8095982F0E9474389B01AC0160E083
:1016400070E889E894E40E94D937DF91CF9108953A
:101650001F920F920FB60F9211240BB60F922F9379
:101660003F934F935F936F937F938F939F93AF932A
:10167000BF93EF93FF93E0913A0EF0913B0E1995D3
:10168000FF91EF91BF91AF919F918F917F916F915A
:101690005F914F913F912F910F900BBE0F900FBE16
:1016A0000F901F9018951F920F920FB60F92112452
:1016B0000F900FBE0F901F90189581E00C94810938
:1016C0008BE294E0089587E294E0089580E194E04D
:1016D000089586EF93E008958BEE93E0089588EBEC
:1016E00093E0089585E492E0089561E088E00C9429
:1016F0000B2DDC01ED91FC910190F081E02D19940E
:10170000CF93DF93EC0161E00E94651980EA93E0DA
:1017100099838883CE5AD74F18821982DF91CF914F
:10172000089520EA33E0FC01318320830C94E7190B
:101730001F93CF93DF931F921F92CDB7DEB7162F63
:1017400060E0812F2A8349830E940B2D49814EBD81
:101750002A810DB407FEFDCF8EB52EBD0DB407FE58
:10176000FDCF8EB561E0812F0F900F90DF91CF916B
:101770001F910C940B2D643040F4242F2095462F9C
:1017800065E30E94980B80E0089585E00895AF928C
:10179000BF92CF92DF92EF92FF920F931F93CF935E
:1017A000DF931F921F92CDB7DEB78C01D12C7C0145
:1017B0008BEBE81A87EFF80A5801E5E9AE1AE7EF74
:1017C000BE0A2D2D30E0F801EC5AF74F808191814F
:1017D00068E270E00E948D3B26173707E0F588E04D
:1017E000C82EC982F7012081318180E090E040E07D
:1017F000B801620F731FE42FF0E0DB01A80FB91FDF
:10180000A259BF4F41E050E0AC91AA2311F040E053
:1018100050E0082E02C0440F551F0A94E2F74E0F05
:101820005F1F01968830910531F74A83285F3F4F4B
:10183000F70131832083F50160816D0D22E0AE0157
:101840004F5F5F4FC8010E940C22C394FDE0CF128E
:10185000C8CFD394B6CF0F900F90DF91CF911F9147
:101860000F91FF90EF90DF90CF90BF90AF900895D1
:101870008F929F92AF92BF92CF92DF92EF92FF92A0
:10188000CF93DF93EC016A017B01FC01E15AF74F32
:1018900080809180A280B38020E030E0A901C70160
:1018A000B6010E94D53787FD45C0FE01E155F74FCF
:1018B0002081318142815381C701B6010E94643980
:1018C0001816C4F1A5019401C701B6010E94D937C9
:1018D0009B01AC010E945E3723EF34E045EB5FE3F0
:1018E0000E94AD3920E030E040E85EE30E94AD396F
:1018F00020E030E04FE753E40E94AD394B015C013A
:1019000020E030E04FE753E40E946439181694F069
:10191000FE01E95AF74FC082D182E282F382C5010B
:10192000B4010E944638462F63E0CE010E94BB0BF3
:1019300080E001C088E0DF91CF91FF90EF90DF90D1
:10194000CF90BF90AF909F908F900895FC01E15A87
:10195000F74F4083518362837383FC01E95AF74F49
:10196000408151816281738120E00C94380C5F9238
:101970006F927F928F929F92AF92BF92CF92DF929F
:10198000EF92FF920F931F93CF93DF931F921F92BB
:10199000CDB7DEB76C01CB01542E68E270E00E9437
:1019A0008D3B7B014C015C0193E0B694A7949A9522
:1019B000E1F73B01772486010559174FF801808133
:1019C000B301680F711D86E69DE00E94F304B50126
:1019D000685F7F4F86E69DE00E94790B86E69DE07A
:1019E0000E940805F8018081B301680F711D41E074
:1019F00050E086E69DE00E94E60486E69DE00E94B7
:101A00003504892B41F1F82DF7708F2E88E08A0D6F
:101A1000898386E69DE00E943D0441E050E060E05D
:101A200070E004C0440F551F661F771F8A94D2F7D9
:101A3000511002C0482B02C0409548234A83F80148
:101A400060816E0D22E0AE014F5F5F4FC6010E94C4
:101A50000C2280E001C081E00F900F90DF91CF91C8
:101A60001F910F91FF90EF90DF90CF90BF90AF90BC
:101A70009F908F907F906F905F900895EF92FF926C
:101A80000F931F93CF93DF938C017C018CE9E81AAD
:101A900087EFF80AC4E6D0E0F70141917F01BE016B
:101AA000C8010E9460192196C33BD105A9F760E0E7
:101AB000C801DF91CF911F910F91FF90EF900C948F
:101AC000610D9F92AF92BF92CF92DF92EF92FF9201
:101AD0000F931F93CF93DF93EC01962E7C012CE99B
:101AE000E21A27EFF20A04E610E05701E881F981D3
:101AF0000088F189E02DB801CE011995F701819395
:101B00007F010F5F1F4F033B110581F7F5018081B6
:101B100091819E012A59374F6901FE01E859F74F1B
:101B20007F018E010256174F892BF1F4F901808154
:101B30009181892BC9F4F70180819181892BA1F4CE
:101B4000FE01E15AF74F80819181A281B381F801B2
:101B500080839183A283B38381E090E0F701918336
:101B60008083CE010E943E0DF50180819181892BF9
:101B7000B9F4F60180819181892B91F4F70180817C
:101B80009181019769F480E2FE01E559F74F808366
:101B900082E090E0F70191838083CE010E943E0DA8
:101BA000F50180819181892BE9F4F6018081918191
:101BB000892BC1F4F70180819181029799F480E02B
:101BC00090E0A0EAB0E4FE01EE55F74F80839183E8
:101BD000A283B38383E090E0F70191838083CE01F9
:101BE0000E943E0DF50180819181892BB1F4F601AF
:101BF00080819181892B89F4F701808191810397FC
:101C000061F4FE01EA55F74F108284E090E0F7019D
:101C100091838083CE010E943E0DF50180819181E8
:101C2000892B99F5F60180819181892B71F5F70156
:101C300080819181049749F580E090E0A8ECB2E4BE
:101C4000FE01E955F74F80839183A283B38380E03F
:101C500090E4ACE9B6E4FE01E555F74F808391834B
:101C6000A283B38380E090E0A8E4B3E4FE01E155F1
:101C7000F74F80839183A283B38385E090E0F701DF
:101C800091838083CE010E943E0DF5018081918178
:101C9000892B69F4F60180819181892B41F4F70148
:101CA00080819181059719F4992009F4CEC0F5013E
:101CB00011821082F6011182108285E090E0F70116
:101CC000918380838FEFFE01E659F74F80838CE785
:101CD000FE01E359F74F808380E7FE01E459F74F97
:101CE000808380E09CE7A2E9B8E4FE01E259F74F67
:101CF00080839183A283B38380E092E2A1EAB8E477
:101D0000FE01EE58F74F80839183A283B38380E076
:101D100090E0AAE7B4E4FE01E258F74F8083918394
:101D2000A283B38380E090E4ACE1B6E4FE01EE5719
:101D3000F74F80839183A283B38380E090E5A3EC87
:101D4000B7E4FE01EA57F74F80839183A283B38300
:101D500080E094E2A4E7B9E4FE01E657F74F808300
:101D60009183A283B383FE01EA58F74F1082118258
:101D700012821382FE01E658F74F108211821282FE
:101D800013824FEF56EE6BE57EE2FE01E257F74F0E
:101D90004083518362837383FE01EE56F74F408385
:101DA000518362837383FE01EA56F74F4083518368
:101DB00062837383FE01E656F74F4083518362834B
:101DC0007383FE01E15AF74F80819181A281B38133
:101DD000F80180839183A283B38380E2FE01E559F9
:101DE000F74F808380E090E0A0EAB0E4FE01EE557A
:101DF000F74F80839183A283B383FE01EA55F74FA7
:101E0000108280E090E0A8ECB2E4FE01E955F74FC3
:101E100080839183A283B38380E090E4ACE9B6E44D
:101E2000FE01E555F74F80839183A283B38380E061
:101E300090E0A8E4B3E4FE01E155F74F808391837D
:101E4000A283B383CE010E943E0DF801C080D180F1
:101E5000E280F38020E030E0A901C701B6010E94D2
:101E6000D537FE01ED59F74F18161CF081E080833D
:101E700007C0C15AD74FC882D982EA82FB8210823A
:101E8000DF91CF911F910F91FF90EF90DF90CF9056
:101E9000BF90AF909F9008952F923F924F925F9284
:101EA0006F927F928F929F92AF92BF92CF92DF926A
:101EB000EF92FF920F931F93CF93DF93CDB7DEB7CF
:101EC00069970FB6F894DEBF0FBECDBF8C010E949C
:101ED000D01861E085E30E94D22C61E089E00E9485
:101EE000D22C61E088E00E94D22C60E088E00E9461
:101EF0000B2D64EF71E080E090E00E94962ED801F7
:101F0000ED91FC910680F781E02DC8011995BC0187
:101F100084EF9EE00E94F0336BE472E084EF9EE079
:101F20000E94F033D801ED91FC910484F585E02DF9
:101F3000C8011995BC0184EF9EE00E940D346EE447
:101F400072E084EF9EE00E94F033D801ED91FC91A5
:101F50000284F385E02DC8011995BC0184EF9EE051
:101F60000E940D34C8010E941D1B60E089E00E94A0
:101F70000B2DF801E15AF74F80E090E0A8ECB2E4B5
:101F800080839183A283B38360E0C8010E94610DC6
:101F900061E672E084EF9EE00E94F0337801BCE9D4
:101FA000EB1AB7EFFB0AF701608171814AE050E05C
:101FB00084EF9EE00E940D356AE973E084EF9EE0B5
:101FC0000E94F033F801EA59F74F608171814AE0CD
:101FD00050E084EF9EE00E940D356AE973E084EFE3
:101FE0009EE00E94F033F801E859F74F608171815B
:101FF0004AE050E084EF9EE00E94133568E772E00B
:1020000084EF9EE00E94F033C8018659974F9F8B62
:102010008E8B4AE050E0DC016C9184EF9EE00E94E0
:10202000F6346EE772E084EF9EE00E94F033F80130
:10203000E459F74FF98FE88F4AE050E0608184EF70
:102040009EE00E94F6346EE872E084EF9EE00E940B
:10205000F0332801F3E94F1AF7EF5F0A4AE050E046
:10206000D2016C9184EF9EE00E94F634B12CA12C39
:10207000F1E0BF1202C084E001C082E0A81608F0BF
:10208000B9C04AE06A2DCE0101960E94C5364AE0E9
:102090006B2DCE010F960E94C53664E972E0CE0129
:1020A00008960E949636BE01615F7F4FCE0108966A
:1020B0000E941F3766E972E00E943237BE016F5FEF
:1020C0007F4F0E941F376AEA72E00E943237BC01DC
:1020D00084EF9EE00E94BB33CE0108960E94283612
:1020E000CE010F960E942836CE0101960E94283616
:1020F000CA2CD12CB1E0F601EE0FFF1FEE0FFF1F2F
:10210000EE0DFF1DBB1629F042855385648575854C
:1021100004C0428D538D648D758D22E030E084EFD4
:102120009EE00E9416364AE06A2DCE0101960E947A
:10213000C5364AE06B2DCE010F960E94C53664E984
:1021400072E0CE0108960E949636BE01615F7F4F15
:10215000CE0108960E941F376DEA72E00E94323766
:10216000BE016F5F7F4F0E941F376AEA72E00E94D4
:102170003237BC0184EF9EE00E94BB33CE0108964B
:102180000E942836CE010F960E942836CE01019675
:102190000E942836E1E0BE1661F0F601EE0FFF1F47
:1021A000EE0FFF1FEE0DFF1D6289738984899589EB
:1021B0000BC0F601EE0FFF1FEE0FFF1FEE0DFF1D10
:1021C00062A573A584A595A525EA34ED48E653E5F7
:1021D0000E94AD39AB01BC0122E030E084EF9EE00B
:1021E0000E94143662EC72E084EF9EE00E940D348F
:1021F000A3943ECFB39482E0B81239CF66EC72E07C
:1022000084EF9EE00E94F0334AE050E0480195E9F7
:10221000891A97EF990AD4016C9184EF9EE00E948D
:10222000F6346BE173E084EF9EE00E94F033F80136
:10223000E256F74F408151816281738122E030E0A4
:1022400084EF9EE00E94163663EE72E084EF9EE01B
:102250000E94F033F801EE55F74F408151816281C1
:10226000738122E030E084EF9EE00E94163666EF34
:1022700072E084EF9EE00E94F0335801BAE5AB1A99
:10228000B7EFBB0AF501608170E04AE050E084EFEF
:102290009EE00E94CA346FE073E084EF9EE00E94EB
:1022A000F033F801ED59F74F608170E04AE050E0FB
:1022B00084EF9EE00E94CA346BE273E084EF9EE0FC
:1022C0000E94F033F801E955F74F40815181628156
:1022D000738122E030E084EF9EE00E94163663E4D2
:1022E00073E084EF9EE00E94F033F801E555F74F6C
:1022F000408151816281738122E030E084EF9EE071
:102300000E9416366BE573E084EF9EE00E94F03386
:10231000F801E155F74F408151816281738122E0DC
:1023200030E084EF9EE00E9416363801FCEA6F1A16
:10233000F7EF7F0AD3011D921C9238E2C32ED12CF5
:10234000E12CF12C3E2CB8E1B983EFEFEA83D40104
:102350006C916E0D22E0AE014F5F5F4FC8010E948D
:102360000C22F40160816E0D21E0AE014F5F5F4FE2
:10237000C8010E94721C89818F3F09F04CC028E17E
:10238000222E29821A82D4016C91630D22E0AE01C3
:102390004F5F5F4FC8010E940C22F4016081630D02
:1023A00021E0AE014F5F5F4FC8010E94721C89811E
:1023B000811131C080EF820D8983FFEFFA83D40150
:1023C0006C91630D22E0AE014F5F5F4FC8010E9428
:1023D0000C222394BDE12B12D4CF66E873E084EF86
:1023E0009EE00E94F0334AE050E0B70184EF9EE0A7
:1023F0000E94C23460E973E084EF9EE00E940D34D5
:10240000F30120813181C60188972817390719F413
:10241000F301D182C082FFEFEF1AFF0A88E2C80EF3
:10242000D11C98E0E916F10409F08CCFD3016D912D
:102430007C914AE050E084EF9EE00E940D3561E718
:1024400073E084EF9EE00E940D34EE89FF894081A5
:1024500060E0C8010E94BB0BD2014C9161E0C80151
:102460000E94BB0BE88DF98D408162E0C8010E949B
:10247000BB0B40E063E0C8010E94BB0BD5018C910F
:10248000882311F042E001C041E060E0C8010E94F1
:10249000022369960FB6F894DEBF0FBECDBFDF9161
:1024A000CF911F910F91FF90EF90DF90CF90BF9051
:1024B000AF909F908F907F906F905F904F903F90E4
:1024C0002F9008952F923F924F925F926F927F923A
:1024D0008F929F92AF92BF92CF92DF92EF92FF9234
:1024E0000F931F93CF93DF93CDB7DEB760970FB6EF
:1024F000F894DEBF0FBECDBF1C01B62E862F90E034
:10250000FC01E05AF109910124593F4F3E832D838C
:10251000E635F10508F0FCC5EE58FF4F0C94C33BBF
:10252000F101E05CF74F80819181892B89F442E0D1
:1025300050E0B1016C5A774FC1010E94ED19E5C519
:10254000F101E05CF74F80819181029709F48EC020
:1025500086E01AC4F101E05CF74F80819181892BFC
:10256000B9F7AD81BE811C92A12C91012C5A374F35
:1025700038872F8308E2802E912C610135E9C31A38
:1025800037EFD30A4A2C512CAF81B8858D919C919D
:10259000B4010E948D3B4616570608F0B9C508E005
:1025A00010E0D6018C91B201680F711D86E69DE0A6
:1025B0000E94F304B80186E69DE00E94790B86E64E
:1025C0009DE00E940805F6018081B201680F711D2F
:1025D00041E050E086E69DE00E94E60486E69DE04C
:1025E0000E943504892B51F186E69DE00E943D044E
:1025F0007C01612C712CFF24C701062C02C095952B
:1026000087950A94E2F781709927F1E08F278983F3
:1026100041E050E0BE016F5F7F4FC1010E94ED19A4
:102620002FEF621A720A38E06316710429F70F5F00
:102630001F4F0D30110509F0B4CF04C0E1E0AD81AA
:10264000BE81EC93A3949ECFF101E05CF74F208113
:102650003181F101EC5AF74F8081918128173907B8
:1026600009F076CFC1010E94C70BDEC3D101AB5B7D
:10267000B74F2D913C911197F901E259FF4FE20DAF
:10268000F31D808191812E5F3F4F2D933C93F1018B
:10269000EC5AF74F208131818217930708F022C34B
:1026A00068E270E00E948D3B8C016B01DD247101BA
:1026B000B5E9EB1AB7EFFB0AF7018081B601680FA5
:1026C000711D86E69DE00E94F304B80113E0769543
:1026D00067951A95E1F7685F7F4F86E69DE00E9457
:1026E000790B86E69DE00E940805D7018C91B60122
:1026F000680F711D41E050E086E69DE00E94E6040F
:1027000086E69DE00E943504892B09F44BC486E6D9
:102710009DE00E943D049927077002C0959587951A
:102720000A95E2F781709927B1E08B27898341E010
:1027300050E0BE016F5F7F4FC1010E94ED1974C36D
:10274000F101E05CF74F80819181039709F000CFA0
:10275000D101AB5BB74F8D919C911197FC01E25970
:10276000FF4FE20DF31D60817181F101E80FF91F48
:10277000E059FF4F408103968D939C93F101EC5AF1
:10278000F74F808191816817790708F0ABC2C101CA
:102790000E94B70CF9C2F101E05CF74F8081918192
:1027A000892B09F0D5CEED81FE81108289E00E944F
:1027B000412D26C4F101E05CF74F808191810197A2
:1027C00009F0C6CEF101EB5BF74F80819181D10119
:1027D000A80FB91FA259BF4F6C91019691838083B6
:1027E000623008F0D0C289E08EC4F101E05CF74F9E
:1027F00080819181892B09F0ABCEAD81BE811C9285
:1028000044E050E0B101695A774F00C4F101E05C47
:10281000F74F80819181049709F09ACED101AB5B8B
:10282000B74F8D919C911197FC01E259FF4FE20D3A
:10283000F31D408151816281738104968D939C9335
:1028400021E0C1010E94380C9FC2F101E05CF74F0A
:1028500080819181892B09F07BCEAD81BE811C9254
:1028600044E050E0B101655A774FD0C3F101E05C1C
:10287000F74F80819181049709F06ACED101AB5B5B
:10288000B74F8D919C911197FC01E259FF4FE20DDA
:10289000F31DC080D180E280F38004968D939C93D9
:1028A000F101E955F74F2081318142815381C70100
:1028B000B6010E94643987FD29C0F101E555F74F43
:1028C0002081318142815381C701B6010E94D537F1
:1028D0001816E4F020E030E048E452E4C701B60105
:1028E0000E94AD392B013C0120E030E04AE754E47E
:1028F0000E94D53787FD0AC020E233EB41E85CE453
:10290000C301B2010E94643918162CF488E0ED81ED
:10291000FE81808377C020E030EE41E854E4C301BB
:10292000B2010E94D9370E946D3926EA3BE944E59D
:1029300050E40E94AD392EE83DE543E150E40E94A9
:10294000D9370E944638162F70E0665F7F4F882780
:1029500077FD8095982F0E9474389B01AC0160E050
:1029600070E080E090E40E94103A20E030EE41E018
:1029700055E40E94AD39A30192010E94D9379B0111
:10298000AC0160E070E080E095E40E945D372B01CF
:102990003C0120E030E0A9010E94643920E030E0F1
:1029A00040E05FE387FD05C0C301B2010E945E37CE
:1029B00004C0C301B2010E945D370E9441384B013F
:1029C000CB01B6E096958795BA95E1F71295107F01
:1029D000182B67E186E69DE00E94E904612F86E6F8
:1029E0009DE00E948D04682D660F660F626086E68A
:1029F0009DE00E948D0486E69DE00E940805AD8161
:102A0000BE811C92ED81FE818081811181C3F10123
:102A1000E55AF74FC082D182E282F38279C3F10195
:102A2000E05CF74F80819181019709F091CDD10150
:102A3000AB5BB74F8D919C911197F101E80FF91F96
:102A4000E259FF4FE08101968D939C93E23020F58F
:102A50002BE1E29FF0011124E65BF14F8181898334
:102A6000AD81BE811C92CDC2F101E05CF74F808147
:102A70009181019709F06CCDF101EB5BF74F8081FB
:102A80009181D101A80FB91FA259BF4F2C91019676
:102A900091838083223008F185E076C1F101E05C0A
:102AA000F74F80819181029709F052CDF101EB5BE4
:102AB000F74F20813181A101420F531FDA01A25942
:102AC000BF4F8C91DA01A159BF4F6C912E5F3F4FE0
:102AD000318320830E94BE223CC3ED81FE8110829F
:102AE0003BE1239FF0011124E65BF14FE181C1013D
:102AF0008C59974FF0E0EE0FFF1FEE0FFF1FE80F0E
:102B0000F91F213029F082859385A485B5858EC073
:102B1000828D938DA48DB58D89C0F101E05CF74F56
:102B200080819181059709F013CDF101EB5BF74F9F
:102B300020813181D101A20FB31FA259BF4F4C9107
:102B4000C901019691838083AD81BE811C9244238B
:102B5000E1F0413009F0C6C04091660ED901A1599B
:102B6000BF4FA20DB31D8D919D910D90BC91A02DD5
:102B70002B5F3F4F31832083F10134E0439FE00D11
:102B8000F11D1124E258F74FA5C040914B0ED90119
:102B9000A159BF4FA20DB31D8D919D910D90BC9178
:102BA000A02D2B5F3F4F31832083F10124E0429F12
:102BB000E00DF11D1124E259F74F8CC0F101E05CEA
:102BC000F74F80819181019709F0C2CCF101EB5B55
:102BD000F74F80819181D101A80FB91FA259BF4F32
:102BE0002C91019691838083223008F055CFED819E
:102BF000FE8110823BE1239FF0011124E65BF14F3F
:102C0000E181C1018C59974FF0E0EE0FFF1FEE0FED
:102C1000FF1FE80FF91F213029F082899389A489C9
:102C2000B58904C082A593A5A4A5B5A589839A8377
:102C3000AB83BC83B4C1F101E05CF74F808191812B
:102C4000059709F085CCF101EB5BF74F20813181CD
:102C5000D101A20FB31FA259BF4F4C91C9010196D8
:102C600091838083AD81BE811C924423D9F0413091
:102C7000C9F54091660ED901A159BF4FA20DB31DF0
:102C80008D919D910D90BC91A02D2B5F3F4F318375
:102C90002083F10134E0439FE00DF11D1124E25740
:102CA000F74F18C040914B0ED901A159BF4FA20D4B
:102CB000B31D8D919D910D90BC91A02D2B5F3F4F29
:102CC00031832083F10124E0429FE00DF11D1124A6
:102CD000EA58F74F80839183A283B383C1010E9496
:102CE0003E0D16C285E035C2F101E05CF74F8081F0
:102CF0009181892B09F02CCCED81FE81108244E07A
:102D000050E0B101615A774F81C1F101E05CF74FAA
:102D100080819181049709F01BCCD101AB5BB74F47
:102D20008D919C911197FC01E259FF4FE20DF31D2B
:102D3000C080D180E280F38004968D939C9320E044
:102D400030E0A901C701B6010E9464391816DCF40D
:102D5000F101ED59F74F8081882341F0F101E15AEB
:102D6000F74FC082D182E282F382CFC1D101A25655
:102D7000B74FCD92DD92ED92FC9213971082C10174
:102D80000E943E0DC2C188E0ED81FE818083C0C1FA
:102D9000F101E05CF74F80819181892B09F0D8CB5C
:102DA000AD81BE811C9211E020E030E0A901F1016B
:102DB000E256F74F60817181828193810E94D537FD
:102DC00018160CF410E019831CC1F101E05CF74FF8
:102DD00080819181019709F0BBCBF101EB5BF74F4B
:102DE00080819181D101A80FB91FA259BF4F2C91A9
:102DF000019691838083F101E256F74F222329F057
:102E000010821182128213820CC0D101A15AB74FD5
:102E10008D919D910D90BC91A02D80839183A28373
:102E2000B383C1010E943E0DED81FE81108270C10D
:102E3000F101E05CF74F008111810A30110508F4BF
:102E400087CBF101EB5BF74F80819181DC01A259C7
:102E5000BF4FA20DB31D4D905D906D907C909C0175
:102E60002C5F3F4F31832083DC01AE58BF4FA20D52
:102E7000B31D2D913C9138872F83DC01AC58BF4F97
:102E8000A20DB31D2D913D914D915C912D873E87F3
:102E90004F87588BD101A80FB91FA858BF4FFC907E
:102EA0000B96918380830B30110551F0F101EC5AA0
:102EB000F74F808191810B960817190709F048C1D7
:102EC0002F8138852D34314008F06CC020E030E08F
:102ED0004AE754E4C301B2010E94D93720E030E44C
:102EE0004CE157E40E94AD3920E030E040E855E481
:102EF0000E94D53787FF56C0AD81BE811C92F1017B
:102F0000EC5AF74F808191810B960817190719F435
:102F1000C1010E94C70B0E94732E69877A878B8735
:102F20009C8788248394F1FE812CAA24A394F0FE2C
:102F3000A12CF101E55AF74FC080D180E280F380E7
:102F40000D851E852F8538894F815885C301B201B3
:102F50000E9487270E94732E29853A854B855C85C0
:102F6000621B730B840B950B0E9472386B017C0102
:102F70004F815885BA0180E090E00E94723820E0CD
:102F800030E04AE754E40E94AD399B01AC01C7012F
:102F9000B6010E94D93769837A838B839C8344E08E
:102FA00050E031C081E0D5C0F101E05CF74F808195
:102FB0009181892B09F0CCCAED81FE81108261E0FC
:102FC000C1010E94610DA4C0F101E05CF74F808156
:102FD0009181892B09F0BCCAAD81BE811C9288E029
:102FE0000FC0F101E05CF74F80819181892B09F0DE
:102FF000AFCAED81FE811082F101EE5AF74F808158
:10300000898341E050E0BE016F5F7F4FC1010E94A4
:10301000ED197EC0F101E05CF74F8081918101974D
:1030200009F096CAF101EB5BF74F80819181D101E4
:10303000A80FB91FA259BF4F2C910196918380838D
:10304000F101EE5AF74F28C0F101E05CF74F8081A3
:103050009181892B09F07CCAED81FE811082F101FA
:10306000ED5AF74FCCCFF101E05CF74F80819181B1
:10307000019709F06DCAF101EB5BF74F80819181F7
:10308000D101A80FB91FA259BF4F2C91019691836E
:103090008083F101ED5AF74F222319F081E08083FC
:1030A00034C0108232C0F101E05CF74F8081918121
:1030B000892B09F04DCAED81FE81108288E00E94C3
:1030C000412D21E0892B09F020E029839ACFF101DD
:1030D000E05CF74F80819181019709F039CAF101D5
:1030E000EB5BF74F80819181D101A80FB91FA259E5
:1030F000BF4F2C91019691838083222311F060E0D1
:1031000001C061E088E00E940B2DAD81BE811C9260
:103110006B2DC1010E94991CED81FE81808160961A
:103120000FB6F894DEBF0FBECDBFDF91CF911F91D8
:103130000F91FF90EF90DF90CF90BF90AF909F9056
:103140008F907F906F905F904F903F902F90089559
:1031500086E0AD81BE818C93DBCFCF93DF93EC0112
:103160000E94601960E0CE01DF91CF910C94610D57
:103170008627682F62956827062E669566956025D6
:10318000062E669560256770082E892F6695079430
:103190006795902D86270694679590258627089534
:1031A000CF92DF92EF92FF920F931F93CF93DF9313
:1031B00000D01F92CDB7DEB78C01CE0101966C0115
:1031C0009FE0E92EF12CD801ED91FC910088F18966
:1031D000E02DB701C8011995F60181936F01FFEF4A
:1031E000EF1AFF0A23E1E216F10469F789819A8157
:1031F000AB81BC818F3F9F4FAF4FBF4FD9F149810A
:103200005A816B817C8184EF9EE00E94C63186E604
:103210009DE00E94CC040E9403040E94E90A085920
:103220001F4FD8016D937D938D939C93139760E40A
:1032300074E084EF9EE00E94F033F80140815181F8
:103240006281738122E030E084EF9EE00E941436B8
:1032500062E574E084EF9EE00F900F900F900F9066
:10326000DF91CF911F910F91FF90EF90DF90CF9062
:103270000C940D3440E052EC61E070E049835A83D5
:103280006B837C83CE0101966C018FE0E82EF12CDC
:10329000D6014D916D01D801ED91FC910288F38921
:1032A000E02DB701C8011995BFEFEB1AFB0AE3E166
:1032B000EE16F10469F7A3CF85E69DE00C94FC03BC
:1032C00085E69DE00C94FF0308958F929F92AF9244
:1032D000BF92CF92DF92EF92FF920F931F93CF9303
:1032E000DF9324E734E0FC0131832083E45BF74F74
:1032F0006083FC01ED5BF74F11821082FC01E75BFC
:10330000F74F1082FC01E05CF74F11821082FC0144
:10331000EB5BF74F11821082FC01E95BF74F1182E2
:103320001082FC01EF5AF74F1082E12CF12C00E0E3
:1033300010E0B80185E69DE00E94FC03A82EB801CC
:10334000695F7F4F85E69DE00E94FC038E2CC0E004
:10335000D0E0B12CA094B094C82ED12CC094D094BD
:10336000CE018E0D9F1DC697C4F4B5010C2E02C070
:10337000759567950A94E2F761709C2E980C892DDB
:103380000E94D22CB6010C2E02C0759567950A9446
:10339000E2F76170892D0E940B2D2196C830D1056E
:1033A000F9F60F5F1F4FE8E0EE0EF11C0730110534
:1033B00009F0BFCFDF91CF911F910F91FF90EF9058
:1033C000DF90CF90BF90AF909F908F90089524E7AB
:1033D00034E0FC013183208308951F93CF93DF9362
:1033E000FB0120E030E0DC01A95BB74F2417350773
:1033F00081F01191BC01620F731FCD91DC91119787
:103400006C0F7D1FEB01C259DF4F18832F5F3F4FB9
:10341000EDCF8D919C911197820F931F8D939C936B
:10342000DF91CF911F910895CF93DF93FC01E35972
:10343000FF4F6081DC01A459BF4F67FF0EC020E839
:10344000260F208322E02C93DC01ED91FC9104886F
:10345000F589E02DDF91CF911994FC01E05CF74FE5
:103460002081318121503109820F931FEC01C25913
:10347000DF4F88818C9331832083DF91CF91089532
:103480006F927F928F929F92AF92BF92CF92DF9274
:10349000EF92FF920F931F93CF93DF93EC019C0168
:1034A000275B374F59016D3721F481E0F9018083A3
:1034B000B5C0F90180819E012D5B374F79018823CA
:1034C00009F4A5C080E26827F701808191819E01FF
:1034D000245B374F4901FE01EE5BF74F6F018E0110
:1034E000005C174F009771F4FE01E359FF4F6083B2
:1034F000F90180818823B9F18FEF9FEFFE01E15B35
:10350000F74F1EC08130910581F467FF08C083E04A
:103510008083862F8F77F8011082818324C082E018
:103520008083862F90E0F8010BC08230910559F41A
:103530002081233041F4F80180819181860F911D13
:103540009183808310C0F6012081821B9109F801CC
:10355000208131818217930730F48C0F9D1FFC016D
:10356000E259FF4F6083F4018081882369F03E01B6
:10357000F1EB6F1AF7EF7F0AF301808191810E94CE
:10358000B818F30191838083F701208131812F5F87
:103590003F4F31832083F4014081F6015081F801CF
:1035A00080819181850F911D840F911D840F911D44
:1035B0002817390731F5F70111821082FE01EB5B04
:1035C000F74F11821082FE01E95BF74F11821082E2
:1035D000442339F0FE01E15BF74F80819181892B13
:1035E00019F4CE010E94141AFE01E55BF74F8081A9
:1035F000882339F0C359DF4F80589881981301C050
:103600001082F5018081882349F0108207C06E374F
:1036100009F05ACFF70111821082F3CFDF91CF91D9
:103620001F910F91FF90EF90DF90CF90BF90AF90E0
:103630009F908F907F906F900895CF93C8E06C2FEC
:1036400086E69DE00E94E90486E69DE00E9408056A
:10365000811126C065E574E084EF9EE00E94F0339E
:103660004AE050E06C2F84EF9EE00E94EF3469E660
:1036700074E084EF9EE00E94F03340E150E06C2F54
:1036800084EF9EE00E94EF346EE674E084EF9EE0EB
:103690000E940D3461E070E080E090E00E94962E80
:1036A000CF5FC83761F6CF910895CF93C62F83E8D7
:1036B000860F823090F46DE784EF9EE00E94832FA6
:1036C000E091F40EF091F50E60E26C270190F0812C
:1036D000E02D84EF9EE0CF91199484EF9EE0CF918E
:1036E0000C94832F8F929F92AF92BF92CF92DF92D2
:1036F000EF92FF920F931F93CF93DF93EC018C0116
:103700007C0120ECE21A27EFF20A845B974F6C01F0
:103710005E0193EBA91A97EFB90AF70180819181B5
:1037200098012C1B3D0BF60128173907C8F480813E
:10373000980122593F4F4901882351F0F9016081D6
:10374000F501808191810E94B818F50191838083F1
:10375000F4016081CE010E94551B0F5F1F4FDDCF2A
:103760008081882369F08E01035B174FF801608127
:10377000CE010E94551BF8016181CE010E94551BAC
:10378000F70111821082C95BD74F19821882DF912D
:10379000CF911F910F91FF90EF90DF90CF90BF904E
:1037A000AF909F908F900895BF92CF92DF92EF924B
:1037B000FF920F931F93CF93DF93EC01B62E8C01F2
:1037C000005C174FFC01E95BF74F80819181F801A4
:1037D000918380836EE784EF9EE00E94832F7E01B9
:1037E000F4EBEF1AF7EFFF0AF7018081882381F0ED
:1037F0008FEF9FEF6E01F3EBCF1AF7EFDF0AF601C1
:10380000918380836B2D0E94B818F6019183808389
:103810006B2DCE010E94551BF80160817181F7016B
:1038200080816038710580F4882371F17E01F3EBAB
:10383000EF1AF7EFFF0AF701808191810E94B81813
:10384000F7019183808320C08823B1F07068672FCF
:103850007E01F3EBEF1AF7EFFF0AF7018081918108
:103860000E94B818F70191838083F80160810E945B
:10387000B818F70191838083F80180819181906865
:10388000692FCE010E94551BF8016081CE01DF91A6
:10389000CF911F910F91FF90EF90DF90CF90BF904D
:1038A0000C94551B0F931F93CF93DF931F92CDB7AB
:1038B000DEB78C01698341E050E0BE016F5F7F4F4E
:1038C0000E94ED19F801E359FF4F6081C8010E9481
:1038D000D41BC8010E94721B0F90DF91CF911F91E2
:1038E0000F910895FF920F931F93CF93DF938A0157
:1038F000422F86E69DE00E94E304C0E086E69DE05C
:103900000E943504892B71F0FF24F394FC0EC8014A
:103910008C0F911DEC0186E69DE00E943D0488839A
:10392000CF2DECCF8C2FDF91CF911F910F91FF9076
:1039300008952F923F924F925F926F927F928F9253
:103940009F92AF92BF92CF92DF92EF92FF920F932E
:103950001F93CF93DF93CDB7DEB769970FB6F89477
:10396000DEBF0FBECDBF8C012DB63EB6862F90E0D8
:10397000FC01E058F109EE31F10508F024C5E853E7
:10398000FF4F9801205C374F79010C94C33BD9015C
:103990008D919C91892BF1F4D801ED91FC910280DD
:1039A000F381E02DC8011995FC0101900020E9F791
:1039B000AF0141505109481B590BD801ED91FC91C1
:1039C0000280F381E02D27C0D9018D919C9102974F
:1039D00009F4B8C486E0F801E459FF4FE0C4F901E6
:1039E00080819181892BB1F7D801ED91FC91048000
:1039F000F581E02DC8011995FC0101900020E9F73F
:103A0000AF0141505109481B590BD801ED91FC9170
:103A10000480F581E02DC801498F588F1995498D93
:103A2000588DBC01C9C4F90180819181892B91F61F
:103A3000D801ED91FC910680F781E02DC801199520
:103A4000FC0101900020E9F7AF0141505109481BEA
:103A5000590BD801ED91FC910680F781E02DDBCF69
:103A6000F90180819181892B09F0B4CFD801ED91C2
:103A7000FC910084F185E02DC8011995FC010190AD
:103A80000020E9F7AF0141505109481B590BD801FB
:103A9000ED91FC910084F185E02DBDCFF90180818D
:103AA0009181892B09F096CFD801ED91FC91028488
:103AB000F385E02DC8011995FC0101900020E9F77C
:103AC000AF0141505109481B590BD801ED91FC91B0
:103AD0000284F385E02D9FCFF90180819181892BAC
:103AE00009F078CFD801ED91FC910484F585E02DA3
:103AF000C8011995FC0101900020E9F7AF01415080
:103B00005109481B590BD801ED91FC910484F585AE
:103B1000E02D81CFF90180819181892B09F05ACF65
:103B2000D801ED91FC910684F785E02DC801199527
:103B3000FC0101900020E9F7AF0141505109481BF9
:103B4000590BD801ED91FC910684F785E02D63CFE8
:103B5000F90180819181892B09F03CCF4AE050E046
:103B60006AE874E029C4D9018D919C91029709F00B
:103B700031CFF801EB5BF74F20813181A801420F73
:103B8000531FDA01A259BF4F8C91DA01A159BF4FDF
:103B90006C912E5F3F4F318320830E94D22C0FC443
:103BA000F90180819181029709F014CFF801EB5B54
:103BB000F74F20813181A801420F531FDA01A2592A
:103BC000BF4F8C91DA01A159BF4F6C912E5F3F4FCF
:103BD000318320830E940B2DF2C3D9018D919C91DA
:103BE000019709F0F7CEF801EB5BF74F20813181A7
:103BF000D801A20FB31FA259BF4F8C912F5F3F4F27
:103C0000318320830E94412D49C3F9018081918134
:103C1000029709F0DFCEF801EB5BF74F208131818D
:103C2000D801A20FB31FA259BF4F8C91A9014F5FBA
:103C30005F4F51834083D901A159BF4FA00FB11FDE
:103C40006D917C912D5F3F4F318320830E946D2DBC
:103C5000B6C3C80184599F4F26E0DC012C93F701BD
:103C6000208131812230310508F4ADC38DB69EB676
:103C7000F801EB5BF74F40815181D801A40FB51FCC
:103C8000A259BF4F6C914F5F5F4F51834083462FC6
:103C900050E0ADB7BEB7A41BB50B0FB6F894BEBFCE
:103CA0000FBEADBF11966D012230310511F46130A8
:103CB00031F04D5F5F4F2417350709F0D3C07C2DDD
:103CC00056012A2D271B261788F420813181A8014F
:103CD000420F531F42595F4FDA014C912F5F3F4F04
:103CE00031832083D5014D935D01EBCFD7012D9119
:103CF0003C9122303105B1F020813181D901A259A6
:103D0000BF4FA00FB11FAD90BC902E5F3F4F3183CE
:103D10002083B9EEAB16B3E0BB0638F029E0FC0116
:103D20002083A0C0AA24A394B12CDC011C92B092E1
:103D3000430EA092420EC80182599F4F9093470EA6
:103D40008093460E80E0688F0E94A709688D6130DD
:103D500029F4F60180810E94740A12C0D092400EAC
:103D6000C0923F0E60933D0E10923C0E85E89AE0A3
:103D700090933B0E80933A0ED6018C910E945A0A82
:103D80001092450E1092440E8091410E0E94C0097F
:103D90000E94732E60932C0E70932D0E80932E0E26
:103DA00090932F0E80917A00886C80937A000E9405
:103DB000BC09863011F40E9499098091420E9091BD
:103DC000430E2091440E3091450E28173907C9F74C
:103DD0000E94732E2B013C0180917A00877D809395
:103DE0007A000E94BC09863011F40E949309609108
:103DF000420E7091430E80E090E00E94723820E005
:103E000034E244E759E40E94AD396B017C018091B2
:103E10002C0E90912D0EA0912E0EB0912F0EA3017D
:103E20009201281B390B4A0B5B0BCA01B9010E9496
:103E300072389B01AC01C701B6010E94D93760936B
:103E4000300E7093310E8093320E9093330EAA0C85
:103E5000BB1CF801E95BF74F80819181A80EB91E68
:103E6000B182A0820FB6F8949EBE0FBE8DBEABC2CB
:103E7000D9018D919C91039709F0ACCDD801AB5B32
:103E8000B74F8D919C911197FC01E259FF4FE00FC4
:103E9000F11F60817181F801E80FF91FE059FF4FB0
:103EA000408103968D939C93D801ED91FC910288FB
:103EB000F389E02DC801199582C2F90180819181B1
:103EC000029709F087CDD801AB5BB74F8D919C91DC
:103ED0001197FC01E259FF4FE00FF11F60817181E2
:103EE00002968D939C93D801ED91FC910088F18905
:103EF000E02DC8011995D2C1F90180819181029705
:103F000009F068CDF801EB5BF74F80819181980152
:103F1000280F391FD901A259BF4F6C91D901A1595E
:103F2000BF4FEC90029691838083CE0101960E9450
:103F30005408CE0101960E944208F12CBE01615F37
:103F40007F4FCE0101960E947708F394EF14B0F7EB
:103F5000980124593F4F7901882309F41EC248E093
:103F600050E0BE01615F7F4FC8010E94ED1912C28F
:103F7000D9018D919C910B9709F02CCDD801AB5BA9
:103F8000B74F2D913C911197A801420F531FFA0191
:103F9000E259FF4F60816901EFEFCE1ADE0A1196F8
:103FA000DC92CE924E01FFE08F0E911C80E090E0FB
:103FB000B82CA92CC00ED11E7601E80EF91E7EE6A3
:103FC000E70EF11CF701F080F401F1924F01019628
:103FD0008830910589F7FA01E958FF4FF080FA011E
:103FE000E858FF4FE080255F3F4F2D933C93CE0173
:103FF00001960E945408CE0101960E941E076B2D67
:104000007A2DCE0101960E941A0840E06F2DCE0154
:1040100001960E94BB07F12CFE1409F4D0C1CE0119
:1040200001960E94FD078F8B41E050E0BE01695E62
:104030007F4FC8010E94ED19F394EECFD9018D9105
:104040009C910B9709F0C6CCD801AB5BB74F2D9173
:104050003C911197A801420F531FFA01E259FF4FFB
:1040600060816901EFEFCE1ADE0A1196DC92CE92E2
:104070004E01FFE08F0E911C80E090E0B82CA92C3F
:10408000C00ED11E7601E80EF91E7EE6E70EF11C89
:10409000F701F080F401F1924F010196883091050B
:1040A00089F7FA01E958FF4FF080FA01E858FF4F0D
:1040B0004081255F3F4F2D933C93CE010196498F60
:1040C0000E945408CE0101960E941E076B2D7A2D86
:1040D000CE0101960E941A08498D6F2DCE010196DE
:1040E0000E94BB076CC1D9018D919C91029709F088
:1040F00071CCF801EB5BF74F808191819801280F1B
:10410000391FD901A259BF4F6C91D901A159BF4F95
:10411000EC900296918380834E2D86E69DE00E946E
:10412000E304F12C86E69DE00E943504892B79F0AA
:1041300086E69DE00E943D04898341E050E0BE0197
:104140006F5F7F4FC8010E94ED19F394EBCFF80128
:10415000E459FF4FFE1409F435C181E020C1F90193
:1041600080819181029708F435CC6801FBEBCF1A6E
:10417000F7EFDF0AD6018D919C911197F801E80FB6
:10418000F91FE259FF4F608101968D939C9386E65B
:104190009DE00E94E904B12C2B2D30E0F7018081D5
:1041A000918101972817390798F4F6018081918150
:1041B000F801E80FF91FE259FF4F60810196D6011F
:1041C0008D939C9386E69DE00E948D04B394E4CF8A
:1041D00086E69DE00E940805F2C0D9018D919C9170
:1041E000019709F0F7CBF801EB5BF74F20813181A4
:1041F000D801A20FB31FA259BF4F8C912F5F3F4F21
:10420000318320830E941904DAC0F90180819181F1
:10421000019709F0DFCBF801EB5BF74F208131818B
:10422000D801A20FB31FA259BF4F8C912F5F3F4FF0
:10423000318320830E942704C2C0D9018D919C91B3
:10424000019709F0C7CBF801EB5BF74F2081318173
:10425000D801A20FB31FA259BF4F8C912F5F3F4FC0
:10426000318320830E942204AAC0F90180819181B8
:10427000019709F0AFCBF801EB5BF74F808191819B
:10428000D801A80FB91FA259BF4F2C910196918355
:1042900080832EBD0DB407FEFDCF8EB5898341E02E
:1042A00050E04CC0D9018D919C91892B09F092CBA3
:1042B000F801EA59FF4F40815181B8016E5F7F4F8D
:1042C0007BC0F90180819181892B09F083CB80919A
:1042D000340E9091350EA091360EB091370E898331
:1042E0009A83AB83BC8344E050E028C0D9018D9110
:1042F0009C91049709F06ECBD801AB5BB74F2D9121
:104300003C911197F901E259FF4FE00FF11F6081D5
:104310007181828193812C5F3F4F2D933C930E944A
:10432000CE094DC0F90180819181892B09F052CBD2
:104330000E948E099A83898342E050E0BE016F5F3C
:104340007F4F3AC0D801AB5BB74F2D913C9111978D
:10435000F901E259FF4FE00FF11F808191812E5F3B
:104360003F4F2D933C939C0122503109F801E459B1
:10437000FF4F7F012630310580F490917A00987FBD
:1043800090937A0090917A00982B90937A0080E035
:104390000E94C009D7011C9216C085E0F7018083F6
:1043A00012C0D9018D919C91892B09F013CB44E067
:1043B00050E0B80168597F4FC8010E94ED19F8011B
:1043C000E459FF4F10827801BCE6EB0EF11CF701B7
:1043D0006081C8010E94521CD7018C910FB6F894DD
:1043E0003EBE0FBE2DBE69960FB6F894DEBF0FBE5F
:1043F000CDBFDF91CF911F910F91FF90EF90DF9094
:10440000CF90BF90AF909F908F907F906F905F9074
:104410004F903F902F900895EF92FF920F931F932C
:10442000CF93DF931F921F92CDB7DEB7122F86E690
:104430009DE049835A830E94E9044981042FE42EB8
:104440005A81F52E8E2D801B811740F4F701619162
:104450007F0186E69DE00E948D04F4CF86E69DE014
:104460000F900F90DF91CF911F910F91FF90EF90E0
:104470000C940805CF93DF93EC0184EF9EE00E943B
:10448000292F181619064CF484EF9EE00E94562F2F
:10449000682FCE010E94401AF0CFDF91CF9108958E
:1044A0001092450E1092440E8091410E0E94C00958
:1044B0000E94732E60932C0E70932D0E80932E0EFF
:1044C00090932F0E80917A00886C80937A000E94DE
:1044D000BC09863011F40C94990908958F929F922B
:1044E000AF92BF92CF92DF92EF92FF920E94732E13
:1044F0004B015C0180917A00877D80937A000E9455
:10450000BC09863011F40E9493096091420E7091AB
:10451000430E80E090E00E94723820E034E244E7ED
:1045200059E40E94AD396B017C0180912C0E909171
:104530002D0EA0912E0EB0912F0EA5019401281BD7
:10454000390B4A0B5B0BCA01B9010E9472389B01FF
:10455000AC01C701B6010E94D9376093300E709349
:10456000310E8093320E9093330EFF90EF90DF90D8
:10457000CF90BF90AF909F908F900895CF93DF938F
:10458000D82FC62F811109C0662321F06130B1F503
:1045900060E001C061E08DE01DC0813079F56130DF
:1045A00049F030F0623061F0633041F560E01DC0E9
:1045B00061E01BC060E08CE00E940B2D61E019C03F
:1045C00060E08CE00E940B2D60E08BE00E940B2DE0
:1045D00061E08AE00E940B2D8BE1D89FF00111244D
:1045E000E65BF14FC18380E00AC08CE00E940B2D96
:1045F00060E08BE00E940B2D60E0EBCF85E0DF9167
:10460000CF9108959093820E8093810E60934A0E0D
:104610004093650E60E078EB88E097E40E94CE0955
:1046200080E00E946A2D61E08DE00E94D22C61E062
:104630008CE00E94D22C61E08BE00E94D22C61E0E1
:104640008AE00E94D22CEAE7F0E08081887F8083B4
:1046500080818360808360E080E00E94BE2260E011
:1046600081E00E94BE2220E032E03093600E209371
:104670005F0E80E090E0A0E0B4E48093610E909340
:10468000620EA093630EB093640E41E040935A0E05
:1046900030937B0E20937A0E80937C0E90937D0E48
:1046A000A0937E0EB0937F0E4093750E08950F93E6
:1046B0001F93CF93DF93AB019BE1899FE00111240E
:1046C000C65BD14F9B01235331092A39334090F007
:1046D0009B8191110CC09A819F5F9A8369816623A7
:1046E00019F061500E94BE2283E08B8337C0915045
:1046F0009B8334C08091800E882309F18D899E8927
:10470000DB01A81BB90B9D010E946F3B09891A8927
:104710002B893C89060F171F281F391F098B1A8BFD
:104720002B8B3C8B88859985AA85BB85840F951F2B
:10473000A11DB11D88879987AA87BB870FC08C816F
:104740009D818617970718F47D836C8307C08E813F
:104750009F816817790710F47F836E83DF91CF9173
:104760001F910F91089580E00C94572381E00C94E1
:1047700057232F923F924F925F926F927F928F9228
:104780009F92AF92BF92CF92DF92EF92FF920F93E0
:104790001F93CF93DF93CDB7DEB764970FB6F8942E
:1047A000DEBF0FBECDBF29013A01E986FA860B872D
:1047B0001C871601BA8AA98A0E94AD3920E030E030
:1047C0004AE754E40E94D9379B01AC010E945E374E
:1047D0006B017C0120E030E0A9010E94643920E0F7
:1047E00030E040E05FE387FD05C0C701B6010E94ED
:1047F0005E3704C0C701B6010E945D370E94413890
:104800000E94743820E030E040E05FE30E94AD3960
:104810006D837E838F839887A30192016D817E8152
:104820008F8198850E94D93729853A854B855C858B
:104830000E94AD390E94C2370E9446388B01023077
:10484000110508F42DC3B80180E090E00E94723891
:104850002D813E814F8158850E94D937A301920155
:104860000E94AD3969837A838B839C83D1016D93D8
:104870007D938D939C93139729853A854B855C8511
:104880000E94643918160CF408C3A30192016981CF
:104890007A818B819C810E94D9376B017C019B01BD
:1048A000AC0160E070E080E090E40E94D9374B01F9
:1048B0005C0120E030E0A9010E94643920E030E092
:1048C00040E05FE387FD05C0C501B4010E945E378B
:1048D00004C0C501B4010E945D370E9441380E94A6
:1048E0007438A70196010E94AD399B01AC0160E0CC
:1048F00070E080E090E40E945D3720E030E0A901A4
:104900000E94643920E030E0A901181664F5C50161
:10491000B4010E94643920E030E040E05FE387FDAD
:1049200005C0C501B4010E945E3704C0C501B401D1
:104930000E945D370E9441380E947438A701960199
:104940000E94AD399B01AC0160E070E080E090E432
:104950000E945D372DEC3CEC4CEC5DE30E94D537BA
:1049600087FD9BC22CC0C501B4010E94643920E0C0
:1049700030E040E05FE387FD05C0C501B4010E945F
:104980005E3704C0C501B4010E945D370E94413802
:104990000E947438A70196010E94AD399B01AC01B9
:1049A00060E070E080E090E40E945D372DEC3CEC2C
:1049B0004CEC5DEB0E94643918160CF46EC2A30136
:1049C0009201C301B2010E945E379B01AC01698173
:1049D0007A818B819C810E94D53787FF61C12981B3
:1049E0003A814B815C81C301B2010E94D9376D8746
:1049F0007E878F87988B1C8A1B8AEB89FC89BF0175
:104A000080E090E00E9472384B015C019B01AC0198
:104A10006D857E858F8598890E945D3720E030E026
:104A200040E05FE30E94D53718163CF42B893C899F
:104A30002F5F3F4F3C8B2B8BE0CF29813A814B81FD
:104A40005C81C501B4010E94AD399B01AC01C30179
:104A5000B2010E945D374B015C0120E030E0A9010A
:104A60000E946439181624F0B7FAB094B7F8B094DD
:104A7000A501940169817A818B819C810E94D9373B
:104A800069837A838B839C839B01AC0160E070E037
:104A900080E090E40E94D9374B015C0120E030E0D7
:104AA000A9010E94643920E030E040E05FE387FD27
:104AB00005C0C501B4010E945E3704C0C501B40140
:104AC0000E945D370E9441380E94743829813A81E2
:104AD0004B815C810E94AD399B01AC0160E070E0CC
:104AE00080E090E40E945D3720E030E0A9010E9460
:104AF000643920E030E0A901181674F5C501B4014D
:104B00000E94643920E030E040E05FE387FD05C0AB
:104B1000C501B4010E945E3704C0C501B4010E9402
:104B20005D370E9441380E94743829813A814B8157
:104B30005C810E94AD399B01AC0160E070E080E0D7
:104B400090E40E945D372DEC3CEC4CEC5DE30E9460
:104B5000D53787FF2FC0A1C1C501B4010E946439B8
:104B600020E030E040E05FE387FD05C0C501B4010F
:104B70000E945E3704C0C501B4010E945D370E94E7
:104B800041380E94743829813A814B815C810E94AE
:104B9000AD399B01AC0160E070E080E090E40E94E0
:104BA0005D372DEC3CEC4CEC5DEB0E946439181643
:104BB0000CF473C120E030E0A901C701B6010E94E6
:104BC000643920E030E040E05FE387FD05C0C701C5
:104BD000B6010E945E3704C0C701B6010E945D376E
:104BE0000E9441380E9474389B01AC01C701B60194
:104BF0000E945D3720E030E0A9010E94643920E086
:104C000030E0A901181634F5C701B6010E946439D5
:104C100020E030E040E05FE387FD05C0C701B6015A
:104C20000E945E3704C0C701B6010E945D370E9432
:104C300041380E9474389B01AC01C701B6010E9443
:104C40005D3727E137EB41ED58E30E94D53787FF09
:104C500027C023C1C701B6010E94643920E030E0BB
:104C600040E05FE387FD05C0C701B6010E945E37E3
:104C700004C0C701B6010E945D370E9441380E94FE
:104C800074389B01AC01C701B6010E945D3727E172
:104C900037EB41ED58EB0E94643918160CF4FDC057
:104CA00020E030E040E251E4C701B6010E94D53770
:104CB00087FF76C020E030E0A901C701B6010E945D
:104CC000643920E030E040E05FE387FD05C0C701C4
:104CD000B6010E945E3704C0C701B6010E945D376D
:104CE0000E9441380E9474389B01AC01C701B60193
:104CF0000E945D3720E030E0A9010E94643920E085
:104D000030E0A901181634F5C701B6010E946439D4
:104D100020E030E040E05FE387FD05C0C701B60159
:104D20000E945E3704C0C701B6010E945D370E9431
:104D300041380E9474389B01AC01C701B6010E9442
:104D40005D3727E137EB41ED58E30E94D53787FF08
:104D500027C0A3C0C701B6010E94643920E030E03B
:104D600040E05FE387FD05C0C701B6010E945E37E2
:104D700004C0C701B6010E945D370E9441380E94FD
:104D800074389B01AC01C701B6010E945D3727E171
:104D900037EB41ED58EB0E94643918160CF47DC0D6
:104DA0002D813E814F815885C701B6010E94AD39E2
:104DB0006B017C0120E030E0A9010E94643920E011
:104DC00030E040E05FE387FD05C0C701B6010E9407
:104DD0005E3704C0C701B6010E945D370E944138AA
:104DE0000E9474389B01AC01C701B6010E945D3777
:104DF00020E030E0A9010E94643920E030E0A90100
:104E0000181634F5C701B6010E94643920E030E07D
:104E100040E05FE387FD05C0C701B6010E945E3731
:104E200004C0C701B6010E945D370E9441380E944C
:104E300074389B01AC01C701B6010E945D3727E1C0
:104E400037EB41ED58E30E94D53787FF26C033C0CA
:104E5000C701B6010E94643920E030E040E05FE322
:104E600087FD05C0C701B6010E945E3704C0C701B7
:104E7000B6010E945D370E9441380E9474389B0140
:104E8000AC01C701B6010E945D3727E137EB41ED68
:104E900058EB0E946439181674F001501109CFCCF8
:104EA00020E030E040E05FE36D817E818F81988576
:104EB0000E945E37ADCCA989BA890D931C93649684
:104EC0000FB6F894DEBF0FBECDBFDF91CF911F911B
:104ED0000F91FF90EF90DF90CF90BF90AF909F9099
:104EE0008F907F906F905F904F903F902F9008959C
:104EF0008BE1EAE4FEE0DF01982F1D929A95E9F735
:104F0000E5E6FEE0DF011D928A95E9F708952F920C
:104F10003F924F925F926F927F928F929F92AF9249
:104F2000BF92CF92DF92EF92FF920F931F93CF9396
:104F3000DF93CDB7DEB7C85CD1090FB6F894DEBFFA
:104F40000FBECDBFC354DF4F59834883CD5BD040E4
:104F5000CF53DF4F088319832A833B83C15CD04042
:104F600026013701CD54DF4FA882C35BD040809229
:104F7000800EAA2031F1A3E8AA2EAEE0BA2EAE012F
:104F800049555F4F6A01E12C10E4F12E0CE916E45B
:104F9000A30192010E94B923C955DF4F688179812D
:104FA0008A819B81C75AD0409B01AC010E945E3729
:104FB000C955DF4F688379838A839B83C75AD04062
:104FC00017C020E030E040E05FE30E94AD39E3E845
:104FD000AE2EEEE0BE2EDE01A955BF4F6D01E12CD5
:104FE00010E4F12E0CE117E4A30192010E94B92311
:104FF0008091830E9091840E880F991F9093840E58
:105000008093830EC955DF4F688179818A819B81A6
:10501000C75AD0400E94CE09B0914B0EC154DF4F09
:10502000B883CF5BD04081E0C355DF4F8883CD5A32
:10503000D04061E080E00E94BE22E091660EC05444
:10504000DF4FE883C05CD04083E0C255DF4F8883E8
:10505000CE5AD04063E081E00E94BE2280914A0E89
:10506000FE01E555FF4F80839091650E918320915D
:10507000830E3091840ECD54DF4F4881C35BD04006
:10508000442311F13093430E2093420EF093400ECF
:10509000E0933F0E92E090933D0E10923C0E25E877
:1050A0003AE030933B0E20933A0E0E945A0A8DE963
:1050B0009AE090933B0E80933A0E87E593E29093AB
:1050C000390E8093380E06C0369527953093430EDF
:1050D0002093420EE090810EF090820EF701E85985
:1050E000FF4F20E030EC4FE754E460817181828112
:1050F00093810E94D937C754DF4F688379838A83AD
:105100009B83C95BD0401E015FE9250E311C2E0137
:1051100083E1480E511CCE01805B9F4F3C01AAE009
:105120006A0E711CF1013896C155DF4FF983E8838F
:10513000CF5AD040CC54DF4F8883C45BD040C85492
:10514000DF4F9883C85BD04087010C59174F9701F8
:10515000255A374FCF54DF4F39832883C15BD04066
:1051600080914A0EF801CC54DF4FA881C45BD04037
:10517000C854DF4FB881C85BD0409FE401900D92C6
:105180009A95E1F7882341F0813061F4F301208999
:1051900031894289538909C0D3012D913D914D91A7
:1051A0005C9103C020E030E0A901F801DE01119616
:1051B0009FE401900D929A95E1F7882341F08130A8
:1051C00061F4F201C08CD18CE28CF38C09C0D20165
:1051D000CD90DD90ED90FC9003C0C12CD12C7601D8
:1051E00060E876E988E19BE40E94D93720E030E06E
:1051F00040E85FE30E945E374B015C0120E836E93E
:1052000048E15BE4C701B6010E94AD399B01AC01E6
:105210000E945E372BED3FE049E450E40E94AD3937
:10522000CF54DF4FA881B981C15BD0402D913D9112
:105230004D915C910E94AD396B017C01A5019401F7
:10524000C501B4010E94AD394B015C01A701960173
:10525000C701B6010E94AD399B01AC01C501B40183
:105260000E945E370E94603A9B01AC01C754DF4F39
:10527000688179818A819B81C95BD0400E94AD3968
:10528000F10161937193819391931F01F4E04F0EAB
:10529000511C24E0620E711CC155DF4F48815981B9
:1052A000CF5AD0402416350609F05ACFCF54DF4FDD
:1052B00019821882C15BD040CF54DF4F8881998119
:1052C000C15BD040C354DF4FA881B981CD5BD040D2
:1052D0008A179B0709F4E6C28091800E10924C0E4B
:1052E00010924D0E81110BC0EFEFF3E0F093510ED1
:1052F000E093500E10924F0E10924E0E10C010926E
:10530000520E1092530E1092540E1092550E10928F
:105310005B0E10925C0E10925D0E10925E0E10925B
:10532000670E1092680E882389F010926D0E10920D
:105330006E0E10926F0E1092700E1092760E1092EA
:10534000770E1092780E1092790E0AC08FEF93E0CC
:1053500090936C0E80936B0E10926A0E1092690EF1
:10536000CD54DF4F9881C35BD040992309F445C0E9
:105370000E9450228091420E9091430E2091440E43
:105380003091450E28173907C9F70E946E220E94F6
:10539000732ECC54DF4F688379838A839B83C45BED
:1053A000D040A091800EC854DF4FA883C85BD04086
:1053B0008091830E9091840EFE01E355FF4FC155FD
:1053C000DF4FF983E883CF5AD0400AE41EE09E0104
:1053D0002F5F3F4F2901AE01405B5F4F1A01612CE7
:1053E000712C9C0140E050E0CB53DF4F2883398380
:1053F0004A835B83C55CD040AAC080914A0E0E945C
:10540000740A4DE95AE050933B0E40933A0E83EBF9
:1054100093E29093390E8093380E0E94502280912F
:10542000420E9091430E2091440E3091450E281764
:105430003907C9F70E946E228091650E0E94740A96
:10544000ADE9BAE0B0933B0EA0933A0EE6EBF3E27F
:10545000F093390EE093380E0E9450228091420E54
:105460009091430E2091440E3091450E2817390734
:10547000C9F78BCFCB53DF4F688179818A819B81BC
:10548000C55CD0400E9472386B017C01D8015196F6
:105490006D917D918D919C9154970E9472389B01E2
:1054A000AC010E945E37A70196010E94D9370E9485
:1054B000603AF201608371838283938320E030E05D
:1054C00040E852E40E94AD399B01AC010E945E3776
:1054D00023EF34E045EB5FE30E94AD390E9446388C
:1054E000D1016D937C93F301E65BF14F82818823B8
:1054F000B9F1F301E65BF14F8281882309F4B3C06F
:105500008195C155DF4FA881B981CF5AD0408C9386
:10551000B1E0B08BC155DF4FE881F981CF5AD0405F
:105520003196C155DF4FF983E883CF5AD040FBE174
:105530006F0E711C055E1F4F22E0220E311C34E0FD
:10554000430E511C46E36416710409F496C0C85416
:10555000DF4FF881C85BD040FF2309F45AC08ACFDF
:1055600080898111C6CFF80180849184A284B3849C
:105570006485758586859785680D791D8A1D9B1DB7
:105580000E9472382AE037ED43E25CE30E94AD39B5
:10559000A70196010E94D9376B017C0124EA30E70C
:1055A0004DE75FE3D80157966D917D918D919C9168
:1055B0005A970E94AD399B01AC01C701B6010E9408
:1055C0005E376B017C01F801678B708F818F928F42
:1055D00020E030E0A9010E94643920E030E040E0A2
:1055E0005FE387FD05C0C701B6010E945E3704C0B6
:1055F000C701B6010E945D370E944138D801569616
:105600007C936E935597F80184869586A686B78617
:1056100070CFD80114966D917C91159716968D9147
:105620009C911797681B790B96E0660F771F9A95E8
:10563000E1F7F1017183608380E090E00E947238AD
:1056400023EF34E045EB5FE30E94D93720E030E000
:1056500040E05CE30E94AD39D2016D937D938D9360
:105660009C93139746CF8181C155DF4FA881B981A3
:10567000CF5AD0408C93108A4DCF0091810E10915B
:10568000820EF801ED59F74F8081882309F468C034
:1056900080914C0E811164C0F801E95AF74FC08027
:1056A000D180E280F38020E030E0A901C701B6019B
:1056B0000E94643918160CF053C0C355DF4F88811F
:1056C000CD5AD040EFE9F0E0EC0FFD1F24E082025C
:1056D000E00DF11D112420813181428153816981C6
:1056E0007A818B819C810E94AD394B015C01809154
:1056F000670E8111ABC02D813E814F815885C75403
:10570000DF4F688179818A819B81C95BD0400E948B
:10571000AD399B01AC01C701B6010E945E372B0178
:105720003C019B01AC01C501B4010E945D376B01D6
:105730007C0120E030E0A9010E94643918160CF4C5
:1057400089C0C701B6019058F801EE55F74F208186
:105750003181428153810E94643918160CF47DC056
:105760000BE41EE0CE01805B9F4F6C01E12CF12C1D
:10577000D6018D919C91893C9C4030F4F801608168
:105780006F5F8E2D0E94BE2242E050E0B6018091F4
:10579000810E9091820E0E94ED196DEA70E06C0FFF
:1057A0007D1F6E0D7F1D41E050E08091810E909134
:1057B000820E0E94ED19FFEFEF1AFF0A22E0C20EDF
:1057C000D11C055E1F4F32E0E316F10489F684EF29
:1057D0009EE00E94292F181619060CF463C00E943F
:1057E000732ECC54DF4F288139814A815B81C45BA1
:1057F000D040621B730B840B950B0E9472386B01B7
:105800007C0120E030E04AE754E4CF53DF4F688169
:1058100079818A819B81C15CD0400E94AD399B0116
:10582000AC01C701B6010E94D53787FDD8CFCF5450
:10583000DF4F48815981C15BD0404F5F5F4FCF54EC
:10584000DF4F59834883C15BD04036CD20E030E044
:10585000A90161CFC701B60177CFF801E15AF74F2F
:105860002081318142815381C501B4010E94AD394B
:10587000A30192010E94D9376B017C0120E030E046
:1058800040E85FE30E94D53787FF06C0C12CD12CCA
:1058900080E8E82E8FE3F82EB701A601C8010E9428
:1058A000A60C5ECFC154DF4F6881CF5BD04080E053
:1058B0000E94BE22C054DF4F6881C05CD04081E0AE
:1058C0000E94BE22C354DF4F88819981CD5BD040B6
:1058D000C853DF4F0FB6F894DEBF0FBECDBFDF91C8
:1058E000CF911F910F91FF90EF90DF90CF90BF90DD
:1058F000AF909F908F907F906F905F904F903F9070
:105900002F90089590E0FC013197E131F10508F006
:1059100048C0EA51FF4F0C94C33B809180008F77C1
:1059200003C0809180008F7D80938000089584B5AE
:105930008F7702C084B58F7D84BD08958091B000BB
:105940008F7703C08091B0008F7D8093B000089561
:10595000809190008F7707C0809190008F7D03C069
:1059600080919000877F8093900008958091A0009F
:105970008F7707C08091A0008F7D03C08091A00029
:10598000877F8093A0000895809120018F7707C0C2
:10599000809120018F7D03C080912001877F8093BB
:1059A00020010895CF93DF9390E0FC01E852FD4F72
:1059B0002491FC01E25EFC4F8491882349F190E040
:1059C000880F991FFC01E856FC4FA591B4918258AD
:1059D0009C4FFC01C591D4919FB7611108C0F89408
:1059E0008C91209582238C93888182230AC0623017
:1059F00051F4F8948C91322F309583238C938881C5
:105A0000822B888304C0F8948C91822B8C939FBF47
:105A1000DF91CF9108950F931F93CF93DF931F9240
:105A2000CDB7DEB7282F30E0F901EE56FD4F849157
:105A3000F901E852FD4F1491F901E25EFC4F049127
:105A40000023C9F0882321F069830E94822C698198
:105A5000E02FF0E0EE0FFF1FE258FC4FA591B4914C
:105A60009FB7F8948C91611103C01095812301C0F8
:105A7000812B8C939FBF0F90DF91CF911F910F913E
:105A80000895CF93DF93282F30E0F901EE56FD4FB4
:105A90008491F901E852FD4FD491F901E25EFC4F87
:105AA000C491CC2391F081110E94822CEC2FF0E064
:105AB000EE0FFF1FEC59FC4FA591B4912C912D23B3
:105AC00081E090E021F480E002C080E090E0DF918E
:105AD000CF9108958093080208951F93CF93DF9389
