:100000000C9426010C9453010C9453010C9453014D
:100010000C9453010C9453010C9453010C94530110
:100020000C9453010C9453010C9453010C94530100
:100030000C9453010C9453010C9453010C945301F0
:100040000C9453010C9453010C9453010C945301E0
:100050000C94B6060C9453010C9453010C94073382
:100060000C9453010C9431360C9479370C94530151
:100070000C9453010C948B060C9453010C94530173
:100080000C9453010C9453010C9453010C94E60905
:100090000C9471360C94B8370C9453010C94D30B18
:1000A0000C9453010C9453010C9453010C94530180
:1000B0000C9453010C9453010C9453010C94530170
:1000C0000C9453010C9453010C9453010C94B136CD
:1000D0000C94F7370C9453010C94F1360C94363889
:1000E0000C9453018221BC21F6213022B5226A22D0
:1000F000EF224A2390236D23E323BC23E624BF246D
:100100001725F125732590264926D126EC260627AA
:100110002627502729238627A927C727E42712281F
:1001200000002100240027002A002D0030003300A9
:1001300001010000040107010A010000220025005E
:1001400028002B002E0031003400020100000501C0
:1001500008010B01000020002300260029002C00CC
:100160002F0032000001000003010601090105050E
:100170000505070508080808020202020A0A08081D
:10018000040404040101010101010101030303034B
:1001900003030303040707070C0C0C0C0C0C0C0CDA
:1001A0000202020206060606060606060B0B0B0BEB
:1001B0000B0B0B0B01021020200808102040102010
:1001C000408002010201080402010102040810201B
:1001D0004080804020100804020180040201804019
:1001E0002010080402010804020101020408102082
:1001F000408001020408102040800000090A020823
:100200000B0C0D07060304010000000000000000B5
:1002100000000000000000000000000000000000DE
:1002200000000000000011100F000000000000009E
:1002300000000000000000000000000000000000BE
:100240008803C006550A6228A639810311241FBEFF
:10025000CFEFD1E2DEBFCDBF00E00CBF14E0A0E0E5
:10026000B2E0E4EFF4E800E00BBF02C007900D92AB
:10027000AC3CB107D9F71BBE11E1ACECB4E001C056
:100280001D92A236B107E1F712E0CAE4D2E004C041
:100290002297FE010E943242C034D107C9F70E9462
:1002A0004B040C946D420C940000CF93DF93BC017F
:1002B0008230910510F462E070E0A0916011B0917D
:1002C0006111ED01E0E0F0E040E050E021C0888104
:1002D00099818617970769F48A819B81309719F075
:1002E0009383828304C09093611180936011FE0117
:1002F00034C06817790738F44115510519F084178F
:10030000950708F4AC01FE018A819B819C01E901FB
:100310002097E9F641155105A9F1CA01861B970BF3
:10032000049708F4BA01E0E0F0E02AC08D919C91B6
:10033000119784179507F9F46417750781F41296DD
:100340008D919C911397309719F09383828304C009
:100350009093611180936011FD0132964CC0CA01E7
:10036000861B970BFD01E80FF91F619371930297AC
:100370008D939C9340C0FD01828193819C01D901A2
:100380001097A1F680915E1190915F11892B41F435
:100390008091DD039091DE0390935F1180935E1155
:1003A0004091DF035091E0034115510541F44DB7F1
:1003B0005EB78091DB039091DC03481B590B2091C1
:1003C0005E1130915F11CA01821B930B861797074C
:1003D00080F0AB014E5F5F4F8417950750F0420FDE
:1003E000531F50935F1140935E11F9016193719314
:1003F00002C0E0E0F0E0CF01DF91CF910895CF930C
:10040000DF93009709F450C0EC0122971B821A82F7
:10041000A0916011B0916111109709F140E050E096
:10042000AC17BD0708F1BB83AA83FE01219131916E
:10043000E20FF31FAE17BF0779F48D919C911197CE
:10044000280F391F2E5F3F4F3983288312968D91D5
:100450009C9113979B838A834115510571F4D09326
:100460006111C093601120C012968D919C911397D9
:10047000AD01009711F0DC01D3CFFA01D383C28321
:1004800021913191E20FF31FCE17DF0769F48881C4
:100490009981280F391F2E5F3F4FFA013183208346
:1004A0008A819B8193838283DF91CF910895A0E01D
:1004B000B0E0EDE5F2E00C9438426C01009729F4CD
:1004C000CB010E9455016C01C1C08EEF882E8FEFC9
:1004D000982E8C0C9D1C8601060F171F08151905F8
:1004E00008F4B2C0F401A081B181A617B707B8F033
:1004F000A530B10508F4AAC0CD0104978617970767
:1005000008F4A4C01297A61BB70BF801A193B193EE
:10051000D4016D937C93CF010E94FF0197C07B01B2
:10052000EA1AFB0AEEEFFFEFEE0EFF1E36016A0E2F
:100530007B1EC0916011D091611144245524AA24DE
:10054000BB244AC0C615D705E1F5488159814E152F
:100550005F05B8F1CA0104978E159F05B0F4129695
:10056000A40FB51FF401B183A0832A813B814114FC
:10057000510431F0D20113963C932E93129766C02A
:10058000309361112093601161C08A819B81F801D1
:1005900093838283425050404E195F0951834083B8
:1005A0004114510431F0D20113961C930E9312970B
:1005B00004C01093611100936011F4017183608392
:1005C00045C088819981A816B90608F45C012E01FE
:1005D0008A819B819C01E901209709F0B3CF80912A
:1005E0005E1190915F1186159705E9F4A616B7067E
:1005F000D0F42091DF033091E0032115310541F45F
:100600002DB73EB78091DB039091DC03281B390B9B
:1006100002171307C8F410935F1100935E11D40101
:100620006D937C9313C0CB010E945501EC010097A0
:1006300059F0F40140815181B6010E942C03C6019A
:100640000E94FF016E0102C0CC24DD24C601CDB79B
:10065000DEB7E0E10C945442FB01DC0102C00190E2
:100660000D9241505040D8F70895FB01DC010190F4
:100670000D920020E1F70895FB019F01423074F0D4
:10068000453264F4642F77270E94FA41805D8A33F3
:100690000CF0895D8193CB010097A1F71082C9010D
:1006A0000C945203DC01FC01672F71917723E1F771
:1006B000329704C07C916D9370836291AE17BF072F
:1006C000C8F308958091E1039091E203019690931D
:1006D000E2038093E10308958130910541F46F5F57
:1006E0007F4F71F48CEC94E00E948C140895892B58
:1006F00039F46F5F7F4F21F48CEC94E00E948314F7
:10070000089580E090E06FEF7FEF0E946C03089502
:1007100081E090E06FEF7FEF0E946C03089580E12D
:10072000809391001092900085E08093AF0D86E950
:1007300098E99093AE0D8093AD0D909397008093C0
:10074000960085E18093910082E693E09093B10D4D
:100750008093B00D81E0809371008CEC94E00E9456
:10076000821186ED90E160E072E00E94853C6FEFBF
:1007700071E26050724086ED90E14AE050E00E94E4
:10078000663C86ED90E165E072E00E94853C6CEC91
:1007900074E06050724086ED90E14AE050E00E94C3
:1007A000663C86ED90E16CE072E00E94853C62E67A
:1007B00071E16C5C744086ED90E14AE050E00E948B
:1007C000663C86ED90E162E172E00E94853C6091BA
:1007D0005E1170915F116115710519F460E070E0B0
:1007E00002C06256714186ED90E14AE050E00E94FD
:1007F000663C86ED90E168E172E00E94853C8DB731
:100800009EB76FEF71E2681B790B86ED90E14AE0CD
:1008100050E00E94663C86ED90E16FE172E00E943C
:10082000853C80915E1190915F11009729F46DB71E
:100830007EB76256714104C06DB77EB7681B790BF5
:1008400086ED90E14AE050E00E94663C08958CEC11
:1008500094E00E944B1F8091E1039091E20369E1D3
:1008600070E00E94FA41892BA9F480911E0D882323
:1008700059F080911F0D882329F48CEC94E00E949C
:100880007D0D02C010921F0D81E090E09093E20375
:100890008093E1030895CF93DF930E94D8330E94A1
:1008A0008F03C0E3D7E30E9427042097E1F30E945F
:1008B0003037F9CFEAE7F0E09081987F908390811C
:1008C000982B9083089520917A0030E02770307043
:1008D000C9010895EF92FF920F931F937B018C0142
:1008E00080E1809381001092800060E074E284E7F0
:1008F00099E4A80197010E948E3F20E030E040E09B
:1009000051E40E941F410E94FB3F9B01AC0120303B
:1009100080E0380781E0480780E0580728F481E04C
:100920008093AB0DB90155C0203080E0380788E0D6
:10093000480780E0580768F482E08093AB0DDA0145
:10094000C901E3E0B695A79597958795EA95D1F704
:1009500014C0203080E0380780E4480780E0580762
:1009600070F483E08093AB0DDA01C90176E0B695AF
:10097000A795979587957A95D1F7BC012AC0203025
:1009800080E0380780E0480781E0580740F484E0C1
:100990008093AB0DBB27A52F942F832FEECF203054
:1009A00080E0380780E0480784E0580768F485E075
:1009B0008093AB0DDA01C9012AE0B695A79597950A
:1009C00087952A95D1F7D9CF85E08093AB0D6FEF4E
:1009D0007FEF709387006093860091E090936F00A3
:1009E00080917B00887F80937B0080917B00866074
:1009F00080937B009093950D80917A008062809324
:100A00007A00E0929F0DF092A00D0093A10D10933B
:100A1000A20D1F910F91FF90EF900895882321F070
:100A200080917C00806203C080917C008F7D8093E8
:100A30007C0008958093950D882321F080917A00A1
:100A4000806203C080917A008F7D80937A00089540
:100A500091E09093990D1092970D1092960D10922F
:100A60009A0D20EE35E030939C0D20939B0D8093E2
:100A7000980D90917C00907F90937C0020917C0059
:100A8000982F9770922B90937C00883020F0809163
:100A90007B00886003C080917B00877F80937B0010
:100AA00008958093980D90917C00907F90937C00A6
:100AB00020917C00982F9770922B90937C00883027
:100AC00020F080917B00886003C080917B00877F4D
:100AD00080937B00089580919A0D8F5F80939A0D8B
:100AE0009091990D891711F410929A0D80919A0D99
:100AF000E091960DF091970DE80FF11D2081209364
:100B0000980D80917C00807F80937C0090917C0088
:100B1000822F8770892B80937C00283020F0809171
:100B20007B00886003C080917B00877F80937B007F
:100B300050917800409179002091910D3091920D63
:100B40008091930D9091940D28173907C0F58091ED
:100B5000950D882329F480917A00806480937A002F
:100B6000942F80E0452F50E0482B592B80917C003A
:100B700085FF11C08091910D9091920DE0918D0DA6
:100B8000F0918E0DE80FF91F508301969093920D0E
:100B90008093910D08958091910D9091920D9C01FB
:100BA000220F331FE0918F0DF091900DE20FF31F94
:100BB0005183408301969093920D8093910D0895F7
:100BC00050917800409179002091910D3091920DD3
:100BD0008091930D9091940D28173907C0F580915D
:100BE000950D882329F480917A00806480937A009F
:100BF000942F80E0452F50E0482B592B80917C00AA
:100C000085FF11C08091910D9091920DE0918D0D15
:100C1000F0918E0DE80FF91F508301969093920D7D
:100C20008093910D08958091910D9091920D9C016A
:100C3000220F331FE0918F0DF091900DE20FF31F03
:100C40005183408301969093920D8093910D089566
:100C500050919A0D9091990D923050F1852F8F5FA0
:100C600080939A0D891711F410929A0D80919A0D24
:100C7000E091960DF091970DE80FF11D20812093E2
:100C8000980D80917C00807F80937C0090917C0007
:100C9000822F8770892B80937C00283020F08091F0
:100CA0007B00886003C080917B00877F80937B00FE
:100CB00060917800409179002091910D3091920DD2
:100CC0008091930D9091940D2817390718F5809114
:100CD000950D882329F480917A00806480937A00AE
:100CE000942F80E070E0682B792B80917C0085FF49
:100CF00002C0672F7727E0919D0DF0919E0D852F03
:100D000019958091910D9091920D01969093920D6D
:100D10008093910D08951F920F920FB60F920BB60C
:100D20000F9211242F933F934F935F936F937F9371
:100D30008F939F93AF93BF93EF93FF93E0919B0D9E
:100D4000F0919C0D1995FF91EF91BF91AF919F91FB
:100D50008F917F916F915F914F913F912F910F9064
:100D60000BBE0F900FBE0F901F9018951F920F9201
:100D70000FB60F9211240F900FBE0F901F90189571
:100D8000ECE7F0E080818F738083808180648083D2
:100D900008950F931F9300917C0010917B00809128
:100DA0007C00807E80937C0080917C008E618093AB
:100DB0007C0080917B00877F80937B0063E070E004
:100DC00080E090E00E94753380917A008064809387
:100DD0007A0080917A0086FDFCCF209178004091C6
:100DE000790000937C0010937B00742F60E030E06A
:100DF000622B732B882777FD8095982F0E942940BE
:100E00009B01AC0160E070E889E894E40E948E3FA9
:100E10001F910F910895AF92BF92CF92DF92EF9200
:100E2000FF920F931F930E944F335B016C018091DF
:100E30007A00877D80937A0080917B00877086306E
:100E400029F480918100887F809381006091930DC7
:100E50007091940D80E090E00E94274020E034E201
:100E600044E759E40E941F417B018C018091A70D4A
:100E70009091A80DA091A90DB091AA0DA81AB90A38
:100E8000CA0ADB0AC601B5010E9427409B01AC01DA
:100E9000C801B7010E948E3F6093A30D7093A40D0B
:100EA0008093A50D9093A60D1F910F91FF90EF9049
:100EB000DF90CF90BF90AF9008951092920D109256
:100EC000910D8091950D882321F080917A008062A8
:100ED00003C080917A008F7D80937A000E944F3307
:100EE0006093A70D7093A80D8093A90D9093AA0D00
:100EF00080917A00886C80937A0080917B00877063
:100F0000863081F480918100887F809381001092E7
:100F1000850010928400809181009091AB0D892B07
:100F2000809381000895F999FECF72BD61BDF89A52
:100F300080B50895F999FECF1FBA72BD61BD40BD5D
:100F40000FB6F894FA9AF99A0FBE0895FC01138629
:100F50001586148687E090E012863197009711F08D
:100F60000197FACF0895DF92EF92FF920F931F93AC
:100F7000FC01E08001811281F894F80181818E29C1
:100F800081838281DE2CD0948D21828383E090E066
:100F90000E94CE33F80181818D2181838AE090E027
:100FA0000E94CE33F8010081789485E390E00E949E
:100FB000CE3380E010E0FF240E211F21012B09F029
:100FC00081E01F910F91FF90EF90DF900895EF92D5
:100FD000FF920F931F93CF93DF937C0101E010E00A
:100FE000C0E0D0E0C7010E94B3078111102B000FB1
:100FF0002196C830D105B1F7812FDF91CF911F9194
:101000000F91FF90EF9008951F93CF93DF93FC0112
:101010001081C181D281912F909560FF12C0F89408
:101020008A8189238A838981812B89838AE090E060
:101030000E94CE338A81812B8A83789487E390E063
:1010400011C0F8948A8189238A838981812B8983BD
:1010500081E490E00E94CE338A81812B8A83789448
:1010600085E090E00E94CE33DF91CF911F910895EB
:10107000CF92DF92EF92FF920F931F93CF93DF9364
:101080008C01E42EFF24F394C0E0D0E0C62EDD24D2
:1010900060E08F2D90E08C219D21892B09F061E08B
:1010A000C8010E940408FF0C2196C830D10581F7C1
:1010B000EE20A9F4F894D8011196ED91FC911297C5
:1010C00091818C918095982391831196ED91FC915B
:1010D000129792818C918095982392837894DF91D6
:1010E000CF911F910F91FF90EF90DF90CF900895D7
:1010F000EF92FF920F931F93CF93DF938C017B01AD
:1011000065E540E00E943808C0E0D0E0F701EC0F50
:10111000FD1FC801608140E00E9438082196C83058
:10112000D105A1F7DF91CF911F910F91FF90EF9023
:101130000895DF92EF92FF920F931F93CF93DF9367
:10114000FC010081C181D281F8948981D02ED09494
:101150008D21898378941DE7E02EFF24115059F1E9
:1011600082E090E00E94CE33888190E08E219F2122
:10117000892BA1F3F8948A818D218A838981802B20
:101180008983789480EE91E00E94CE33F89489812F
:101190008D21898386E490E00E94CE33888110E01F
:1011A00090E0E822F922EF2809F411E078948AE926
:1011B00091E00E94CE33812FDF91CF911F910F914B
:1011C000FF90EF90DF900895AF92BF92DF92EF9281
:1011D000FF920F931F93CF93DF93EC015B018D85FB
:1011E000882309F061C0CE010E949908882329F460
:1011F0001B861D861C8690E06BC0CE0160EF40E030
:101200000E94380801E0DD24EE24FF24F394CE018F
:101210000E94B307182FCE010E94B307113019F4B2
:101220008130E1F439C0181709F58B85081770F47F
:1012300060E0FE01EE0DF11D838190E02F2D30E086
:1012400082239323181619064CF003C060E0081798
:1012500029F0093008F04CC00C874AC0FE01EE0DA1
:10126000F11D83818F29838361E009C0612FFE0115
:10127000EE0DF11D9F2D9095838189238383CE01EF
:101280000E9404080F5FFF0C19F4E394FF24F39409
:1012900087E08E1508F0BBCF013430F0DB86DD200F
:1012A00011F581E08D871FC01B861D861C8690E08E
:1012B000DE0120E030E0F501E20FF31F13968C9180
:1012C000139780832F5F3F4F11962830310599F790
:1012D000892FDF91CF911F910F91FF90EF90DF90B9
:1012E000BF90AF9008958B818823F1F291E0E0CF19
:1012F000D02EBDCFFF920F931F938C01F62E862F19
:1013000060E00E941A358F2D90E0FC01EC54FE4FF6
:10131000E491D801EC9382599E4FFC016491E62F31
:10132000F0E0EE0FFF1FEC5AFE4F8591949112965C
:101330009C938E9311971B961C921B971D961C9243
:101340001D971C961C92F80187E090E01286319759
:10135000009711F00197FACF1F910F91FF90089518
:10136000882319F48CB5806202C08CB58F7D8CBD4A
:1013700008959CB5937F982B9CBD08952CB5382F6C
:1013800033702C7F322B3CBD2DB590E09595879521
:101390009595879581702E7F822B8DBD089585E36D
:1013A00061E00E94CD3585E361E00E941A358CB57D
:1013B00080618CBD8CB580648CBD84E361E00E944B
:1013C0001A3583E361E00E941A3508951F920F9247
:1013D0000FB60F920BB60F9211242F933F934F939A
:1013E0005F936F937F938F939F93AF93BF93EF938D
:1013F000FF93E091B00DF091B10D1995FF91EF9130
:10140000BF91AF919F918F917F916F915F914F911C
:101410003F912F910F900BBE0F900FBE0F901F901A
:10142000189581E08093F70D6093D40D1092F50D1F
:101430001092F60D089581E08093F70D6093D40D1E
:101440001092F50D1092F60D08952091D30D30E015
:101450008091D20D281B3109C90108954091D20D08
:101460008091D30D481718F02FEF3FEF0AC0E42FFB
:10147000F0E0EE54F24F8081282F30E04F5F409330
:10148000D20DC9010895E091D20D8091D30DE817D6
:1014900018F0EFEFFFEF06C0F0E0EE54F24F80815E
:1014A000E82FF0E0CF01089508951092FB0D1092FF
:1014B000FA0D88EE93E0A0E0B0E08093FC0D9093ED
:1014C000FD0DA093FE0DB093FF0D87EE93E090937A
:1014D000F90D8093F80D0895CF92DF92EF92FF926D
:1014E0000F931F93CF93DF937C016B018A0180914F
:1014F000F70D8823A1F0C0E0D0E00DC0D701ED9139
:10150000FC91D601AC0FBD1F0190F081E02DC70109
:101510006C9119952196C017D10780F304C0CB01B7
:10152000642F0E94B80BC801DF91CF911F910F91DA
:10153000FF90EF90DF90CF900895DF93CF930F92BD
:10154000CDB7DEB7FC0169838091F70D8823C9F020
:101550008091F60D803238F081E090E093838283B1
:1015600020E030E015C08091F50DE82FF0E0EB525F
:10157000F24F998190838F5F8093F50D8093F60DE4
:1015800005C0CE01019661E00E94B80B21E030E079
:10159000C9010F90CF91DF9108950F93062F80918D
:1015A000D40D65ED7DE04091F60D21E00E94630BC6
:1015B0001092F50D1092F60D1092F70D0F910895FF
:1015C00061E00E94CD0A0895413208F040E2862F82
:1015D00062EB7DE00E941A0B1092D20D8093D30D26
:1015E000089521E00E94E40A089521E00E94E40A9F
:1015F00008951092D20D1092D30D1092F50D109205
:10160000F60D0E94040B08951092040E81E0809361
:10161000060E1092070EE9EBF0E080818E7F80834A
:1016200080818D7F808388E48093B80085E48093F7
:10163000BC000895382F413210F040E042C0809144
:10164000040E8823E1F791E09093040E2093060E98
:101650008FEF8093710E10922C0E415040932D0EFF
:101660004F5F9093050E8091050E330F832B80936F
:10167000050E8091070E813041F41092070E809183
:10168000050E8093BB0085EC01C085EE8093BC0005
:101690008091040E8130E1F380912C0E841710F4B8
:1016A00040912C0E20E030E00AC0FB01E20FF31F56
:1016B000D901A45FB14F8C9180832F5F3F4F2417D6
:1016C000A0F3842F08950F931F93582F122F4132A8
:1016D00010F081E04AC08091040E8823E1F782E097
:1016E0008093040E0093060E8FEF8093710E10927C
:1016F0002C0E40932D0EACE0BEE0FB0102C08191A8
:101700008D938E2F861B8417D0F31092050E809137
:10171000050E550F852B8093050E8091070E8130A5
:1017200041F41092070E8091050E8093BB0085EC6A
:1017300001C085EE8093BC00112321F08091040E3E
:101740008230E1F38091710E8F3F11F480E00DC083
:101750008091710E803211F482E007C08091710E89
:10176000803311F084E001C083E01F910F91089550
:10177000482F613210F081E008958091040E84308A
:1017800011F082E0089560934F0EAEE2BEE0842F28
:101790009C01F90102C081918D938E2F841B8617C5
:1017A000D0F380E008951F920F920FB60F920BB600
:1017B0000F9211242F933F934F935F936F937F93D7
:1017C0008F939F93AF93BF93EF93FF938091B90053
:1017D00090E0887F90708036910509F4F2C08136E0
:1017E0009105CCF58832910509F47BC089329105C9
:1017F000B4F48031910509F46FC0813191053CF456
:10180000009709F447C1089709F04FC165C08831B6
:10181000910509F466C0809709F047C182C0803401
:10182000910509F4A4C08134910544F480339105F5
:1018300009F482C0C89709F038C189C08035910584
:1018400009F489C08835910509F496C0883491055A
:1018500009F02BC1AEC08839910509F413C189394B
:101860009105ECF48837910509F4ABC089379105EF
:101870004CF48836910509F4A4C08037910509F02D
:1018800014C19FC08838910509F4FCC080399105C6
:1018900009F49DC08038910509F007C198C0803BCC
:1018A000910509F4C6C0813B91054CF4803A91053D
:1018B00009F49FC0883A910509F0F7C0BAC0803C8E
:1018C000910509F4E3C0883C910509F4DFC0883B29
:1018D000910509F0EAC0C2C08091050E8093BB005B
:1018E000CFC090912C0E80912D0E981768F4909196
:1018F0002C0EE92FF0E0E45FF14F80818093BB0074
:101900009F5F90932C0EBCC08091060E882309F433
:101910004BC085ED8093BC008091BC0084FDFCCF62
:10192000C2C080E28093710E85ED8093BC008091EF
:10193000BC0084FDFCCFB7C080E38093710E85EDC1
:101940008093BC008091BC0084FDFCCFACC088E3D8
:101950008093710E9BC080912C0E9091BB00E82F5C
:10196000F0E0E45FF14F90838F5F80932C0E9091B5
:101970002C0E80912D0E82C080912C0E9091BB0078
:10198000E82FF0E0E45FF14F90838F5F80932C0E9F
:101990008091060E882341F085ED8093BC008091F4
:1019A000BC0084FDFCCF7FC081E08093070E84EAF9
:1019B0006EC085ED8093BC008091BC0084FDFCCF9F
:1019C00072C083E08093040E1092700E59C0809113
:1019D000700E803208F056C08091700E9091BB005E
:1019E000E82FF0E0E05BF14F90838F5F8093700E03
:1019F00047C08091700E803230F4E091700EF0E0BC
:101A0000E05BF14F108285ED8093BC008091BC00BB
:101A100084FDFCCF1092040E6091700EE0910A0ECE
:101A2000F0910B0E80E59EE070E019951092700E1B
:101A30002DC084E08093040E10924E0E10924F0E33
:101A4000E091080EF091090E199580914F0E8823B0
:101A500029F481E080934F0E10922E0E90914E0E3D
:101A6000E92FF0E0E25DF14F80818093BB009F5F42
:101A700090934E0E90914E0E80914F0E981710F449
:101A800085EC01C085E88093BC000FC085EC809395
:101A9000BC0009C01092710E85ED8093BC0080914E
:101AA000BC0084FDFCCF1092040EFF91EF91BF911A
:101AB000AF919F918F917F916F915F914F913F91E6
:101AC0002F910F900BBE0F900FBE0F901F90189587
:101AD00083EF93E0089588E094E008958CE094E02B
:101AE000089583E294E008958DE394E0089588E4F6
:101AF00094E008958CE292E0089582E061E00E9413
:101B0000CD350895CF92DF92EF92FF920F931F93FE
:101B1000CF93DF938C0184E6E82E88E0F82EE00E68
:101B2000F11E6801C0E0D0E0F701EC0FFD1FC60117
:101B3000CC59DF4FBE0140810E94291EC356D040C0
:101B4000CD35D10589F7C80160E00E94B00DDF9165
:101B5000CF911F910F91FF90EF90DF90CF9008955C
:101B60006F927F928F929F92AF92BF92CF92DF92AD
:101B7000EF92FF920F931F93CF93DF93EC01D62E3A
:101B800094E6E92E98E0F92EEC0EFD1E6C2EAD2E9B
:101B900000E010E0E881F981B8016C597F4F0088BE
:101BA000F189E02D862D9A2D1995F701E00FF11F8F
:101BB00080830F5F1F4F0D35110561F7CC59D74F4B
:101BC00088819981C456D840892B39F5CA59D74F95
:101BD00088819981C656D840892BF9F49E012859ED
:101BE000374FF90180819181892BB9F4FE01E455C9
:101BF000F74FC15AD74F88819981AA81BB81CF55B0
:101C0000D84080839183A283B38381E090E0F9017F
:101C100091838083CE010E94820DCC59D74F888159
:101C20009981C456D840892BE1F4CA59D74F88818D
:101C30009981C656D840892BA1F4FE01E859F74F87
:101C400080819181019769F4C659D74F80E28883DA
:101C5000CA56D84082E090E091838083CE010E94F2
:101C6000820DCC59D74F88819981C456D840892B91
:101C700011F5CA59D74F88819981C656D840892B0A
:101C8000D1F4FE01E859F74F80819181029799F4D0
:101C9000C055D74F80E090E0A0EAB0E488839983F4
:101CA000AA83BB83C05BD84083E090E091838083AC
:101CB000CE010E94820DCC59D74F88819981C4569C
:101CC000D840892BD9F4CA59D74F88819981C656F3
:101CD000D840892B99F4FE01E859F74F8081918112
:101CE000039761F4CC54D74F1882C45BD84084E08A
:101CF00090E091838083CE010E94820DCC59D74F12
:101D000088819981C456D840892B91F5CA59D74FFB
:101D100088819981C656D840892B51F5FE01E85932
:101D2000F74F80819181049719F5CB54D74F80E00C
:101D300090E0A8ECB2E489939993A993B99380E0D9
:101D400090E4ACE9B6E489939993A993B99380E0C0
:101D500090E0A8E4B3E488839983AA83BB83CD5B36
:101D6000D84085E090E091838083CE010E94820D6F
:101D7000CC59D74F88819981C456D840892B99F482
:101D8000CA59D74F88819981C656D840892B59F4B2
:101D9000C859D74F88819981C856D840059719F4FA
:101DA000DD2009F4B3C0CC59D74F1992199219927A
:101DB000199285E090E09983888324960F2EF0E0B5
:101DC000AF2EF0E4BF2EFCE9CF2EF6E4DF2EF02D8F
:101DD000A992B992C992D9920F2EF0E0EF2EF0E5B8
:101DE000FF2EF3E40F2FF8E41F2FF02DE992F99264
:101DF0000993199320E034E244EF59E428833983AE
:101E00004A835B8360960F2EF0E06F2EF0E07F2E0A
:101E1000F8E48F2EF3E49F2EF02D69927992899247
:101E2000999280E090E0AAEFB4E489939993A99302
:101E3000B993A992B992C992D992E992F992099368
:101E40001993288339834A835B8364972FEF36EE97
:101E50004BE55EE2288339834A835B83A896288317
:101E600039834A835B83ED978AE088832D9680E0EF
:101E700090E0A0E0B0E089939993A993B993888307
:101E80009983AA83BB836C96299339934993599379
:101E900029933993499359932993399349935993A2
:101EA000288339834A835B83C45AD840FE01E455B2
:101EB000F74FC15AD74F88819981AA81BB8180830E
:101EC0009183A283B3832B9680E28883CA5BDF4F22
:101ED00080E090E0A0EAB0E489939993A993B99344
:101EE000199280E090E0A8ECB2E489939993A993C9
:101EF000B993A992B992C992D992688279828A8259
:101F00009B82CD5BD840CE010E94820DC455D74F35
:101F1000E880F9800A811B81CC5AD840C801B701FA
:101F200020E030E040E050E00E948A3FFE01ED59A1
:101F3000F74F18161CF081E0808307C0C15AD74FB5
:101F4000E882F9820A831B831082DF91CF911F916F
:101F50000F91FF90EF90DF90CF90BF90AF909F9048
:101F60008F907F906F9008950F931F938C010E9424
:101F7000291EC80160E00E94B00D1F910F910895C5
:101F80004F925F926F927F928F929F92AF92BF9289
:101F9000CF92DF92EF92FF920F931F93DF93CF9335
:101FA0000F920F92CDB7DEB78C012C01EE2454E5D1
:101FB000852E58E0952E880E991E45E4C42E48E0E3
:101FC000D42EC80ED91E3AE6A32E38E0B32EA80EA2
:101FD000B91E3E010894611C711C33C028E0F22E2A
:101FE00030E040E050E0F60180819181F801E80F97
:101FF000F91FE259FF4F20810196F60191838083FA
:1020000080E090E0222311F481E090E0042E02C0F1
:10201000880F991F0A94E2F7380F4F5F5F4F4830DF
:10202000510509F73A83F50160816E0DF982C2010D
:10203000A30122E00E94521EF394FDE0FF1681F6F8
:10204000E3942E2D30E0F4018081918168E270E00C
:102050000E94FA412617370708F20F900F90CF9190
:10206000DF911F910F91FF90EF90DF90CF90BF9085
:10207000AF909F908F907F906F905F904F9008955A
:10208000CF92DF92EF92FF920F931F93DF93CF9344
:10209000CDB7DEB72A970FB6F894DEBF0FBECDBF1F
:1020A0008C014F83588769877A876A017B01FC011D
:1020B000EB54F74F608171818281938124EA30E78C
:1020C0004DE75FE30E941F419B01AC01C701B601D0
:1020D0000E941B4188230CF451C0F801E754F74FCC
:1020E00060817181828193812EEA37E441E85FE368
:1020F0000E941F419B01AC01C701B6010E948A3FAB
:102100001816E4F18AEA8A838F819885A985BA85B1
:102110008B839C83AD83BE836BE6E62E68E0F62E50
:10212000E00EF11EC801F7016081AE014E5F5F4F06
:1021300025E00E94521E64E670E080E090E00E947C
:10214000753388EF9DE0F701608141E00E94F50A58
:1021500088EF9DE00E94250A892B91F088EF9DE091
:102160000E942E0A813061F4C801F7016081AE013E
:102170004F5F5F4F21E00E94331E02C088E08983D9
:102180002981222359F4055A174F8F819885A985F3
:10219000BA85F80180839183A283B383822F2A9624
:1021A0000FB6F894DEBF0FBECDBFCF91DF911F9168
:1021B0000F91FF90EF90DF90CF9008959F92AF9294
:1021C000BF92CF92DF92EF92FF920F931F93DF9314
:1021D000CF93CDB7DEB72A970FB6F894DEBF0FBE08
:1021E000CDBF8C015A016B01922E1982FC01E35480
:1021F000F74FCB01BA0120813181428153810E9486
:102200008A3F18160CF44DC0F801E15AF74FC60189
:10221000B50120813181428153810E948E3F6A83C2
:102220007B838C839D8388EA8E838A819B81AC81AA
:10223000BD818F839887A987BA877BE6E72E78E0F0
:10224000F72EE00EF11EC801F7016081AE014A5F72
:102250005F4F25E00E94521E992029F164E670E04C
:1022600080E090E00E94753388EF9DE0F701608187
:1022700041E00E94F50A88EF9DE00E94250A892B23
:1022800091F088EF9DE00E942E0A813061F4C80130
:10229000F7016081AE014F5F5F4F21E00E94331E66
:1022A00002C088E089838981882339F4095A174F4D
:1022B000F801A082B182C282D3822A960FB6F89426
:1022C000DEBF0FBECDBFCF91DF911F910F91FF9069
:1022D000EF90DF90CF90BF90AF909F900895FC015A
:1022E000E15AF74F4083518362837383389740816B
:1022F000518162817381E755F840CF0120E00E944F
:10230000DE1008952F923F924F925F926F927F92CC
:102310008F929F92AF92BF92CF92DF92EF92FF92F5
:102320000F931F93DF93CF93CDB7DEB7E2970FB62E
:10233000F894DEBF0FBECDBF7C0189ABFAAA0E9424
:10234000C21E82E061E00E941A3582E060E00E94D5
:10235000CD3564EF71E080E090E00E947533D701E5
:10236000ED91FC910680F781E02DC7011995BC0124
:1023700086ED90E10E94853C86ED90E160E372E09D
:102380000E94853CD701ED91FC910484F585E02DF8
:10239000C7011995BC0186ED90E10E94823D86ED52
:1023A00090E163E372E00E94853CD701ED91FC91DE
:1023B0000284F385E02DC7011995BC0186ED90E1FB
:1023C0000E94823DC7010E948A1EEFE5F8E0EE0EF2
:1023D000FF1E80E090E0A6E9B3E4F70180839183DB
:1023E000A283B38321EA37EFE20EF31EC70160E058
:1023F0000E94B00D86ED90E166E472E00E94853C9B
:1024000084E698E0E80EF91ED7016D917D917D017B
:1024100086ED90E14AE050E00E94B53B86ED90E108
:102420006DE572E00E94853CF701619171917F0139
:1024300086ED90E14AE050E00E94B53B86ED90E1E8
:102440006DE572E00E94853CD7016D917C91E8E9D1
:10245000F7EFEE0EFF1E86ED90E14AE050E00E949D
:10246000C63B86ED90E16FE572E00E94853CF70186
:10247000E559F74F86ED90E160814AE050E00E9417
:10248000F53B10E053E0252E312C2C0E3D1E41E192
:10249000442E512C4C0E5D1E3FE1632E712C6C0EB0
:1024A0007D1E28E1822E912C8C0E9D1E96E2A92E77
:1024B000B12CAC0EBD1EC3C0CE010A9663E872E01B
:1024C0000E94A13EC101612F4AE00E94D43ECE018C
:1024D0000A96B1010E946A3E65E872E00E944E3E93
:1024E00098AB8FA7C2016D2D4AE00E94D43E8FA504
:1024F00098A9B2010E946A3E69E972E00E944E3ECC
:10250000BC0186ED90E10E94953DC2010E94063F0C
:10251000C1010E94063FCE010A960E940C3F112382
:1025200039F0113051F040E050E060E070E013C04D
:10253000ED2DF0E0E55EFD4F04C0ED2DF0E0EF5D28
:10254000FD4FEE0FFF1FEE0FFF1FEE0DFF1D408131
:1025500051816281738186ED90E122E030E00E943A
:102560006F3DC30163E872E00E94A13EC401612F88
:102570004AE00E94D43EC301B4010E946A3E6CE965
:1025800072E00E944E3E9EA78DA7C5016D2D4AE0C8
:102590000E94D43E8DA59EA5B5010E946A3E69E9C0
:1025A00072E00E944E3EBC0186ED90E10E94953D96
:1025B000C5010E94063FC4010E94063FC3010E945C
:1025C0000C3F112339F0113051F060E070E080E0F1
:1025D00090E013C0ED2DF0E0E25EFD4F04C0ED2D64
:1025E000F0E0EA5DFD4FEE0FFF1FEE0FFF1FEE0D57
:1025F000FF1D608171818281938125EA34ED48E677
:1026000053E50E941F41AB01BC0186ED90E122E041
:1026100030E00E946C3D86ED90E161EB72E00E943B
:10262000823DD394112321F0113031F485E001C0B3
:1026300083E0D81608F440CF1F5F123011F0DD247C
:10264000F1CF86ED90E165EB72E00E94853C1AE6E1
:10265000C12E18E0D12ECE0CDF1C86ED90E1D60104
:102660006C914AE050E00E94F53B86ED90E162ED0E
:1026700072E00E94853CECEAF8E0EE0EFF1ED70106
:102680004D915D916D917D917D0186ED90E122E00E
:1026900030E00E946F3D86ED90E162EE72E00E94B4
:1026A000853CF70141915191619171917F0186EDD6
:1026B00090E122E030E00E946F3D86ED90E165EF11
:1026C00072E00E94853CD7016C9186ED90E170E04C
:1026D0004AE050E00E94663C86ED90E16EE073E0D7
:1026E0000E94853CEFEAFFEFEE0EFF1ED7016C91D2
:1026F00086ED90E170E04AE050E00E94663C86ED95
:1027000090E16AE273E00E94853CE2E5F0E0EE0EC3
:10271000FF1ED7014D915D916D917D917D0186EDFB
:1027200090E122E030E00E946F3D86ED90E162E4AE
:1027300073E00E94853CF701419151916191719143
:102740007F0186ED90E122E030E00E946F3D86ED52
:1027500090E16AE573E00E94853CD7014D915D915F
:102760006D917C91E3E4F7EFEE0EFF1E86ED90E1B4
:1027700022E030E00E946F3DF701EC5AF74F1182E2
:102780001082AA24BB24B8E28B2E912CA8E12A2E19
:1027900033243A943E010894611C711C2F011A2DB8
:1027A00029823A82D6016C916A0D89A99AA9A3015E
:1027B00022E00E94521EF60160816A0D89A99AA941
:1027C000A30121E00E94331E89818F3F09F047C099
:1027D00000E0085E098308511A82D6016C91610FEE
:1027E00089A99AA9A30122E00E94521EF6016081E4
:1027F000610F89A99AA9A30121E00E94331E898152
:10280000882369F5085F09833A82D6016C91610FCC
:1028100089A99AA9A30122E00E94521E07500530FF
:10282000C1F686ED90E160E773E00E94853C86ED9D
:1028300090E1B5014AE050E00E94533C86ED90E102
:102840006AE773E00E94823D940128523040F20111
:10285000808191818217930711F49182808208947C
:10286000A11CB11C28E230E0820E931E38E0A316B2
:10287000B10409F094CF84E598E0E80EF91ED70181
:102880006D917C9186ED90E14AE050E00E94B53B6D
:1028900086ED90E166E873E00E94823DE0E6F0E0BC
:1028A000EE0EFF1ED7018C91ECE4F7EFEE0EFF1E4B
:1028B000882321F0C70160E042E003C0C70160E067
:1028C00041E00E94B232C70140E050E46CE176E49E
:1028D0000E944010E2960FB6F894DEBF0FBECDBF47
:1028E000CF91DF911F910F91FF90EF90DF90CF90EC
:1028F000BF90AF909F908F907F906F905F904F9020
:102900003F902F900895FC018FE794E0918380839E
:10291000CF010E94E71C08950F931F938C0161E083
:102920000E94611F8FE794E0F801918380830E5A23
:10293000174FF801119210821F910F9108957F9205
:102940008F929F92AF92BF92CF92DF92EF92FF92BF
:102950000F931F93DF93CF930F920F92CDB7DEB7F4
:102960005C019B01742ECB0168E270E00E94FA4189
:10297000862EC90168E270E00E94FA416C01E3E032
:1029800096958795EA95E1F7982E082D10E07AE65E
:10299000E72E78E0F72EEA0CFB1CF7018081B801E6
:1029A000680F711D88EF9DE00E941B0A692D70E081
:1029B000685F7F4F88EF9DE00E949D0A88EF9DE051
:1029C0000E94E00AF7018081080F111D88EF9DE049
:1029D000B80141E050E00E94F10A88EF9DE00E94BA
:1029E000250A892B11F481E03BC00C2D0770F8E01B
:1029F0009F0E998288EF9DE00E942E0A282F772053
:102A000071F481E090E0A0E0B0E004C0880F991F6D
:102A1000AA1FBB1F0A95D2F7282B2A830EC081E07C
:102A200090E0A0E0B0E004C0880F991FAA1FBB1F70
:102A30000A95D2F7809582238A838AE698E0A80EC9
:102A4000B91EF501608186E997EFA80EB91E680DE1
:102A5000C501AE014F5F5F4F22E00E94521E80E031
:102A60000F900F90CF91DF911F910F91FF90EF90FA
:102A7000DF90CF90BF90AF909F908F907F90089500
:102A80002F923F924F925F926F927F928F929F927E
:102A9000AF92BF92CF92DF92EF92FF920F931F936C
:102AA000DF93CF93CDB7DEB76A970FB6F894DEBF4A
:102AB0000FBECDBF3C01B62E21EB621709F4B7C3A0
:102AC0002617E0F138EA631709F413C23617D8F075
:102AD00042EA641709F40EC1461748F050EA651738
:102AE00009F46AC061EAB61609F048C77DC074EA05
:102AF000671709F4AAC1671708F419C187EA6817AC
:102B000009F03CC7DFC19DEA691709F4A5C2961711
:102B100048F0A9EA6A1709F415C2BAEA6B1709F076
:102B20002DC770C2EFEA6E1709F4EDC2F301E05C45
:102B3000F74F2FEA261708F427C3C2C238EB6317F2
:102B400009F481C63617D0F044EB641709F454C475
:102B5000461748F052EB651709F4BFC363EBB6168E
:102B600009F00CC731C476EB671709F4BEC4FC0149
:102B7000E05CF74F761708F426C69AC48CEB68170A
:102B800009F4A2C6861758F09AEB691709F427C60C
:102B9000F301E05CF74F961708F43DC673C6A4EF47
:102BA0006A1709F4E6C4B5EF6B1709F4F4C5EDEB49
:102BB0006E1709F0E3C6ABC620E438E0620E731E60
:102BC000D3018D919C91E0ECF7EF6E0E7F1E830197
:102BD00004591F4F892B09F098C6B3016C5A774FDF
:102BE000C30142E050E02CC120E438E0620E731EC5
:102BF000D3018D919C91E0ECF7EF6E0E7F1E830167
:102C000004591F4F892B09F080C6D8011C92688E89
:102C1000A72CCC24F301EC5AF74FFA8FE98F5AE630
:102C2000252E58E0352E260C371C480154C048E0AC
:102C3000D42E2901D1018C91B201680F711D88EF4A
:102C40009DE00E941B0A88EF9DE06D2D0E949D0A69
:102C500088EF9DE00E94E00AF1018081B201680FD7
:102C6000711D88EF9DE041E050E00E94F10A88EF7D
:102C70009DE00E94250A892B21F188EF9DE00E94AA
:102C80002E0A00E010E0E82EFF24C701002E02C04B
:102C9000959587950A94E2F721E030E08227932703
:102CA00081708983888D9A2DBE016F5F7F4F41E0CF
:102CB00050E00E94ED1C0F5F1F4F0830110529F7EF
:102CC00004C0E1E0D401EC9305C0D394FDE0DF162D
:102CD00009F0B0CFC3942C2D30E0A98DBA8D8D9121
:102CE0009C9168E270E00E94FA412617370708F4C9
:102CF0009ECF44C6FC01E05CF74F24E538E0620E4D
:102D0000731E20813181D3018D919C91ECEAF7EF04
:102D10006E0E7F1E830104591F4F2817390709F0D3
:102D2000F4C5C3010E94C00FD8011C9227C620E43D
:102D300038E0620E731ED3018D919C91E0ECF7EFA9
:102D40006E0E7F1E029709F00EC6D301AB5BB74F24
:102D50008D919C91119782599F4FF301E80FF91FB4
:102D60000190F081E02D8C5690408D939C9324E54A
:102D700038E0620E731ED3018D919C912CEA37EFDF
:102D8000620E731EE817F90728F04CE650E0640E57
:102D9000751E18C3CF0168E270E00E94FA416C0111
:102DA000CF0168E270E00E94FA41062F10E09AE637
:102DB000E92E98E0F92EE60CF71CD7018C91B801AA
:102DC000680F711D88EF9DE00E941B0AB60183E029
:102DD000769567958A95E1F770E0685F7F4F88EF99
:102DE0009DE00E949D0A88EF9DE00E94E00AF701A5
:102DF0008081080F111D88EF9DE0B80141E050E08F
:102E00000E94F10A88EF9DE00E94250A830104597F
:102E10001F4F892BC1F088EF9DE00E942E0A90E0A1
:102E20002C2D277002C0959587952A95E2F78095FD
:102E300081708983C301BE016F5F7F4F41E050E025
:102E40000E94ED1C71CF81E03AC020E438E0620EB0
:102E5000731ED3018D919C91E0ECF7EF6E0E7F1EF7
:102E6000039709F080C5D301AB5BB74F8D919C915F
:102E70001197FC01E259FF4FE60DF71D608171814A
:102E8000F301E80FF91FE059FF4F408103968D933E
:102E90009C9324E538E0620E731ED3018D919C91C2
:102EA000ECEAF7EF6E0E7F1E830104591F4F68177F
:102EB000790720F4C3010E949F14CBC085E0F8017C
:102EC00080835CC520E438E0620E731ED3018D91CF
:102ED0009C91E0ECF7EF6E0E7F1E830104591F4FAB
:102EE000892B09F012C5D8011C92B301695A774F9A
:102EF00081C220E438E0620E731ED3018D919C9153
:102F0000E0ECF7EF6E0E7F1E830104591F4F04970C
:102F100009F0FBC4D301AB5BB74F8D919C91119726
:102F200082599F4FF301E80FF91F4081518162815F
:102F300073818A5690408D939C93C30121E00E9437
:102F4000DE1087C020E438E0620E731ED3018D913D
:102F50009C91E0ECF7EF6E0E7F1E892B09F003C504
:102F6000F62CE72C83010559174FC301D8016C914A
:102F700049EA0E94761E64E670E080E090E00E94DC
:102F8000753388EF9DE0F801608141E00E94F50A09
:102F900088EF9DE00E94250A892B09F4EFC488EF91
:102FA0009DE00E942E0A853009F0E8C438018F2D7B
:102FB0009E2DD8016C91AE01475F5F4F25E00E94C6
:102FC000331E8D85E1E0F8EF6E0E7F1ED3018C93EA
:102FD000E4E9FFEF6E0E7F1E882309F0CFC4F301F2
:102FE000E55AF74F89859A85AB85BC8580839183A7
:102FF000A283B3838F2D9E2DBF0144E050E00E9439
:10300000ED1CBCC420E438E0620E731ED3018D9128
:103010009C91E0ECF7EF6E0E7F1E830104591F4F69
:10302000049709F072C4D301AB5BB74F8D919C91AB
:10303000119782599F4FF301E80FF91F4081518189
:10304000628173818A5690408D939C93C3010E9444
:103050004010D8018C9392C420E438E0620E731EB5
:10306000D3018D919C91E0ECF7EF6E0E7F1E0197DE
:1030700009F079C4D301AB5BB74F8D919C91119747
:10308000F301E80FF91FE259FF4F208101968D935C
:103090009C93830104591F4F223008F00FCF30E07A
:1030A0008BE190E0289FF001299FF00D389FF00DF3
:1030B0001124E958F14F81818983D8011C921EC4E3
:1030C00080819181830104591F4F029709F01DC42B
:1030D000D301AB5BB74F2D913C911197F301E20FF8
:1030E000F31FE259FF4F80812F5F3F4FF301E20F43
:1030F000F31FE259FF4F60812F5F3F4F2D933C93A9
:103100000E94962CA6CF20E438E0620E731ED301F5
:103110008D919C91E0ECF7EF6E0E7F1E019709F008
:1031200022C4D301AB5BB74F8D919C911197F301F2
:10313000E80FF91FE259FF4F408101968D939C9350
:10314000830104591F4F423008F0B8CED8011C92B9
:10315000242F30E08BE190E0289FF001299FF00DB3
:10316000389FF00D1124E958F14FE181442321F0FB
:10317000413009F093C004C0F0E0E55EFD4F9AC015
:10318000F0E0EF5DFD4F96C080819181830104598D
:103190001F4F059709F074C3D301AB5BB74F8D91F7
:1031A0009C911197F301E80FF91FE259FF4FE0815D
:1031B00001968D939C93D8011C92EE2321F0E1306F
:1031C00009F0FCC01AC0E091780EF0E0B3016B5B2F
:1031D000774FDB018D919C9182599F4FD301A80FAE
:1031E000B91F2D913D914D915C918A569040DB0124
:1031F0008D939C93E55EFD4FD3C0E091930EF0E07C
:10320000B3016B5B774FDB018D919C9182599F4F8E
:10321000D301A80FB91F2D913D914D915C918A5614
:103220009040DB018D939C93EF5DFD4FB9C0E0E4CE
:10323000F8E06E0E7F1ED3018D919C91E0ECF7EFCC
:103240006E0E7F1E019709F08EC3D301AB5BB74FA3
:103250008D919C911197F301E80FF91FE259FF4FEF
:10326000408101968D939C93830104591F4F4230F6
:1032700008F024CED8011C92242F30E08BE190E09E
:10328000289FF001299FF00D389FF00D1124E95877
:10329000F14FE181442339F0413049F080E090E082
:1032A000A0E0B0E011C0F0E0E25EFD4F03C0F0E04E
:1032B000EA5DFD4FEE0FFF1FEE0FFF1FE60DF71D3E
:1032C00080819181A281B38189839A83AB83BC83FE
:1032D000C301BE016F5F7F4F90CE20E438E0620EE5
:1032E000731ED3018D919C91E0ECF7EF6E0E7F1E63
:1032F000830104591F4F059709F0C2C2A3014B5B1C
:10330000574FDA012D913C911197F301E20FF31F12
:10331000E259FF4FE0812F5F3F4F2D933C932150A7
:103320003040D8011C92EE2321F0E13009F046C074
:103330001EC0E091780EF0E021593F4FD301A20F5B
:10334000B31FED90FD900D911C912A563040DA018B
:103350002D933C93E25EFD4FEE0FFF1FEE0FFF1F1C
:10336000E60DF71DE082F1820283138323C0E09112
:10337000930EF0E0B3016B5B774FDB018D919C9175
:1033800082599F4FD301A80FB91F2D913D914D91A7
:103390005C918A569040DB018D939C93EA5DFD4FD2
:1033A000EE0FFF1FEE0FFF1FE60DF71D2083318389
:1033B00042835383C3010E94820DE0C2ECE6F0E039
:1033C0006E0E7F1E85E0D4C2E0E4F8E06E0E7F1E34
:1033D000D3018D919C91E0ECF7EF6E0E7F1E83017F
:1033E00004591F4F892B09F090C2D8011C92B301D8
:1033F000615A774FC30101CE20E438E0620E731E9C
:10340000D3018D919C91E0ECF7EF6E0E7F1E049737
:1034100009F0A9C2F301EB5BF74F808191818259DA
:103420009F4FD301A80FB91FED90FD900D911C91F6
:103430008A56904091838083C801B70120E030E034
:1034400040E050E00E941B41181664F5F301ED596D
:10345000F74F8081882379F02FE538E0620E731EE4
:10346000D301ED92FD920D931C931397E1EAF7EFD0
:103470006E0E7F1E12C02CEA38E0620E731ED3015E
:10348000ED92FD920D931C93139724E537EF620E96
:10349000731E1082C3010E94820D4CE650E0640E40
:1034A000751E5EC22CE630E0620E731E88E060C2BC
:1034B00080819181830104591F4F892B09F025C216
:1034C000D8011C9210E0F301E455F74F608171813F
:1034D0008281938120E030E040E050E00E948A3F0A
:1034E00018160CF011E0198309C220E438E0620ECE
:1034F000731ED3018D919C91E0ECF7EF6E0E7F1E51
:10350000019709F030C2D301AB5BB74F8D919C910D
:103510001197F301E80FF91FE259FF4F208101963F
:103520008D939C93F301E455F74F222349F080E0FB
:1035300090E0A0E0B0E080839183A283B38311C0C8
:103540002FE538E0620E731ED3012D913D914D9110
:103550005C9161EA77EF660E771E208331834283A8
:103560005383C3010E94820D8CE690E0680E791EA1
:10357000F7C120E438E0620E731ED3012D913C9117
:10358000E0ECF7EF6E0E7F1E2A30310508F4EBC138
:10359000D301AB5BB74F8D919C911197FC01E25920
:1035A000FF4FE60DF71D40815181628173814C8B85
:1035B0005D8B6E8B7F8B049611969C938E930497F4
:1035C000FC01EE58FF4FE60DF71D608171817B8B8A
:1035D0006A8BFC01EC58FF4FE60DF71D40815181CD
:1035E000628173814E875F87688B798BF301E80F67
:1035F000F91FE858FF4F10810B968D939C932B3049
:10360000310581F064E578E0660E771ED3018D9177
:103610009C91ECEAF7EF6E0E7F1E0B962817390788
:1036200009F0CFC12A893B892B54314008F0ADC045
:103630006C897D898E899F8920E030E04AE754E4D7
:103640000E948E3F20E030E44CE157E40E941F418D
:1036500020E030E040E855E40E948A3F88230CF0E7
:1036600094C06CE670E0660E771ED3011C92E4E90C
:10367000FFEF6E0E7F1EF301E05CF74F24E538E0AC
:10368000620E731ED3018D919C912CEA37EF620E6E
:10369000731E0B96208131812817390719F4C30155
:1036A0000E94C00FA12E0E944F331B012C014BE53D
:1036B00058E0640E751ED301CD90DD90ED90FC9026
:1036C000E5EAF7EF6E0E7F1EF0E010FDF1E0E0E0BE
:1036D000A1FCE1E06C897D898E899F894A895B899B
:1036E0000E851F8528893989AF2E8E2E0E940E2DBA
:1036F0000E944F3362197309840995090E9427407B
:103700007B018C012A893B89B90180E090E00E940D
:10371000274020E030E04AE754E40E941F419B012B
:10372000AC01C801B7010E948E3F69837A838B8305
:103730009C83C301BE016F5F7F4F44E050E00E9455
:10374000ED1CC3016EE87EE044E050E00E94ED1CF9
:10375000C30169EA7EE044E050E00E94ED1C4FE5C1
:1037600058E0640E751EF30180819181A281B381BE
:1037700021EA37EF620E731E8D839E83AF83B88775
:10378000C301BE016B5F7F4F38CC4CE650E0640E46
:10379000751E81E0EDC020E438E0620E731ED30197
:1037A0008D919C91E0ECF7EF6E0E7F1E8301045922
:1037B0001F4F892B09F0A9C0D8011C92C30161E0F9
:1037C0000E94B00DDBC080819181830104591F4F9D
:1037D000892B09F09AC0D8011C9282E08EC020E4A7
:1037E00038E0620E731ED3018D919C91E0ECF7EFEF
:1037F0006E0E7F1E830104591F4F892B09F040C0B4
:10380000D8011C92E2E5F8E06E0E7F1ED3018C9188
:10381000EEEAF7EF32C080819181019709F0A3C0F1
:10382000D301AB5BB74F8D919C911197F301E80FDA
:10383000F91FE259FF4F208101968D939C93F3016C
:10384000EE5AF74F36C020E438E0620E731ED30103
:103850008D919C91E0ECF7EF6E0E7F1E8301045971
:103860001F4F892B69F4D8011C92E3E5F8E06E0E36
:103870007F1ED3018C91EDEAF7EF6E0E7F1E3DC0E7
:1038800086E0E7CB80819181019709F06CC0D3017C
:10389000AB5BB74F8D919C911197F301E80FF91F26
:1038A000E259FF4F208101968D939C93F301ED5ACD
:1038B000F74F222319F081E0808301C01082ECE6EB
:1038C000F0E06E0E7F1E4CC020E438E0620E731EE6
:1038D000D3018D919C91E0ECF7EF6E0E7F1E83017A
:1038E00004591F4F892B89F4D8011C9282E00E9451
:1038F00000361982892B11F481E08983C301BE014E
:103900006F5F7F4F41E050E07ACB86E0D8CA20E479
:1039100038E0620E731ED3018D919C91E0ECF7EFBD
:103920006E0E7F1E0197F9F4D301AB5BB74F8D91FB
:103930009C911197F301E80FF91FE259FF4F208185
:1039400001968D939C93222319F082E060E002C0DF
:1039500082E061E00E94CD352CE630E0620E731EFD
:10396000D3011C9207C02CE630E0620E731E86E085
:10397000D3018C93E4E9FFEF6E0E7F1EC3016B2D24
:103980000E9456212CE630E0620E731ED3018C910A
:103990006A960FB6F894DEBF0FBECDBFCF91DF9110
:1039A0001F910F91FF90EF90DF90CF90BF90AF905D
:1039B0009F908F907F906F905F904F903F902F904F
:1039C0000895ECE6F0E06E0E7F1ED1CF0895FC0165
:1039D00086EA94E09183808308950F931F93CF9399
:1039E000DF938C0120E030E0EC01C95BD74F10C0C1
:1039F000F801E20FF31F88819981E80FF91FE2595E
:103A0000FF4FDB01A20FB31F8C9180832F5F3F4FCD
:103A10002417350768F388819981840F951F99834E
:103A20008883DF91CF911F910F910895CF93DF93FA
:103A3000DC01FC01E359FF4F6081EC01C459DF4F09
:103A400067FF0EC06058608382E08883ED91FC912F
:103A5000119760580488F589E02DCD0119950EC0A5
:103A6000FC01E05CF74F80819181A80FB91FA35939
:103A7000BF4F2C912883019791838083DF91CF9151
:103A80000895CF93DF93EC01FC01E75BF74F6D37AF
:103A900019F481E08083DAC09081992311F080E2EB
:103AA00068276E3749F4992339F4CD5BD74F1982D3
:103AB0001882C354D840C4C0CD5BD74F2881398108
:103AC000C354D84021153105A1F4C359DF4F688391
:103AD000C152D84F8881CC54D840882309F448C0BB
:103AE000C15BD74F8FEF9FEF99838883CF54D84026
:103AF0003FC021303105B1F4DE01AE5BB74FFE01AE
:103B0000E05CF74F67FF09C083E08C93862F90E05D
:103B10008F779070108281832BC082E08C936083BA
:103B2000118226C02230310589F4CE5BD74F8881BF
:103B3000C254D840833051F4FE01E05CF74F8081DD
:103B40009181860F911D9183808312C0CE5BD74FE8
:103B50008881F901E81BF1099A918A91C054D840F3
:103B6000E817F90728F4EC0FFD1FE259FF4F6083B7
:103B7000C45BD74F8881CC54D8408823F1F0FE0134
:103B8000E15BF74F808191818627282F2295282796
:103B9000022E269526952025022E26952025277073
:103BA000082E892F269507942795902D8227069415
:103BB00027959025822791838083FE01ED5BF74F47
:103BC000408151814F5F5F4F51834083CE5BD74F20
:103BD00088813A912A91280F311D2C966881CC5406
:103BE000D840862F90E0880F991F280F391F421761
:103BF000530731F511821082CB5BD74F199219927E
:103C000019821882C754D840662341F0C15BD74F50
:103C100088819981CF54D840892B19F4CE010E9414
:103C2000161DFE01E55BF74F9081992349F0C359BA
:103C3000DF4F90588881CD56D040891709F4108203
:103C4000FE01E75BF74F808181111082DF91CF91F8
:103C500008958CEA9DE00E949A0708958CEA9DE001
:103C60000E94930708951F93CF93DF93EA0188EF93
:103C70009DE0422F0E94F50A10E009C088EF9DE008
:103C80000E942E0AFE01E10FF11D80831F5F88EF65
:103C90009DE00E94250A892B89F7812FDF91CF9122
:103CA0001F910895FF920F931F93CF93DF93142FCB
:103CB000052FF22E88EF9DE00E94110A212F302F50
:103CC000C901EC0110E006C088EF9DE069910E94F7
:103CD0009D0A1F5F1F15C0F388EF9DE00E94E00A58
:103CE000DF91CF911F910F91FF900895FF920F9355
:103CF0001F93F42E08EF1DE0C8010E94110AC801AD
:103D00006F2D0E949D0AC8010E94E00A1F910F9129
:103D1000FF9008951F9318E088EF9DE0612F0E94A7
:103D2000110A88EF9DE00E94E00A882331F586EDB4
:103D300090E16DE973E00E94853C86ED90E1612F92
:103D40004AE050E00E94E33B86ED90E161EB73E0D6
:103D50000E94853C86ED90E1612F40E150E00E9499
:103D6000E33B86ED90E166EB73E00E94823D61E00B
:103D700070E080E090E00E9475331F5F183761F6B5
:103D80001F910895AF92BF92CF92DF92EF92FF9270
:103D90000F931F93DF93CF9300D00F92CDB7DEB771
:103DA0007C016E010894C11CD11C56010FE010E08B
:103DB000D701ED91FC910088F189E02DC701B80190
:103DC0001995F50181935F010F5F1F4F03311105B5
:103DD00079F789819A81AB81BC818F5F9F4FAF4F0B
:103DE000BF4FD9F480E092ECA1E0B0E089839A83E0
:103DF000AB83BC830FE010E0D701ED91FC9102880A
:103E0000F389E02DC701B801D6014D916D011995D7
:103E10000F5F1F4F0331110579F749815A816B817B
:103E20007C8186ED90E10E94753888EF9DE00E94CC
:103E3000F90A0E94CF090E94C906870108591F4F3D
:103E4000F801608371838283938386ED90E168EB50
:103E500073E00E94853CD8014D915D916D917C91FC
:103E600086ED90E122E030E00E946C3D86ED90E12D
:103E70006AEC73E00E94823D0F900F900F900F90BC
:103E8000CF91DF911F910F91FF90EF90DF90CF9036
:103E9000BF90AF900895CF93DF93EC0108C086EDFB
:103EA00090E10E942D39682FCE010E94411D86EDC0
:103EB00090E10E94FC38181619068CF3DF91CF911F
:103EC00008957F928F929F92AF92BF92CF92DF928E
:103ED000EF92FF920F931F93CF93DF93FC0186EA3B
:103EE00094E091838083E45BF74F6083399711827C
:103EF000108236961082399711821082359611926F
:103F00001192118210823A961082AA24BB2488242E
:103F100099248CEA9DE0B5010E949307182FB50102
:103F2000695F7F4F8CEA9DE00E949307E401EE24D5
:103F3000FF24C12EDD24C094D094082F10E00095FA
:103F40001095C633D105B4F4B6010E2C02C0759598
:103F500067950A94E2F761708C2F0E941A35B801B8
:103F60000E2C02C0759567950A94E2F761708C2F4C
:103F70000E94CD350894E11CF11C219688E0E816DA
:103F8000F104F9F60894A11CB11C88E090E0880EB9
:103F9000991E97E0A916B10409F0BBCFDF91CF912C
:103FA0001F910F91FF90EF90DF90CF90BF90AF9057
:103FB0009F908F907F9008951F93162F862F8D5777
:103FC000823050F486ED90E16DE70E94663960E240
:103FD000612786ED90E102C086ED90E10E9466398E
:103FE0001F9108958F929F92AF92BF92CF92DF92CE
:103FF000EF92FF920F931F93CF93DF93EC01BEE6F6
:10400000EB2EF12CE80EF91E00E010E0A0E48A2E61
:10401000A8E09A2E880E991EFCE4AF2EF8E0BF2E81
:10402000A80EB91EEDE4CE2EE8E0DE2EC80ED91E95
:104030002AC0F50180818823F1F0F7012081F60183
:10404000808191818227282F22952827022E26956C
:1040500026952025022E269520252770082E892FAB
:10406000269507942795902D8227069427959025CD
:10407000822791838083CE01F70161917F010E94A5
:10408000DC1F0F5F1F4FF401808191810817190712
:1040900008F4CFCFF5018081882369F08E01035B9E
:1040A000174FCE01F80160810E94DC1FF801618189
:1040B000CE010E94DC1FC05CD74F19821882279660
:1040C00019821882DF91CF911F910F91FF90EF908D
:1040D000DF90CF90BF90AF909F908F9008950F93F7
:1040E0001F93CF93DF93EC01062FFC01E05CF74FA9
:1040F000C95BD74F888199819183808386ED90E158
:104100006EE70E94663925968881CC54D840882372
:10411000F9F0C35BD74F8FEF9FEF8027282F2295B1
:104120002827022E269526952025022E2695202525
:104130002770082E892F269507942795902D822782
:10414000069427959025822799838883CD54D8405B
:10415000CE01602F0E94DC1FDE01A05CB74F2D91C5
:104160003C911197FE01E45BF74F2038310530F5A3
:1041700080818823F1F0FE01E35BF74F808191811C
:104180008227282F22952827022E2695269520253E
:10419000022E269520252770082E892F2695079414
:1041A0002795902D82270694279590258227918325
:1041B0008083CE01C05CD74F688149C0808188234D
:1041C00009F437C03068FE01E35BF74F80819181CD
:1041D0008327282F22952827022E269526952025ED
:1041E000022E269520252770082E892F26950794C4
:1041F0002795902D822706942795902582272C912C
:104200008227282F22952827022E269526952025BD
:10421000022E269520252770082E892F2695079493
:104220002795902D822706942795902582279183A4
:1042300080838E01005C174FF80120813181306846
:10424000CE01632F0E94DC1FCE01F80160810E9425
:10425000DC1FDF91CF911F910F9108950F931F9352
:10426000DF93CF930F92CDB7DEB78C016983DC016A
:10427000A95BB74F8D919C911197F801E80FF91F39
:10428000E259FF4F608301968D939C93F801E359A7
:10429000FF4FC80160810E946F20C8010E94F21F79
:1042A0000F90CF91DF911F910F9108956F927F92A0
:1042B0009F92AF92BF92CF92DF92EF92FF920F93B5
:1042C0001F93DF93CF93CDB7DEB76C970FB6F894FB
:1042D000DEBF0FBECDBF7C016DB67EB670E0CB01F8
:1042E000805890408E31910508F0C9C68E589F4F76
:1042F000D701A05CB74FFC01EE0FFF1F0590F491B2
:10430000E02D19948D919C91892B09F0FAC5D70164
:10431000ED91FC910280F381E02DC70119958C018C
:10432000D701ED91FC910280F381E02DC701199531
:10433000DC010D900020E9F7AD0141505040481BD1
:10434000590B20E030E0B701695B774F11C0F701EE
:10435000E20FF31FDB018D919C91E80FF91FE259E9
:10436000FF4FD801A20FB31F8C9180832F5F3F4F67
:104370002417350760F3E7C08D919C91892B09F0D4
:10438000C0C5D701ED91FC910480F581E02DC701F6
:1043900019958C01D701ED91FC910480F581E02DF8
:1043A000C7011995DC010D900020E9F7AD014150DE
:1043B0005040481B590B20E030E0B701695B774F54
:1043C00011C0F701E20FF31FDB018D919C91E80F03
:1043D000F91FE259FF4FD801A20FB31F8C918083C0
:1043E0002F5F3F4F2417350760F3ADC08D919C912F
:1043F000892B09F086C5D701ED91FC910680F781E4
:10440000E02DC70119958C01D701ED91FC91068033
:10441000F781E02DC7011995DC010D900020E9F727
:10442000AD0141505040481B590B20E030E0B7012E
:10443000695B774F11C0F701E20FF31FDB018D912C
:104440009C91E80FF91FE259FF4FD801A20FB31F4B
:104450008C9180832F5F3F4F2417350760F373C023
:104460008D919C91892B09F04CC5D701ED91FC9160
:104470000084F185E02DC70119958C01D701ED91DC
:10448000FC910084F185E02DC7011995DC010D90A8
:104490000020E9F7AD0141505040481B590B20E086
:1044A00030E0B701695B774F11C0F701E20FF31FEE
:1044B000DB018D919C91E80FF91FE259FF4FD80164
:1044C000A20FB31F8C9180832F5F3F4F24173507B6
:1044D00060F339C08D919C91892B09F012C5D701E9
:1044E000ED91FC910284F385E02DC70119958C01B3
:1044F000D701ED91FC910284F385E02DC701199558
:10450000DC010D900020E9F7AD0141505040481BFF
:10451000590B20E030E0B701695B774F11C0F7011C
:10452000E20FF31FDB018D919C91E80FF91FE25917
:10453000FF4FD801A20FB31F8C9180832F5F3F4F95
:104540002417350760F3FB0180819181840F951F4B
:10455000918380832CE630E0E20EF31ED7011C929B
:10456000E4E9FFEFEE0EFF1E8AC58D919C91892B29
:1045700009F0C7C4D701ED91FC910484F585E02DC5
:10458000C70119958C01D701ED91FC910484F58543
:10459000E02DC7011995DC010D900020E9F7AD0170
:1045A00041505040481B590B20E030E0B701695B97
:1045B000774F11C0F701E20FF31FDB018D919C9142
:1045C000E80FF91FE259FF4FD801A20FB31F8C91DA
:1045D00080832F5F3F4F2417350760F3B4CF8D9151
:1045E0009C91892B09F08DC4D701ED91FC91068433
:1045F000F785E02DC70119958C01D701ED91FC914C
:104600000684F785E02DC7011995DC010D90002087
:10461000E9F7AD0141505040481B590B20E030E014
:10462000B701695B774F11C0F701E20FF31FDB01A0
:104630008D919C91E80FF91FE259FF4FD801A20F0D
:10464000B31F8C9180832F5F3F4F2417350760F392
:104650007ACF8D919C91892B09F053C420E030E0F2
:10466000B701695B774FF701E20FF31FDB014D9153
:104670005C91E40FF51FE259FF4FD901A956BB4FDA
:104680008C9180832F5F3F4F2A30310561F7465F61
:104690005F4F1FC28D919C91870104591F4F029754
:1046A00009F0D0C3D701AB5BB74F2D913C91119767
:1046B000F701E20FF31FE259FF4F80812F5F3F4F59
:1046C000F701E20FF31FE259FF4F60812F5F3F4F69
:1046D0002D933C930E941A35B2C38D919C91870112
:1046E00004591F4F029709F0ADC3D701AB5BB74F19
:1046F0002D913C911197F701E20FF31FE259FF4F03
:1047000080812F5F3F4FF701E20FF31FE259FF4F08
:1047100060812F5F3F4F2D933C930E94CD358FC317
:104720008D919C91870104591F4F019709F08AC30D
:10473000D701AB5BB74F2D913C911197F701E20F79
:10474000F31FE259FF4F80812F5F3F4F2D933C9322
:104750000E9400368983D701A95BB74F2D913C9108
:104760001197F701E20FF31FE259FF4F80832F5F8C
:104770003F4F2D933C9363C38D919C9187010459C6
:104780001F4F029709F05EC3D701AB5BB74F2D9166
:104790003C911197F701E20FF31FE259FF4F80811F
:1047A0002F5F3F4F11963C932E9322593F4FF701B5
:1047B000E20FF31F608171812C5630402D933C93A2
:1047C0000E943A343CC32CE630E0E20EF31E86E051
:1047D000F701808324E93FEFE20EF31E2D913C9117
:1047E0002230310508F44BC4ADB69EB6D701AB5BA1
:1047F000B74F8D919C911197F701E80FF91FE2597E
:10480000FF4FB08001968D939C938DB79EB78B1907
:1048100091090FB6F8949EBF0FBE8DBFCDB6DEB620
:104820000894C11CD11C2230310519F491E0B9164D
:10483000D9F08B2D90E003962817390709F096C020
:1048400013C08D919C911197F701E80FF91FE25960
:10485000FF4F2081019611969C938E93F601E30FF2
:10486000F11D20833F5F04C030E0D701AB5BB74F41
:104870003B1538F3A0E4B8E0EA0EFB1EF701808197
:10488000918120EC37EFE20EF31E029701F1F70160
:10489000EB5BF74F8081918182599F4FD701A80F21
:1048A000B91F0D911C918C5690409183808333E009
:1048B000093E130770F08CE690E0E80EF91E89E0DF
:1048C000D7018C93E4E9FFEFEE0EFF1E4FC001E02D
:1048D00010E02CE630E0E20EF31ED7011C9210939C
:1048E000940D0093930DE2E0F0E0EE0EFF1EF092C7
:1048F000900DE0928F0D22E93FEFE20EF31E80E073
:104900000E940E0531E0B31629F4D6018C910E9465
:10491000280512C0D092970DC092960DB092990DB5
:1049200010929A0D8BE695E090939C0D80939B0DD1
:10493000F60180810E9451050E945D072091930D30
:104940003091940D8091910D9091920D8217930763
:10495000C9F70E940B07F701E95BF74F000F111F22
:1049600080819181080F191F118300838A2D992D51
:104970009C010FB6F8943EBF0FBE2DBF80C38D9132
:104980009C91870104591F4F039709F075C3D70104
:10499000AB5BB74F8D919C911197FC01E259FF4F92
:1049A000EE0DFF1D60817181F701E80FF91FE059DD
:1049B000FF4F408103968D939C93D701ED91FC911D
:1049C0000288F389E02DC701199553C38D919C91FD
:1049D000870104591F4F029709F04EC3D701AB5B03
:1049E000B74F8D919C91119782599F4FF701E80F16
:1049F000F91F608171818C5690408D939C93D701F3
:104A0000ED91FC910088F189E02DC701199589830A
:104A1000D701A95BB74F2D913C911197F701E20F98
:104A2000F31FE259FF4F80832F5F3F4F20C38D91CB
:104A30009C91029709F065C2D701AB5BB74F8D918E
:104A40009C911197F701E80FF91FE259FF4F608120
:104A50000196F701E80FF91FE259FF4FA080019678
:104A60008D939C938E01015F1F4FC8010E947A09AC
:104A7000C8010E94A607DD24B02EC12E8E01095F59
:104A80001F4F8B2D9C2DB8010E94E408D394AD14C8
:104A9000C0F7882311F120E030E0B701695B774F60
:104AA0008E01095F1F4FF701E20FF31FDB014D91EC
:104AB0005C91E40FF51FE259FF4FD801A20FB31F1D
:104AC0008C9180832F5F3F4F2830310561F7485F1D
:104AD0005F4FFB01518340833DCD2CE630E0E20E79
:104AE000F31E85E09CC28D919C910B9709F009C241
:104AF000D701AB5BB74F8D919C911197F701E80FF0
:104B0000F91FE259FF4F6081019611969C938E9395
:104B100047E0C42ED12CCC0EDD1EAD01C601BC2C4D
:104B2000A92E8E01015F1F4FFA0180819181F7014B
:104B3000E80FF91FE259FF4F20810196FA01918396
:104B40008083F60121936F01E017F10769F78D91DA
:104B50009C911197F701E80FF91FE259FF4F10815F
:104B60000196F701E80FF91FE259FF4F0081019606
:104B70008D939C93C6010E947A09C6010E949908F0
:104B8000C6016B2D7A2D0E947808C601612F40E086
:104B90000E94380810E03FE0A32EB12CAC0EBD1EE1
:104BA00027E4C22E28E0D22ECE0CDF1C13C0C50194
:104BB0000E94E7078983D6012D913C911197F70157
:104BC000E20FF31FE259FF4F80832F5F3F4F2D937A
:104BD0003C931F5F101758F3ECE6F0E0EE0EFF1E5B
:104BE000BDCC8D919C910B9709F08BC1D701AB5B2C
:104BF000B74F8D919C911197F701E80FF91FE2597A
:104C0000FF4F6081019611969C938E9397E0C92E79
:104C1000D12CCC0EDD1EAD01C601BC2CA92E8E01FF
:104C2000015F1F4FFA0180819181F701E80FF91FA1
:104C3000E259FF4F20810196FA0191838083F601AA
:104C400021936F01E017F10769F78D919C911197FE
:104C5000F701E80FF91FE259FF4F00810196F701B4
:104C6000E80FF91FE259FF4F108101968D939C9335
:104C7000C6010E947A09C6010E949908C6016B2DDF
:104C80007A2D0E947808C601602F412F0E943808B3
:104C900061CC8D919C91029709F0BCC1D701AB5BAF
:104CA000B74F8D919C911197F701E80FF91FE259C9
:104CB000FF4F60810196F701E80FF91FE259FF4F9E
:104CC000C08001968D939C9388EF9DE04C2D0E94AF
:104CD000F50ADD248701095B174F14C088EF9DE0BA
:104CE0000E942E0A8983D8012D913C911197F701DA
:104CF000E20FF31FE259FF4F80832F5F3F4F2D9349
:104D00003C93D39488EF9DE00E94250A892B31F7CC
:104D1000870104591F4FDC1409F4ABC181E0ADC118
:104D20008D919C91029708F4ECC087010B5B174FA3
:104D3000D8018D919C911197F701E80FF91FE25965
:104D4000FF4F608101968D939C9388EF9DE00E94B8
:104D5000110ADD2480E4A82E88E0B82EAE0CBF1C1A
:104D600012C0F80180819181F701E80FF91FE25923
:104D7000FF4F60810196D8018D939C9388EF9DE051
:104D80000E949D0AD3942D2D30E0F5018081918100
:104D900001972817390728F388EF9DE00E94E00A61
:104DA000D9CB8D919C91870104591F4F019709F030
:104DB00049C0D701AB5BB74F2D913C911197F701DB
:104DC000E20FF31FE259FF4F80812F5F3F4F2D937A
:104DD0003C930E94B00933C08D919C918701045986
:104DE0001F4F019779F5D701AB5BB74F2D913C91E0
:104DF0001197F701E20FF31FE259FF4F80812F5FF8
:104E00003F4F2D933C930E94BE0919C08D919C91F8
:104E1000870104591F4F0197A9F4D701AB5BB74F26
:104E20002D913C911197F701E20FF31FE259FF4FCB
:104E300080812F5F3F4F2D933C930E94B909D80189
:104E40001C921DC186E0F801808319C18D919C914F
:104E5000019709F056C0D701AB5BB74F8D919C917C
:104E60001197F701E80FF91FE259FF4F20810196D2
:104E70008D939C932EBD0DB407FEFDCF2EB52983D7
:104E8000D701A95BB74F8D919C911197F701E80F5E
:104E9000F91FE259FF4F208301968D939C935ACBC3
:104EA0008D919C91892B69F526E630E0E20EF31E88
:104EB000D7016D917C91EAE9FFEFEE0EFF1E8701AD
:104EC00020E030E0A701495B574F10C0F701E20F27
:104ED000F31FDA018D919C91E80FF91FE259FF4F02
:104EE000D80111968C9180832F5F3F4F0F5F1F4F2A
:104EF0002617370758F3FA0180819181860F971F93
:104F000027CB2CE630E0E20EF31E88C08D919C91F9
:104F1000870104591F4F892B09F0AEC080919F0D66
:104F20009091A00DA091A10DB091A20D8B839C83B7
:104F3000AD83BE83DE011396A701495B574FFA018B
:104F400020813181F701E20FF31FE259FF4F8B817E
:104F50007FC08D919C91870104591F4F049709F0E0
:104F60008BC0D701AB5BB74F2D913C911197225964
:104F70003F4FF701E20FF31F6081718182819381BE
:104F80002A5630402D933C930E946A0472C08D9142
:104F90009C91870104591F4F892B09F06DC00E9415
:104FA000630489839A83D701A95BB74F2D913C9104
:104FB0001197F701E20FF31FE259FF4F81938A81A6
:104FC00080832E5F3F4F53C08D919C91029711F5C6
:104FD000D701AB5BB74F8D919C91119782599F4F31
:104FE000F701E80FF91F0190F081E02D8C569040F9
:104FF0008D939C93CF010297870104591F4F069709
:1050000038F48E2F0E945A0480E00E941A0531C0A5
:1050100085E033C0ECE6F0E0EE0EFF1E86E0D7013F
:105020008C939ECA8D919C91870104591F4F892BA7
:1050300019F5D701A859BF4FA701495B574FFA018E
:1050400020813181F701E20FF31FE259FF4F8C916C
:10505000819311968C911197819312968C9112974E
:10506000819313968C9180832C5F3F4FDA012D93AF
:105070003C93F801108203C086E0D8018C9387012D
:1050800004591F4FC701F80160810E942E21D801E9
:105090008C910FB6F8947EBE0FBE6DBE6C960FB6A7
:1050A000F894DEBF0FBECDBFCF91DF911F910F915E
:1050B000FF90EF90DF90CF90BF90AF909F907F9048
:1050C0006F9008958BE1E7E7FEE0DF01982F1D92D6
:1050D0009A95E9F77B96DF011D928A95E9F7089585
:1050E0002F923F924F925F926F927F928F929F92F8
:1050F000AF92BF92CF92DF92EF92FF920F931F93E6
:10510000DF93CF93CDB7DEB764970FB6F894DEBFC9
:105110000FBECDBF2F83388749875A87EB86FC8621
:105120000D871E87D88ACF86BA8AA98A0E941F4116
:1051300020E030E04AE754E40E948E3F9B01AC013E
:105140000E94133F5B016C0120E030E040E050E042
:105150000E941B4188234CF0C601B50120E030E0DD
:1051600040E05FE30E94133F08C0C601B50120E0A4
:1051700030E040E05FE30E94123F0E94F63F0E9451
:10518000294020E030E040E05FE30E941F416B8354
:105190007C838D839E836B817C818D819E812F8119
:1051A000388549855A850E948E3F2B853C854D85E3
:1051B0005E850E941F410E94773F0E94FB3F7A83D9
:1051C000698384C329813A81B90180E090E00E941B
:1051D00027402B813C814D815E810E948E3F2F8133
:1051E000388549855A850E941F413B014C01EF8556
:1051F000F88960837183828393832B853C854D85F9
:105200005E850E941B4118160CF45BC3C401B301F8
:105210002F81388549855A850E948E3F7B018C01FC
:1052200060E070E080E090E4A80197010E948E3F6A
:105230005B016C0120E030E040E050E00E941B4147
:1052400088234CF0C601B50120E030E040E05FE388
:105250000E94133F08C0C601B50120E030E040E0E5
:105260005FE30E94123F0E94F63F0E942940A8017E
:1052700097010E941F419B01AC0160E070E080E05B
:1052800090E40E94123F20E030E040E050E00E94B5
:105290001B411816A4F5C601B50120E030E040E03E
:1052A00050E00E941B4188234CF0C601B50120E06C
:1052B00030E040E05FE30E94133F08C0C601B50143
:1052C00020E030E040E05FE30E94123F0E94F63FA2
:1052D0000E942940A80197010E941F419B01AC0137
:1052E00060E070E080E090E40E94123F2DEC3CEC26
:1052F0004CEC5DE30E948A3F87FDE3C234C0C601E7
:10530000B50120E030E040E050E00E941B418823DE
:105310004CF0C601B50120E030E040E05FE30E94C0
:10532000133F08C0C601B50120E030E040E05FE374
:105330000E94123F0E94F63F0E942940A801970157
:105340000E941F419B01AC0160E070E080E090E4AE
:105350000E94123F2DEC3CEC4CEC5DEB0E941B419B
:1053600018160CF4AEC26F81788589859A859B01E9
:10537000AC010E94133F9B01AC01C401B3010E9428
:105380008A3F88230CF079C16F81788589859A8559
:10539000A40193010E948E3F1B012C011C8A1B8AD1
:1053A0002B893C89B90180E090E00E9427405B0195
:1053B0006C01C201B101A60195010E94123F20E0DB
:1053C00030E040E05FE30E948A3F181634F48B8996
:1053D0009C8901969C8B8B8BE3CFC601B501A40100
:1053E00093010E941F419B01AC016F8178858985E3
:1053F0009A850E94123F5B016C0120E030E040E0A2
:1054000050E00E941B41181624F0D7FAD094D7F828
:10541000D094C401B301A60195010E948E3F3B01C7
:105420004C0160E070E080E090E4A40193010E94F0
:105430008E3F5B016C0120E030E040E050E00E94D4
:105440001B4188234CF0C601B50120E030E040E06C
:105450005FE30E94133F08C0C601B50120E030E0C1
:1054600040E05FE30E94123F0E94F63F0E94294005
:10547000A40193010E941F419B01AC0160E070E018
:1054800080E090E40E94123F20E030E040E050E0F5
:105490000E941B411816A4F5C601B50120E030E0BA
:1054A00040E050E00E941B4188234CF0C601B5014A
:1054B00020E030E040E05FE30E94133F08C0C601F7
:1054C000B50120E030E040E05FE30E94123F0E941F
:1054D000F63F0E942940A40193010E941F419B01B5
:1054E000AC0160E070E080E090E40E94123F2DEC9F
:1054F0003CEC4CEC5DE30E948A3F8823ACF5E1C1B3
:10550000C601B50120E030E040E050E00E941B41C0
:1055100088234CF0C601B50120E030E040E05FE3B5
:105520000E94133F08C0C601B50120E030E040E012
:105530005FE30E94123F0E94F63F0E942940A401AF
:1055400093010E941F419B01AC0160E070E080E08C
:1055500090E40E94123F2DEC3CEC4CEC5DEB0E9481
:105560001B4118160CF4ADC1C801B70120E030E0B2
:1055700040E050E00E941B4188234CF0C801B70175
:1055800020E030E040E05FE30E94133F08C0C80124
:10559000B70120E030E040E05FE30E94123F0E944C
:1055A000F63F0E9429409B01AC01C801B7010E944F
:1055B000123F20E030E040E050E00E941B4118160E
:1055C00074F5C801B70120E030E040E050E00E94EF
:1055D0001B4188234CF0C801B70120E030E040E0D7
:1055E0005FE30E94133F08C0C801B70120E030E02C
:1055F00040E05FE30E94123F0E94F63F0E94294074
:105600009B01AC01C801B7010E94123F27E137EBB3
:1056100041ED58E30E948A3F88237CF552C1C801BE
:10562000B70120E030E040E050E00E941B418823B9
:105630004CF0C801B70120E030E040E05FE30E9499
:10564000133F08C0C801B70120E030E040E05FE34D
:105650000E94123F0E94F63F0E9429409B01AC012C
:10566000C801B7010E94123F27E137EB41ED58EB2B
:105670000E941B4118160CF424C1C801B70120E098
:1056800030E040E251E40E948A3F88230CF089C058
:10569000C801B70120E030E040E050E00E941B412B
:1056A00088234CF0C801B70120E030E040E05FE320
:1056B0000E94133F08C0C801B70120E030E040E07D
:1056C0005FE30E94123F0E94F63F0E9429409B0127
:1056D000AC01C801B7010E94123F20E030E040E079
:1056E00050E00E941B41181674F5C801B70120E074
:1056F00030E040E050E00E941B4188234CF0C8019C
:10570000B70120E030E040E05FE30E94133F08C0B3
:10571000C801B70120E030E040E05FE30E94123FA3
:105720000E94F63F0E9429409B01AC01C801B701CD
:105730000E94123F27E137EB41ED58E30E948A3F78
:1057400088237CF5BEC0C801B70120E030E040E00E
:1057500050E00E941B4188234CF0C801B70120E0B3
:1057600030E040E05FE30E94133F08C0C801B7018A
:1057700020E030E040E05FE30E94123F0E94F63FED
:105780000E9429409B01AC01C801B7010E94123F51
:1057900027E137EB41ED58EB0E941B4118160CF442
:1057A00090C0C801B7012B813C814D815E810E9470
:1057B0001F415B016C0120E030E040E050E00E94BE
:1057C0001B4188234CF0C601B50120E030E040E0E9
:1057D0005FE30E94133F08C0C601B50120E030E03E
:1057E00040E05FE30E94123F0E94F63F0E94294082
:1057F0009B01AC01C601B5010E94123F20E030E0E0
:1058000040E050E00E941B41181674F5C601B50136
:1058100020E030E040E050E00E941B4188234CF043
:10582000C601B50120E030E040E05FE30E94133F95
:1058300008C0C601B50120E030E040E05FE30E940F
:10584000123F0E94F63F0E9429409B01AC01C60115
:10585000B5010E94123F27E137EB41ED58E30E946A
:105860008A3F882374F543C0C601B50120E030E0CB
:1058700040E050E00E941B4188234CF0C601B50176
:1058800020E030E040E05FE30E94133F08C0C60123
:10589000B50120E030E040E05FE30E94123F0E944B
:1058A000F63F0E9429409B01AC01C601B5010E9450
:1058B000123F27E137EB41ED58EB0E941B411816D0
:1058C000B4F0E981FA813197FA83E98329813A8139
:1058D0002230310508F076CC6B817C818D819E81F0
:1058E00020E030E040E05FE30E94133F50CC29818C
:1058F0003A81E989FA893183208364960FB6F89456
:10590000DEBF0FBECDBFCF91DF911F910F91FF90F2
:10591000EF90DF90CF90BF90AF909F908F907F904F
:105920006F905F904F903F902F9008950F931F932B
:10593000082F162F8823B9F4613049F0613020F028
:10594000623009F067C009C084E061E008C084E00B
:1059500060E00E94CD3585E03BC084E060E00E94BD
:10596000CD3585E044C0813009F054C06230C1F0CB
:10597000633030F4662351F0613009F04BC009C048
:105980006330C9F0643009F045C024C086E061E0AE
:1059900023C086E060E00E94CD3587E061E020C052
:1059A00086E060E00E94CD3587E060E00E94CD3562
:1059B00088E061E019C086E060E00E94CD3587E0B4
:1059C00060E00E94CD3588E060E00E94CD3589E03E
:1059D00061E00EC086E060E00E94CD3587E060E0C7
:1059E0000E94CD3588E060E00E94CD3589E060E01E
:1059F0000E94CD35202F30E08BE190E0289FF00110
:105A0000299FF00D389FF00D1124E958F14F1183B3
:105A100080E001C085E01F910F9108952F923F9281
:105A20004F925F926F927F928F929F92AF92BF92AE
:105A3000CF92DF92EF92FF920F931F93DF93CF935A
:105A4000CDB7DEB7C855D1400FB6F894DEBF0FBE54
:105A5000CDBFC55BDE4F59834883CB54D140C35B78
:105A6000DE4F088319832A833B83CD54D140CF5A1C
:105A7000DE4FA882C155D1408092760EB5E0AB2EA4
:105A8000B12CAC0EBD1ECF5ADE4F2881C155D1407E
:105A9000222301F1A70196010F2EF0E0EF2EF0E492
:105AA000FF2EFCE90F2FF6E41F2FF02D6501A2E772
:105AB000AA2EAEE0BA2E0E9470282D813E814F8121
:105AC0005885CA01B9010E94133F6D837E838F837D
:105AD000988719C020E030E040E05FE30E941F415A
